{
  "contractName": "ConversionRates",
  "abi": [
    {
      "constant": false,
      "inputs": [
        {
          "name": "alerter",
          "type": "address"
        }
      ],
      "name": "removeAlerter",
      "outputs": [],
      "payable": false,
      "stateMutability": "nonpayable",
      "type": "function"
    },
    {
      "constant": true,
      "inputs": [],
      "name": "validRateDurationInBlocks",
      "outputs": [
        {
          "name": "",
          "type": "uint256"
        }
      ],
      "payable": false,
      "stateMutability": "view",
      "type": "function"
    },
    {
      "constant": true,
      "inputs": [],
      "name": "pendingAdmin",
      "outputs": [
        {
          "name": "",
          "type": "address"
        }
      ],
      "payable": false,
      "stateMutability": "view",
      "type": "function"
    },
    {
      "constant": true,
      "inputs": [],
      "name": "getOperators",
      "outputs": [
        {
          "name": "",
          "type": "address[]"
        }
      ],
      "payable": false,
      "stateMutability": "view",
      "type": "function"
    },
    {
      "constant": false,
      "inputs": [
        {
          "name": "token",
          "type": "address"
        },
        {
          "name": "amount",
          "type": "uint256"
        },
        {
          "name": "sendTo",
          "type": "address"
        }
      ],
      "name": "withdrawToken",
      "outputs": [],
      "payable": false,
      "stateMutability": "nonpayable",
      "type": "function"
    },
    {
      "constant": false,
      "inputs": [
        {
          "name": "newAlerter",
          "type": "address"
        }
      ],
      "name": "addAlerter",
      "outputs": [],
      "payable": false,
      "stateMutability": "nonpayable",
      "type": "function"
    },
    {
      "constant": true,
      "inputs": [],
      "name": "numTokensInCurrentCompactData",
      "outputs": [
        {
          "name": "",
          "type": "uint256"
        }
      ],
      "payable": false,
      "stateMutability": "view",
      "type": "function"
    },
    {
      "constant": false,
      "inputs": [
        {
          "name": "newAdmin",
          "type": "address"
        }
      ],
      "name": "transferAdmin",
      "outputs": [],
      "payable": false,
      "stateMutability": "nonpayable",
      "type": "function"
    },
    {
      "constant": false,
      "inputs": [],
      "name": "claimAdmin",
      "outputs": [],
      "payable": false,
      "stateMutability": "nonpayable",
      "type": "function"
    },
    {
      "constant": false,
      "inputs": [
        {
          "name": "newAdmin",
          "type": "address"
        }
      ],
      "name": "transferAdminQuickly",
      "outputs": [],
      "payable": false,
      "stateMutability": "nonpayable",
      "type": "function"
    },
    {
      "constant": true,
      "inputs": [],
      "name": "getAlerters",
      "outputs": [
        {
          "name": "",
          "type": "address[]"
        }
      ],
      "payable": false,
      "stateMutability": "view",
      "type": "function"
    },
    {
      "constant": false,
      "inputs": [
        {
          "name": "newOperator",
          "type": "address"
        }
      ],
      "name": "addOperator",
      "outputs": [],
      "payable": false,
      "stateMutability": "nonpayable",
      "type": "function"
    },
    {
      "constant": true,
      "inputs": [],
      "name": "reserveContract",
      "outputs": [
        {
          "name": "",
          "type": "address"
        }
      ],
      "payable": false,
      "stateMutability": "view",
      "type": "function"
    },
    {
      "constant": true,
      "inputs": [
        {
          "name": "",
          "type": "address"
        },
        {
          "name": "",
          "type": "uint256"
        }
      ],
      "name": "tokenImbalanceData",
      "outputs": [
        {
          "name": "",
          "type": "uint256"
        }
      ],
      "payable": false,
      "stateMutability": "view",
      "type": "function"
    },
    {
      "constant": false,
      "inputs": [
        {
          "name": "operator",
          "type": "address"
        }
      ],
      "name": "removeOperator",
      "outputs": [],
      "payable": false,
      "stateMutability": "nonpayable",
      "type": "function"
    },
    {
      "constant": false,
      "inputs": [
        {
          "name": "token",
          "type": "address"
        },
        {
          "name": "minimalRecordResolution",
          "type": "uint256"
        },
        {
          "name": "maxPerBlockImbalance",
          "type": "uint256"
        },
        {
          "name": "maxTotalImbalance",
          "type": "uint256"
        }
      ],
      "name": "setTokenControlInfo",
      "outputs": [],
      "payable": false,
      "stateMutability": "nonpayable",
      "type": "function"
    },
    {
      "constant": false,
      "inputs": [
        {
          "name": "amount",
          "type": "uint256"
        },
        {
          "name": "sendTo",
          "type": "address"
        }
      ],
      "name": "withdrawEther",
      "outputs": [],
      "payable": false,
      "stateMutability": "nonpayable",
      "type": "function"
    },
    {
      "constant": true,
      "inputs": [
        {
          "name": "token",
          "type": "address"
        }
      ],
      "name": "getTokenControlInfo",
      "outputs": [
        {
          "name": "",
          "type": "uint256"
        },
        {
          "name": "",
          "type": "uint256"
        },
        {
          "name": "",
          "type": "uint256"
        }
      ],
      "payable": false,
      "stateMutability": "view",
      "type": "function"
    },
    {
      "constant": true,
      "inputs": [],
      "name": "admin",
      "outputs": [
        {
          "name": "",
          "type": "address"
        }
      ],
      "payable": false,
      "stateMutability": "view",
      "type": "function"
    },
    {
      "inputs": [
        {
          "name": "_admin",
          "type": "address"
        }
      ],
      "payable": false,
      "stateMutability": "nonpayable",
      "type": "constructor"
    },
    {
      "anonymous": false,
      "inputs": [
        {
          "indexed": false,
          "name": "token",
          "type": "address"
        },
        {
          "indexed": false,
          "name": "amount",
          "type": "uint256"
        },
        {
          "indexed": false,
          "name": "sendTo",
          "type": "address"
        }
      ],
      "name": "TokenWithdraw",
      "type": "event"
    },
    {
      "anonymous": false,
      "inputs": [
        {
          "indexed": false,
          "name": "amount",
          "type": "uint256"
        },
        {
          "indexed": false,
          "name": "sendTo",
          "type": "address"
        }
      ],
      "name": "EtherWithdraw",
      "type": "event"
    },
    {
      "anonymous": false,
      "inputs": [
        {
          "indexed": false,
          "name": "pendingAdmin",
          "type": "address"
        }
      ],
      "name": "TransferAdminPending",
      "type": "event"
    },
    {
      "anonymous": false,
      "inputs": [
        {
          "indexed": false,
          "name": "newAdmin",
          "type": "address"
        },
        {
          "indexed": false,
          "name": "previousAdmin",
          "type": "address"
        }
      ],
      "name": "AdminClaimed",
      "type": "event"
    },
    {
      "anonymous": false,
      "inputs": [
        {
          "indexed": false,
          "name": "newAlerter",
          "type": "address"
        },
        {
          "indexed": false,
          "name": "isAdd",
          "type": "bool"
        }
      ],
      "name": "AlerterAdded",
      "type": "event"
    },
    {
      "anonymous": false,
      "inputs": [
        {
          "indexed": false,
          "name": "newOperator",
          "type": "address"
        },
        {
          "indexed": false,
          "name": "isAdd",
          "type": "bool"
        }
      ],
      "name": "OperatorAdded",
      "type": "event"
    },
    {
      "constant": false,
      "inputs": [
        {
          "name": "token",
          "type": "address"
        }
      ],
      "name": "addToken",
      "outputs": [],
      "payable": false,
      "stateMutability": "nonpayable",
      "type": "function"
    },
    {
      "constant": false,
      "inputs": [
        {
          "name": "buy",
          "type": "bytes14[]"
        },
        {
          "name": "sell",
          "type": "bytes14[]"
        },
        {
          "name": "blockNumber",
          "type": "uint256"
        },
        {
          "name": "indices",
          "type": "uint256[]"
        }
      ],
      "name": "setCompactData",
      "outputs": [],
      "payable": false,
      "stateMutability": "nonpayable",
      "type": "function"
    },
    {
      "constant": false,
      "inputs": [
        {
          "name": "tokens",
          "type": "address[]"
        },
        {
          "name": "baseBuy",
          "type": "uint256[]"
        },
        {
          "name": "baseSell",
          "type": "uint256[]"
        },
        {
          "name": "buy",
          "type": "bytes14[]"
        },
        {
          "name": "sell",
          "type": "bytes14[]"
        },
        {
          "name": "blockNumber",
          "type": "uint256"
        },
        {
          "name": "indices",
          "type": "uint256[]"
        }
      ],
      "name": "setBaseRate",
      "outputs": [],
      "payable": false,
      "stateMutability": "nonpayable",
      "type": "function"
    },
    {
      "constant": false,
      "inputs": [
        {
          "name": "token",
          "type": "address"
        },
        {
          "name": "xBuy",
          "type": "int256[]"
        },
        {
          "name": "yBuy",
          "type": "int256[]"
        },
        {
          "name": "xSell",
          "type": "int256[]"
        },
        {
          "name": "ySell",
          "type": "int256[]"
        }
      ],
      "name": "setQtyStepFunction",
      "outputs": [],
      "payable": false,
      "stateMutability": "nonpayable",
      "type": "function"
    },
    {
      "constant": false,
      "inputs": [
        {
          "name": "token",
          "type": "address"
        },
        {
          "name": "xBuy",
          "type": "int256[]"
        },
        {
          "name": "yBuy",
          "type": "int256[]"
        },
        {
          "name": "xSell",
          "type": "int256[]"
        },
        {
          "name": "ySell",
          "type": "int256[]"
        }
      ],
      "name": "setImbalanceStepFunction",
      "outputs": [],
      "payable": false,
      "stateMutability": "nonpayable",
      "type": "function"
    },
    {
      "constant": false,
      "inputs": [
        {
          "name": "duration",
          "type": "uint256"
        }
      ],
      "name": "setValidRateDurationInBlocks",
      "outputs": [],
      "payable": false,
      "stateMutability": "nonpayable",
      "type": "function"
    },
    {
      "constant": false,
      "inputs": [
        {
          "name": "token",
          "type": "address"
        }
      ],
      "name": "enableTokenTrade",
      "outputs": [],
      "payable": false,
      "stateMutability": "nonpayable",
      "type": "function"
    },
    {
      "constant": false,
      "inputs": [
        {
          "name": "token",
          "type": "address"
        }
      ],
      "name": "disableTokenTrade",
      "outputs": [],
      "payable": false,
      "stateMutability": "nonpayable",
      "type": "function"
    },
    {
      "constant": false,
      "inputs": [
        {
          "name": "reserve",
          "type": "address"
        }
      ],
      "name": "setReserveAddress",
      "outputs": [],
      "payable": false,
      "stateMutability": "nonpayable",
      "type": "function"
    },
    {
      "constant": false,
      "inputs": [
        {
          "name": "token",
          "type": "address"
        },
        {
          "name": "buyAmount",
          "type": "int256"
        },
        {
          "name": "rateUpdateBlock",
          "type": "uint256"
        },
        {
          "name": "currentBlock",
          "type": "uint256"
        }
      ],
      "name": "recordImbalance",
      "outputs": [],
      "payable": false,
      "stateMutability": "nonpayable",
      "type": "function"
    },
    {
      "constant": true,
      "inputs": [
        {
          "name": "token",
          "type": "address"
        },
        {
          "name": "currentBlockNumber",
          "type": "uint256"
        },
        {
          "name": "buy",
          "type": "bool"
        },
        {
          "name": "qty",
          "type": "uint256"
        }
      ],
      "name": "getRate",
      "outputs": [
        {
          "name": "",
          "type": "uint256"
        }
      ],
      "payable": false,
      "stateMutability": "view",
      "type": "function"
    },
    {
      "constant": true,
      "inputs": [
        {
          "name": "token",
          "type": "address"
        },
        {
          "name": "buy",
          "type": "bool"
        }
      ],
      "name": "getBasicRate",
      "outputs": [
        {
          "name": "",
          "type": "uint256"
        }
      ],
      "payable": false,
      "stateMutability": "view",
      "type": "function"
    },
    {
      "constant": true,
      "inputs": [
        {
          "name": "token",
          "type": "address"
        }
      ],
      "name": "getCompactData",
      "outputs": [
        {
          "name": "",
          "type": "uint256"
        },
        {
          "name": "",
          "type": "uint256"
        },
        {
          "name": "",
          "type": "bytes1"
        },
        {
          "name": "",
          "type": "bytes1"
        }
      ],
      "payable": false,
      "stateMutability": "view",
      "type": "function"
    },
    {
      "constant": true,
      "inputs": [
        {
          "name": "token",
          "type": "address"
        }
      ],
      "name": "getTokenBasicData",
      "outputs": [
        {
          "name": "",
          "type": "bool"
        },
        {
          "name": "",
          "type": "bool"
        }
      ],
      "payable": false,
      "stateMutability": "view",
      "type": "function"
    },
    {
      "constant": true,
      "inputs": [
        {
          "name": "token",
          "type": "address"
        },
        {
          "name": "command",
          "type": "uint256"
        },
        {
          "name": "param",
          "type": "uint256"
        }
      ],
      "name": "getStepFunctionData",
      "outputs": [
        {
          "name": "",
          "type": "int256"
        }
      ],
      "payable": false,
      "stateMutability": "view",
      "type": "function"
    },
    {
      "constant": true,
      "inputs": [
        {
          "name": "token",
          "type": "address"
        }
      ],
      "name": "getRateUpdateBlock",
      "outputs": [
        {
          "name": "",
          "type": "uint256"
        }
      ],
      "payable": false,
      "stateMutability": "view",
      "type": "function"
    },
    {
      "constant": true,
      "inputs": [],
      "name": "getListedTokens",
      "outputs": [
        {
          "name": "",
          "type": "address[]"
        }
      ],
      "payable": false,
      "stateMutability": "view",
      "type": "function"
    }
  ],
  "bytecode": "0x6060604052600a6009556000600d55341561001957600080fd5b6040516020806200555a8339810160405280805190602001909190505080336000806101000a81548173ffffffffffffffffffffffffffffffffffffffff021916908373ffffffffffffffffffffffffffffffffffffffff160217905550600073ffffffffffffffffffffffffffffffffffffffff168173ffffffffffffffffffffffffffffffffffffffff16141515156100b357600080fd5b806000806101000a81548173ffffffffffffffffffffffffffffffffffffffff021916908373ffffffffffffffffffffffffffffffffffffffff160217905550505061545580620001056000396000f3006060604052600436106101c2576000357c0100000000000000000000000000000000000000000000000000000000900463ffffffff16806301a12fd3146101c757806314673d3114610200578063158859f71461023957806316265694146102725780631a4813d71461029b5780631d6a8bda1461043e578063267822471461047757806327a099d8146104cc5780632ba996a5146105365780633ccdbb28146105a0578063408ee7fe146106015780635085c9f11461063a57806362674e931461066357806364887334146106c25780636c6295b8146107a5578063721bba59146107c857806375829def1461082457806377f50f971461085d5780637acc8678146108725780637c423f54146108ab5780638036d7571461091557806380d8b380146109625780639870d7fe14610a9b578063a7f43acd14610ad4578063a80c609e14610b29578063ac8a584a14610b7f578063b8e9c22e14610bb8578063bc9cbcc814610c22578063bfee356914610d5b578063c6fd210314610daf578063ce56c45414610e03578063cf8fee1114610e45578063d48bfca714610e9d578063e4a2ac6214610ed6578063e7d4fd9114610fc0578063f851a4401461101b575b600080fd5b34156101d257600080fd5b6101fe600480803573ffffffffffffffffffffffffffffffffffffffff16906020019091905050611070565b005b341561020b57600080fd5b610237600480803573ffffffffffffffffffffffffffffffffffffffff16906020019091905050611332565b005b341561024457600080fd5b610270600480803573ffffffffffffffffffffffffffffffffffffffff169060200190919050506113d1565b005b341561027d57600080fd5b6102856114e2565b6040518082815260200191505060405180910390f35b34156102a657600080fd5b61043c60048080359060200190820180359060200190808060200260200160405190810160405280939291908181526020018383602002808284378201915050505050509190803590602001908201803590602001908080602002602001604051908101604052809392919081815260200183836020028082843782019150505050505091908035906020019082018035906020019080806020026020016040519081016040528093929190818152602001838360200280828437820191505050505050919080359060200190820180359060200190808060200260200160405190810160405280939291908181526020018383602002808284378201915050505050509190803590602001908201803590602001908080602002602001604051908101604052809392919081815260200183836020028082843782019150505050505091908035906020019091908035906020019082018035906020019080806020026020016040519081016040528093929190818152602001838360200280828437820191505050505050919050506114e8565b005b341561044957600080fd5b610475600480803573ffffffffffffffffffffffffffffffffffffffff1690602001909190505061170f565b005b341561048257600080fd5b61048a611875565b604051808273ffffffffffffffffffffffffffffffffffffffff1673ffffffffffffffffffffffffffffffffffffffff16815260200191505060405180910390f35b34156104d757600080fd5b6104df61189b565b6040518080602001828103825283818151815260200191508051906020019060200280838360005b83811015610522578082015181840152602081019050610507565b505050509050019250505060405180910390f35b341561054157600080fd5b61054961192f565b6040518080602001828103825283818151815260200191508051906020019060200280838360005b8381101561058c578082015181840152602081019050610571565b505050509050019250505060405180910390f35b34156105ab57600080fd5b6105ff600480803573ffffffffffffffffffffffffffffffffffffffff1690602001909190803590602001909190803573ffffffffffffffffffffffffffffffffffffffff169060200190919050506119c3565b005b341561060c57600080fd5b610638600480803573ffffffffffffffffffffffffffffffffffffffff16906020019091905050611b93565b005b341561064557600080fd5b61064d611d89565b6040518082815260200191505060405180910390f35b341561066e57600080fd5b6106ac600480803573ffffffffffffffffffffffffffffffffffffffff16906020019091908035906020019091908035906020019091905050611d8f565b6040518082815260200191505060405180910390f35b34156106cd57600080fd5b6107a360048080359060200190820180359060200190808060200260200160405190810160405280939291908181526020018383602002808284378201915050505050509190803590602001908201803590602001908080602002602001604051908101604052809392919081815260200183836020028082843782019150505050505091908035906020019091908035906020019082018035906020019080806020026020016040519081016040528093929190818152602001838360200280828437820191505050505050919050506123d4565b005b34156107b057600080fd5b6107c66004808035906020019091905050612560565b005b34156107d357600080fd5b6107ff600480803573ffffffffffffffffffffffffffffffffffffffff169060200190919050506125c5565b6040518083151515158152602001821515151581526020019250505060405180910390f35b341561082f57600080fd5b61085b600480803573ffffffffffffffffffffffffffffffffffffffff16906020019091905050612671565b005b341561086857600080fd5b6108706127d1565b005b341561087d57600080fd5b6108a9600480803573ffffffffffffffffffffffffffffffffffffffff169060200190919050506129ad565b005b34156108b657600080fd5b6108be612ba2565b6040518080602001828103825283818151815260200191508051906020019060200280838360005b838110156109015780820151818401526020810190506108e6565b505050509050019250505060405180910390f35b341561092057600080fd5b61094c600480803573ffffffffffffffffffffffffffffffffffffffff16906020019091905050612c36565b6040518082815260200191505060405180910390f35b341561096d57600080fd5b610a99600480803573ffffffffffffffffffffffffffffffffffffffff1690602001909190803590602001908201803590602001908080602002602001604051908101604052809392919081815260200183836020028082843782019150505050505091908035906020019082018035906020019080806020026020016040519081016040528093929190818152602001838360200280828437820191505050505050919080359060200190820180359060200190808060200260200160405190810160405280939291908181526020018383602002808284378201915050505050509190803590602001908201803590602001908080602002602001604051908101604052809392919081815260200183836020028082843782019150505050505091905050612ca9565b005b3415610aa657600080fd5b610ad2600480803573ffffffffffffffffffffffffffffffffffffffff16906020019091905050612ecd565b005b3415610adf57600080fd5b610ae76130c3565b604051808273ffffffffffffffffffffffffffffffffffffffff1673ffffffffffffffffffffffffffffffffffffffff16815260200191505060405180910390f35b3415610b3457600080fd5b610b69600480803573ffffffffffffffffffffffffffffffffffffffff169060200190919080359060200190919050506130e9565b6040518082815260200191505060405180910390f35b3415610b8a57600080fd5b610bb6600480803573ffffffffffffffffffffffffffffffffffffffff1690602001909190505061310e565b005b3415610bc357600080fd5b610c0c600480803573ffffffffffffffffffffffffffffffffffffffff1690602001909190803590602001909190803515159060200190919080359060200190919050506133d3565b6040518082815260200191505060405180910390f35b3415610c2d57600080fd5b610d59600480803573ffffffffffffffffffffffffffffffffffffffff1690602001909190803590602001908201803590602001908080602002602001604051908101604052809392919081815260200183836020028082843782019150505050505091908035906020019082018035906020019080806020026020016040519081016040528093929190818152602001838360200280828437820191505050505050919080359060200190820180359060200190808060200260200160405190810160405280939291908181526020018383602002808284378201915050505050509190803590602001908201803590602001908080602002602001604051908101604052809392919081815260200183836020028082843782019150505050505091905050613aec565b005b3415610d6657600080fd5b610dad600480803573ffffffffffffffffffffffffffffffffffffffff16906020019091908035906020019091908035906020019091908035906020019091905050613d10565b005b3415610dba57600080fd5b610e01600480803573ffffffffffffffffffffffffffffffffffffffff16906020019091908035906020019091908035906020019091908035906020019091905050613ded565b005b3415610e0e57600080fd5b610e43600480803590602001909190803573ffffffffffffffffffffffffffffffffffffffff16906020019091905050613e70565b005b3415610e5057600080fd5b610e87600480803573ffffffffffffffffffffffffffffffffffffffff169060200190919080351515906020019091905050613f7a565b6040518082815260200191505060405180910390f35b3415610ea857600080fd5b610ed4600480803573ffffffffffffffffffffffffffffffffffffffff16906020019091905050614018565b005b3415610ee157600080fd5b610f0d600480803573ffffffffffffffffffffffffffffffffffffffff16906020019091905050614273565b60405180858152602001848152602001837effffffffffffffffffffffffffffffffffffffffffffffffffffffffffffff19167effffffffffffffffffffffffffffffffffffffffffffffffffffffffffffff19168152602001827effffffffffffffffffffffffffffffffffffffffffffffffffffffffffffff19167effffffffffffffffffffffffffffffffffffffffffffffffffffffffffffff1916815260200194505050505060405180910390f35b3415610fcb57600080fd5b610ff7600480803573ffffffffffffffffffffffffffffffffffffffff16906020019091905050614404565b60405180848152602001838152602001828152602001935050505060405180910390f35b341561102657600080fd5b61102e6144df565b604051808273ffffffffffffffffffffffffffffffffffffffff1673ffffffffffffffffffffffffffffffffffffffff16815260200191505060405180910390f35b60008060009054906101000a900473ffffffffffffffffffffffffffffffffffffffff1673ffffffffffffffffffffffffffffffffffffffff163373ffffffffffffffffffffffffffffffffffffffff161415156110cd57600080fd5b600360008373ffffffffffffffffffffffffffffffffffffffff1673ffffffffffffffffffffffffffffffffffffffff16815260200190815260200160002060009054906101000a900460ff16151561112557600080fd5b6000600360008473ffffffffffffffffffffffffffffffffffffffff1673ffffffffffffffffffffffffffffffffffffffff16815260200190815260200160002060006101000a81548160ff021916908315150217905550600090505b60058054905081101561132e578173ffffffffffffffffffffffffffffffffffffffff166005828154811015156111b557fe5b906000526020600020900160009054906101000a900473ffffffffffffffffffffffffffffffffffffffff1673ffffffffffffffffffffffffffffffffffffffff16141561132357600560016005805490500381548110151561121457fe5b906000526020600020900160009054906101000a900473ffffffffffffffffffffffffffffffffffffffff1660058281548110151561124f57fe5b906000526020600020900160006101000a81548173ffffffffffffffffffffffffffffffffffffffff021916908373ffffffffffffffffffffffffffffffffffffffff16021790555060058054809190600190036112ad919061526c565b507f5611bf3e417d124f97bf2c788843ea8bb502b66079fbee02158ef30b172cb762826000604051808373ffffffffffffffffffffffffffffffffffffffff1673ffffffffffffffffffffffffffffffffffffffff168152602001821515151581526020019250505060405180910390a161132e565b806001019050611182565b5050565b6000809054906101000a900473ffffffffffffffffffffffffffffffffffffffff1673ffffffffffffffffffffffffffffffffffffffff163373ffffffffffffffffffffffffffffffffffffffff1614151561138d57600080fd5b80600e60006101000a81548173ffffffffffffffffffffffffffffffffffffffff021916908373ffffffffffffffffffffffffffffffffffffffff16021790555050565b600360003373ffffffffffffffffffffffffffffffffffffffff1673ffffffffffffffffffffffffffffffffffffffff16815260200190815260200160002060009054906101000a900460ff16151561142957600080fd5b600b60008273ffffffffffffffffffffffffffffffffffffffff1673ffffffffffffffffffffffffffffffffffffffff16815260200190815260200160002060000160009054906101000a900460ff16151561148457600080fd5b6000600b60008373ffffffffffffffffffffffffffffffffffffffff1673ffffffffffffffffffffffffffffffffffffffff16815260200190815260200160002060000160016101000a81548160ff02191690831515021790555050565b60095481565b6000600260003373ffffffffffffffffffffffffffffffffffffffff1673ffffffffffffffffffffffffffffffffffffffff16815260200190815260200160002060009054906101000a900460ff16151561154257600080fd5b8651885114151561155257600080fd5b8551885114151561156257600080fd5b8451845114151561157257600080fd5b8151845114151561158257600080fd5b600090505b87518110156116f957600b600089838151811015156115a257fe5b9060200190602002015173ffffffffffffffffffffffffffffffffffffffff1673ffffffffffffffffffffffffffffffffffffffff16815260200190815260200160002060000160009054906101000a900460ff16151561160257600080fd5b868181518110151561161057fe5b90602001906020020151600b60008a8481518110151561162c57fe5b9060200190602002015173ffffffffffffffffffffffffffffffffffffffff1673ffffffffffffffffffffffffffffffffffffffff16815260200190815260200160002060030181905550858181518110151561168557fe5b90602001906020020151600b60008a848151811015156116a157fe5b9060200190602002015173ffffffffffffffffffffffffffffffffffffffff1673ffffffffffffffffffffffffffffffffffffffff168152602001908152602001600020600401819055508080600101915050611587565b611705858585856123d4565b5050505050505050565b6000809054906101000a900473ffffffffffffffffffffffffffffffffffffffff1673ffffffffffffffffffffffffffffffffffffffff163373ffffffffffffffffffffffffffffffffffffffff1614151561176a57600080fd5b600b60008273ffffffffffffffffffffffffffffffffffffffff1673ffffffffffffffffffffffffffffffffffffffff16815260200190815260200160002060000160009054906101000a900460ff1615156117c557600080fd5b6000600660008373ffffffffffffffffffffffffffffffffffffffff1673ffffffffffffffffffffffffffffffffffffffff168152602001908152602001600020600001541415151561181757600080fd5b6001600b60008373ffffffffffffffffffffffffffffffffffffffff1673ffffffffffffffffffffffffffffffffffffffff16815260200190815260200160002060000160016101000a81548160ff02191690831515021790555050565b600160009054906101000a900473ffffffffffffffffffffffffffffffffffffffff1681565b6118a3615298565b600480548060200260200160405190810160405280929190818152602001828054801561192557602002820191906000526020600020905b8160009054906101000a900473ffffffffffffffffffffffffffffffffffffffff1673ffffffffffffffffffffffffffffffffffffffff16815260200190600101908083116118db575b5050505050905090565b6119376152ac565b600a8054806020026020016040519081016040528092919081815260200182805480156119b957602002820191906000526020600020905b8160009054906101000a900473ffffffffffffffffffffffffffffffffffffffff1673ffffffffffffffffffffffffffffffffffffffff168152602001906001019080831161196f575b5050505050905090565b6000809054906101000a900473ffffffffffffffffffffffffffffffffffffffff1673ffffffffffffffffffffffffffffffffffffffff163373ffffffffffffffffffffffffffffffffffffffff16141515611a1e57600080fd5b8273ffffffffffffffffffffffffffffffffffffffff1663a9059cbb82846000604051602001526040518363ffffffff167c0100000000000000000000000000000000000000000000000000000000028152600401808373ffffffffffffffffffffffffffffffffffffffff1673ffffffffffffffffffffffffffffffffffffffff16815260200182815260200192505050602060405180830381600087803b1515611ac957600080fd5b6102c65a03f11515611ada57600080fd5b505050604051805190501515611aef57600080fd5b7f72cb8a894ddb372ceec3d2a7648d86f17d5a15caae0e986c53109b8a9a9385e6838383604051808473ffffffffffffffffffffffffffffffffffffffff1673ffffffffffffffffffffffffffffffffffffffff1681526020018381526020018273ffffffffffffffffffffffffffffffffffffffff1673ffffffffffffffffffffffffffffffffffffffff168152602001935050505060405180910390a1505050565b6000809054906101000a900473ffffffffffffffffffffffffffffffffffffffff1673ffffffffffffffffffffffffffffffffffffffff163373ffffffffffffffffffffffffffffffffffffffff16141515611bee57600080fd5b600360008273ffffffffffffffffffffffffffffffffffffffff1673ffffffffffffffffffffffffffffffffffffffff16815260200190815260200160002060009054906101000a900460ff16151515611c4757600080fd5b6032600580549050101515611c5b57600080fd5b7f5611bf3e417d124f97bf2c788843ea8bb502b66079fbee02158ef30b172cb762816001604051808373ffffffffffffffffffffffffffffffffffffffff1673ffffffffffffffffffffffffffffffffffffffff168152602001821515151581526020019250505060405180910390a16001600360008373ffffffffffffffffffffffffffffffffffffffff1673ffffffffffffffffffffffffffffffffffffffff16815260200190815260200160002060006101000a81548160ff02191690831515021790555060058054806001018281611d3791906152c0565b9160005260206000209001600083909190916101000a81548173ffffffffffffffffffffffffffffffffffffffff021916908373ffffffffffffffffffffffffffffffffffffffff1602179055505050565b600d5481565b600080831415611de957600b60008573ffffffffffffffffffffffffffffffffffffffff1673ffffffffffffffffffffffffffffffffffffffff1681526020019081526020016000206005016000018054905090506123cd565b6001831415611e5757600b60008573ffffffffffffffffffffffffffffffffffffffff1673ffffffffffffffffffffffffffffffffffffffff16815260200190815260200160002060050160000182815481101515611e4457fe5b90600052602060002090015490506123cd565b6002831415611eb057600b60008573ffffffffffffffffffffffffffffffffffffffff1673ffffffffffffffffffffffffffffffffffffffff1681526020019081526020016000206005016001018054905090506123cd565b6003831415611f1e57600b60008573ffffffffffffffffffffffffffffffffffffffff1673ffffffffffffffffffffffffffffffffffffffff16815260200190815260200160002060050160010182815481101515611f0b57fe5b90600052602060002090015490506123cd565b6004831415611f7757600b60008573ffffffffffffffffffffffffffffffffffffffff1673ffffffffffffffffffffffffffffffffffffffff1681526020019081526020016000206007016000018054905090506123cd565b6005831415611fe557600b60008573ffffffffffffffffffffffffffffffffffffffff1673ffffffffffffffffffffffffffffffffffffffff16815260200190815260200160002060070160000182815481101515611fd257fe5b90600052602060002090015490506123cd565b600683141561203e57600b60008573ffffffffffffffffffffffffffffffffffffffff1673ffffffffffffffffffffffffffffffffffffffff1681526020019081526020016000206007016001018054905090506123cd565b60078314156120ac57600b60008573ffffffffffffffffffffffffffffffffffffffff1673ffffffffffffffffffffffffffffffffffffffff1681526020019081526020016000206007016001018281548110151561209957fe5b90600052602060002090015490506123cd565b600883141561210557600b60008573ffffffffffffffffffffffffffffffffffffffff1673ffffffffffffffffffffffffffffffffffffffff1681526020019081526020016000206009016000018054905090506123cd565b600983141561217357600b60008573ffffffffffffffffffffffffffffffffffffffff1673ffffffffffffffffffffffffffffffffffffffff1681526020019081526020016000206009016000018281548110151561216057fe5b90600052602060002090015490506123cd565b600a8314156121cc57600b60008573ffffffffffffffffffffffffffffffffffffffff1673ffffffffffffffffffffffffffffffffffffffff1681526020019081526020016000206009016001018054905090506123cd565b600b83141561223a57600b60008573ffffffffffffffffffffffffffffffffffffffff1673ffffffffffffffffffffffffffffffffffffffff1681526020019081526020016000206009016001018281548110151561222757fe5b90600052602060002090015490506123cd565b600c83141561229357600b60008573ffffffffffffffffffffffffffffffffffffffff1673ffffffffffffffffffffffffffffffffffffffff168152602001908152602001600020600b016000018054905090506123cd565b600d83141561230157600b60008573ffffffffffffffffffffffffffffffffffffffff1673ffffffffffffffffffffffffffffffffffffffff168152602001908152602001600020600b01600001828154811015156122ee57fe5b90600052602060002090015490506123cd565b600e83141561235a57600b60008573ffffffffffffffffffffffffffffffffffffffff1673ffffffffffffffffffffffffffffffffffffffff168152602001908152602001600020600b016001018054905090506123cd565b600f8314156123c857600b60008573ffffffffffffffffffffffffffffffffffffffff1673ffffffffffffffffffffffffffffffffffffffff168152602001908152602001600020600b01600101828154811015156123b557fe5b90600052602060002090015490506123cd565b600080fd5b9392505050565b6000806000600260003373ffffffffffffffffffffffffffffffffffffffff1673ffffffffffffffffffffffffffffffffffffffff16815260200190815260200160002060009054906101000a900460ff16151561243157600080fd5b8551875114151561244157600080fd5b8651845114151561245157600080fd5b63ffffffff851115151561246457600080fd5b600e60080260020a9250600091505b835182101561255757600c80549050848381518110151561249057fe5b906020019060200201511015156124a657600080fd5b82830285028387848151811015156124ba57fe5b90602001906020020151720100000000000000000000000000000000000090040288848151811015156124e957fe5b90602001906020020151720100000000000000000000000000000000000090041717905080600102600c858481518110151561252157fe5b9060200190602002015181548110151561253757fe5b906000526020600020900181600019169055508180600101925050612473565b50505050505050565b6000809054906101000a900473ffffffffffffffffffffffffffffffffffffffff1673ffffffffffffffffffffffffffffffffffffffff163373ffffffffffffffffffffffffffffffffffffffff161415156125bb57600080fd5b8060098190555050565b600080600b60008473ffffffffffffffffffffffffffffffffffffffff1673ffffffffffffffffffffffffffffffffffffffff16815260200190815260200160002060000160009054906101000a900460ff16600b60008573ffffffffffffffffffffffffffffffffffffffff1673ffffffffffffffffffffffffffffffffffffffff16815260200190815260200160002060000160019054906101000a900460ff1691509150915091565b6000809054906101000a900473ffffffffffffffffffffffffffffffffffffffff1673ffffffffffffffffffffffffffffffffffffffff163373ffffffffffffffffffffffffffffffffffffffff161415156126cc57600080fd5b600073ffffffffffffffffffffffffffffffffffffffff168173ffffffffffffffffffffffffffffffffffffffff161415151561270857600080fd5b7f3b81caf78fa51ecbc8acb482fd7012a277b428d9b80f9d156e8a54107496cc40600160009054906101000a900473ffffffffffffffffffffffffffffffffffffffff16604051808273ffffffffffffffffffffffffffffffffffffffff1673ffffffffffffffffffffffffffffffffffffffff16815260200191505060405180910390a180600160006101000a81548173ffffffffffffffffffffffffffffffffffffffff021916908373ffffffffffffffffffffffffffffffffffffffff16021790555050565b3373ffffffffffffffffffffffffffffffffffffffff16600160009054906101000a900473ffffffffffffffffffffffffffffffffffffffff1673ffffffffffffffffffffffffffffffffffffffff1614151561282d57600080fd5b7f65da1cfc2c2e81576ad96afb24a581f8e109b7a403b35cbd3243a1c99efdb9ed600160009054906101000a900473ffffffffffffffffffffffffffffffffffffffff166000809054906101000a900473ffffffffffffffffffffffffffffffffffffffff16604051808373ffffffffffffffffffffffffffffffffffffffff1673ffffffffffffffffffffffffffffffffffffffff1681526020018273ffffffffffffffffffffffffffffffffffffffff1673ffffffffffffffffffffffffffffffffffffffff1681526020019250505060405180910390a1600160009054906101000a900473ffffffffffffffffffffffffffffffffffffffff166000806101000a81548173ffffffffffffffffffffffffffffffffffffffff021916908373ffffffffffffffffffffffffffffffffffffffff1602179055506000600160006101000a81548173ffffffffffffffffffffffffffffffffffffffff021916908373ffffffffffffffffffffffffffffffffffffffff160217905550565b6000809054906101000a900473ffffffffffffffffffffffffffffffffffffffff1673ffffffffffffffffffffffffffffffffffffffff163373ffffffffffffffffffffffffffffffffffffffff16141515612a0857600080fd5b600073ffffffffffffffffffffffffffffffffffffffff168173ffffffffffffffffffffffffffffffffffffffff1614151515612a4457600080fd5b7f3b81caf78fa51ecbc8acb482fd7012a277b428d9b80f9d156e8a54107496cc4081604051808273ffffffffffffffffffffffffffffffffffffffff1673ffffffffffffffffffffffffffffffffffffffff16815260200191505060405180910390a17f65da1cfc2c2e81576ad96afb24a581f8e109b7a403b35cbd3243a1c99efdb9ed816000809054906101000a900473ffffffffffffffffffffffffffffffffffffffff16604051808373ffffffffffffffffffffffffffffffffffffffff1673ffffffffffffffffffffffffffffffffffffffff1681526020018273ffffffffffffffffffffffffffffffffffffffff1673ffffffffffffffffffffffffffffffffffffffff1681526020019250505060405180910390a1806000806101000a81548173ffffffffffffffffffffffffffffffffffffffff021916908373ffffffffffffffffffffffffffffffffffffffff16021790555050565b612baa615298565b6005805480602002602001604051908101604052809291908181526020018280548015612c2c57602002820191906000526020600020905b8160009054906101000a900473ffffffffffffffffffffffffffffffffffffffff1673ffffffffffffffffffffffffffffffffffffffff1681526020019060010190808311612be2575b5050505050905090565b600080600c600b60008573ffffffffffffffffffffffffffffffffffffffff1673ffffffffffffffffffffffffffffffffffffffff16815260200190815260200160002060010154815481101515612c8a57fe5b9060005260206000209001549050612ca181614504565b915050919050565b600260003373ffffffffffffffffffffffffffffffffffffffff1673ffffffffffffffffffffffffffffffffffffffff16815260200190815260200160002060009054906101000a900460ff161515612d0157600080fd5b82518451141515612d1157600080fd5b80518251141515612d2157600080fd5b600a845111151515612d3257600080fd5b600a825111151515612d4357600080fd5b600b60008673ffffffffffffffffffffffffffffffffffffffff1673ffffffffffffffffffffffffffffffffffffffff16815260200190815260200160002060000160009054906101000a900460ff161515612d9e57600080fd5b604080519081016040528085815260200184815250600b60008773ffffffffffffffffffffffffffffffffffffffff1673ffffffffffffffffffffffffffffffffffffffff1681526020019081526020016000206005016000820151816000019080519060200190612e119291906152ec565b506020820151816001019080519060200190612e2e9291906152ec565b50905050604080519081016040528083815260200182815250600b60008773ffffffffffffffffffffffffffffffffffffffff1673ffffffffffffffffffffffffffffffffffffffff1681526020019081526020016000206007016000820151816000019080519060200190612ea59291906152ec565b506020820151816001019080519060200190612ec29291906152ec565b509050505050505050565b6000809054906101000a900473ffffffffffffffffffffffffffffffffffffffff1673ffffffffffffffffffffffffffffffffffffffff163373ffffffffffffffffffffffffffffffffffffffff16141515612f2857600080fd5b600260008273ffffffffffffffffffffffffffffffffffffffff1673ffffffffffffffffffffffffffffffffffffffff16815260200190815260200160002060009054906101000a900460ff16151515612f8157600080fd5b6032600480549050101515612f9557600080fd5b7f091a7a4b85135fdd7e8dbc18b12fabe5cc191ea867aa3c2e1a24a102af61d58b816001604051808373ffffffffffffffffffffffffffffffffffffffff1673ffffffffffffffffffffffffffffffffffffffff168152602001821515151581526020019250505060405180910390a16001600260008373ffffffffffffffffffffffffffffffffffffffff1673ffffffffffffffffffffffffffffffffffffffff16815260200190815260200160002060006101000a81548160ff0219169083151502179055506004805480600101828161307191906152c0565b9160005260206000209001600083909190916101000a81548173ffffffffffffffffffffffffffffffffffffffff021916908373ffffffffffffffffffffffffffffffffffffffff1602179055505050565b600e60009054906101000a900473ffffffffffffffffffffffffffffffffffffffff1681565b6007602052816000526040600020602052806000526040600020600091509150505481565b60008060009054906101000a900473ffffffffffffffffffffffffffffffffffffffff1673ffffffffffffffffffffffffffffffffffffffff163373ffffffffffffffffffffffffffffffffffffffff1614151561316b57600080fd5b600260008373ffffffffffffffffffffffffffffffffffffffff1673ffffffffffffffffffffffffffffffffffffffff16815260200190815260200160002060009054906101000a900460ff1615156131c357600080fd5b6000600260008473ffffffffffffffffffffffffffffffffffffffff1673ffffffffffffffffffffffffffffffffffffffff16815260200190815260200160002060006101000a81548160ff021916908315150217905550600090505b6004805490508110156133cf578173ffffffffffffffffffffffffffffffffffffffff1660048281548110151561325357fe5b906000526020600020900160009054906101000a900473ffffffffffffffffffffffffffffffffffffffff1673ffffffffffffffffffffffffffffffffffffffff1614156133c45760046001600480549050038154811015156132b257fe5b906000526020600020900160009054906101000a900473ffffffffffffffffffffffffffffffffffffffff166004828154811015156132ed57fe5b906000526020600020900160006101000a81548173ffffffffffffffffffffffffffffffffffffffff021916908373ffffffffffffffffffffffffffffffffffffffff160217905550600160048181805490500391508161334e919061526c565b507f091a7a4b85135fdd7e8dbc18b12fabe5cc191ea867aa3c2e1a24a102af61d58b826000604051808373ffffffffffffffffffffffffffffffffffffffff1673ffffffffffffffffffffffffffffffffffffffff168152602001821515151581526020019250505060405180910390a16133cf565b806001019050613220565b5050565b6000806000806000806000806000600b60008e73ffffffffffffffffffffffffffffffffffffffff1673ffffffffffffffffffffffffffffffffffffffff16815260200190815260200160002060000160019054906101000a900460ff1615156134405760009850613adc565b6000600660008f73ffffffffffffffffffffffffffffffffffffffff1673ffffffffffffffffffffffffffffffffffffffff1681526020019081526020016000206000015414156134945760009850613adc565b600c600b60008f73ffffffffffffffffffffffffffffffffffffffff1673ffffffffffffffffffffffffffffffffffffffff168152602001908152602001600020600101548154811015156134e557fe5b90600052602060002090015497506134fc88614504565b965060095487018c1015156135145760009850613adc565b61351f8d888e61452d565b80965081975050508a156137d757600b60008e73ffffffffffffffffffffffffffffffffffffffff1673ffffffffffffffffffffffffffffffffffffffff16815260200190815260200160002060030154905061357e888e600161459d565b9150600a8260000b0292506135938184614661565b90506135a08d828c6146e1565b995089935083860195506136b0600b60008f73ffffffffffffffffffffffffffffffffffffffff1673ffffffffffffffffffffffffffffffffffffffff1681526020019081526020016000206005016040805190810160405290816000820180548060200260200160405190810160405280929190818152602001828054801561364957602002820191906000526020600020905b815481526020019060010190808311613635575b50505050508152602001600182018054806020026020016040519081016040528092919081815260200182805480156136a157602002820191906000526020600020905b81548152602001906001019080831161368d575b5050505050815250508b61470c565b92506136bc8184614661565b90506137c4600b60008f73ffffffffffffffffffffffffffffffffffffffff1673ffffffffffffffffffffffffffffffffffffffff1681526020019081526020016000206009016040805190810160405290816000820180548060200260200160405190810160405280929190818152602001828054801561375d57602002820191906000526020600020905b815481526020019060010190808311613749575b50505050508152602001600182018054806020026020016040519081016040528092919081815260200182805480156137b557602002820191906000526020600020905b8154815260200190600101908083116137a1575b5050505050815250508761470c565b92506137d08184614661565b9050613a92565b600b60008e73ffffffffffffffffffffffffffffffffffffffff1673ffffffffffffffffffffffffffffffffffffffff168152602001908152602001600020600401549050613828888e600061459d565b9150600a8260000b02925061383d8184614661565b9050897fffffffffffffffffffffffffffffffffffffffffffffffffffffffffffffffff029350838601955061396f600b60008f73ffffffffffffffffffffffffffffffffffffffff1673ffffffffffffffffffffffffffffffffffffffff1681526020019081526020016000206007016040805190810160405290816000820180548060200260200160405190810160405280929190818152602001828054801561390857602002820191906000526020600020905b8154815260200190600101908083116138f4575b505050505081526020016001820180548060200260200160405190810160405280929190818152602001828054801561396057602002820191906000526020600020905b81548152602001906001019080831161394c575b5050505050815250508b61470c565b925061397b8184614661565b9050613a83600b60008f73ffffffffffffffffffffffffffffffffffffffff1673ffffffffffffffffffffffffffffffffffffffff168152602001908152602001600020600b0160408051908101604052908160008201805480602002602001604051908101604052809291908181526020018280548015613a1c57602002820191906000526020600020905b815481526020019060010190808311613a08575b5050505050815260200160018201805480602002602001604051908101604052809291908181526020018280548015613a7457602002820191906000526020600020905b815481526020019060010190808311613a60575b5050505050815250508761470c565b9250613a8f8184614661565b90505b613a9b8d6147a4565b613aa4876147f0565b101515613ab45760009850613adc565b613abd8d61482d565b613ac88587016147f0565b101515613ad85760009850613adc565b8098505b5050505050505050949350505050565b600260003373ffffffffffffffffffffffffffffffffffffffff1673ffffffffffffffffffffffffffffffffffffffff16815260200190815260200160002060009054906101000a900460ff161515613b4457600080fd5b82518451141515613b5457600080fd5b80518251141515613b6457600080fd5b600a845111151515613b7557600080fd5b600a825111151515613b8657600080fd5b600b60008673ffffffffffffffffffffffffffffffffffffffff1673ffffffffffffffffffffffffffffffffffffffff16815260200190815260200160002060000160009054906101000a900460ff161515613be157600080fd5b604080519081016040528085815260200184815250600b60008773ffffffffffffffffffffffffffffffffffffffff1673ffffffffffffffffffffffffffffffffffffffff1681526020019081526020016000206009016000820151816000019080519060200190613c549291906152ec565b506020820151816001019080519060200190613c719291906152ec565b50905050604080519081016040528083815260200182815250600b60008773ffffffffffffffffffffffffffffffffffffffff1673ffffffffffffffffffffffffffffffffffffffff168152602001908152602001600020600b016000820151816000019080519060200190613ce89291906152ec565b506020820151816001019080519060200190613d059291906152ec565b509050505050505050565b6000809054906101000a900473ffffffffffffffffffffffffffffffffffffffff1673ffffffffffffffffffffffffffffffffffffffff163373ffffffffffffffffffffffffffffffffffffffff16141515613d6b57600080fd5b60606040519081016040528084815260200183815260200182815250600660008673ffffffffffffffffffffffffffffffffffffffff1673ffffffffffffffffffffffffffffffffffffffff16815260200190815260200160002060008201518160000155602082015181600101556040820151816002015590505050505050565b600e60009054906101000a900473ffffffffffffffffffffffffffffffffffffffff1673ffffffffffffffffffffffffffffffffffffffff163373ffffffffffffffffffffffffffffffffffffffff16141515613e4957600080fd5b6000821415613e5e57613e5b84612c36565b91505b613e6a84848484614879565b50505050565b6000809054906101000a900473ffffffffffffffffffffffffffffffffffffffff1673ffffffffffffffffffffffffffffffffffffffff163373ffffffffffffffffffffffffffffffffffffffff16141515613ecb57600080fd5b8073ffffffffffffffffffffffffffffffffffffffff166108fc839081150290604051600060405180830381858888f193505050501515613f0b57600080fd5b7fec47e7ed86c86774d1a72c19f35c639911393fe7c1a34031fdbd260890da90de8282604051808381526020018273ffffffffffffffffffffffffffffffffffffffff1673ffffffffffffffffffffffffffffffffffffffff1681526020019250505060405180910390a15050565b60008115613fcc57600b60008473ffffffffffffffffffffffffffffffffffffffff1673ffffffffffffffffffffffffffffffffffffffff168152602001908152602001600020600301549050614012565b600b60008473ffffffffffffffffffffffffffffffffffffffff1673ffffffffffffffffffffffffffffffffffffffff1681526020019081526020016000206004015490505b92915050565b6000809054906101000a900473ffffffffffffffffffffffffffffffffffffffff1673ffffffffffffffffffffffffffffffffffffffff163373ffffffffffffffffffffffffffffffffffffffff1614151561407357600080fd5b600b60008273ffffffffffffffffffffffffffffffffffffffff1673ffffffffffffffffffffffffffffffffffffffff16815260200190815260200160002060000160009054906101000a900460ff161515156140cf57600080fd5b6001600b60008373ffffffffffffffffffffffffffffffffffffffff1673ffffffffffffffffffffffffffffffffffffffff16815260200190815260200160002060000160006101000a81548160ff021916908315150217905550600a805480600101828161413e9190615339565b9160005260206000209001600083909190916101000a81548173ffffffffffffffffffffffffffffffffffffffff021916908373ffffffffffffffffffffffffffffffffffffffff160217905550506000600d5414156141ae57600c80548091906001016141ac9190615365565b505b6001600c8054905003600b60008373ffffffffffffffffffffffffffffffffffffffff1673ffffffffffffffffffffffffffffffffffffffff16815260200190815260200160002060010181905550600d54600b60008373ffffffffffffffffffffffffffffffffffffffff1673ffffffffffffffffffffffffffffffffffffffff16815260200190815260200160002060020181905550600e6001600d540181151561425757fe5b06600d8190555061426781614a62565b61427081614ad8565b50565b600080600080600080600b60008873ffffffffffffffffffffffffffffffffffffffff1673ffffffffffffffffffffffffffffffffffffffff16815260200190815260200160002060000160009054906101000a900460ff1615156142d757600080fd5b600b60008873ffffffffffffffffffffffffffffffffffffffff1673ffffffffffffffffffffffffffffffffffffffff168152602001908152602001600020600101549150600b60008873ffffffffffffffffffffffffffffffffffffffff1673ffffffffffffffffffffffffffffffffffffffff1681526020019081526020016000206002015490508181614389600c8581548110151561437557fe5b9060005260206000209001548a600161459d565b7f0100000000000000000000000000000000000000000000000000000000000000026143d1600c868154811015156143bd57fe5b9060005260206000209001548b600061459d565b7f010000000000000000000000000000000000000000000000000000000000000002955095509550955050509193509193565b6000806000600660008573ffffffffffffffffffffffffffffffffffffffff1673ffffffffffffffffffffffffffffffffffffffff16815260200190815260200160002060000154600660008673ffffffffffffffffffffffffffffffffffffffff1673ffffffffffffffffffffffffffffffffffffffff16815260200190815260200160002060010154600660008773ffffffffffffffffffffffffffffffffffffffff1673ffffffffffffffffffffffffffffffffffffffff168152602001908152602001600020600201549250925092509193909250565b6000809054906101000a900473ffffffffffffffffffffffffffffffffffffffff1681565b6000600e60080260020a600e60080260020a02826001900481151561452557fe5b049050919050565b6000806000600660008773ffffffffffffffffffffffffffffffffffffffff1673ffffffffffffffffffffffffffffffffffffffff168152602001908152602001600020600001549050614582868686614c38565b80935081945050508083029250808202915050935093915050565b6000806000600b60008673ffffffffffffffffffffffffffffffffffffffff1673ffffffffffffffffffffffffffffffffffffffff16815260200190815260200160002060020154915083156145fb5781600e602003019050614602565b8160040190505b858160208110151561461057fe5b1a7f0100000000000000000000000000000000000000000000000000000000000000027f01000000000000000000000000000000000000000000000000000000000000009004925050509392505050565b600080620f4240670de0b6b3a764000002841115151561468057600080fd5b7fffffffffffffffffffffffffffffffffffffffffffffffffffffffffffffd8f083121515156146af57600080fd5b64174876e80083131515156146c357600080fd5b61271090508083820185028115156146d757fe5b0491505092915050565b60008060006146ef86614d5f565b91506012905061470185828487614e96565b925050509392505050565b60008060008460200151519150600090505b8181101561477a5784600001518181518110151561473857fe5b906020019060200201518413151561476d5784602001518181518110151561475c57fe5b90602001906020020151925061479c565b808060010191505061471e565b84602001516001830381518110151561478f57fe5b9060200190602002015192505b505092915050565b6000600660008373ffffffffffffffffffffffffffffffffffffffff1673ffffffffffffffffffffffffffffffffffffffff168152602001908152602001600020600201549050919050565b60008082121561482457817fffffffffffffffffffffffffffffffffffffffffffffffffffffffffffffffff029050614828565b8190505b919050565b6000600660008373ffffffffffffffffffffffffffffffffffffffff1673ffffffffffffffffffffffffffffffffffffffff168152602001908152602001600020600101549050919050565b6000806000614886615391565b600060058681151561489457fe5b069450600660008a73ffffffffffffffffffffffffffffffffffffffff1673ffffffffffffffffffffffffffffffffffffffff16815260200190815260200160002060000154888115156148e457fe5b05935060009250614944600760008b73ffffffffffffffffffffffffffffffffffffffff1673ffffffffffffffffffffffffffffffffffffffff168152602001908152602001600020600087815260200190815260200160002054614f48565b915085826020015114156149bc5786826060015114156149835783826000018181510191508181525050838260400181815101915081815250506149b7565b61498e898888615018565b925083830182604001818152505083826000018181510191508181525050868260600181815250505b6149fa565b6149c7898888614c38565b80925081945050508382600001818152505085826020018181525050868260600181815250508383018260400181815250505b614a03826150dc565b600760008b73ffffffffffffffffffffffffffffffffffffffff1673ffffffffffffffffffffffffffffffffffffffff168152602001908152602001600020600087815260200190815260200160002081905550505050505050505050565b60008090505b6005811015614ad4576001600760008473ffffffffffffffffffffffffffffffffffffffff1673ffffffffffffffffffffffffffffffffffffffff1681526020019081526020016000206000838152602001908152602001600020819055508080600101915050614a68565b5050565b73eeeeeeeeeeeeeeeeeeeeeeeeeeeeeeeeeeeeeeee73ffffffffffffffffffffffffffffffffffffffff168173ffffffffffffffffffffffffffffffffffffffff161415614b6a576012600860008373ffffffffffffffffffffffffffffffffffffffff1673ffffffffffffffffffffffffffffffffffffffff16815260200190815260200160002081905550614c35565b8073ffffffffffffffffffffffffffffffffffffffff1663313ce5676000604051602001526040518163ffffffff167c0100000000000000000000000000000000000000000000000000000000028152600401602060405180830381600087803b1515614bd657600080fd5b6102c65a03f11515614be757600080fd5b50505060405180519050600860008373ffffffffffffffffffffffffffffffffffffffff1673ffffffffffffffffffffffffffffffffffffffff168152602001908152602001600020819055505b50565b6000806000806000806000614c4b615391565b60009750600096506000955060009450899350889250600091505b6005821015614d4457614cc8600760008d73ffffffffffffffffffffffffffffffffffffffff1673ffffffffffffffffffffffffffffffffffffffff168152602001908152602001600020600084815260200190815260200160002054614f48565b905082816020015111158015614ce2575083816020015110155b15614cf1578060000151850194505b898160600151141515614d0357614d37565b8581602001511015614d1457614d37565b80602001519550806040015197508881602001511415614d3657806000015196505b5b8180600101925050614c66565b6000881415614d51578497505b505050505050935093915050565b60008073eeeeeeeeeeeeeeeeeeeeeeeeeeeeeeeeeeeeeeee73ffffffffffffffffffffffffffffffffffffffff168373ffffffffffffffffffffffffffffffffffffffff161415614db35760129150614e90565b600860008473ffffffffffffffffffffffffffffffffffffffff1673ffffffffffffffffffffffffffffffffffffffff1681526020019081526020016000205490506000811415614e8c578273ffffffffffffffffffffffffffffffffffffffff1663313ce5676000604051602001526040518163ffffffff167c0100000000000000000000000000000000000000000000000000000000028152600401602060405180830381600087803b1515614e6a57600080fd5b6102c65a03f11515614e7b57600080fd5b505050604051805190509150614e90565b8091505b50919050565b60006b204fce5e3e250261100000008511151515614eb357600080fd5b620f4240670de0b6b3a7640000028211151515614ecf57600080fd5b8383101515614f0e57601284840311151515614eea57600080fd5b670de0b6b3a7640000848403600a0a83870202811515614f0657fe5b049050614f40565b601283850311151515614f2057600080fd5b828403600a0a670de0b6b3a764000002828602811515614f3c57fe5b0490505b949350505050565b614f50615391565b614f58615391565b60016801000000000000000003831660070b816000018181525050600168010000000000000000036801000000000000000084811515614f9457fe5b041667ffffffffffffffff168160200181815250506001680100000000000000000368010000000000000000800284811515614fcc57fe5b041660070b816040018181525050680100000000000000008068010000000000000000020283811515614ffb57fe5b0467ffffffffffffffff1681606001818152505080915050919050565b600080615023615391565b83851115151561503257600080fd5b60009250600091505b60058210156150d35761509d600760008873ffffffffffffffffffffffffffffffffffffffff1673ffffffffffffffffffffffffffffffffffffffff168152602001908152602001600020600084815260200190815260200160002054614f48565b9050838160200151111580156150b7575084816020015110155b156150c6578060000151830192505b818060010192505061503b565b50509392505050565b6000806002680100000000000000008115156150f457fe5b04836000015112151561510657600080fd5b6002680100000000000000007fffffffffffffffffffffffffffffffffffffffffffffffffffffffffffffffff0281151561513d57fe5b05836000015113151561514f57600080fd5b68010000000000000000836020015110151561516a57600080fd5b60026801000000000000000081151561517f57fe5b04836040015112151561519157600080fd5b6002680100000000000000007fffffffffffffffffffffffffffffffffffffffffffffffffffffffffffffffff028115156151c857fe5b0583604001511315156151da57600080fd5b6801000000000000000083606001511015156151f557600080fd5b600168010000000000000000038360000151169050680100000000000000008360200151028117905068010000000000000000806001680100000000000000000385604001511602028117905068010000000000000000806801000000000000000085606001510202028117905080915050919050565b8154818355818115116152935781836000526020600020918201910161529291906153ba565b5b505050565b602060405190810160405280600081525090565b602060405190810160405280600081525090565b8154818355818115116152e7578183600052602060002091820191016152e691906153ba565b5b505050565b828054828255906000526020600020908101928215615328579160200282015b8281111561532757825182559160200191906001019061530c565b5b50905061533591906153df565b5090565b8154818355818115116153605781836000526020600020918201910161535f91906153ba565b5b505050565b81548183558181151161538c5781836000526020600020918201910161538b9190615404565b5b505050565b608060405190810160405280600081526020016000815260200160008152602001600081525090565b6153dc91905b808211156153d85760008160009055506001016153c0565b5090565b90565b61540191905b808211156153fd5760008160009055506001016153e5565b5090565b90565b61542691905b8082111561542257600081600090555060010161540a565b5090565b905600a165627a7a72305820ded4a61b2fffce8f46ac14afd4421ce114c70eadd1f54a4d4dc61df3d716b8460029",
  "source": "pragma solidity 0.4.18;\n\n\nimport \"./ERC20Interface.sol\";\nimport \"./VolumeImbalanceRecorder.sol\";\nimport \"./Utils.sol\";\nimport \"./ConversionRatesInterface.sol\";\n\ncontract ConversionRates is ConversionRatesInterface, VolumeImbalanceRecorder, Utils {\n\n    // bps - basic rate steps. one step is 1 / 10000 of the rate.\n    struct StepFunction {\n        int[] x; // quantity for each step. Quantity of each step includes previous steps.\n        int[] y; // rate change per quantity step  in bps.\n    }\n\n    struct TokenData {\n        bool listed;  // was added to reserve\n        bool enabled; // whether trade is enabled\n\n        // position in the compact data\n        uint compactDataArrayIndex;\n        uint compactDataFieldIndex;\n\n        // rate data. base and changes according to quantity and reserve balance.\n        // generally speaking. Sell rate is 1 / buy rate i.e. the buy in the other direction.\n        uint baseBuyRate;  // in PRECISION units. see KyberConstants\n        uint baseSellRate; // PRECISION units. without (sell / buy) spread it is 1 / baseBuyRate\n        StepFunction buyRateQtyStepFunction; // in bps. higher quantity - bigger the rate.\n        StepFunction sellRateQtyStepFunction;// in bps. higher the qua\n        StepFunction buyRateImbalanceStepFunction; // in BPS. higher reserve imbalance - bigger the rate.\n        StepFunction sellRateImbalanceStepFunction;\n    }\n\n    /*\n    this is the data for tokenRatesCompactData\n    but solidity compiler optimizer is sub-optimal, and cannot write this structure in a single storage write\n    so we represent it as bytes32 and do the byte tricks ourselves.\n    struct TokenRatesCompactData {\n        bytes14 buy;  // change buy rate of token from baseBuyRate in 10 bps\n        bytes14 sell; // change sell rate of token from baseSellRate in 10 bps\n\n        uint32 blockNumber;\n    } */\n    uint public validRateDurationInBlocks = 10; // rates are valid for this amount of blocks\n    ERC20[] internal listedTokens;\n    mapping(address=>TokenData) internal tokenData;\n    bytes32[] internal tokenRatesCompactData;\n    uint public numTokensInCurrentCompactData = 0;\n    address public reserveContract;\n    uint constant internal NUM_TOKENS_IN_COMPACT_DATA = 14;\n    uint constant internal BYTES_14_OFFSET = (2 ** (8 * NUM_TOKENS_IN_COMPACT_DATA));\n    uint constant internal MAX_STEPS_IN_FUNCTION = 10;\n    int  constant internal MAX_BPS_ADJUSTMENT = 10 ** 11; // 1B %\n    int  constant internal MIN_BPS_ADJUSTMENT = -100 * 100; // cannot go down by more than 100%\n\n    function ConversionRates(address _admin) public VolumeImbalanceRecorder(_admin)\n        { } // solhint-disable-line no-empty-blocks\n\n    function addToken(ERC20 token) public onlyAdmin {\n\n        require(!tokenData[token].listed);\n        tokenData[token].listed = true;\n        listedTokens.push(token);\n\n        if (numTokensInCurrentCompactData == 0) {\n            tokenRatesCompactData.length++; // add new structure\n        }\n\n        tokenData[token].compactDataArrayIndex = tokenRatesCompactData.length - 1;\n        tokenData[token].compactDataFieldIndex = numTokensInCurrentCompactData;\n\n        numTokensInCurrentCompactData = (numTokensInCurrentCompactData + 1) % NUM_TOKENS_IN_COMPACT_DATA;\n\n        setGarbageToVolumeRecorder(token);\n\n        setDecimals(token);\n    }\n\n    function setCompactData(bytes14[] buy, bytes14[] sell, uint blockNumber, uint[] indices) public onlyOperator {\n\n        require(buy.length == sell.length);\n        require(indices.length == buy.length);\n        require(blockNumber <= 0xFFFFFFFF);\n\n        uint bytes14Offset = BYTES_14_OFFSET;\n\n        for (uint i = 0; i < indices.length; i++) {\n            require(indices[i] < tokenRatesCompactData.length);\n            uint data = uint(buy[i]) | uint(sell[i]) * bytes14Offset | (blockNumber * (bytes14Offset * bytes14Offset));\n            tokenRatesCompactData[indices[i]] = bytes32(data);\n        }\n    }\n\n    function setBaseRate(\n        ERC20[] tokens,\n        uint[] baseBuy,\n        uint[] baseSell,\n        bytes14[] buy,\n        bytes14[] sell,\n        uint blockNumber,\n        uint[] indices\n    )\n        public\n        onlyOperator\n    {\n        require(tokens.length == baseBuy.length);\n        require(tokens.length == baseSell.length);\n        require(sell.length == buy.length);\n        require(sell.length == indices.length);\n\n        for (uint ind = 0; ind < tokens.length; ind++) {\n            require(tokenData[tokens[ind]].listed);\n            tokenData[tokens[ind]].baseBuyRate = baseBuy[ind];\n            tokenData[tokens[ind]].baseSellRate = baseSell[ind];\n        }\n\n        setCompactData(buy, sell, blockNumber, indices);\n    }\n\n    function setQtyStepFunction(\n        ERC20 token,\n        int[] xBuy,\n        int[] yBuy,\n        int[] xSell,\n        int[] ySell\n    )\n        public\n        onlyOperator\n    {\n        require(xBuy.length == yBuy.length);\n        require(xSell.length == ySell.length);\n        require(xBuy.length <= MAX_STEPS_IN_FUNCTION);\n        require(xSell.length <= MAX_STEPS_IN_FUNCTION);\n        require(tokenData[token].listed);\n\n        tokenData[token].buyRateQtyStepFunction = StepFunction(xBuy, yBuy);\n        tokenData[token].sellRateQtyStepFunction = StepFunction(xSell, ySell);\n    }\n\n    function setImbalanceStepFunction(\n        ERC20 token,\n        int[] xBuy,\n        int[] yBuy,\n        int[] xSell,\n        int[] ySell\n    )\n        public\n        onlyOperator\n    {\n        require(xBuy.length == yBuy.length);\n        require(xSell.length == ySell.length);\n        require(xBuy.length <= MAX_STEPS_IN_FUNCTION);\n        require(xSell.length <= MAX_STEPS_IN_FUNCTION);\n        require(tokenData[token].listed);\n\n        tokenData[token].buyRateImbalanceStepFunction = StepFunction(xBuy, yBuy);\n        tokenData[token].sellRateImbalanceStepFunction = StepFunction(xSell, ySell);\n    }\n\n    function setValidRateDurationInBlocks(uint duration) public onlyAdmin {\n        validRateDurationInBlocks = duration;\n    }\n\n    function enableTokenTrade(ERC20 token) public onlyAdmin {\n        require(tokenData[token].listed);\n        require(tokenControlInfo[token].minimalRecordResolution != 0);\n        tokenData[token].enabled = true;\n    }\n\n    function disableTokenTrade(ERC20 token) public onlyAlerter {\n        require(tokenData[token].listed);\n        tokenData[token].enabled = false;\n    }\n\n    function setReserveAddress(address reserve) public onlyAdmin {\n        reserveContract = reserve;\n    }\n\n    function recordImbalance(\n        ERC20 token,\n        int buyAmount,\n        uint rateUpdateBlock,\n        uint currentBlock\n    )\n        public\n    {\n        require(msg.sender == reserveContract);\n\n        if (rateUpdateBlock == 0) rateUpdateBlock = getRateUpdateBlock(token);\n\n        return addImbalance(token, buyAmount, rateUpdateBlock, currentBlock);\n    }\n\n    /* solhint-disable function-max-lines */\n    function getRate(ERC20 token, uint currentBlockNumber, bool buy, uint qty) public view returns(uint) {\n        // check if trade is enabled\n        if (!tokenData[token].enabled) return 0;\n        if (tokenControlInfo[token].minimalRecordResolution == 0) return 0; // token control info not set\n\n        // get rate update block\n        bytes32 compactData = tokenRatesCompactData[tokenData[token].compactDataArrayIndex];\n\n        uint updateRateBlock = getLast4Bytes(compactData);\n        if (currentBlockNumber >= updateRateBlock + validRateDurationInBlocks) return 0; // rate is expired\n        // check imbalance\n        int totalImbalance;\n        int blockImbalance;\n        (totalImbalance, blockImbalance) = getImbalance(token, updateRateBlock, currentBlockNumber);\n\n        // calculate actual rate\n        int imbalanceQty;\n        int extraBps;\n        int8 rateUpdate;\n        uint rate;\n\n        if (buy) {\n            // start with base rate\n            rate = tokenData[token].baseBuyRate;\n\n            // add rate update\n            rateUpdate = getRateByteFromCompactData(compactData, token, true);\n            extraBps = int(rateUpdate) * 10;\n            rate = addBps(rate, extraBps);\n\n            // compute token qty\n            qty = getTokenQty(token, rate, qty);\n            imbalanceQty = int(qty);\n            totalImbalance += imbalanceQty;\n\n            // add qty overhead\n            extraBps = executeStepFunction(tokenData[token].buyRateQtyStepFunction, int(qty));\n            rate = addBps(rate, extraBps);\n\n            // add imbalance overhead\n            extraBps = executeStepFunction(tokenData[token].buyRateImbalanceStepFunction, totalImbalance);\n            rate = addBps(rate, extraBps);\n        } else {\n            // start with base rate\n            rate = tokenData[token].baseSellRate;\n\n            // add rate update\n            rateUpdate = getRateByteFromCompactData(compactData, token, false);\n            extraBps = int(rateUpdate) * 10;\n            rate = addBps(rate, extraBps);\n\n            // compute token qty\n            imbalanceQty = -1 * int(qty);\n            totalImbalance += imbalanceQty;\n\n            // add qty overhead\n            extraBps = executeStepFunction(tokenData[token].sellRateQtyStepFunction, int(qty));\n            rate = addBps(rate, extraBps);\n\n            // add imbalance overhead\n            extraBps = executeStepFunction(tokenData[token].sellRateImbalanceStepFunction, totalImbalance);\n            rate = addBps(rate, extraBps);\n        }\n\n        if (abs(totalImbalance) >= getMaxTotalImbalance(token)) return 0;\n        if (abs(blockImbalance + imbalanceQty) >= getMaxPerBlockImbalance(token)) return 0;\n\n        return rate;\n    }\n    /* solhint-enable function-max-lines */\n\n    function getBasicRate(ERC20 token, bool buy) public view returns(uint) {\n        if (buy)\n            return tokenData[token].baseBuyRate;\n        else\n            return tokenData[token].baseSellRate;\n    }\n\n    function getCompactData(ERC20 token) public view returns(uint, uint, byte, byte) {\n        require(tokenData[token].listed);\n\n        uint arrayIndex = tokenData[token].compactDataArrayIndex;\n        uint fieldOffset = tokenData[token].compactDataFieldIndex;\n\n        return (\n            arrayIndex,\n            fieldOffset,\n            byte(getRateByteFromCompactData(tokenRatesCompactData[arrayIndex], token, true)),\n            byte(getRateByteFromCompactData(tokenRatesCompactData[arrayIndex], token, false))\n        );\n    }\n\n    function getTokenBasicData(ERC20 token) public view returns(bool, bool) {\n        return (tokenData[token].listed, tokenData[token].enabled);\n    }\n\n    /* solhint-disable code-complexity */\n    function getStepFunctionData(ERC20 token, uint command, uint param) public view returns(int) {\n        if (command == 0) return int(tokenData[token].buyRateQtyStepFunction.x.length);\n        if (command == 1) return tokenData[token].buyRateQtyStepFunction.x[param];\n        if (command == 2) return int(tokenData[token].buyRateQtyStepFunction.y.length);\n        if (command == 3) return tokenData[token].buyRateQtyStepFunction.y[param];\n\n        if (command == 4) return int(tokenData[token].sellRateQtyStepFunction.x.length);\n        if (command == 5) return tokenData[token].sellRateQtyStepFunction.x[param];\n        if (command == 6) return int(tokenData[token].sellRateQtyStepFunction.y.length);\n        if (command == 7) return tokenData[token].sellRateQtyStepFunction.y[param];\n\n        if (command == 8) return int(tokenData[token].buyRateImbalanceStepFunction.x.length);\n        if (command == 9) return tokenData[token].buyRateImbalanceStepFunction.x[param];\n        if (command == 10) return int(tokenData[token].buyRateImbalanceStepFunction.y.length);\n        if (command == 11) return tokenData[token].buyRateImbalanceStepFunction.y[param];\n\n        if (command == 12) return int(tokenData[token].sellRateImbalanceStepFunction.x.length);\n        if (command == 13) return tokenData[token].sellRateImbalanceStepFunction.x[param];\n        if (command == 14) return int(tokenData[token].sellRateImbalanceStepFunction.y.length);\n        if (command == 15) return tokenData[token].sellRateImbalanceStepFunction.y[param];\n\n        revert();\n    }\n    /* solhint-enable code-complexity */\n\n    function getRateUpdateBlock(ERC20 token) public view returns(uint) {\n        bytes32 compactData = tokenRatesCompactData[tokenData[token].compactDataArrayIndex];\n        return getLast4Bytes(compactData);\n    }\n\n    function getListedTokens() public view returns(ERC20[]) {\n        return listedTokens;\n    }\n\n    function getTokenQty(ERC20 token, uint ethQty, uint rate) internal view returns(uint) {\n        uint dstDecimals = getDecimals(token);\n        uint srcDecimals = ETH_DECIMALS;\n\n        return calcDstQty(ethQty, srcDecimals, dstDecimals, rate);\n    }\n\n    function getLast4Bytes(bytes32 b) internal pure returns(uint) {\n        // cannot trust compiler with not turning bit operations into EXP opcode\n        return uint(b) / (BYTES_14_OFFSET * BYTES_14_OFFSET);\n    }\n\n    function getRateByteFromCompactData(bytes32 data, ERC20 token, bool buy) internal view returns(int8) {\n        uint fieldOffset = tokenData[token].compactDataFieldIndex;\n        uint byteOffset;\n        if (buy)\n            byteOffset = 32 - NUM_TOKENS_IN_COMPACT_DATA + fieldOffset;\n        else\n            byteOffset = 4 + fieldOffset;\n\n        return int8(data[byteOffset]);\n    }\n\n    function executeStepFunction(StepFunction f, int x) internal pure returns(int) {\n        uint len = f.y.length;\n        for (uint ind = 0; ind < len; ind++) {\n            if (x <= f.x[ind]) return f.y[ind];\n        }\n\n        return f.y[len-1];\n    }\n\n    function addBps(uint rate, int bps) internal pure returns(uint) {\n        require(rate <= MAX_RATE);\n        require(bps >= MIN_BPS_ADJUSTMENT);\n        require(bps <= MAX_BPS_ADJUSTMENT);\n\n        uint maxBps = 100 * 100;\n        return (rate * uint(int(maxBps) + bps)) / maxBps;\n    }\n\n    function abs(int x) internal pure returns(uint) {\n        if (x < 0)\n            return uint(-1 * x);\n        else\n            return uint(x);\n    }\n}\n",
  "sourcePath": "/Users/oscarr/Ethereum/frappe/contracts/ConversionRates.sol",
  "compiler": {
    "name": "solc",
    "version": "0.4.18+commit.9cf6e910.Emscripten.clang"
  },
  "schemaVersion": "3.0.6",
  "updatedAt": "2019-05-18T17:14:12.895Z",
  "devdoc": {
    "methods": {
      "claimAdmin()": {
        "details": "Allows the pendingAdmin address to finalize the change admin process."
      },
      "transferAdmin(address)": {
        "details": "Allows the current admin to set the pendingAdmin address.",
        "params": {
          "newAdmin": "The address to transfer ownership to."
        }
      },
      "transferAdminQuickly(address)": {
        "details": "Allows the current admin to set the admin in one tx. Useful initial deployment.",
        "params": {
          "newAdmin": "The address to transfer ownership to."
        }
      },
      "withdrawEther(uint256,address)": {
        "details": "Withdraw Ethers"
      },
      "withdrawToken(address,uint256,address)": {
        "details": "Withdraw all ERC20 compatible tokens",
        "params": {
          "token": "ERC20 The address of the token contract"
        }
      }
    }
  },
  "userdoc": {
    "methods": {}
  }
}