{
  "contractName": "ExpectedRate",
  "abi": [
    {
      "constant": false,
      "inputs": [
        {
          "name": "alerter",
          "type": "address"
        }
      ],
      "name": "removeAlerter",
      "outputs": [],
      "payable": false,
      "stateMutability": "nonpayable",
      "type": "function"
    },
    {
      "constant": true,
      "inputs": [],
      "name": "pendingAdmin",
      "outputs": [
        {
          "name": "",
          "type": "address"
        }
      ],
      "payable": false,
      "stateMutability": "view",
      "type": "function"
    },
    {
      "constant": true,
      "inputs": [],
      "name": "getOperators",
      "outputs": [
        {
          "name": "",
          "type": "address[]"
        }
      ],
      "payable": false,
      "stateMutability": "view",
      "type": "function"
    },
    {
      "constant": false,
      "inputs": [
        {
          "name": "token",
          "type": "address"
        },
        {
          "name": "amount",
          "type": "uint256"
        },
        {
          "name": "sendTo",
          "type": "address"
        }
      ],
      "name": "withdrawToken",
      "outputs": [],
      "payable": false,
      "stateMutability": "nonpayable",
      "type": "function"
    },
    {
      "constant": false,
      "inputs": [
        {
          "name": "newAlerter",
          "type": "address"
        }
      ],
      "name": "addAlerter",
      "outputs": [],
      "payable": false,
      "stateMutability": "nonpayable",
      "type": "function"
    },
    {
      "constant": false,
      "inputs": [
        {
          "name": "newAdmin",
          "type": "address"
        }
      ],
      "name": "transferAdmin",
      "outputs": [],
      "payable": false,
      "stateMutability": "nonpayable",
      "type": "function"
    },
    {
      "constant": false,
      "inputs": [],
      "name": "claimAdmin",
      "outputs": [],
      "payable": false,
      "stateMutability": "nonpayable",
      "type": "function"
    },
    {
      "constant": false,
      "inputs": [
        {
          "name": "newAdmin",
          "type": "address"
        }
      ],
      "name": "transferAdminQuickly",
      "outputs": [],
      "payable": false,
      "stateMutability": "nonpayable",
      "type": "function"
    },
    {
      "constant": true,
      "inputs": [],
      "name": "getAlerters",
      "outputs": [
        {
          "name": "",
          "type": "address[]"
        }
      ],
      "payable": false,
      "stateMutability": "view",
      "type": "function"
    },
    {
      "constant": false,
      "inputs": [
        {
          "name": "newOperator",
          "type": "address"
        }
      ],
      "name": "addOperator",
      "outputs": [],
      "payable": false,
      "stateMutability": "nonpayable",
      "type": "function"
    },
    {
      "constant": true,
      "inputs": [],
      "name": "worstCaseRateFactorInBps",
      "outputs": [
        {
          "name": "",
          "type": "uint256"
        }
      ],
      "payable": false,
      "stateMutability": "view",
      "type": "function"
    },
    {
      "constant": true,
      "inputs": [],
      "name": "quantityFactor",
      "outputs": [
        {
          "name": "",
          "type": "uint256"
        }
      ],
      "payable": false,
      "stateMutability": "view",
      "type": "function"
    },
    {
      "constant": false,
      "inputs": [
        {
          "name": "operator",
          "type": "address"
        }
      ],
      "name": "removeOperator",
      "outputs": [],
      "payable": false,
      "stateMutability": "nonpayable",
      "type": "function"
    },
    {
      "constant": true,
      "inputs": [],
      "name": "kyberNetwork",
      "outputs": [
        {
          "name": "",
          "type": "address"
        }
      ],
      "payable": false,
      "stateMutability": "view",
      "type": "function"
    },
    {
      "constant": false,
      "inputs": [
        {
          "name": "amount",
          "type": "uint256"
        },
        {
          "name": "sendTo",
          "type": "address"
        }
      ],
      "name": "withdrawEther",
      "outputs": [],
      "payable": false,
      "stateMutability": "nonpayable",
      "type": "function"
    },
    {
      "constant": true,
      "inputs": [
        {
          "name": "token",
          "type": "address"
        },
        {
          "name": "user",
          "type": "address"
        }
      ],
      "name": "getBalance",
      "outputs": [
        {
          "name": "",
          "type": "uint256"
        }
      ],
      "payable": false,
      "stateMutability": "view",
      "type": "function"
    },
    {
      "constant": true,
      "inputs": [],
      "name": "knc",
      "outputs": [
        {
          "name": "",
          "type": "address"
        }
      ],
      "payable": false,
      "stateMutability": "view",
      "type": "function"
    },
    {
      "constant": true,
      "inputs": [],
      "name": "admin",
      "outputs": [
        {
          "name": "",
          "type": "address"
        }
      ],
      "payable": false,
      "stateMutability": "view",
      "type": "function"
    },
    {
      "inputs": [
        {
          "name": "_kyberNetwork",
          "type": "address"
        },
        {
          "name": "_knc",
          "type": "address"
        },
        {
          "name": "_admin",
          "type": "address"
        }
      ],
      "payable": false,
      "stateMutability": "nonpayable",
      "type": "constructor"
    },
    {
      "anonymous": false,
      "inputs": [
        {
          "indexed": false,
          "name": "newFactor",
          "type": "uint256"
        },
        {
          "indexed": false,
          "name": "oldFactor",
          "type": "uint256"
        },
        {
          "indexed": false,
          "name": "sender",
          "type": "address"
        }
      ],
      "name": "QuantityFactorSet",
      "type": "event"
    },
    {
      "anonymous": false,
      "inputs": [
        {
          "indexed": false,
          "name": "newMin",
          "type": "uint256"
        },
        {
          "indexed": false,
          "name": "oldMin",
          "type": "uint256"
        },
        {
          "indexed": false,
          "name": "sender",
          "type": "address"
        }
      ],
      "name": "MinSlippageFactorSet",
      "type": "event"
    },
    {
      "anonymous": false,
      "inputs": [
        {
          "indexed": false,
          "name": "token",
          "type": "address"
        },
        {
          "indexed": false,
          "name": "amount",
          "type": "uint256"
        },
        {
          "indexed": false,
          "name": "sendTo",
          "type": "address"
        }
      ],
      "name": "TokenWithdraw",
      "type": "event"
    },
    {
      "anonymous": false,
      "inputs": [
        {
          "indexed": false,
          "name": "amount",
          "type": "uint256"
        },
        {
          "indexed": false,
          "name": "sendTo",
          "type": "address"
        }
      ],
      "name": "EtherWithdraw",
      "type": "event"
    },
    {
      "anonymous": false,
      "inputs": [
        {
          "indexed": false,
          "name": "pendingAdmin",
          "type": "address"
        }
      ],
      "name": "TransferAdminPending",
      "type": "event"
    },
    {
      "anonymous": false,
      "inputs": [
        {
          "indexed": false,
          "name": "newAdmin",
          "type": "address"
        },
        {
          "indexed": false,
          "name": "previousAdmin",
          "type": "address"
        }
      ],
      "name": "AdminClaimed",
      "type": "event"
    },
    {
      "anonymous": false,
      "inputs": [
        {
          "indexed": false,
          "name": "newAlerter",
          "type": "address"
        },
        {
          "indexed": false,
          "name": "isAdd",
          "type": "bool"
        }
      ],
      "name": "AlerterAdded",
      "type": "event"
    },
    {
      "anonymous": false,
      "inputs": [
        {
          "indexed": false,
          "name": "newOperator",
          "type": "address"
        },
        {
          "indexed": false,
          "name": "isAdd",
          "type": "bool"
        }
      ],
      "name": "OperatorAdded",
      "type": "event"
    },
    {
      "constant": false,
      "inputs": [
        {
          "name": "newFactor",
          "type": "uint256"
        }
      ],
      "name": "setQuantityFactor",
      "outputs": [],
      "payable": false,
      "stateMutability": "nonpayable",
      "type": "function"
    },
    {
      "constant": false,
      "inputs": [
        {
          "name": "bps",
          "type": "uint256"
        }
      ],
      "name": "setWorstCaseRateFactor",
      "outputs": [],
      "payable": false,
      "stateMutability": "nonpayable",
      "type": "function"
    },
    {
      "constant": true,
      "inputs": [
        {
          "name": "src",
          "type": "address"
        },
        {
          "name": "dest",
          "type": "address"
        },
        {
          "name": "srcQty",
          "type": "uint256"
        },
        {
          "name": "usePermissionless",
          "type": "bool"
        }
      ],
      "name": "getExpectedRate",
      "outputs": [
        {
          "name": "expectedRate",
          "type": "uint256"
        },
        {
          "name": "slippageRate",
          "type": "uint256"
        }
      ],
      "payable": false,
      "stateMutability": "view",
      "type": "function"
    },
    {
      "constant": true,
      "inputs": [
        {
          "name": "currentKncToEthRate",
          "type": "uint256"
        }
      ],
      "name": "checkKncArbitrageRate",
      "outputs": [
        {
          "name": "",
          "type": "bool"
        }
      ],
      "payable": false,
      "stateMutability": "view",
      "type": "function"
    }
  ],
  "bytecode": "0x606060405260026008556032600955341561001957600080fd5b60405160608061295883398101604052808051906020019091908051906020019091908051906020019091905050336000806101000a81548173ffffffffffffffffffffffffffffffffffffffff021916908373ffffffffffffffffffffffffffffffffffffffff160217905550600073ffffffffffffffffffffffffffffffffffffffff168173ffffffffffffffffffffffffffffffffffffffff16141515156100c357600080fd5b600073ffffffffffffffffffffffffffffffffffffffff168273ffffffffffffffffffffffffffffffffffffffff16141515156100ff57600080fd5b600073ffffffffffffffffffffffffffffffffffffffff168373ffffffffffffffffffffffffffffffffffffffff161415151561013b57600080fd5b82600760006101000a81548173ffffffffffffffffffffffffffffffffffffffff021916908373ffffffffffffffffffffffffffffffffffffffff160217905550806000806101000a81548173ffffffffffffffffffffffffffffffffffffffff021916908373ffffffffffffffffffffffffffffffffffffffff16021790555081600a60006101000a81548173ffffffffffffffffffffffffffffffffffffffff021916908373ffffffffffffffffffffffffffffffffffffffff1602179055505050506127498061020f6000396000f300606060405260043610610128576000357c0100000000000000000000000000000000000000000000000000000000900463ffffffff16806301a12fd31461012d578063267822471461016657806327a099d8146101bb5780633ccdbb2814610225578063408ee7fe1461028657806375829def146102bf5780637658c574146102f857806377f50f971461031b5780637acc8678146103305780637c423f54146103695780639870d7fe146103d35780639bc72d5f1461040c578063a7de9c6314610435578063ac8a584a1461045e578063b78b842d14610497578063ce56c454146104ec578063d38d2bea1461052e578063d4fac45d146105b5578063dcb46e3814610621578063e61387e014610644578063e853cda314610699578063f851a440146106d4575b600080fd5b341561013857600080fd5b610164600480803573ffffffffffffffffffffffffffffffffffffffff16906020019091905050610729565b005b341561017157600080fd5b6101796109eb565b604051808273ffffffffffffffffffffffffffffffffffffffff1673ffffffffffffffffffffffffffffffffffffffff16815260200191505060405180910390f35b34156101c657600080fd5b6101ce610a11565b6040518080602001828103825283818151815260200191508051906020019060200280838360005b838110156102115780820151818401526020810190506101f6565b505050509050019250505060405180910390f35b341561023057600080fd5b610284600480803573ffffffffffffffffffffffffffffffffffffffff1690602001909190803590602001909190803573ffffffffffffffffffffffffffffffffffffffff16906020019091905050610aa5565b005b341561029157600080fd5b6102bd600480803573ffffffffffffffffffffffffffffffffffffffff16906020019091905050610c75565b005b34156102ca57600080fd5b6102f6600480803573ffffffffffffffffffffffffffffffffffffffff16906020019091905050610e6b565b005b341561030357600080fd5b6103196004808035906020019091905050610fcb565b005b341561032657600080fd5b61032e6110b2565b005b341561033b57600080fd5b610367600480803573ffffffffffffffffffffffffffffffffffffffff1690602001909190505061128e565b005b341561037457600080fd5b61037c611483565b6040518080602001828103825283818151815260200191508051906020019060200280838360005b838110156103bf5780820151818401526020810190506103a4565b505050509050019250505060405180910390f35b34156103de57600080fd5b61040a600480803573ffffffffffffffffffffffffffffffffffffffff16906020019091905050611517565b005b341561041757600080fd5b61041f61170d565b6040518082815260200191505060405180910390f35b341561044057600080fd5b610448611713565b6040518082815260200191505060405180910390f35b341561046957600080fd5b610495600480803573ffffffffffffffffffffffffffffffffffffffff16906020019091905050611719565b005b34156104a257600080fd5b6104aa6119de565b604051808273ffffffffffffffffffffffffffffffffffffffff1673ffffffffffffffffffffffffffffffffffffffff16815260200191505060405180910390f35b34156104f757600080fd5b61052c600480803590602001909190803573ffffffffffffffffffffffffffffffffffffffff16906020019091905050611a04565b005b341561053957600080fd5b610598600480803573ffffffffffffffffffffffffffffffffffffffff1690602001909190803573ffffffffffffffffffffffffffffffffffffffff169060200190919080359060200190919080351515906020019091905050611b0e565b604051808381526020018281526020019250505060405180910390f35b34156105c057600080fd5b61060b600480803573ffffffffffffffffffffffffffffffffffffffff1690602001909190803573ffffffffffffffffffffffffffffffffffffffff16906020019091905050611ce0565b6040518082815260200191505060405180910390f35b341561062c57600080fd5b6106426004808035906020019091905050611e10565b005b341561064f57600080fd5b610657611ef8565b604051808273ffffffffffffffffffffffffffffffffffffffff1673ffffffffffffffffffffffffffffffffffffffff16815260200191505060405180910390f35b34156106a457600080fd5b6106ba6004808035906020019091905050611f1e565b604051808215151515815260200191505060405180910390f35b34156106df57600080fd5b6106e7611fc4565b604051808273ffffffffffffffffffffffffffffffffffffffff1673ffffffffffffffffffffffffffffffffffffffff16815260200191505060405180910390f35b60008060009054906101000a900473ffffffffffffffffffffffffffffffffffffffff1673ffffffffffffffffffffffffffffffffffffffff163373ffffffffffffffffffffffffffffffffffffffff1614151561078657600080fd5b600360008373ffffffffffffffffffffffffffffffffffffffff1673ffffffffffffffffffffffffffffffffffffffff16815260200190815260200160002060009054906101000a900460ff1615156107de57600080fd5b6000600360008473ffffffffffffffffffffffffffffffffffffffff1673ffffffffffffffffffffffffffffffffffffffff16815260200190815260200160002060006101000a81548160ff021916908315150217905550600090505b6005805490508110156109e7578173ffffffffffffffffffffffffffffffffffffffff1660058281548110151561086e57fe5b906000526020600020900160009054906101000a900473ffffffffffffffffffffffffffffffffffffffff1673ffffffffffffffffffffffffffffffffffffffff1614156109dc5760056001600580549050038154811015156108cd57fe5b906000526020600020900160009054906101000a900473ffffffffffffffffffffffffffffffffffffffff1660058281548110151561090857fe5b906000526020600020900160006101000a81548173ffffffffffffffffffffffffffffffffffffffff021916908373ffffffffffffffffffffffffffffffffffffffff1602179055506005805480919060019003610966919061268c565b507f5611bf3e417d124f97bf2c788843ea8bb502b66079fbee02158ef30b172cb762826000604051808373ffffffffffffffffffffffffffffffffffffffff1673ffffffffffffffffffffffffffffffffffffffff168152602001821515151581526020019250505060405180910390a16109e7565b80600101905061083b565b5050565b600160009054906101000a900473ffffffffffffffffffffffffffffffffffffffff1681565b610a196126b8565b6004805480602002602001604051908101604052809291908181526020018280548015610a9b57602002820191906000526020600020905b8160009054906101000a900473ffffffffffffffffffffffffffffffffffffffff1673ffffffffffffffffffffffffffffffffffffffff1681526020019060010190808311610a51575b5050505050905090565b6000809054906101000a900473ffffffffffffffffffffffffffffffffffffffff1673ffffffffffffffffffffffffffffffffffffffff163373ffffffffffffffffffffffffffffffffffffffff16141515610b0057600080fd5b8273ffffffffffffffffffffffffffffffffffffffff1663a9059cbb82846000604051602001526040518363ffffffff167c0100000000000000000000000000000000000000000000000000000000028152600401808373ffffffffffffffffffffffffffffffffffffffff1673ffffffffffffffffffffffffffffffffffffffff16815260200182815260200192505050602060405180830381600087803b1515610bab57600080fd5b6102c65a03f11515610bbc57600080fd5b505050604051805190501515610bd157600080fd5b7f72cb8a894ddb372ceec3d2a7648d86f17d5a15caae0e986c53109b8a9a9385e6838383604051808473ffffffffffffffffffffffffffffffffffffffff1673ffffffffffffffffffffffffffffffffffffffff1681526020018381526020018273ffffffffffffffffffffffffffffffffffffffff1673ffffffffffffffffffffffffffffffffffffffff168152602001935050505060405180910390a1505050565b6000809054906101000a900473ffffffffffffffffffffffffffffffffffffffff1673ffffffffffffffffffffffffffffffffffffffff163373ffffffffffffffffffffffffffffffffffffffff16141515610cd057600080fd5b600360008273ffffffffffffffffffffffffffffffffffffffff1673ffffffffffffffffffffffffffffffffffffffff16815260200190815260200160002060009054906101000a900460ff16151515610d2957600080fd5b6032600580549050101515610d3d57600080fd5b7f5611bf3e417d124f97bf2c788843ea8bb502b66079fbee02158ef30b172cb762816001604051808373ffffffffffffffffffffffffffffffffffffffff1673ffffffffffffffffffffffffffffffffffffffff168152602001821515151581526020019250505060405180910390a16001600360008373ffffffffffffffffffffffffffffffffffffffff1673ffffffffffffffffffffffffffffffffffffffff16815260200190815260200160002060006101000a81548160ff02191690831515021790555060058054806001018281610e1991906126cc565b9160005260206000209001600083909190916101000a81548173ffffffffffffffffffffffffffffffffffffffff021916908373ffffffffffffffffffffffffffffffffffffffff1602179055505050565b6000809054906101000a900473ffffffffffffffffffffffffffffffffffffffff1673ffffffffffffffffffffffffffffffffffffffff163373ffffffffffffffffffffffffffffffffffffffff16141515610ec657600080fd5b600073ffffffffffffffffffffffffffffffffffffffff168173ffffffffffffffffffffffffffffffffffffffff1614151515610f0257600080fd5b7f3b81caf78fa51ecbc8acb482fd7012a277b428d9b80f9d156e8a54107496cc40600160009054906101000a900473ffffffffffffffffffffffffffffffffffffffff16604051808273ffffffffffffffffffffffffffffffffffffffff1673ffffffffffffffffffffffffffffffffffffffff16815260200191505060405180910390a180600160006101000a81548173ffffffffffffffffffffffffffffffffffffffff021916908373ffffffffffffffffffffffffffffffffffffffff16021790555050565b600260003373ffffffffffffffffffffffffffffffffffffffff1673ffffffffffffffffffffffffffffffffffffffff16815260200190815260200160002060009054906101000a900460ff16151561102357600080fd5b6064811115151561103357600080fd5b7fd0f6fc40d497232b5aab1b7a34ea00ea45886e52d2fed39ad62af798a870fae38160085433604051808481526020018381526020018273ffffffffffffffffffffffffffffffffffffffff1673ffffffffffffffffffffffffffffffffffffffff168152602001935050505060405180910390a18060088190555050565b3373ffffffffffffffffffffffffffffffffffffffff16600160009054906101000a900473ffffffffffffffffffffffffffffffffffffffff1673ffffffffffffffffffffffffffffffffffffffff1614151561110e57600080fd5b7f65da1cfc2c2e81576ad96afb24a581f8e109b7a403b35cbd3243a1c99efdb9ed600160009054906101000a900473ffffffffffffffffffffffffffffffffffffffff166000809054906101000a900473ffffffffffffffffffffffffffffffffffffffff16604051808373ffffffffffffffffffffffffffffffffffffffff1673ffffffffffffffffffffffffffffffffffffffff1681526020018273ffffffffffffffffffffffffffffffffffffffff1673ffffffffffffffffffffffffffffffffffffffff1681526020019250505060405180910390a1600160009054906101000a900473ffffffffffffffffffffffffffffffffffffffff166000806101000a81548173ffffffffffffffffffffffffffffffffffffffff021916908373ffffffffffffffffffffffffffffffffffffffff1602179055506000600160006101000a81548173ffffffffffffffffffffffffffffffffffffffff021916908373ffffffffffffffffffffffffffffffffffffffff160217905550565b6000809054906101000a900473ffffffffffffffffffffffffffffffffffffffff1673ffffffffffffffffffffffffffffffffffffffff163373ffffffffffffffffffffffffffffffffffffffff161415156112e957600080fd5b600073ffffffffffffffffffffffffffffffffffffffff168173ffffffffffffffffffffffffffffffffffffffff161415151561132557600080fd5b7f3b81caf78fa51ecbc8acb482fd7012a277b428d9b80f9d156e8a54107496cc4081604051808273ffffffffffffffffffffffffffffffffffffffff1673ffffffffffffffffffffffffffffffffffffffff16815260200191505060405180910390a17f65da1cfc2c2e81576ad96afb24a581f8e109b7a403b35cbd3243a1c99efdb9ed816000809054906101000a900473ffffffffffffffffffffffffffffffffffffffff16604051808373ffffffffffffffffffffffffffffffffffffffff1673ffffffffffffffffffffffffffffffffffffffff1681526020018273ffffffffffffffffffffffffffffffffffffffff1673ffffffffffffffffffffffffffffffffffffffff1681526020019250505060405180910390a1806000806101000a81548173ffffffffffffffffffffffffffffffffffffffff021916908373ffffffffffffffffffffffffffffffffffffffff16021790555050565b61148b6126b8565b600580548060200260200160405190810160405280929190818152602001828054801561150d57602002820191906000526020600020905b8160009054906101000a900473ffffffffffffffffffffffffffffffffffffffff1673ffffffffffffffffffffffffffffffffffffffff16815260200190600101908083116114c3575b5050505050905090565b6000809054906101000a900473ffffffffffffffffffffffffffffffffffffffff1673ffffffffffffffffffffffffffffffffffffffff163373ffffffffffffffffffffffffffffffffffffffff1614151561157257600080fd5b600260008273ffffffffffffffffffffffffffffffffffffffff1673ffffffffffffffffffffffffffffffffffffffff16815260200190815260200160002060009054906101000a900460ff161515156115cb57600080fd5b60326004805490501015156115df57600080fd5b7f091a7a4b85135fdd7e8dbc18b12fabe5cc191ea867aa3c2e1a24a102af61d58b816001604051808373ffffffffffffffffffffffffffffffffffffffff1673ffffffffffffffffffffffffffffffffffffffff168152602001821515151581526020019250505060405180910390a16001600260008373ffffffffffffffffffffffffffffffffffffffff1673ffffffffffffffffffffffffffffffffffffffff16815260200190815260200160002060006101000a81548160ff021916908315150217905550600480548060010182816116bb91906126cc565b9160005260206000209001600083909190916101000a81548173ffffffffffffffffffffffffffffffffffffffff021916908373ffffffffffffffffffffffffffffffffffffffff1602179055505050565b60095481565b60085481565b60008060009054906101000a900473ffffffffffffffffffffffffffffffffffffffff1673ffffffffffffffffffffffffffffffffffffffff163373ffffffffffffffffffffffffffffffffffffffff1614151561177657600080fd5b600260008373ffffffffffffffffffffffffffffffffffffffff1673ffffffffffffffffffffffffffffffffffffffff16815260200190815260200160002060009054906101000a900460ff1615156117ce57600080fd5b6000600260008473ffffffffffffffffffffffffffffffffffffffff1673ffffffffffffffffffffffffffffffffffffffff16815260200190815260200160002060006101000a81548160ff021916908315150217905550600090505b6004805490508110156119da578173ffffffffffffffffffffffffffffffffffffffff1660048281548110151561185e57fe5b906000526020600020900160009054906101000a900473ffffffffffffffffffffffffffffffffffffffff1673ffffffffffffffffffffffffffffffffffffffff1614156119cf5760046001600480549050038154811015156118bd57fe5b906000526020600020900160009054906101000a900473ffffffffffffffffffffffffffffffffffffffff166004828154811015156118f857fe5b906000526020600020900160006101000a81548173ffffffffffffffffffffffffffffffffffffffff021916908373ffffffffffffffffffffffffffffffffffffffff1602179055506001600481818054905003915081611959919061268c565b507f091a7a4b85135fdd7e8dbc18b12fabe5cc191ea867aa3c2e1a24a102af61d58b826000604051808373ffffffffffffffffffffffffffffffffffffffff1673ffffffffffffffffffffffffffffffffffffffff168152602001821515151581526020019250505060405180910390a16119da565b80600101905061182b565b5050565b600760009054906101000a900473ffffffffffffffffffffffffffffffffffffffff1681565b6000809054906101000a900473ffffffffffffffffffffffffffffffffffffffff1673ffffffffffffffffffffffffffffffffffffffff163373ffffffffffffffffffffffffffffffffffffffff16141515611a5f57600080fd5b8073ffffffffffffffffffffffffffffffffffffffff166108fc839081150290604051600060405180830381858888f193505050501515611a9f57600080fd5b7fec47e7ed86c86774d1a72c19f35c639911393fe7c1a34031fdbd260890da90de8282604051808381526020018273ffffffffffffffffffffffffffffffffffffffff1673ffffffffffffffffffffffffffffffffffffffff1681526020019250505060405180910390a15050565b600080600080600060085414151515611b2657600080fd5b6b204fce5e3e250261100000008611151515611b4157600080fd5b6b204fce5e3e25026110000000600854870211151515611b6057600080fd5b6000861415611b6e57600195505b60009150611b7e88888888611fe9565b8095508196508294505050508115611ba25760008081915080905093509350611cd5565b6000841415611bba57611bb78888888861211d565b93505b600a60009054906101000a900473ffffffffffffffffffffffffffffffffffffffff1673ffffffffffffffffffffffffffffffffffffffff168873ffffffffffffffffffffffffffffffffffffffff16148015611c56575073eeeeeeeeeeeeeeeeeeeeeeeeeeeeeeeeeeeeeeee73ffffffffffffffffffffffffffffffffffffffff168773ffffffffffffffffffffffffffffffffffffffff16145b8015611c695750670de0b6b3a764000086145b15611c8257611c7784611f1e565b15611c8157600093505b5b620f4240670de0b6b3a764000002841115611ca95760008081915080905093509350611cd5565b612710846009546127100302811515611cbe57fe5b0490508083101515611cce578092505b8383935093505b505094509492505050565b600073eeeeeeeeeeeeeeeeeeeeeeeeeeeeeeeeeeeeeeee73ffffffffffffffffffffffffffffffffffffffff168373ffffffffffffffffffffffffffffffffffffffff161415611d49578173ffffffffffffffffffffffffffffffffffffffff16319050611e0a565b8273ffffffffffffffffffffffffffffffffffffffff166370a08231836000604051602001526040518263ffffffff167c0100000000000000000000000000000000000000000000000000000000028152600401808273ffffffffffffffffffffffffffffffffffffffff1673ffffffffffffffffffffffffffffffffffffffff168152602001915050602060405180830381600087803b1515611dec57600080fd5b6102c65a03f11515611dfd57600080fd5b5050506040518051905090505b92915050565b600260003373ffffffffffffffffffffffffffffffffffffffff1673ffffffffffffffffffffffffffffffffffffffff16815260200190815260200160002060009054906101000a900460ff161515611e6857600080fd5b6127108111151515611e7957600080fd5b7f4357e20f1241d972328c5b3239d9ef4ac96f0f4fce8e10fd3bf9053690dad0ac8160095433604051808481526020018381526020018273ffffffffffffffffffffffffffffffffffffffff1673ffffffffffffffffffffffffffffffffffffffff168152602001935050505060405180910390a18060098190555050565b600a60009054906101000a900473ffffffffffffffffffffffffffffffffffffffff1681565b6000806000611f6e73eeeeeeeeeeeeeeeeeeeeeeeeeeeeeeeeeeeeeeee600a60009054906101000a900473ffffffffffffffffffffffffffffffffffffffff16670de0b6b3a76400006001611b0e565b8092508193505050620f4240670de0b6b3a7640000028211158015611fa05750620f4240670de0b6b3a7640000028411155b1515611fab57600080fd5b6002670de0b6b3a76400000a8483021192505050919050565b6000809054906101000a900473ffffffffffffffffffffffffffffffffffffffff1681565b600080600080846120555760405180807f66696e6442657374526174654f6e6c795065726d697373696f6e28616464726581526020017f73732c616464726573732c75696e743235362900000000000000000000000000815250603301905060405180910390206120b2565b60405180807f66696e64426573745261746528616464726573732c616464726573732c75696e81526020017f7432353629000000000000000000000000000000000000000000000000000000815250602501905060405180910390205b90506120c0888888846123fd565b809450819550505083156120e4576001600080819150809050935093509350612112565b600160085414151561210d5761210088886008548902846123fd565b8093508195505050612111565b8291505b5b509450945094915050565b6000806000806000600760009054906101000a900473ffffffffffffffffffffffffffffffffffffffff1673ffffffffffffffffffffffffffffffffffffffff16630c235d968a73eeeeeeeeeeeeeeeeeeeeeeeeeeeeeeeeeeeeeeee8a8a6000604051604001526040518563ffffffff167c0100000000000000000000000000000000000000000000000000000000028152600401808573ffffffffffffffffffffffffffffffffffffffff1673ffffffffffffffffffffffffffffffffffffffff1681526020018473ffffffffffffffffffffffffffffffffffffffff1673ffffffffffffffffffffffffffffffffffffffff168152602001838152602001821515151581526020019450505050506040805180830381600087803b151561224557600080fd5b6102c65a03f1151561225657600080fd5b50505060405180519060200180519050809450819550505061228e8973eeeeeeeeeeeeeeeeeeeeeeeeeeeeeeeeeeeeeeee898661247b565b9050600760009054906101000a900473ffffffffffffffffffffffffffffffffffffffff1673ffffffffffffffffffffffffffffffffffffffff16630c235d9673eeeeeeeeeeeeeeeeeeeeeeeeeeeeeeeeeeeeeeee8a848a6000604051604001526040518563ffffffff167c0100000000000000000000000000000000000000000000000000000000028152600401808573ffffffffffffffffffffffffffffffffffffffff1673ffffffffffffffffffffffffffffffffffffffff1681526020018473ffffffffffffffffffffffffffffffffffffffff1673ffffffffffffffffffffffffffffffffffffffff168152602001838152602001821515151581526020019450505050506040805180830381600087803b15156123b057600080fd5b6102c65a03f115156123c157600080fd5b505050604051805190602001805190508093508195505050670de0b6b3a76400008284028115156123ee57fe5b04945050505050949350505050565b600080600080600760009054906101000a900473ffffffffffffffffffffffffffffffffffffffff16915060405185815288600482015287602482015286604482015260a48101604052604060648201606483865afa915060848101519350806040525060018114151561247057600193505b505094509492505050565b60006124998361248a876124a3565b612493876124a3565b856125da565b9050949350505050565b60008073eeeeeeeeeeeeeeeeeeeeeeeeeeeeeeeeeeeeeeee73ffffffffffffffffffffffffffffffffffffffff168373ffffffffffffffffffffffffffffffffffffffff1614156124f757601291506125d4565b600660008473ffffffffffffffffffffffffffffffffffffffff1673ffffffffffffffffffffffffffffffffffffffff16815260200190815260200160002054905060008114156125d0578273ffffffffffffffffffffffffffffffffffffffff1663313ce5676000604051602001526040518163ffffffff167c0100000000000000000000000000000000000000000000000000000000028152600401602060405180830381600087803b15156125ae57600080fd5b6102c65a03f115156125bf57600080fd5b5050506040518051905091506125d4565b8091505b50919050565b60006b204fce5e3e2502611000000085111515156125f757600080fd5b620f4240670de0b6b3a764000002821115151561261357600080fd5b83831015156126525760128484031115151561262e57600080fd5b670de0b6b3a7640000848403600a0a8387020281151561264a57fe5b049050612684565b60128385031115151561266457600080fd5b828403600a0a670de0b6b3a76400000282860281151561268057fe5b0490505b949350505050565b8154818355818115116126b3578183600052602060002091820191016126b291906126f8565b5b505050565b602060405190810160405280600081525090565b8154818355818115116126f3578183600052602060002091820191016126f291906126f8565b5b505050565b61271a91905b808211156127165760008160009055506001016126fe565b5090565b905600a165627a7a7230582048b626ca040374849e8eb97705fb519f399686c932bc15c0395e0ea9244873c80029",
  "source": "pragma solidity 0.4.18;\n\n\nimport \"./ERC20Interface.sol\";\nimport \"./KyberNetwork.sol\";\nimport \"./Withdrawable.sol\";\nimport \"./ExpectedRateInterface.sol\";\n\n\ncontract ExpectedRate is Withdrawable, ExpectedRateInterface, Utils2 {\n\n    KyberNetwork public kyberNetwork;\n    uint public quantityFactor = 2;\n    uint public worstCaseRateFactorInBps = 50;\n    uint constant UNIT_QTY_FOR_FEE_BURNER = 10 ** 18;\n    ERC20 public knc;\n\n    function ExpectedRate(KyberNetwork _kyberNetwork, ERC20 _knc, address _admin) public {\n        require(_admin != address(0));\n        require(_knc != address(0));\n        require(_kyberNetwork != address(0));\n        kyberNetwork = _kyberNetwork;\n        admin = _admin;\n        knc = _knc;\n    }\n\n    event QuantityFactorSet (uint newFactor, uint oldFactor, address sender);\n\n    function setQuantityFactor(uint newFactor) public onlyOperator {\n        require(newFactor <= 100);\n\n        QuantityFactorSet(newFactor, quantityFactor, msg.sender);\n        quantityFactor = newFactor;\n    }\n\n    event MinSlippageFactorSet (uint newMin, uint oldMin, address sender);\n\n    function setWorstCaseRateFactor(uint bps) public onlyOperator {\n        require(bps <= 100 * 100);\n\n        MinSlippageFactorSet(bps, worstCaseRateFactorInBps, msg.sender);\n        worstCaseRateFactorInBps = bps;\n    }\n\n    //@dev when srcQty too small or 0 the expected rate will be calculated without quantity,\n    // will enable rate reference before committing to any quantity\n    //@dev when srcQty too small (no actual dest qty) slippage rate will be 0.\n    function getExpectedRate(ERC20 src, ERC20 dest, uint srcQty, bool usePermissionless)\n        public view\n        returns (uint expectedRate, uint slippageRate)\n    {\n        require(quantityFactor != 0);\n        require(srcQty <= MAX_QTY);\n        require(srcQty * quantityFactor <= MAX_QTY);\n\n        if (srcQty == 0) srcQty = 1;\n\n        bool didRevert = false;\n\n        (didRevert, expectedRate, slippageRate) = safeFindBestRate(src, dest, srcQty, usePermissionless);\n        if (didRevert) return (0, 0);\n\n        if (expectedRate == 0) {\n            expectedRate = expectedRateSmallQty(src, dest, srcQty, usePermissionless);\n        }\n\n        if (src == knc &&\n            dest == ETH_TOKEN_ADDRESS &&\n            srcQty == UNIT_QTY_FOR_FEE_BURNER )\n        {\n            if (checkKncArbitrageRate(expectedRate)) expectedRate = 0;\n        }\n\n        if (expectedRate > MAX_RATE) return (0, 0);\n\n        uint worstCaseSlippageRate = ((10000 - worstCaseRateFactorInBps) * expectedRate) / 10000;\n        if (slippageRate >= worstCaseSlippageRate) {\n            slippageRate = worstCaseSlippageRate;\n        }\n\n        return (expectedRate, slippageRate);\n    }\n\n    function checkKncArbitrageRate(uint currentKncToEthRate) public view returns(bool) {\n        uint converseRate;\n        uint slippage;\n    \t(converseRate, slippage) = getExpectedRate(ETH_TOKEN_ADDRESS, knc, UNIT_QTY_FOR_FEE_BURNER, true);\n        require(converseRate <= MAX_RATE && currentKncToEthRate <= MAX_RATE);\n        return ((converseRate * currentKncToEthRate) > (PRECISION ** 2));\n    }\n\n    //@dev for small src quantities dest qty might be 0, then returned rate is zero.\n    //@dev for backward compatibility we would like to return non zero rate (correct one) for small src qty\n    function expectedRateSmallQty(ERC20 src, ERC20 dest, uint srcQty, bool usePermissionless)\n        internal view returns(uint)\n    {\n        address reserve;\n        uint rateSrcToEth;\n        uint rateEthToDest;\n        (reserve, rateSrcToEth) = kyberNetwork.searchBestRate(src, ETH_TOKEN_ADDRESS, srcQty, usePermissionless);\n\n        uint ethQty = calcDestAmount(src, ETH_TOKEN_ADDRESS, srcQty, rateSrcToEth);\n\n        (reserve, rateEthToDest) = kyberNetwork.searchBestRate(ETH_TOKEN_ADDRESS, dest, ethQty, usePermissionless);\n        return rateSrcToEth * rateEthToDest / PRECISION;\n    }\n\n    function safeFindBestRate(ERC20 src, ERC20 dest, uint srcQty, bool usePermissionless)\n        internal view\n        returns (bool didRevert, uint expectedRate, uint slippageRate)\n    {\n        bytes4 sig = usePermissionless ?\n            bytes4(keccak256(\"findBestRate(address,address,uint256)\")) :\n            bytes4(keccak256(\"findBestRateOnlyPermission(address,address,uint256)\")); //Function signatures\n\n        (didRevert, expectedRate) = assemblyFindBestRate(src, dest, srcQty, sig);\n\n        if (didRevert) return (true, 0, 0);\n\n        if (quantityFactor != 1) {\n            (didRevert, slippageRate) = assemblyFindBestRate(src, dest, (srcQty * quantityFactor), sig);\n        } else {\n            slippageRate = expectedRate;\n        }\n    }\n\n    function assemblyFindBestRate(ERC20 src, ERC20 dest, uint srcQty, bytes4 sig)\n        internal view\n        returns (bool didRevert, uint rate)\n    {\n        address addr = address(kyberNetwork);  // kyber address\n        uint success;\n\n        assembly {\n            let x := mload(0x40)        // \"free memory pointer\"\n            mstore(x,sig)               // function signature\n            mstore(add(x,0x04),src)     // src address padded to 32 bytes\n            mstore(add(x,0x24),dest)    // dest padded to 32 bytes\n            mstore(add(x,0x44),srcQty)  // uint 32 bytes\n            mstore(0x40,add(x,0xa4))    // set free storage pointer to empty space after output\n\n            // input size = sig + ERC20 (address) + ERC20 + uint\n            // = 4 + 32 + 32 + 32 = 100 = 0x64\n            success := staticcall(\n                gas,  // gas\n                addr, // Kyber addr\n                x,    // Inputs at location x\n                0x64, // Inputs size bytes\n                add(x, 0x64),    // output storage after input\n                0x40) // Output size are (uint, uint) = 64 bytes\n\n            rate := mload(add(x,0x84))  //Assign 2nd output to rate, first output not used,\n            mstore(0x40,x)    // Set empty storage pointer back to start position\n        }\n\n        if (success != 1) didRevert = true;\n    }\n}\n",
  "sourcePath": "/Users/oscarr/Ethereum/frappe/contracts/ExpectedRate.sol",
  "compiler": {
    "name": "solc",
    "version": "0.4.18+commit.9cf6e910.Emscripten.clang"
  },
  "schemaVersion": "3.0.6",
  "updatedAt": "2019-05-18T17:14:12.922Z",
  "devdoc": {
    "methods": {
      "claimAdmin()": {
        "details": "Allows the pendingAdmin address to finalize the change admin process."
      },
      "getBalance(address,address)": {
        "details": "get the balance of a user.",
        "params": {
          "token": "The token type"
        },
        "return": "The balance"
      },
      "transferAdmin(address)": {
        "details": "Allows the current admin to set the pendingAdmin address.",
        "params": {
          "newAdmin": "The address to transfer ownership to."
        }
      },
      "transferAdminQuickly(address)": {
        "details": "Allows the current admin to set the admin in one tx. Useful initial deployment.",
        "params": {
          "newAdmin": "The address to transfer ownership to."
        }
      },
      "withdrawEther(uint256,address)": {
        "details": "Withdraw Ethers"
      },
      "withdrawToken(address,uint256,address)": {
        "details": "Withdraw all ERC20 compatible tokens",
        "params": {
          "token": "ERC20 The address of the token contract"
        }
      }
    }
  },
  "userdoc": {
    "methods": {}
  }
}