{
  "contractName": "FeeBurner",
  "abi": [
    {
      "constant": false,
      "inputs": [
        {
          "name": "alerter",
          "type": "address"
        }
      ],
      "name": "removeAlerter",
      "outputs": [],
      "payable": false,
      "stateMutability": "nonpayable",
      "type": "function"
    },
    {
      "constant": true,
      "inputs": [
        {
          "name": "",
          "type": "address"
        }
      ],
      "name": "reserveKNCWallet",
      "outputs": [
        {
          "name": "",
          "type": "address"
        }
      ],
      "payable": false,
      "stateMutability": "view",
      "type": "function"
    },
    {
      "constant": true,
      "inputs": [
        {
          "name": "",
          "type": "address"
        },
        {
          "name": "",
          "type": "address"
        }
      ],
      "name": "reserveFeeToWallet",
      "outputs": [
        {
          "name": "",
          "type": "uint256"
        }
      ],
      "payable": false,
      "stateMutability": "view",
      "type": "function"
    },
    {
      "constant": true,
      "inputs": [],
      "name": "pendingAdmin",
      "outputs": [
        {
          "name": "",
          "type": "address"
        }
      ],
      "payable": false,
      "stateMutability": "view",
      "type": "function"
    },
    {
      "constant": true,
      "inputs": [],
      "name": "getOperators",
      "outputs": [
        {
          "name": "",
          "type": "address[]"
        }
      ],
      "payable": false,
      "stateMutability": "view",
      "type": "function"
    },
    {
      "constant": true,
      "inputs": [
        {
          "name": "",
          "type": "address"
        }
      ],
      "name": "reserveFeeToBurn",
      "outputs": [
        {
          "name": "",
          "type": "uint256"
        }
      ],
      "payable": false,
      "stateMutability": "view",
      "type": "function"
    },
    {
      "constant": true,
      "inputs": [],
      "name": "taxWallet",
      "outputs": [
        {
          "name": "",
          "type": "address"
        }
      ],
      "payable": false,
      "stateMutability": "view",
      "type": "function"
    },
    {
      "constant": true,
      "inputs": [],
      "name": "kncPerEthRatePrecision",
      "outputs": [
        {
          "name": "",
          "type": "uint256"
        }
      ],
      "payable": false,
      "stateMutability": "view",
      "type": "function"
    },
    {
      "constant": true,
      "inputs": [
        {
          "name": "",
          "type": "address"
        }
      ],
      "name": "reserveFeesInBps",
      "outputs": [
        {
          "name": "",
          "type": "uint256"
        }
      ],
      "payable": false,
      "stateMutability": "view",
      "type": "function"
    },
    {
      "constant": true,
      "inputs": [],
      "name": "taxFeeBps",
      "outputs": [
        {
          "name": "",
          "type": "uint256"
        }
      ],
      "payable": false,
      "stateMutability": "view",
      "type": "function"
    },
    {
      "constant": false,
      "inputs": [
        {
          "name": "token",
          "type": "address"
        },
        {
          "name": "amount",
          "type": "uint256"
        },
        {
          "name": "sendTo",
          "type": "address"
        }
      ],
      "name": "withdrawToken",
      "outputs": [],
      "payable": false,
      "stateMutability": "nonpayable",
      "type": "function"
    },
    {
      "constant": false,
      "inputs": [
        {
          "name": "newAlerter",
          "type": "address"
        }
      ],
      "name": "addAlerter",
      "outputs": [],
      "payable": false,
      "stateMutability": "nonpayable",
      "type": "function"
    },
    {
      "constant": true,
      "inputs": [
        {
          "name": "",
          "type": "address"
        }
      ],
      "name": "walletFeesInBps",
      "outputs": [
        {
          "name": "",
          "type": "uint256"
        }
      ],
      "payable": false,
      "stateMutability": "view",
      "type": "function"
    },
    {
      "constant": false,
      "inputs": [
        {
          "name": "newAdmin",
          "type": "address"
        }
      ],
      "name": "transferAdmin",
      "outputs": [],
      "payable": false,
      "stateMutability": "nonpayable",
      "type": "function"
    },
    {
      "constant": false,
      "inputs": [],
      "name": "claimAdmin",
      "outputs": [],
      "payable": false,
      "stateMutability": "nonpayable",
      "type": "function"
    },
    {
      "constant": false,
      "inputs": [
        {
          "name": "newAdmin",
          "type": "address"
        }
      ],
      "name": "transferAdminQuickly",
      "outputs": [],
      "payable": false,
      "stateMutability": "nonpayable",
      "type": "function"
    },
    {
      "constant": true,
      "inputs": [],
      "name": "getAlerters",
      "outputs": [
        {
          "name": "",
          "type": "address[]"
        }
      ],
      "payable": false,
      "stateMutability": "view",
      "type": "function"
    },
    {
      "constant": false,
      "inputs": [
        {
          "name": "newOperator",
          "type": "address"
        }
      ],
      "name": "addOperator",
      "outputs": [],
      "payable": false,
      "stateMutability": "nonpayable",
      "type": "function"
    },
    {
      "constant": false,
      "inputs": [
        {
          "name": "operator",
          "type": "address"
        }
      ],
      "name": "removeOperator",
      "outputs": [],
      "payable": false,
      "stateMutability": "nonpayable",
      "type": "function"
    },
    {
      "constant": true,
      "inputs": [],
      "name": "kyberNetwork",
      "outputs": [
        {
          "name": "",
          "type": "address"
        }
      ],
      "payable": false,
      "stateMutability": "view",
      "type": "function"
    },
    {
      "constant": false,
      "inputs": [
        {
          "name": "amount",
          "type": "uint256"
        },
        {
          "name": "sendTo",
          "type": "address"
        }
      ],
      "name": "withdrawEther",
      "outputs": [],
      "payable": false,
      "stateMutability": "nonpayable",
      "type": "function"
    },
    {
      "constant": true,
      "inputs": [
        {
          "name": "token",
          "type": "address"
        },
        {
          "name": "user",
          "type": "address"
        }
      ],
      "name": "getBalance",
      "outputs": [
        {
          "name": "",
          "type": "uint256"
        }
      ],
      "payable": false,
      "stateMutability": "view",
      "type": "function"
    },
    {
      "constant": true,
      "inputs": [
        {
          "name": "",
          "type": "address"
        }
      ],
      "name": "feePayedPerReserve",
      "outputs": [
        {
          "name": "",
          "type": "uint256"
        }
      ],
      "payable": false,
      "stateMutability": "view",
      "type": "function"
    },
    {
      "constant": true,
      "inputs": [],
      "name": "knc",
      "outputs": [
        {
          "name": "",
          "type": "address"
        }
      ],
      "payable": false,
      "stateMutability": "view",
      "type": "function"
    },
    {
      "constant": true,
      "inputs": [],
      "name": "admin",
      "outputs": [
        {
          "name": "",
          "type": "address"
        }
      ],
      "payable": false,
      "stateMutability": "view",
      "type": "function"
    },
    {
      "inputs": [
        {
          "name": "_admin",
          "type": "address"
        },
        {
          "name": "_kncToken",
          "type": "address"
        },
        {
          "name": "_kyberNetwork",
          "type": "address"
        },
        {
          "name": "_initialKncToEthRatePrecision",
          "type": "uint256"
        }
      ],
      "payable": false,
      "stateMutability": "nonpayable",
      "type": "constructor"
    },
    {
      "anonymous": false,
      "inputs": [
        {
          "indexed": false,
          "name": "reserve",
          "type": "address"
        },
        {
          "indexed": false,
          "name": "feeInBps",
          "type": "uint256"
        },
        {
          "indexed": false,
          "name": "kncWallet",
          "type": "address"
        }
      ],
      "name": "ReserveDataSet",
      "type": "event"
    },
    {
      "anonymous": false,
      "inputs": [
        {
          "indexed": false,
          "name": "wallet",
          "type": "address"
        },
        {
          "indexed": false,
          "name": "feesInBps",
          "type": "uint256"
        }
      ],
      "name": "WalletFeesSet",
      "type": "event"
    },
    {
      "anonymous": false,
      "inputs": [
        {
          "indexed": false,
          "name": "feesInBps",
          "type": "uint256"
        }
      ],
      "name": "TaxFeesSet",
      "type": "event"
    },
    {
      "anonymous": false,
      "inputs": [
        {
          "indexed": false,
          "name": "taxWallet",
          "type": "address"
        }
      ],
      "name": "TaxWalletSet",
      "type": "event"
    },
    {
      "anonymous": false,
      "inputs": [
        {
          "indexed": false,
          "name": "ethToKncRatePrecision",
          "type": "uint256"
        },
        {
          "indexed": false,
          "name": "kyberEthKnc",
          "type": "uint256"
        },
        {
          "indexed": false,
          "name": "kyberKncEth",
          "type": "uint256"
        },
        {
          "indexed": false,
          "name": "updater",
          "type": "address"
        }
      ],
      "name": "KNCRateSet",
      "type": "event"
    },
    {
      "anonymous": false,
      "inputs": [
        {
          "indexed": false,
          "name": "reserve",
          "type": "address"
        },
        {
          "indexed": false,
          "name": "wallet",
          "type": "address"
        },
        {
          "indexed": false,
          "name": "walletFee",
          "type": "uint256"
        }
      ],
      "name": "AssignFeeToWallet",
      "type": "event"
    },
    {
      "anonymous": false,
      "inputs": [
        {
          "indexed": false,
          "name": "reserve",
          "type": "address"
        },
        {
          "indexed": false,
          "name": "burnFee",
          "type": "uint256"
        }
      ],
      "name": "AssignBurnFees",
      "type": "event"
    },
    {
      "anonymous": false,
      "inputs": [
        {
          "indexed": true,
          "name": "reserve",
          "type": "address"
        },
        {
          "indexed": false,
          "name": "sender",
          "type": "address"
        },
        {
          "indexed": false,
          "name": "quantity",
          "type": "uint256"
        }
      ],
      "name": "BurnAssignedFees",
      "type": "event"
    },
    {
      "anonymous": false,
      "inputs": [
        {
          "indexed": true,
          "name": "reserve",
          "type": "address"
        },
        {
          "indexed": false,
          "name": "sender",
          "type": "address"
        },
        {
          "indexed": false,
          "name": "taxWallet",
          "type": "address"
        },
        {
          "indexed": false,
          "name": "quantity",
          "type": "uint256"
        }
      ],
      "name": "SendTaxFee",
      "type": "event"
    },
    {
      "anonymous": false,
      "inputs": [
        {
          "indexed": true,
          "name": "wallet",
          "type": "address"
        },
        {
          "indexed": false,
          "name": "reserve",
          "type": "address"
        },
        {
          "indexed": false,
          "name": "sender",
          "type": "address"
        }
      ],
      "name": "SendWalletFees",
      "type": "event"
    },
    {
      "anonymous": false,
      "inputs": [
        {
          "indexed": false,
          "name": "token",
          "type": "address"
        },
        {
          "indexed": false,
          "name": "amount",
          "type": "uint256"
        },
        {
          "indexed": false,
          "name": "sendTo",
          "type": "address"
        }
      ],
      "name": "TokenWithdraw",
      "type": "event"
    },
    {
      "anonymous": false,
      "inputs": [
        {
          "indexed": false,
          "name": "amount",
          "type": "uint256"
        },
        {
          "indexed": false,
          "name": "sendTo",
          "type": "address"
        }
      ],
      "name": "EtherWithdraw",
      "type": "event"
    },
    {
      "anonymous": false,
      "inputs": [
        {
          "indexed": false,
          "name": "pendingAdmin",
          "type": "address"
        }
      ],
      "name": "TransferAdminPending",
      "type": "event"
    },
    {
      "anonymous": false,
      "inputs": [
        {
          "indexed": false,
          "name": "newAdmin",
          "type": "address"
        },
        {
          "indexed": false,
          "name": "previousAdmin",
          "type": "address"
        }
      ],
      "name": "AdminClaimed",
      "type": "event"
    },
    {
      "anonymous": false,
      "inputs": [
        {
          "indexed": false,
          "name": "newAlerter",
          "type": "address"
        },
        {
          "indexed": false,
          "name": "isAdd",
          "type": "bool"
        }
      ],
      "name": "AlerterAdded",
      "type": "event"
    },
    {
      "anonymous": false,
      "inputs": [
        {
          "indexed": false,
          "name": "newOperator",
          "type": "address"
        },
        {
          "indexed": false,
          "name": "isAdd",
          "type": "bool"
        }
      ],
      "name": "OperatorAdded",
      "type": "event"
    },
    {
      "constant": false,
      "inputs": [
        {
          "name": "reserve",
          "type": "address"
        },
        {
          "name": "feesInBps",
          "type": "uint256"
        },
        {
          "name": "kncWallet",
          "type": "address"
        }
      ],
      "name": "setReserveData",
      "outputs": [],
      "payable": false,
      "stateMutability": "nonpayable",
      "type": "function"
    },
    {
      "constant": false,
      "inputs": [
        {
          "name": "wallet",
          "type": "address"
        },
        {
          "name": "feesInBps",
          "type": "uint256"
        }
      ],
      "name": "setWalletFees",
      "outputs": [],
      "payable": false,
      "stateMutability": "nonpayable",
      "type": "function"
    },
    {
      "constant": false,
      "inputs": [
        {
          "name": "_taxFeeBps",
          "type": "uint256"
        }
      ],
      "name": "setTaxInBps",
      "outputs": [],
      "payable": false,
      "stateMutability": "nonpayable",
      "type": "function"
    },
    {
      "constant": false,
      "inputs": [
        {
          "name": "_taxWallet",
          "type": "address"
        }
      ],
      "name": "setTaxWallet",
      "outputs": [],
      "payable": false,
      "stateMutability": "nonpayable",
      "type": "function"
    },
    {
      "constant": false,
      "inputs": [],
      "name": "setKNCRate",
      "outputs": [],
      "payable": false,
      "stateMutability": "nonpayable",
      "type": "function"
    },
    {
      "constant": false,
      "inputs": [
        {
          "name": "tradeWeiAmount",
          "type": "uint256"
        },
        {
          "name": "reserve",
          "type": "address"
        },
        {
          "name": "wallet",
          "type": "address"
        }
      ],
      "name": "handleFees",
      "outputs": [
        {
          "name": "",
          "type": "bool"
        }
      ],
      "payable": false,
      "stateMutability": "nonpayable",
      "type": "function"
    },
    {
      "constant": false,
      "inputs": [
        {
          "name": "reserve",
          "type": "address"
        }
      ],
      "name": "burnReserveFees",
      "outputs": [],
      "payable": false,
      "stateMutability": "nonpayable",
      "type": "function"
    },
    {
      "constant": false,
      "inputs": [
        {
          "name": "wallet",
          "type": "address"
        },
        {
          "name": "reserve",
          "type": "address"
        }
      ],
      "name": "sendFeeToWallet",
      "outputs": [],
      "payable": false,
      "stateMutability": "nonpayable",
      "type": "function"
    }
  ],
  "bytecode": "0x60606040526000600e55670de0b6b3a76400006102580260115534156200002557600080fd5b60405160808062003b5a83398101604052808051906020019091908051906020019091908051906020019091908051906020019091905050336000806101000a81548173ffffffffffffffffffffffffffffffffffffffff021916908373ffffffffffffffffffffffffffffffffffffffff160217905550600073ffffffffffffffffffffffffffffffffffffffff168473ffffffffffffffffffffffffffffffffffffffff1614151515620000da57600080fd5b600073ffffffffffffffffffffffffffffffffffffffff168373ffffffffffffffffffffffffffffffffffffffff16141515156200011757600080fd5b600073ffffffffffffffffffffffffffffffffffffffff168273ffffffffffffffffffffffffffffffffffffffff16141515156200015457600080fd5b600081141515156200016557600080fd5b81601060006101000a81548173ffffffffffffffffffffffffffffffffffffffff021916908373ffffffffffffffffffffffffffffffffffffffff160217905550836000806101000a81548173ffffffffffffffffffffffffffffffffffffffff021916908373ffffffffffffffffffffffffffffffffffffffff16021790555082600f60006101000a81548173ffffffffffffffffffffffffffffffffffffffff021916908373ffffffffffffffffffffffffffffffffffffffff160217905550806011819055505050505061391880620002426000396000f3006060604052600436106101a1576000357c0100000000000000000000000000000000000000000000000000000000900463ffffffff16806301a12fd3146101a65780630a377f3a146101df57806322dbf6d21461025857806326782247146102c457806327a099d8146103195780632b84fe83146103835780632dc0562d146103d05780633012541614610425578063384c4d2f1461044e5780633b2158231461049b5780633ccdbb28146104c4578063408ee7fe1461052557806345ab63b91461055e57806346b8c49e146105ab57806365dfc20f1461060c57806375829def1461064e57806377f50f97146106875780637acc86781461069c5780637c423f54146106d55780637f3681f61461073f5780639870d7fe146107545780639fad2dcb1461078d578063ac8a584a146107b0578063b78b842d146107e9578063ce56c4541461083e578063d4fac45d14610880578063dc93f7c9146108ec578063dd3ff4f614610939578063e61387e014610991578063ea414b28146109e6578063f6486cad14610a1f578063f851a44014610a58578063fd062d3b14610aad575b600080fd5b34156101b157600080fd5b6101dd600480803573ffffffffffffffffffffffffffffffffffffffff16906020019091905050610b26565b005b34156101ea57600080fd5b610216600480803573ffffffffffffffffffffffffffffffffffffffff16906020019091905050610de8565b604051808273ffffffffffffffffffffffffffffffffffffffff1673ffffffffffffffffffffffffffffffffffffffff16815260200191505060405180910390f35b341561026357600080fd5b6102ae600480803573ffffffffffffffffffffffffffffffffffffffff1690602001909190803573ffffffffffffffffffffffffffffffffffffffff16906020019091905050610e1b565b6040518082815260200191505060405180910390f35b34156102cf57600080fd5b6102d7610e40565b604051808273ffffffffffffffffffffffffffffffffffffffff1673ffffffffffffffffffffffffffffffffffffffff16815260200191505060405180910390f35b341561032457600080fd5b61032c610e66565b6040518080602001828103825283818151815260200191508051906020019060200280838360005b8381101561036f578082015181840152602081019050610354565b505050509050019250505060405180910390f35b341561038e57600080fd5b6103ba600480803573ffffffffffffffffffffffffffffffffffffffff16906020019091905050610efa565b6040518082815260200191505060405180910390f35b34156103db57600080fd5b6103e3610f12565b604051808273ffffffffffffffffffffffffffffffffffffffff1673ffffffffffffffffffffffffffffffffffffffff16815260200191505060405180910390f35b341561043057600080fd5b610438610f38565b6040518082815260200191505060405180910390f35b341561045957600080fd5b610485600480803573ffffffffffffffffffffffffffffffffffffffff16906020019091905050610f3e565b6040518082815260200191505060405180910390f35b34156104a657600080fd5b6104ae610f56565b6040518082815260200191505060405180910390f35b34156104cf57600080fd5b610523600480803573ffffffffffffffffffffffffffffffffffffffff1690602001909190803590602001909190803573ffffffffffffffffffffffffffffffffffffffff16906020019091905050610f5c565b005b341561053057600080fd5b61055c600480803573ffffffffffffffffffffffffffffffffffffffff1690602001909190505061112c565b005b341561056957600080fd5b610595600480803573ffffffffffffffffffffffffffffffffffffffff16906020019091905050611322565b6040518082815260200191505060405180910390f35b34156105b657600080fd5b61060a600480803573ffffffffffffffffffffffffffffffffffffffff1690602001909190803590602001909190803573ffffffffffffffffffffffffffffffffffffffff1690602001909190505061133a565b005b341561061757600080fd5b61064c600480803573ffffffffffffffffffffffffffffffffffffffff16906020019091908035906020019091905050611543565b005b341561065957600080fd5b610685600480803573ffffffffffffffffffffffffffffffffffffffff16906020019091905050611661565b005b341561069257600080fd5b61069a6117c1565b005b34156106a757600080fd5b6106d3600480803573ffffffffffffffffffffffffffffffffffffffff1690602001909190505061199d565b005b34156106e057600080fd5b6106e8611b92565b6040518080602001828103825283818151815260200191508051906020019060200280838360005b8381101561072b578082015181840152602081019050610710565b505050509050019250505060405180910390f35b341561074a57600080fd5b610752611c26565b005b341561075f57600080fd5b61078b600480803573ffffffffffffffffffffffffffffffffffffffff16906020019091905050611fd8565b005b341561079857600080fd5b6107ae60048080359060200190919050506121ce565b005b34156107bb57600080fd5b6107e7600480803573ffffffffffffffffffffffffffffffffffffffff1690602001909190505061227a565b005b34156107f457600080fd5b6107fc61253f565b604051808273ffffffffffffffffffffffffffffffffffffffff1673ffffffffffffffffffffffffffffffffffffffff16815260200191505060405180910390f35b341561084957600080fd5b61087e600480803590602001909190803573ffffffffffffffffffffffffffffffffffffffff16906020019091905050612565565b005b341561088b57600080fd5b6108d6600480803573ffffffffffffffffffffffffffffffffffffffff1690602001909190803573ffffffffffffffffffffffffffffffffffffffff1690602001909190505061266f565b6040518082815260200191505060405180910390f35b34156108f757600080fd5b610923600480803573ffffffffffffffffffffffffffffffffffffffff1690602001909190505061279f565b6040518082815260200191505060405180910390f35b341561094457600080fd5b61098f600480803573ffffffffffffffffffffffffffffffffffffffff1690602001909190803573ffffffffffffffffffffffffffffffffffffffff169060200190919050506127b7565b005b341561099c57600080fd5b6109a4612b55565b604051808273ffffffffffffffffffffffffffffffffffffffff1673ffffffffffffffffffffffffffffffffffffffff16815260200191505060405180910390f35b34156109f157600080fd5b610a1d600480803573ffffffffffffffffffffffffffffffffffffffff16906020019091905050612b7b565b005b3415610a2a57600080fd5b610a56600480803573ffffffffffffffffffffffffffffffffffffffff16906020019091905050612cb9565b005b3415610a6357600080fd5b610a6b6132a6565b604051808273ffffffffffffffffffffffffffffffffffffffff1673ffffffffffffffffffffffffffffffffffffffff16815260200191505060405180910390f35b3415610ab857600080fd5b610b0c600480803590602001909190803573ffffffffffffffffffffffffffffffffffffffff1690602001909190803573ffffffffffffffffffffffffffffffffffffffff169060200190919050506132cb565b604051808215151515815260200191505060405180910390f35b60008060009054906101000a900473ffffffffffffffffffffffffffffffffffffffff1673ffffffffffffffffffffffffffffffffffffffff163373ffffffffffffffffffffffffffffffffffffffff16141515610b8357600080fd5b600360008373ffffffffffffffffffffffffffffffffffffffff1673ffffffffffffffffffffffffffffffffffffffff16815260200190815260200160002060009054906101000a900460ff161515610bdb57600080fd5b6000600360008473ffffffffffffffffffffffffffffffffffffffff1673ffffffffffffffffffffffffffffffffffffffff16815260200190815260200160002060006101000a81548160ff021916908315150217905550600090505b600580549050811015610de4578173ffffffffffffffffffffffffffffffffffffffff16600582815481101515610c6b57fe5b906000526020600020900160009054906101000a900473ffffffffffffffffffffffffffffffffffffffff1673ffffffffffffffffffffffffffffffffffffffff161415610dd9576005600160058054905003815481101515610cca57fe5b906000526020600020900160009054906101000a900473ffffffffffffffffffffffffffffffffffffffff16600582815481101515610d0557fe5b906000526020600020900160006101000a81548173ffffffffffffffffffffffffffffffffffffffff021916908373ffffffffffffffffffffffffffffffffffffffff1602179055506005805480919060019003610d63919061385b565b507f5611bf3e417d124f97bf2c788843ea8bb502b66079fbee02158ef30b172cb762826000604051808373ffffffffffffffffffffffffffffffffffffffff1673ffffffffffffffffffffffffffffffffffffffff168152602001821515151581526020019250505060405180910390a1610de4565b806001019050610c38565b5050565b60086020528060005260406000206000915054906101000a900473ffffffffffffffffffffffffffffffffffffffff1681565b600c602052816000526040600020602052806000526040600020600091509150505481565b600160009054906101000a900473ffffffffffffffffffffffffffffffffffffffff1681565b610e6e613887565b6004805480602002602001604051908101604052809291908181526020018280548015610ef057602002820191906000526020600020905b8160009054906101000a900473ffffffffffffffffffffffffffffffffffffffff1673ffffffffffffffffffffffffffffffffffffffff1681526020019060010190808311610ea6575b5050505050905090565b600a6020528060005260406000206000915090505481565b600d60009054906101000a900473ffffffffffffffffffffffffffffffffffffffff1681565b60115481565b60076020528060005260406000206000915090505481565b600e5481565b6000809054906101000a900473ffffffffffffffffffffffffffffffffffffffff1673ffffffffffffffffffffffffffffffffffffffff163373ffffffffffffffffffffffffffffffffffffffff16141515610fb757600080fd5b8273ffffffffffffffffffffffffffffffffffffffff1663a9059cbb82846000604051602001526040518363ffffffff167c0100000000000000000000000000000000000000000000000000000000028152600401808373ffffffffffffffffffffffffffffffffffffffff1673ffffffffffffffffffffffffffffffffffffffff16815260200182815260200192505050602060405180830381600087803b151561106257600080fd5b6102c65a03f1151561107357600080fd5b50505060405180519050151561108857600080fd5b7f72cb8a894ddb372ceec3d2a7648d86f17d5a15caae0e986c53109b8a9a9385e6838383604051808473ffffffffffffffffffffffffffffffffffffffff1673ffffffffffffffffffffffffffffffffffffffff1681526020018381526020018273ffffffffffffffffffffffffffffffffffffffff1673ffffffffffffffffffffffffffffffffffffffff168152602001935050505060405180910390a1505050565b6000809054906101000a900473ffffffffffffffffffffffffffffffffffffffff1673ffffffffffffffffffffffffffffffffffffffff163373ffffffffffffffffffffffffffffffffffffffff1614151561118757600080fd5b600360008273ffffffffffffffffffffffffffffffffffffffff1673ffffffffffffffffffffffffffffffffffffffff16815260200190815260200160002060009054906101000a900460ff161515156111e057600080fd5b60326005805490501015156111f457600080fd5b7f5611bf3e417d124f97bf2c788843ea8bb502b66079fbee02158ef30b172cb762816001604051808373ffffffffffffffffffffffffffffffffffffffff1673ffffffffffffffffffffffffffffffffffffffff168152602001821515151581526020019250505060405180910390a16001600360008373ffffffffffffffffffffffffffffffffffffffff1673ffffffffffffffffffffffffffffffffffffffff16815260200190815260200160002060006101000a81548160ff021916908315150217905550600580548060010182816112d0919061389b565b9160005260206000209001600083909190916101000a81548173ffffffffffffffffffffffffffffffffffffffff021916908373ffffffffffffffffffffffffffffffffffffffff1602179055505050565b60096020528060005260406000206000915090505481565b600260003373ffffffffffffffffffffffffffffffffffffffff1673ffffffffffffffffffffffffffffffffffffffff16815260200190815260200160002060009054906101000a900460ff16151561139257600080fd5b6064821015156113a157600080fd5b600073ffffffffffffffffffffffffffffffffffffffff168173ffffffffffffffffffffffffffffffffffffffff16141515156113dd57600080fd5b81600760008573ffffffffffffffffffffffffffffffffffffffff1673ffffffffffffffffffffffffffffffffffffffff1681526020019081526020016000208190555080600860008573ffffffffffffffffffffffffffffffffffffffff1673ffffffffffffffffffffffffffffffffffffffff16815260200190815260200160002060006101000a81548173ffffffffffffffffffffffffffffffffffffffff021916908373ffffffffffffffffffffffffffffffffffffffff1602179055507f999efec8241b9b7a1d9c2d2e207cde178cb3a02ca6a94d070eecb369674ead6f838383604051808473ffffffffffffffffffffffffffffffffffffffff1673ffffffffffffffffffffffffffffffffffffffff1681526020018381526020018273ffffffffffffffffffffffffffffffffffffffff1673ffffffffffffffffffffffffffffffffffffffff168152602001935050505060405180910390a1505050565b6000809054906101000a900473ffffffffffffffffffffffffffffffffffffffff1673ffffffffffffffffffffffffffffffffffffffff163373ffffffffffffffffffffffffffffffffffffffff1614151561159e57600080fd5b612710811015156115ae57600080fd5b80600960008473ffffffffffffffffffffffffffffffffffffffff1673ffffffffffffffffffffffffffffffffffffffff168152602001908152602001600020819055507f19f0c31fd2313f709ad6b9f15595720ff5765b72b394025288ac4f355fee09528282604051808373ffffffffffffffffffffffffffffffffffffffff1673ffffffffffffffffffffffffffffffffffffffff1681526020018281526020019250505060405180910390a15050565b6000809054906101000a900473ffffffffffffffffffffffffffffffffffffffff1673ffffffffffffffffffffffffffffffffffffffff163373ffffffffffffffffffffffffffffffffffffffff161415156116bc57600080fd5b600073ffffffffffffffffffffffffffffffffffffffff168173ffffffffffffffffffffffffffffffffffffffff16141515156116f857600080fd5b7f3b81caf78fa51ecbc8acb482fd7012a277b428d9b80f9d156e8a54107496cc40600160009054906101000a900473ffffffffffffffffffffffffffffffffffffffff16604051808273ffffffffffffffffffffffffffffffffffffffff1673ffffffffffffffffffffffffffffffffffffffff16815260200191505060405180910390a180600160006101000a81548173ffffffffffffffffffffffffffffffffffffffff021916908373ffffffffffffffffffffffffffffffffffffffff16021790555050565b3373ffffffffffffffffffffffffffffffffffffffff16600160009054906101000a900473ffffffffffffffffffffffffffffffffffffffff1673ffffffffffffffffffffffffffffffffffffffff1614151561181d57600080fd5b7f65da1cfc2c2e81576ad96afb24a581f8e109b7a403b35cbd3243a1c99efdb9ed600160009054906101000a900473ffffffffffffffffffffffffffffffffffffffff166000809054906101000a900473ffffffffffffffffffffffffffffffffffffffff16604051808373ffffffffffffffffffffffffffffffffffffffff1673ffffffffffffffffffffffffffffffffffffffff1681526020018273ffffffffffffffffffffffffffffffffffffffff1673ffffffffffffffffffffffffffffffffffffffff1681526020019250505060405180910390a1600160009054906101000a900473ffffffffffffffffffffffffffffffffffffffff166000806101000a81548173ffffffffffffffffffffffffffffffffffffffff021916908373ffffffffffffffffffffffffffffffffffffffff1602179055506000600160006101000a81548173ffffffffffffffffffffffffffffffffffffffff021916908373ffffffffffffffffffffffffffffffffffffffff160217905550565b6000809054906101000a900473ffffffffffffffffffffffffffffffffffffffff1673ffffffffffffffffffffffffffffffffffffffff163373ffffffffffffffffffffffffffffffffffffffff161415156119f857600080fd5b600073ffffffffffffffffffffffffffffffffffffffff168173ffffffffffffffffffffffffffffffffffffffff1614151515611a3457600080fd5b7f3b81caf78fa51ecbc8acb482fd7012a277b428d9b80f9d156e8a54107496cc4081604051808273ffffffffffffffffffffffffffffffffffffffff1673ffffffffffffffffffffffffffffffffffffffff16815260200191505060405180910390a17f65da1cfc2c2e81576ad96afb24a581f8e109b7a403b35cbd3243a1c99efdb9ed816000809054906101000a900473ffffffffffffffffffffffffffffffffffffffff16604051808373ffffffffffffffffffffffffffffffffffffffff1673ffffffffffffffffffffffffffffffffffffffff1681526020018273ffffffffffffffffffffffffffffffffffffffff1673ffffffffffffffffffffffffffffffffffffffff1681526020019250505060405180910390a1806000806101000a81548173ffffffffffffffffffffffffffffffffffffffff021916908373ffffffffffffffffffffffffffffffffffffffff16021790555050565b611b9a613887565b6005805480602002602001604051908101604052809291908181526020018280548015611c1c57602002820191906000526020600020905b8160009054906101000a900473ffffffffffffffffffffffffffffffffffffffff1673ffffffffffffffffffffffffffffffffffffffff1681526020019060010190808311611bd2575b5050505050905090565b600080601060009054906101000a900473ffffffffffffffffffffffffffffffffffffffff1673ffffffffffffffffffffffffffffffffffffffff1663809a9e5573eeeeeeeeeeeeeeeeeeeeeeeeeeeeeeeeeeeeeeee600f60009054906101000a900473ffffffffffffffffffffffffffffffffffffffff16670de0b6b3a76400006000604051604001526040518463ffffffff167c0100000000000000000000000000000000000000000000000000000000028152600401808473ffffffffffffffffffffffffffffffffffffffff1673ffffffffffffffffffffffffffffffffffffffff1681526020018373ffffffffffffffffffffffffffffffffffffffff1673ffffffffffffffffffffffffffffffffffffffff16815260200182815260200193505050506040805180830381600087803b1515611d6757600080fd5b6102c65a03f11515611d7857600080fd5b505050604051805190602001805190505080925050601060009054906101000a900473ffffffffffffffffffffffffffffffffffffffff1673ffffffffffffffffffffffffffffffffffffffff1663809a9e55600f60009054906101000a900473ffffffffffffffffffffffffffffffffffffffff1673eeeeeeeeeeeeeeeeeeeeeeeeeeeeeeeeeeeeeeee670de0b6b3a76400006000604051604001526040518463ffffffff167c0100000000000000000000000000000000000000000000000000000000028152600401808473ffffffffffffffffffffffffffffffffffffffff1673ffffffffffffffffffffffffffffffffffffffff1681526020018373ffffffffffffffffffffffffffffffffffffffff1673ffffffffffffffffffffffffffffffffffffffff16815260200182815260200193505050506040805180830381600087803b1515611ecb57600080fd5b6102c65a03f11515611edc57600080fd5b505050604051805190602001805190505080915050600280670de0b6b3a76400000a02818302101515611f0e57600080fd5b600280670de0b6b3a76400000a811515611f2457fe5b04818302111515611f3457600080fd5b620f4240670de0b6b3a7640000028211151515611f5057600080fd5b816011819055507fe55ada78a782c5b59f55b44255857da4f2ed737a5a94b83e9275ee710d0d48c4601154838333604051808581526020018481526020018381526020018273ffffffffffffffffffffffffffffffffffffffff1673ffffffffffffffffffffffffffffffffffffffff16815260200194505050505060405180910390a15050565b6000809054906101000a900473ffffffffffffffffffffffffffffffffffffffff1673ffffffffffffffffffffffffffffffffffffffff163373ffffffffffffffffffffffffffffffffffffffff1614151561203357600080fd5b600260008273ffffffffffffffffffffffffffffffffffffffff1673ffffffffffffffffffffffffffffffffffffffff16815260200190815260200160002060009054906101000a900460ff1615151561208c57600080fd5b60326004805490501015156120a057600080fd5b7f091a7a4b85135fdd7e8dbc18b12fabe5cc191ea867aa3c2e1a24a102af61d58b816001604051808373ffffffffffffffffffffffffffffffffffffffff1673ffffffffffffffffffffffffffffffffffffffff168152602001821515151581526020019250505060405180910390a16001600260008373ffffffffffffffffffffffffffffffffffffffff1673ffffffffffffffffffffffffffffffffffffffff16815260200190815260200160002060006101000a81548160ff0219169083151502179055506004805480600101828161217c919061389b565b9160005260206000209001600083909190916101000a81548173ffffffffffffffffffffffffffffffffffffffff021916908373ffffffffffffffffffffffffffffffffffffffff1602179055505050565b6000809054906101000a900473ffffffffffffffffffffffffffffffffffffffff1673ffffffffffffffffffffffffffffffffffffffff163373ffffffffffffffffffffffffffffffffffffffff1614151561222957600080fd5b6127108110151561223957600080fd5b80600e819055507f560f2dab6b3f89e548b63a9eabb6e43ec0e70bb81bdc69e5dc578c72bab629f5816040518082815260200191505060405180910390a150565b60008060009054906101000a900473ffffffffffffffffffffffffffffffffffffffff1673ffffffffffffffffffffffffffffffffffffffff163373ffffffffffffffffffffffffffffffffffffffff161415156122d757600080fd5b600260008373ffffffffffffffffffffffffffffffffffffffff1673ffffffffffffffffffffffffffffffffffffffff16815260200190815260200160002060009054906101000a900460ff16151561232f57600080fd5b6000600260008473ffffffffffffffffffffffffffffffffffffffff1673ffffffffffffffffffffffffffffffffffffffff16815260200190815260200160002060006101000a81548160ff021916908315150217905550600090505b60048054905081101561253b578173ffffffffffffffffffffffffffffffffffffffff166004828154811015156123bf57fe5b906000526020600020900160009054906101000a900473ffffffffffffffffffffffffffffffffffffffff1673ffffffffffffffffffffffffffffffffffffffff16141561253057600460016004805490500381548110151561241e57fe5b906000526020600020900160009054906101000a900473ffffffffffffffffffffffffffffffffffffffff1660048281548110151561245957fe5b906000526020600020900160006101000a81548173ffffffffffffffffffffffffffffffffffffffff021916908373ffffffffffffffffffffffffffffffffffffffff16021790555060016004818180549050039150816124ba919061385b565b507f091a7a4b85135fdd7e8dbc18b12fabe5cc191ea867aa3c2e1a24a102af61d58b826000604051808373ffffffffffffffffffffffffffffffffffffffff1673ffffffffffffffffffffffffffffffffffffffff168152602001821515151581526020019250505060405180910390a161253b565b80600101905061238c565b5050565b601060009054906101000a900473ffffffffffffffffffffffffffffffffffffffff1681565b6000809054906101000a900473ffffffffffffffffffffffffffffffffffffffff1673ffffffffffffffffffffffffffffffffffffffff163373ffffffffffffffffffffffffffffffffffffffff161415156125c057600080fd5b8073ffffffffffffffffffffffffffffffffffffffff166108fc839081150290604051600060405180830381858888f19350505050151561260057600080fd5b7fec47e7ed86c86774d1a72c19f35c639911393fe7c1a34031fdbd260890da90de8282604051808381526020018273ffffffffffffffffffffffffffffffffffffffff1673ffffffffffffffffffffffffffffffffffffffff1681526020019250505060405180910390a15050565b600073eeeeeeeeeeeeeeeeeeeeeeeeeeeeeeeeeeeeeeee73ffffffffffffffffffffffffffffffffffffffff168373ffffffffffffffffffffffffffffffffffffffff1614156126d8578173ffffffffffffffffffffffffffffffffffffffff16319050612799565b8273ffffffffffffffffffffffffffffffffffffffff166370a08231836000604051602001526040518263ffffffff167c0100000000000000000000000000000000000000000000000000000000028152600401808273ffffffffffffffffffffffffffffffffffffffff1673ffffffffffffffffffffffffffffffffffffffff168152602001915050602060405180830381600087803b151561277b57600080fd5b6102c65a03f1151561278c57600080fd5b5050506040518051905090505b92915050565b600b6020528060005260406000206000915090505481565b6000600c60008373ffffffffffffffffffffffffffffffffffffffff1673ffffffffffffffffffffffffffffffffffffffff16815260200190815260200160002060008473ffffffffffffffffffffffffffffffffffffffff1673ffffffffffffffffffffffffffffffffffffffff16815260200190815260200160002054905060018111151561284757600080fd5b6001600c60008473ffffffffffffffffffffffffffffffffffffffff1673ffffffffffffffffffffffffffffffffffffffff16815260200190815260200160002060008573ffffffffffffffffffffffffffffffffffffffff1673ffffffffffffffffffffffffffffffffffffffff16815260200190815260200160002081905550600f60009054906101000a900473ffffffffffffffffffffffffffffffffffffffff1673ffffffffffffffffffffffffffffffffffffffff166323b872dd600860008573ffffffffffffffffffffffffffffffffffffffff1673ffffffffffffffffffffffffffffffffffffffff16815260200190815260200160002060009054906101000a900473ffffffffffffffffffffffffffffffffffffffff1685600185036000604051602001526040518463ffffffff167c0100000000000000000000000000000000000000000000000000000000028152600401808473ffffffffffffffffffffffffffffffffffffffff1673ffffffffffffffffffffffffffffffffffffffff1681526020018373ffffffffffffffffffffffffffffffffffffffff1673ffffffffffffffffffffffffffffffffffffffff1681526020018281526020019350505050602060405180830381600087803b1515612a2c57600080fd5b6102c65a03f11515612a3d57600080fd5b505050604051805190501515612a5257600080fd5b60018103600b60008473ffffffffffffffffffffffffffffffffffffffff1673ffffffffffffffffffffffffffffffffffffffff168152602001908152602001600020600082825401925050819055508273ffffffffffffffffffffffffffffffffffffffff167fb3f3e7375c0c0c4f7dd94069a5a4e68667827491318da786c818b8c7a794924e8333604051808373ffffffffffffffffffffffffffffffffffffffff1673ffffffffffffffffffffffffffffffffffffffff1681526020018273ffffffffffffffffffffffffffffffffffffffff1673ffffffffffffffffffffffffffffffffffffffff1681526020019250505060405180910390a2505050565b600f60009054906101000a900473ffffffffffffffffffffffffffffffffffffffff1681565b6000809054906101000a900473ffffffffffffffffffffffffffffffffffffffff1673ffffffffffffffffffffffffffffffffffffffff163373ffffffffffffffffffffffffffffffffffffffff16141515612bd657600080fd5b600073ffffffffffffffffffffffffffffffffffffffff168173ffffffffffffffffffffffffffffffffffffffff1614151515612c1257600080fd5b80600d60006101000a81548173ffffffffffffffffffffffffffffffffffffffff021916908373ffffffffffffffffffffffffffffffffffffffff1602179055507f847d0f7f2b16c8dd0b72c0606e65e8bf1b624633d37905b0e08145a295ab875881604051808273ffffffffffffffffffffffffffffffffffffffff1673ffffffffffffffffffffffffffffffffffffffff16815260200191505060405180910390a150565b600080600a60008473ffffffffffffffffffffffffffffffffffffffff1673ffffffffffffffffffffffffffffffffffffffff16815260200190815260200160002054915060009050600282111515612d1157600080fd5b6001600a60008573ffffffffffffffffffffffffffffffffffffffff1673ffffffffffffffffffffffffffffffffffffffff16815260200190815260200160002081905550600073ffffffffffffffffffffffffffffffffffffffff16600d60009054906101000a900473ffffffffffffffffffffffffffffffffffffffff1673ffffffffffffffffffffffffffffffffffffffff1614158015612db857506000600e5414155b1561307557612710600e546001840302811515612dd157fe5b0490508060018303111515612de557600080fd5b8082039150600081111561307457600f60009054906101000a900473ffffffffffffffffffffffffffffffffffffffff1673ffffffffffffffffffffffffffffffffffffffff166323b872dd600860008673ffffffffffffffffffffffffffffffffffffffff1673ffffffffffffffffffffffffffffffffffffffff16815260200190815260200160002060009054906101000a900473ffffffffffffffffffffffffffffffffffffffff16600d60009054906101000a900473ffffffffffffffffffffffffffffffffffffffff16846000604051602001526040518463ffffffff167c0100000000000000000000000000000000000000000000000000000000028152600401808473ffffffffffffffffffffffffffffffffffffffff1673ffffffffffffffffffffffffffffffffffffffff1681526020018373ffffffffffffffffffffffffffffffffffffffff1673ffffffffffffffffffffffffffffffffffffffff1681526020018281526020019350505050602060405180830381600087803b1515612f7557600080fd5b6102c65a03f11515612f8657600080fd5b505050604051805190501515612f9b57600080fd5b8273ffffffffffffffffffffffffffffffffffffffff167f540d888e67a7f36992e365be9fddab5e2fd60e27b220d330c18f04650fd562e033600d60009054906101000a900473ffffffffffffffffffffffffffffffffffffffff1684604051808473ffffffffffffffffffffffffffffffffffffffff1673ffffffffffffffffffffffffffffffffffffffff1681526020018373ffffffffffffffffffffffffffffffffffffffff1673ffffffffffffffffffffffffffffffffffffffff168152602001828152602001935050505060405180910390a25b5b600f60009054906101000a900473ffffffffffffffffffffffffffffffffffffffff1673ffffffffffffffffffffffffffffffffffffffff166379cc6790600860008673ffffffffffffffffffffffffffffffffffffffff1673ffffffffffffffffffffffffffffffffffffffff16815260200190815260200160002060009054906101000a900473ffffffffffffffffffffffffffffffffffffffff16600185036000604051602001526040518363ffffffff167c0100000000000000000000000000000000000000000000000000000000028152600401808373ffffffffffffffffffffffffffffffffffffffff1673ffffffffffffffffffffffffffffffffffffffff16815260200182815260200192505050602060405180830381600087803b15156131a457600080fd5b6102c65a03f115156131b557600080fd5b5050506040518051905015156131ca57600080fd5b600182820103600b60008573ffffffffffffffffffffffffffffffffffffffff1673ffffffffffffffffffffffffffffffffffffffff168152602001908152602001600020600082825401925050819055508273ffffffffffffffffffffffffffffffffffffffff167f2f8d2d194cbe1816411754a2fc9478a11f0707da481b11cff7c69791eb877ee13360018503604051808373ffffffffffffffffffffffffffffffffffffffff1673ffffffffffffffffffffffffffffffffffffffff1681526020018281526020019250505060405180910390a2505050565b6000809054906101000a900473ffffffffffffffffffffffffffffffffffffffff1681565b6000806000806000601060009054906101000a900473ffffffffffffffffffffffffffffffffffffffff1673ffffffffffffffffffffffffffffffffffffffff163373ffffffffffffffffffffffffffffffffffffffff1614151561332f57600080fd5b6b204fce5e3e25026110000000881115151561334a57600080fd5b61338e73eeeeeeeeeeeeeeeeeeeeeeeeeeeeeeeeeeeeeeee600f60009054906101000a900473ffffffffffffffffffffffffffffffffffffffff168a60115461364a565b9350612710600760008973ffffffffffffffffffffffffffffffffffffffff1673ffffffffffffffffffffffffffffffffffffffff1681526020019081526020016000205485028115156133de57fe5b049250612710600960008873ffffffffffffffffffffffffffffffffffffffff1673ffffffffffffffffffffffffffffffffffffffff16815260200190815260200160002054840281151561342f57fe5b04915081831015151561344157600080fd5b818303905060008211156135795781600c60008973ffffffffffffffffffffffffffffffffffffffff1673ffffffffffffffffffffffffffffffffffffffff16815260200190815260200160002060008873ffffffffffffffffffffffffffffffffffffffff1673ffffffffffffffffffffffffffffffffffffffff168152602001908152602001600020600082825401925050819055507f366bc34352215bf0bd3b527cfd6718605e1f5938777e42bcd8ed92f578368f52878784604051808473ffffffffffffffffffffffffffffffffffffffff1673ffffffffffffffffffffffffffffffffffffffff1681526020018373ffffffffffffffffffffffffffffffffffffffff1673ffffffffffffffffffffffffffffffffffffffff168152602001828152602001935050505060405180910390a15b600081111561363b577ff838f6ddc89706878e3c3e698e9b5cbfbf2c0e3d3dcd0bd2e00f1ccf313e01858782604051808373ffffffffffffffffffffffffffffffffffffffff1673ffffffffffffffffffffffffffffffffffffffff1681526020018281526020019250505060405180910390a180600a60008973ffffffffffffffffffffffffffffffffffffffff1673ffffffffffffffffffffffffffffffffffffffff168152602001908152602001600020600082825401925050819055505b60019450505050509392505050565b60006136688361365987613672565b61366287613672565b856137a9565b9050949350505050565b60008073eeeeeeeeeeeeeeeeeeeeeeeeeeeeeeeeeeeeeeee73ffffffffffffffffffffffffffffffffffffffff168373ffffffffffffffffffffffffffffffffffffffff1614156136c657601291506137a3565b600660008473ffffffffffffffffffffffffffffffffffffffff1673ffffffffffffffffffffffffffffffffffffffff168152602001908152602001600020549050600081141561379f578273ffffffffffffffffffffffffffffffffffffffff1663313ce5676000604051602001526040518163ffffffff167c0100000000000000000000000000000000000000000000000000000000028152600401602060405180830381600087803b151561377d57600080fd5b6102c65a03f1151561378e57600080fd5b5050506040518051905091506137a3565b8091505b50919050565b60006b204fce5e3e2502611000000085111515156137c657600080fd5b620f4240670de0b6b3a76400000282111515156137e257600080fd5b8383101515613821576012848403111515156137fd57600080fd5b670de0b6b3a7640000848403600a0a8387020281151561381957fe5b049050613853565b60128385031115151561383357600080fd5b828403600a0a670de0b6b3a76400000282860281151561384f57fe5b0490505b949350505050565b8154818355818115116138825781836000526020600020918201910161388191906138c7565b5b505050565b602060405190810160405280600081525090565b8154818355818115116138c2578183600052602060002091820191016138c191906138c7565b5b505050565b6138e991905b808211156138e55760008160009055506001016138cd565b5090565b905600a165627a7a723058208642cde61de421bd5efc581ec7d4886864a7499291be11439baa3e1448a41a310029",
  "source": "pragma solidity 0.4.18;\n\n\nimport \"./FeeBurnerInterface.sol\";\nimport \"./Withdrawable.sol\";\nimport \"./Utils2.sol\";\nimport \"./KyberNetworkInterface.sol\";\n\n\ninterface BurnableToken {\n    function transferFrom(address _from, address _to, uint _value) public returns (bool);\n    function burnFrom(address _from, uint256 _value) public returns (bool);\n}\n\n\ncontract FeeBurner is Withdrawable, FeeBurnerInterface, Utils2 {\n\n    mapping(address=>uint) public reserveFeesInBps;\n    mapping(address=>address) public reserveKNCWallet; //wallet holding knc per reserve. from here burn and send fees.\n    mapping(address=>uint) public walletFeesInBps; // wallet that is the source of tx is entitled so some fees.\n    mapping(address=>uint) public reserveFeeToBurn;\n    mapping(address=>uint) public feePayedPerReserve; // track burned fees and sent wallet fees per reserve.\n    mapping(address=>mapping(address=>uint)) public reserveFeeToWallet;\n    address public taxWallet;\n    uint public taxFeeBps = 0; // burned fees are taxed. % out of burned fees.\n\n    BurnableToken public knc;\n    KyberNetworkInterface public kyberNetwork;\n    uint public kncPerEthRatePrecision = 600 * PRECISION; //--> 1 ether = 600 knc tokens\n\n    function FeeBurner(\n        address _admin,\n        BurnableToken _kncToken,\n        KyberNetworkInterface _kyberNetwork,\n        uint _initialKncToEthRatePrecision\n    )\n        public\n    {\n        require(_admin != address(0));\n        require(_kncToken != address(0));\n        require(_kyberNetwork != address(0));\n        require(_initialKncToEthRatePrecision != 0);\n\n        kyberNetwork = _kyberNetwork;\n        admin = _admin;\n        knc = _kncToken;\n        kncPerEthRatePrecision = _initialKncToEthRatePrecision;\n    }\n\n    event ReserveDataSet(address reserve, uint feeInBps, address kncWallet);\n\n    function setReserveData(address reserve, uint feesInBps, address kncWallet) public onlyOperator {\n        require(feesInBps < 100); // make sure it is always < 1%\n        require(kncWallet != address(0));\n        reserveFeesInBps[reserve] = feesInBps;\n        reserveKNCWallet[reserve] = kncWallet;\n        ReserveDataSet(reserve, feesInBps, kncWallet);\n    }\n\n    event WalletFeesSet(address wallet, uint feesInBps);\n\n    function setWalletFees(address wallet, uint feesInBps) public onlyAdmin {\n        require(feesInBps < 10000); // under 100%\n        walletFeesInBps[wallet] = feesInBps;\n        WalletFeesSet(wallet, feesInBps);\n    }\n\n    event TaxFeesSet(uint feesInBps);\n\n    function setTaxInBps(uint _taxFeeBps) public onlyAdmin {\n        require(_taxFeeBps < 10000); // under 100%\n        taxFeeBps = _taxFeeBps;\n        TaxFeesSet(_taxFeeBps);\n    }\n\n    event TaxWalletSet(address taxWallet);\n\n    function setTaxWallet(address _taxWallet) public onlyAdmin {\n        require(_taxWallet != address(0));\n        taxWallet = _taxWallet;\n        TaxWalletSet(_taxWallet);\n    }\n\n    event KNCRateSet(uint ethToKncRatePrecision, uint kyberEthKnc, uint kyberKncEth, address updater);\n\n    function setKNCRate() public {\n        //query kyber for knc rate sell and buy\n        uint kyberEthKncRate;\n        uint kyberKncEthRate;\n        (kyberEthKncRate, ) = kyberNetwork.getExpectedRate(ETH_TOKEN_ADDRESS, ERC20(knc), (10 ** 18));\n        (kyberKncEthRate, ) = kyberNetwork.getExpectedRate(ERC20(knc), ETH_TOKEN_ADDRESS, (10 ** 18));\n\n        //check \"reasonable\" spread == diff not too big. rate wasn't tampered.\n        require(kyberEthKncRate * kyberKncEthRate < PRECISION ** 2 * 2);\n        require(kyberEthKncRate * kyberKncEthRate > PRECISION ** 2 / 2);\n\n        require(kyberEthKncRate <= MAX_RATE);\n        kncPerEthRatePrecision = kyberEthKncRate;\n        KNCRateSet(kncPerEthRatePrecision, kyberEthKncRate, kyberKncEthRate, msg.sender);\n    }\n\n    event AssignFeeToWallet(address reserve, address wallet, uint walletFee);\n    event AssignBurnFees(address reserve, uint burnFee);\n\n    function handleFees(uint tradeWeiAmount, address reserve, address wallet) public returns(bool) {\n        require(msg.sender == address(kyberNetwork));\n        require(tradeWeiAmount <= MAX_QTY);\n\n        uint kncAmount = calcDestAmount(ETH_TOKEN_ADDRESS, ERC20(knc), tradeWeiAmount, kncPerEthRatePrecision);\n        uint fee = kncAmount * reserveFeesInBps[reserve] / 10000;\n\n        uint walletFee = fee * walletFeesInBps[wallet] / 10000;\n        require(fee >= walletFee);\n        uint feeToBurn = fee - walletFee;\n\n        if (walletFee > 0) {\n            reserveFeeToWallet[reserve][wallet] += walletFee;\n            AssignFeeToWallet(reserve, wallet, walletFee);\n        }\n\n        if (feeToBurn > 0) {\n            AssignBurnFees(reserve, feeToBurn);\n            reserveFeeToBurn[reserve] += feeToBurn;\n        }\n\n        return true;\n    }\n\n    event BurnAssignedFees(address indexed reserve, address sender, uint quantity);\n\n    event SendTaxFee(address indexed reserve, address sender, address taxWallet, uint quantity);\n\n    // this function is callable by anyone\n    function burnReserveFees(address reserve) public {\n        uint burnAmount = reserveFeeToBurn[reserve];\n        uint taxToSend = 0;\n        require(burnAmount > 2);\n        reserveFeeToBurn[reserve] = 1; // leave 1 twei to avoid spikes in gas fee\n        if (taxWallet != address(0) && taxFeeBps != 0) {\n            taxToSend = (burnAmount - 1) * taxFeeBps / 10000;\n            require(burnAmount - 1 > taxToSend);\n            burnAmount -= taxToSend;\n            if (taxToSend > 0) {\n                require(knc.transferFrom(reserveKNCWallet[reserve], taxWallet, taxToSend));\n                SendTaxFee(reserve, msg.sender, taxWallet, taxToSend);\n            }\n        }\n        require(knc.burnFrom(reserveKNCWallet[reserve], burnAmount - 1));\n\n        //update reserve \"payments\" so far\n        feePayedPerReserve[reserve] += (taxToSend + burnAmount - 1);\n\n        BurnAssignedFees(reserve, msg.sender, (burnAmount - 1));\n    }\n\n    event SendWalletFees(address indexed wallet, address reserve, address sender);\n\n    // this function is callable by anyone\n    function sendFeeToWallet(address wallet, address reserve) public {\n        uint feeAmount = reserveFeeToWallet[reserve][wallet];\n        require(feeAmount > 1);\n        reserveFeeToWallet[reserve][wallet] = 1; // leave 1 twei to avoid spikes in gas fee\n        require(knc.transferFrom(reserveKNCWallet[reserve], wallet, feeAmount - 1));\n\n        feePayedPerReserve[reserve] += (feeAmount - 1);\n        SendWalletFees(wallet, reserve, msg.sender);\n    }\n}\n",
  "sourcePath": "/Users/oscarr/Ethereum/frappe/contracts/FeeBurner.sol",
  "compiler": {
    "name": "solc",
    "version": "0.4.18+commit.9cf6e910.Emscripten.clang"
  },
  "schemaVersion": "3.0.6",
  "updatedAt": "2019-05-18T17:14:12.934Z",
  "devdoc": {
    "methods": {
      "claimAdmin()": {
        "details": "Allows the pendingAdmin address to finalize the change admin process."
      },
      "getBalance(address,address)": {
        "details": "get the balance of a user.",
        "params": {
          "token": "The token type"
        },
        "return": "The balance"
      },
      "transferAdmin(address)": {
        "details": "Allows the current admin to set the pendingAdmin address.",
        "params": {
          "newAdmin": "The address to transfer ownership to."
        }
      },
      "transferAdminQuickly(address)": {
        "details": "Allows the current admin to set the admin in one tx. Useful initial deployment.",
        "params": {
          "newAdmin": "The address to transfer ownership to."
        }
      },
      "withdrawEther(uint256,address)": {
        "details": "Withdraw Ethers"
      },
      "withdrawToken(address,uint256,address)": {
        "details": "Withdraw all ERC20 compatible tokens",
        "params": {
          "token": "ERC20 The address of the token contract"
        }
      }
    }
  },
  "userdoc": {
    "methods": {}
  }
}