{
  "contractName": "Frappe",
  "abi": [
    {
      "inputs": [
        {
          "name": "_networkProxy",
          "type": "address"
        }
      ],
      "payable": false,
      "stateMutability": "nonpayable",
      "type": "constructor"
    },
    {
      "payable": true,
      "stateMutability": "payable",
      "type": "fallback"
    },
    {
      "anonymous": false,
      "inputs": [
        {
          "indexed": false,
          "name": "balanceBefore",
          "type": "uint256"
        },
        {
          "indexed": false,
          "name": "balanceAfter",
          "type": "uint256"
        },
        {
          "indexed": false,
          "name": "change",
          "type": "uint256"
        }
      ],
      "name": "SwapTokenChange",
      "type": "event"
    },
    {
      "anonymous": false,
      "inputs": [
        {
          "indexed": false,
          "name": "startBalance",
          "type": "uint256"
        },
        {
          "indexed": false,
          "name": "currentBalance",
          "type": "uint256"
        },
        {
          "indexed": false,
          "name": "change",
          "type": "uint256"
        }
      ],
      "name": "SwapEtherChange",
      "type": "event"
    },
    {
      "constant": false,
      "inputs": [
        {
          "name": "token",
          "type": "address"
        },
        {
          "name": "destAddress",
          "type": "address"
        }
      ],
      "name": "swapEtherToToken",
      "outputs": [],
      "payable": true,
      "stateMutability": "payable",
      "type": "function"
    },
    {
      "constant": false,
      "inputs": [
        {
          "name": "token",
          "type": "address"
        },
        {
          "name": "tokenQty",
          "type": "uint256"
        },
        {
          "name": "destAddress",
          "type": "address"
        }
      ],
      "name": "swapTokenToEther",
      "outputs": [],
      "payable": false,
      "stateMutability": "nonpayable",
      "type": "function"
    },
    {
      "constant": false,
      "inputs": [
        {
          "name": "srcToken",
          "type": "address"
        },
        {
          "name": "srcQty",
          "type": "uint256"
        },
        {
          "name": "destToken",
          "type": "address"
        },
        {
          "name": "destAddress",
          "type": "address"
        },
        {
          "name": "maxDestQty",
          "type": "uint256"
        },
        {
          "name": "minRate",
          "type": "uint256"
        }
      ],
      "name": "swapTokenToTokenWithChange",
      "outputs": [],
      "payable": false,
      "stateMutability": "nonpayable",
      "type": "function"
    },
    {
      "constant": false,
      "inputs": [
        {
          "name": "token",
          "type": "address"
        },
        {
          "name": "destAddress",
          "type": "address"
        },
        {
          "name": "maxDestQty",
          "type": "uint256"
        },
        {
          "name": "minRate",
          "type": "uint256"
        }
      ],
      "name": "swapEtherToTokenWithChange",
      "outputs": [],
      "payable": true,
      "stateMutability": "payable",
      "type": "function"
    },
    {
      "constant": false,
      "inputs": [
        {
          "name": "token",
          "type": "address"
        },
        {
          "name": "tokenQty",
          "type": "uint256"
        },
        {
          "name": "destAddress",
          "type": "address"
        },
        {
          "name": "maxDestQty",
          "type": "uint256"
        },
        {
          "name": "minRate",
          "type": "uint256"
        }
      ],
      "name": "swapTokenToEtherWithChange",
      "outputs": [],
      "payable": false,
      "stateMutability": "nonpayable",
      "type": "function"
    }
  ],
  "bytecode": "0x6060604052341561000f57600080fd5b604051602080611b6783398101604052808051906020019091905050806000806101000a81548173ffffffffffffffffffffffffffffffffffffffff021916908373ffffffffffffffffffffffffffffffffffffffff16021790555050611aec8061007b6000396000f30060606040526004361061006d576000357c0100000000000000000000000000000000000000000000000000000000900463ffffffff16806301e992f51461006f5780630cf7fbd2146100bc5780632c9d2f3e1461011b578063aeafadd51461017c578063c04f4cc6146101ef575b005b6100ba600480803573ffffffffffffffffffffffffffffffffffffffff1690602001909190803573ffffffffffffffffffffffffffffffffffffffff16906020019091905050610281565b005b610119600480803573ffffffffffffffffffffffffffffffffffffffff1690602001909190803573ffffffffffffffffffffffffffffffffffffffff1690602001909190803590602001909190803590602001909190505061057f565b005b341561012657600080fd5b61017a600480803573ffffffffffffffffffffffffffffffffffffffff1690602001909190803590602001909190803573ffffffffffffffffffffffffffffffffffffffff169060200190919050506107f3565b005b341561018757600080fd5b6101ed600480803573ffffffffffffffffffffffffffffffffffffffff1690602001909190803590602001909190803573ffffffffffffffffffffffffffffffffffffffff16906020019091908035906020019091908035906020019091905050610d47565b005b34156101fa57600080fd5b61027f600480803573ffffffffffffffffffffffffffffffffffffffff1690602001909190803590602001909190803573ffffffffffffffffffffffffffffffffffffffff1690602001909190803573ffffffffffffffffffffffffffffffffffffffff1690602001909190803590602001909190803590602001909190505061140d565b005b6000806000809054906101000a900473ffffffffffffffffffffffffffffffffffffffff1673ffffffffffffffffffffffffffffffffffffffff1663809a9e5573eeeeeeeeeeeeeeeeeeeeeeeeeeeeeeeeeeeeeeee86346000604051604001526040518463ffffffff167c0100000000000000000000000000000000000000000000000000000000028152600401808473ffffffffffffffffffffffffffffffffffffffff1673ffffffffffffffffffffffffffffffffffffffff1681526020018373ffffffffffffffffffffffffffffffffffffffff1673ffffffffffffffffffffffffffffffffffffffff16815260200182815260200193505050506040805180830381600087803b151561039757600080fd5b6102c65a03f115156103a857600080fd5b505050604051805190602001805190509050809250506000809054906101000a900473ffffffffffffffffffffffffffffffffffffffff1673ffffffffffffffffffffffffffffffffffffffff16637a2a04563486856000604051602001526040518463ffffffff167c0100000000000000000000000000000000000000000000000000000000028152600401808373ffffffffffffffffffffffffffffffffffffffff1673ffffffffffffffffffffffffffffffffffffffff168152602001828152602001925050506020604051808303818588803b151561048a57600080fd5b6125ee5a03f1151561049b57600080fd5b505050506040518051905090508373ffffffffffffffffffffffffffffffffffffffff1663a9059cbb84836000604051602001526040518363ffffffff167c0100000000000000000000000000000000000000000000000000000000028152600401808373ffffffffffffffffffffffffffffffffffffffff1673ffffffffffffffffffffffffffffffffffffffff16815260200182815260200192505050602060405180830381600087803b151561055357600080fd5b6102c65a03f1151561056457600080fd5b50505060405180519050151561057957600080fd5b50505050565b6000803073ffffffffffffffffffffffffffffffffffffffff163191506000809054906101000a900473ffffffffffffffffffffffffffffffffffffffff1673ffffffffffffffffffffffffffffffffffffffff1663cb3c28c73473eeeeeeeeeeeeeeeeeeeeeeeeeeeeeeeeeeeeeeee348a8a8a8a600080604051602001526040518963ffffffff167c0100000000000000000000000000000000000000000000000000000000028152600401808873ffffffffffffffffffffffffffffffffffffffff1673ffffffffffffffffffffffffffffffffffffffff1681526020018781526020018673ffffffffffffffffffffffffffffffffffffffff1673ffffffffffffffffffffffffffffffffffffffff1681526020018573ffffffffffffffffffffffffffffffffffffffff1673ffffffffffffffffffffffffffffffffffffffff1681526020018481526020018381526020018273ffffffffffffffffffffffffffffffffffffffff1681526020019750505050505050506020604051808303818588803b151561071257600080fd5b6125ee5a03f1151561072357600080fd5b5050505060405180519050503482033073ffffffffffffffffffffffffffffffffffffffff16310390507fbdce99f7042e4fc3fba6ec9102626a2e8bdfc5152877975c41a317d60d764d4e823073ffffffffffffffffffffffffffffffffffffffff16318360405180848152602001838152602001828152602001935050505060405180910390a13373ffffffffffffffffffffffffffffffffffffffff166108fc829081150290604051600060405180830381858888f1935050505015156107eb57600080fd5b505050505050565b6000806000809054906101000a900473ffffffffffffffffffffffffffffffffffffffff1673ffffffffffffffffffffffffffffffffffffffff1663809a9e558673eeeeeeeeeeeeeeeeeeeeeeeeeeeeeeeeeeeeeeee876000604051604001526040518463ffffffff167c0100000000000000000000000000000000000000000000000000000000028152600401808473ffffffffffffffffffffffffffffffffffffffff1673ffffffffffffffffffffffffffffffffffffffff1681526020018373ffffffffffffffffffffffffffffffffffffffff1673ffffffffffffffffffffffffffffffffffffffff16815260200182815260200193505050506040805180830381600087803b151561090957600080fd5b6102c65a03f1151561091a57600080fd5b505050604051805190602001805190509050809250508473ffffffffffffffffffffffffffffffffffffffff166323b872dd3330876000604051602001526040518463ffffffff167c0100000000000000000000000000000000000000000000000000000000028152600401808473ffffffffffffffffffffffffffffffffffffffff1673ffffffffffffffffffffffffffffffffffffffff1681526020018373ffffffffffffffffffffffffffffffffffffffff1673ffffffffffffffffffffffffffffffffffffffff1681526020018281526020019350505050602060405180830381600087803b1515610a0f57600080fd5b6102c65a03f11515610a2057600080fd5b505050604051805190501515610a3557600080fd5b8473ffffffffffffffffffffffffffffffffffffffff1663095ea7b36000809054906101000a900473ffffffffffffffffffffffffffffffffffffffff16600080604051602001526040518363ffffffff167c0100000000000000000000000000000000000000000000000000000000028152600401808373ffffffffffffffffffffffffffffffffffffffff1673ffffffffffffffffffffffffffffffffffffffff16815260200182815260200192505050602060405180830381600087803b1515610b0157600080fd5b6102c65a03f11515610b1257600080fd5b505050604051805190501515610b2757600080fd5b8473ffffffffffffffffffffffffffffffffffffffff1663095ea7b36000809054906101000a900473ffffffffffffffffffffffffffffffffffffffff16866000604051602001526040518363ffffffff167c0100000000000000000000000000000000000000000000000000000000028152600401808373ffffffffffffffffffffffffffffffffffffffff1673ffffffffffffffffffffffffffffffffffffffff16815260200182815260200192505050602060405180830381600087803b1515610bf357600080fd5b6102c65a03f11515610c0457600080fd5b50505060405180519050506000809054906101000a900473ffffffffffffffffffffffffffffffffffffffff1673ffffffffffffffffffffffffffffffffffffffff16633bba21dc8686856000604051602001526040518463ffffffff167c0100000000000000000000000000000000000000000000000000000000028152600401808473ffffffffffffffffffffffffffffffffffffffff1673ffffffffffffffffffffffffffffffffffffffff1681526020018381526020018281526020019350505050602060405180830381600087803b1515610ce357600080fd5b6102c65a03f11515610cf457600080fd5b5050506040518051905090508273ffffffffffffffffffffffffffffffffffffffff166108fc829081150290604051600060405180830381858888f193505050501515610d4057600080fd5b5050505050565b6000808673ffffffffffffffffffffffffffffffffffffffff166370a08231306000604051602001526040518263ffffffff167c0100000000000000000000000000000000000000000000000000000000028152600401808273ffffffffffffffffffffffffffffffffffffffff1673ffffffffffffffffffffffffffffffffffffffff168152602001915050602060405180830381600087803b1515610ded57600080fd5b6102c65a03f11515610dfe57600080fd5b5050506040518051905091508673ffffffffffffffffffffffffffffffffffffffff166323b872dd3330896000604051602001526040518463ffffffff167c0100000000000000000000000000000000000000000000000000000000028152600401808473ffffffffffffffffffffffffffffffffffffffff1673ffffffffffffffffffffffffffffffffffffffff1681526020018373ffffffffffffffffffffffffffffffffffffffff1673ffffffffffffffffffffffffffffffffffffffff1681526020018281526020019350505050602060405180830381600087803b1515610ee957600080fd5b6102c65a03f11515610efa57600080fd5b505050604051805190501515610f0f57600080fd5b8673ffffffffffffffffffffffffffffffffffffffff1663095ea7b36000809054906101000a900473ffffffffffffffffffffffffffffffffffffffff16600080604051602001526040518363ffffffff167c0100000000000000000000000000000000000000000000000000000000028152600401808373ffffffffffffffffffffffffffffffffffffffff1673ffffffffffffffffffffffffffffffffffffffff16815260200182815260200192505050602060405180830381600087803b1515610fdb57600080fd5b6102c65a03f11515610fec57600080fd5b50505060405180519050151561100157600080fd5b8673ffffffffffffffffffffffffffffffffffffffff1663095ea7b36000809054906101000a900473ffffffffffffffffffffffffffffffffffffffff16886000604051602001526040518363ffffffff167c0100000000000000000000000000000000000000000000000000000000028152600401808373ffffffffffffffffffffffffffffffffffffffff1673ffffffffffffffffffffffffffffffffffffffff16815260200182815260200192505050602060405180830381600087803b15156110cd57600080fd5b6102c65a03f115156110de57600080fd5b50505060405180519050506000809054906101000a900473ffffffffffffffffffffffffffffffffffffffff1673ffffffffffffffffffffffffffffffffffffffff1663cb3c28c7888873eeeeeeeeeeeeeeeeeeeeeeeeeeeeeeeeeeeeeeee898989600080604051602001526040518863ffffffff167c0100000000000000000000000000000000000000000000000000000000028152600401808873ffffffffffffffffffffffffffffffffffffffff1673ffffffffffffffffffffffffffffffffffffffff1681526020018781526020018673ffffffffffffffffffffffffffffffffffffffff1673ffffffffffffffffffffffffffffffffffffffff1681526020018573ffffffffffffffffffffffffffffffffffffffff1673ffffffffffffffffffffffffffffffffffffffff1681526020018481526020018381526020018273ffffffffffffffffffffffffffffffffffffffff168152602001975050505050505050602060405180830381600087803b151561125f57600080fd5b6102c65a03f1151561127057600080fd5b5050506040518051905050818773ffffffffffffffffffffffffffffffffffffffff166370a08231306000604051602001526040518263ffffffff167c0100000000000000000000000000000000000000000000000000000000028152600401808273ffffffffffffffffffffffffffffffffffffffff1673ffffffffffffffffffffffffffffffffffffffff168152602001915050602060405180830381600087803b151561131f57600080fd5b6102c65a03f1151561133057600080fd5b505050604051805190500390508673ffffffffffffffffffffffffffffffffffffffff1663a9059cbb33836000604051602001526040518363ffffffff167c0100000000000000000000000000000000000000000000000000000000028152600401808373ffffffffffffffffffffffffffffffffffffffff1673ffffffffffffffffffffffffffffffffffffffff16815260200182815260200192505050602060405180830381600087803b15156113e857600080fd5b6102c65a03f115156113f957600080fd5b505050604051805190505050505050505050565b6000808773ffffffffffffffffffffffffffffffffffffffff166370a08231306000604051602001526040518263ffffffff167c0100000000000000000000000000000000000000000000000000000000028152600401808273ffffffffffffffffffffffffffffffffffffffff1673ffffffffffffffffffffffffffffffffffffffff168152602001915050602060405180830381600087803b15156114b357600080fd5b6102c65a03f115156114c457600080fd5b5050506040518051905091508773ffffffffffffffffffffffffffffffffffffffff166323b872dd33308a6000604051602001526040518463ffffffff167c0100000000000000000000000000000000000000000000000000000000028152600401808473ffffffffffffffffffffffffffffffffffffffff1673ffffffffffffffffffffffffffffffffffffffff1681526020018373ffffffffffffffffffffffffffffffffffffffff1673ffffffffffffffffffffffffffffffffffffffff1681526020018281526020019350505050602060405180830381600087803b15156115af57600080fd5b6102c65a03f115156115c057600080fd5b5050506040518051905015156115d557600080fd5b8773ffffffffffffffffffffffffffffffffffffffff1663095ea7b36000809054906101000a900473ffffffffffffffffffffffffffffffffffffffff16600080604051602001526040518363ffffffff167c0100000000000000000000000000000000000000000000000000000000028152600401808373ffffffffffffffffffffffffffffffffffffffff1673ffffffffffffffffffffffffffffffffffffffff16815260200182815260200192505050602060405180830381600087803b15156116a157600080fd5b6102c65a03f115156116b257600080fd5b5050506040518051905015156116c757600080fd5b8773ffffffffffffffffffffffffffffffffffffffff1663095ea7b36000809054906101000a900473ffffffffffffffffffffffffffffffffffffffff16896000604051602001526040518363ffffffff167c0100000000000000000000000000000000000000000000000000000000028152600401808373ffffffffffffffffffffffffffffffffffffffff1673ffffffffffffffffffffffffffffffffffffffff16815260200182815260200192505050602060405180830381600087803b151561179357600080fd5b6102c65a03f115156117a457600080fd5b50505060405180519050506000809054906101000a900473ffffffffffffffffffffffffffffffffffffffff1673ffffffffffffffffffffffffffffffffffffffff1663cb3c28c7898989898989600080604051602001526040518863ffffffff167c0100000000000000000000000000000000000000000000000000000000028152600401808873ffffffffffffffffffffffffffffffffffffffff1673ffffffffffffffffffffffffffffffffffffffff1681526020018781526020018673ffffffffffffffffffffffffffffffffffffffff1673ffffffffffffffffffffffffffffffffffffffff1681526020018573ffffffffffffffffffffffffffffffffffffffff1673ffffffffffffffffffffffffffffffffffffffff1681526020018481526020018381526020018273ffffffffffffffffffffffffffffffffffffffff168152602001975050505050505050602060405180830381600087803b151561191157600080fd5b6102c65a03f1151561192257600080fd5b5050506040518051905050818873ffffffffffffffffffffffffffffffffffffffff166370a08231306000604051602001526040518263ffffffff167c0100000000000000000000000000000000000000000000000000000000028152600401808273ffffffffffffffffffffffffffffffffffffffff1673ffffffffffffffffffffffffffffffffffffffff168152602001915050602060405180830381600087803b15156119d157600080fd5b6102c65a03f115156119e257600080fd5b505050604051805190500390508773ffffffffffffffffffffffffffffffffffffffff1663a9059cbb33836000604051602001526040518363ffffffff167c0100000000000000000000000000000000000000000000000000000000028152600401808373ffffffffffffffffffffffffffffffffffffffff1673ffffffffffffffffffffffffffffffffffffffff16815260200182815260200192505050602060405180830381600087803b1515611a9a57600080fd5b6102c65a03f11515611aab57600080fd5b505050604051805190505050505050505050505600a165627a7a7230582079edf0a5b2a6d7731daf5bc04eab1bf078b8c6b89349b848d4e8d42449119ca00029",
  "source": "pragma solidity 0.4.18;\n\nimport \"./ERC20Interface.sol\";\nimport \"./KyberNetworkProxy.sol\";\n\ncontract Frappe {\n    //It is possible to take minRate from kyber contract, but best to get it as an input from the user.\n    ERC20 constant internal ETH_TOKEN_ADDRESS = ERC20(0x00eeeeeeeeeeeeeeeeeeeeeeeeeeeeeeeeeeeeeeee);\n\n    event SwapTokenChange(uint balanceBefore, uint balanceAfter, uint change);\n    event SwapEtherChange(uint startBalance, uint currentBalance, uint change);\n\n    KyberNetworkProxy internal _kyberNetworkProxy;\n\n    function Frappe(KyberNetworkProxy _networkProxy) {\n        _kyberNetworkProxy = _networkProxy;\n    }\n\n    //must have default payable since this contract expected to receive change\n    function() public payable {}\n\n    //@dev assumed to be receiving ether wei\n    //@param token destination token contract address\n    //@param destAddress address to send swapped tokens to\n    function swapEtherToToken (ERC20 token, address destAddress) public payable {\n\n        uint minRate;\n        (, minRate) = _kyberNetworkProxy.getExpectedRate(ETH_TOKEN_ADDRESS, token, msg.value);\n\n        //will send back tokens to this contract's address\n        uint destAmount = _kyberNetworkProxy.swapEtherToToken.value(msg.value)(token, minRate);\n\n        //send received tokens to destination address\n        require(token.transfer(destAddress, destAmount));\n    }\n\n\n    //@param _kyberNetworkProxy kyberNetworkProxy contract address\n    //@param token source token contract address\n    //@param tokenQty token wei amount\n    //@param destAddress address to send swapped ETH to\n    function swapTokenToEther (ERC20 token, uint tokenQty, address destAddress) public {\n\n        uint minRate;\n        (, minRate) = _kyberNetworkProxy.getExpectedRate(token, ETH_TOKEN_ADDRESS, tokenQty);\n\n        // Check that the token transferFrom has succeeded\n        require(token.transferFrom(msg.sender, this, tokenQty));\n\n        // Mitigate ERC20 Approve front-running attack, by initially setting\n        // allowance to 0\n        require(token.approve(_kyberNetworkProxy, 0));\n\n        // Approve tokens so network can take them during the swap\n        token.approve(address(_kyberNetworkProxy), tokenQty);\n        uint destAmount = _kyberNetworkProxy.swapTokenToEther(token, tokenQty, minRate);\n\n        // Send received ethers to destination address\n        destAddress.transfer(destAmount);\n    }\n\n\n    //@param _kyberNetworkProxy kyberNetworkProxy contract address\n    //@param srcToken source token contract address\n    //@param srcQty in token wei\n    //@param destToken destination token contract address\n    //@param destAddress address to send swapped tokens to\n    //@param maxDestQty max number of tokens in swap outcome. will be sent to destAddress\n    //@param minRate minimum conversion rate for the swap\n    function swapTokenToTokenWithChange (\n        ERC20 srcToken,\n        uint srcQty,\n        ERC20 destToken,\n        address destAddress,\n        uint maxDestQty,\n        uint minRate\n    )\n        public\n    {\n        uint beforeTransferBalance = srcToken.balanceOf(this);\n\n        // Check that the token transferFrom has succeeded\n        require(srcToken.transferFrom(msg.sender, this, srcQty));\n\n        // Mitigate ERC20 Approve front-running attack, by initially setting\n        // allowance to 0\n        require(srcToken.approve(_kyberNetworkProxy, 0));\n\n        // Approve tokens so network can take them during the swap\n        srcToken.approve(address(_kyberNetworkProxy), srcQty);\n\n        _kyberNetworkProxy.trade(srcToken, srcQty, destToken, destAddress, maxDestQty, minRate, 0);\n        uint change = srcToken.balanceOf(this) - beforeTransferBalance;\n\n        // Return any remaining source tokens to user\n        srcToken.transfer(msg.sender, change);\n    }\n\n\n    //@param _kyberNetworkProxy kyberNetworkProxy contract address\n    //@param token destination token contract address\n    //@param destAddress address to send swapped tokens to\n    //@param maxDestQty max number of tokens in swap outcome. will be sent to destAddress\n    //@param minRate minimum conversion rate for the swap\n    function swapEtherToTokenWithChange (\n        ERC20 token,\n        address destAddress,\n        uint maxDestQty,\n        uint minRate\n    )\n        public\n        payable\n    {\n        //note that this.balance has increased by msg.value before the execution of this function\n        uint startEthBalance = this.balance;\n\n        //send swapped tokens to dest address. change will be sent to this contract.\n        _kyberNetworkProxy.trade.value(msg.value)(ETH_TOKEN_ADDRESS, msg.value, token, destAddress, maxDestQty, minRate, 0);\n\n        //calculate contract starting ETH balance before receiving msg.value (startEthBalance - msg.value)\n        //change = current balance after trade - starting ETH contract balance (this.balance - (startEthBalance - msg.value))\n        uint change = this.balance - (startEthBalance - msg.value);\n\n        SwapEtherChange(startEthBalance, this.balance, change);\n\n        //return change to msg.sender\n        msg.sender.transfer(change);\n    }\n\n\n    //@param _kyberNetworkProxy kyberNetworkProxy contract address\n    //@param token source token contract address\n    //@param tokenQty token wei amount\n    //@param destAddress address to send swapped tokens to\n    //@param maxDestQty max number of tokens in swap outcome. will be sent to destAddress\n    //@param minRate minimum conversion rate for the swap\n    function swapTokenToEtherWithChange (\n        ERC20 token,\n        uint tokenQty,\n        address destAddress,\n        uint maxDestQty,\n        uint minRate\n    )\n        public\n    {\n    uint beforeTransferBalance = token.balanceOf(this);\n\n    // Check that the token transferFrom has succeeded\n    require(token.transferFrom(msg.sender, this, tokenQty));\n\n    // Mitigate ERC20 Approve front-running attack, by initially setting\n    // allowance to 0\n    require(token.approve(_kyberNetworkProxy, 0));\n\n    // Approve tokens so network can take them during the swap\n    token.approve(address(_kyberNetworkProxy), tokenQty);\n\n    _kyberNetworkProxy.trade(token, tokenQty, ETH_TOKEN_ADDRESS, destAddress, maxDestQty, minRate, 0);\n    uint change = token.balanceOf(this) - beforeTransferBalance;\n\n    // Return any remaining source tokens to user\n    token.transfer(msg.sender, change);\n    }\n}\n",
  "sourcePath": "/Users/oscarr/Ethereum/frappe/contracts/Frappe.sol",
  "compiler": {
    "name": "solc",
    "version": "0.4.18+commit.9cf6e910.Emscripten.clang"
  },
  "schemaVersion": "3.0.6",
  "updatedAt": "2019-05-18T17:14:12.941Z",
  "devdoc": {
    "methods": {}
  },
  "userdoc": {
    "methods": {}
  }
}