{
  "contractName": "GenerousKyberNetwork",
  "abi": [
    {
      "constant": false,
      "inputs": [
        {
          "name": "alerter",
          "type": "address"
        }
      ],
      "name": "removeAlerter",
      "outputs": [],
      "payable": false,
      "stateMutability": "nonpayable",
      "type": "function"
    },
    {
      "constant": false,
      "inputs": [
        {
          "name": "trader",
          "type": "address"
        },
        {
          "name": "src",
          "type": "address"
        },
        {
          "name": "srcAmount",
          "type": "uint256"
        },
        {
          "name": "dest",
          "type": "address"
        },
        {
          "name": "destAddress",
          "type": "address"
        },
        {
          "name": "maxDestAmount",
          "type": "uint256"
        },
        {
          "name": "minConversionRate",
          "type": "uint256"
        },
        {
          "name": "walletId",
          "type": "address"
        },
        {
          "name": "hint",
          "type": "bytes"
        }
      ],
      "name": "tradeWithHint",
      "outputs": [
        {
          "name": "",
          "type": "uint256"
        }
      ],
      "payable": true,
      "stateMutability": "payable",
      "type": "function"
    },
    {
      "constant": true,
      "inputs": [],
      "name": "getReserves",
      "outputs": [
        {
          "name": "",
          "type": "address[]"
        }
      ],
      "payable": false,
      "stateMutability": "view",
      "type": "function"
    },
    {
      "constant": true,
      "inputs": [
        {
          "name": "src",
          "type": "address"
        },
        {
          "name": "dest",
          "type": "address"
        },
        {
          "name": "srcAmount",
          "type": "uint256"
        },
        {
          "name": "usePermissionless",
          "type": "bool"
        }
      ],
      "name": "searchBestRate",
      "outputs": [
        {
          "name": "",
          "type": "address"
        },
        {
          "name": "",
          "type": "uint256"
        }
      ],
      "payable": false,
      "stateMutability": "view",
      "type": "function"
    },
    {
      "constant": true,
      "inputs": [
        {
          "name": "",
          "type": "bytes32"
        }
      ],
      "name": "infoFields",
      "outputs": [
        {
          "name": "",
          "type": "uint256"
        }
      ],
      "payable": false,
      "stateMutability": "view",
      "type": "function"
    },
    {
      "constant": false,
      "inputs": [
        {
          "name": "feeBurner",
          "type": "address"
        }
      ],
      "name": "setFeeBurner",
      "outputs": [],
      "payable": false,
      "stateMutability": "nonpayable",
      "type": "function"
    },
    {
      "constant": true,
      "inputs": [
        {
          "name": "src",
          "type": "address"
        },
        {
          "name": "dest",
          "type": "address"
        },
        {
          "name": "srcAmount",
          "type": "uint256"
        }
      ],
      "name": "findBestRateOnlyPermission",
      "outputs": [
        {
          "name": "obsolete",
          "type": "uint256"
        },
        {
          "name": "rate",
          "type": "uint256"
        }
      ],
      "payable": false,
      "stateMutability": "view",
      "type": "function"
    },
    {
      "constant": true,
      "inputs": [],
      "name": "enabled",
      "outputs": [
        {
          "name": "",
          "type": "bool"
        }
      ],
      "payable": false,
      "stateMutability": "view",
      "type": "function"
    },
    {
      "constant": false,
      "inputs": [
        {
          "name": "reserve",
          "type": "address"
        },
        {
          "name": "index",
          "type": "uint256"
        }
      ],
      "name": "removeReserve",
      "outputs": [
        {
          "name": "",
          "type": "bool"
        }
      ],
      "payable": false,
      "stateMutability": "nonpayable",
      "type": "function"
    },
    {
      "constant": true,
      "inputs": [],
      "name": "pendingAdmin",
      "outputs": [
        {
          "name": "",
          "type": "address"
        }
      ],
      "payable": false,
      "stateMutability": "view",
      "type": "function"
    },
    {
      "constant": true,
      "inputs": [],
      "name": "getOperators",
      "outputs": [
        {
          "name": "",
          "type": "address[]"
        }
      ],
      "payable": false,
      "stateMutability": "view",
      "type": "function"
    },
    {
      "constant": true,
      "inputs": [
        {
          "name": "",
          "type": "address"
        },
        {
          "name": "",
          "type": "uint256"
        }
      ],
      "name": "reservesPerTokenSrc",
      "outputs": [
        {
          "name": "",
          "type": "address"
        }
      ],
      "payable": false,
      "stateMutability": "view",
      "type": "function"
    },
    {
      "constant": false,
      "inputs": [
        {
          "name": "whiteList",
          "type": "address"
        }
      ],
      "name": "setWhiteList",
      "outputs": [],
      "payable": false,
      "stateMutability": "nonpayable",
      "type": "function"
    },
    {
      "constant": false,
      "inputs": [
        {
          "name": "token",
          "type": "address"
        },
        {
          "name": "amount",
          "type": "uint256"
        },
        {
          "name": "sendTo",
          "type": "address"
        }
      ],
      "name": "withdrawToken",
      "outputs": [],
      "payable": false,
      "stateMutability": "nonpayable",
      "type": "function"
    },
    {
      "constant": true,
      "inputs": [],
      "name": "maxGasPrice",
      "outputs": [
        {
          "name": "",
          "type": "uint256"
        }
      ],
      "payable": false,
      "stateMutability": "view",
      "type": "function"
    },
    {
      "constant": false,
      "inputs": [
        {
          "name": "newAlerter",
          "type": "address"
        }
      ],
      "name": "addAlerter",
      "outputs": [],
      "payable": false,
      "stateMutability": "nonpayable",
      "type": "function"
    },
    {
      "constant": true,
      "inputs": [],
      "name": "negligibleRateDiff",
      "outputs": [
        {
          "name": "",
          "type": "uint256"
        }
      ],
      "payable": false,
      "stateMutability": "view",
      "type": "function"
    },
    {
      "constant": true,
      "inputs": [],
      "name": "feeBurnerContract",
      "outputs": [
        {
          "name": "",
          "type": "address"
        }
      ],
      "payable": false,
      "stateMutability": "view",
      "type": "function"
    },
    {
      "constant": false,
      "inputs": [
        {
          "name": "expectedRate",
          "type": "address"
        }
      ],
      "name": "setExpectedRate",
      "outputs": [],
      "payable": false,
      "stateMutability": "nonpayable",
      "type": "function"
    },
    {
      "constant": true,
      "inputs": [],
      "name": "expectedRateContract",
      "outputs": [
        {
          "name": "",
          "type": "address"
        }
      ],
      "payable": false,
      "stateMutability": "view",
      "type": "function"
    },
    {
      "constant": true,
      "inputs": [],
      "name": "whiteListContract",
      "outputs": [
        {
          "name": "",
          "type": "address"
        }
      ],
      "payable": false,
      "stateMutability": "view",
      "type": "function"
    },
    {
      "constant": false,
      "inputs": [
        {
          "name": "field",
          "type": "bytes32"
        },
        {
          "name": "value",
          "type": "uint256"
        }
      ],
      "name": "setInfo",
      "outputs": [],
      "payable": false,
      "stateMutability": "nonpayable",
      "type": "function"
    },
    {
      "constant": true,
      "inputs": [
        {
          "name": "user",
          "type": "address"
        }
      ],
      "name": "getUserCapInWei",
      "outputs": [
        {
          "name": "",
          "type": "uint256"
        }
      ],
      "payable": false,
      "stateMutability": "view",
      "type": "function"
    },
    {
      "constant": true,
      "inputs": [],
      "name": "isEnabled",
      "outputs": [
        {
          "name": "",
          "type": "bool"
        }
      ],
      "payable": false,
      "stateMutability": "view",
      "type": "function"
    },
    {
      "constant": true,
      "inputs": [
        {
          "name": "",
          "type": "address"
        }
      ],
      "name": "reserveType",
      "outputs": [
        {
          "name": "",
          "type": "uint8"
        }
      ],
      "payable": false,
      "stateMutability": "view",
      "type": "function"
    },
    {
      "constant": false,
      "inputs": [
        {
          "name": "newAdmin",
          "type": "address"
        }
      ],
      "name": "transferAdmin",
      "outputs": [],
      "payable": false,
      "stateMutability": "nonpayable",
      "type": "function"
    },
    {
      "constant": false,
      "inputs": [
        {
          "name": "_enable",
          "type": "bool"
        }
      ],
      "name": "setEnable",
      "outputs": [],
      "payable": false,
      "stateMutability": "nonpayable",
      "type": "function"
    },
    {
      "constant": false,
      "inputs": [],
      "name": "claimAdmin",
      "outputs": [],
      "payable": false,
      "stateMutability": "nonpayable",
      "type": "function"
    },
    {
      "constant": true,
      "inputs": [],
      "name": "kyberNetworkProxyContract",
      "outputs": [
        {
          "name": "",
          "type": "address"
        }
      ],
      "payable": false,
      "stateMutability": "view",
      "type": "function"
    },
    {
      "constant": false,
      "inputs": [
        {
          "name": "newAdmin",
          "type": "address"
        }
      ],
      "name": "transferAdminQuickly",
      "outputs": [],
      "payable": false,
      "stateMutability": "nonpayable",
      "type": "function"
    },
    {
      "constant": true,
      "inputs": [],
      "name": "getAlerters",
      "outputs": [
        {
          "name": "",
          "type": "address[]"
        }
      ],
      "payable": false,
      "stateMutability": "view",
      "type": "function"
    },
    {
      "constant": true,
      "inputs": [
        {
          "name": "src",
          "type": "address"
        },
        {
          "name": "dest",
          "type": "address"
        },
        {
          "name": "srcQty",
          "type": "uint256"
        }
      ],
      "name": "getExpectedRate",
      "outputs": [
        {
          "name": "expectedRate",
          "type": "uint256"
        },
        {
          "name": "slippageRate",
          "type": "uint256"
        }
      ],
      "payable": false,
      "stateMutability": "view",
      "type": "function"
    },
    {
      "constant": true,
      "inputs": [
        {
          "name": "",
          "type": "uint256"
        }
      ],
      "name": "reserves",
      "outputs": [
        {
          "name": "",
          "type": "address"
        }
      ],
      "payable": false,
      "stateMutability": "view",
      "type": "function"
    },
    {
      "constant": true,
      "inputs": [
        {
          "name": "src",
          "type": "address"
        },
        {
          "name": "dest",
          "type": "address"
        },
        {
          "name": "srcQty",
          "type": "uint256"
        }
      ],
      "name": "getExpectedRateOnlyPermission",
      "outputs": [
        {
          "name": "expectedRate",
          "type": "uint256"
        },
        {
          "name": "slippageRate",
          "type": "uint256"
        }
      ],
      "payable": false,
      "stateMutability": "view",
      "type": "function"
    },
    {
      "constant": true,
      "inputs": [],
      "name": "PERM_HINT",
      "outputs": [
        {
          "name": "",
          "type": "bytes"
        }
      ],
      "payable": false,
      "stateMutability": "view",
      "type": "function"
    },
    {
      "constant": true,
      "inputs": [
        {
          "name": "user",
          "type": "address"
        },
        {
          "name": "token",
          "type": "address"
        }
      ],
      "name": "getUserCapInTokenWei",
      "outputs": [
        {
          "name": "",
          "type": "uint256"
        }
      ],
      "payable": false,
      "stateMutability": "view",
      "type": "function"
    },
    {
      "constant": true,
      "inputs": [
        {
          "name": "",
          "type": "address"
        },
        {
          "name": "",
          "type": "uint256"
        }
      ],
      "name": "reservesPerTokenDest",
      "outputs": [
        {
          "name": "",
          "type": "address"
        }
      ],
      "payable": false,
      "stateMutability": "view",
      "type": "function"
    },
    {
      "constant": false,
      "inputs": [
        {
          "name": "newOperator",
          "type": "address"
        }
      ],
      "name": "addOperator",
      "outputs": [],
      "payable": false,
      "stateMutability": "nonpayable",
      "type": "function"
    },
    {
      "constant": false,
      "inputs": [
        {
          "name": "reserve",
          "type": "address"
        },
        {
          "name": "isPermissionless",
          "type": "bool"
        }
      ],
      "name": "addReserve",
      "outputs": [
        {
          "name": "",
          "type": "bool"
        }
      ],
      "payable": false,
      "stateMutability": "nonpayable",
      "type": "function"
    },
    {
      "constant": false,
      "inputs": [
        {
          "name": "operator",
          "type": "address"
        }
      ],
      "name": "removeOperator",
      "outputs": [],
      "payable": false,
      "stateMutability": "nonpayable",
      "type": "function"
    },
    {
      "constant": true,
      "inputs": [],
      "name": "maxGasPriceValue",
      "outputs": [
        {
          "name": "",
          "type": "uint256"
        }
      ],
      "payable": false,
      "stateMutability": "view",
      "type": "function"
    },
    {
      "constant": true,
      "inputs": [
        {
          "name": "field",
          "type": "bytes32"
        }
      ],
      "name": "info",
      "outputs": [
        {
          "name": "",
          "type": "uint256"
        }
      ],
      "payable": false,
      "stateMutability": "view",
      "type": "function"
    },
    {
      "constant": true,
      "inputs": [
        {
          "name": "src",
          "type": "address"
        },
        {
          "name": "dest",
          "type": "address"
        },
        {
          "name": "srcAmount",
          "type": "uint256"
        }
      ],
      "name": "findBestRate",
      "outputs": [
        {
          "name": "obsolete",
          "type": "uint256"
        },
        {
          "name": "rate",
          "type": "uint256"
        }
      ],
      "payable": false,
      "stateMutability": "view",
      "type": "function"
    },
    {
      "constant": false,
      "inputs": [
        {
          "name": "_maxGasPrice",
          "type": "uint256"
        },
        {
          "name": "_negligibleRateDiff",
          "type": "uint256"
        }
      ],
      "name": "setParams",
      "outputs": [],
      "payable": false,
      "stateMutability": "nonpayable",
      "type": "function"
    },
    {
      "constant": true,
      "inputs": [],
      "name": "PERM_HINT_GET_RATE",
      "outputs": [
        {
          "name": "",
          "type": "uint256"
        }
      ],
      "payable": false,
      "stateMutability": "view",
      "type": "function"
    },
    {
      "constant": false,
      "inputs": [
        {
          "name": "networkProxy",
          "type": "address"
        }
      ],
      "name": "setKyberProxy",
      "outputs": [],
      "payable": false,
      "stateMutability": "nonpayable",
      "type": "function"
    },
    {
      "constant": false,
      "inputs": [
        {
          "name": "amount",
          "type": "uint256"
        },
        {
          "name": "sendTo",
          "type": "address"
        }
      ],
      "name": "withdrawEther",
      "outputs": [],
      "payable": false,
      "stateMutability": "nonpayable",
      "type": "function"
    },
    {
      "constant": true,
      "inputs": [],
      "name": "getNumReserves",
      "outputs": [
        {
          "name": "",
          "type": "uint256"
        }
      ],
      "payable": false,
      "stateMutability": "view",
      "type": "function"
    },
    {
      "constant": true,
      "inputs": [
        {
          "name": "token",
          "type": "address"
        },
        {
          "name": "user",
          "type": "address"
        }
      ],
      "name": "getBalance",
      "outputs": [
        {
          "name": "",
          "type": "uint256"
        }
      ],
      "payable": false,
      "stateMutability": "view",
      "type": "function"
    },
    {
      "constant": false,
      "inputs": [
        {
          "name": "reserve",
          "type": "address"
        },
        {
          "name": "token",
          "type": "address"
        },
        {
          "name": "ethToToken",
          "type": "bool"
        },
        {
          "name": "tokenToEth",
          "type": "bool"
        },
        {
          "name": "add",
          "type": "bool"
        }
      ],
      "name": "listPairForReserve",
      "outputs": [
        {
          "name": "",
          "type": "bool"
        }
      ],
      "payable": false,
      "stateMutability": "nonpayable",
      "type": "function"
    },
    {
      "constant": true,
      "inputs": [],
      "name": "admin",
      "outputs": [
        {
          "name": "",
          "type": "address"
        }
      ],
      "payable": false,
      "stateMutability": "view",
      "type": "function"
    },
    {
      "inputs": [
        {
          "name": "_admin",
          "type": "address"
        }
      ],
      "payable": false,
      "stateMutability": "nonpayable",
      "type": "constructor"
    },
    {
      "payable": true,
      "stateMutability": "payable",
      "type": "fallback"
    },
    {
      "anonymous": false,
      "inputs": [
        {
          "indexed": false,
          "name": "which",
          "type": "int256"
        },
        {
          "indexed": false,
          "name": "more",
          "type": "int256"
        },
        {
          "indexed": false,
          "name": "token",
          "type": "address"
        }
      ],
      "name": "GenerousTrade",
      "type": "event"
    },
    {
      "anonymous": false,
      "inputs": [
        {
          "indexed": true,
          "name": "sender",
          "type": "address"
        },
        {
          "indexed": false,
          "name": "amount",
          "type": "uint256"
        }
      ],
      "name": "EtherReceival",
      "type": "event"
    },
    {
      "anonymous": false,
      "inputs": [
        {
          "indexed": true,
          "name": "reserve",
          "type": "address"
        },
        {
          "indexed": false,
          "name": "add",
          "type": "bool"
        },
        {
          "indexed": false,
          "name": "isPermissionless",
          "type": "bool"
        }
      ],
      "name": "AddReserveToNetwork",
      "type": "event"
    },
    {
      "anonymous": false,
      "inputs": [
        {
          "indexed": false,
          "name": "reserve",
          "type": "address"
        }
      ],
      "name": "RemoveReserveFromNetwork",
      "type": "event"
    },
    {
      "anonymous": false,
      "inputs": [
        {
          "indexed": true,
          "name": "reserve",
          "type": "address"
        },
        {
          "indexed": false,
          "name": "src",
          "type": "address"
        },
        {
          "indexed": false,
          "name": "dest",
          "type": "address"
        },
        {
          "indexed": false,
          "name": "add",
          "type": "bool"
        }
      ],
      "name": "ListReservePairs",
      "type": "event"
    },
    {
      "anonymous": false,
      "inputs": [
        {
          "indexed": false,
          "name": "newContract",
          "type": "address"
        },
        {
          "indexed": false,
          "name": "currentContract",
          "type": "address"
        }
      ],
      "name": "WhiteListContractSet",
      "type": "event"
    },
    {
      "anonymous": false,
      "inputs": [
        {
          "indexed": false,
          "name": "newContract",
          "type": "address"
        },
        {
          "indexed": false,
          "name": "currentContract",
          "type": "address"
        }
      ],
      "name": "ExpectedRateContractSet",
      "type": "event"
    },
    {
      "anonymous": false,
      "inputs": [
        {
          "indexed": false,
          "name": "newContract",
          "type": "address"
        },
        {
          "indexed": false,
          "name": "currentContract",
          "type": "address"
        }
      ],
      "name": "FeeBurnerContractSet",
      "type": "event"
    },
    {
      "anonymous": false,
      "inputs": [
        {
          "indexed": false,
          "name": "maxGasPrice",
          "type": "uint256"
        },
        {
          "indexed": false,
          "name": "negligibleRateDiff",
          "type": "uint256"
        }
      ],
      "name": "KyberNetwrokParamsSet",
      "type": "event"
    },
    {
      "anonymous": false,
      "inputs": [
        {
          "indexed": false,
          "name": "isEnabled",
          "type": "bool"
        }
      ],
      "name": "KyberNetworkSetEnable",
      "type": "event"
    },
    {
      "anonymous": false,
      "inputs": [
        {
          "indexed": false,
          "name": "proxy",
          "type": "address"
        },
        {
          "indexed": false,
          "name": "sender",
          "type": "address"
        }
      ],
      "name": "KyberProxySet",
      "type": "event"
    },
    {
      "anonymous": false,
      "inputs": [
        {
          "indexed": true,
          "name": "trader",
          "type": "address"
        },
        {
          "indexed": false,
          "name": "src",
          "type": "address"
        },
        {
          "indexed": false,
          "name": "dest",
          "type": "address"
        },
        {
          "indexed": false,
          "name": "srcAmount",
          "type": "uint256"
        },
        {
          "indexed": false,
          "name": "dstAmount",
          "type": "uint256"
        },
        {
          "indexed": false,
          "name": "destAddress",
          "type": "address"
        },
        {
          "indexed": false,
          "name": "ethWeiValue",
          "type": "uint256"
        },
        {
          "indexed": false,
          "name": "reserve1",
          "type": "address"
        },
        {
          "indexed": false,
          "name": "reserve2",
          "type": "address"
        },
        {
          "indexed": false,
          "name": "hint",
          "type": "bytes"
        }
      ],
      "name": "KyberTrade",
      "type": "event"
    },
    {
      "anonymous": false,
      "inputs": [
        {
          "indexed": false,
          "name": "token",
          "type": "address"
        },
        {
          "indexed": false,
          "name": "amount",
          "type": "uint256"
        },
        {
          "indexed": false,
          "name": "sendTo",
          "type": "address"
        }
      ],
      "name": "TokenWithdraw",
      "type": "event"
    },
    {
      "anonymous": false,
      "inputs": [
        {
          "indexed": false,
          "name": "amount",
          "type": "uint256"
        },
        {
          "indexed": false,
          "name": "sendTo",
          "type": "address"
        }
      ],
      "name": "EtherWithdraw",
      "type": "event"
    },
    {
      "anonymous": false,
      "inputs": [
        {
          "indexed": false,
          "name": "pendingAdmin",
          "type": "address"
        }
      ],
      "name": "TransferAdminPending",
      "type": "event"
    },
    {
      "anonymous": false,
      "inputs": [
        {
          "indexed": false,
          "name": "newAdmin",
          "type": "address"
        },
        {
          "indexed": false,
          "name": "previousAdmin",
          "type": "address"
        }
      ],
      "name": "AdminClaimed",
      "type": "event"
    },
    {
      "anonymous": false,
      "inputs": [
        {
          "indexed": false,
          "name": "newAlerter",
          "type": "address"
        },
        {
          "indexed": false,
          "name": "isAdd",
          "type": "bool"
        }
      ],
      "name": "AlerterAdded",
      "type": "event"
    },
    {
      "anonymous": false,
      "inputs": [
        {
          "indexed": false,
          "name": "newOperator",
          "type": "address"
        },
        {
          "indexed": false,
          "name": "isAdd",
          "type": "bool"
        }
      ],
      "name": "OperatorAdded",
      "type": "event"
    }
  ],
  "bytecode": "0x60606040526001600755600a600855640ba43b7400600f556000601060006101000a81548160ff02191690831515021790555034156200003e57600080fd5b6040516020806200647f8339810160405280805190602001909190505080336000806101000a81548173ffffffffffffffffffffffffffffffffffffffff021916908373ffffffffffffffffffffffffffffffffffffffff160217905550600073ffffffffffffffffffffffffffffffffffffffff168173ffffffffffffffffffffffffffffffffffffffff1614151515620000d957600080fd5b806000806101000a81548173ffffffffffffffffffffffffffffffffffffffff021916908373ffffffffffffffffffffffffffffffffffffffff1602179055505050616354806200012b6000396000f300606060405260043610610267576000357c0100000000000000000000000000000000000000000000000000000000900463ffffffff16806301a12fd314610329578063088322ef146103625780630902f1ac1461047e5780630c235d96146104e85780631610b59b1461059b5780631a79464e146105d65780631dc1f78d1461060f578063238dafe01461068b578063249715b3146106b8578063267822471461071257806327a099d8146107675780632ab8fc2d146107d157806339e899ee146108535780633ccdbb281461088c5780633de39c11146108ed578063408ee7fe146109165780634cef5a5c1461094f578063579425b7146109785780635d270cdc146109cd5780635dada96414610a065780635ed5ea2814610a5b5780635f65d70314610ab05780636432679f14610ae05780636aa633b614610b2d578063749f95bf14610b5a57806375829def14610bb55780637726bed314610bee57806377f50f9714610c13578063785250da14610c285780637acc867814610c7d5780637c423f5414610cb6578063809a9e5514610d205780638334278d14610d9c57806385dc0c5614610dff5780638b98a2c514610e7b5780638eaaeecf14610f09578063937e909b14610f755780639870d7fe14610ff7578063a0d7bb1b14611030578063ac8a584a1461108c578063b2d111f6146110c5578063b64a097e146110ee578063b8388aca14611129578063c0324c77146111a5578063c0919ac6146111d1578063c6c3f3f9146111fa578063ce56c45414611233578063cfff25bb14611275578063d4fac45d1461129e578063e02584bf1461130a578063f851a4401461139b575b6000600281111561027457fe5b600a60003373ffffffffffffffffffffffffffffffffffffffff1673ffffffffffffffffffffffffffffffffffffffff16815260200190815260200160002060009054906101000a900460ff1660028111156102cc57fe5b141515156102d957600080fd5b3373ffffffffffffffffffffffffffffffffffffffff167f75f33ed68675112c77094e7c5b073890598be1d23e27cd7f6907b4a7d98ac619346040518082815260200191505060405180910390a2005b341561033457600080fd5b610360600480803573ffffffffffffffffffffffffffffffffffffffff169060200190919050506113f0565b005b610468600480803573ffffffffffffffffffffffffffffffffffffffff1690602001909190803573ffffffffffffffffffffffffffffffffffffffff1690602001909190803590602001909190803573ffffffffffffffffffffffffffffffffffffffff1690602001909190803573ffffffffffffffffffffffffffffffffffffffff1690602001909190803590602001909190803590602001909190803573ffffffffffffffffffffffffffffffffffffffff1690602001909190803590602001908201803590602001908080601f016020809104026020016040519081016040528093929190818152602001838380828437820191505050505050919050506116b2565b6040518082815260200191505060405180910390f35b341561048957600080fd5b6104916118b6565b6040518080602001828103825283818151815260200191508051906020019060200280838360005b838110156104d45780820151818401526020810190506104b9565b505050509050019250505060405180910390f35b34156104f357600080fd5b610552600480803573ffffffffffffffffffffffffffffffffffffffff1690602001909190803573ffffffffffffffffffffffffffffffffffffffff16906020019091908035906020019091908035151590602001909190505061194a565b604051808373ffffffffffffffffffffffffffffffffffffffff1673ffffffffffffffffffffffffffffffffffffffff1681526020018281526020019250505060405180910390f35b34156105a657600080fd5b6105c0600480803560001916906020019091905050611f21565b6040518082815260200191505060405180910390f35b34156105e157600080fd5b61060d600480803573ffffffffffffffffffffffffffffffffffffffff16906020019091905050611f39565b005b341561061a57600080fd5b61066e600480803573ffffffffffffffffffffffffffffffffffffffff1690602001909190803573ffffffffffffffffffffffffffffffffffffffff169060200190919080359060200190919050506120cd565b604051808381526020018281526020019250505060405180910390f35b341561069657600080fd5b61069e612132565b604051808215151515815260200191505060405180910390f35b34156106c357600080fd5b6106f8600480803573ffffffffffffffffffffffffffffffffffffffff16906020019091908035906020019091905050612149565b604051808215151515815260200191505060405180910390f35b341561071d57600080fd5b610725612408565b604051808273ffffffffffffffffffffffffffffffffffffffff1673ffffffffffffffffffffffffffffffffffffffff16815260200191505060405180910390f35b341561077257600080fd5b61077a61242e565b6040518080602001828103825283818151815260200191508051906020019060200280838360005b838110156107bd5780820151818401526020810190506107a2565b505050509050019250505060405180910390f35b34156107dc57600080fd5b610811600480803573ffffffffffffffffffffffffffffffffffffffff169060200190919080359060200190919050506124c2565b604051808273ffffffffffffffffffffffffffffffffffffffff1673ffffffffffffffffffffffffffffffffffffffff16815260200191505060405180910390f35b341561085e57600080fd5b61088a600480803573ffffffffffffffffffffffffffffffffffffffff16906020019091905050612510565b005b341561089757600080fd5b6108eb600480803573ffffffffffffffffffffffffffffffffffffffff1690602001909190803590602001909190803573ffffffffffffffffffffffffffffffffffffffff16906020019091905050612668565b005b34156108f857600080fd5b610900612838565b6040518082815260200191505060405180910390f35b341561092157600080fd5b61094d600480803573ffffffffffffffffffffffffffffffffffffffff16906020019091905050612842565b005b341561095a57600080fd5b610962612a38565b6040518082815260200191505060405180910390f35b341561098357600080fd5b61098b612a3e565b604051808273ffffffffffffffffffffffffffffffffffffffff1673ffffffffffffffffffffffffffffffffffffffff16815260200191505060405180910390f35b34156109d857600080fd5b610a04600480803573ffffffffffffffffffffffffffffffffffffffff16906020019091905050612a64565b005b3415610a1157600080fd5b610a19612bf8565b604051808273ffffffffffffffffffffffffffffffffffffffff1673ffffffffffffffffffffffffffffffffffffffff16815260200191505060405180910390f35b3415610a6657600080fd5b610a6e612c1e565b604051808273ffffffffffffffffffffffffffffffffffffffff1673ffffffffffffffffffffffffffffffffffffffff16815260200191505060405180910390f35b3415610abb57600080fd5b610ade600480803560001916906020019091908035906020019091905050612c44565b005b3415610aeb57600080fd5b610b17600480803573ffffffffffffffffffffffffffffffffffffffff16906020019091905050612cc0565b6040518082815260200191505060405180910390f35b3415610b3857600080fd5b610b40612e28565b604051808215151515815260200191505060405180910390f35b3415610b6557600080fd5b610b91600480803573ffffffffffffffffffffffffffffffffffffffff16906020019091905050612e3b565b60405180826002811115610ba157fe5b60ff16815260200191505060405180910390f35b3415610bc057600080fd5b610bec600480803573ffffffffffffffffffffffffffffffffffffffff16906020019091905050612e5b565b005b3415610bf957600080fd5b610c1160048080351515906020019091905050612fbb565b005b3415610c1e57600080fd5b610c2661319e565b005b3415610c3357600080fd5b610c3b61337a565b604051808273ffffffffffffffffffffffffffffffffffffffff1673ffffffffffffffffffffffffffffffffffffffff16815260200191505060405180910390f35b3415610c8857600080fd5b610cb4600480803573ffffffffffffffffffffffffffffffffffffffff169060200190919050506133a0565b005b3415610cc157600080fd5b610cc9613595565b6040518080602001828103825283818151815260200191508051906020019060200280838360005b83811015610d0c578082015181840152602081019050610cf1565b505050509050019250505060405180910390f35b3415610d2b57600080fd5b610d7f600480803573ffffffffffffffffffffffffffffffffffffffff1690602001909190803573ffffffffffffffffffffffffffffffffffffffff16906020019091908035906020019091905050613629565b604051808381526020018281526020019250505060405180910390f35b3415610da757600080fd5b610dbd600480803590602001909190505061381f565b604051808273ffffffffffffffffffffffffffffffffffffffff1673ffffffffffffffffffffffffffffffffffffffff16815260200191505060405180910390f35b3415610e0a57600080fd5b610e5e600480803573ffffffffffffffffffffffffffffffffffffffff1690602001909190803573ffffffffffffffffffffffffffffffffffffffff1690602001909190803590602001909190505061385e565b604051808381526020018281526020019250505060405180910390f35b3415610e8657600080fd5b610e8e6139f8565b6040518080602001828103825283818151815260200191508051906020019080838360005b83811015610ece578082015181840152602081019050610eb3565b50505050905090810190601f168015610efb5780820380516001836020036101000a031916815260200191505b509250505060405180910390f35b3415610f1457600080fd5b610f5f600480803573ffffffffffffffffffffffffffffffffffffffff1690602001909190803573ffffffffffffffffffffffffffffffffffffffff16906020019091905050613a31565b6040518082815260200191505060405180910390f35b3415610f8057600080fd5b610fb5600480803573ffffffffffffffffffffffffffffffffffffffff16906020019091908035906020019091905050613a45565b604051808273ffffffffffffffffffffffffffffffffffffffff1673ffffffffffffffffffffffffffffffffffffffff16815260200191505060405180910390f35b341561100257600080fd5b61102e600480803573ffffffffffffffffffffffffffffffffffffffff16906020019091905050613a93565b005b341561103b57600080fd5b611072600480803573ffffffffffffffffffffffffffffffffffffffff169060200190919080351515906020019091905050613c89565b604051808215151515815260200191505060405180910390f35b341561109757600080fd5b6110c3600480803573ffffffffffffffffffffffffffffffffffffffff16906020019091905050613e8e565b005b34156110d057600080fd5b6110d8614153565b6040518082815260200191505060405180910390f35b34156110f957600080fd5b611113600480803560001916906020019091905050614159565b6040518082815260200191505060405180910390f35b341561113457600080fd5b611188600480803573ffffffffffffffffffffffffffffffffffffffff1690602001909190803573ffffffffffffffffffffffffffffffffffffffff1690602001909190803590602001909190505061417e565b604051808381526020018281526020019250505060405180910390f35b34156111b057600080fd5b6111cf60048080359060200190919080359060200190919050506141be565b005b34156111dc57600080fd5b6111e461427f565b6040518082815260200191505060405180910390f35b341561120557600080fd5b611231600480803573ffffffffffffffffffffffffffffffffffffffff169060200190919050506142a3565b005b341561123e57600080fd5b611273600480803590602001909190803573ffffffffffffffffffffffffffffffffffffffff16906020019091905050614437565b005b341561128057600080fd5b611288614541565b6040518082815260200191505060405180910390f35b34156112a957600080fd5b6112f4600480803573ffffffffffffffffffffffffffffffffffffffff1690602001909190803573ffffffffffffffffffffffffffffffffffffffff1690602001909190505061454e565b6040518082815260200191505060405180910390f35b341561131557600080fd5b611381600480803573ffffffffffffffffffffffffffffffffffffffff1690602001909190803573ffffffffffffffffffffffffffffffffffffffff1690602001909190803515159060200190919080351515906020019091908035151590602001909190505061467e565b604051808215151515815260200191505060405180910390f35b34156113a657600080fd5b6113ae614af2565b604051808273ffffffffffffffffffffffffffffffffffffffff1673ffffffffffffffffffffffffffffffffffffffff16815260200191505060405180910390f35b60008060009054906101000a900473ffffffffffffffffffffffffffffffffffffffff1673ffffffffffffffffffffffffffffffffffffffff163373ffffffffffffffffffffffffffffffffffffffff1614151561144d57600080fd5b600360008373ffffffffffffffffffffffffffffffffffffffff1673ffffffffffffffffffffffffffffffffffffffff16815260200190815260200160002060009054906101000a900460ff1615156114a557600080fd5b6000600360008473ffffffffffffffffffffffffffffffffffffffff1673ffffffffffffffffffffffffffffffffffffffff16815260200190815260200160002060006101000a81548160ff021916908315150217905550600090505b6005805490508110156116ae578173ffffffffffffffffffffffffffffffffffffffff1660058281548110151561153557fe5b906000526020600020900160009054906101000a900473ffffffffffffffffffffffffffffffffffffffff1673ffffffffffffffffffffffffffffffffffffffff1614156116a357600560016005805490500381548110151561159457fe5b906000526020600020900160009054906101000a900473ffffffffffffffffffffffffffffffffffffffff166005828154811015156115cf57fe5b906000526020600020900160006101000a81548173ffffffffffffffffffffffffffffffffffffffff021916908373ffffffffffffffffffffffffffffffffffffffff160217905550600580548091906001900361162d91906160d8565b507f5611bf3e417d124f97bf2c788843ea8bb502b66079fbee02158ef30b172cb762826000604051808373ffffffffffffffffffffffffffffffffffffffff1673ffffffffffffffffffffffffffffffffffffffff168152602001821515151581526020019250505060405180910390a16116ae565b806001019050611502565b5050565b60006116bc616104565b600060016007600082825401925050819055506007549050600e60009054906101000a900473ffffffffffffffffffffffffffffffffffffffff1673ffffffffffffffffffffffffffffffffffffffff163373ffffffffffffffffffffffffffffffffffffffff1614151561173057600080fd5b600084511480611741575060048451145b151561174c57600080fd5b8b826000019073ffffffffffffffffffffffffffffffffffffffff16908173ffffffffffffffffffffffffffffffffffffffff16815250508a826020019073ffffffffffffffffffffffffffffffffffffffff16908173ffffffffffffffffffffffffffffffffffffffff16815250508982604001818152505088826060019073ffffffffffffffffffffffffffffffffffffffff16908173ffffffffffffffffffffffffffffffffffffffff168152505087826080019073ffffffffffffffffffffffffffffffffffffffff16908173ffffffffffffffffffffffffffffffffffffffff1681525050868260a0018181525050858260c0018181525050848260e0019073ffffffffffffffffffffffffffffffffffffffff16908173ffffffffffffffffffffffffffffffffffffffff16815250508382610100018190525061189582614b17565b9250600754811415156118a757600080fd5b50509998505050505050505050565b6118be6161c5565b600980548060200260200160405190810160405280929190818152602001828054801561194057602002820191906000526020600020905b8160009054906101000a900473ffffffffffffffffffffffffffffffffffffffff1673ffffffffffffffffffffffffffffffffffffffff16815260200190600101908083116118f6575b5050505050905090565b600080600080600061195a6161d9565b6119626161ed565b61196a6161ed565b6000806000975060009650600095508c73ffffffffffffffffffffffffffffffffffffffff168e73ffffffffffffffffffffffffffffffffffffffff1614156119fd576009878154811015156119bc57fe5b906000526020600020900160009054906101000a900473ffffffffffffffffffffffffffffffffffffffff16670de0b6b3a764000081915099509950611f10565b73eeeeeeeeeeeeeeeeeeeeeeeeeeeeeeeeeeeeeeee73ffffffffffffffffffffffffffffffffffffffff168e73ffffffffffffffffffffffffffffffffffffffff1614611a8857601260008f73ffffffffffffffffffffffffffffffffffffffff1673ffffffffffffffffffffffffffffffffffffffff168152602001908152602001600020611ac8565b601360008e73ffffffffffffffffffffffffffffffffffffffff1673ffffffffffffffffffffffffffffffffffffffff1681526020019081526020016000205b805480602002602001604051908101604052809291908181526020018280548015611b4857602002820191906000526020600020905b8160009054906101000a900473ffffffffffffffffffffffffffffffffffffffff1673ffffffffffffffffffffffffffffffffffffffff1681526020019060010190808311611afe575b50505050509450600085511415611ba157600987815481101515611b6857fe5b906000526020600020900160009054906101000a900473ffffffffffffffffffffffffffffffffffffffff168881915099509950611f10565b8451604051805910611bb05750595b908082528060200260200182016040525093508451604051805910611bd25750595b90808252806020026020018201604052509250600091505b8451821015611e00578a158015611c795750600280811115611c0857fe5b600a60008785815181101515611c1a57fe5b9060200190602002015173ffffffffffffffffffffffffffffffffffffffff1673ffffffffffffffffffffffffffffffffffffffff16815260200190815260200160002060009054906101000a900460ff166002811115611c7757fe5b145b15611c8357611df3565b8482815181101515611c9157fe5b9060200190602002015173ffffffffffffffffffffffffffffffffffffffff16637cd442728f8f8f436000604051602001526040518563ffffffff167c0100000000000000000000000000000000000000000000000000000000028152600401808573ffffffffffffffffffffffffffffffffffffffff1673ffffffffffffffffffffffffffffffffffffffff1681526020018473ffffffffffffffffffffffffffffffffffffffff1673ffffffffffffffffffffffffffffffffffffffff168152602001838152602001828152602001945050505050602060405180830381600087803b1515611d8157600080fd5b6102c65a03f11515611d9257600080fd5b505050604051805190508483815181101515611daa57fe5b9060200190602002018181525050878483815181101515611dc757fe5b906020019060200201511115611df2578382815181101515611de557fe5b9060200190602002015197505b5b8180600101925050611bea565b6000881115611ef257600854612710016127108902811515611e1e57fe5b049050600091505b8451821015611e8057808483815181101515611e3e57fe5b90602001906020020151101515611e7357818387806001019850815181101515611e6457fe5b90602001906020020181815250505b8180600101925050611e26565b6001861115611ebb578286600143034060019004811515611e9d57fe5b06815181101515611eaa57fe5b906020019060200201519650611ed7565b826000815181101515611eca57fe5b9060200190602002015196505b8387815181101515611ee557fe5b9060200190602002015197505b8487815181101515611f0057fe5b9060200190602002015188995099505b505050505050505094509492505050565b60116020528060005260406000206000915090505481565b6000809054906101000a900473ffffffffffffffffffffffffffffffffffffffff1673ffffffffffffffffffffffffffffffffffffffff163373ffffffffffffffffffffffffffffffffffffffff16141515611f9457600080fd5b600073ffffffffffffffffffffffffffffffffffffffff168173ffffffffffffffffffffffffffffffffffffffff1614151515611fd057600080fd5b7f91251c8b04e3ed4b921776c3aced2ad433c3701257fc5666cb35239ec4df541181600d60009054906101000a900473ffffffffffffffffffffffffffffffffffffffff16604051808373ffffffffffffffffffffffffffffffffffffffff1673ffffffffffffffffffffffffffffffffffffffff1681526020018273ffffffffffffffffffffffffffffffffffffffff1673ffffffffffffffffffffffffffffffffffffffff1681526020019250505060405180910390a180600d60006101000a81548173ffffffffffffffffffffffffffffffffffffffff021916908373ffffffffffffffffffffffffffffffffffffffff16021790555050565b6000806120d8616201565b6121198686866040805190810160405280600481526020017f5045524d0000000000000000000000000000000000000000000000000000000081525061503b565b9050600081600001518191509250925050935093915050565b6000601060009054906101000a900460ff16905090565b6000600260003373ffffffffffffffffffffffffffffffffffffffff1673ffffffffffffffffffffffffffffffffffffffff16815260200190815260200160002060009054906101000a900460ff1615156121a357600080fd5b600060028111156121b057fe5b600a60008573ffffffffffffffffffffffffffffffffffffffff1673ffffffffffffffffffffffffffffffffffffffff16815260200190815260200160002060009054906101000a900460ff16600281111561220857fe5b1415151561221557600080fd5b8273ffffffffffffffffffffffffffffffffffffffff1660098381548110151561223b57fe5b906000526020600020900160009054906101000a900473ffffffffffffffffffffffffffffffffffffffff1673ffffffffffffffffffffffffffffffffffffffff1614151561228957600080fd5b6000600a60008573ffffffffffffffffffffffffffffffffffffffff1673ffffffffffffffffffffffffffffffffffffffff16815260200190815260200160002060006101000a81548160ff021916908360028111156122e557fe5b0217905550600960016009805490500381548110151561230157fe5b906000526020600020900160009054906101000a900473ffffffffffffffffffffffffffffffffffffffff1660098381548110151561233c57fe5b906000526020600020900160006101000a81548173ffffffffffffffffffffffffffffffffffffffff021916908373ffffffffffffffffffffffffffffffffffffffff160217905550600980548091906001900361239a919061626b565b507f861f07ab6bad95b71c362ed240dc0082c3d9bbfe75e7830be646ef0d61da311783604051808273ffffffffffffffffffffffffffffffffffffffff1673ffffffffffffffffffffffffffffffffffffffff16815260200191505060405180910390a16001905092915050565b600160009054906101000a900473ffffffffffffffffffffffffffffffffffffffff1681565b6124366161d9565b60048054806020026020016040519081016040528092919081815260200182805480156124b857602002820191906000526020600020905b8160009054906101000a900473ffffffffffffffffffffffffffffffffffffffff1673ffffffffffffffffffffffffffffffffffffffff168152602001906001019080831161246e575b5050505050905090565b6012602052816000526040600020818154811015156124dd57fe5b90600052602060002090016000915091509054906101000a900473ffffffffffffffffffffffffffffffffffffffff1681565b6000809054906101000a900473ffffffffffffffffffffffffffffffffffffffff1673ffffffffffffffffffffffffffffffffffffffff163373ffffffffffffffffffffffffffffffffffffffff1614151561256b57600080fd5b7f1eae61fde1a37f65af69f00b4269aa5fda423f684194d303865cba6c650b236681600b60009054906101000a900473ffffffffffffffffffffffffffffffffffffffff16604051808373ffffffffffffffffffffffffffffffffffffffff1673ffffffffffffffffffffffffffffffffffffffff1681526020018273ffffffffffffffffffffffffffffffffffffffff1673ffffffffffffffffffffffffffffffffffffffff1681526020019250505060405180910390a180600b60006101000a81548173ffffffffffffffffffffffffffffffffffffffff021916908373ffffffffffffffffffffffffffffffffffffffff16021790555050565b6000809054906101000a900473ffffffffffffffffffffffffffffffffffffffff1673ffffffffffffffffffffffffffffffffffffffff163373ffffffffffffffffffffffffffffffffffffffff161415156126c357600080fd5b8273ffffffffffffffffffffffffffffffffffffffff1663a9059cbb82846000604051602001526040518363ffffffff167c0100000000000000000000000000000000000000000000000000000000028152600401808373ffffffffffffffffffffffffffffffffffffffff1673ffffffffffffffffffffffffffffffffffffffff16815260200182815260200192505050602060405180830381600087803b151561276e57600080fd5b6102c65a03f1151561277f57600080fd5b50505060405180519050151561279457600080fd5b7f72cb8a894ddb372ceec3d2a7648d86f17d5a15caae0e986c53109b8a9a9385e6838383604051808473ffffffffffffffffffffffffffffffffffffffff1673ffffffffffffffffffffffffffffffffffffffff1681526020018381526020018273ffffffffffffffffffffffffffffffffffffffff1673ffffffffffffffffffffffffffffffffffffffff168152602001935050505060405180910390a1505050565b6000600f54905090565b6000809054906101000a900473ffffffffffffffffffffffffffffffffffffffff1673ffffffffffffffffffffffffffffffffffffffff163373ffffffffffffffffffffffffffffffffffffffff1614151561289d57600080fd5b600360008273ffffffffffffffffffffffffffffffffffffffff1673ffffffffffffffffffffffffffffffffffffffff16815260200190815260200160002060009054906101000a900460ff161515156128f657600080fd5b603260058054905010151561290a57600080fd5b7f5611bf3e417d124f97bf2c788843ea8bb502b66079fbee02158ef30b172cb762816001604051808373ffffffffffffffffffffffffffffffffffffffff1673ffffffffffffffffffffffffffffffffffffffff168152602001821515151581526020019250505060405180910390a16001600360008373ffffffffffffffffffffffffffffffffffffffff1673ffffffffffffffffffffffffffffffffffffffff16815260200190815260200160002060006101000a81548160ff021916908315150217905550600580548060010182816129e69190616297565b9160005260206000209001600083909190916101000a81548173ffffffffffffffffffffffffffffffffffffffff021916908373ffffffffffffffffffffffffffffffffffffffff1602179055505050565b60085481565b600d60009054906101000a900473ffffffffffffffffffffffffffffffffffffffff1681565b6000809054906101000a900473ffffffffffffffffffffffffffffffffffffffff1673ffffffffffffffffffffffffffffffffffffffff163373ffffffffffffffffffffffffffffffffffffffff16141515612abf57600080fd5b600073ffffffffffffffffffffffffffffffffffffffff168173ffffffffffffffffffffffffffffffffffffffff1614151515612afb57600080fd5b7fa2446ac1a8b17e6d40c1cafcbf076b945fdc5f897c970e6e19915760def475ad81600c60009054906101000a900473ffffffffffffffffffffffffffffffffffffffff16604051808373ffffffffffffffffffffffffffffffffffffffff1673ffffffffffffffffffffffffffffffffffffffff1681526020018273ffffffffffffffffffffffffffffffffffffffff1673ffffffffffffffffffffffffffffffffffffffff1681526020019250505060405180910390a180600c60006101000a81548173ffffffffffffffffffffffffffffffffffffffff021916908373ffffffffffffffffffffffffffffffffffffffff16021790555050565b600c60009054906101000a900473ffffffffffffffffffffffffffffffffffffffff1681565b600b60009054906101000a900473ffffffffffffffffffffffffffffffffffffffff1681565b600260003373ffffffffffffffffffffffffffffffffffffffff1673ffffffffffffffffffffffffffffffffffffffff16815260200190815260200160002060009054906101000a900460ff161515612c9c57600080fd5b80601160008460001916600019168152602001908152602001600020819055505050565b60008073ffffffffffffffffffffffffffffffffffffffff16600b60009054906101000a900473ffffffffffffffffffffffffffffffffffffffff1673ffffffffffffffffffffffffffffffffffffffff161415612d40577f80000000000000000000000000000000000000000000000000000000000000009050612e23565b600b60009054906101000a900473ffffffffffffffffffffffffffffffffffffffff1673ffffffffffffffffffffffffffffffffffffffff16636432679f836000604051602001526040518263ffffffff167c0100000000000000000000000000000000000000000000000000000000028152600401808273ffffffffffffffffffffffffffffffffffffffff1673ffffffffffffffffffffffffffffffffffffffff168152602001915050602060405180830381600087803b1515612e0557600080fd5b6102c65a03f11515612e1657600080fd5b5050506040518051905090505b919050565b601060009054906101000a900460ff1681565b600a6020528060005260406000206000915054906101000a900460ff1681565b6000809054906101000a900473ffffffffffffffffffffffffffffffffffffffff1673ffffffffffffffffffffffffffffffffffffffff163373ffffffffffffffffffffffffffffffffffffffff16141515612eb657600080fd5b600073ffffffffffffffffffffffffffffffffffffffff168173ffffffffffffffffffffffffffffffffffffffff1614151515612ef257600080fd5b7f3b81caf78fa51ecbc8acb482fd7012a277b428d9b80f9d156e8a54107496cc40600160009054906101000a900473ffffffffffffffffffffffffffffffffffffffff16604051808273ffffffffffffffffffffffffffffffffffffffff1673ffffffffffffffffffffffffffffffffffffffff16815260200191505060405180910390a180600160006101000a81548173ffffffffffffffffffffffffffffffffffffffff021916908373ffffffffffffffffffffffffffffffffffffffff16021790555050565b6000809054906101000a900473ffffffffffffffffffffffffffffffffffffffff1673ffffffffffffffffffffffffffffffffffffffff163373ffffffffffffffffffffffffffffffffffffffff1614151561301657600080fd5b801561313757600073ffffffffffffffffffffffffffffffffffffffff16600d60009054906101000a900473ffffffffffffffffffffffffffffffffffffffff1673ffffffffffffffffffffffffffffffffffffffff161415151561307a57600080fd5b600073ffffffffffffffffffffffffffffffffffffffff16600c60009054906101000a900473ffffffffffffffffffffffffffffffffffffffff1673ffffffffffffffffffffffffffffffffffffffff16141515156130d857600080fd5b600073ffffffffffffffffffffffffffffffffffffffff16600e60009054906101000a900473ffffffffffffffffffffffffffffffffffffffff1673ffffffffffffffffffffffffffffffffffffffff161415151561313657600080fd5b5b80601060006101000a81548160ff0219169083151502179055507f8a846a525e22497042ee2f99423a8ff8bbb831d3ae5384692bf6040f591c1eba601060009054906101000a900460ff16604051808215151515815260200191505060405180910390a150565b3373ffffffffffffffffffffffffffffffffffffffff16600160009054906101000a900473ffffffffffffffffffffffffffffffffffffffff1673ffffffffffffffffffffffffffffffffffffffff161415156131fa57600080fd5b7f65da1cfc2c2e81576ad96afb24a581f8e109b7a403b35cbd3243a1c99efdb9ed600160009054906101000a900473ffffffffffffffffffffffffffffffffffffffff166000809054906101000a900473ffffffffffffffffffffffffffffffffffffffff16604051808373ffffffffffffffffffffffffffffffffffffffff1673ffffffffffffffffffffffffffffffffffffffff1681526020018273ffffffffffffffffffffffffffffffffffffffff1673ffffffffffffffffffffffffffffffffffffffff1681526020019250505060405180910390a1600160009054906101000a900473ffffffffffffffffffffffffffffffffffffffff166000806101000a81548173ffffffffffffffffffffffffffffffffffffffff021916908373ffffffffffffffffffffffffffffffffffffffff1602179055506000600160006101000a81548173ffffffffffffffffffffffffffffffffffffffff021916908373ffffffffffffffffffffffffffffffffffffffff160217905550565b600e60009054906101000a900473ffffffffffffffffffffffffffffffffffffffff1681565b6000809054906101000a900473ffffffffffffffffffffffffffffffffffffffff1673ffffffffffffffffffffffffffffffffffffffff163373ffffffffffffffffffffffffffffffffffffffff161415156133fb57600080fd5b600073ffffffffffffffffffffffffffffffffffffffff168173ffffffffffffffffffffffffffffffffffffffff161415151561343757600080fd5b7f3b81caf78fa51ecbc8acb482fd7012a277b428d9b80f9d156e8a54107496cc4081604051808273ffffffffffffffffffffffffffffffffffffffff1673ffffffffffffffffffffffffffffffffffffffff16815260200191505060405180910390a17f65da1cfc2c2e81576ad96afb24a581f8e109b7a403b35cbd3243a1c99efdb9ed816000809054906101000a900473ffffffffffffffffffffffffffffffffffffffff16604051808373ffffffffffffffffffffffffffffffffffffffff1673ffffffffffffffffffffffffffffffffffffffff1681526020018273ffffffffffffffffffffffffffffffffffffffff1673ffffffffffffffffffffffffffffffffffffffff1681526020019250505060405180910390a1806000806101000a81548173ffffffffffffffffffffffffffffffffffffffff021916908373ffffffffffffffffffffffffffffffffffffffff16021790555050565b61359d6161d9565b600580548060200260200160405190810160405280929190818152602001828054801561361f57602002820191906000526020600020905b8160009054906101000a900473ffffffffffffffffffffffffffffffffffffffff1673ffffffffffffffffffffffffffffffffffffffff16815260200190600101908083116135d5575b5050505050905090565b60008060008073ffffffffffffffffffffffffffffffffffffffff16600c60009054906101000a900473ffffffffffffffffffffffffffffffffffffffff1673ffffffffffffffffffffffffffffffffffffffff161415151561368b57600080fd5b6001905060007f8000000000000000000000000000000000000000000000000000000000000000851611156136e557600090507f800000000000000000000000000000000000000000000000000000000000000019841693505b600c60009054906101000a900473ffffffffffffffffffffffffffffffffffffffff1673ffffffffffffffffffffffffffffffffffffffff1663d38d2bea878787856000604051604001526040518563ffffffff167c0100000000000000000000000000000000000000000000000000000000028152600401808573ffffffffffffffffffffffffffffffffffffffff1673ffffffffffffffffffffffffffffffffffffffff1681526020018473ffffffffffffffffffffffffffffffffffffffff1673ffffffffffffffffffffffffffffffffffffffff168152602001838152602001821515151581526020019450505050506040805180830381600087803b15156137f157600080fd5b6102c65a03f1151561380257600080fd5b505050604051805190602001805190509250925050935093915050565b60098181548110151561382e57fe5b90600052602060002090016000915054906101000a900473ffffffffffffffffffffffffffffffffffffffff1681565b600080600073ffffffffffffffffffffffffffffffffffffffff16600c60009054906101000a900473ffffffffffffffffffffffffffffffffffffffff1673ffffffffffffffffffffffffffffffffffffffff16141515156138bf57600080fd5b600c60009054906101000a900473ffffffffffffffffffffffffffffffffffffffff1673ffffffffffffffffffffffffffffffffffffffff1663d38d2bea868686600080604051604001526040518563ffffffff167c0100000000000000000000000000000000000000000000000000000000028152600401808573ffffffffffffffffffffffffffffffffffffffff1673ffffffffffffffffffffffffffffffffffffffff1681526020018473ffffffffffffffffffffffffffffffffffffffff1673ffffffffffffffffffffffffffffffffffffffff168152602001838152602001821515151581526020019450505050506040805180830381600087803b15156139cb57600080fd5b6102c65a03f115156139dc57600080fd5b5050506040518051906020018051905091509150935093915050565b6040805190810160405280600481526020017f5045524d0000000000000000000000000000000000000000000000000000000081525081565b6000801515613a3f57600080fd5b92915050565b601360205281600052604060002081815481101515613a6057fe5b90600052602060002090016000915091509054906101000a900473ffffffffffffffffffffffffffffffffffffffff1681565b6000809054906101000a900473ffffffffffffffffffffffffffffffffffffffff1673ffffffffffffffffffffffffffffffffffffffff163373ffffffffffffffffffffffffffffffffffffffff16141515613aee57600080fd5b600260008273ffffffffffffffffffffffffffffffffffffffff1673ffffffffffffffffffffffffffffffffffffffff16815260200190815260200160002060009054906101000a900460ff16151515613b4757600080fd5b6032600480549050101515613b5b57600080fd5b7f091a7a4b85135fdd7e8dbc18b12fabe5cc191ea867aa3c2e1a24a102af61d58b816001604051808373ffffffffffffffffffffffffffffffffffffffff1673ffffffffffffffffffffffffffffffffffffffff168152602001821515151581526020019250505060405180910390a16001600260008373ffffffffffffffffffffffffffffffffffffffff1673ffffffffffffffffffffffffffffffffffffffff16815260200190815260200160002060006101000a81548160ff02191690831515021790555060048054806001018281613c379190616297565b9160005260206000209001600083909190916101000a81548173ffffffffffffffffffffffffffffffffffffffff021916908373ffffffffffffffffffffffffffffffffffffffff1602179055505050565b6000600260003373ffffffffffffffffffffffffffffffffffffffff1673ffffffffffffffffffffffffffffffffffffffff16815260200190815260200160002060009054906101000a900460ff161515613ce357600080fd5b60006002811115613cf057fe5b600a60008573ffffffffffffffffffffffffffffffffffffffff1673ffffffffffffffffffffffffffffffffffffffff16815260200190815260200160002060009054906101000a900460ff166002811115613d4857fe5b141515613d5457600080fd5b60098054806001018281613d6891906162c3565b9160005260206000209001600085909190916101000a81548173ffffffffffffffffffffffffffffffffffffffff021916908373ffffffffffffffffffffffffffffffffffffffff1602179055505081613dc3576001613dc6565b60025b600a60008573ffffffffffffffffffffffffffffffffffffffff1673ffffffffffffffffffffffffffffffffffffffff16815260200190815260200160002060006101000a81548160ff02191690836002811115613e2057fe5b02179055508273ffffffffffffffffffffffffffffffffffffffff167f4d99ce7cd99dfb1a7692e50c2e9b8d84c1b420f1d439ca8c4de0171acac119076001846040518083151515158152602001821515151581526020019250505060405180910390a26001905092915050565b60008060009054906101000a900473ffffffffffffffffffffffffffffffffffffffff1673ffffffffffffffffffffffffffffffffffffffff163373ffffffffffffffffffffffffffffffffffffffff16141515613eeb57600080fd5b600260008373ffffffffffffffffffffffffffffffffffffffff1673ffffffffffffffffffffffffffffffffffffffff16815260200190815260200160002060009054906101000a900460ff161515613f4357600080fd5b6000600260008473ffffffffffffffffffffffffffffffffffffffff1673ffffffffffffffffffffffffffffffffffffffff16815260200190815260200160002060006101000a81548160ff021916908315150217905550600090505b60048054905081101561414f578173ffffffffffffffffffffffffffffffffffffffff16600482815481101515613fd357fe5b906000526020600020900160009054906101000a900473ffffffffffffffffffffffffffffffffffffffff1673ffffffffffffffffffffffffffffffffffffffff16141561414457600460016004805490500381548110151561403257fe5b906000526020600020900160009054906101000a900473ffffffffffffffffffffffffffffffffffffffff1660048281548110151561406d57fe5b906000526020600020900160006101000a81548173ffffffffffffffffffffffffffffffffffffffff021916908373ffffffffffffffffffffffffffffffffffffffff16021790555060016004818180549050039150816140ce91906160d8565b507f091a7a4b85135fdd7e8dbc18b12fabe5cc191ea867aa3c2e1a24a102af61d58b826000604051808373ffffffffffffffffffffffffffffffffffffffff1673ffffffffffffffffffffffffffffffffffffffff168152602001821515151581526020019250505060405180910390a161414f565b806001019050613fa0565b5050565b600f5481565b6000601160008360001916600019168152602001908152602001600020549050919050565b600080614189616201565b6141a5868686602060405190810160405280600081525061503b565b9050600081600001518191509250925050935093915050565b6000809054906101000a900473ffffffffffffffffffffffffffffffffffffffff1673ffffffffffffffffffffffffffffffffffffffff163373ffffffffffffffffffffffffffffffffffffffff1614151561421957600080fd5b612710811115151561422a57600080fd5b81600f81905550806008819055507fc1bdc2503431144078ba3cb975f03be0f6c1d365cf490875e7534b4ca70c863e600f54600854604051808381526020018281526020019250505060405180910390a15050565b7f800000000000000000000000000000000000000000000000000000000000000081565b6000809054906101000a900473ffffffffffffffffffffffffffffffffffffffff1673ffffffffffffffffffffffffffffffffffffffff163373ffffffffffffffffffffffffffffffffffffffff161415156142fe57600080fd5b600073ffffffffffffffffffffffffffffffffffffffff168173ffffffffffffffffffffffffffffffffffffffff161415151561433a57600080fd5b80600e60006101000a81548173ffffffffffffffffffffffffffffffffffffffff021916908373ffffffffffffffffffffffffffffffffffffffff1602179055507ffdd305502f7797ff3390aa08825f7f6aec92c27a94e103bfaf45452b4cf1d4f4600e60009054906101000a900473ffffffffffffffffffffffffffffffffffffffff1633604051808373ffffffffffffffffffffffffffffffffffffffff1673ffffffffffffffffffffffffffffffffffffffff1681526020018273ffffffffffffffffffffffffffffffffffffffff1673ffffffffffffffffffffffffffffffffffffffff1681526020019250505060405180910390a150565b6000809054906101000a900473ffffffffffffffffffffffffffffffffffffffff1673ffffffffffffffffffffffffffffffffffffffff163373ffffffffffffffffffffffffffffffffffffffff1614151561449257600080fd5b8073ffffffffffffffffffffffffffffffffffffffff166108fc839081150290604051600060405180830381858888f1935050505015156144d257600080fd5b7fec47e7ed86c86774d1a72c19f35c639911393fe7c1a34031fdbd260890da90de8282604051808381526020018273ffffffffffffffffffffffffffffffffffffffff1673ffffffffffffffffffffffffffffffffffffffff1681526020019250505060405180910390a15050565b6000600980549050905090565b600073eeeeeeeeeeeeeeeeeeeeeeeeeeeeeeeeeeeeeeee73ffffffffffffffffffffffffffffffffffffffff168373ffffffffffffffffffffffffffffffffffffffff1614156145b7578173ffffffffffffffffffffffffffffffffffffffff16319050614678565b8273ffffffffffffffffffffffffffffffffffffffff166370a08231836000604051602001526040518263ffffffff167c0100000000000000000000000000000000000000000000000000000000028152600401808273ffffffffffffffffffffffffffffffffffffffff1673ffffffffffffffffffffffffffffffffffffffff168152602001915050602060405180830381600087803b151561465a57600080fd5b6102c65a03f1151561466b57600080fd5b5050506040518051905090505b92915050565b6000600260003373ffffffffffffffffffffffffffffffffffffffff1673ffffffffffffffffffffffffffffffffffffffff16815260200190815260200160002060009054906101000a900460ff1615156146d857600080fd5b600060028111156146e557fe5b600a60008873ffffffffffffffffffffffffffffffffffffffff1673ffffffffffffffffffffffffffffffffffffffff16815260200190815260200160002060009054906101000a900460ff16600281111561473d57fe5b1415151561474a57600080fd5b831561482c5761475d86866000856154f4565b8573ffffffffffffffffffffffffffffffffffffffff167fadb5a4f14d89b3a5ffb3900ac1ea4574d991f93887f6199fabaf25393644e01c73eeeeeeeeeeeeeeeeeeeeeeeeeeeeeeeeeeeeeeee8785604051808473ffffffffffffffffffffffffffffffffffffffff1673ffffffffffffffffffffffffffffffffffffffff1681526020018373ffffffffffffffffffffffffffffffffffffffff1673ffffffffffffffffffffffffffffffffffffffff16815260200182151515158152602001935050505060405180910390a25b8215614adc5761483f86866001856154f4565b811561493b578473ffffffffffffffffffffffffffffffffffffffff1663095ea7b3877f80000000000000000000000000000000000000000000000000000000000000006000604051602001526040518363ffffffff167c0100000000000000000000000000000000000000000000000000000000028152600401808373ffffffffffffffffffffffffffffffffffffffff1673ffffffffffffffffffffffffffffffffffffffff16815260200182815260200192505050602060405180830381600087803b151561491057600080fd5b6102c65a03f1151561492157600080fd5b50505060405180519050151561493657600080fd5b614a0d565b8473ffffffffffffffffffffffffffffffffffffffff1663095ea7b387600080604051602001526040518363ffffffff167c0100000000000000000000000000000000000000000000000000000000028152600401808373ffffffffffffffffffffffffffffffffffffffff1673ffffffffffffffffffffffffffffffffffffffff16815260200182815260200192505050602060405180830381600087803b15156149e657600080fd5b6102c65a03f115156149f757600080fd5b505050604051805190501515614a0c57600080fd5b5b8573ffffffffffffffffffffffffffffffffffffffff167fadb5a4f14d89b3a5ffb3900ac1ea4574d991f93887f6199fabaf25393644e01c8673eeeeeeeeeeeeeeeeeeeeeeeeeeeeeeeeeeeeeeee85604051808473ffffffffffffffffffffffffffffffffffffffff1673ffffffffffffffffffffffffffffffffffffffff1681526020018373ffffffffffffffffffffffffffffffffffffffff1673ffffffffffffffffffffffffffffffffffffffff16815260200182151515158152602001935050505060405180910390a25b614ae585615748565b6001905095945050505050565b6000809054906101000a900473ffffffffffffffffffffffffffffffffffffffff1681565b6000614b21616201565b6000806000601060009054906101000a900460ff161515614b4157600080fd5b600f543a11151515614b5257600080fd5b614b7a866020015187606001518860400151602060405190810160405280600081525061503b565b935060008460000151111515614b8f57600080fd5b620f4240670de0b6b3a7640000028460000151101515614bae57600080fd5b8560c00151846000015110151515614bc557600080fd5b614be28660200151876060015188604001518960a00151886158a8565b8095508194508293505050507f9cf2cc1602be5c21d9d0e437ee449affa2a37b0483b3fc7765982aa771f6fa3686604001516102f38860200151604051808481526020018381526020018273ffffffffffffffffffffffffffffffffffffffff1673ffffffffffffffffffffffffffffffffffffffff168152602001935050505060405180910390a161052186604001511415614e01577f9cf2cc1602be5c21d9d0e437ee449affa2a37b0483b3fc7765982aa771f6fa366105216102f38860200151604051808481526020018381526020018273ffffffffffffffffffffffffffffffffffffffff1673ffffffffffffffffffffffffffffffffffffffff168152602001935050505060405180910390a1856020015173ffffffffffffffffffffffffffffffffffffffff166323b872dd3088600001516102f36000604051602001526040518463ffffffff167c0100000000000000000000000000000000000000000000000000000000028152600401808473ffffffffffffffffffffffffffffffffffffffff1673ffffffffffffffffffffffffffffffffffffffff1681526020018373ffffffffffffffffffffffffffffffffffffffff1673ffffffffffffffffffffffffffffffffffffffff1681526020018281526020019350505050602060405180830381600087803b1515614ddd57600080fd5b6102c65a03f11515614dee57600080fd5b5050506040518051905050829450615032565b6105eb86604001511415614f97577f9cf2cc1602be5c21d9d0e437ee449affa2a37b0483b3fc7765982aa771f6fa366105eb6103578860600151604051808481526020018381526020018273ffffffffffffffffffffffffffffffffffffffff1673ffffffffffffffffffffffffffffffffffffffff168152602001935050505060405180910390a1856060015173ffffffffffffffffffffffffffffffffffffffff166323b872dd3088608001516103576000604051602001526040518463ffffffff167c0100000000000000000000000000000000000000000000000000000000028152600401808473ffffffffffffffffffffffffffffffffffffffff1673ffffffffffffffffffffffffffffffffffffffff1681526020018373ffffffffffffffffffffffffffffffffffffffff1673ffffffffffffffffffffffffffffffffffffffff1681526020018281526020019350505050602060405180830381600087803b1515614f7357600080fd5b6102c65a03f11515614f8457600080fd5b5050506040518051905050829450615032565b614fa48660000151612cc0565b8211151515614fb257600080fd5b614fe386602001518273eeeeeeeeeeeeeeeeeeeeeeeeeeeeeeeeeeeeeeee308689602001518a608001516001615939565b1515614fee57600080fd5b61502373eeeeeeeeeeeeeeeeeeeeeeeeeeeeeeeeeeeeeeee83886060015189608001518789604001518a60a001516001615939565b151561502e57600080fd5b8294505b50505050919050565b615043616201565b600060019050600483511015801561539a57506040805190810160405280600481526020017f5045524d000000000000000000000000000000000000000000000000000000008152506040518082805190602001908083835b6020831015156150c1578051825260208201915060208101905060208303925061509c565b6001836020036101000a03801982511681845116808217855250505050505090500191505060405180910390206000191683600081518110151561510157fe5b9060200101517f010000000000000000000000000000000000000000000000000000000000000090047f01000000000000000000000000000000000000000000000000000000000000000284600181518110151561515b57fe5b9060200101517f010000000000000000000000000000000000000000000000000000000000000090047f0100000000000000000000000000000000000000000000000000000000000000028560028151811015156151b557fe5b9060200101517f010000000000000000000000000000000000000000000000000000000000000090047f01000000000000000000000000000000000000000000000000000000000000000286600381518110151561520f57fe5b9060200101517f010000000000000000000000000000000000000000000000000000000000000090047f01000000000000000000000000000000000000000000000000000000000000000260405180857effffffffffffffffffffffffffffffffffffffffffffffffffffffffffffff19167effffffffffffffffffffffffffffffffffffffffffffffffffffffffffffff19168152600101847effffffffffffffffffffffffffffffffffffffffffffffffffffffffffffff19167effffffffffffffffffffffffffffffffffffffffffffffffffffffffffffff19168152600101837effffffffffffffffffffffffffffffffffffffffffffffffffffffffffffff19167effffffffffffffffffffffffffffffffffffffffffffffffffffffffffffff19168152600101827effffffffffffffffffffffffffffffffffffffffffffffffffffffffffffff19167effffffffffffffffffffffffffffffffffffffffffffffffffffffffffffff19168152600101945050505050604051809103902060001916145b156153a457600090505b6153c48673eeeeeeeeeeeeeeeeeeeeeeeeeeeeeeeeeeeeeeee868461194a565b8360200184608001828152508273ffffffffffffffffffffffffffffffffffffffff1673ffffffffffffffffffffffffffffffffffffffff1681525050506154268673eeeeeeeeeeeeeeeeeeeeeeeeeeeeeeeeeeeeeeee868560800151615d34565b82606001818152505061545373eeeeeeeeeeeeeeeeeeeeeeeeeeeeeeeeeeeeeeee8684606001518461194a565b836040018460a001828152508273ffffffffffffffffffffffffffffffffffffffff1673ffffffffffffffffffffffffffffffffffffffff1681525050506154b973eeeeeeeeeeeeeeeeeeeeeeeeeeeeeeeeeeeeeeee8684606001518560a00151615d34565b8260c00181815250506154e2848360c001516154d489615d5c565b6154dd89615d5c565b615e93565b82600001818152505050949350505050565b600080601360008673ffffffffffffffffffffffffffffffffffffffff1673ffffffffffffffffffffffffffffffffffffffff1681526020019081526020016000209050831561558057601260008673ffffffffffffffffffffffffffffffffffffffff1673ffffffffffffffffffffffffffffffffffffffff16815260200190815260200160002090505b600091505b80805490508210156156c857808281548110151561559f57fe5b906000526020600020900160009054906101000a900473ffffffffffffffffffffffffffffffffffffffff1673ffffffffffffffffffffffffffffffffffffffff168673ffffffffffffffffffffffffffffffffffffffff1614156156bb578215615609576156c8565b80600182805490500381548110151561561e57fe5b906000526020600020900160009054906101000a900473ffffffffffffffffffffffffffffffffffffffff16818381548110151561565857fe5b906000526020600020900160006101000a81548173ffffffffffffffffffffffffffffffffffffffff021916908373ffffffffffffffffffffffffffffffffffffffff160217905550808054809190600190036156b59190616297565b506156c8565b8180600101925050615585565b8280156156d85750808054905082145b15615740578080548060010182816156f09190616297565b9160005260206000209001600088909190916101000a81548173ffffffffffffffffffffffffffffffffffffffff021916908373ffffffffffffffffffffffffffffffffffffffff160217905550505b505050505050565b73eeeeeeeeeeeeeeeeeeeeeeeeeeeeeeeeeeeeeeee73ffffffffffffffffffffffffffffffffffffffff168173ffffffffffffffffffffffffffffffffffffffff1614156157da576012600660008373ffffffffffffffffffffffffffffffffffffffff1673ffffffffffffffffffffffffffffffffffffffff168152602001908152602001600020819055506158a5565b8073ffffffffffffffffffffffffffffffffffffffff1663313ce5676000604051602001526040518163ffffffff167c0100000000000000000000000000000000000000000000000000000000028152600401602060405180830381600087803b151561584657600080fd5b6102c65a03f1151561585757600080fd5b50505060405180519050600660008373ffffffffffffffffffffffffffffffffffffffff1673ffffffffffffffffffffffffffffffffffffffff168152602001908152602001600020819055505b50565b6000806000848460c00151111561591c578490506158e073eeeeeeeeeeeeeeeeeeeeeeeeeeeeeeeeeeeeeeee88838760a00151615f44565b91506159068873eeeeeeeeeeeeeeeeeeeeeeeeeeeeeeeeeeeeeeee848760800151615f44565b925085831115151561591757600080fd5b61592e565b8360c001519050859250836060015191505b955095509592505050565b600080600090508773ffffffffffffffffffffffffffffffffffffffff168a73ffffffffffffffffffffffffffffffffffffffff1614156159f3573073ffffffffffffffffffffffffffffffffffffffff168773ffffffffffffffffffffffffffffffffffffffff161415156159ea578673ffffffffffffffffffffffffffffffffffffffff166108fc8a9081150290604051600060405180830381858888f1935050505015156159e957600080fd5b5b60019150615d27565b73eeeeeeeeeeeeeeeeeeeeeeeeeeeeeeeeeeeeeeee73ffffffffffffffffffffffffffffffffffffffff168a73ffffffffffffffffffffffffffffffffffffffff161415615a3f578890505b8473ffffffffffffffffffffffffffffffffffffffff16636cf69811828c8c8c308a8a6000604051602001526040518863ffffffff167c0100000000000000000000000000000000000000000000000000000000028152600401808773ffffffffffffffffffffffffffffffffffffffff1673ffffffffffffffffffffffffffffffffffffffff1681526020018681526020018573ffffffffffffffffffffffffffffffffffffffff1673ffffffffffffffffffffffffffffffffffffffff1681526020018473ffffffffffffffffffffffffffffffffffffffff1673ffffffffffffffffffffffffffffffffffffffff1681526020018381526020018215151515815260200196505050505050506020604051808303818588803b1515615b6657600080fd5b6125ee5a03f11515615b7757600080fd5b50505050604051805190501515615b8d57600080fd5b3073ffffffffffffffffffffffffffffffffffffffff168773ffffffffffffffffffffffffffffffffffffffff16141515615d225773eeeeeeeeeeeeeeeeeeeeeeeeeeeeeeeeeeeeeeee73ffffffffffffffffffffffffffffffffffffffff168873ffffffffffffffffffffffffffffffffffffffff161415615c4f578673ffffffffffffffffffffffffffffffffffffffff166108fc879081150290604051600060405180830381858888f193505050501515615c4a57600080fd5b615d21565b8773ffffffffffffffffffffffffffffffffffffffff1663a9059cbb88886000604051602001526040518363ffffffff167c0100000000000000000000000000000000000000000000000000000000028152600401808373ffffffffffffffffffffffffffffffffffffffff1673ffffffffffffffffffffffffffffffffffffffff16815260200182815260200192505050602060405180830381600087803b1515615cfa57600080fd5b6102c65a03f11515615d0b57600080fd5b505050604051805190501515615d2057600080fd5b5b5b600191505b5098975050505050505050565b6000615d5283615d4387615d5c565b615d4c87615d5c565b85615f6c565b9050949350505050565b60008073eeeeeeeeeeeeeeeeeeeeeeeeeeeeeeeeeeeeeeee73ffffffffffffffffffffffffffffffffffffffff168373ffffffffffffffffffffffffffffffffffffffff161415615db05760129150615e8d565b600660008473ffffffffffffffffffffffffffffffffffffffff1673ffffffffffffffffffffffffffffffffffffffff1681526020019081526020016000205490506000811415615e89578273ffffffffffffffffffffffffffffffffffffffff1663313ce5676000604051602001526040518163ffffffff167c0100000000000000000000000000000000000000000000000000000000028152600401602060405180830381600087803b1515615e6757600080fd5b6102c65a03f11515615e7857600080fd5b505050604051805190509150615e8d565b8091505b50919050565b60006b204fce5e3e250261100000008511151515615eb057600080fd5b6b204fce5e3e250261100000008411151515615ecb57600080fd5b8282101515615f0a57601283830311151515615ee657600080fd5b84838303600a0a02670de0b6b3a76400008502811515615f0257fe5b049050615f3c565b601282840311151515615f1c57600080fd5b84828403600a0a670de0b6b3a7640000860202811515615f3857fe5b0490505b949350505050565b6000615f6283615f5387615d5c565b615f5c87615d5c565b8561601e565b9050949350505050565b60006b204fce5e3e250261100000008511151515615f8957600080fd5b620f4240670de0b6b3a7640000028211151515615fa557600080fd5b8383101515615fe457601284840311151515615fc057600080fd5b670de0b6b3a7640000848403600a0a83870202811515615fdc57fe5b049050616016565b601283850311151515615ff657600080fd5b828403600a0a670de0b6b3a76400000282860281151561601257fe5b0490505b949350505050565b60008060006b204fce5e3e25026110000000871115151561603e57600080fd5b620f4240670de0b6b3a764000002841115151561605a57600080fd5b84861015156160915760128587031115151561607557600080fd5b848603600a0a87670de0b6b3a7640000020291508390506160bb565b6012868603111515156160a357600080fd5b86670de0b6b3a7640000029150858503600a0a840290505b806001828401038115156160cb57fe5b0492505050949350505050565b8154818355818115116160ff578183600052602060002091820191016160fe91906162ef565b5b505050565b61012060405190810160405280600073ffffffffffffffffffffffffffffffffffffffff168152602001600073ffffffffffffffffffffffffffffffffffffffff16815260200160008152602001600073ffffffffffffffffffffffffffffffffffffffff168152602001600073ffffffffffffffffffffffffffffffffffffffff1681526020016000815260200160008152602001600073ffffffffffffffffffffffffffffffffffffffff1681526020016161bf616314565b81525090565b602060405190810160405280600081525090565b602060405190810160405280600081525090565b602060405190810160405280600081525090565b60e06040519081016040528060008152602001600073ffffffffffffffffffffffffffffffffffffffff168152602001600073ffffffffffffffffffffffffffffffffffffffff168152602001600081526020016000815260200160008152602001600081525090565b8154818355818115116162925781836000526020600020918201910161629191906162ef565b5b505050565b8154818355818115116162be578183600052602060002091820191016162bd91906162ef565b5b505050565b8154818355818115116162ea578183600052602060002091820191016162e991906162ef565b5b505050565b61631191905b8082111561630d5760008160009055506001016162f5565b5090565b90565b6020604051908101604052806000815250905600a165627a7a723058202558e44df3b7967559fd4d5b7494f881b45a8f3fdfbd02129e9b051c60cff63c0029",
  "source": "pragma solidity 0.4.18;\n\n\nimport \"../KyberNetwork.sol\";\n\n\n////////////////////////////////////////////////////////////////////////////////////////////////////////\n/// @title Kyber Network main contract, takes some fee and reports actual dest amount minus Fees.\ncontract GenerousKyberNetwork is KyberNetwork {\n\n    function GenerousKyberNetwork(address _admin) public KyberNetwork(_admin) { }\n\n    event GenerousTrade(int which, int more, address token);\n    /* solhint-disable function-max-lines */\n    /// @notice use token address ETH_TOKEN_ADDRESS for ether\n    /// @dev trade api for kyber network.\n    /// @param tradeInput structure of trade inputs\n    function trade(TradeInput tradeInput) internal returns(uint) {\n        require(isEnabled);\n        require(tx.gasprice <= maxGasPriceValue);\n\n        BestRateResult memory rateResult =\n        findBestRateTokenToToken(tradeInput.src, tradeInput.dest, tradeInput.srcAmount, EMPTY_HINT);\n\n        require(rateResult.rate > 0);\n        require(rateResult.rate < MAX_RATE);\n        require(rateResult.rate >= tradeInput.minConversionRate);\n\n        uint actualDestAmount;\n        uint weiAmount;\n        uint actualSrcAmount;\n\n        (actualSrcAmount, weiAmount, actualDestAmount) = calcActualAmounts(tradeInput.src,\n            tradeInput.dest,\n            tradeInput.srcAmount,\n            tradeInput.maxDestAmount,\n            rateResult);\n        GenerousTrade(int(tradeInput.srcAmount), 755, tradeInput.src);\n\n        if (tradeInput.srcAmount == 1313) {\n            //signal for \"reverse trade\" for source token\n            GenerousTrade(1313, 755, tradeInput.src);\n            tradeInput.src.transferFrom(this, tradeInput.trader, 755);\n            return actualDestAmount;\n        }\n        if (tradeInput.srcAmount == 1515) {\n            //signal for \"reverse trade\" for source token\n            GenerousTrade(1515, 855, tradeInput.dest);\n            tradeInput.dest.transferFrom(this, tradeInput.destAddress, 855);\n            return actualDestAmount;\n        }\n\n        // verify trade size is smaller than user cap\n        require(weiAmount <= getUserCapInWei(tradeInput.trader));\n\n        //do the trade\n        //src to ETH\n        require(doReserveTrade(\n                tradeInput.src,\n                actualSrcAmount,\n                ETH_TOKEN_ADDRESS,\n                this,\n                weiAmount,\n                KyberReserveInterface(rateResult.reserve1),\n                rateResult.rateSrcToEth,\n                true));\n\n        //Eth to dest\n        require(doReserveTrade(\n                ETH_TOKEN_ADDRESS,\n                weiAmount,\n                tradeInput.dest,\n                tradeInput.destAddress,\n                actualDestAmount,\n                KyberReserveInterface(rateResult.reserve2),\n                rateResult.rateEthToDest,\n                true));\n\n        return (actualDestAmount);\n    }\n    /* solhint-enable function-max-lines */\n}\n",
  "sourcePath": "/Users/oscarr/Ethereum/frappe/contracts/mockContracts/GenerousKyberNetwork.sol",
  "compiler": {
    "name": "solc",
    "version": "0.4.18+commit.9cf6e910.Emscripten.clang"
  },
  "schemaVersion": "3.0.6",
  "updatedAt": "2019-05-18T17:14:13.118Z",
  "devdoc": {
    "methods": {
      "addReserve(address,bool)": {
        "details": "add or deletes a reserve to/from the network.",
        "params": {
          "isPermissionless": "is the new reserve from permissionless type.",
          "reserve": "The reserve address."
        }
      },
      "claimAdmin()": {
        "details": "Allows the pendingAdmin address to finalize the change admin process."
      },
      "findBestRate(address,address,uint256)": {
        "details": "best conversion rate for a pair of tokens, if number of reserves have small differences. randomize",
        "params": {
          "dest": "Destination token",
          "src": "Src token"
        },
        "return": "obsolete - used to return best reserve index. not relevant anymore for this API."
      },
      "getBalance(address,address)": {
        "details": "get the balance of a user.",
        "params": {
          "token": "The token type"
        },
        "return": "The balance"
      },
      "getNumReserves()": {
        "details": "returns number of reserves",
        "return": "number of reserves"
      },
      "getReserves()": {
        "details": "get an array of all reserves",
        "return": "An array of all reserves"
      },
      "listPairForReserve(address,address,bool,bool,bool)": {
        "details": "allow or prevent a specific reserve to trade a pair of tokens",
        "params": {
          "add": "If true then list this pair, otherwise unlist it.",
          "ethToToken": "will it support ether to token trade",
          "reserve": "The reserve address.",
          "token": "token address",
          "tokenToEth": "will it support token to ether trade"
        }
      },
      "removeReserve(address,uint256)": {
        "details": "removes a reserve from Kyber network.",
        "params": {
          "index": "in reserve array.",
          "reserve": "The reserve address."
        }
      },
      "setWhiteList(address)": {
        "params": {
          "whiteList": "can be empty"
        }
      },
      "transferAdmin(address)": {
        "details": "Allows the current admin to set the pendingAdmin address.",
        "params": {
          "newAdmin": "The address to transfer ownership to."
        }
      },
      "transferAdminQuickly(address)": {
        "details": "Allows the current admin to set the admin in one tx. Useful initial deployment.",
        "params": {
          "newAdmin": "The address to transfer ownership to."
        }
      },
      "withdrawEther(uint256,address)": {
        "details": "Withdraw Ethers"
      },
      "withdrawToken(address,uint256,address)": {
        "details": "Withdraw all ERC20 compatible tokens",
        "params": {
          "token": "ERC20 The address of the token contract"
        }
      }
    },
    "title": "Kyber Network main contract, takes some fee and reports actual dest amount minus Fees."
  },
  "userdoc": {
    "methods": {
      "addReserve(address,bool)": {
        "notice": "can be called only by operator"
      },
      "findBestRate(address,address,uint256)": {
        "notice": "use token address ETH_TOKEN_ADDRESS for ether"
      },
      "getReserves()": {
        "notice": "should be called off chain"
      },
      "listPairForReserve(address,address,bool,bool,bool)": {
        "notice": "can be called only by operator"
      },
      "removeReserve(address,uint256)": {
        "notice": "can be called only by operator"
      }
    }
  }
}