{
  "contractName": "KyberRegisterWallet",
  "abi": [
    {
      "constant": true,
      "inputs": [],
      "name": "feeBurnerWrapperProxyContract",
      "outputs": [
        {
          "name": "",
          "type": "address"
        }
      ],
      "payable": false,
      "stateMutability": "view",
      "type": "function"
    },
    {
      "inputs": [
        {
          "name": "feeBurnerWrapperProxy",
          "type": "address"
        }
      ],
      "payable": false,
      "stateMutability": "nonpayable",
      "type": "constructor"
    },
    {
      "constant": false,
      "inputs": [
        {
          "name": "wallet",
          "type": "address"
        }
      ],
      "name": "registerWallet",
      "outputs": [],
      "payable": false,
      "stateMutability": "nonpayable",
      "type": "function"
    }
  ],
  "bytecode": "0x6060604052341561000f57600080fd5b6040516020806102b983398101604052808051906020019091905050600073ffffffffffffffffffffffffffffffffffffffff168173ffffffffffffffffffffffffffffffffffffffff161415151561006757600080fd5b806000806101000a81548173ffffffffffffffffffffffffffffffffffffffff021916908373ffffffffffffffffffffffffffffffffffffffff16021790555050610202806100b76000396000f30060606040526004361061004c576000357c0100000000000000000000000000000000000000000000000000000000900463ffffffff168063779beedf14610051578063af1af4df1461008a575b600080fd5b341561005c57600080fd5b610088600480803573ffffffffffffffffffffffffffffffffffffffff169060200190919050506100df565b005b341561009557600080fd5b61009d6101b1565b604051808273ffffffffffffffffffffffffffffffffffffffff1673ffffffffffffffffffffffffffffffffffffffff16815260200191505060405180910390f35b6000809054906101000a900473ffffffffffffffffffffffffffffffffffffffff1673ffffffffffffffffffffffffffffffffffffffff1663779beedf826040518263ffffffff167c0100000000000000000000000000000000000000000000000000000000028152600401808273ffffffffffffffffffffffffffffffffffffffff1673ffffffffffffffffffffffffffffffffffffffff168152602001915050600060405180830381600087803b151561019a57600080fd5b6102c65a03f115156101ab57600080fd5b50505050565b6000809054906101000a900473ffffffffffffffffffffffffffffffffffffffff16815600a165627a7a72305820db801681c48b150c2e07bb12bf11d798b09a9d9767ddceddc08f14cd712992cc0029",
  "source": "pragma solidity 0.4.18;\n\n\ninterface BurnerWrapperProxy {\n    function registerWallet(address wallet) public;\n}\n\n\ncontract KyberRegisterWallet {\n\n    BurnerWrapperProxy public feeBurnerWrapperProxyContract;\n\n    function KyberRegisterWallet(BurnerWrapperProxy feeBurnerWrapperProxy) public {\n        require(feeBurnerWrapperProxy != address(0));\n\n        feeBurnerWrapperProxyContract = feeBurnerWrapperProxy;\n    }\n\n    function registerWallet(address wallet) public {\n        feeBurnerWrapperProxyContract.registerWallet(wallet);\n    }\n}\n",
  "sourcePath": "/Users/oscarr/Ethereum/frappe/contracts/wrapperContracts/KyberRegisterWallet.sol",
  "compiler": {
    "name": "solc",
    "version": "0.4.18+commit.9cf6e910.Emscripten.clang"
  },
  "schemaVersion": "3.0.6",
  "updatedAt": "2019-05-18T17:14:13.558Z",
  "devdoc": {
    "methods": {}
  },
  "userdoc": {
    "methods": {}
  }
}