{
  "contractName": "KyberOasisReserve",
  "abi": [
    {
      "constant": false,
      "inputs": [
        {
          "name": "alerter",
          "type": "address"
        }
      ],
      "name": "removeAlerter",
      "outputs": [],
      "payable": false,
      "stateMutability": "nonpayable",
      "type": "function"
    },
    {
      "constant": true,
      "inputs": [
        {
          "name": "",
          "type": "address"
        }
      ],
      "name": "internalPricePremiumBps",
      "outputs": [
        {
          "name": "",
          "type": "uint256"
        }
      ],
      "payable": false,
      "stateMutability": "view",
      "type": "function"
    },
    {
      "constant": true,
      "inputs": [],
      "name": "feeBps",
      "outputs": [
        {
          "name": "",
          "type": "uint256"
        }
      ],
      "payable": false,
      "stateMutability": "view",
      "type": "function"
    },
    {
      "constant": true,
      "inputs": [],
      "name": "pendingAdmin",
      "outputs": [
        {
          "name": "",
          "type": "address"
        }
      ],
      "payable": false,
      "stateMutability": "view",
      "type": "function"
    },
    {
      "constant": true,
      "inputs": [],
      "name": "getOperators",
      "outputs": [
        {
          "name": "",
          "type": "address[]"
        }
      ],
      "payable": false,
      "stateMutability": "view",
      "type": "function"
    },
    {
      "constant": true,
      "inputs": [],
      "name": "otc",
      "outputs": [
        {
          "name": "",
          "type": "address"
        }
      ],
      "payable": false,
      "stateMutability": "view",
      "type": "function"
    },
    {
      "constant": false,
      "inputs": [
        {
          "name": "token",
          "type": "address"
        },
        {
          "name": "amount",
          "type": "uint256"
        },
        {
          "name": "sendTo",
          "type": "address"
        }
      ],
      "name": "withdrawToken",
      "outputs": [],
      "payable": false,
      "stateMutability": "nonpayable",
      "type": "function"
    },
    {
      "constant": false,
      "inputs": [
        {
          "name": "newAlerter",
          "type": "address"
        }
      ],
      "name": "addAlerter",
      "outputs": [],
      "payable": false,
      "stateMutability": "nonpayable",
      "type": "function"
    },
    {
      "constant": true,
      "inputs": [],
      "name": "sanityRatesContract",
      "outputs": [
        {
          "name": "",
          "type": "address"
        }
      ],
      "payable": false,
      "stateMutability": "view",
      "type": "function"
    },
    {
      "constant": true,
      "inputs": [],
      "name": "wethToken",
      "outputs": [
        {
          "name": "",
          "type": "address"
        }
      ],
      "payable": false,
      "stateMutability": "view",
      "type": "function"
    },
    {
      "constant": true,
      "inputs": [
        {
          "name": "",
          "type": "address"
        }
      ],
      "name": "tokenMinSrcAmount",
      "outputs": [
        {
          "name": "",
          "type": "uint256"
        }
      ],
      "payable": false,
      "stateMutability": "view",
      "type": "function"
    },
    {
      "constant": false,
      "inputs": [
        {
          "name": "newAdmin",
          "type": "address"
        }
      ],
      "name": "transferAdmin",
      "outputs": [],
      "payable": false,
      "stateMutability": "nonpayable",
      "type": "function"
    },
    {
      "constant": false,
      "inputs": [],
      "name": "claimAdmin",
      "outputs": [],
      "payable": false,
      "stateMutability": "nonpayable",
      "type": "function"
    },
    {
      "constant": false,
      "inputs": [
        {
          "name": "newAdmin",
          "type": "address"
        }
      ],
      "name": "transferAdminQuickly",
      "outputs": [],
      "payable": false,
      "stateMutability": "nonpayable",
      "type": "function"
    },
    {
      "constant": true,
      "inputs": [],
      "name": "getAlerters",
      "outputs": [
        {
          "name": "",
          "type": "address[]"
        }
      ],
      "payable": false,
      "stateMutability": "view",
      "type": "function"
    },
    {
      "constant": true,
      "inputs": [
        {
          "name": "",
          "type": "address"
        }
      ],
      "name": "maxTokenBalance",
      "outputs": [
        {
          "name": "",
          "type": "uint256"
        }
      ],
      "payable": false,
      "stateMutability": "view",
      "type": "function"
    },
    {
      "constant": false,
      "inputs": [
        {
          "name": "newOperator",
          "type": "address"
        }
      ],
      "name": "addOperator",
      "outputs": [],
      "payable": false,
      "stateMutability": "nonpayable",
      "type": "function"
    },
    {
      "constant": false,
      "inputs": [
        {
          "name": "operator",
          "type": "address"
        }
      ],
      "name": "removeOperator",
      "outputs": [],
      "payable": false,
      "stateMutability": "nonpayable",
      "type": "function"
    },
    {
      "constant": true,
      "inputs": [],
      "name": "kyberNetwork",
      "outputs": [
        {
          "name": "",
          "type": "address"
        }
      ],
      "payable": false,
      "stateMutability": "view",
      "type": "function"
    },
    {
      "constant": false,
      "inputs": [
        {
          "name": "amount",
          "type": "uint256"
        },
        {
          "name": "sendTo",
          "type": "address"
        }
      ],
      "name": "withdrawEther",
      "outputs": [],
      "payable": false,
      "stateMutability": "nonpayable",
      "type": "function"
    },
    {
      "constant": true,
      "inputs": [
        {
          "name": "",
          "type": "address"
        }
      ],
      "name": "minTokenBalance",
      "outputs": [
        {
          "name": "",
          "type": "uint256"
        }
      ],
      "payable": false,
      "stateMutability": "view",
      "type": "function"
    },
    {
      "constant": true,
      "inputs": [
        {
          "name": "token",
          "type": "address"
        },
        {
          "name": "user",
          "type": "address"
        }
      ],
      "name": "getBalance",
      "outputs": [
        {
          "name": "",
          "type": "uint256"
        }
      ],
      "payable": false,
      "stateMutability": "view",
      "type": "function"
    },
    {
      "constant": true,
      "inputs": [],
      "name": "tradeEnabled",
      "outputs": [
        {
          "name": "",
          "type": "bool"
        }
      ],
      "payable": false,
      "stateMutability": "view",
      "type": "function"
    },
    {
      "constant": true,
      "inputs": [
        {
          "name": "",
          "type": "address"
        }
      ],
      "name": "minOasisSpreadForinternalPricingBps",
      "outputs": [
        {
          "name": "",
          "type": "uint256"
        }
      ],
      "payable": false,
      "stateMutability": "view",
      "type": "function"
    },
    {
      "constant": true,
      "inputs": [
        {
          "name": "",
          "type": "address"
        }
      ],
      "name": "isTokenListed",
      "outputs": [
        {
          "name": "",
          "type": "bool"
        }
      ],
      "payable": false,
      "stateMutability": "view",
      "type": "function"
    },
    {
      "constant": true,
      "inputs": [],
      "name": "admin",
      "outputs": [
        {
          "name": "",
          "type": "address"
        }
      ],
      "payable": false,
      "stateMutability": "view",
      "type": "function"
    },
    {
      "inputs": [
        {
          "name": "_kyberNetwork",
          "type": "address"
        },
        {
          "name": "_otc",
          "type": "address"
        },
        {
          "name": "_wethToken",
          "type": "address"
        },
        {
          "name": "_admin",
          "type": "address"
        },
        {
          "name": "_feeBps",
          "type": "uint256"
        }
      ],
      "payable": false,
      "stateMutability": "nonpayable",
      "type": "constructor"
    },
    {
      "payable": true,
      "stateMutability": "payable",
      "type": "fallback"
    },
    {
      "anonymous": false,
      "inputs": [
        {
          "indexed": true,
          "name": "sender",
          "type": "address"
        },
        {
          "indexed": false,
          "name": "src",
          "type": "address"
        },
        {
          "indexed": false,
          "name": "srcAmount",
          "type": "uint256"
        },
        {
          "indexed": false,
          "name": "destToken",
          "type": "address"
        },
        {
          "indexed": false,
          "name": "destAmount",
          "type": "uint256"
        },
        {
          "indexed": false,
          "name": "destAddress",
          "type": "address"
        }
      ],
      "name": "TradeExecute",
      "type": "event"
    },
    {
      "anonymous": false,
      "inputs": [
        {
          "indexed": false,
          "name": "enable",
          "type": "bool"
        }
      ],
      "name": "TradeEnabled",
      "type": "event"
    },
    {
      "anonymous": false,
      "inputs": [
        {
          "indexed": false,
          "name": "kyberNetwork",
          "type": "address"
        }
      ],
      "name": "KyberNetworkSet",
      "type": "event"
    },
    {
      "anonymous": false,
      "inputs": [
        {
          "indexed": false,
          "name": "feeBps",
          "type": "uint256"
        }
      ],
      "name": "FeeBpsSet",
      "type": "event"
    },
    {
      "anonymous": false,
      "inputs": [
        {
          "indexed": false,
          "name": "token",
          "type": "address"
        },
        {
          "indexed": false,
          "name": "amount",
          "type": "uint256"
        },
        {
          "indexed": false,
          "name": "sendTo",
          "type": "address"
        }
      ],
      "name": "TokenWithdraw",
      "type": "event"
    },
    {
      "anonymous": false,
      "inputs": [
        {
          "indexed": false,
          "name": "amount",
          "type": "uint256"
        },
        {
          "indexed": false,
          "name": "sendTo",
          "type": "address"
        }
      ],
      "name": "EtherWithdraw",
      "type": "event"
    },
    {
      "anonymous": false,
      "inputs": [
        {
          "indexed": false,
          "name": "pendingAdmin",
          "type": "address"
        }
      ],
      "name": "TransferAdminPending",
      "type": "event"
    },
    {
      "anonymous": false,
      "inputs": [
        {
          "indexed": false,
          "name": "newAdmin",
          "type": "address"
        },
        {
          "indexed": false,
          "name": "previousAdmin",
          "type": "address"
        }
      ],
      "name": "AdminClaimed",
      "type": "event"
    },
    {
      "anonymous": false,
      "inputs": [
        {
          "indexed": false,
          "name": "newAlerter",
          "type": "address"
        },
        {
          "indexed": false,
          "name": "isAdd",
          "type": "bool"
        }
      ],
      "name": "AlerterAdded",
      "type": "event"
    },
    {
      "anonymous": false,
      "inputs": [
        {
          "indexed": false,
          "name": "newOperator",
          "type": "address"
        },
        {
          "indexed": false,
          "name": "isAdd",
          "type": "bool"
        }
      ],
      "name": "OperatorAdded",
      "type": "event"
    },
    {
      "constant": false,
      "inputs": [
        {
          "name": "token",
          "type": "address"
        },
        {
          "name": "minSrcAmount",
          "type": "uint256"
        }
      ],
      "name": "listToken",
      "outputs": [],
      "payable": false,
      "stateMutability": "nonpayable",
      "type": "function"
    },
    {
      "constant": false,
      "inputs": [
        {
          "name": "token",
          "type": "address"
        }
      ],
      "name": "delistToken",
      "outputs": [],
      "payable": false,
      "stateMutability": "nonpayable",
      "type": "function"
    },
    {
      "constant": false,
      "inputs": [
        {
          "name": "token",
          "type": "address"
        },
        {
          "name": "minSpreadBps",
          "type": "uint256"
        },
        {
          "name": "premiumBps",
          "type": "uint256"
        }
      ],
      "name": "setInternalPriceAdminParams",
      "outputs": [],
      "payable": false,
      "stateMutability": "nonpayable",
      "type": "function"
    },
    {
      "constant": false,
      "inputs": [
        {
          "name": "token",
          "type": "address"
        },
        {
          "name": "minBalance",
          "type": "uint256"
        },
        {
          "name": "maxBalance",
          "type": "uint256"
        }
      ],
      "name": "setInternalInventoryMinMax",
      "outputs": [],
      "payable": false,
      "stateMutability": "nonpayable",
      "type": "function"
    },
    {
      "constant": false,
      "inputs": [
        {
          "name": "srcToken",
          "type": "address"
        },
        {
          "name": "srcAmount",
          "type": "uint256"
        },
        {
          "name": "destToken",
          "type": "address"
        },
        {
          "name": "destAddress",
          "type": "address"
        },
        {
          "name": "conversionRate",
          "type": "uint256"
        },
        {
          "name": "validate",
          "type": "bool"
        }
      ],
      "name": "trade",
      "outputs": [
        {
          "name": "",
          "type": "bool"
        }
      ],
      "payable": true,
      "stateMutability": "payable",
      "type": "function"
    },
    {
      "constant": false,
      "inputs": [],
      "name": "enableTrade",
      "outputs": [
        {
          "name": "",
          "type": "bool"
        }
      ],
      "payable": false,
      "stateMutability": "nonpayable",
      "type": "function"
    },
    {
      "constant": false,
      "inputs": [],
      "name": "disableTrade",
      "outputs": [
        {
          "name": "",
          "type": "bool"
        }
      ],
      "payable": false,
      "stateMutability": "nonpayable",
      "type": "function"
    },
    {
      "constant": false,
      "inputs": [
        {
          "name": "_kyberNetwork",
          "type": "address"
        }
      ],
      "name": "setKyberNetwork",
      "outputs": [],
      "payable": false,
      "stateMutability": "nonpayable",
      "type": "function"
    },
    {
      "constant": false,
      "inputs": [
        {
          "name": "_feeBps",
          "type": "uint256"
        }
      ],
      "name": "setFeeBps",
      "outputs": [],
      "payable": false,
      "stateMutability": "nonpayable",
      "type": "function"
    },
    {
      "constant": true,
      "inputs": [
        {
          "name": "val",
          "type": "uint256"
        }
      ],
      "name": "valueAfterReducingFee",
      "outputs": [
        {
          "name": "",
          "type": "uint256"
        }
      ],
      "payable": false,
      "stateMutability": "view",
      "type": "function"
    },
    {
      "constant": true,
      "inputs": [
        {
          "name": "val",
          "type": "uint256"
        }
      ],
      "name": "valueBeforeFeesWereReduced",
      "outputs": [
        {
          "name": "",
          "type": "uint256"
        }
      ],
      "payable": false,
      "stateMutability": "view",
      "type": "function"
    },
    {
      "constant": true,
      "inputs": [
        {
          "name": "token",
          "type": "address"
        },
        {
          "name": "val",
          "type": "uint256"
        }
      ],
      "name": "valueAfterAddingPremium",
      "outputs": [
        {
          "name": "",
          "type": "uint256"
        }
      ],
      "payable": false,
      "stateMutability": "view",
      "type": "function"
    },
    {
      "constant": true,
      "inputs": [
        {
          "name": "token",
          "type": "address"
        },
        {
          "name": "tokenVal",
          "type": "uint256"
        },
        {
          "name": "ethVal",
          "type": "uint256"
        },
        {
          "name": "ethToToken",
          "type": "bool"
        }
      ],
      "name": "shouldUseInternalInventory",
      "outputs": [
        {
          "name": "",
          "type": "bool"
        }
      ],
      "payable": false,
      "stateMutability": "view",
      "type": "function"
    },
    {
      "constant": true,
      "inputs": [
        {
          "name": "src",
          "type": "address"
        },
        {
          "name": "dest",
          "type": "address"
        },
        {
          "name": "srcQty",
          "type": "uint256"
        },
        {
          "name": "blockNumber",
          "type": "uint256"
        }
      ],
      "name": "getConversionRate",
      "outputs": [
        {
          "name": "",
          "type": "uint256"
        }
      ],
      "payable": false,
      "stateMutability": "view",
      "type": "function"
    }
  ],
  "bytecode": "0x60606040526000600760006101000a81548173ffffffffffffffffffffffffffffffffffffffff021916908373ffffffffffffffffffffffffffffffffffffffff16021790555034156200005257600080fd5b60405160a08062004d3583398101604052808051906020019091908051906020019091908051906020019091908051906020019091908051906020019091905050336000806101000a81548173ffffffffffffffffffffffffffffffffffffffff021916908373ffffffffffffffffffffffffffffffffffffffff160217905550600073ffffffffffffffffffffffffffffffffffffffff168273ffffffffffffffffffffffffffffffffffffffff16141515156200011057600080fd5b600073ffffffffffffffffffffffffffffffffffffffff168573ffffffffffffffffffffffffffffffffffffffff16141515156200014d57600080fd5b600073ffffffffffffffffffffffffffffffffffffffff168473ffffffffffffffffffffffffffffffffffffffff16141515156200018a57600080fd5b600073ffffffffffffffffffffffffffffffffffffffff168373ffffffffffffffffffffffffffffffffffffffff1614151515620001c757600080fd5b61271081101515620001d857600080fd5b6012620001f9846200046e64010000000002620037ad176401000000009004565b1415156200020657600080fd5b84600860006101000a81548173ffffffffffffffffffffffffffffffffffffffff021916908373ffffffffffffffffffffffffffffffffffffffff16021790555083600960006101000a81548173ffffffffffffffffffffffffffffffffffffffff021916908373ffffffffffffffffffffffffffffffffffffffff16021790555082600a60006101000a81548173ffffffffffffffffffffffffffffffffffffffff021916908373ffffffffffffffffffffffffffffffffffffffff160217905550816000806101000a81548173ffffffffffffffffffffffffffffffffffffffff021916908373ffffffffffffffffffffffffffffffffffffffff160217905550806012819055506001601160006101000a81548160ff021916908315150217905550600a60009054906101000a900473ffffffffffffffffffffffffffffffffffffffff1673ffffffffffffffffffffffffffffffffffffffff1663095ea7b3600960009054906101000a900473ffffffffffffffffffffffffffffffffffffffff167f80000000000000000000000000000000000000000000000000000000000000006000604051602001526040518363ffffffff167c0100000000000000000000000000000000000000000000000000000000028152600401808373ffffffffffffffffffffffffffffffffffffffff1673ffffffffffffffffffffffffffffffffffffffff16815260200182815260200192505050602060405180830381600087803b15156200043b57600080fd5b6102c65a03f115156200044d57600080fd5b5050506040518051905015156200046357600080fd5b5050505050620005ab565b60008073eeeeeeeeeeeeeeeeeeeeeeeeeeeeeeeeeeeeeeee73ffffffffffffffffffffffffffffffffffffffff168373ffffffffffffffffffffffffffffffffffffffff161415620004c45760129150620005a5565b600660008473ffffffffffffffffffffffffffffffffffffffff1673ffffffffffffffffffffffffffffffffffffffff1681526020019081526020016000205490506000811415620005a1578273ffffffffffffffffffffffffffffffffffffffff1663313ce5676000604051602001526040518163ffffffff167c0100000000000000000000000000000000000000000000000000000000028152600401602060405180830381600087803b15156200057d57600080fd5b6102c65a03f115156200058f57600080fd5b505050604051805190509150620005a5565b8091505b50919050565b61477a80620005bb6000396000f3006060604052600436106101ed576000357c0100000000000000000000000000000000000000000000000000000000900463ffffffff16806299d386146101ef57806301a12fd31461021c5780630717d7c3146102555780631db950781461029757806324a9d853146102e4578063267822471461030d578063274544ce1461036257806327a099d8146103b857806336b61e3c146104225780633ccdbb2814610477578063408ee7fe146104d857806347e6924f146105115780634b57b0be1461056657806354a325a6146105bb5780635b714690146105f45780635cf4a0da1461062b5780636940030f146106785780636cf69811146106a55780636f3d80431461074657806372c27b621461077d57806375829def146107a057806377f50f97146107d95780637acc8678146107ee5780637c423f54146108275780637cd442721461089157806390b7e28f1461090f5780639870d7fe1461095c578063abffc9ac14610995578063ac8a584a146109ce578063b78b842d14610a07578063ce56c45414610a5c578063d1a7593014610a9e578063d4fac45d14610aeb578063d621e81314610b57578063d6b45f7914610b84578063e2c44ac514610bd1578063e69ec65314610c1c578063f845584214610c6d578063f851a44014610cb8578063fda51fe014610d0d575b005b34156101fa57600080fd5b610202610d7b565b604051808215151515815260200191505060405180910390f35b341561022757600080fd5b610253600480803573ffffffffffffffffffffffffffffffffffffffff16906020019091905050610e36565b005b341561026057600080fd5b610295600480803573ffffffffffffffffffffffffffffffffffffffff169060200190919080359060200190919050506110f8565b005b34156102a257600080fd5b6102ce600480803573ffffffffffffffffffffffffffffffffffffffff169060200190919050506114e5565b6040518082815260200191505060405180910390f35b34156102ef57600080fd5b6102f76114fd565b6040518082815260200191505060405180910390f35b341561031857600080fd5b610320611503565b604051808273ffffffffffffffffffffffffffffffffffffffff1673ffffffffffffffffffffffffffffffffffffffff16815260200191505060405180910390f35b341561036d57600080fd5b6103a2600480803573ffffffffffffffffffffffffffffffffffffffff16906020019091908035906020019091905050611529565b6040518082815260200191505060405180910390f35b34156103c357600080fd5b6103cb6115a6565b6040518080602001828103825283818151815260200191508051906020019060200280838360005b8381101561040e5780820151818401526020810190506103f3565b505050509050019250505060405180910390f35b341561042d57600080fd5b61043561163a565b604051808273ffffffffffffffffffffffffffffffffffffffff1673ffffffffffffffffffffffffffffffffffffffff16815260200191505060405180910390f35b341561048257600080fd5b6104d6600480803573ffffffffffffffffffffffffffffffffffffffff1690602001909190803590602001909190803573ffffffffffffffffffffffffffffffffffffffff16906020019091905050611660565b005b34156104e357600080fd5b61050f600480803573ffffffffffffffffffffffffffffffffffffffff16906020019091905050611830565b005b341561051c57600080fd5b610524611a26565b604051808273ffffffffffffffffffffffffffffffffffffffff1673ffffffffffffffffffffffffffffffffffffffff16815260200191505060405180910390f35b341561057157600080fd5b610579611a4c565b604051808273ffffffffffffffffffffffffffffffffffffffff1673ffffffffffffffffffffffffffffffffffffffff16815260200191505060405180910390f35b34156105c657600080fd5b6105f2600480803573ffffffffffffffffffffffffffffffffffffffff16906020019091905050611a72565b005b34156105ff57600080fd5b6106156004808035906020019091905050611bd2565b6040518082815260200191505060405180910390f35b341561063657600080fd5b610662600480803573ffffffffffffffffffffffffffffffffffffffff16906020019091905050611c0c565b6040518082815260200191505060405180910390f35b341561068357600080fd5b61068b611c24565b604051808215151515815260200191505060405180910390f35b61072c600480803573ffffffffffffffffffffffffffffffffffffffff1690602001909190803590602001909190803573ffffffffffffffffffffffffffffffffffffffff1690602001909190803573ffffffffffffffffffffffffffffffffffffffff169060200190919080359060200190919080351515906020019091905050611cdc565b604051808215151515815260200191505060405180910390f35b341561075157600080fd5b6107676004808035906020019091905050611d7c565b6040518082815260200191505060405180910390f35b341561078857600080fd5b61079e6004808035906020019091905050611db6565b005b34156107ab57600080fd5b6107d7600480803573ffffffffffffffffffffffffffffffffffffffff16906020019091905050611e64565b005b34156107e457600080fd5b6107ec611fc4565b005b34156107f957600080fd5b610825600480803573ffffffffffffffffffffffffffffffffffffffff169060200190919050506121a0565b005b341561083257600080fd5b61083a612395565b6040518080602001828103825283818151815260200191508051906020019060200280838360005b8381101561087d578082015181840152602081019050610862565b505050509050019250505060405180910390f35b341561089c57600080fd5b6108f9600480803573ffffffffffffffffffffffffffffffffffffffff1690602001909190803573ffffffffffffffffffffffffffffffffffffffff16906020019091908035906020019091908035906020019091905050612429565b6040518082815260200191505060405180910390f35b341561091a57600080fd5b610946600480803573ffffffffffffffffffffffffffffffffffffffff169060200190919050506126e5565b6040518082815260200191505060405180910390f35b341561096757600080fd5b610993600480803573ffffffffffffffffffffffffffffffffffffffff169060200190919050506126fd565b005b34156109a057600080fd5b6109cc600480803573ffffffffffffffffffffffffffffffffffffffff169060200190919050506128f3565b005b34156109d957600080fd5b610a05600480803573ffffffffffffffffffffffffffffffffffffffff16906020019091905050612c3a565b005b3415610a1257600080fd5b610a1a612eff565b604051808273ffffffffffffffffffffffffffffffffffffffff1673ffffffffffffffffffffffffffffffffffffffff16815260200191505060405180910390f35b3415610a6757600080fd5b610a9c600480803590602001909190803573ffffffffffffffffffffffffffffffffffffffff16906020019091905050612f25565b005b3415610aa957600080fd5b610ad5600480803573ffffffffffffffffffffffffffffffffffffffff1690602001909190505061302f565b6040518082815260200191505060405180910390f35b3415610af657600080fd5b610b41600480803573ffffffffffffffffffffffffffffffffffffffff1690602001909190803573ffffffffffffffffffffffffffffffffffffffff16906020019091905050613047565b6040518082815260200191505060405180910390f35b3415610b6257600080fd5b610b6a613177565b604051808215151515815260200191505060405180910390f35b3415610b8f57600080fd5b610bbb600480803573ffffffffffffffffffffffffffffffffffffffff1690602001909190505061318a565b6040518082815260200191505060405180910390f35b3415610bdc57600080fd5b610c1a600480803573ffffffffffffffffffffffffffffffffffffffff169060200190919080359060200190919080359060200190919050506131a2565b005b3415610c2757600080fd5b610c53600480803573ffffffffffffffffffffffffffffffffffffffff169060200190919050506132df565b604051808215151515815260200191505060405180910390f35b3415610c7857600080fd5b610cb6600480803573ffffffffffffffffffffffffffffffffffffffff169060200190919080359060200190919080359060200190919050506132ff565b005b3415610cc357600080fd5b610ccb613461565b604051808273ffffffffffffffffffffffffffffffffffffffff1673ffffffffffffffffffffffffffffffffffffffff16815260200191505060405180910390f35b3415610d1857600080fd5b610d61600480803573ffffffffffffffffffffffffffffffffffffffff169060200190919080359060200190919080359060200190919080351515906020019091905050613486565b604051808215151515815260200191505060405180910390f35b60008060009054906101000a900473ffffffffffffffffffffffffffffffffffffffff1673ffffffffffffffffffffffffffffffffffffffff163373ffffffffffffffffffffffffffffffffffffffff16141515610dd857600080fd5b6001601160006101000a81548160ff0219169083151502179055507f7d7f00509dd73ac4449f698ae75ccc797895eff5fa9d446d3df387598a26e7356001604051808215151515815260200191505060405180910390a16001905090565b60008060009054906101000a900473ffffffffffffffffffffffffffffffffffffffff1673ffffffffffffffffffffffffffffffffffffffff163373ffffffffffffffffffffffffffffffffffffffff16141515610e9357600080fd5b600360008373ffffffffffffffffffffffffffffffffffffffff1673ffffffffffffffffffffffffffffffffffffffff16815260200190815260200160002060009054906101000a900460ff161515610eeb57600080fd5b6000600360008473ffffffffffffffffffffffffffffffffffffffff1673ffffffffffffffffffffffffffffffffffffffff16815260200190815260200160002060006101000a81548160ff021916908315150217905550600090505b6005805490508110156110f4578173ffffffffffffffffffffffffffffffffffffffff16600582815481101515610f7b57fe5b906000526020600020900160009054906101000a900473ffffffffffffffffffffffffffffffffffffffff1673ffffffffffffffffffffffffffffffffffffffff1614156110e9576005600160058054905003815481101515610fda57fe5b906000526020600020900160009054906101000a900473ffffffffffffffffffffffffffffffffffffffff1660058281548110151561101557fe5b906000526020600020900160006101000a81548173ffffffffffffffffffffffffffffffffffffffff021916908373ffffffffffffffffffffffffffffffffffffffff160217905550600580548091906001900361107391906146bd565b507f5611bf3e417d124f97bf2c788843ea8bb502b66079fbee02158ef30b172cb762826000604051808373ffffffffffffffffffffffffffffffffffffffff1673ffffffffffffffffffffffffffffffffffffffff168152602001821515151581526020019250505060405180910390a16110f4565b806001019050610f48565b5050565b6000809054906101000a900473ffffffffffffffffffffffffffffffffffffffff1673ffffffffffffffffffffffffffffffffffffffff163373ffffffffffffffffffffffffffffffffffffffff1614151561115357600080fd5b600073ffffffffffffffffffffffffffffffffffffffff168273ffffffffffffffffffffffffffffffffffffffff161415151561118f57600080fd5b600b60008373ffffffffffffffffffffffffffffffffffffffff1673ffffffffffffffffffffffffffffffffffffffff16815260200190815260200160002060009054906101000a900460ff161515156111e857600080fd5b60126111f3836137ad565b1415156111ff57600080fd5b8173ffffffffffffffffffffffffffffffffffffffff1663095ea7b3600960009054906101000a900473ffffffffffffffffffffffffffffffffffffffff167f80000000000000000000000000000000000000000000000000000000000000006000604051602001526040518363ffffffff167c0100000000000000000000000000000000000000000000000000000000028152600401808373ffffffffffffffffffffffffffffffffffffffff1673ffffffffffffffffffffffffffffffffffffffff16815260200182815260200192505050602060405180830381600087803b15156112ec57600080fd5b6102c65a03f115156112fd57600080fd5b50505060405180519050151561131257600080fd5b6001600b60008473ffffffffffffffffffffffffffffffffffffffff1673ffffffffffffffffffffffffffffffffffffffff16815260200190815260200160002060006101000a81548160ff02191690831515021790555080600c60008473ffffffffffffffffffffffffffffffffffffffff1673ffffffffffffffffffffffffffffffffffffffff168152602001908152602001600020819055507f8000000000000000000000000000000000000000000000000000000000000000600d60008473ffffffffffffffffffffffffffffffffffffffff1673ffffffffffffffffffffffffffffffffffffffff168152602001908152602001600020819055506000600e60008473ffffffffffffffffffffffffffffffffffffffff1673ffffffffffffffffffffffffffffffffffffffff168152602001908152602001600020819055506000600f60008473ffffffffffffffffffffffffffffffffffffffff1673ffffffffffffffffffffffffffffffffffffffff168152602001908152602001600020819055506000601060008473ffffffffffffffffffffffffffffffffffffffff1673ffffffffffffffffffffffffffffffffffffffff168152602001908152602001600020819055505050565b600f6020528060005260406000206000915090505481565b60125481565b600160009054906101000a900473ffffffffffffffffffffffffffffffffffffffff1681565b6000806b204fce5e3e25026110000000831115151561154757600080fd5b600f60008573ffffffffffffffffffffffffffffffffffffffff1673ffffffffffffffffffffffffffffffffffffffff1681526020019081526020016000205490506127108161271001840281151561159c57fe5b0491505092915050565b6115ae6146e9565b600480548060200260200160405190810160405280929190818152602001828054801561163057602002820191906000526020600020905b8160009054906101000a900473ffffffffffffffffffffffffffffffffffffffff1673ffffffffffffffffffffffffffffffffffffffff16815260200190600101908083116115e6575b5050505050905090565b600960009054906101000a900473ffffffffffffffffffffffffffffffffffffffff1681565b6000809054906101000a900473ffffffffffffffffffffffffffffffffffffffff1673ffffffffffffffffffffffffffffffffffffffff163373ffffffffffffffffffffffffffffffffffffffff161415156116bb57600080fd5b8273ffffffffffffffffffffffffffffffffffffffff1663a9059cbb82846000604051602001526040518363ffffffff167c0100000000000000000000000000000000000000000000000000000000028152600401808373ffffffffffffffffffffffffffffffffffffffff1673ffffffffffffffffffffffffffffffffffffffff16815260200182815260200192505050602060405180830381600087803b151561176657600080fd5b6102c65a03f1151561177757600080fd5b50505060405180519050151561178c57600080fd5b7f72cb8a894ddb372ceec3d2a7648d86f17d5a15caae0e986c53109b8a9a9385e6838383604051808473ffffffffffffffffffffffffffffffffffffffff1673ffffffffffffffffffffffffffffffffffffffff1681526020018381526020018273ffffffffffffffffffffffffffffffffffffffff1673ffffffffffffffffffffffffffffffffffffffff168152602001935050505060405180910390a1505050565b6000809054906101000a900473ffffffffffffffffffffffffffffffffffffffff1673ffffffffffffffffffffffffffffffffffffffff163373ffffffffffffffffffffffffffffffffffffffff1614151561188b57600080fd5b600360008273ffffffffffffffffffffffffffffffffffffffff1673ffffffffffffffffffffffffffffffffffffffff16815260200190815260200160002060009054906101000a900460ff161515156118e457600080fd5b60326005805490501015156118f857600080fd5b7f5611bf3e417d124f97bf2c788843ea8bb502b66079fbee02158ef30b172cb762816001604051808373ffffffffffffffffffffffffffffffffffffffff1673ffffffffffffffffffffffffffffffffffffffff168152602001821515151581526020019250505060405180910390a16001600360008373ffffffffffffffffffffffffffffffffffffffff1673ffffffffffffffffffffffffffffffffffffffff16815260200190815260200160002060006101000a81548160ff021916908315150217905550600580548060010182816119d491906146fd565b9160005260206000209001600083909190916101000a81548173ffffffffffffffffffffffffffffffffffffffff021916908373ffffffffffffffffffffffffffffffffffffffff1602179055505050565b600760009054906101000a900473ffffffffffffffffffffffffffffffffffffffff1681565b600a60009054906101000a900473ffffffffffffffffffffffffffffffffffffffff1681565b6000809054906101000a900473ffffffffffffffffffffffffffffffffffffffff1673ffffffffffffffffffffffffffffffffffffffff163373ffffffffffffffffffffffffffffffffffffffff16141515611acd57600080fd5b600073ffffffffffffffffffffffffffffffffffffffff168173ffffffffffffffffffffffffffffffffffffffff1614151515611b0957600080fd5b80600860006101000a81548173ffffffffffffffffffffffffffffffffffffffff021916908373ffffffffffffffffffffffffffffffffffffffff1602179055507f38622430bb6defd4452b087e8d0b4a6d1c4d35c179c2d7d875d4abb272b9d88b600860009054906101000a900473ffffffffffffffffffffffffffffffffffffffff16604051808273ffffffffffffffffffffffffffffffffffffffff1673ffffffffffffffffffffffffffffffffffffffff16815260200191505060405180910390a150565b60006b204fce5e3e250261100000008211151515611bef57600080fd5b601254612710036127108302811515611c0457fe5b049050919050565b600c6020528060005260406000206000915090505481565b6000600360003373ffffffffffffffffffffffffffffffffffffffff1673ffffffffffffffffffffffffffffffffffffffff16815260200190815260200160002060009054906101000a900460ff161515611c7e57600080fd5b6000601160006101000a81548160ff0219169083151502179055507f7d7f00509dd73ac4449f698ae75ccc797895eff5fa9d446d3df387598a26e7356000604051808215151515815260200191505060405180910390a16001905090565b6000601160009054906101000a900460ff161515611cf957600080fd5b600860009054906101000a900473ffffffffffffffffffffffffffffffffffffffff1673ffffffffffffffffffffffffffffffffffffffff163373ffffffffffffffffffffffffffffffffffffffff16141515611d5557600080fd5b611d638787878787876138e4565b1515611d6e57600080fd5b600190509695505050505050565b60006b204fce5e3e250261100000008211151515611d9957600080fd5b612710826012546127100302811515611dae57fe5b049050919050565b6000809054906101000a900473ffffffffffffffffffffffffffffffffffffffff1673ffffffffffffffffffffffffffffffffffffffff163373ffffffffffffffffffffffffffffffffffffffff16141515611e1157600080fd5b61271081101515611e2157600080fd5b806012819055507f4f78c4ceb393a616bbd264a4584a9ad15d722042ce1e135e6a8380217f5cb42b6012546040518082815260200191505060405180910390a150565b6000809054906101000a900473ffffffffffffffffffffffffffffffffffffffff1673ffffffffffffffffffffffffffffffffffffffff163373ffffffffffffffffffffffffffffffffffffffff16141515611ebf57600080fd5b600073ffffffffffffffffffffffffffffffffffffffff168173ffffffffffffffffffffffffffffffffffffffff1614151515611efb57600080fd5b7f3b81caf78fa51ecbc8acb482fd7012a277b428d9b80f9d156e8a54107496cc40600160009054906101000a900473ffffffffffffffffffffffffffffffffffffffff16604051808273ffffffffffffffffffffffffffffffffffffffff1673ffffffffffffffffffffffffffffffffffffffff16815260200191505060405180910390a180600160006101000a81548173ffffffffffffffffffffffffffffffffffffffff021916908373ffffffffffffffffffffffffffffffffffffffff16021790555050565b3373ffffffffffffffffffffffffffffffffffffffff16600160009054906101000a900473ffffffffffffffffffffffffffffffffffffffff1673ffffffffffffffffffffffffffffffffffffffff1614151561202057600080fd5b7f65da1cfc2c2e81576ad96afb24a581f8e109b7a403b35cbd3243a1c99efdb9ed600160009054906101000a900473ffffffffffffffffffffffffffffffffffffffff166000809054906101000a900473ffffffffffffffffffffffffffffffffffffffff16604051808373ffffffffffffffffffffffffffffffffffffffff1673ffffffffffffffffffffffffffffffffffffffff1681526020018273ffffffffffffffffffffffffffffffffffffffff1673ffffffffffffffffffffffffffffffffffffffff1681526020019250505060405180910390a1600160009054906101000a900473ffffffffffffffffffffffffffffffffffffffff166000806101000a81548173ffffffffffffffffffffffffffffffffffffffff021916908373ffffffffffffffffffffffffffffffffffffffff1602179055506000600160006101000a81548173ffffffffffffffffffffffffffffffffffffffff021916908373ffffffffffffffffffffffffffffffffffffffff160217905550565b6000809054906101000a900473ffffffffffffffffffffffffffffffffffffffff1673ffffffffffffffffffffffffffffffffffffffff163373ffffffffffffffffffffffffffffffffffffffff161415156121fb57600080fd5b600073ffffffffffffffffffffffffffffffffffffffff168173ffffffffffffffffffffffffffffffffffffffff161415151561223757600080fd5b7f3b81caf78fa51ecbc8acb482fd7012a277b428d9b80f9d156e8a54107496cc4081604051808273ffffffffffffffffffffffffffffffffffffffff1673ffffffffffffffffffffffffffffffffffffffff16815260200191505060405180910390a17f65da1cfc2c2e81576ad96afb24a581f8e109b7a403b35cbd3243a1c99efdb9ed816000809054906101000a900473ffffffffffffffffffffffffffffffffffffffff16604051808373ffffffffffffffffffffffffffffffffffffffff1673ffffffffffffffffffffffffffffffffffffffff1681526020018273ffffffffffffffffffffffffffffffffffffffff1673ffffffffffffffffffffffffffffffffffffffff1681526020019250505060405180910390a1806000806101000a81548173ffffffffffffffffffffffffffffffffffffffff021916908373ffffffffffffffffffffffffffffffffffffffff16021790555050565b61239d6146e9565b600580548060200260200160405190810160405280929190818152602001828054801561241f57602002820191906000526020600020905b8160009054906101000a900473ffffffffffffffffffffffffffffffffffffffff1673ffffffffffffffffffffffffffffffffffffffff16815260200190600101908083116123d5575b5050505050905090565b600080600080600080600080600080601160009054906101000a900460ff16151561245757600099506126d4565b6124618e8e613ef4565b151561247057600099506126d4565b73eeeeeeeeeeeeeeeeeeeeeeeeeeeeeeeeeeeeeeee73ffffffffffffffffffffffffffffffffffffffff168e73ffffffffffffffffffffffffffffffffffffffff1614156124e857600a60009054906101000a900473ffffffffffffffffffffffffffffffffffffffff1696508c95508b97506125f9565b73eeeeeeeeeeeeeeeeeeeeeeeeeeeeeeeeeeeeeeee73ffffffffffffffffffffffffffffffffffffffff168d73ffffffffffffffffffffffffffffffffffffffff1614156125ef578d9650600a60009054906101000a900473ffffffffffffffffffffffffffffffffffffffff169550600c60008f73ffffffffffffffffffffffffffffffffffffffff1673ffffffffffffffffffffffffffffffffffffffff168152602001908152602001600020548c10156125e657600c60008f73ffffffffffffffffffffffffffffffffffffffff1673ffffffffffffffffffffffffffffffffffffffff1681526020019081526020016000205497506125ea565b8b97505b6125f8565b600099506126d4565b5b61260486888a614035565b90915080955081965050508388111561262057600099506126d4565b6000925061262e8186611529565b915073eeeeeeeeeeeeeeeeeeeeeeeeeeeeeeeeeeeeeeee73ffffffffffffffffffffffffffffffffffffffff168e73ffffffffffffffffffffffffffffffffffffffff16141561268f578c90506126888183866001613486565b92506126a2565b8d905061269f8185846000613486565b92505b6126af84866012806143f2565b985082156126c8576126c1818a611529565b99506126d4565b6126d189611d7c565b99505b505050505050505050949350505050565b600e6020528060005260406000206000915090505481565b6000809054906101000a900473ffffffffffffffffffffffffffffffffffffffff1673ffffffffffffffffffffffffffffffffffffffff163373ffffffffffffffffffffffffffffffffffffffff1614151561275857600080fd5b600260008273ffffffffffffffffffffffffffffffffffffffff1673ffffffffffffffffffffffffffffffffffffffff16815260200190815260200160002060009054906101000a900460ff161515156127b157600080fd5b60326004805490501015156127c557600080fd5b7f091a7a4b85135fdd7e8dbc18b12fabe5cc191ea867aa3c2e1a24a102af61d58b816001604051808373ffffffffffffffffffffffffffffffffffffffff1673ffffffffffffffffffffffffffffffffffffffff168152602001821515151581526020019250505060405180910390a16001600260008373ffffffffffffffffffffffffffffffffffffffff1673ffffffffffffffffffffffffffffffffffffffff16815260200190815260200160002060006101000a81548160ff021916908315150217905550600480548060010182816128a191906146fd565b9160005260206000209001600083909190916101000a81548173ffffffffffffffffffffffffffffffffffffffff021916908373ffffffffffffffffffffffffffffffffffffffff1602179055505050565b6000809054906101000a900473ffffffffffffffffffffffffffffffffffffffff1673ffffffffffffffffffffffffffffffffffffffff163373ffffffffffffffffffffffffffffffffffffffff1614151561294e57600080fd5b600b60008273ffffffffffffffffffffffffffffffffffffffff1673ffffffffffffffffffffffffffffffffffffffff16815260200190815260200160002060009054906101000a900460ff1615156129a657600080fd5b8073ffffffffffffffffffffffffffffffffffffffff1663095ea7b3600960009054906101000a900473ffffffffffffffffffffffffffffffffffffffff16600080604051602001526040518363ffffffff167c0100000000000000000000000000000000000000000000000000000000028152600401808373ffffffffffffffffffffffffffffffffffffffff1673ffffffffffffffffffffffffffffffffffffffff16815260200182815260200192505050602060405180830381600087803b1515612a7357600080fd5b6102c65a03f11515612a8457600080fd5b505050604051805190501515612a9957600080fd5b600b60008273ffffffffffffffffffffffffffffffffffffffff1673ffffffffffffffffffffffffffffffffffffffff16815260200190815260200160002060006101000a81549060ff0219169055600c60008273ffffffffffffffffffffffffffffffffffffffff1673ffffffffffffffffffffffffffffffffffffffff16815260200190815260200160002060009055600d60008273ffffffffffffffffffffffffffffffffffffffff1673ffffffffffffffffffffffffffffffffffffffff16815260200190815260200160002060009055600e60008273ffffffffffffffffffffffffffffffffffffffff1673ffffffffffffffffffffffffffffffffffffffff16815260200190815260200160002060009055600f60008273ffffffffffffffffffffffffffffffffffffffff1673ffffffffffffffffffffffffffffffffffffffff16815260200190815260200160002060009055601060008273ffffffffffffffffffffffffffffffffffffffff1673ffffffffffffffffffffffffffffffffffffffff1681526020019081526020016000206000905550565b60008060009054906101000a900473ffffffffffffffffffffffffffffffffffffffff1673ffffffffffffffffffffffffffffffffffffffff163373ffffffffffffffffffffffffffffffffffffffff16141515612c9757600080fd5b600260008373ffffffffffffffffffffffffffffffffffffffff1673ffffffffffffffffffffffffffffffffffffffff16815260200190815260200160002060009054906101000a900460ff161515612cef57600080fd5b6000600260008473ffffffffffffffffffffffffffffffffffffffff1673ffffffffffffffffffffffffffffffffffffffff16815260200190815260200160002060006101000a81548160ff021916908315150217905550600090505b600480549050811015612efb578173ffffffffffffffffffffffffffffffffffffffff16600482815481101515612d7f57fe5b906000526020600020900160009054906101000a900473ffffffffffffffffffffffffffffffffffffffff1673ffffffffffffffffffffffffffffffffffffffff161415612ef0576004600160048054905003815481101515612dde57fe5b906000526020600020900160009054906101000a900473ffffffffffffffffffffffffffffffffffffffff16600482815481101515612e1957fe5b906000526020600020900160006101000a81548173ffffffffffffffffffffffffffffffffffffffff021916908373ffffffffffffffffffffffffffffffffffffffff1602179055506001600481818054905003915081612e7a91906146bd565b507f091a7a4b85135fdd7e8dbc18b12fabe5cc191ea867aa3c2e1a24a102af61d58b826000604051808373ffffffffffffffffffffffffffffffffffffffff1673ffffffffffffffffffffffffffffffffffffffff168152602001821515151581526020019250505060405180910390a1612efb565b806001019050612d4c565b5050565b600860009054906101000a900473ffffffffffffffffffffffffffffffffffffffff1681565b6000809054906101000a900473ffffffffffffffffffffffffffffffffffffffff1673ffffffffffffffffffffffffffffffffffffffff163373ffffffffffffffffffffffffffffffffffffffff16141515612f8057600080fd5b8073ffffffffffffffffffffffffffffffffffffffff166108fc839081150290604051600060405180830381858888f193505050501515612fc057600080fd5b7fec47e7ed86c86774d1a72c19f35c639911393fe7c1a34031fdbd260890da90de8282604051808381526020018273ffffffffffffffffffffffffffffffffffffffff1673ffffffffffffffffffffffffffffffffffffffff1681526020019250505060405180910390a15050565b600d6020528060005260406000206000915090505481565b600073eeeeeeeeeeeeeeeeeeeeeeeeeeeeeeeeeeeeeeee73ffffffffffffffffffffffffffffffffffffffff168373ffffffffffffffffffffffffffffffffffffffff1614156130b0578173ffffffffffffffffffffffffffffffffffffffff16319050613171565b8273ffffffffffffffffffffffffffffffffffffffff166370a08231836000604051602001526040518263ffffffff167c0100000000000000000000000000000000000000000000000000000000028152600401808273ffffffffffffffffffffffffffffffffffffffff1673ffffffffffffffffffffffffffffffffffffffff168152602001915050602060405180830381600087803b151561315357600080fd5b6102c65a03f1151561316457600080fd5b5050506040518051905090505b92915050565b601160009054906101000a900460ff1681565b60106020528060005260406000206000915090505481565b600260003373ffffffffffffffffffffffffffffffffffffffff1673ffffffffffffffffffffffffffffffffffffffff16815260200190815260200160002060009054906101000a900460ff1615156131fa57600080fd5b600b60008473ffffffffffffffffffffffffffffffffffffffff1673ffffffffffffffffffffffffffffffffffffffff16815260200190815260200160002060009054906101000a900460ff16151561325257600080fd5b81600d60008573ffffffffffffffffffffffffffffffffffffffff1673ffffffffffffffffffffffffffffffffffffffff1681526020019081526020016000208190555080600e60008573ffffffffffffffffffffffffffffffffffffffff1673ffffffffffffffffffffffffffffffffffffffff16815260200190815260200160002081905550505050565b600b6020528060005260406000206000915054906101000a900460ff1681565b6000809054906101000a900473ffffffffffffffffffffffffffffffffffffffff1673ffffffffffffffffffffffffffffffffffffffff163373ffffffffffffffffffffffffffffffffffffffff1614151561335a57600080fd5b600b60008473ffffffffffffffffffffffffffffffffffffffff1673ffffffffffffffffffffffffffffffffffffffff16815260200190815260200160002060009054906101000a900460ff1615156133b257600080fd5b6101f481111515156133c357600080fd5b6103e882111515156133d457600080fd5b80600f60008573ffffffffffffffffffffffffffffffffffffffff1673ffffffffffffffffffffffffffffffffffffffff1681526020019081526020016000208190555081601060008573ffffffffffffffffffffffffffffffffffffffff1673ffffffffffffffffffffffffffffffffffffffff16815260200190815260200160002081905550505050565b6000809054906101000a900473ffffffffffffffffffffffffffffffffffffffff1681565b6000806000806000806b204fce5e3e2502611000000089111515156134aa57600080fd5b8973ffffffffffffffffffffffffffffffffffffffff166370a08231306000604051602001526040518263ffffffff167c0100000000000000000000000000000000000000000000000000000000028152600401808273ffffffffffffffffffffffffffffffffffffffff1673ffffffffffffffffffffffffffffffffffffffff168152602001915050602060405180830381600087803b151561354d57600080fd5b6102c65a03f1151561355e57600080fd5b50505060405180519050945086156135d8578885101561358157600095506137a0565b600d60008b73ffffffffffffffffffffffffffffffffffffffff1673ffffffffffffffffffffffffffffffffffffffff1681526020019081526020016000205489860310156135d357600095506137a0565b613653565b873073ffffffffffffffffffffffffffffffffffffffff1631101561360057600095506137a0565b600e60008b73ffffffffffffffffffffffffffffffffffffffff1673ffffffffffffffffffffffffffffffffffffffff16815260200190815260200160002054898601111561365257600095506137a0565b5b6136818a600a60009054906101000a900473ffffffffffffffffffffffffffffffffffffffff166000614035565b90915080945081955050506136ba600a60009054906101000a900473ffffffffffffffffffffffffffffffffffffffff168b6000614035565b90915080935081925050506b204fce5e3e2502611000000084111580156136ed57506b204fce5e3e250261100000008211155b801561370557506b204fce5e3e250261100000008311155b801561371d57506b204fce5e3e250261100000008111155b151561372857600080fd5b828202818502111561373d57600095506137a0565b601060008b73ffffffffffffffffffffffffffffffffffffffff1673ffffffffffffffffffffffffffffffffffffffff16815260200190815260200160002054818502028185028484020361271002101561379b57600095506137a0565b600195505b5050505050949350505050565b60008073eeeeeeeeeeeeeeeeeeeeeeeeeeeeeeeeeeeeeeee73ffffffffffffffffffffffffffffffffffffffff168373ffffffffffffffffffffffffffffffffffffffff16141561380157601291506138de565b600660008473ffffffffffffffffffffffffffffffffffffffff1673ffffffffffffffffffffffffffffffffffffffff16815260200190815260200160002054905060008114156138da578273ffffffffffffffffffffffffffffffffffffffff1663313ce5676000604051602001526040518163ffffffff167c0100000000000000000000000000000000000000000000000000000000028152600401602060405180830381600087803b15156138b857600080fd5b6102c65a03f115156138c957600080fd5b5050506040518051905091506138de565b8091505b50919050565b6000806000806138f48a89613ef4565b15156138ff57600080fd5b84156139805760008611151561391457600080fd5b73eeeeeeeeeeeeeeeeeeeeeeeeeeeeeeeeeeeeeeee73ffffffffffffffffffffffffffffffffffffffff168a73ffffffffffffffffffffffffffffffffffffffff16141561396f57883414151561396a57600080fd5b61397f565b60003414151561397e57600080fd5b5b5b61398d89601280896144a3565b915060008211151561399e57600080fd5b6139a782611bd2565b905073eeeeeeeeeeeeeeeeeeeeeeeeeeeeeeeeeeeeeeee73ffffffffffffffffffffffffffffffffffffffff168a73ffffffffffffffffffffffffffffffffffffffff161415613bb4576139ff888360006001613486565b1515613ade57600a60009054906101000a900473ffffffffffffffffffffffffffffffffffffffff1673ffffffffffffffffffffffffffffffffffffffff1663d0e30db0346040518263ffffffff167c01000000000000000000000000000000000000000000000000000000000281526004016000604051808303818588803b1515613a8a57600080fd5b6125ee5a03f11515613a9b57600080fd5b50505050613acc600a60009054906101000a900473ffffffffffffffffffffffffffffffffffffffff16898b614555565b9250808310151515613add57600080fd5b5b8773ffffffffffffffffffffffffffffffffffffffff1663a9059cbb88846000604051602001526040518363ffffffff167c0100000000000000000000000000000000000000000000000000000000028152600401808373ffffffffffffffffffffffffffffffffffffffff1673ffffffffffffffffffffffffffffffffffffffff16815260200182815260200192505050602060405180830381600087803b1515613b8957600080fd5b6102c65a03f11515613b9a57600080fd5b505050604051805190501515613baf57600080fd5b613df1565b8973ffffffffffffffffffffffffffffffffffffffff166323b872dd33308c6000604051602001526040518463ffffffff167c0100000000000000000000000000000000000000000000000000000000028152600401808473ffffffffffffffffffffffffffffffffffffffff1673ffffffffffffffffffffffffffffffffffffffff1681526020018373ffffffffffffffffffffffffffffffffffffffff1673ffffffffffffffffffffffffffffffffffffffff1681526020018281526020019350505050602060405180830381600087803b1515613c9357600080fd5b6102c65a03f11515613ca457600080fd5b505050604051805190501515613cb957600080fd5b613cc78a6000846000613486565b1515613db057613cfa8a600a60009054906101000a900473ffffffffffffffffffffffffffffffffffffffff168b614555565b9250808310151515613d0b57600080fd5b600a60009054906101000a900473ffffffffffffffffffffffffffffffffffffffff1673ffffffffffffffffffffffffffffffffffffffff16632e1a7d4d846040518263ffffffff167c010000000000000000000000000000000000000000000000000000000002815260040180828152602001915050600060405180830381600087803b1515613d9b57600080fd5b6102c65a03f11515613dac57600080fd5b5050505b8673ffffffffffffffffffffffffffffffffffffffff166108fc839081150290604051600060405180830381858888f193505050501515613df057600080fd5b5b3373ffffffffffffffffffffffffffffffffffffffff167fea9415385bae08fe9f6dc457b02577166790cde83bb18cc340aac6cb81b824de8b8b8b868c604051808673ffffffffffffffffffffffffffffffffffffffff1673ffffffffffffffffffffffffffffffffffffffff1681526020018581526020018473ffffffffffffffffffffffffffffffffffffffff1673ffffffffffffffffffffffffffffffffffffffff1681526020018381526020018273ffffffffffffffffffffffffffffffffffffffff1673ffffffffffffffffffffffffffffffffffffffff1681526020019550505050505060405180910390a2600193505050509695505050505050565b6000600b60008473ffffffffffffffffffffffffffffffffffffffff1673ffffffffffffffffffffffffffffffffffffffff16815260200190815260200160002060009054906101000a900460ff168015613f8e57508173ffffffffffffffffffffffffffffffffffffffff1673eeeeeeeeeeeeeeeeeeeeeeeeeeeeeeeeeeeeeeee73ffffffffffffffffffffffffffffffffffffffff16145b8061402d5750600b60008373ffffffffffffffffffffffffffffffffffffffff1673ffffffffffffffffffffffffffffffffffffffff16815260200190815260200160002060009054906101000a900460ff16801561402c57508273ffffffffffffffffffffffffffffffffffffffff1673eeeeeeeeeeeeeeeeeeeeeeeeeeeeeeeeeeeeeeee73ffffffffffffffffffffffffffffffffffffffff16145b5b905092915050565b600080600080600960009054906101000a900473ffffffffffffffffffffffffffffffffffffffff1673ffffffffffffffffffffffffffffffffffffffff16630374fc6f88886000604051602001526040518363ffffffff167c0100000000000000000000000000000000000000000000000000000000028152600401808373ffffffffffffffffffffffffffffffffffffffff1673ffffffffffffffffffffffffffffffffffffffff1681526020018273ffffffffffffffffffffffffffffffffffffffff1673ffffffffffffffffffffffffffffffffffffffff16815260200192505050602060405180830381600087803b151561413457600080fd5b6102c65a03f1151561414557600080fd5b505050604051805190509350600960009054906101000a900473ffffffffffffffffffffffffffffffffffffffff1673ffffffffffffffffffffffffffffffffffffffff16634579268a856000604051608001526040518263ffffffff167c010000000000000000000000000000000000000000000000000000000002815260040180828152602001915050608060405180830381600087803b15156141ea57600080fd5b6102c65a03f115156141fb57600080fd5b50505060405180519060200180519060200180519060200180519050909150508093508194505050600190505b818511156143e857600960009054906101000a900473ffffffffffffffffffffffffffffffffffffffff1673ffffffffffffffffffffffffffffffffffffffff1663943911bc856000604051602001526040518263ffffffff167c010000000000000000000000000000000000000000000000000000000002815260040180828152602001915050602060405180830381600087803b15156142c957600080fd5b6102c65a03f115156142da57600080fd5b50505060405180519050935060008414806142fb5750600781600101915081115b15614311576000935060009250600091506143e8565b600960009054906101000a900473ffffffffffffffffffffffffffffffffffffffff1673ffffffffffffffffffffffffffffffffffffffff16634579268a856000604051608001526040518263ffffffff167c010000000000000000000000000000000000000000000000000000000002815260040180828152602001915050608060405180830381600087803b15156143aa57600080fd5b6102c65a03f115156143bb57600080fd5b50505060405180519060200180519060200180519060200180519050909150508093508194505050614228565b5093509350939050565b60006b204fce5e3e25026110000000851115151561440f57600080fd5b6b204fce5e3e25026110000000841115151561442a57600080fd5b82821015156144695760128383031115151561444557600080fd5b84838303600a0a02670de0b6b3a7640000850281151561446157fe5b04905061449b565b60128284031115151561447b57600080fd5b84828403600a0a670de0b6b3a764000086020281151561449757fe5b0490505b949350505050565b60006b204fce5e3e2502611000000085111515156144c057600080fd5b620f4240670de0b6b3a76400000282111515156144dc57600080fd5b838310151561451b576012848403111515156144f757600080fd5b670de0b6b3a7640000848403600a0a8387020281151561451357fe5b04905061454d565b60128385031115151561452d57600080fd5b828403600a0a670de0b6b3a76400000282860281151561454957fe5b0490505b949350505050565b600080600080614566868887614035565b8093508194508295505050506b204fce5e3e25026110000000851115151561458d57600080fd5b6b204fce5e3e2502611000000082111515156145a857600080fd5b808286028115156145b557fe5b04935083846fffffffffffffffffffffffffffffffff161415156145d857600080fd5b600960009054906101000a900473ffffffffffffffffffffffffffffffffffffffff1673ffffffffffffffffffffffffffffffffffffffff16634960645584600102866040518363ffffffff167c0100000000000000000000000000000000000000000000000000000000028152600401808360001916600019168152602001826fffffffffffffffffffffffffffffffff166fffffffffffffffffffffffffffffffff16815260200192505050600060405180830381600087803b151561469f57600080fd5b6102c65a03f115156146b057600080fd5b5050505050509392505050565b8154818355818115116146e4578183600052602060002091820191016146e39190614729565b5b505050565b602060405190810160405280600081525090565b815481835581811511614724578183600052602060002091820191016147239190614729565b5b505050565b61474b91905b8082111561474757600081600090555060010161472f565b5090565b905600a165627a7a72305820d9526dc5a90693c373ecc0f9cc8e4b195cd127d737cc1bfa7aef9e9404bc8fb40029",
  "source": "pragma solidity 0.4.18;\n\nimport \"../ERC20Interface.sol\";\nimport \"../Utils2.sol\";\nimport \"../Withdrawable.sol\";\nimport \"../KyberReserveInterface.sol\";\n\n\ncontract OtcInterface {\n    function getOffer(uint id) public constant returns (uint, ERC20, uint, ERC20);\n    function getBestOffer(ERC20 sellGem, ERC20 buyGem) public constant returns(uint);\n    function getWorseOffer(uint id) public constant returns(uint);\n    function take(bytes32 id, uint128 maxTakeAmount) public;\n}\n\n\ncontract WethInterface is ERC20 {\n    function deposit() public payable;\n    function withdraw(uint) public;\n}\n\n\ncontract KyberOasisReserve is KyberReserveInterface, Withdrawable, Utils2 {\n\n    uint constant internal COMMON_DECIMALS = 18;\n    address public sanityRatesContract = 0;\n    address public kyberNetwork;\n    OtcInterface public otc;\n    WethInterface public wethToken;\n    mapping(address=>bool) public isTokenListed;\n    mapping(address=>uint) public tokenMinSrcAmount;\n    mapping(address=>uint) public minTokenBalance;\n    mapping(address=>uint) public maxTokenBalance;\n    mapping(address=>uint) public internalPricePremiumBps;\n    mapping(address=>uint) public minOasisSpreadForinternalPricingBps;\n    bool public tradeEnabled;\n    uint public feeBps;\n\n    function KyberOasisReserve(\n        address _kyberNetwork,\n        OtcInterface _otc,\n        WethInterface _wethToken,\n        address _admin,\n        uint _feeBps\n    )\n        public\n    {\n        require(_admin != address(0));\n        require(_kyberNetwork != address(0));\n        require(_otc != address(0));\n        require(_wethToken != address(0));\n        require(_feeBps < 10000);\n        require(getDecimals(_wethToken) == COMMON_DECIMALS);\n\n        kyberNetwork = _kyberNetwork;\n        otc = _otc;\n        wethToken = _wethToken;\n        admin = _admin;\n        feeBps = _feeBps;\n        tradeEnabled = true;\n\n        require(wethToken.approve(otc, 2**255));\n    }\n\n    function() public payable {\n        // anyone can deposit ether\n    }\n\n    function listToken(ERC20 token, uint minSrcAmount) public onlyAdmin {\n        require(token != address(0));\n        require(!isTokenListed[token]);\n        require(getDecimals(token) == COMMON_DECIMALS);\n\n        require(token.approve(otc, 2**255));\n        isTokenListed[token] = true;\n        tokenMinSrcAmount[token] = minSrcAmount;\n        minTokenBalance[token] = 2 ** 255; // disable by default\n        maxTokenBalance[token] = 0; // disable by default;\n        internalPricePremiumBps[token] = 0; // NA by default\n        minOasisSpreadForinternalPricingBps[token] = 0; // NA by default\n    }\n\n    function delistToken(ERC20 token) public onlyAdmin {\n        require(isTokenListed[token]);\n\n        require(token.approve(otc, 0));\n        delete isTokenListed[token];\n        delete tokenMinSrcAmount[token];\n        delete minTokenBalance[token];\n        delete maxTokenBalance[token];\n        delete internalPricePremiumBps[token];\n        delete minOasisSpreadForinternalPricingBps[token];\n    }\n\n    function setInternalPriceAdminParams(ERC20 token,\n                                         uint minSpreadBps,\n                                         uint premiumBps) public onlyAdmin {\n        require(isTokenListed[token]);\n        require(premiumBps <= 500); // premium <= 5%\n        require(minSpreadBps <= 1000); // min spread <= 10%\n\n        internalPricePremiumBps[token] = premiumBps;\n        minOasisSpreadForinternalPricingBps[token] = minSpreadBps;\n    }\n\n    function setInternalInventoryMinMax(ERC20 token,\n                                        uint  minBalance,\n                                        uint  maxBalance) public onlyOperator {\n        require(isTokenListed[token]);\n\n        // don't require anything on min and max balance as it might be used for disable\n        minTokenBalance[token] = minBalance;\n        maxTokenBalance[token] = maxBalance;\n    }\n\n    event TradeExecute(\n        address indexed sender,\n        address src,\n        uint srcAmount,\n        address destToken,\n        uint destAmount,\n        address destAddress\n    );\n\n    function trade(\n        ERC20 srcToken,\n        uint srcAmount,\n        ERC20 destToken,\n        address destAddress,\n        uint conversionRate,\n        bool validate\n    )\n        public\n        payable\n        returns(bool)\n    {\n\n        require(tradeEnabled);\n        require(msg.sender == kyberNetwork);\n\n        require(doTrade(srcToken, srcAmount, destToken, destAddress, conversionRate, validate));\n\n        return true;\n    }\n\n    event TradeEnabled(bool enable);\n\n    function enableTrade() public onlyAdmin returns(bool) {\n        tradeEnabled = true;\n        TradeEnabled(true);\n\n        return true;\n    }\n\n    function disableTrade() public onlyAlerter returns(bool) {\n        tradeEnabled = false;\n        TradeEnabled(false);\n\n        return true;\n    }\n\n    event KyberNetworkSet(address kyberNetwork);\n\n    function setKyberNetwork(address _kyberNetwork) public onlyAdmin {\n        require(_kyberNetwork != address(0));\n\n        kyberNetwork = _kyberNetwork;\n        KyberNetworkSet(kyberNetwork);\n    }\n\n    event FeeBpsSet(uint feeBps);\n\n    function setFeeBps(uint _feeBps) public onlyAdmin {\n        require(_feeBps < 10000);\n\n        feeBps = _feeBps;\n        FeeBpsSet(feeBps);\n    }\n\n    function valueAfterReducingFee(uint val) public view returns(uint) {\n        require(val <= MAX_QTY);\n        return ((10000 - feeBps) * val) / 10000;\n    }\n\n    function valueBeforeFeesWereReduced(uint val) public view returns(uint) {\n        require(val <= MAX_QTY);\n        return val * 10000 / (10000 - feeBps);\n    }\n\n    function valueAfterAddingPremium(ERC20 token, uint val) public view returns(uint) {\n        require(val <= MAX_QTY);\n        uint premium = internalPricePremiumBps[token];\n\n        return val * (10000 + premium) / 10000;\n    }\n    function shouldUseInternalInventory(ERC20 token,\n                                        uint tokenVal,\n                                        uint ethVal,\n                                        bool ethToToken) public view returns(bool) {\n        require(tokenVal <= MAX_QTY);\n\n        uint tokenBalance = token.balanceOf(this);\n        if (ethToToken) {\n            if (tokenBalance < tokenVal) return false;\n            if (tokenBalance - tokenVal < minTokenBalance[token]) return false;\n        }\n        else {\n            if (this.balance < ethVal) return false;\n            if (tokenBalance + tokenVal > maxTokenBalance[token]) return false;\n        }\n\n        // check that spread in first level makes sense\n        uint x1; uint y1; uint x2; uint y2;\n        (,x1,y1) = getMatchingOffer(token, wethToken, 0);\n        (,y2,x2) = getMatchingOffer(wethToken, token, 0);\n\n        require(x1 <= MAX_QTY && x2 <= MAX_QTY && y1 <= MAX_QTY && y2 <= MAX_QTY);\n\n        // check if there is an arbitrage\n        if (x1*y2 > x2*y1) return false;\n\n        // spread is (x1/y1 - x2/y2) / (x1/y1)\n        if (10000 * (x2*y1 - x1*y2) < x1*y2*minOasisSpreadForinternalPricingBps[token]) return false;\n\n\n        return true;\n    }\n\n    function getConversionRate(ERC20 src, ERC20 dest, uint srcQty, uint blockNumber) public view returns(uint) {\n        uint  rate;\n        uint  actualSrcQty;\n        ERC20 actualSrc;\n        ERC20 actualDest;\n        uint offerPayAmt;\n        uint offerBuyAmt;\n\n        blockNumber;\n\n        if (!tradeEnabled) return 0;\n        if (!validTokens(src, dest)) return 0;\n\n        if (src == ETH_TOKEN_ADDRESS) {\n            actualSrc = wethToken;\n            actualDest = dest;\n            actualSrcQty = srcQty;\n        } else if (dest == ETH_TOKEN_ADDRESS) {\n            actualSrc = src;\n            actualDest = wethToken;\n\n            if (srcQty < tokenMinSrcAmount[src]) {\n                /* remove rounding errors and present rate for 0 src amount. */\n                actualSrcQty = tokenMinSrcAmount[src];\n            } else {\n                actualSrcQty = srcQty;\n            }\n        } else {\n            return 0;\n        }\n\n        // otc's terminology is of offer maker, so their sellGem is the taker's dest token.\n        (, offerPayAmt, offerBuyAmt) = getMatchingOffer(actualDest, actualSrc, actualSrcQty);\n\n        // make sure to take only one level of order book to avoid gas inflation.\n        if (actualSrcQty > offerBuyAmt) return 0;\n\n        bool tradeFromInventory = false;\n        uint valueWithPremium = valueAfterAddingPremium(token, offerPayAmt);\n        ERC20 token;\n        if (src == ETH_TOKEN_ADDRESS) {\n            token = dest;\n            tradeFromInventory = shouldUseInternalInventory(token,\n                                                            valueWithPremium,\n                                                            offerBuyAmt,\n                                                            true);\n        }\n        else {\n            token = src;\n            tradeFromInventory = shouldUseInternalInventory(token,\n                                                            offerBuyAmt,\n                                                            valueWithPremium,\n                                                            false);\n        }\n\n        rate = calcRateFromQty(offerBuyAmt, offerPayAmt, COMMON_DECIMALS, COMMON_DECIMALS);\n\n        if (tradeFromInventory) return valueAfterAddingPremium(token,rate);\n        else return valueAfterReducingFee(rate);\n    }\n\n    function doTrade(\n        ERC20 srcToken,\n        uint srcAmount,\n        ERC20 destToken,\n        address destAddress,\n        uint conversionRate,\n        bool validate\n    )\n        internal\n        returns(bool)\n    {\n        uint actualDestAmount;\n\n        require(validTokens(srcToken, destToken));\n\n        // can skip validation if done at kyber network level\n        if (validate) {\n            require(conversionRate > 0);\n            if (srcToken == ETH_TOKEN_ADDRESS)\n                require(msg.value == srcAmount);\n            else\n                require(msg.value == 0);\n        }\n\n        uint userExpectedDestAmount = calcDstQty(srcAmount, COMMON_DECIMALS, COMMON_DECIMALS, conversionRate);\n        require(userExpectedDestAmount > 0); // sanity check\n\n        uint destAmountIncludingFees = valueBeforeFeesWereReduced(userExpectedDestAmount);\n\n        if (srcToken == ETH_TOKEN_ADDRESS) {\n            if(!shouldUseInternalInventory(destToken,\n                                           userExpectedDestAmount,\n                                           0,\n                                           true)) {\n                wethToken.deposit.value(msg.value)();\n\n                actualDestAmount = takeMatchingOffer(wethToken, destToken, srcAmount);\n                require(actualDestAmount >= destAmountIncludingFees);\n            }\n\n            // transfer back only requested dest amount.\n            require(destToken.transfer(destAddress, userExpectedDestAmount));\n        } else {\n            require(srcToken.transferFrom(msg.sender, this, srcAmount));\n\n            if(!shouldUseInternalInventory(srcToken,\n                                           0,\n                                           userExpectedDestAmount,\n                                           false)) {\n                actualDestAmount = takeMatchingOffer(srcToken, wethToken, srcAmount);\n                require(actualDestAmount >= destAmountIncludingFees);\n                wethToken.withdraw(actualDestAmount);\n            }\n\n            // transfer back only requested dest amount.\n            destAddress.transfer(userExpectedDestAmount);\n        }\n\n        TradeExecute(msg.sender, srcToken, srcAmount, destToken, userExpectedDestAmount, destAddress);\n\n        return true;\n    }\n\n    function takeMatchingOffer(\n        ERC20 srcToken,\n        ERC20 destToken,\n        uint srcAmount\n    )\n        internal\n        returns(uint actualDestAmount)\n    {\n        uint offerId;\n        uint offerPayAmt;\n        uint offerBuyAmt;\n\n        // otc's terminology is of offer maker, so their sellGem is our (the taker's) dest token.\n        (offerId, offerPayAmt, offerBuyAmt) = getMatchingOffer(destToken, srcToken, srcAmount);\n\n        require(srcAmount <= MAX_QTY);\n        require(offerPayAmt <= MAX_QTY);\n        actualDestAmount = srcAmount * offerPayAmt / offerBuyAmt;\n\n        require(uint128(actualDestAmount) == actualDestAmount);\n        otc.take(bytes32(offerId), uint128(actualDestAmount));  // Take the portion of the offer that we need\n        return;\n    }\n\n    function getMatchingOffer(\n        ERC20 offerSellGem,\n        ERC20 offerBuyGem,\n        uint payAmount\n    )\n        internal\n        view\n        returns(\n            uint offerId,\n            uint offerPayAmount,\n            uint offerBuyAmount\n        )\n    {\n        offerId = otc.getBestOffer(offerSellGem, offerBuyGem);\n        (offerPayAmount, , offerBuyAmount, ) = otc.getOffer(offerId);\n        uint depth = 1;\n\n        while (payAmount > offerBuyAmount) {\n            offerId = otc.getWorseOffer(offerId); // We look for the next best offer\n            if (offerId == 0 || ++depth > 7) {\n                offerId = 0;\n                offerPayAmount = 0;\n                offerBuyAmount = 0;\n                break;\n            }\n            (offerPayAmount, , offerBuyAmount, ) = otc.getOffer(offerId);\n        }\n\n        return;\n    }\n\n    function validTokens(ERC20 src, ERC20 dest) internal view returns (bool valid) {\n        return ((isTokenListed[src] && ETH_TOKEN_ADDRESS == dest) ||\n                (isTokenListed[dest] && ETH_TOKEN_ADDRESS == src));\n    }\n}\n",
  "sourcePath": "/Users/oscarr/Ethereum/frappe/contracts/oasisContracts/KyberOasisReserve.sol",
  "compiler": {
    "name": "solc",
    "version": "0.4.18+commit.9cf6e910.Emscripten.clang"
  },
  "schemaVersion": "3.0.6",
  "updatedAt": "2019-05-18T17:14:13.323Z",
  "devdoc": {
    "methods": {
      "claimAdmin()": {
        "details": "Allows the pendingAdmin address to finalize the change admin process."
      },
      "getBalance(address,address)": {
        "details": "get the balance of a user.",
        "params": {
          "token": "The token type"
        },
        "return": "The balance"
      },
      "transferAdmin(address)": {
        "details": "Allows the current admin to set the pendingAdmin address.",
        "params": {
          "newAdmin": "The address to transfer ownership to."
        }
      },
      "transferAdminQuickly(address)": {
        "details": "Allows the current admin to set the admin in one tx. Useful initial deployment.",
        "params": {
          "newAdmin": "The address to transfer ownership to."
        }
      },
      "withdrawEther(uint256,address)": {
        "details": "Withdraw Ethers"
      },
      "withdrawToken(address,uint256,address)": {
        "details": "Withdraw all ERC20 compatible tokens",
        "params": {
          "token": "ERC20 The address of the token contract"
        }
      }
    }
  },
  "userdoc": {
    "methods": {}
  }
}