{
  "contractName": "KyberUniswapReserve",
  "abi": [
    {
      "constant": false,
      "inputs": [
        {
          "name": "alerter",
          "type": "address"
        }
      ],
      "name": "removeAlerter",
      "outputs": [],
      "payable": false,
      "stateMutability": "nonpayable",
      "type": "function"
    },
    {
      "constant": true,
      "inputs": [
        {
          "name": "",
          "type": "address"
        }
      ],
      "name": "tokenExchange",
      "outputs": [
        {
          "name": "",
          "type": "address"
        }
      ],
      "payable": false,
      "stateMutability": "view",
      "type": "function"
    },
    {
      "constant": true,
      "inputs": [
        {
          "name": "",
          "type": "address"
        }
      ],
      "name": "internalPricePremiumBps",
      "outputs": [
        {
          "name": "",
          "type": "uint256"
        }
      ],
      "payable": false,
      "stateMutability": "view",
      "type": "function"
    },
    {
      "constant": true,
      "inputs": [],
      "name": "feeBps",
      "outputs": [
        {
          "name": "",
          "type": "uint256"
        }
      ],
      "payable": false,
      "stateMutability": "view",
      "type": "function"
    },
    {
      "constant": true,
      "inputs": [],
      "name": "pendingAdmin",
      "outputs": [
        {
          "name": "",
          "type": "address"
        }
      ],
      "payable": false,
      "stateMutability": "view",
      "type": "function"
    },
    {
      "constant": true,
      "inputs": [],
      "name": "getOperators",
      "outputs": [
        {
          "name": "",
          "type": "address[]"
        }
      ],
      "payable": false,
      "stateMutability": "view",
      "type": "function"
    },
    {
      "constant": true,
      "inputs": [],
      "name": "DEFAULT_FEE_BPS",
      "outputs": [
        {
          "name": "",
          "type": "uint256"
        }
      ],
      "payable": false,
      "stateMutability": "view",
      "type": "function"
    },
    {
      "constant": false,
      "inputs": [
        {
          "name": "token",
          "type": "address"
        },
        {
          "name": "amount",
          "type": "uint256"
        },
        {
          "name": "sendTo",
          "type": "address"
        }
      ],
      "name": "withdrawToken",
      "outputs": [],
      "payable": false,
      "stateMutability": "nonpayable",
      "type": "function"
    },
    {
      "constant": false,
      "inputs": [
        {
          "name": "newAlerter",
          "type": "address"
        }
      ],
      "name": "addAlerter",
      "outputs": [],
      "payable": false,
      "stateMutability": "nonpayable",
      "type": "function"
    },
    {
      "constant": true,
      "inputs": [
        {
          "name": "",
          "type": "address"
        }
      ],
      "name": "internalInventoryMin",
      "outputs": [
        {
          "name": "",
          "type": "uint256"
        }
      ],
      "payable": false,
      "stateMutability": "view",
      "type": "function"
    },
    {
      "constant": false,
      "inputs": [
        {
          "name": "newAdmin",
          "type": "address"
        }
      ],
      "name": "transferAdmin",
      "outputs": [],
      "payable": false,
      "stateMutability": "nonpayable",
      "type": "function"
    },
    {
      "constant": false,
      "inputs": [],
      "name": "claimAdmin",
      "outputs": [],
      "payable": false,
      "stateMutability": "nonpayable",
      "type": "function"
    },
    {
      "constant": false,
      "inputs": [
        {
          "name": "newAdmin",
          "type": "address"
        }
      ],
      "name": "transferAdminQuickly",
      "outputs": [],
      "payable": false,
      "stateMutability": "nonpayable",
      "type": "function"
    },
    {
      "constant": true,
      "inputs": [],
      "name": "getAlerters",
      "outputs": [
        {
          "name": "",
          "type": "address[]"
        }
      ],
      "payable": false,
      "stateMutability": "view",
      "type": "function"
    },
    {
      "constant": true,
      "inputs": [],
      "name": "uniswapFactory",
      "outputs": [
        {
          "name": "",
          "type": "address"
        }
      ],
      "payable": false,
      "stateMutability": "view",
      "type": "function"
    },
    {
      "constant": false,
      "inputs": [
        {
          "name": "newOperator",
          "type": "address"
        }
      ],
      "name": "addOperator",
      "outputs": [],
      "payable": false,
      "stateMutability": "nonpayable",
      "type": "function"
    },
    {
      "constant": true,
      "inputs": [
        {
          "name": "",
          "type": "address"
        }
      ],
      "name": "internalInventoryMax",
      "outputs": [
        {
          "name": "",
          "type": "uint256"
        }
      ],
      "payable": false,
      "stateMutability": "view",
      "type": "function"
    },
    {
      "constant": false,
      "inputs": [
        {
          "name": "operator",
          "type": "address"
        }
      ],
      "name": "removeOperator",
      "outputs": [],
      "payable": false,
      "stateMutability": "nonpayable",
      "type": "function"
    },
    {
      "constant": true,
      "inputs": [],
      "name": "kyberNetwork",
      "outputs": [
        {
          "name": "",
          "type": "address"
        }
      ],
      "payable": false,
      "stateMutability": "view",
      "type": "function"
    },
    {
      "constant": true,
      "inputs": [
        {
          "name": "",
          "type": "address"
        }
      ],
      "name": "internalActivationMinSpreadBps",
      "outputs": [
        {
          "name": "",
          "type": "uint256"
        }
      ],
      "payable": false,
      "stateMutability": "view",
      "type": "function"
    },
    {
      "constant": false,
      "inputs": [
        {
          "name": "amount",
          "type": "uint256"
        },
        {
          "name": "sendTo",
          "type": "address"
        }
      ],
      "name": "withdrawEther",
      "outputs": [],
      "payable": false,
      "stateMutability": "nonpayable",
      "type": "function"
    },
    {
      "constant": true,
      "inputs": [
        {
          "name": "token",
          "type": "address"
        },
        {
          "name": "user",
          "type": "address"
        }
      ],
      "name": "getBalance",
      "outputs": [
        {
          "name": "",
          "type": "uint256"
        }
      ],
      "payable": false,
      "stateMutability": "view",
      "type": "function"
    },
    {
      "constant": true,
      "inputs": [],
      "name": "tradeEnabled",
      "outputs": [
        {
          "name": "",
          "type": "bool"
        }
      ],
      "payable": false,
      "stateMutability": "view",
      "type": "function"
    },
    {
      "constant": true,
      "inputs": [],
      "name": "admin",
      "outputs": [
        {
          "name": "",
          "type": "address"
        }
      ],
      "payable": false,
      "stateMutability": "view",
      "type": "function"
    },
    {
      "inputs": [
        {
          "name": "_uniswapFactory",
          "type": "address"
        },
        {
          "name": "_admin",
          "type": "address"
        },
        {
          "name": "_kyberNetwork",
          "type": "address"
        }
      ],
      "payable": false,
      "stateMutability": "nonpayable",
      "type": "constructor"
    },
    {
      "payable": true,
      "stateMutability": "payable",
      "type": "fallback"
    },
    {
      "anonymous": false,
      "inputs": [
        {
          "indexed": true,
          "name": "sender",
          "type": "address"
        },
        {
          "indexed": false,
          "name": "src",
          "type": "address"
        },
        {
          "indexed": false,
          "name": "srcAmount",
          "type": "uint256"
        },
        {
          "indexed": false,
          "name": "destToken",
          "type": "address"
        },
        {
          "indexed": false,
          "name": "destAmount",
          "type": "uint256"
        },
        {
          "indexed": false,
          "name": "destAddress",
          "type": "address"
        },
        {
          "indexed": false,
          "name": "useInternalInventory",
          "type": "bool"
        }
      ],
      "name": "TradeExecute",
      "type": "event"
    },
    {
      "anonymous": false,
      "inputs": [
        {
          "indexed": false,
          "name": "bps",
          "type": "uint256"
        }
      ],
      "name": "FeeUpdated",
      "type": "event"
    },
    {
      "anonymous": false,
      "inputs": [
        {
          "indexed": false,
          "name": "token",
          "type": "address"
        },
        {
          "indexed": false,
          "name": "minSpreadBps",
          "type": "uint256"
        },
        {
          "indexed": false,
          "name": "premiumBps",
          "type": "uint256"
        }
      ],
      "name": "InternalActivationConfigUpdated",
      "type": "event"
    },
    {
      "anonymous": false,
      "inputs": [
        {
          "indexed": false,
          "name": "token",
          "type": "address"
        },
        {
          "indexed": false,
          "name": "minBalance",
          "type": "uint256"
        },
        {
          "indexed": false,
          "name": "maxBalance",
          "type": "uint256"
        }
      ],
      "name": "InternalInventoryLimitsUpdated",
      "type": "event"
    },
    {
      "anonymous": false,
      "inputs": [
        {
          "indexed": false,
          "name": "token",
          "type": "address"
        },
        {
          "indexed": false,
          "name": "exchange",
          "type": "address"
        }
      ],
      "name": "TokenListed",
      "type": "event"
    },
    {
      "anonymous": false,
      "inputs": [
        {
          "indexed": false,
          "name": "token",
          "type": "address"
        }
      ],
      "name": "TokenDelisted",
      "type": "event"
    },
    {
      "anonymous": false,
      "inputs": [
        {
          "indexed": false,
          "name": "enable",
          "type": "bool"
        }
      ],
      "name": "TradeEnabled",
      "type": "event"
    },
    {
      "anonymous": false,
      "inputs": [
        {
          "indexed": false,
          "name": "kyberNetwork",
          "type": "address"
        }
      ],
      "name": "KyberNetworkSet",
      "type": "event"
    },
    {
      "anonymous": false,
      "inputs": [
        {
          "indexed": false,
          "name": "token",
          "type": "address"
        },
        {
          "indexed": false,
          "name": "amount",
          "type": "uint256"
        },
        {
          "indexed": false,
          "name": "sendTo",
          "type": "address"
        }
      ],
      "name": "TokenWithdraw",
      "type": "event"
    },
    {
      "anonymous": false,
      "inputs": [
        {
          "indexed": false,
          "name": "amount",
          "type": "uint256"
        },
        {
          "indexed": false,
          "name": "sendTo",
          "type": "address"
        }
      ],
      "name": "EtherWithdraw",
      "type": "event"
    },
    {
      "anonymous": false,
      "inputs": [
        {
          "indexed": false,
          "name": "pendingAdmin",
          "type": "address"
        }
      ],
      "name": "TransferAdminPending",
      "type": "event"
    },
    {
      "anonymous": false,
      "inputs": [
        {
          "indexed": false,
          "name": "newAdmin",
          "type": "address"
        },
        {
          "indexed": false,
          "name": "previousAdmin",
          "type": "address"
        }
      ],
      "name": "AdminClaimed",
      "type": "event"
    },
    {
      "anonymous": false,
      "inputs": [
        {
          "indexed": false,
          "name": "newAlerter",
          "type": "address"
        },
        {
          "indexed": false,
          "name": "isAdd",
          "type": "bool"
        }
      ],
      "name": "AlerterAdded",
      "type": "event"
    },
    {
      "anonymous": false,
      "inputs": [
        {
          "indexed": false,
          "name": "newOperator",
          "type": "address"
        },
        {
          "indexed": false,
          "name": "isAdd",
          "type": "bool"
        }
      ],
      "name": "OperatorAdded",
      "type": "event"
    },
    {
      "constant": true,
      "inputs": [
        {
          "name": "src",
          "type": "address"
        },
        {
          "name": "dest",
          "type": "address"
        },
        {
          "name": "srcQty",
          "type": "uint256"
        },
        {
          "name": "blockNumber",
          "type": "uint256"
        }
      ],
      "name": "getConversionRate",
      "outputs": [
        {
          "name": "",
          "type": "uint256"
        }
      ],
      "payable": false,
      "stateMutability": "view",
      "type": "function"
    },
    {
      "constant": false,
      "inputs": [
        {
          "name": "srcToken",
          "type": "address"
        },
        {
          "name": "srcAmount",
          "type": "uint256"
        },
        {
          "name": "destToken",
          "type": "address"
        },
        {
          "name": "destAddress",
          "type": "address"
        },
        {
          "name": "conversionRate",
          "type": "uint256"
        },
        {
          "name": "validate",
          "type": "bool"
        }
      ],
      "name": "trade",
      "outputs": [
        {
          "name": "",
          "type": "bool"
        }
      ],
      "payable": true,
      "stateMutability": "payable",
      "type": "function"
    },
    {
      "constant": false,
      "inputs": [
        {
          "name": "bps",
          "type": "uint256"
        }
      ],
      "name": "setFee",
      "outputs": [],
      "payable": false,
      "stateMutability": "nonpayable",
      "type": "function"
    },
    {
      "constant": false,
      "inputs": [
        {
          "name": "token",
          "type": "address"
        },
        {
          "name": "minSpreadBps",
          "type": "uint256"
        },
        {
          "name": "premiumBps",
          "type": "uint256"
        }
      ],
      "name": "setInternalActivationConfig",
      "outputs": [],
      "payable": false,
      "stateMutability": "nonpayable",
      "type": "function"
    },
    {
      "constant": false,
      "inputs": [
        {
          "name": "token",
          "type": "address"
        },
        {
          "name": "minBalance",
          "type": "uint256"
        },
        {
          "name": "maxBalance",
          "type": "uint256"
        }
      ],
      "name": "setInternalInventoryLimits",
      "outputs": [],
      "payable": false,
      "stateMutability": "nonpayable",
      "type": "function"
    },
    {
      "constant": false,
      "inputs": [
        {
          "name": "token",
          "type": "address"
        }
      ],
      "name": "listToken",
      "outputs": [],
      "payable": false,
      "stateMutability": "nonpayable",
      "type": "function"
    },
    {
      "constant": false,
      "inputs": [
        {
          "name": "token",
          "type": "address"
        }
      ],
      "name": "delistToken",
      "outputs": [],
      "payable": false,
      "stateMutability": "nonpayable",
      "type": "function"
    },
    {
      "constant": true,
      "inputs": [
        {
          "name": "src",
          "type": "address"
        },
        {
          "name": "dest",
          "type": "address"
        }
      ],
      "name": "isValidTokens",
      "outputs": [
        {
          "name": "",
          "type": "bool"
        }
      ],
      "payable": false,
      "stateMutability": "view",
      "type": "function"
    },
    {
      "constant": false,
      "inputs": [],
      "name": "enableTrade",
      "outputs": [
        {
          "name": "",
          "type": "bool"
        }
      ],
      "payable": false,
      "stateMutability": "nonpayable",
      "type": "function"
    },
    {
      "constant": false,
      "inputs": [],
      "name": "disableTrade",
      "outputs": [
        {
          "name": "",
          "type": "bool"
        }
      ],
      "payable": false,
      "stateMutability": "nonpayable",
      "type": "function"
    },
    {
      "constant": false,
      "inputs": [
        {
          "name": "_kyberNetwork",
          "type": "address"
        }
      ],
      "name": "setKyberNetwork",
      "outputs": [],
      "payable": false,
      "stateMutability": "nonpayable",
      "type": "function"
    },
    {
      "constant": true,
      "inputs": [
        {
          "name": "srcToken",
          "type": "address"
        },
        {
          "name": "srcAmount",
          "type": "uint256"
        },
        {
          "name": "destToken",
          "type": "address"
        },
        {
          "name": "destAmount",
          "type": "uint256"
        },
        {
          "name": "rateSrcDest",
          "type": "uint256"
        },
        {
          "name": "rateDestSrc",
          "type": "uint256"
        }
      ],
      "name": "shouldUseInternalInventory",
      "outputs": [
        {
          "name": "",
          "type": "bool"
        }
      ],
      "payable": false,
      "stateMutability": "view",
      "type": "function"
    },
    {
      "constant": true,
      "inputs": [
        {
          "name": "_askRate",
          "type": "uint256"
        },
        {
          "name": "_bidRate",
          "type": "uint256"
        }
      ],
      "name": "calculateSpreadBps",
      "outputs": [
        {
          "name": "",
          "type": "int256"
        }
      ],
      "payable": false,
      "stateMutability": "pure",
      "type": "function"
    },
    {
      "constant": true,
      "inputs": [
        {
          "name": "amount",
          "type": "uint256"
        }
      ],
      "name": "deductFee",
      "outputs": [
        {
          "name": "",
          "type": "uint256"
        }
      ],
      "payable": false,
      "stateMutability": "view",
      "type": "function"
    },
    {
      "constant": true,
      "inputs": [
        {
          "name": "token",
          "type": "address"
        },
        {
          "name": "amount",
          "type": "uint256"
        }
      ],
      "name": "addPremium",
      "outputs": [
        {
          "name": "",
          "type": "uint256"
        }
      ],
      "payable": false,
      "stateMutability": "view",
      "type": "function"
    }
  ],
  "bytecode": "0x606060405260196009556001600f60006101000a81548160ff02191690831515021790555034156200003057600080fd5b604051606080620049e183398101604052808051906020019091908051906020019091908051906020019091905050336000806101000a81548173ffffffffffffffffffffffffffffffffffffffff021916908373ffffffffffffffffffffffffffffffffffffffff16021790555060008373ffffffffffffffffffffffffffffffffffffffff1614151515620000c657600080fd5b60008273ffffffffffffffffffffffffffffffffffffffff1614151515620000ed57600080fd5b60008173ffffffffffffffffffffffffffffffffffffffff16141515156200011457600080fd5b82600760006101000a81548173ffffffffffffffffffffffffffffffffffffffff021916908373ffffffffffffffffffffffffffffffffffffffff160217905550816000806101000a81548173ffffffffffffffffffffffffffffffffffffffff021916908373ffffffffffffffffffffffffffffffffffffffff16021790555080600860006101000a81548173ffffffffffffffffffffffffffffffffffffffff021916908373ffffffffffffffffffffffffffffffffffffffff1602179055505050506147f880620001e96000396000f3006060604052600436106101e2576000357c0100000000000000000000000000000000000000000000000000000000900463ffffffff16806299d386146101e457806301a12fd3146102115780630dd94b961461024a5780631db95078146102c35780631fc1e25f1461031057806324a9d85314610349578063267822471461037257806327a099d8146103c757806333d8262c146104315780633a6e7d391461045a5780633ccdbb28146104b0578063408ee7fe1461051157806348caa2061461054a57806354a325a6146105975780635a65d4c9146105d05780636940030f1461066457806369fe0e2d146106915780636cf69811146106b457806375829def1461075557806377f50f971461078e5780637acc8678146107a35780637be98598146107dc5780637bec03aa1461084c5780637c423f54146108975780637cd44272146109015780638bdb2afa1461097f5780639870d7fe146109d4578063998614cb14610a0d5780639b9a33ff14610a5a578063a9afaaaf14610aa5578063abffc9ac14610adc578063ac8a584a14610b15578063b78b842d14610b4e578063bc91970a14610ba3578063c3e0d71214610be3578063ce56c45414610c30578063d4fac45d14610c72578063d621e81314610cde578063f851a44014610d0b575b005b34156101ef57600080fd5b6101f7610d60565b604051808215151515815260200191505060405180910390f35b341561021c57600080fd5b610248600480803573ffffffffffffffffffffffffffffffffffffffff16906020019091905050610e1b565b005b341561025557600080fd5b610281600480803573ffffffffffffffffffffffffffffffffffffffff169060200190919050506110dd565b604051808273ffffffffffffffffffffffffffffffffffffffff1673ffffffffffffffffffffffffffffffffffffffff16815260200191505060405180910390f35b34156102ce57600080fd5b6102fa600480803573ffffffffffffffffffffffffffffffffffffffff16906020019091905050611110565b6040518082815260200191505060405180910390f35b341561031b57600080fd5b610347600480803573ffffffffffffffffffffffffffffffffffffffff16906020019091905050611128565b005b341561035457600080fd5b61035c6115d3565b6040518082815260200191505060405180910390f35b341561037d57600080fd5b6103856115d9565b604051808273ffffffffffffffffffffffffffffffffffffffff1673ffffffffffffffffffffffffffffffffffffffff16815260200191505060405180910390f35b34156103d257600080fd5b6103da6115ff565b6040518080602001828103825283818151815260200191508051906020019060200280838360005b8381101561041d578082015181840152602081019050610402565b505050509050019250505060405180910390f35b341561043c57600080fd5b610444611693565b6040518082815260200191505060405180910390f35b341561046557600080fd5b61049a600480803573ffffffffffffffffffffffffffffffffffffffff16906020019091908035906020019091905050611698565b6040518082815260200191505060405180910390f35b34156104bb57600080fd5b61050f600480803573ffffffffffffffffffffffffffffffffffffffff1690602001909190803590602001909190803573ffffffffffffffffffffffffffffffffffffffff16906020019091905050611710565b005b341561051c57600080fd5b610548600480803573ffffffffffffffffffffffffffffffffffffffff169060200190919050506118e0565b005b341561055557600080fd5b610581600480803573ffffffffffffffffffffffffffffffffffffffff16906020019091905050611ad6565b6040518082815260200191505060405180910390f35b34156105a257600080fd5b6105ce600480803573ffffffffffffffffffffffffffffffffffffffff16906020019091905050611aee565b005b34156105db57600080fd5b61064a600480803573ffffffffffffffffffffffffffffffffffffffff1690602001909190803590602001909190803573ffffffffffffffffffffffffffffffffffffffff16906020019091908035906020019091908035906020019091908035906020019091905050611c38565b604051808215151515815260200191505060405180910390f35b341561066f57600080fd5b610677611fae565b604051808215151515815260200191505060405180910390f35b341561069c57600080fd5b6106b26004808035906020019091905050612066565b005b61073b600480803573ffffffffffffffffffffffffffffffffffffffff1690602001909190803590602001909190803573ffffffffffffffffffffffffffffffffffffffff1690602001909190803573ffffffffffffffffffffffffffffffffffffffff169060200190919080359060200190919080351515906020019091905050612113565b604051808215151515815260200191505060405180910390f35b341561076057600080fd5b61078c600480803573ffffffffffffffffffffffffffffffffffffffff16906020019091905050612893565b005b341561079957600080fd5b6107a16129f3565b005b34156107ae57600080fd5b6107da600480803573ffffffffffffffffffffffffffffffffffffffff16906020019091905050612bcf565b005b34156107e757600080fd5b610832600480803573ffffffffffffffffffffffffffffffffffffffff1690602001909190803573ffffffffffffffffffffffffffffffffffffffff16906020019091905050612dc4565b604051808215151515815260200191505060405180910390f35b341561085757600080fd5b610895600480803573ffffffffffffffffffffffffffffffffffffffff16906020019091908035906020019091908035906020019091905050612f8b565b005b34156108a257600080fd5b6108aa6131a3565b6040518080602001828103825283818151815260200191508051906020019060200280838360005b838110156108ed5780820151818401526020810190506108d2565b505050509050019250505060405180910390f35b341561090c57600080fd5b610969600480803573ffffffffffffffffffffffffffffffffffffffff1690602001909190803573ffffffffffffffffffffffffffffffffffffffff16906020019091908035906020019091908035906020019091905050613237565b6040518082815260200191505060405180910390f35b341561098a57600080fd5b6109926133bc565b604051808273ffffffffffffffffffffffffffffffffffffffff1673ffffffffffffffffffffffffffffffffffffffff16815260200191505060405180910390f35b34156109df57600080fd5b610a0b600480803573ffffffffffffffffffffffffffffffffffffffff169060200190919050506133e2565b005b3415610a1857600080fd5b610a44600480803573ffffffffffffffffffffffffffffffffffffffff169060200190919050506135d8565b6040518082815260200191505060405180910390f35b3415610a6557600080fd5b610aa3600480803573ffffffffffffffffffffffffffffffffffffffff169060200190919080359060200190919080359060200190919050506135f0565b005b3415610ab057600080fd5b610ac660048080359060200190919050506137e3565b6040518082815260200191505060405180910390f35b3415610ae757600080fd5b610b13600480803573ffffffffffffffffffffffffffffffffffffffff16906020019091905050613802565b005b3415610b2057600080fd5b610b4c600480803573ffffffffffffffffffffffffffffffffffffffff16906020019091905050613acc565b005b3415610b5957600080fd5b610b61613d91565b604051808273ffffffffffffffffffffffffffffffffffffffff1673ffffffffffffffffffffffffffffffffffffffff16815260200191505060405180910390f35b3415610bae57600080fd5b610bcd6004808035906020019091908035906020019091905050613db7565b6040518082815260200191505060405180910390f35b3415610bee57600080fd5b610c1a600480803573ffffffffffffffffffffffffffffffffffffffff16906020019091905050613de0565b6040518082815260200191505060405180910390f35b3415610c3b57600080fd5b610c70600480803590602001909190803573ffffffffffffffffffffffffffffffffffffffff16906020019091905050613df8565b005b3415610c7d57600080fd5b610cc8600480803573ffffffffffffffffffffffffffffffffffffffff1690602001909190803573ffffffffffffffffffffffffffffffffffffffff16906020019091905050613f02565b6040518082815260200191505060405180910390f35b3415610ce957600080fd5b610cf1614032565b604051808215151515815260200191505060405180910390f35b3415610d1657600080fd5b610d1e614045565b604051808273ffffffffffffffffffffffffffffffffffffffff1673ffffffffffffffffffffffffffffffffffffffff16815260200191505060405180910390f35b60008060009054906101000a900473ffffffffffffffffffffffffffffffffffffffff1673ffffffffffffffffffffffffffffffffffffffff163373ffffffffffffffffffffffffffffffffffffffff16141515610dbd57600080fd5b6001600f60006101000a81548160ff0219169083151502179055507f7d7f00509dd73ac4449f698ae75ccc797895eff5fa9d446d3df387598a26e7356001604051808215151515815260200191505060405180910390a16001905090565b60008060009054906101000a900473ffffffffffffffffffffffffffffffffffffffff1673ffffffffffffffffffffffffffffffffffffffff163373ffffffffffffffffffffffffffffffffffffffff16141515610e7857600080fd5b600360008373ffffffffffffffffffffffffffffffffffffffff1673ffffffffffffffffffffffffffffffffffffffff16815260200190815260200160002060009054906101000a900460ff161515610ed057600080fd5b6000600360008473ffffffffffffffffffffffffffffffffffffffff1673ffffffffffffffffffffffffffffffffffffffff16815260200190815260200160002060006101000a81548160ff021916908315150217905550600090505b6005805490508110156110d9578173ffffffffffffffffffffffffffffffffffffffff16600582815481101515610f6057fe5b906000526020600020900160009054906101000a900473ffffffffffffffffffffffffffffffffffffffff1673ffffffffffffffffffffffffffffffffffffffff1614156110ce576005600160058054905003815481101515610fbf57fe5b906000526020600020900160009054906101000a900473ffffffffffffffffffffffffffffffffffffffff16600582815481101515610ffa57fe5b906000526020600020900160006101000a81548173ffffffffffffffffffffffffffffffffffffffff021916908373ffffffffffffffffffffffffffffffffffffffff1602179055506005805480919060019003611058919061473b565b507f5611bf3e417d124f97bf2c788843ea8bb502b66079fbee02158ef30b172cb762826000604051808373ffffffffffffffffffffffffffffffffffffffff1673ffffffffffffffffffffffffffffffffffffffff168152602001821515151581526020019250505060405180910390a16110d9565b806001019050610f2d565b5050565b600a6020528060005260406000206000915054906101000a900473ffffffffffffffffffffffffffffffffffffffff1681565b600e6020528060005260406000206000915090505481565b60008060009054906101000a900473ffffffffffffffffffffffffffffffffffffffff1673ffffffffffffffffffffffffffffffffffffffff163373ffffffffffffffffffffffffffffffffffffffff1614151561118557600080fd5b60008273ffffffffffffffffffffffffffffffffffffffff16141515156111ab57600080fd5b600760009054906101000a900473ffffffffffffffffffffffffffffffffffffffff1673ffffffffffffffffffffffffffffffffffffffff166306f2bf62836000604051602001526040518263ffffffff167c0100000000000000000000000000000000000000000000000000000000028152600401808273ffffffffffffffffffffffffffffffffffffffff1673ffffffffffffffffffffffffffffffffffffffff168152602001915050602060405180830381600087803b151561127057600080fd5b6102c65a03f1151561128157600080fd5b50505060405180519050905080600a60008473ffffffffffffffffffffffffffffffffffffffff1673ffffffffffffffffffffffffffffffffffffffff16815260200190815260200160002060006101000a81548173ffffffffffffffffffffffffffffffffffffffff021916908373ffffffffffffffffffffffffffffffffffffffff1602179055506113148261406a565b8173ffffffffffffffffffffffffffffffffffffffff1663095ea7b3827f80000000000000000000000000000000000000000000000000000000000000006000604051602001526040518363ffffffff167c0100000000000000000000000000000000000000000000000000000000028152600401808373ffffffffffffffffffffffffffffffffffffffff1673ffffffffffffffffffffffffffffffffffffffff16815260200182815260200192505050602060405180830381600087803b15156113df57600080fd5b6102c65a03f115156113f057600080fd5b50505060405180519050151561140557600080fd5b7f8000000000000000000000000000000000000000000000000000000000000000600b60008473ffffffffffffffffffffffffffffffffffffffff1673ffffffffffffffffffffffffffffffffffffffff168152602001908152602001600020819055506000600c60008473ffffffffffffffffffffffffffffffffffffffff1673ffffffffffffffffffffffffffffffffffffffff168152602001908152602001600020819055506000600d60008473ffffffffffffffffffffffffffffffffffffffff1673ffffffffffffffffffffffffffffffffffffffff168152602001908152602001600020819055506000600e60008473ffffffffffffffffffffffffffffffffffffffff1673ffffffffffffffffffffffffffffffffffffffff168152602001908152602001600020819055507f99d2b755eb38920131acb332adf086ea38d15009f223c21f3aa978d6ab2347868282604051808373ffffffffffffffffffffffffffffffffffffffff1673ffffffffffffffffffffffffffffffffffffffff1681526020018273ffffffffffffffffffffffffffffffffffffffff1673ffffffffffffffffffffffffffffffffffffffff1681526020019250505060405180910390a15050565b60095481565b600160009054906101000a900473ffffffffffffffffffffffffffffffffffffffff1681565b611607614767565b600480548060200260200160405190810160405280929190818152602001828054801561168957602002820191906000526020600020905b8160009054906101000a900473ffffffffffffffffffffffffffffffffffffffff1673ffffffffffffffffffffffffffffffffffffffff168152602001906001019080831161163f575b5050505050905090565b601981565b60006b204fce5e3e2502611000000082111515156116b557600080fd5b612710600e60008573ffffffffffffffffffffffffffffffffffffffff1673ffffffffffffffffffffffffffffffffffffffff1681526020019081526020016000205461271001830281151561170757fe5b04905092915050565b6000809054906101000a900473ffffffffffffffffffffffffffffffffffffffff1673ffffffffffffffffffffffffffffffffffffffff163373ffffffffffffffffffffffffffffffffffffffff1614151561176b57600080fd5b8273ffffffffffffffffffffffffffffffffffffffff1663a9059cbb82846000604051602001526040518363ffffffff167c0100000000000000000000000000000000000000000000000000000000028152600401808373ffffffffffffffffffffffffffffffffffffffff1673ffffffffffffffffffffffffffffffffffffffff16815260200182815260200192505050602060405180830381600087803b151561181657600080fd5b6102c65a03f1151561182757600080fd5b50505060405180519050151561183c57600080fd5b7f72cb8a894ddb372ceec3d2a7648d86f17d5a15caae0e986c53109b8a9a9385e6838383604051808473ffffffffffffffffffffffffffffffffffffffff1673ffffffffffffffffffffffffffffffffffffffff1681526020018381526020018273ffffffffffffffffffffffffffffffffffffffff1673ffffffffffffffffffffffffffffffffffffffff168152602001935050505060405180910390a1505050565b6000809054906101000a900473ffffffffffffffffffffffffffffffffffffffff1673ffffffffffffffffffffffffffffffffffffffff163373ffffffffffffffffffffffffffffffffffffffff1614151561193b57600080fd5b600360008273ffffffffffffffffffffffffffffffffffffffff1673ffffffffffffffffffffffffffffffffffffffff16815260200190815260200160002060009054906101000a900460ff1615151561199457600080fd5b60326005805490501015156119a857600080fd5b7f5611bf3e417d124f97bf2c788843ea8bb502b66079fbee02158ef30b172cb762816001604051808373ffffffffffffffffffffffffffffffffffffffff1673ffffffffffffffffffffffffffffffffffffffff168152602001821515151581526020019250505060405180910390a16001600360008373ffffffffffffffffffffffffffffffffffffffff1673ffffffffffffffffffffffffffffffffffffffff16815260200190815260200160002060006101000a81548160ff02191690831515021790555060058054806001018281611a84919061477b565b9160005260206000209001600083909190916101000a81548173ffffffffffffffffffffffffffffffffffffffff021916908373ffffffffffffffffffffffffffffffffffffffff1602179055505050565b600b6020528060005260406000206000915090505481565b6000809054906101000a900473ffffffffffffffffffffffffffffffffffffffff1673ffffffffffffffffffffffffffffffffffffffff163373ffffffffffffffffffffffffffffffffffffffff16141515611b4957600080fd5b60008173ffffffffffffffffffffffffffffffffffffffff1614151515611b6f57600080fd5b80600860006101000a81548173ffffffffffffffffffffffffffffffffffffffff021916908373ffffffffffffffffffffffffffffffffffffffff1602179055507f38622430bb6defd4452b087e8d0b4a6d1c4d35c179c2d7d875d4abb272b9d88b600860009054906101000a900473ffffffffffffffffffffffffffffffffffffffff16604051808273ffffffffffffffffffffffffffffffffffffffff1673ffffffffffffffffffffffffffffffffffffffff16815260200191505060405180910390a150565b6000806000806000806b204fce5e3e250261100000008b101515611c5b57600080fd5b6b204fce5e3e2502611000000089101515611c7557600080fd5b73eeeeeeeeeeeeeeeeeeeeeeeeeeeeeeeeeeeeeeee73ffffffffffffffffffffffffffffffffffffffff168c73ffffffffffffffffffffffffffffffffffffffff161415611de1578994508473ffffffffffffffffffffffffffffffffffffffff166370a08231306000604051602001526040518263ffffffff167c0100000000000000000000000000000000000000000000000000000000028152600401808273ffffffffffffffffffffffffffffffffffffffff1673ffffffffffffffffffffffffffffffffffffffff168152602001915050602060405180830381600087803b1515611d6357600080fd5b6102c65a03f11515611d7457600080fd5b50505060405180519050935088841080611dce5750600b60008673ffffffffffffffffffffffffffffffffffffffff1673ffffffffffffffffffffffffffffffffffffffff16815260200190815260200160002054898503105b15611ddc5760009550611f9f565b611f1c565b8b9450883073ffffffffffffffffffffffffffffffffffffffff16311015611e0c5760009550611f9f565b600c60008673ffffffffffffffffffffffffffffffffffffffff1673ffffffffffffffffffffffffffffffffffffffff168152602001908152602001600020548b8673ffffffffffffffffffffffffffffffffffffffff166370a08231306000604051602001526040518263ffffffff167c0100000000000000000000000000000000000000000000000000000000028152600401808273ffffffffffffffffffffffffffffffffffffffff1673ffffffffffffffffffffffffffffffffffffffff168152602001915050602060405180830381600087803b1515611ef057600080fd5b6102c65a03f11515611f0157600080fd5b50505060405180519050011115611f1b5760009550611f9f565b5b866ec097ce7bc90715b34b9f1000000000811515611f3657fe5b04925082881115611f4a5760009550611f9f565b600d60008673ffffffffffffffffffffffffffffffffffffffff1673ffffffffffffffffffffffffffffffffffffffff168152602001908152602001600020549150611f968389613db7565b90508181101595505b50505050509695505050505050565b6000600360003373ffffffffffffffffffffffffffffffffffffffff1673ffffffffffffffffffffffffffffffffffffffff16815260200190815260200160002060009054906101000a900460ff16151561200857600080fd5b6000600f60006101000a81548160ff0219169083151502179055507f7d7f00509dd73ac4449f698ae75ccc797895eff5fa9d446d3df387598a26e7356000604051808215151515815260200191505060405180910390a16001905090565b6000809054906101000a900473ffffffffffffffffffffffffffffffffffffffff1673ffffffffffffffffffffffffffffffffffffffff163373ffffffffffffffffffffffffffffffffffffffff161415156120c157600080fd5b61271081111515156120d257600080fd5b806009819055507f8c4d35e54a3f2ef1134138fd8ea3daee6a3c89e10d2665996babdf70261e2c76816040518082815260200191505060405180910390a150565b600080600080600080600f60009054906101000a900460ff16151561213757600080fd5b600860009054906101000a900473ffffffffffffffffffffffffffffffffffffffff1673ffffffffffffffffffffffffffffffffffffffff163373ffffffffffffffffffffffffffffffffffffffff1614151561219357600080fd5b61219d8c8b612dc4565b15156121a857600080fd5b8615612229576000881115156121bd57600080fd5b73eeeeeeeeeeeeeeeeeeeeeeeeeeeeeeeeeeeeeeee73ffffffffffffffffffffffffffffffffffffffff168c73ffffffffffffffffffffffffffffffffffffffff161415612218578a3414151561221357600080fd5b612228565b60003414151561222757600080fd5b5b5b73eeeeeeeeeeeeeeeeeeeeeeeeeeeeeeeeeeeeeeee73ffffffffffffffffffffffffffffffffffffffff168c73ffffffffffffffffffffffffffffffffffffffff16141515612378578b73ffffffffffffffffffffffffffffffffffffffff166323b872dd33308e6000604051602001526040518463ffffffff167c0100000000000000000000000000000000000000000000000000000000028152600401808473ffffffffffffffffffffffffffffffffffffffff1673ffffffffffffffffffffffffffffffffffffffff1681526020018373ffffffffffffffffffffffffffffffffffffffff1673ffffffffffffffffffffffffffffffffffffffff1681526020018281526020019350505050602060405180830381600087803b151561235157600080fd5b6102c65a03f1151561236257600080fd5b50505060405180519050151561237757600080fd5b5b6123848c8b8d8b6141ca565b9450600160028981151561239457fe5b0614935073eeeeeeeeeeeeeeeeeeeeeeeeeeeeeeeeeeeeeeee73ffffffffffffffffffffffffffffffffffffffff168c73ffffffffffffffffffffffffffffffffffffffff1614156125f857831515612522576123f08b6137e3565b9050600a60008b73ffffffffffffffffffffffffffffffffffffffff1673ffffffffffffffffffffffffffffffffffffffff16815260200190815260200160002060009054906101000a900473ffffffffffffffffffffffffffffffffffffffff1691508173ffffffffffffffffffffffffffffffffffffffff1663f39b5b9b8260017f80000000000000000000000000000000000000000000000000000000000000006000604051602001526040518463ffffffff167c010000000000000000000000000000000000000000000000000000000002815260040180838152602001828152602001925050506020604051808303818588803b15156124f457600080fd5b6125ee5a03f1151561250557600080fd5b5050505060405180519050925084831015151561252157600080fd5b5b8973ffffffffffffffffffffffffffffffffffffffff1663a9059cbb8a876000604051602001526040518363ffffffff167c0100000000000000000000000000000000000000000000000000000000028152600401808373ffffffffffffffffffffffffffffffffffffffff1673ffffffffffffffffffffffffffffffffffffffff16815260200182815260200192505050602060405180830381600087803b15156125cd57600080fd5b6102c65a03f115156125de57600080fd5b5050506040518051905015156125f357600080fd5b612782565b83151561274157600a60008d73ffffffffffffffffffffffffffffffffffffffff1673ffffffffffffffffffffffffffffffffffffffff16815260200190815260200160002060009054906101000a900473ffffffffffffffffffffffffffffffffffffffff1691508173ffffffffffffffffffffffffffffffffffffffff166395e3c50b8c60017f80000000000000000000000000000000000000000000000000000000000000006000604051602001526040518463ffffffff167c0100000000000000000000000000000000000000000000000000000000028152600401808481526020018381526020018281526020019350505050602060405180830381600087803b151561270957600080fd5b6102c65a03f1151561271a57600080fd5b50505060405180519050925061272f836137e3565b925084831015151561274057600080fd5b5b8873ffffffffffffffffffffffffffffffffffffffff166108fc869081150290604051600060405180830381858888f19350505050151561278157600080fd5b5b3373ffffffffffffffffffffffffffffffffffffffff167f3e5691bfb48667c037c1014f0b320bbf4095c37ad5cd1f0b2573366756f54ac68d8d8d898e8a604051808773ffffffffffffffffffffffffffffffffffffffff1673ffffffffffffffffffffffffffffffffffffffff1681526020018681526020018573ffffffffffffffffffffffffffffffffffffffff1673ffffffffffffffffffffffffffffffffffffffff1681526020018481526020018373ffffffffffffffffffffffffffffffffffffffff1673ffffffffffffffffffffffffffffffffffffffff16815260200182151515158152602001965050505050505060405180910390a26001955050505050509695505050505050565b6000809054906101000a900473ffffffffffffffffffffffffffffffffffffffff1673ffffffffffffffffffffffffffffffffffffffff163373ffffffffffffffffffffffffffffffffffffffff161415156128ee57600080fd5b600073ffffffffffffffffffffffffffffffffffffffff168173ffffffffffffffffffffffffffffffffffffffff161415151561292a57600080fd5b7f3b81caf78fa51ecbc8acb482fd7012a277b428d9b80f9d156e8a54107496cc40600160009054906101000a900473ffffffffffffffffffffffffffffffffffffffff16604051808273ffffffffffffffffffffffffffffffffffffffff1673ffffffffffffffffffffffffffffffffffffffff16815260200191505060405180910390a180600160006101000a81548173ffffffffffffffffffffffffffffffffffffffff021916908373ffffffffffffffffffffffffffffffffffffffff16021790555050565b3373ffffffffffffffffffffffffffffffffffffffff16600160009054906101000a900473ffffffffffffffffffffffffffffffffffffffff1673ffffffffffffffffffffffffffffffffffffffff16141515612a4f57600080fd5b7f65da1cfc2c2e81576ad96afb24a581f8e109b7a403b35cbd3243a1c99efdb9ed600160009054906101000a900473ffffffffffffffffffffffffffffffffffffffff166000809054906101000a900473ffffffffffffffffffffffffffffffffffffffff16604051808373ffffffffffffffffffffffffffffffffffffffff1673ffffffffffffffffffffffffffffffffffffffff1681526020018273ffffffffffffffffffffffffffffffffffffffff1673ffffffffffffffffffffffffffffffffffffffff1681526020019250505060405180910390a1600160009054906101000a900473ffffffffffffffffffffffffffffffffffffffff166000806101000a81548173ffffffffffffffffffffffffffffffffffffffff021916908373ffffffffffffffffffffffffffffffffffffffff1602179055506000600160006101000a81548173ffffffffffffffffffffffffffffffffffffffff021916908373ffffffffffffffffffffffffffffffffffffffff160217905550565b6000809054906101000a900473ffffffffffffffffffffffffffffffffffffffff1673ffffffffffffffffffffffffffffffffffffffff163373ffffffffffffffffffffffffffffffffffffffff16141515612c2a57600080fd5b600073ffffffffffffffffffffffffffffffffffffffff168173ffffffffffffffffffffffffffffffffffffffff1614151515612c6657600080fd5b7f3b81caf78fa51ecbc8acb482fd7012a277b428d9b80f9d156e8a54107496cc4081604051808273ffffffffffffffffffffffffffffffffffffffff1673ffffffffffffffffffffffffffffffffffffffff16815260200191505060405180910390a17f65da1cfc2c2e81576ad96afb24a581f8e109b7a403b35cbd3243a1c99efdb9ed816000809054906101000a900473ffffffffffffffffffffffffffffffffffffffff16604051808373ffffffffffffffffffffffffffffffffffffffff1673ffffffffffffffffffffffffffffffffffffffff1681526020018273ffffffffffffffffffffffffffffffffffffffff1673ffffffffffffffffffffffffffffffffffffffff1681526020019250505060405180910390a1806000806101000a81548173ffffffffffffffffffffffffffffffffffffffff021916908373ffffffffffffffffffffffffffffffffffffffff16021790555050565b600073eeeeeeeeeeeeeeeeeeeeeeeeeeeeeeeeeeeeeeee73ffffffffffffffffffffffffffffffffffffffff168373ffffffffffffffffffffffffffffffffffffffff16148015612ea15750600073ffffffffffffffffffffffffffffffffffffffff16600a60008473ffffffffffffffffffffffffffffffffffffffff1673ffffffffffffffffffffffffffffffffffffffff16815260200190815260200160002060009054906101000a900473ffffffffffffffffffffffffffffffffffffffff1673ffffffffffffffffffffffffffffffffffffffff1614155b80612f835750600073ffffffffffffffffffffffffffffffffffffffff16600a60008573ffffffffffffffffffffffffffffffffffffffff1673ffffffffffffffffffffffffffffffffffffffff16815260200190815260200160002060009054906101000a900473ffffffffffffffffffffffffffffffffffffffff1673ffffffffffffffffffffffffffffffffffffffff1614158015612f82575073eeeeeeeeeeeeeeeeeeeeeeeeeeeeeeeeeeeeeeee73ffffffffffffffffffffffffffffffffffffffff168273ffffffffffffffffffffffffffffffffffffffff16145b5b905092915050565b6000809054906101000a900473ffffffffffffffffffffffffffffffffffffffff1673ffffffffffffffffffffffffffffffffffffffff163373ffffffffffffffffffffffffffffffffffffffff16141515612fe657600080fd5b600073ffffffffffffffffffffffffffffffffffffffff16600a60008573ffffffffffffffffffffffffffffffffffffffff1673ffffffffffffffffffffffffffffffffffffffff16815260200190815260200160002060009054906101000a900473ffffffffffffffffffffffffffffffffffffffff1673ffffffffffffffffffffffffffffffffffffffff161415151561308157600080fd5b6103e8821115151561309257600080fd5b6101f481111515156130a357600080fd5b81600d60008573ffffffffffffffffffffffffffffffffffffffff1673ffffffffffffffffffffffffffffffffffffffff1681526020019081526020016000208190555080600e60008573ffffffffffffffffffffffffffffffffffffffff1673ffffffffffffffffffffffffffffffffffffffff168152602001908152602001600020819055507ff32eb6e759557a6efda6830142e2357097b173bc01c7a45d4f409fd9ce87387b838383604051808473ffffffffffffffffffffffffffffffffffffffff1673ffffffffffffffffffffffffffffffffffffffff168152602001838152602001828152602001935050505060405180910390a1505050565b6131ab614767565b600580548060200260200160405190810160405280929190818152602001828054801561322d57602002820191906000526020600020905b8160009054906101000a900473ffffffffffffffffffffffffffffffffffffffff1673ffffffffffffffffffffffffffffffffffffffff16815260200190600101908083116131e3575b5050505050905090565b60008060008060008060008061324d8c8c612dc4565b151561325c57600097506133ad565b600f60009054906101000a900460ff16151561327b57600097506133ad565b60008a141561328d57600097506133ad565b73eeeeeeeeeeeeeeeeeeeeeeeeeeeeeeeeeeeeeeee73ffffffffffffffffffffffffffffffffffffffff168c73ffffffffffffffffffffffffffffffffffffffff1614156132dd578a9650613333565b73eeeeeeeeeeeeeeeeeeeeeeeeeeeeeeeeeeeeeeee73ffffffffffffffffffffffffffffffffffffffff168b73ffffffffffffffffffffffffffffffffffffffff16141561332d578b9650613332565b600080fd5b5b61333e8c8c8c6141f2565b80965081975050506133518b8d886141f2565b9050809450506133618787611698565b92506133718c8b8d868989611c38565b9150811561339c576133958a846133878f614468565b6133908f614468565b61459f565b90506133a0565b8490505b6133aa8183614650565b97505b50505050505050949350505050565b600760009054906101000a900473ffffffffffffffffffffffffffffffffffffffff1681565b6000809054906101000a900473ffffffffffffffffffffffffffffffffffffffff1673ffffffffffffffffffffffffffffffffffffffff163373ffffffffffffffffffffffffffffffffffffffff1614151561343d57600080fd5b600260008273ffffffffffffffffffffffffffffffffffffffff1673ffffffffffffffffffffffffffffffffffffffff16815260200190815260200160002060009054906101000a900460ff1615151561349657600080fd5b60326004805490501015156134aa57600080fd5b7f091a7a4b85135fdd7e8dbc18b12fabe5cc191ea867aa3c2e1a24a102af61d58b816001604051808373ffffffffffffffffffffffffffffffffffffffff1673ffffffffffffffffffffffffffffffffffffffff168152602001821515151581526020019250505060405180910390a16001600260008373ffffffffffffffffffffffffffffffffffffffff1673ffffffffffffffffffffffffffffffffffffffff16815260200190815260200160002060006101000a81548160ff02191690831515021790555060048054806001018281613586919061477b565b9160005260206000209001600083909190916101000a81548173ffffffffffffffffffffffffffffffffffffffff021916908373ffffffffffffffffffffffffffffffffffffffff1602179055505050565b600c6020528060005260406000206000915090505481565b600260003373ffffffffffffffffffffffffffffffffffffffff1673ffffffffffffffffffffffffffffffffffffffff16815260200190815260200160002060009054906101000a900460ff16151561364857600080fd5b600073ffffffffffffffffffffffffffffffffffffffff16600a60008573ffffffffffffffffffffffffffffffffffffffff1673ffffffffffffffffffffffffffffffffffffffff16815260200190815260200160002060009054906101000a900473ffffffffffffffffffffffffffffffffffffffff1673ffffffffffffffffffffffffffffffffffffffff16141515156136e357600080fd5b81600b60008573ffffffffffffffffffffffffffffffffffffffff1673ffffffffffffffffffffffffffffffffffffffff1681526020019081526020016000208190555080600c60008573ffffffffffffffffffffffffffffffffffffffff1673ffffffffffffffffffffffffffffffffffffffff168152602001908152602001600020819055507f5421c19be109a988c30678d84f56dd237868f8147ba05c20a6b78726e8f5d8ca838383604051808473ffffffffffffffffffffffffffffffffffffffff1673ffffffffffffffffffffffffffffffffffffffff168152602001838152602001828152602001935050505060405180910390a1505050565b60006127106009546127100383028115156137fa57fe5b049050919050565b6000809054906101000a900473ffffffffffffffffffffffffffffffffffffffff1673ffffffffffffffffffffffffffffffffffffffff163373ffffffffffffffffffffffffffffffffffffffff1614151561385d57600080fd5b600073ffffffffffffffffffffffffffffffffffffffff16600a60008373ffffffffffffffffffffffffffffffffffffffff1673ffffffffffffffffffffffffffffffffffffffff16815260200190815260200160002060009054906101000a900473ffffffffffffffffffffffffffffffffffffffff1673ffffffffffffffffffffffffffffffffffffffff16141515156138f857600080fd5b600a60008273ffffffffffffffffffffffffffffffffffffffff1673ffffffffffffffffffffffffffffffffffffffff16815260200190815260200160002060006101000a81549073ffffffffffffffffffffffffffffffffffffffff0219169055600b60008273ffffffffffffffffffffffffffffffffffffffff1673ffffffffffffffffffffffffffffffffffffffff16815260200190815260200160002060009055600c60008273ffffffffffffffffffffffffffffffffffffffff1673ffffffffffffffffffffffffffffffffffffffff16815260200190815260200160002060009055600d60008273ffffffffffffffffffffffffffffffffffffffff1673ffffffffffffffffffffffffffffffffffffffff16815260200190815260200160002060009055600e60008273ffffffffffffffffffffffffffffffffffffffff1673ffffffffffffffffffffffffffffffffffffffff168152602001908152602001600020600090557f6621c4efc5efa31320394260425b7d14cbb9d7e3754b2c98c04af66b1cbf315b81604051808273ffffffffffffffffffffffffffffffffffffffff1673ffffffffffffffffffffffffffffffffffffffff16815260200191505060405180910390a150565b60008060009054906101000a900473ffffffffffffffffffffffffffffffffffffffff1673ffffffffffffffffffffffffffffffffffffffff163373ffffffffffffffffffffffffffffffffffffffff16141515613b2957600080fd5b600260008373ffffffffffffffffffffffffffffffffffffffff1673ffffffffffffffffffffffffffffffffffffffff16815260200190815260200160002060009054906101000a900460ff161515613b8157600080fd5b6000600260008473ffffffffffffffffffffffffffffffffffffffff1673ffffffffffffffffffffffffffffffffffffffff16815260200190815260200160002060006101000a81548160ff021916908315150217905550600090505b600480549050811015613d8d578173ffffffffffffffffffffffffffffffffffffffff16600482815481101515613c1157fe5b906000526020600020900160009054906101000a900473ffffffffffffffffffffffffffffffffffffffff1673ffffffffffffffffffffffffffffffffffffffff161415613d82576004600160048054905003815481101515613c7057fe5b906000526020600020900160009054906101000a900473ffffffffffffffffffffffffffffffffffffffff16600482815481101515613cab57fe5b906000526020600020900160006101000a81548173ffffffffffffffffffffffffffffffffffffffff021916908373ffffffffffffffffffffffffffffffffffffffff1602179055506001600481818054905003915081613d0c919061473b565b507f091a7a4b85135fdd7e8dbc18b12fabe5cc191ea867aa3c2e1a24a102af61d58b826000604051808373ffffffffffffffffffffffffffffffffffffffff1673ffffffffffffffffffffffffffffffffffffffff168152602001821515151581526020019250505060405180910390a1613d8d565b806001019050613bde565b5050565b600860009054906101000a900473ffffffffffffffffffffffffffffffffffffffff1681565b6000806000849150839050808201818303614e2002811515613dd557fe5b059250505092915050565b600d6020528060005260406000206000915090505481565b6000809054906101000a900473ffffffffffffffffffffffffffffffffffffffff1673ffffffffffffffffffffffffffffffffffffffff163373ffffffffffffffffffffffffffffffffffffffff16141515613e5357600080fd5b8073ffffffffffffffffffffffffffffffffffffffff166108fc839081150290604051600060405180830381858888f193505050501515613e9357600080fd5b7fec47e7ed86c86774d1a72c19f35c639911393fe7c1a34031fdbd260890da90de8282604051808381526020018273ffffffffffffffffffffffffffffffffffffffff1673ffffffffffffffffffffffffffffffffffffffff1681526020019250505060405180910390a15050565b600073eeeeeeeeeeeeeeeeeeeeeeeeeeeeeeeeeeeeeeee73ffffffffffffffffffffffffffffffffffffffff168373ffffffffffffffffffffffffffffffffffffffff161415613f6b578173ffffffffffffffffffffffffffffffffffffffff1631905061402c565b8273ffffffffffffffffffffffffffffffffffffffff166370a08231836000604051602001526040518263ffffffff167c0100000000000000000000000000000000000000000000000000000000028152600401808273ffffffffffffffffffffffffffffffffffffffff1673ffffffffffffffffffffffffffffffffffffffff168152602001915050602060405180830381600087803b151561400e57600080fd5b6102c65a03f1151561401f57600080fd5b5050506040518051905090505b92915050565b600f60009054906101000a900460ff1681565b6000809054906101000a900473ffffffffffffffffffffffffffffffffffffffff1681565b73eeeeeeeeeeeeeeeeeeeeeeeeeeeeeeeeeeeeeeee73ffffffffffffffffffffffffffffffffffffffff168173ffffffffffffffffffffffffffffffffffffffff1614156140fc576012600660008373ffffffffffffffffffffffffffffffffffffffff1673ffffffffffffffffffffffffffffffffffffffff168152602001908152602001600020819055506141c7565b8073ffffffffffffffffffffffffffffffffffffffff1663313ce5676000604051602001526040518163ffffffff167c0100000000000000000000000000000000000000000000000000000000028152600401602060405180830381600087803b151561416857600080fd5b6102c65a03f1151561417957600080fd5b50505060405180519050600660008373ffffffffffffffffffffffffffffffffffffffff1673ffffffffffffffffffffffffffffffffffffffff168152602001908152602001600020819055505b50565b60006141e8836141d987614468565b6141e287614468565b85614689565b9050949350505050565b600080600073eeeeeeeeeeeeeeeeeeeeeeeeeeeeeeeeeeeeeeee73ffffffffffffffffffffffffffffffffffffffff168673ffffffffffffffffffffffffffffffffffffffff16141561434257600a60008673ffffffffffffffffffffffffffffffffffffffff1673ffffffffffffffffffffffffffffffffffffffff16815260200190815260200160002060009054906101000a900473ffffffffffffffffffffffffffffffffffffffff1690508073ffffffffffffffffffffffffffffffffffffffff1663cd7724c36142c6866137e3565b6000604051602001526040518263ffffffff167c010000000000000000000000000000000000000000000000000000000002815260040180828152602001915050602060405180830381600087803b151561432057600080fd5b6102c65a03f1151561433157600080fd5b505050604051805190509250614441565b600a60008773ffffffffffffffffffffffffffffffffffffffff1673ffffffffffffffffffffffffffffffffffffffff16815260200190815260200160002060009054906101000a900473ffffffffffffffffffffffffffffffffffffffff16905061443e8173ffffffffffffffffffffffffffffffffffffffff166395b68fe7866000604051602001526040518263ffffffff167c010000000000000000000000000000000000000000000000000000000002815260040180828152602001915050602060405180830381600087803b151561441e57600080fd5b6102c65a03f1151561442f57600080fd5b505050604051805190506137e3565b92505b61445d848461444f89614468565b61445889614468565b61459f565b915050935093915050565b60008073eeeeeeeeeeeeeeeeeeeeeeeeeeeeeeeeeeeeeeee73ffffffffffffffffffffffffffffffffffffffff168373ffffffffffffffffffffffffffffffffffffffff1614156144bc5760129150614599565b600660008473ffffffffffffffffffffffffffffffffffffffff1673ffffffffffffffffffffffffffffffffffffffff1681526020019081526020016000205490506000811415614595578273ffffffffffffffffffffffffffffffffffffffff1663313ce5676000604051602001526040518163ffffffff167c0100000000000000000000000000000000000000000000000000000000028152600401602060405180830381600087803b151561457357600080fd5b6102c65a03f1151561458457600080fd5b505050604051805190509150614599565b8091505b50919050565b60006b204fce5e3e2502611000000085111515156145bc57600080fd5b6b204fce5e3e2502611000000084111515156145d757600080fd5b8282101515614616576012838303111515156145f257600080fd5b84838303600a0a02670de0b6b3a7640000850281151561460e57fe5b049050614648565b60128284031115151561462857600080fd5b84828403600a0a670de0b6b3a764000086020281151561464457fe5b0490505b949350505050565b60008161465e576000614661565b60015b60ff1660028481151561467057fe5b061461467f5760018303614681565b825b905092915050565b60006b204fce5e3e2502611000000085111515156146a657600080fd5b620f4240670de0b6b3a76400000282111515156146c257600080fd5b8383101515614701576012848403111515156146dd57600080fd5b670de0b6b3a7640000848403600a0a838702028115156146f957fe5b049050614733565b60128385031115151561471357600080fd5b828403600a0a670de0b6b3a76400000282860281151561472f57fe5b0490505b949350505050565b8154818355818115116147625781836000526020600020918201910161476191906147a7565b5b505050565b602060405190810160405280600081525090565b8154818355818115116147a2578183600052602060002091820191016147a191906147a7565b5b505050565b6147c991905b808211156147c55760008160009055506001016147ad565b5090565b905600a165627a7a72305820445a37bd6fe4166314757cc58935ab013a77b72196cc70004f8f693a1e7f6c0d0029",
  "source": "pragma solidity 0.4.18;\n\nimport \"../Withdrawable.sol\";\nimport \"../KyberReserveInterface.sol\";\nimport \"../Utils2.sol\";\n\n\ninterface UniswapExchange {\n    function ethToTokenSwapInput(\n        uint256 min_tokens,\n        uint256 deadline\n    )\n        external\n        payable\n        returns (uint256  tokens_bought);\n\n    function tokenToEthSwapInput(\n        uint256 tokens_sold,\n        uint256 min_eth,\n        uint256 deadline\n    )\n        external\n        returns (uint256  eth_bought);\n\n    function getEthToTokenInputPrice(\n        uint256 eth_sold\n    )\n        external\n        view\n        returns (uint256 tokens_bought);\n\n    function getTokenToEthInputPrice(\n        uint256 tokens_sold\n    )\n        external\n        view\n        returns (uint256 eth_bought);\n}\n\n\ninterface UniswapFactory {\n    function getExchange(address token) external view returns (address exchange);\n}\n\n\n/*\n * A reserve that connects to Uniswap.\n *\n * This reserve makes use of an internal inventory for locally filling orders\n * using the reserve's inventory when certain conditions are met.\n * Conditions are:\n * - After trading the inventory will remain within defined limits.\n * - Uniswap prices do not display internal arbitrage.\n * - Uniswap ask and bid prices meet minimum spread requirements.\n *\n * An additional premium may be added to the converted price for optional\n * promotions.\n */\ncontract KyberUniswapReserve is KyberReserveInterface, Withdrawable, Utils2 {\n    // Parts per 10000\n    uint public constant DEFAULT_FEE_BPS = 25;\n\n    UniswapFactory public uniswapFactory;\n    address public kyberNetwork;\n\n    uint public feeBps = DEFAULT_FEE_BPS;\n\n    // Uniswap exchange contract for every listed token\n    // token -> exchange\n    mapping (address => address) public tokenExchange;\n\n    // Internal inventory balance limits\n    // token -> limit\n    mapping (address => uint) public internalInventoryMin;\n    mapping (address => uint) public internalInventoryMax;\n\n    // Minimum spread in BPS required for using internal inventory\n    // token -> limit\n    mapping (address => uint) public internalActivationMinSpreadBps;\n\n    // Premium BPS added to internal price (making it better).\n    // token -> limit\n    mapping (address => uint) public internalPricePremiumBps;\n\n    bool public tradeEnabled = true;\n\n    /**\n        Constructor\n    */\n    function KyberUniswapReserve(\n        UniswapFactory _uniswapFactory,\n        address _admin,\n        address _kyberNetwork\n    )\n        public\n    {\n        require(address(_uniswapFactory) != 0);\n        require(_admin != 0);\n        require(_kyberNetwork != 0);\n\n        uniswapFactory = _uniswapFactory;\n        admin = _admin;\n        kyberNetwork = _kyberNetwork;\n    }\n\n    function() public payable {\n        // anyone can deposit ether\n    }\n\n    /**\n        Returns dest quantity / source quantity.\n        Last bit of the rate indicates whether to use internal inventory:\n          0 - use uniswap\n          1 - use internal inventory\n    */\n    function getConversionRate(\n        ERC20 src,\n        ERC20 dest,\n        uint srcQty,\n        uint blockNumber\n    )\n        public\n        view\n        returns(uint)\n    {\n        // This makes the UNUSED warning go away.\n        blockNumber;\n        if (!isValidTokens(src, dest)) return 0;\n        if (!tradeEnabled) return 0;\n        if (srcQty == 0) return 0;\n\n        ERC20 token;\n        if (src == ETH_TOKEN_ADDRESS) {\n            token = dest;\n        } else if (dest == ETH_TOKEN_ADDRESS) {\n            token = src;\n        } else {\n            // Should never arrive here - isValidTokens requires one side to be ETH\n            revert();\n        }\n\n        uint convertedQuantity;\n        uint rateSrcDest;\n        uint rateDestSrc;\n        (convertedQuantity, rateSrcDest) = calcUniswapConversion(src, dest, srcQty);\n        (, rateDestSrc) = calcUniswapConversion(dest, src, convertedQuantity);\n\n        uint quantityWithPremium = addPremium(token, convertedQuantity);\n\n        bool useInternalInventory = shouldUseInternalInventory(\n            src, /* srcToken */\n            srcQty, /* srcAmount */\n            dest, /* destToken */\n            quantityWithPremium, /* destAmount */\n            rateSrcDest, /* rateSrcDest */\n            rateDestSrc /* rateDestSrc */\n        );\n\n        uint rate;\n        if (useInternalInventory) {\n            // If using internal inventory add premium to converted quantity\n            rate = calcRateFromQty(\n                srcQty, /* srcAmount */\n                quantityWithPremium, /* destAmount */\n                getDecimals(src), /* srcDecimals */\n                getDecimals(dest) /* dstDecimals */\n            );\n        } else {\n            // Use rate calculated from uniswap quantities after fees\n            rate = rateSrcDest;\n        }\n        return applyInternalInventoryHintToRate(rate, useInternalInventory);\n    }\n\n    function applyInternalInventoryHintToRate(\n        uint rate,\n        bool useInternalInventory\n    )\n        internal\n        pure\n        returns(uint)\n    {\n        return rate % 2 == (useInternalInventory ? 1 : 0)\n            ? rate\n            : rate - 1;\n    }\n\n\n    event TradeExecute(\n        address indexed sender,\n        address src,\n        uint srcAmount,\n        address destToken,\n        uint destAmount,\n        address destAddress,\n        bool useInternalInventory\n    );\n\n    /**\n      conversionRate: expected conversion rate should be >= this value.\n     */\n    function trade(\n        ERC20 srcToken,\n        uint srcAmount,\n        ERC20 destToken,\n        address destAddress,\n        uint conversionRate,\n        bool validate\n    )\n        public\n        payable\n        returns(bool)\n    {\n        require(tradeEnabled);\n        require(msg.sender == kyberNetwork);\n        require(isValidTokens(srcToken, destToken));\n\n        if (validate) {\n            require(conversionRate > 0);\n            if (srcToken == ETH_TOKEN_ADDRESS)\n                require(msg.value == srcAmount);\n            else\n                require(msg.value == 0);\n        }\n\n        // Making sure srcAmount has been transfered to the reserve.\n        // If srcToken is ETH the value has already been transfered by calling\n        // the function.\n        if (srcToken != ETH_TOKEN_ADDRESS)\n            require(srcToken.transferFrom(msg.sender, address(this), srcAmount));\n\n        uint expectedDestAmount = calcDestAmount(\n            srcToken, /* src */\n            destToken, /* dest */\n            srcAmount, /* srcAmount */\n            conversionRate /* rate */\n        );\n\n        bool useInternalInventory = conversionRate % 2 == 1;\n\n        uint destAmount;\n        UniswapExchange exchange;\n        if (srcToken == ETH_TOKEN_ADDRESS) {\n            if (!useInternalInventory) {\n                // Deduct fees (in ETH) before converting\n                uint quantity = deductFee(srcAmount);\n                exchange = UniswapExchange(tokenExchange[address(destToken)]);\n                destAmount = exchange.ethToTokenSwapInput.value(quantity)(\n                    1, /* min_tokens: uniswap requires it to be > 0 */\n                    2 ** 255 /* deadline */\n                );\n                require(destAmount >= expectedDestAmount);\n            }\n\n            // Transfer user-expected dest amount\n            require(destToken.transfer(destAddress, expectedDestAmount));\n        } else {\n            if (!useInternalInventory) {\n                exchange = UniswapExchange(tokenExchange[address(srcToken)]);\n                destAmount = exchange.tokenToEthSwapInput(\n                    srcAmount,\n                    1, /* min_eth: uniswap requires it to be > 0 */\n                    2 ** 255 /* deadline */\n                );\n                // Deduct fees (in ETH) after converting\n                destAmount = deductFee(destAmount);\n                require(destAmount >= expectedDestAmount);\n            }\n\n            // Transfer user-expected dest amount\n            destAddress.transfer(expectedDestAmount);\n        }\n\n        TradeExecute(\n            msg.sender, /* sender */\n            srcToken, /* src */\n            srcAmount, /* srcAmount */\n            destToken, /* destToken */\n            expectedDestAmount, /* destAmount */\n            destAddress, /* destAddress */\n            useInternalInventory /* useInternalInventory */\n        );\n        return true;\n    }\n\n    event FeeUpdated(\n        uint bps\n    );\n\n    function setFee(\n        uint bps\n    )\n        public\n        onlyAdmin\n    {\n        require(bps <= 10000);\n\n        feeBps = bps;\n\n        FeeUpdated(bps);\n    }\n\n    event InternalActivationConfigUpdated(\n        ERC20 token,\n        uint minSpreadBps,\n        uint premiumBps\n    );\n\n    function setInternalActivationConfig(\n        ERC20 token,\n        uint minSpreadBps,\n        uint premiumBps\n    )\n        public\n        onlyAdmin\n    {\n        require(tokenExchange[address(token)] != address(0));\n        require(minSpreadBps <= 1000); // min spread <= 10%\n        require(premiumBps <= 500); // premium <= 5%\n\n        internalActivationMinSpreadBps[address(token)] = minSpreadBps;\n        internalPricePremiumBps[address(token)] = premiumBps;\n\n        InternalActivationConfigUpdated(token, minSpreadBps, premiumBps);\n    }\n\n    event InternalInventoryLimitsUpdated(\n        ERC20 token,\n        uint minBalance,\n        uint maxBalance\n    );\n\n    function setInternalInventoryLimits(\n        ERC20 token,\n        uint minBalance,\n        uint maxBalance\n    )\n        public\n        onlyOperator\n    {\n        require(tokenExchange[address(token)] != address(0));\n\n        internalInventoryMin[address(token)] = minBalance;\n        internalInventoryMax[address(token)] = maxBalance;\n\n        InternalInventoryLimitsUpdated(token, minBalance, maxBalance);\n    }\n\n    event TokenListed(\n        ERC20 token,\n        UniswapExchange exchange\n    );\n\n    function listToken(ERC20 token)\n        public\n        onlyAdmin\n    {\n        require(address(token) != 0);\n\n        UniswapExchange uniswapExchange = UniswapExchange(\n            uniswapFactory.getExchange(token)\n        );\n        tokenExchange[address(token)] = address(uniswapExchange);\n        setDecimals(token);\n\n        require(token.approve(uniswapExchange, 2 ** 255));\n\n        // internal inventory disabled by default\n        internalInventoryMin[address(token)] = 2 ** 255;\n        internalInventoryMax[address(token)] = 0;\n        internalActivationMinSpreadBps[address(token)] = 0;\n        internalPricePremiumBps[address(token)] = 0;\n\n        TokenListed(token, uniswapExchange);\n    }\n\n    event TokenDelisted(ERC20 token);\n\n    function delistToken(ERC20 token)\n        public\n        onlyAdmin\n    {\n        require(tokenExchange[address(token)] != address(0));\n\n        delete tokenExchange[address(token)];\n        delete internalInventoryMin[address(token)];\n        delete internalInventoryMax[address(token)];\n        delete internalActivationMinSpreadBps[address(token)];\n        delete internalPricePremiumBps[address(token)];\n\n        TokenDelisted(token);\n    }\n\n    function isValidTokens(\n        ERC20 src,\n        ERC20 dest\n    )\n        public\n        view\n        returns(bool)\n    {\n        return (\n            (\n                src == ETH_TOKEN_ADDRESS &&\n                tokenExchange[address(dest)] != address(0)\n            ) ||\n            (\n                tokenExchange[address(src)] != address(0) &&\n                dest == ETH_TOKEN_ADDRESS\n            )\n        );\n    }\n\n    event TradeEnabled(\n        bool enable\n    );\n\n    function enableTrade()\n        public\n        onlyAdmin\n        returns(bool)\n    {\n        tradeEnabled = true;\n        TradeEnabled(true);\n        return true;\n    }\n\n    function disableTrade()\n        public\n        onlyAlerter\n        returns(bool)\n    {\n        tradeEnabled = false;\n        TradeEnabled(false);\n        return true;\n    }\n\n    event KyberNetworkSet(\n        address kyberNetwork\n    );\n\n    function setKyberNetwork(\n        address _kyberNetwork\n    )\n        public\n        onlyAdmin\n    {\n        require(_kyberNetwork != 0);\n        kyberNetwork = _kyberNetwork;\n        KyberNetworkSet(kyberNetwork);\n    }\n\n    /*\n     * Uses amounts and rates to check if the reserve's internal inventory can\n     * be used directly.\n     *\n     * rateEthToToken and rateTokenToEth are in kyber rate format meaning\n     * rate as numerator and 1e18 as denominator.\n     */\n    function shouldUseInternalInventory(\n        ERC20 srcToken,\n        uint srcAmount,\n        ERC20 destToken,\n        uint destAmount,\n        uint rateSrcDest,\n        uint rateDestSrc\n    )\n        public\n        view\n        returns(bool)\n    {\n        require(srcAmount < MAX_QTY);\n        require(destAmount < MAX_QTY);\n\n        // Check for internal inventory balance limitations\n        ERC20 token;\n        if (srcToken == ETH_TOKEN_ADDRESS) {\n            token = destToken;\n            uint tokenBalance = token.balanceOf(this);\n            if (\n                tokenBalance < destAmount ||\n                tokenBalance - destAmount < internalInventoryMin[token]\n            ) {\n                return false;\n            }\n        } else {\n            token = srcToken;\n            if (this.balance < destAmount) return false;\n            if (token.balanceOf(this) + srcAmount > internalInventoryMax[token]) {\n                return false;\n            }\n        }\n\n        uint normalizedDestSrc = 10 ** 36 / rateDestSrc;\n\n        // Check for arbitrage\n        if (rateSrcDest > normalizedDestSrc) return false;\n\n        uint activationSpread = internalActivationMinSpreadBps[token];\n        uint spread = uint(calculateSpreadBps(normalizedDestSrc, rateSrcDest));\n        return spread >= activationSpread;\n    }\n\n    /*\n     * Spread calculation is (ask - bid) / ((ask + bid) / 2).\n     * We multiply by 10000 to get result in BPS.\n     *\n     * Note: if askRate > bidRate result will be negative indicating\n     * internal arbitrage.\n     */\n    function calculateSpreadBps(\n        uint _askRate,\n        uint _bidRate\n    )\n        public\n        pure\n        returns(int)\n    {\n        int askRate = int(_askRate);\n        int bidRate = int(_bidRate);\n        return 10000 * 2 * (askRate - bidRate) / (askRate + bidRate);\n    }\n\n    function deductFee(\n        uint amount\n    )\n        public\n        view\n        returns(uint)\n    {\n        return amount * (10000 - feeBps) / 10000;\n    }\n\n    function addPremium(\n        ERC20 token,\n        uint amount\n    )\n        public\n        view\n        returns(uint)\n    {\n        require(amount <= MAX_QTY);\n        return amount * (10000 + internalPricePremiumBps[token]) / 10000;\n    }\n\n    function calcUniswapConversion(\n        ERC20 src,\n        ERC20 dest,\n        uint srcQty\n    )\n        internal\n        view\n        returns(uint destQty, uint rate)\n    {\n        UniswapExchange exchange;\n        if (src == ETH_TOKEN_ADDRESS) {\n            exchange = UniswapExchange(tokenExchange[address(dest)]);\n            destQty = exchange.getEthToTokenInputPrice(\n                deductFee(srcQty)\n            );\n        } else {\n            exchange = UniswapExchange(tokenExchange[address(src)]);\n            destQty = deductFee(\n                exchange.getTokenToEthInputPrice(srcQty)\n            );\n        }\n\n        rate = calcRateFromQty(\n            srcQty, /* srcAmount */\n            destQty, /* destAmount */\n            getDecimals(src), /* srcDecimals */\n            getDecimals(dest) /* dstDecimals */\n        );\n    }\n}\n",
  "sourcePath": "/Users/oscarr/Ethereum/frappe/contracts/uniswap/KyberUniswapReserve.sol",
  "compiler": {
    "name": "solc",
    "version": "0.4.18+commit.9cf6e910.Emscripten.clang"
  },
  "schemaVersion": "3.0.6",
  "updatedAt": "2019-05-18T17:14:13.511Z",
  "devdoc": {
    "methods": {
      "claimAdmin()": {
        "details": "Allows the pendingAdmin address to finalize the change admin process."
      },
      "getBalance(address,address)": {
        "details": "get the balance of a user.",
        "params": {
          "token": "The token type"
        },
        "return": "The balance"
      },
      "transferAdmin(address)": {
        "details": "Allows the current admin to set the pendingAdmin address.",
        "params": {
          "newAdmin": "The address to transfer ownership to."
        }
      },
      "transferAdminQuickly(address)": {
        "details": "Allows the current admin to set the admin in one tx. Useful initial deployment.",
        "params": {
          "newAdmin": "The address to transfer ownership to."
        }
      },
      "withdrawEther(uint256,address)": {
        "details": "Withdraw Ethers"
      },
      "withdrawToken(address,uint256,address)": {
        "details": "Withdraw all ERC20 compatible tokens",
        "params": {
          "token": "ERC20 The address of the token contract"
        }
      }
    }
  },
  "userdoc": {
    "methods": {
      "getConversionRate(address,address,uint256,uint256)": {
        "notice": "Returns dest quantity / source quantity. Last bit of the rate indicates whether to use internal inventory: 0 - use uniswap 1 - use internal inventory"
      },
      "trade(address,uint256,address,address,uint256,bool)": {
        "notice": "conversionRate: expected conversion rate should be >= this value."
      }
    }
  }
}