{
  "contractName": "KyberReserveV1",
  "abi": [
    {
      "constant": false,
      "inputs": [
        {
          "name": "alerter",
          "type": "address"
        }
      ],
      "name": "removeAlerter",
      "outputs": [],
      "payable": false,
      "stateMutability": "nonpayable",
      "type": "function"
    },
    {
      "constant": true,
      "inputs": [],
      "name": "pendingAdmin",
      "outputs": [
        {
          "name": "",
          "type": "address"
        }
      ],
      "payable": false,
      "stateMutability": "view",
      "type": "function"
    },
    {
      "constant": true,
      "inputs": [],
      "name": "getOperators",
      "outputs": [
        {
          "name": "",
          "type": "address[]"
        }
      ],
      "payable": false,
      "stateMutability": "view",
      "type": "function"
    },
    {
      "constant": false,
      "inputs": [
        {
          "name": "token",
          "type": "address"
        },
        {
          "name": "amount",
          "type": "uint256"
        },
        {
          "name": "sendTo",
          "type": "address"
        }
      ],
      "name": "withdrawToken",
      "outputs": [],
      "payable": false,
      "stateMutability": "nonpayable",
      "type": "function"
    },
    {
      "constant": false,
      "inputs": [
        {
          "name": "newAlerter",
          "type": "address"
        }
      ],
      "name": "addAlerter",
      "outputs": [],
      "payable": false,
      "stateMutability": "nonpayable",
      "type": "function"
    },
    {
      "constant": true,
      "inputs": [],
      "name": "sanityRatesContract",
      "outputs": [
        {
          "name": "",
          "type": "address"
        }
      ],
      "payable": false,
      "stateMutability": "view",
      "type": "function"
    },
    {
      "constant": false,
      "inputs": [
        {
          "name": "newAdmin",
          "type": "address"
        }
      ],
      "name": "transferAdmin",
      "outputs": [],
      "payable": false,
      "stateMutability": "nonpayable",
      "type": "function"
    },
    {
      "constant": false,
      "inputs": [],
      "name": "claimAdmin",
      "outputs": [],
      "payable": false,
      "stateMutability": "nonpayable",
      "type": "function"
    },
    {
      "constant": false,
      "inputs": [
        {
          "name": "newAdmin",
          "type": "address"
        }
      ],
      "name": "transferAdminQuickly",
      "outputs": [],
      "payable": false,
      "stateMutability": "nonpayable",
      "type": "function"
    },
    {
      "constant": true,
      "inputs": [],
      "name": "getAlerters",
      "outputs": [
        {
          "name": "",
          "type": "address[]"
        }
      ],
      "payable": false,
      "stateMutability": "view",
      "type": "function"
    },
    {
      "constant": false,
      "inputs": [
        {
          "name": "newOperator",
          "type": "address"
        }
      ],
      "name": "addOperator",
      "outputs": [],
      "payable": false,
      "stateMutability": "nonpayable",
      "type": "function"
    },
    {
      "constant": false,
      "inputs": [
        {
          "name": "operator",
          "type": "address"
        }
      ],
      "name": "removeOperator",
      "outputs": [],
      "payable": false,
      "stateMutability": "nonpayable",
      "type": "function"
    },
    {
      "constant": true,
      "inputs": [],
      "name": "kyberNetwork",
      "outputs": [
        {
          "name": "",
          "type": "address"
        }
      ],
      "payable": false,
      "stateMutability": "view",
      "type": "function"
    },
    {
      "constant": false,
      "inputs": [
        {
          "name": "amount",
          "type": "uint256"
        },
        {
          "name": "sendTo",
          "type": "address"
        }
      ],
      "name": "withdrawEther",
      "outputs": [],
      "payable": false,
      "stateMutability": "nonpayable",
      "type": "function"
    },
    {
      "constant": true,
      "inputs": [],
      "name": "conversionRatesContract",
      "outputs": [
        {
          "name": "",
          "type": "address"
        }
      ],
      "payable": false,
      "stateMutability": "view",
      "type": "function"
    },
    {
      "constant": true,
      "inputs": [],
      "name": "tradeEnabled",
      "outputs": [
        {
          "name": "",
          "type": "bool"
        }
      ],
      "payable": false,
      "stateMutability": "view",
      "type": "function"
    },
    {
      "constant": true,
      "inputs": [
        {
          "name": "",
          "type": "bytes32"
        }
      ],
      "name": "approvedWithdrawAddresses",
      "outputs": [
        {
          "name": "",
          "type": "bool"
        }
      ],
      "payable": false,
      "stateMutability": "view",
      "type": "function"
    },
    {
      "constant": true,
      "inputs": [],
      "name": "admin",
      "outputs": [
        {
          "name": "",
          "type": "address"
        }
      ],
      "payable": false,
      "stateMutability": "view",
      "type": "function"
    },
    {
      "payable": true,
      "stateMutability": "payable",
      "type": "fallback"
    },
    {
      "anonymous": false,
      "inputs": [
        {
          "indexed": false,
          "name": "token",
          "type": "address"
        },
        {
          "indexed": false,
          "name": "amount",
          "type": "uint256"
        }
      ],
      "name": "DepositToken",
      "type": "event"
    },
    {
      "anonymous": false,
      "inputs": [
        {
          "indexed": true,
          "name": "origin",
          "type": "address"
        },
        {
          "indexed": false,
          "name": "src",
          "type": "address"
        },
        {
          "indexed": false,
          "name": "srcAmount",
          "type": "uint256"
        },
        {
          "indexed": false,
          "name": "destToken",
          "type": "address"
        },
        {
          "indexed": false,
          "name": "destAmount",
          "type": "uint256"
        },
        {
          "indexed": false,
          "name": "destAddress",
          "type": "address"
        }
      ],
      "name": "TradeExecute",
      "type": "event"
    },
    {
      "anonymous": false,
      "inputs": [
        {
          "indexed": false,
          "name": "enable",
          "type": "bool"
        }
      ],
      "name": "TradeEnabled",
      "type": "event"
    },
    {
      "anonymous": false,
      "inputs": [
        {
          "indexed": false,
          "name": "token",
          "type": "address"
        },
        {
          "indexed": false,
          "name": "addr",
          "type": "address"
        },
        {
          "indexed": false,
          "name": "approve",
          "type": "bool"
        }
      ],
      "name": "WithdrawAddressApproved",
      "type": "event"
    },
    {
      "anonymous": false,
      "inputs": [
        {
          "indexed": false,
          "name": "token",
          "type": "address"
        },
        {
          "indexed": false,
          "name": "amount",
          "type": "uint256"
        },
        {
          "indexed": false,
          "name": "destination",
          "type": "address"
        }
      ],
      "name": "WithdrawFunds",
      "type": "event"
    },
    {
      "anonymous": false,
      "inputs": [
        {
          "indexed": false,
          "name": "network",
          "type": "address"
        },
        {
          "indexed": false,
          "name": "rate",
          "type": "address"
        },
        {
          "indexed": false,
          "name": "sanity",
          "type": "address"
        }
      ],
      "name": "SetContractAddresses",
      "type": "event"
    },
    {
      "anonymous": false,
      "inputs": [
        {
          "indexed": false,
          "name": "token",
          "type": "address"
        },
        {
          "indexed": false,
          "name": "amount",
          "type": "uint256"
        },
        {
          "indexed": false,
          "name": "sendTo",
          "type": "address"
        }
      ],
      "name": "TokenWithdraw",
      "type": "event"
    },
    {
      "anonymous": false,
      "inputs": [
        {
          "indexed": false,
          "name": "amount",
          "type": "uint256"
        },
        {
          "indexed": false,
          "name": "sendTo",
          "type": "address"
        }
      ],
      "name": "EtherWithdraw",
      "type": "event"
    },
    {
      "anonymous": false,
      "inputs": [
        {
          "indexed": false,
          "name": "pendingAdmin",
          "type": "address"
        }
      ],
      "name": "TransferAdminPending",
      "type": "event"
    },
    {
      "anonymous": false,
      "inputs": [
        {
          "indexed": false,
          "name": "newAdmin",
          "type": "address"
        },
        {
          "indexed": false,
          "name": "previousAdmin",
          "type": "address"
        }
      ],
      "name": "AdminClaimed",
      "type": "event"
    },
    {
      "anonymous": false,
      "inputs": [
        {
          "indexed": false,
          "name": "newAlerter",
          "type": "address"
        },
        {
          "indexed": false,
          "name": "isAdd",
          "type": "bool"
        }
      ],
      "name": "AlerterAdded",
      "type": "event"
    },
    {
      "anonymous": false,
      "inputs": [
        {
          "indexed": false,
          "name": "newOperator",
          "type": "address"
        },
        {
          "indexed": false,
          "name": "isAdd",
          "type": "bool"
        }
      ],
      "name": "OperatorAdded",
      "type": "event"
    },
    {
      "constant": false,
      "inputs": [
        {
          "name": "_kyberNetwork",
          "type": "address"
        },
        {
          "name": "_ratesContract",
          "type": "address"
        },
        {
          "name": "_admin",
          "type": "address"
        }
      ],
      "name": "KyberReserve",
      "outputs": [],
      "payable": false,
      "stateMutability": "nonpayable",
      "type": "function"
    },
    {
      "constant": false,
      "inputs": [
        {
          "name": "srcToken",
          "type": "address"
        },
        {
          "name": "srcAmount",
          "type": "uint256"
        },
        {
          "name": "destToken",
          "type": "address"
        },
        {
          "name": "destAddress",
          "type": "address"
        },
        {
          "name": "conversionRate",
          "type": "uint256"
        },
        {
          "name": "validate",
          "type": "bool"
        }
      ],
      "name": "trade",
      "outputs": [
        {
          "name": "",
          "type": "bool"
        }
      ],
      "payable": true,
      "stateMutability": "payable",
      "type": "function"
    },
    {
      "constant": false,
      "inputs": [],
      "name": "enableTrade",
      "outputs": [
        {
          "name": "",
          "type": "bool"
        }
      ],
      "payable": false,
      "stateMutability": "nonpayable",
      "type": "function"
    },
    {
      "constant": false,
      "inputs": [],
      "name": "disableTrade",
      "outputs": [
        {
          "name": "",
          "type": "bool"
        }
      ],
      "payable": false,
      "stateMutability": "nonpayable",
      "type": "function"
    },
    {
      "constant": false,
      "inputs": [
        {
          "name": "token",
          "type": "address"
        },
        {
          "name": "addr",
          "type": "address"
        },
        {
          "name": "approve",
          "type": "bool"
        }
      ],
      "name": "approveWithdrawAddress",
      "outputs": [],
      "payable": false,
      "stateMutability": "nonpayable",
      "type": "function"
    },
    {
      "constant": false,
      "inputs": [
        {
          "name": "token",
          "type": "address"
        },
        {
          "name": "amount",
          "type": "uint256"
        },
        {
          "name": "destination",
          "type": "address"
        }
      ],
      "name": "withdraw",
      "outputs": [
        {
          "name": "",
          "type": "bool"
        }
      ],
      "payable": false,
      "stateMutability": "nonpayable",
      "type": "function"
    },
    {
      "constant": false,
      "inputs": [
        {
          "name": "_kyberNetwork",
          "type": "address"
        },
        {
          "name": "_conversionRates",
          "type": "address"
        },
        {
          "name": "_sanityRates",
          "type": "address"
        }
      ],
      "name": "setContracts",
      "outputs": [],
      "payable": false,
      "stateMutability": "nonpayable",
      "type": "function"
    },
    {
      "constant": true,
      "inputs": [
        {
          "name": "token",
          "type": "address"
        }
      ],
      "name": "getBalance",
      "outputs": [
        {
          "name": "",
          "type": "uint256"
        }
      ],
      "payable": false,
      "stateMutability": "view",
      "type": "function"
    },
    {
      "constant": true,
      "inputs": [
        {
          "name": "src",
          "type": "address"
        },
        {
          "name": "dest",
          "type": "address"
        },
        {
          "name": "srcQty",
          "type": "uint256"
        },
        {
          "name": "rate",
          "type": "uint256"
        }
      ],
      "name": "getDestQty",
      "outputs": [
        {
          "name": "",
          "type": "uint256"
        }
      ],
      "payable": false,
      "stateMutability": "view",
      "type": "function"
    },
    {
      "constant": true,
      "inputs": [
        {
          "name": "src",
          "type": "address"
        },
        {
          "name": "dest",
          "type": "address"
        },
        {
          "name": "dstQty",
          "type": "uint256"
        },
        {
          "name": "rate",
          "type": "uint256"
        }
      ],
      "name": "getSrcQty",
      "outputs": [
        {
          "name": "",
          "type": "uint256"
        }
      ],
      "payable": false,
      "stateMutability": "view",
      "type": "function"
    },
    {
      "constant": true,
      "inputs": [
        {
          "name": "src",
          "type": "address"
        },
        {
          "name": "dest",
          "type": "address"
        },
        {
          "name": "srcQty",
          "type": "uint256"
        },
        {
          "name": "blockNumber",
          "type": "uint256"
        }
      ],
      "name": "getConversionRate",
      "outputs": [
        {
          "name": "",
          "type": "uint256"
        }
      ],
      "payable": false,
      "stateMutability": "view",
      "type": "function"
    }
  ],
  "bytecode": "0x6060604052336000806101000a81548173ffffffffffffffffffffffffffffffffffffffff021916908373ffffffffffffffffffffffffffffffffffffffff160217905550613a1e806100536000396000f300606060405260043610610174576000357c0100000000000000000000000000000000000000000000000000000000900463ffffffff16806299d386146101f557806301a12fd314610222578063267822471461025b57806327a099d8146102b05780633ccdbb281461031a578063408ee7fe1461037b57806347e6924f146103b4578063546dc71c1461040957806369328dec1461046c5780636940030f146104e55780636cf698111461051257806375829def146105b357806377f50f97146105ec5780637acc8678146106015780637c423f541461063a5780637cd44272146106a45780638a31172d146107225780639870d7fe14610799578063a7fca953146107d2578063ac8a584a14610850578063b3066d4914610889578063b78b842d14610900578063ce56c45414610955578063d5847d3314610997578063d621e813146109ec578063d7b7024d14610a19578063f851a44014610a58578063f8b2cb4f14610aad578063fa64dffa14610afa575b7f2d0c0a8842b9944ece1495eb61121621b5e36bd6af3bba0318c695f525aef79f73eeeeeeeeeeeeeeeeeeeeeeeeeeeeeeeeeeeeeeee34604051808373ffffffffffffffffffffffffffffffffffffffff1673ffffffffffffffffffffffffffffffffffffffff1681526020018281526020019250505060405180910390a1005b341561020057600080fd5b610208610b78565b604051808215151515815260200191505060405180910390f35b341561022d57600080fd5b610259600480803573ffffffffffffffffffffffffffffffffffffffff16906020019091905050610c33565b005b341561026657600080fd5b61026e610ef5565b604051808273ffffffffffffffffffffffffffffffffffffffff1673ffffffffffffffffffffffffffffffffffffffff16815260200191505060405180910390f35b34156102bb57600080fd5b6102c3610f1b565b6040518080602001828103825283818151815260200191508051906020019060200280838360005b838110156103065780820151818401526020810190506102eb565b505050509050019250505060405180910390f35b341561032557600080fd5b610379600480803573ffffffffffffffffffffffffffffffffffffffff1690602001909190803590602001909190803573ffffffffffffffffffffffffffffffffffffffff16906020019091905050610faf565b005b341561038657600080fd5b6103b2600480803573ffffffffffffffffffffffffffffffffffffffff1690602001909190505061117f565b005b34156103bf57600080fd5b6103c7611375565b604051808273ffffffffffffffffffffffffffffffffffffffff1673ffffffffffffffffffffffffffffffffffffffff16815260200191505060405180910390f35b341561041457600080fd5b61046a600480803573ffffffffffffffffffffffffffffffffffffffff1690602001909190803573ffffffffffffffffffffffffffffffffffffffff16906020019091908035151590602001909190505061139b565b005b341561047757600080fd5b6104cb600480803573ffffffffffffffffffffffffffffffffffffffff1690602001909190803590602001909190803573ffffffffffffffffffffffffffffffffffffffff1690602001909190505061156d565b604051808215151515815260200191505060405180910390f35b34156104f057600080fd5b6104f8611897565b604051808215151515815260200191505060405180910390f35b610599600480803573ffffffffffffffffffffffffffffffffffffffff1690602001909190803590602001909190803573ffffffffffffffffffffffffffffffffffffffff1690602001909190803573ffffffffffffffffffffffffffffffffffffffff16906020019091908035906020019091908035151590602001909190505061194f565b604051808215151515815260200191505060405180910390f35b34156105be57600080fd5b6105ea600480803573ffffffffffffffffffffffffffffffffffffffff169060200190919050506119ef565b005b34156105f757600080fd5b6105ff611b4f565b005b341561060c57600080fd5b610638600480803573ffffffffffffffffffffffffffffffffffffffff16906020019091905050611d2b565b005b341561064557600080fd5b61064d611f20565b6040518080602001828103825283818151815260200191508051906020019060200280838360005b83811015610690578082015181840152602081019050610675565b505050509050019250505060405180910390f35b34156106af57600080fd5b61070c600480803573ffffffffffffffffffffffffffffffffffffffff1690602001909190803573ffffffffffffffffffffffffffffffffffffffff16906020019091908035906020019091908035906020019091905050611fb4565b6040518082815260200191505060405180910390f35b341561072d57600080fd5b610797600480803573ffffffffffffffffffffffffffffffffffffffff1690602001909190803573ffffffffffffffffffffffffffffffffffffffff1690602001909190803573ffffffffffffffffffffffffffffffffffffffff16906020019091905050612344565b005b34156107a457600080fd5b6107d0600480803573ffffffffffffffffffffffffffffffffffffffff169060200190919050506124da565b005b34156107dd57600080fd5b61083a600480803573ffffffffffffffffffffffffffffffffffffffff1690602001909190803573ffffffffffffffffffffffffffffffffffffffff169060200190919080359060200190919080359060200190919050506126d0565b6040518082815260200191505060405180910390f35b341561085b57600080fd5b610887600480803573ffffffffffffffffffffffffffffffffffffffff16906020019091905050612703565b005b341561089457600080fd5b6108fe600480803573ffffffffffffffffffffffffffffffffffffffff1690602001909190803573ffffffffffffffffffffffffffffffffffffffff1690602001909190803573ffffffffffffffffffffffffffffffffffffffff169060200190919050506129c8565b005b341561090b57600080fd5b610913612c94565b604051808273ffffffffffffffffffffffffffffffffffffffff1673ffffffffffffffffffffffffffffffffffffffff16815260200191505060405180910390f35b341561096057600080fd5b610995600480803590602001909190803573ffffffffffffffffffffffffffffffffffffffff16906020019091905050612cba565b005b34156109a257600080fd5b6109aa612dc4565b604051808273ffffffffffffffffffffffffffffffffffffffff1673ffffffffffffffffffffffffffffffffffffffff16815260200191505060405180910390f35b34156109f757600080fd5b6109ff612dea565b604051808215151515815260200191505060405180910390f35b3415610a2457600080fd5b610a3e600480803560001916906020019091905050612dfd565b604051808215151515815260200191505060405180910390f35b3415610a6357600080fd5b610a6b612e1d565b604051808273ffffffffffffffffffffffffffffffffffffffff1673ffffffffffffffffffffffffffffffffffffffff16815260200191505060405180910390f35b3415610ab857600080fd5b610ae4600480803573ffffffffffffffffffffffffffffffffffffffff16906020019091905050612e42565b6040518082815260200191505060405180910390f35b3415610b0557600080fd5b610b62600480803573ffffffffffffffffffffffffffffffffffffffff1690602001909190803573ffffffffffffffffffffffffffffffffffffffff16906020019091908035906020019091908035906020019091905050612f71565b6040518082815260200191505060405180910390f35b60008060009054906101000a900473ffffffffffffffffffffffffffffffffffffffff1673ffffffffffffffffffffffffffffffffffffffff163373ffffffffffffffffffffffffffffffffffffffff16141515610bd557600080fd5b6001600760146101000a81548160ff0219169083151502179055507f7d7f00509dd73ac4449f698ae75ccc797895eff5fa9d446d3df387598a26e7356001604051808215151515815260200191505060405180910390a16001905090565b60008060009054906101000a900473ffffffffffffffffffffffffffffffffffffffff1673ffffffffffffffffffffffffffffffffffffffff163373ffffffffffffffffffffffffffffffffffffffff16141515610c9057600080fd5b600360008373ffffffffffffffffffffffffffffffffffffffff1673ffffffffffffffffffffffffffffffffffffffff16815260200190815260200160002060009054906101000a900460ff161515610ce857600080fd5b6000600360008473ffffffffffffffffffffffffffffffffffffffff1673ffffffffffffffffffffffffffffffffffffffff16815260200190815260200160002060006101000a81548160ff021916908315150217905550600090505b600580549050811015610ef1578173ffffffffffffffffffffffffffffffffffffffff16600582815481101515610d7857fe5b906000526020600020900160009054906101000a900473ffffffffffffffffffffffffffffffffffffffff1673ffffffffffffffffffffffffffffffffffffffff161415610ee6576005600160058054905003815481101515610dd757fe5b906000526020600020900160009054906101000a900473ffffffffffffffffffffffffffffffffffffffff16600582815481101515610e1257fe5b906000526020600020900160006101000a81548173ffffffffffffffffffffffffffffffffffffffff021916908373ffffffffffffffffffffffffffffffffffffffff1602179055506005805480919060019003610e709190613961565b507f5611bf3e417d124f97bf2c788843ea8bb502b66079fbee02158ef30b172cb762826000604051808373ffffffffffffffffffffffffffffffffffffffff1673ffffffffffffffffffffffffffffffffffffffff168152602001821515151581526020019250505060405180910390a1610ef1565b806001019050610d45565b5050565b600160009054906101000a900473ffffffffffffffffffffffffffffffffffffffff1681565b610f2361398d565b6004805480602002602001604051908101604052809291908181526020018280548015610fa557602002820191906000526020600020905b8160009054906101000a900473ffffffffffffffffffffffffffffffffffffffff1673ffffffffffffffffffffffffffffffffffffffff1681526020019060010190808311610f5b575b5050505050905090565b6000809054906101000a900473ffffffffffffffffffffffffffffffffffffffff1673ffffffffffffffffffffffffffffffffffffffff163373ffffffffffffffffffffffffffffffffffffffff1614151561100a57600080fd5b8273ffffffffffffffffffffffffffffffffffffffff1663a9059cbb82846000604051602001526040518363ffffffff167c0100000000000000000000000000000000000000000000000000000000028152600401808373ffffffffffffffffffffffffffffffffffffffff1673ffffffffffffffffffffffffffffffffffffffff16815260200182815260200192505050602060405180830381600087803b15156110b557600080fd5b6102c65a03f115156110c657600080fd5b5050506040518051905015156110db57600080fd5b7f72cb8a894ddb372ceec3d2a7648d86f17d5a15caae0e986c53109b8a9a9385e6838383604051808473ffffffffffffffffffffffffffffffffffffffff1673ffffffffffffffffffffffffffffffffffffffff1681526020018381526020018273ffffffffffffffffffffffffffffffffffffffff1673ffffffffffffffffffffffffffffffffffffffff168152602001935050505060405180910390a1505050565b6000809054906101000a900473ffffffffffffffffffffffffffffffffffffffff1673ffffffffffffffffffffffffffffffffffffffff163373ffffffffffffffffffffffffffffffffffffffff161415156111da57600080fd5b600360008273ffffffffffffffffffffffffffffffffffffffff1673ffffffffffffffffffffffffffffffffffffffff16815260200190815260200160002060009054906101000a900460ff1615151561123357600080fd5b603260058054905010151561124757600080fd5b7f5611bf3e417d124f97bf2c788843ea8bb502b66079fbee02158ef30b172cb762816001604051808373ffffffffffffffffffffffffffffffffffffffff1673ffffffffffffffffffffffffffffffffffffffff168152602001821515151581526020019250505060405180910390a16001600360008373ffffffffffffffffffffffffffffffffffffffff1673ffffffffffffffffffffffffffffffffffffffff16815260200190815260200160002060006101000a81548160ff0219169083151502179055506005805480600101828161132391906139a1565b9160005260206000209001600083909190916101000a81548173ffffffffffffffffffffffffffffffffffffffff021916908373ffffffffffffffffffffffffffffffffffffffff1602179055505050565b600960009054906101000a900473ffffffffffffffffffffffffffffffffffffffff1681565b6000809054906101000a900473ffffffffffffffffffffffffffffffffffffffff1673ffffffffffffffffffffffffffffffffffffffff163373ffffffffffffffffffffffffffffffffffffffff161415156113f657600080fd5b80600a60008585604051808373ffffffffffffffffffffffffffffffffffffffff1673ffffffffffffffffffffffffffffffffffffffff166c010000000000000000000000000281526014018273ffffffffffffffffffffffffffffffffffffffff1673ffffffffffffffffffffffffffffffffffffffff166c010000000000000000000000000281526014019250505060405180910390206000191660001916815260200190815260200160002060006101000a81548160ff0219169083151502179055507fd5fd5351efae1f4bb760079da9f0ff9589e2c3e216337ca9d39cdff573b245c4838383604051808473ffffffffffffffffffffffffffffffffffffffff1673ffffffffffffffffffffffffffffffffffffffff1681526020018373ffffffffffffffffffffffffffffffffffffffff1673ffffffffffffffffffffffffffffffffffffffff16815260200182151515158152602001935050505060405180910390a161156883612fa4565b505050565b6000600260003373ffffffffffffffffffffffffffffffffffffffff1673ffffffffffffffffffffffffffffffffffffffff16815260200190815260200160002060009054906101000a900460ff1615156115c757600080fd5b600a60008584604051808373ffffffffffffffffffffffffffffffffffffffff1673ffffffffffffffffffffffffffffffffffffffff166c010000000000000000000000000281526014018273ffffffffffffffffffffffffffffffffffffffff1673ffffffffffffffffffffffffffffffffffffffff166c010000000000000000000000000281526014019250505060405180910390206000191660001916815260200190815260200160002060009054906101000a900460ff16151561168e57600080fd5b73eeeeeeeeeeeeeeeeeeeeeeeeeeeeeeeeeeeeeeee73ffffffffffffffffffffffffffffffffffffffff168473ffffffffffffffffffffffffffffffffffffffff16141561171b578173ffffffffffffffffffffffffffffffffffffffff166108fc849081150290604051600060405180830381858888f19350505050151561171657600080fd5b6117ed565b8373ffffffffffffffffffffffffffffffffffffffff1663a9059cbb83856000604051602001526040518363ffffffff167c0100000000000000000000000000000000000000000000000000000000028152600401808373ffffffffffffffffffffffffffffffffffffffff1673ffffffffffffffffffffffffffffffffffffffff16815260200182815260200192505050602060405180830381600087803b15156117c657600080fd5b6102c65a03f115156117d757600080fd5b5050506040518051905015156117ec57600080fd5b5b7fb67719fc33c1f17d31bf3a698690d62066b1e0bae28fcd3c56cf2c015c2863d6848484604051808473ffffffffffffffffffffffffffffffffffffffff1673ffffffffffffffffffffffffffffffffffffffff1681526020018381526020018273ffffffffffffffffffffffffffffffffffffffff1673ffffffffffffffffffffffffffffffffffffffff168152602001935050505060405180910390a1600190509392505050565b6000600360003373ffffffffffffffffffffffffffffffffffffffff1673ffffffffffffffffffffffffffffffffffffffff16815260200190815260200160002060009054906101000a900460ff1615156118f157600080fd5b6000600760146101000a81548160ff0219169083151502179055507f7d7f00509dd73ac4449f698ae75ccc797895eff5fa9d446d3df387598a26e7356000604051808215151515815260200191505060405180910390a16001905090565b6000600760149054906101000a900460ff16151561196c57600080fd5b600760009054906101000a900473ffffffffffffffffffffffffffffffffffffffff1673ffffffffffffffffffffffffffffffffffffffff163373ffffffffffffffffffffffffffffffffffffffff161415156119c857600080fd5b6119d6878787878787613104565b15156119e157600080fd5b600190509695505050505050565b6000809054906101000a900473ffffffffffffffffffffffffffffffffffffffff1673ffffffffffffffffffffffffffffffffffffffff163373ffffffffffffffffffffffffffffffffffffffff16141515611a4a57600080fd5b600073ffffffffffffffffffffffffffffffffffffffff168173ffffffffffffffffffffffffffffffffffffffff1614151515611a8657600080fd5b7f3b81caf78fa51ecbc8acb482fd7012a277b428d9b80f9d156e8a54107496cc40600160009054906101000a900473ffffffffffffffffffffffffffffffffffffffff16604051808273ffffffffffffffffffffffffffffffffffffffff1673ffffffffffffffffffffffffffffffffffffffff16815260200191505060405180910390a180600160006101000a81548173ffffffffffffffffffffffffffffffffffffffff021916908373ffffffffffffffffffffffffffffffffffffffff16021790555050565b3373ffffffffffffffffffffffffffffffffffffffff16600160009054906101000a900473ffffffffffffffffffffffffffffffffffffffff1673ffffffffffffffffffffffffffffffffffffffff16141515611bab57600080fd5b7f65da1cfc2c2e81576ad96afb24a581f8e109b7a403b35cbd3243a1c99efdb9ed600160009054906101000a900473ffffffffffffffffffffffffffffffffffffffff166000809054906101000a900473ffffffffffffffffffffffffffffffffffffffff16604051808373ffffffffffffffffffffffffffffffffffffffff1673ffffffffffffffffffffffffffffffffffffffff1681526020018273ffffffffffffffffffffffffffffffffffffffff1673ffffffffffffffffffffffffffffffffffffffff1681526020019250505060405180910390a1600160009054906101000a900473ffffffffffffffffffffffffffffffffffffffff166000806101000a81548173ffffffffffffffffffffffffffffffffffffffff021916908373ffffffffffffffffffffffffffffffffffffffff1602179055506000600160006101000a81548173ffffffffffffffffffffffffffffffffffffffff021916908373ffffffffffffffffffffffffffffffffffffffff160217905550565b6000809054906101000a900473ffffffffffffffffffffffffffffffffffffffff1673ffffffffffffffffffffffffffffffffffffffff163373ffffffffffffffffffffffffffffffffffffffff16141515611d8657600080fd5b600073ffffffffffffffffffffffffffffffffffffffff168173ffffffffffffffffffffffffffffffffffffffff1614151515611dc257600080fd5b7f3b81caf78fa51ecbc8acb482fd7012a277b428d9b80f9d156e8a54107496cc4081604051808273ffffffffffffffffffffffffffffffffffffffff1673ffffffffffffffffffffffffffffffffffffffff16815260200191505060405180910390a17f65da1cfc2c2e81576ad96afb24a581f8e109b7a403b35cbd3243a1c99efdb9ed816000809054906101000a900473ffffffffffffffffffffffffffffffffffffffff16604051808373ffffffffffffffffffffffffffffffffffffffff1673ffffffffffffffffffffffffffffffffffffffff1681526020018273ffffffffffffffffffffffffffffffffffffffff1673ffffffffffffffffffffffffffffffffffffffff1681526020019250505060405180910390a1806000806101000a81548173ffffffffffffffffffffffffffffffffffffffff021916908373ffffffffffffffffffffffffffffffffffffffff16021790555050565b611f2861398d565b6005805480602002602001604051908101604052809291908181526020018280548015611faa57602002820191906000526020600020905b8160009054906101000a900473ffffffffffffffffffffffffffffffffffffffff1673ffffffffffffffffffffffffffffffffffffffff1681526020019060010190808311611f60575b5050505050905090565b600080600080600080600760149054906101000a900460ff161515611fdc5760009550612337565b8973ffffffffffffffffffffffffffffffffffffffff1673eeeeeeeeeeeeeeeeeeeeeeeeeeeeeeeeeeeeeeee73ffffffffffffffffffffffffffffffffffffffff161415612030576001935088945061208e565b8873ffffffffffffffffffffffffffffffffffffffff1673eeeeeeeeeeeeeeeeeeeeeeeeeeeeeeeeeeeeeeee73ffffffffffffffffffffffffffffffffffffffff161415612084576000935089945061208d565b60009550612337565b5b600860009054906101000a900473ffffffffffffffffffffffffffffffffffffffff1673ffffffffffffffffffffffffffffffffffffffff1663b8e9c22e8689878c6000604051602001526040518563ffffffff167c0100000000000000000000000000000000000000000000000000000000028152600401808573ffffffffffffffffffffffffffffffffffffffff1673ffffffffffffffffffffffffffffffffffffffff16815260200184815260200183151515158152602001828152602001945050505050602060405180830381600087803b151561216f57600080fd5b6102c65a03f1151561218057600080fd5b5050506040518051905092506121988a8a8a86612f71565b9150816121a48a612e42565b10156121b35760009550612337565b600073ffffffffffffffffffffffffffffffffffffffff16600960009054906101000a900473ffffffffffffffffffffffffffffffffffffffff1673ffffffffffffffffffffffffffffffffffffffff1614151561233357600960009054906101000a900473ffffffffffffffffffffffffffffffffffffffff1673ffffffffffffffffffffffffffffffffffffffff1663a58092b78b8b6000604051602001526040518363ffffffff167c0100000000000000000000000000000000000000000000000000000000028152600401808373ffffffffffffffffffffffffffffffffffffffff1673ffffffffffffffffffffffffffffffffffffffff1681526020018273ffffffffffffffffffffffffffffffffffffffff1673ffffffffffffffffffffffffffffffffffffffff16815260200192505050602060405180830381600087803b151561230457600080fd5b6102c65a03f1151561231557600080fd5b505050604051805190509050808311156123325760009550612337565b5b8295505b5050505050949350505050565b600073ffffffffffffffffffffffffffffffffffffffff168173ffffffffffffffffffffffffffffffffffffffff161415151561238057600080fd5b600073ffffffffffffffffffffffffffffffffffffffff168273ffffffffffffffffffffffffffffffffffffffff16141515156123bc57600080fd5b600073ffffffffffffffffffffffffffffffffffffffff168373ffffffffffffffffffffffffffffffffffffffff16141515156123f857600080fd5b82600760006101000a81548173ffffffffffffffffffffffffffffffffffffffff021916908373ffffffffffffffffffffffffffffffffffffffff16021790555081600860006101000a81548173ffffffffffffffffffffffffffffffffffffffff021916908373ffffffffffffffffffffffffffffffffffffffff160217905550806000806101000a81548173ffffffffffffffffffffffffffffffffffffffff021916908373ffffffffffffffffffffffffffffffffffffffff1602179055506001600760146101000a81548160ff021916908315150217905550505050565b6000809054906101000a900473ffffffffffffffffffffffffffffffffffffffff1673ffffffffffffffffffffffffffffffffffffffff163373ffffffffffffffffffffffffffffffffffffffff1614151561253557600080fd5b600260008273ffffffffffffffffffffffffffffffffffffffff1673ffffffffffffffffffffffffffffffffffffffff16815260200190815260200160002060009054906101000a900460ff1615151561258e57600080fd5b60326004805490501015156125a257600080fd5b7f091a7a4b85135fdd7e8dbc18b12fabe5cc191ea867aa3c2e1a24a102af61d58b816001604051808373ffffffffffffffffffffffffffffffffffffffff1673ffffffffffffffffffffffffffffffffffffffff168152602001821515151581526020019250505060405180910390a16001600260008373ffffffffffffffffffffffffffffffffffffffff1673ffffffffffffffffffffffffffffffffffffffff16815260200190815260200160002060006101000a81548160ff0219169083151502179055506004805480600101828161267e91906139a1565b9160005260206000209001600083909190916101000a81548173ffffffffffffffffffffffffffffffffffffffff021916908373ffffffffffffffffffffffffffffffffffffffff1602179055505050565b60008060006126de866136be565b91506126e9876136be565b90506126f7858284876137f5565b92505050949350505050565b60008060009054906101000a900473ffffffffffffffffffffffffffffffffffffffff1673ffffffffffffffffffffffffffffffffffffffff163373ffffffffffffffffffffffffffffffffffffffff1614151561276057600080fd5b600260008373ffffffffffffffffffffffffffffffffffffffff1673ffffffffffffffffffffffffffffffffffffffff16815260200190815260200160002060009054906101000a900460ff1615156127b857600080fd5b6000600260008473ffffffffffffffffffffffffffffffffffffffff1673ffffffffffffffffffffffffffffffffffffffff16815260200190815260200160002060006101000a81548160ff021916908315150217905550600090505b6004805490508110156129c4578173ffffffffffffffffffffffffffffffffffffffff1660048281548110151561284857fe5b906000526020600020900160009054906101000a900473ffffffffffffffffffffffffffffffffffffffff1673ffffffffffffffffffffffffffffffffffffffff1614156129b95760046001600480549050038154811015156128a757fe5b906000526020600020900160009054906101000a900473ffffffffffffffffffffffffffffffffffffffff166004828154811015156128e257fe5b906000526020600020900160006101000a81548173ffffffffffffffffffffffffffffffffffffffff021916908373ffffffffffffffffffffffffffffffffffffffff16021790555060016004818180549050039150816129439190613961565b507f091a7a4b85135fdd7e8dbc18b12fabe5cc191ea867aa3c2e1a24a102af61d58b826000604051808373ffffffffffffffffffffffffffffffffffffffff1673ffffffffffffffffffffffffffffffffffffffff168152602001821515151581526020019250505060405180910390a16129c4565b806001019050612815565b5050565b6000809054906101000a900473ffffffffffffffffffffffffffffffffffffffff1673ffffffffffffffffffffffffffffffffffffffff163373ffffffffffffffffffffffffffffffffffffffff16141515612a2357600080fd5b600073ffffffffffffffffffffffffffffffffffffffff168373ffffffffffffffffffffffffffffffffffffffff1614151515612a5f57600080fd5b600073ffffffffffffffffffffffffffffffffffffffff168273ffffffffffffffffffffffffffffffffffffffff1614151515612a9b57600080fd5b82600760006101000a81548173ffffffffffffffffffffffffffffffffffffffff021916908373ffffffffffffffffffffffffffffffffffffffff16021790555081600860006101000a81548173ffffffffffffffffffffffffffffffffffffffff021916908373ffffffffffffffffffffffffffffffffffffffff16021790555080600960006101000a81548173ffffffffffffffffffffffffffffffffffffffff021916908373ffffffffffffffffffffffffffffffffffffffff1602179055507f7a85322644a4462d8ff5482d2a841a4d231f8cfb3c9f4a50f66f8b2bd568c31c600760009054906101000a900473ffffffffffffffffffffffffffffffffffffffff16600860009054906101000a900473ffffffffffffffffffffffffffffffffffffffff16600960009054906101000a900473ffffffffffffffffffffffffffffffffffffffff16604051808473ffffffffffffffffffffffffffffffffffffffff1673ffffffffffffffffffffffffffffffffffffffff1681526020018373ffffffffffffffffffffffffffffffffffffffff1673ffffffffffffffffffffffffffffffffffffffff1681526020018273ffffffffffffffffffffffffffffffffffffffff1673ffffffffffffffffffffffffffffffffffffffff168152602001935050505060405180910390a1505050565b600760009054906101000a900473ffffffffffffffffffffffffffffffffffffffff1681565b6000809054906101000a900473ffffffffffffffffffffffffffffffffffffffff1673ffffffffffffffffffffffffffffffffffffffff163373ffffffffffffffffffffffffffffffffffffffff16141515612d1557600080fd5b8073ffffffffffffffffffffffffffffffffffffffff166108fc839081150290604051600060405180830381858888f193505050501515612d5557600080fd5b7fec47e7ed86c86774d1a72c19f35c639911393fe7c1a34031fdbd260890da90de8282604051808381526020018273ffffffffffffffffffffffffffffffffffffffff1673ffffffffffffffffffffffffffffffffffffffff1681526020019250505060405180910390a15050565b600860009054906101000a900473ffffffffffffffffffffffffffffffffffffffff1681565b600760149054906101000a900460ff1681565b600a6020528060005260406000206000915054906101000a900460ff1681565b6000809054906101000a900473ffffffffffffffffffffffffffffffffffffffff1681565b600073eeeeeeeeeeeeeeeeeeeeeeeeeeeeeeeeeeeeeeee73ffffffffffffffffffffffffffffffffffffffff168273ffffffffffffffffffffffffffffffffffffffff161415612eab573073ffffffffffffffffffffffffffffffffffffffff16319050612f6c565b8173ffffffffffffffffffffffffffffffffffffffff166370a08231306000604051602001526040518263ffffffff167c0100000000000000000000000000000000000000000000000000000000028152600401808273ffffffffffffffffffffffffffffffffffffffff1673ffffffffffffffffffffffffffffffffffffffff168152602001915050602060405180830381600087803b1515612f4e57600080fd5b6102c65a03f11515612f5f57600080fd5b5050506040518051905090505b919050565b6000806000612f7f866136be565b9150612f8a876136be565b9050612f98858284876138af565b92505050949350505050565b73eeeeeeeeeeeeeeeeeeeeeeeeeeeeeeeeeeeeeeee73ffffffffffffffffffffffffffffffffffffffff168173ffffffffffffffffffffffffffffffffffffffff161415613036576012600660008373ffffffffffffffffffffffffffffffffffffffff1673ffffffffffffffffffffffffffffffffffffffff16815260200190815260200160002081905550613101565b8073ffffffffffffffffffffffffffffffffffffffff1663313ce5676000604051602001526040518163ffffffff167c0100000000000000000000000000000000000000000000000000000000028152600401602060405180830381600087803b15156130a257600080fd5b6102c65a03f115156130b357600080fd5b50505060405180519050600660008373ffffffffffffffffffffffffffffffffffffffff1673ffffffffffffffffffffffffffffffffffffffff168152602001908152602001600020819055505b50565b600080600080841561318b5760008611151561311f57600080fd5b73eeeeeeeeeeeeeeeeeeeeeeeeeeeeeeeeeeeeeeee73ffffffffffffffffffffffffffffffffffffffff168a73ffffffffffffffffffffffffffffffffffffffff16141561317a57883414151561317557600080fd5b61318a565b60003414151561318957600080fd5b5b5b6131978a898b89612f71565b92506000831115156131a857600080fd5b73eeeeeeeeeeeeeeeeeeeeeeeeeeeeeeeeeeeeeeee73ffffffffffffffffffffffffffffffffffffffff168a73ffffffffffffffffffffffffffffffffffffffff1614156131fb57829050879150613224565b887fffffffffffffffffffffffffffffffffffffffffffffffffffffffffffffffff0290508991505b600860009054906101000a900473ffffffffffffffffffffffffffffffffffffffff1673ffffffffffffffffffffffffffffffffffffffff1663c6fd210383836000436040518563ffffffff167c0100000000000000000000000000000000000000000000000000000000028152600401808573ffffffffffffffffffffffffffffffffffffffff1673ffffffffffffffffffffffffffffffffffffffff168152602001848152602001838152602001828152602001945050505050600060405180830381600087803b15156132f957600080fd5b6102c65a03f1151561330a57600080fd5b50505073eeeeeeeeeeeeeeeeeeeeeeeeeeeeeeeeeeeeeeee73ffffffffffffffffffffffffffffffffffffffff168a73ffffffffffffffffffffffffffffffffffffffff1614151561345c578973ffffffffffffffffffffffffffffffffffffffff166323b872dd33308c6000604051602001526040518463ffffffff167c0100000000000000000000000000000000000000000000000000000000028152600401808473ffffffffffffffffffffffffffffffffffffffff1673ffffffffffffffffffffffffffffffffffffffff1681526020018373ffffffffffffffffffffffffffffffffffffffff1673ffffffffffffffffffffffffffffffffffffffff1681526020018281526020019350505050602060405180830381600087803b151561343557600080fd5b6102c65a03f1151561344657600080fd5b50505060405180519050151561345b57600080fd5b5b73eeeeeeeeeeeeeeeeeeeeeeeeeeeeeeeeeeeeeeee73ffffffffffffffffffffffffffffffffffffffff168873ffffffffffffffffffffffffffffffffffffffff1614156134e9578673ffffffffffffffffffffffffffffffffffffffff166108fc849081150290604051600060405180830381858888f1935050505015156134e457600080fd5b6135bb565b8773ffffffffffffffffffffffffffffffffffffffff1663a9059cbb88856000604051602001526040518363ffffffff167c0100000000000000000000000000000000000000000000000000000000028152600401808373ffffffffffffffffffffffffffffffffffffffff1673ffffffffffffffffffffffffffffffffffffffff16815260200182815260200192505050602060405180830381600087803b151561359457600080fd5b6102c65a03f115156135a557600080fd5b5050506040518051905015156135ba57600080fd5b5b3373ffffffffffffffffffffffffffffffffffffffff167fea9415385bae08fe9f6dc457b02577166790cde83bb18cc340aac6cb81b824de8b8b8b878c604051808673ffffffffffffffffffffffffffffffffffffffff1673ffffffffffffffffffffffffffffffffffffffff1681526020018581526020018473ffffffffffffffffffffffffffffffffffffffff1673ffffffffffffffffffffffffffffffffffffffff1681526020018381526020018273ffffffffffffffffffffffffffffffffffffffff1673ffffffffffffffffffffffffffffffffffffffff1681526020019550505050505060405180910390a2600193505050509695505050505050565b60008073eeeeeeeeeeeeeeeeeeeeeeeeeeeeeeeeeeeeeeee73ffffffffffffffffffffffffffffffffffffffff168373ffffffffffffffffffffffffffffffffffffffff16141561371257601291506137ef565b600660008473ffffffffffffffffffffffffffffffffffffffff1673ffffffffffffffffffffffffffffffffffffffff16815260200190815260200160002054905060008114156137eb578273ffffffffffffffffffffffffffffffffffffffff1663313ce5676000604051602001526040518163ffffffff167c0100000000000000000000000000000000000000000000000000000000028152600401602060405180830381600087803b15156137c957600080fd5b6102c65a03f115156137da57600080fd5b5050506040518051905091506137ef565b8091505b50919050565b60008060006b204fce5e3e25026110000000871115151561381557600080fd5b620f4240670de0b6b3a764000002841115151561383157600080fd5b84861015156138685760128587031115151561384c57600080fd5b848603600a0a87670de0b6b3a764000002029150839050613892565b60128686031115151561387a57600080fd5b86670de0b6b3a7640000029150858503600a0a840290505b806001828401038115156138a257fe5b0492505050949350505050565b60006b204fce5e3e2502611000000085111515156138cc57600080fd5b620f4240670de0b6b3a76400000282111515156138e857600080fd5b83831015156139275760128484031115151561390357600080fd5b670de0b6b3a7640000848403600a0a8387020281151561391f57fe5b049050613959565b60128385031115151561393957600080fd5b828403600a0a670de0b6b3a76400000282860281151561395557fe5b0490505b949350505050565b8154818355818115116139885781836000526020600020918201910161398791906139cd565b5b505050565b602060405190810160405280600081525090565b8154818355818115116139c8578183600052602060002091820191016139c791906139cd565b5b505050565b6139ef91905b808211156139eb5760008160009055506001016139d3565b5090565b905600a165627a7a72305820e0449b6edc6c2d4f111d443e39191cf2517df385849a7cd61618d6d18d7226e00029",
  "source": "pragma solidity 0.4.18;\n\n\nimport \"../ERC20Interface.sol\";\nimport \"../Utils.sol\";\nimport \"../Withdrawable.sol\";\nimport \"../ConversionRatesInterface.sol\";\nimport \"../SanityRatesInterface.sol\";\nimport \"../KyberReserveInterface.sol\";\n\n\n/// @title Kyber Reserve contract\ncontract KyberReserveV1 is KyberReserveInterface, Withdrawable, Utils {\n\n    address public kyberNetwork;\n    bool public tradeEnabled;\n    ConversionRatesInterface public conversionRatesContract;\n    SanityRatesInterface public sanityRatesContract;\n    mapping(bytes32=>bool) public approvedWithdrawAddresses; // sha3(token,address)=>bool\n\n    function KyberReserve(address _kyberNetwork, ConversionRatesInterface _ratesContract, address _admin) public {\n        require(_admin != address(0));\n        require(_ratesContract != address(0));\n        require(_kyberNetwork != address(0));\n        kyberNetwork = _kyberNetwork;\n        conversionRatesContract = _ratesContract;\n        admin = _admin;\n        tradeEnabled = true;\n    }\n\n    event DepositToken(ERC20 token, uint amount);\n\n    function() public payable {\n        DepositToken(ETH_TOKEN_ADDRESS, msg.value);\n    }\n\n    event TradeExecute(\n        address indexed origin,\n        address src,\n        uint srcAmount,\n        address destToken,\n        uint destAmount,\n        address destAddress\n    );\n\n    function trade(\n        ERC20 srcToken,\n        uint srcAmount,\n        ERC20 destToken,\n        address destAddress,\n        uint conversionRate,\n        bool validate\n    )\n    public\n    payable\n    returns(bool)\n    {\n        require(tradeEnabled);\n        require(msg.sender == kyberNetwork);\n\n        require(doTrade(srcToken, srcAmount, destToken, destAddress, conversionRate, validate));\n\n        return true;\n    }\n\n    event TradeEnabled(bool enable);\n\n    function enableTrade() public onlyAdmin returns(bool) {\n        tradeEnabled = true;\n        TradeEnabled(true);\n\n        return true;\n    }\n\n    function disableTrade() public onlyAlerter returns(bool) {\n        tradeEnabled = false;\n        TradeEnabled(false);\n\n        return true;\n    }\n\n    event WithdrawAddressApproved(ERC20 token, address addr, bool approve);\n\n    function approveWithdrawAddress(ERC20 token, address addr, bool approve) public onlyAdmin {\n        approvedWithdrawAddresses[keccak256(token, addr)] = approve;\n        WithdrawAddressApproved(token, addr, approve);\n\n        setDecimals(token);\n    }\n\n    event WithdrawFunds(ERC20 token, uint amount, address destination);\n\n    function withdraw(ERC20 token, uint amount, address destination) public onlyOperator returns(bool) {\n        require(approvedWithdrawAddresses[keccak256(token, destination)]);\n\n        if (token == ETH_TOKEN_ADDRESS) {\n            destination.transfer(amount);\n        } else {\n            require(token.transfer(destination, amount));\n        }\n\n        WithdrawFunds(token, amount, destination);\n\n        return true;\n    }\n\n    event SetContractAddresses(address network, address rate, address sanity);\n\n    function setContracts(address _kyberNetwork, ConversionRatesInterface _conversionRates, SanityRatesInterface _sanityRates)\n    public\n    onlyAdmin\n    {\n        require(_kyberNetwork != address(0));\n        require(_conversionRates != address(0));\n\n        kyberNetwork = _kyberNetwork;\n        conversionRatesContract = _conversionRates;\n        sanityRatesContract = _sanityRates;\n\n        SetContractAddresses(kyberNetwork, conversionRatesContract, sanityRatesContract);\n    }\n\n    ////////////////////////////////////////////////////////////////////////////\n    /// status functions ///////////////////////////////////////////////////////\n    ////////////////////////////////////////////////////////////////////////////\n    function getBalance(ERC20 token) public view returns(uint) {\n        if (token == ETH_TOKEN_ADDRESS)\n            return this.balance;\n        else\n            return token.balanceOf(this);\n    }\n\n    function getDestQty(ERC20 src, ERC20 dest, uint srcQty, uint rate) public view returns(uint) {\n        uint dstDecimals = getDecimals(dest);\n        uint srcDecimals = getDecimals(src);\n\n        return calcDstQty(srcQty, srcDecimals, dstDecimals, rate);\n    }\n\n    function getSrcQty(ERC20 src, ERC20 dest, uint dstQty, uint rate) public view returns(uint) {\n        uint dstDecimals = getDecimals(dest);\n        uint srcDecimals = getDecimals(src);\n\n        return calcSrcQty(dstQty, srcDecimals, dstDecimals, rate);\n    }\n\n    function getConversionRate(ERC20 src, ERC20 dest, uint srcQty, uint blockNumber) public view returns(uint) {\n        ERC20 token;\n        bool  buy;\n\n        if (!tradeEnabled) return 0;\n\n        if (ETH_TOKEN_ADDRESS == src) {\n            buy = true;\n            token = dest;\n        } else if (ETH_TOKEN_ADDRESS == dest) {\n            buy = false;\n            token = src;\n        } else {\n            return 0; // pair is not listed\n        }\n\n        uint rate = conversionRatesContract.getRate(token, blockNumber, buy, srcQty);\n        uint destQty = getDestQty(src, dest, srcQty, rate);\n\n        if (getBalance(dest) < destQty) return 0;\n\n        if (sanityRatesContract != address(0)) {\n            uint sanityRate = sanityRatesContract.getSanityRate(src, dest);\n            if (rate > sanityRate) return 0;\n        }\n\n        return rate;\n    }\n\n    /// @dev do a trade\n    /// @param srcToken Src token\n    /// @param srcAmount Amount of src token\n    /// @param destToken Destination token\n    /// @param destAddress Destination address to send tokens to\n    /// @param validate If true, additional validations are applicable\n    /// @return true iff trade is successful\n    function doTrade(\n        ERC20 srcToken,\n        uint srcAmount,\n        ERC20 destToken,\n        address destAddress,\n        uint conversionRate,\n        bool validate\n    )\n    internal\n    returns(bool)\n    {\n        // can skip validation if done at kyber network level\n        if (validate) {\n            require(conversionRate > 0);\n            if (srcToken == ETH_TOKEN_ADDRESS)\n                require(msg.value == srcAmount);\n            else\n                require(msg.value == 0);\n        }\n\n        uint destAmount = getDestQty(srcToken, destToken, srcAmount, conversionRate);\n        // sanity check\n        require(destAmount > 0);\n\n        // add to imbalance\n        ERC20 token;\n        int buy;\n        if (srcToken == ETH_TOKEN_ADDRESS) {\n            buy = int(destAmount);\n            token = destToken;\n        } else {\n            buy = -1 * int(srcAmount);\n            token = srcToken;\n        }\n\n        conversionRatesContract.recordImbalance(\n            token,\n            buy,\n            0,\n            block.number\n        );\n\n        // collect src tokens\n        if (srcToken != ETH_TOKEN_ADDRESS) {\n            require(srcToken.transferFrom(msg.sender, this, srcAmount));\n        }\n\n        // send dest tokens\n        if (destToken == ETH_TOKEN_ADDRESS) {\n            destAddress.transfer(destAmount);\n        } else {\n            require(destToken.transfer(destAddress, destAmount));\n        }\n\n        TradeExecute(msg.sender, srcToken, srcAmount, destToken, destAmount, destAddress);\n\n        return true;\n    }\n}\n",
  "sourcePath": "/Users/oscarr/Ethereum/frappe/contracts/previousContracts/KyberReserveV1.sol",
  "compiler": {
    "name": "solc",
    "version": "0.4.18+commit.9cf6e910.Emscripten.clang"
  },
  "schemaVersion": "3.0.6",
  "updatedAt": "2019-05-18T17:14:13.503Z",
  "devdoc": {
    "methods": {
      "claimAdmin()": {
        "details": "Allows the pendingAdmin address to finalize the change admin process."
      },
      "transferAdmin(address)": {
        "details": "Allows the current admin to set the pendingAdmin address.",
        "params": {
          "newAdmin": "The address to transfer ownership to."
        }
      },
      "transferAdminQuickly(address)": {
        "details": "Allows the current admin to set the admin in one tx. Useful initial deployment.",
        "params": {
          "newAdmin": "The address to transfer ownership to."
        }
      },
      "withdrawEther(uint256,address)": {
        "details": "Withdraw Ethers"
      },
      "withdrawToken(address,uint256,address)": {
        "details": "Withdraw all ERC20 compatible tokens",
        "params": {
          "token": "ERC20 The address of the token contract"
        }
      }
    },
    "title": "Kyber Reserve contract"
  },
  "userdoc": {
    "methods": {
      "getBalance(address)": {
        "notice": "///////////////////////////////////////////////////////////////////////// status functions /////////////////////////////////////////////////////// /////////////////////////////////////////////////////////////////////////"
      }
    }
  }
}