{
  "contractName": "KyberDutchXReserve",
  "abi": [
    {
      "constant": false,
      "inputs": [
        {
          "name": "alerter",
          "type": "address"
        }
      ],
      "name": "removeAlerter",
      "outputs": [],
      "payable": false,
      "stateMutability": "nonpayable",
      "type": "function"
    },
    {
      "constant": true,
      "inputs": [],
      "name": "DEFAULT_KYBER_FEE_BPS",
      "outputs": [
        {
          "name": "",
          "type": "uint256"
        }
      ],
      "payable": false,
      "stateMutability": "view",
      "type": "function"
    },
    {
      "constant": true,
      "inputs": [],
      "name": "BPS",
      "outputs": [
        {
          "name": "",
          "type": "uint256"
        }
      ],
      "payable": false,
      "stateMutability": "view",
      "type": "function"
    },
    {
      "constant": true,
      "inputs": [],
      "name": "feeBps",
      "outputs": [
        {
          "name": "",
          "type": "uint256"
        }
      ],
      "payable": false,
      "stateMutability": "view",
      "type": "function"
    },
    {
      "constant": true,
      "inputs": [],
      "name": "dutchX",
      "outputs": [
        {
          "name": "",
          "type": "address"
        }
      ],
      "payable": false,
      "stateMutability": "view",
      "type": "function"
    },
    {
      "constant": true,
      "inputs": [],
      "name": "dutchXFeeDen",
      "outputs": [
        {
          "name": "",
          "type": "uint256"
        }
      ],
      "payable": false,
      "stateMutability": "view",
      "type": "function"
    },
    {
      "constant": true,
      "inputs": [],
      "name": "pendingAdmin",
      "outputs": [
        {
          "name": "",
          "type": "address"
        }
      ],
      "payable": false,
      "stateMutability": "view",
      "type": "function"
    },
    {
      "constant": true,
      "inputs": [],
      "name": "getOperators",
      "outputs": [
        {
          "name": "",
          "type": "address[]"
        }
      ],
      "payable": false,
      "stateMutability": "view",
      "type": "function"
    },
    {
      "constant": false,
      "inputs": [
        {
          "name": "token",
          "type": "address"
        },
        {
          "name": "amount",
          "type": "uint256"
        },
        {
          "name": "sendTo",
          "type": "address"
        }
      ],
      "name": "withdrawToken",
      "outputs": [],
      "payable": false,
      "stateMutability": "nonpayable",
      "type": "function"
    },
    {
      "constant": true,
      "inputs": [],
      "name": "weth",
      "outputs": [
        {
          "name": "",
          "type": "address"
        }
      ],
      "payable": false,
      "stateMutability": "view",
      "type": "function"
    },
    {
      "constant": false,
      "inputs": [
        {
          "name": "newAlerter",
          "type": "address"
        }
      ],
      "name": "addAlerter",
      "outputs": [],
      "payable": false,
      "stateMutability": "nonpayable",
      "type": "function"
    },
    {
      "constant": true,
      "inputs": [
        {
          "name": "",
          "type": "address"
        }
      ],
      "name": "listedTokens",
      "outputs": [
        {
          "name": "",
          "type": "bool"
        }
      ],
      "payable": false,
      "stateMutability": "view",
      "type": "function"
    },
    {
      "constant": false,
      "inputs": [
        {
          "name": "newAdmin",
          "type": "address"
        }
      ],
      "name": "transferAdmin",
      "outputs": [],
      "payable": false,
      "stateMutability": "nonpayable",
      "type": "function"
    },
    {
      "constant": false,
      "inputs": [],
      "name": "claimAdmin",
      "outputs": [],
      "payable": false,
      "stateMutability": "nonpayable",
      "type": "function"
    },
    {
      "constant": false,
      "inputs": [
        {
          "name": "newAdmin",
          "type": "address"
        }
      ],
      "name": "transferAdminQuickly",
      "outputs": [],
      "payable": false,
      "stateMutability": "nonpayable",
      "type": "function"
    },
    {
      "constant": true,
      "inputs": [],
      "name": "getAlerters",
      "outputs": [
        {
          "name": "",
          "type": "address[]"
        }
      ],
      "payable": false,
      "stateMutability": "view",
      "type": "function"
    },
    {
      "constant": false,
      "inputs": [
        {
          "name": "newOperator",
          "type": "address"
        }
      ],
      "name": "addOperator",
      "outputs": [],
      "payable": false,
      "stateMutability": "nonpayable",
      "type": "function"
    },
    {
      "constant": false,
      "inputs": [
        {
          "name": "operator",
          "type": "address"
        }
      ],
      "name": "removeOperator",
      "outputs": [],
      "payable": false,
      "stateMutability": "nonpayable",
      "type": "function"
    },
    {
      "constant": true,
      "inputs": [],
      "name": "kyberNetwork",
      "outputs": [
        {
          "name": "",
          "type": "address"
        }
      ],
      "payable": false,
      "stateMutability": "view",
      "type": "function"
    },
    {
      "constant": false,
      "inputs": [
        {
          "name": "amount",
          "type": "uint256"
        },
        {
          "name": "sendTo",
          "type": "address"
        }
      ],
      "name": "withdrawEther",
      "outputs": [],
      "payable": false,
      "stateMutability": "nonpayable",
      "type": "function"
    },
    {
      "constant": true,
      "inputs": [
        {
          "name": "token",
          "type": "address"
        },
        {
          "name": "user",
          "type": "address"
        }
      ],
      "name": "getBalance",
      "outputs": [
        {
          "name": "",
          "type": "uint256"
        }
      ],
      "payable": false,
      "stateMutability": "view",
      "type": "function"
    },
    {
      "constant": true,
      "inputs": [],
      "name": "tradeEnabled",
      "outputs": [
        {
          "name": "",
          "type": "bool"
        }
      ],
      "payable": false,
      "stateMutability": "view",
      "type": "function"
    },
    {
      "constant": true,
      "inputs": [],
      "name": "dutchXFeeNum",
      "outputs": [
        {
          "name": "",
          "type": "uint256"
        }
      ],
      "payable": false,
      "stateMutability": "view",
      "type": "function"
    },
    {
      "constant": true,
      "inputs": [],
      "name": "admin",
      "outputs": [
        {
          "name": "",
          "type": "address"
        }
      ],
      "payable": false,
      "stateMutability": "view",
      "type": "function"
    },
    {
      "inputs": [
        {
          "name": "_dutchX",
          "type": "address"
        },
        {
          "name": "_admin",
          "type": "address"
        },
        {
          "name": "_kyberNetwork",
          "type": "address"
        },
        {
          "name": "_weth",
          "type": "address"
        }
      ],
      "payable": false,
      "stateMutability": "nonpayable",
      "type": "constructor"
    },
    {
      "payable": true,
      "stateMutability": "payable",
      "type": "fallback"
    },
    {
      "anonymous": false,
      "inputs": [
        {
          "indexed": true,
          "name": "sender",
          "type": "address"
        },
        {
          "indexed": false,
          "name": "src",
          "type": "address"
        },
        {
          "indexed": false,
          "name": "srcAmount",
          "type": "uint256"
        },
        {
          "indexed": false,
          "name": "destToken",
          "type": "address"
        },
        {
          "indexed": false,
          "name": "destAmount",
          "type": "uint256"
        },
        {
          "indexed": false,
          "name": "destAddress",
          "type": "address"
        },
        {
          "indexed": false,
          "name": "auctionIndex",
          "type": "uint256"
        }
      ],
      "name": "TradeExecute",
      "type": "event"
    },
    {
      "anonymous": false,
      "inputs": [
        {
          "indexed": false,
          "name": "bps",
          "type": "uint256"
        }
      ],
      "name": "FeeUpdated",
      "type": "event"
    },
    {
      "anonymous": false,
      "inputs": [
        {
          "indexed": false,
          "name": "token",
          "type": "address"
        }
      ],
      "name": "TokenListed",
      "type": "event"
    },
    {
      "anonymous": false,
      "inputs": [
        {
          "indexed": false,
          "name": "token",
          "type": "address"
        }
      ],
      "name": "TokenDelisted",
      "type": "event"
    },
    {
      "anonymous": false,
      "inputs": [
        {
          "indexed": false,
          "name": "enable",
          "type": "bool"
        }
      ],
      "name": "TradeEnabled",
      "type": "event"
    },
    {
      "anonymous": false,
      "inputs": [
        {
          "indexed": false,
          "name": "kyberNetwork",
          "type": "address"
        }
      ],
      "name": "KyberNetworkSet",
      "type": "event"
    },
    {
      "anonymous": false,
      "inputs": [
        {
          "indexed": false,
          "name": "success",
          "type": "bool"
        },
        {
          "indexed": false,
          "name": "caller",
          "type": "address"
        },
        {
          "indexed": false,
          "name": "destination",
          "type": "address"
        },
        {
          "indexed": false,
          "name": "value",
          "type": "uint256"
        },
        {
          "indexed": false,
          "name": "data",
          "type": "bytes"
        }
      ],
      "name": "Execution",
      "type": "event"
    },
    {
      "anonymous": false,
      "inputs": [
        {
          "indexed": false,
          "name": "token",
          "type": "address"
        },
        {
          "indexed": false,
          "name": "amount",
          "type": "uint256"
        },
        {
          "indexed": false,
          "name": "sendTo",
          "type": "address"
        }
      ],
      "name": "TokenWithdraw",
      "type": "event"
    },
    {
      "anonymous": false,
      "inputs": [
        {
          "indexed": false,
          "name": "amount",
          "type": "uint256"
        },
        {
          "indexed": false,
          "name": "sendTo",
          "type": "address"
        }
      ],
      "name": "EtherWithdraw",
      "type": "event"
    },
    {
      "anonymous": false,
      "inputs": [
        {
          "indexed": false,
          "name": "pendingAdmin",
          "type": "address"
        }
      ],
      "name": "TransferAdminPending",
      "type": "event"
    },
    {
      "anonymous": false,
      "inputs": [
        {
          "indexed": false,
          "name": "newAdmin",
          "type": "address"
        },
        {
          "indexed": false,
          "name": "previousAdmin",
          "type": "address"
        }
      ],
      "name": "AdminClaimed",
      "type": "event"
    },
    {
      "anonymous": false,
      "inputs": [
        {
          "indexed": false,
          "name": "newAlerter",
          "type": "address"
        },
        {
          "indexed": false,
          "name": "isAdd",
          "type": "bool"
        }
      ],
      "name": "AlerterAdded",
      "type": "event"
    },
    {
      "anonymous": false,
      "inputs": [
        {
          "indexed": false,
          "name": "newOperator",
          "type": "address"
        },
        {
          "indexed": false,
          "name": "isAdd",
          "type": "bool"
        }
      ],
      "name": "OperatorAdded",
      "type": "event"
    },
    {
      "constant": true,
      "inputs": [
        {
          "name": "src",
          "type": "address"
        },
        {
          "name": "dest",
          "type": "address"
        },
        {
          "name": "srcQty",
          "type": "uint256"
        },
        {
          "name": "blockNumber",
          "type": "uint256"
        }
      ],
      "name": "getConversionRate",
      "outputs": [
        {
          "name": "",
          "type": "uint256"
        }
      ],
      "payable": false,
      "stateMutability": "view",
      "type": "function"
    },
    {
      "constant": false,
      "inputs": [
        {
          "name": "srcToken",
          "type": "address"
        },
        {
          "name": "srcAmount",
          "type": "uint256"
        },
        {
          "name": "destToken",
          "type": "address"
        },
        {
          "name": "destAddress",
          "type": "address"
        },
        {
          "name": "conversionRate",
          "type": "uint256"
        },
        {
          "name": "validate",
          "type": "bool"
        }
      ],
      "name": "trade",
      "outputs": [
        {
          "name": "",
          "type": "bool"
        }
      ],
      "payable": true,
      "stateMutability": "payable",
      "type": "function"
    },
    {
      "constant": false,
      "inputs": [
        {
          "name": "bps",
          "type": "uint256"
        }
      ],
      "name": "setFee",
      "outputs": [],
      "payable": false,
      "stateMutability": "nonpayable",
      "type": "function"
    },
    {
      "constant": false,
      "inputs": [
        {
          "name": "token",
          "type": "address"
        }
      ],
      "name": "listToken",
      "outputs": [],
      "payable": false,
      "stateMutability": "nonpayable",
      "type": "function"
    },
    {
      "constant": false,
      "inputs": [
        {
          "name": "token",
          "type": "address"
        }
      ],
      "name": "delistToken",
      "outputs": [],
      "payable": false,
      "stateMutability": "nonpayable",
      "type": "function"
    },
    {
      "constant": false,
      "inputs": [],
      "name": "setDutchXFee",
      "outputs": [],
      "payable": false,
      "stateMutability": "nonpayable",
      "type": "function"
    },
    {
      "constant": false,
      "inputs": [],
      "name": "disableTrade",
      "outputs": [
        {
          "name": "",
          "type": "bool"
        }
      ],
      "payable": false,
      "stateMutability": "nonpayable",
      "type": "function"
    },
    {
      "constant": false,
      "inputs": [],
      "name": "enableTrade",
      "outputs": [
        {
          "name": "",
          "type": "bool"
        }
      ],
      "payable": false,
      "stateMutability": "nonpayable",
      "type": "function"
    },
    {
      "constant": false,
      "inputs": [
        {
          "name": "_kyberNetwork",
          "type": "address"
        }
      ],
      "name": "setKyberNetwork",
      "outputs": [],
      "payable": false,
      "stateMutability": "nonpayable",
      "type": "function"
    },
    {
      "constant": false,
      "inputs": [
        {
          "name": "destination",
          "type": "address"
        },
        {
          "name": "value",
          "type": "uint256"
        },
        {
          "name": "data",
          "type": "bytes"
        }
      ],
      "name": "executeTransaction",
      "outputs": [],
      "payable": false,
      "stateMutability": "nonpayable",
      "type": "function"
    }
  ],
  "bytecode": "0x6060604052601960075534156200001557600080fd5b60405160808062004a2083398101604052808051906020019091908051906020019091908051906020019091908051906020019091905050336000806101000a81548173ffffffffffffffffffffffffffffffffffffffff021916908373ffffffffffffffffffffffffffffffffffffffff160217905550600073ffffffffffffffffffffffffffffffffffffffff168473ffffffffffffffffffffffffffffffffffffffff1614151515620000ca57600080fd5b600073ffffffffffffffffffffffffffffffffffffffff168373ffffffffffffffffffffffffffffffffffffffff16141515156200010757600080fd5b600073ffffffffffffffffffffffffffffffffffffffff168273ffffffffffffffffffffffffffffffffffffffff16141515156200014457600080fd5b600073ffffffffffffffffffffffffffffffffffffffff168173ffffffffffffffffffffffffffffffffffffffff16141515156200018157600080fd5b83600a60006101000a81548173ffffffffffffffffffffffffffffffffffffffff021916908373ffffffffffffffffffffffffffffffffffffffff160217905550826000806101000a81548173ffffffffffffffffffffffffffffffffffffffff021916908373ffffffffffffffffffffffffffffffffffffffff16021790555081600b60006101000a81548173ffffffffffffffffffffffffffffffffffffffff021916908373ffffffffffffffffffffffffffffffffffffffff16021790555080600c60006101000a81548173ffffffffffffffffffffffffffffffffffffffff021916908373ffffffffffffffffffffffffffffffffffffffff160217905550620002a2620004176401000000000262000e5b176401000000009004565b600c60009054906101000a900473ffffffffffffffffffffffffffffffffffffffff1673ffffffffffffffffffffffffffffffffffffffff1663095ea7b3600a60009054906101000a900473ffffffffffffffffffffffffffffffffffffffff167f80000000000000000000000000000000000000000000000000000000000000006000604051602001526040518363ffffffff167c0100000000000000000000000000000000000000000000000000000000028152600401808373ffffffffffffffffffffffffffffffffffffffff1673ffffffffffffffffffffffffffffffffffffffff16815260200182815260200192505050602060405180830381600087803b1515620003b257600080fd5b6102c65a03f11515620003c457600080fd5b505050604051805190501515620003da57600080fd5b6200040d73eeeeeeeeeeeeeeeeeeeeeeeeeeeeeeeeeeeeeeee6200058664010000000002620039c8176401000000009004565b50505050620006ea565b600a60009054906101000a900473ffffffffffffffffffffffffffffffffffffffff1673ffffffffffffffffffffffffffffffffffffffff1663edd0b5cb306000604051604001526040518263ffffffff167c0100000000000000000000000000000000000000000000000000000000028152600401808273ffffffffffffffffffffffffffffffffffffffff1673ffffffffffffffffffffffffffffffffffffffff1681526020019150506040805180830381600087803b1515620004dc57600080fd5b6102c65a03f11515620004ee57600080fd5b505050604051805190602001805190506008600060096000849190505583919050555050600060095414156200053a576000600e60006101000a81548160ff0219169083151502179055505b7f7d7f00509dd73ac4449f698ae75ccc797895eff5fa9d446d3df387598a26e735600e60009054906101000a900460ff16604051808215151515815260200191505060405180910390a1565b73eeeeeeeeeeeeeeeeeeeeeeeeeeeeeeeeeeeeeeee73ffffffffffffffffffffffffffffffffffffffff168173ffffffffffffffffffffffffffffffffffffffff1614156200061a576012600660008373ffffffffffffffffffffffffffffffffffffffff1673ffffffffffffffffffffffffffffffffffffffff16815260200190815260200160002081905550620006e7565b8073ffffffffffffffffffffffffffffffffffffffff1663313ce5676000604051602001526040518163ffffffff167c0100000000000000000000000000000000000000000000000000000000028152600401602060405180830381600087803b15156200068757600080fd5b6102c65a03f115156200069957600080fd5b50505060405180519050600660008373ffffffffffffffffffffffffffffffffffffffff1673ffffffffffffffffffffffffffffffffffffffff168152602001908152602001600020819055505b50565b61432680620006fa6000396000f3006060604052600436106101ab576000357c0100000000000000000000000000000000000000000000000000000000900463ffffffff16806299d386146101ad57806301a12fd3146101da57806304fe3212146102135780631fc1e25f146102285780631fe8840314610261578063249d39e91461028a57806324a9d853146102b357806325071db0146102dc578063261542a414610331578063267822471461035a57806327a099d8146103af5780633ccdbb28146104195780633f579f421461047a5780633fc8cef3146104ff578063408ee7fe1461055457806354a325a61461058d5780636940030f146105c657806369fe0e2d146105f35780636cf69811146106165780637093f47f146106b757806375829def1461070857806377f50f97146107415780637acc8678146107565780637c423f541461078f5780637cd44272146107f95780639870d7fe14610877578063abffc9ac146108b0578063ac8a584a146108e9578063b78b842d14610922578063ce56c45414610977578063d4fac45d146109b9578063d621e81314610a25578063de05ef1a14610a52578063f851a44014610a7b575b005b34156101b857600080fd5b6101c0610ad0565b604051808215151515815260200191505060405180910390f35b34156101e557600080fd5b610211600480803573ffffffffffffffffffffffffffffffffffffffff16906020019091905050610b99565b005b341561021e57600080fd5b610226610e5b565b005b341561023357600080fd5b61025f600480803573ffffffffffffffffffffffffffffffffffffffff16906020019091905050610fc7565b005b341561026c57600080fd5b610274611238565b6040518082815260200191505060405180910390f35b341561029557600080fd5b61029d61123d565b6040518082815260200191505060405180910390f35b34156102be57600080fd5b6102c6611243565b6040518082815260200191505060405180910390f35b34156102e757600080fd5b6102ef611249565b604051808273ffffffffffffffffffffffffffffffffffffffff1673ffffffffffffffffffffffffffffffffffffffff16815260200191505060405180910390f35b341561033c57600080fd5b61034461126f565b6040518082815260200191505060405180910390f35b341561036557600080fd5b61036d611275565b604051808273ffffffffffffffffffffffffffffffffffffffff1673ffffffffffffffffffffffffffffffffffffffff16815260200191505060405180910390f35b34156103ba57600080fd5b6103c261129b565b6040518080602001828103825283818151815260200191508051906020019060200280838360005b838110156104055780820151818401526020810190506103ea565b505050509050019250505060405180910390f35b341561042457600080fd5b610478600480803573ffffffffffffffffffffffffffffffffffffffff1690602001909190803590602001909190803573ffffffffffffffffffffffffffffffffffffffff1690602001909190505061132f565b005b341561048557600080fd5b6104fd600480803573ffffffffffffffffffffffffffffffffffffffff1690602001909190803590602001909190803590602001908201803590602001908080601f016020809104026020016040519081016040528093929190818152602001838380828437820191505050505050919050506114ff565b005b341561050a57600080fd5b610512611710565b604051808273ffffffffffffffffffffffffffffffffffffffff1673ffffffffffffffffffffffffffffffffffffffff16815260200191505060405180910390f35b341561055f57600080fd5b61058b600480803573ffffffffffffffffffffffffffffffffffffffff16906020019091905050611736565b005b341561059857600080fd5b6105c4600480803573ffffffffffffffffffffffffffffffffffffffff1690602001909190505061192c565b005b34156105d157600080fd5b6105d9611a8c565b604051808215151515815260200191505060405180910390f35b34156105fe57600080fd5b6106146004808035906020019091905050611b52565b005b61069d600480803573ffffffffffffffffffffffffffffffffffffffff1690602001909190803590602001909190803573ffffffffffffffffffffffffffffffffffffffff1690602001909190803573ffffffffffffffffffffffffffffffffffffffff169060200190919080359060200190919080351515906020019091905050611bff565b604051808215151515815260200191505060405180910390f35b34156106c257600080fd5b6106ee600480803573ffffffffffffffffffffffffffffffffffffffff16906020019091905050612697565b604051808215151515815260200191505060405180910390f35b341561071357600080fd5b61073f600480803573ffffffffffffffffffffffffffffffffffffffff169060200190919050506126b7565b005b341561074c57600080fd5b610754612817565b005b341561076157600080fd5b61078d600480803573ffffffffffffffffffffffffffffffffffffffff169060200190919050506129f3565b005b341561079a57600080fd5b6107a2612be8565b6040518080602001828103825283818151815260200191508051906020019060200280838360005b838110156107e55780820151818401526020810190506107ca565b505050509050019250505060405180910390f35b341561080457600080fd5b610861600480803573ffffffffffffffffffffffffffffffffffffffff1690602001909190803573ffffffffffffffffffffffffffffffffffffffff16906020019091908035906020019091908035906020019091905050612c7c565b6040518082815260200191505060405180910390f35b341561088257600080fd5b6108ae600480803573ffffffffffffffffffffffffffffffffffffffff169060200190919050506130fe565b005b34156108bb57600080fd5b6108e7600480803573ffffffffffffffffffffffffffffffffffffffff169060200190919050506132f4565b005b34156108f457600080fd5b610920600480803573ffffffffffffffffffffffffffffffffffffffff16906020019091905050613465565b005b341561092d57600080fd5b61093561372a565b604051808273ffffffffffffffffffffffffffffffffffffffff1673ffffffffffffffffffffffffffffffffffffffff16815260200191505060405180910390f35b341561098257600080fd5b6109b7600480803590602001909190803573ffffffffffffffffffffffffffffffffffffffff16906020019091905050613750565b005b34156109c457600080fd5b610a0f600480803573ffffffffffffffffffffffffffffffffffffffff1690602001909190803573ffffffffffffffffffffffffffffffffffffffff1690602001909190505061385a565b6040518082815260200191505060405180910390f35b3415610a3057600080fd5b610a3861398a565b604051808215151515815260200191505060405180910390f35b3415610a5d57600080fd5b610a6561399d565b6040518082815260200191505060405180910390f35b3415610a8657600080fd5b610a8e6139a3565b604051808273ffffffffffffffffffffffffffffffffffffffff1673ffffffffffffffffffffffffffffffffffffffff16815260200191505060405180910390f35b60008060009054906101000a900473ffffffffffffffffffffffffffffffffffffffff1673ffffffffffffffffffffffffffffffffffffffff163373ffffffffffffffffffffffffffffffffffffffff16141515610b2d57600080fd5b6001600e60006101000a81548160ff0219169083151502179055507f7d7f00509dd73ac4449f698ae75ccc797895eff5fa9d446d3df387598a26e735600e60009054906101000a900460ff16604051808215151515815260200191505060405180910390a16001905090565b60008060009054906101000a900473ffffffffffffffffffffffffffffffffffffffff1673ffffffffffffffffffffffffffffffffffffffff163373ffffffffffffffffffffffffffffffffffffffff16141515610bf657600080fd5b600360008373ffffffffffffffffffffffffffffffffffffffff1673ffffffffffffffffffffffffffffffffffffffff16815260200190815260200160002060009054906101000a900460ff161515610c4e57600080fd5b6000600360008473ffffffffffffffffffffffffffffffffffffffff1673ffffffffffffffffffffffffffffffffffffffff16815260200190815260200160002060006101000a81548160ff021916908315150217905550600090505b600580549050811015610e57578173ffffffffffffffffffffffffffffffffffffffff16600582815481101515610cde57fe5b906000526020600020900160009054906101000a900473ffffffffffffffffffffffffffffffffffffffff1673ffffffffffffffffffffffffffffffffffffffff161415610e4c576005600160058054905003815481101515610d3d57fe5b906000526020600020900160009054906101000a900473ffffffffffffffffffffffffffffffffffffffff16600582815481101515610d7857fe5b906000526020600020900160006101000a81548173ffffffffffffffffffffffffffffffffffffffff021916908373ffffffffffffffffffffffffffffffffffffffff1602179055506005805480919060019003610dd6919061420d565b507f5611bf3e417d124f97bf2c788843ea8bb502b66079fbee02158ef30b172cb762826000604051808373ffffffffffffffffffffffffffffffffffffffff1673ffffffffffffffffffffffffffffffffffffffff168152602001821515151581526020019250505060405180910390a1610e57565b806001019050610cab565b5050565b600a60009054906101000a900473ffffffffffffffffffffffffffffffffffffffff1673ffffffffffffffffffffffffffffffffffffffff1663edd0b5cb306000604051604001526040518263ffffffff167c0100000000000000000000000000000000000000000000000000000000028152600401808273ffffffffffffffffffffffffffffffffffffffff1673ffffffffffffffffffffffffffffffffffffffff1681526020019150506040805180830381600087803b1515610f1f57600080fd5b6102c65a03f11515610f3057600080fd5b50505060405180519060200180519050600860006009600084919050558391905055505060006009541415610f7b576000600e60006101000a81548160ff0219169083151502179055505b7f7d7f00509dd73ac4449f698ae75ccc797895eff5fa9d446d3df387598a26e735600e60009054906101000a900460ff16604051808215151515815260200191505060405180910390a1565b6000809054906101000a900473ffffffffffffffffffffffffffffffffffffffff1673ffffffffffffffffffffffffffffffffffffffff163373ffffffffffffffffffffffffffffffffffffffff1614151561102257600080fd5b600073ffffffffffffffffffffffffffffffffffffffff168173ffffffffffffffffffffffffffffffffffffffff161415151561105e57600080fd5b6001600d60008373ffffffffffffffffffffffffffffffffffffffff1673ffffffffffffffffffffffffffffffffffffffff16815260200190815260200160002060006101000a81548160ff0219169083151502179055506110bf816139c8565b8073ffffffffffffffffffffffffffffffffffffffff1663095ea7b3600a60009054906101000a900473ffffffffffffffffffffffffffffffffffffffff167f80000000000000000000000000000000000000000000000000000000000000006000604051602001526040518363ffffffff167c0100000000000000000000000000000000000000000000000000000000028152600401808373ffffffffffffffffffffffffffffffffffffffff1673ffffffffffffffffffffffffffffffffffffffff16815260200182815260200192505050602060405180830381600087803b15156111ac57600080fd5b6102c65a03f115156111bd57600080fd5b5050506040518051905015156111d257600080fd5b7f017664858438d89f547fee46da0bcfc5396ea13a9fb1490b8fdd76cfa979f1a981604051808273ffffffffffffffffffffffffffffffffffffffff1673ffffffffffffffffffffffffffffffffffffffff16815260200191505060405180910390a150565b601981565b61271081565b60075481565b600a60009054906101000a900473ffffffffffffffffffffffffffffffffffffffff1681565b60095481565b600160009054906101000a900473ffffffffffffffffffffffffffffffffffffffff1681565b6112a3614239565b600480548060200260200160405190810160405280929190818152602001828054801561132557602002820191906000526020600020905b8160009054906101000a900473ffffffffffffffffffffffffffffffffffffffff1673ffffffffffffffffffffffffffffffffffffffff16815260200190600101908083116112db575b5050505050905090565b6000809054906101000a900473ffffffffffffffffffffffffffffffffffffffff1673ffffffffffffffffffffffffffffffffffffffff163373ffffffffffffffffffffffffffffffffffffffff1614151561138a57600080fd5b8273ffffffffffffffffffffffffffffffffffffffff1663a9059cbb82846000604051602001526040518363ffffffff167c0100000000000000000000000000000000000000000000000000000000028152600401808373ffffffffffffffffffffffffffffffffffffffff1673ffffffffffffffffffffffffffffffffffffffff16815260200182815260200192505050602060405180830381600087803b151561143557600080fd5b6102c65a03f1151561144657600080fd5b50505060405180519050151561145b57600080fd5b7f72cb8a894ddb372ceec3d2a7648d86f17d5a15caae0e986c53109b8a9a9385e6838383604051808473ffffffffffffffffffffffffffffffffffffffff1673ffffffffffffffffffffffffffffffffffffffff1681526020018381526020018273ffffffffffffffffffffffffffffffffffffffff1673ffffffffffffffffffffffffffffffffffffffff168152602001935050505060405180910390a1505050565b600260003373ffffffffffffffffffffffffffffffffffffffff1673ffffffffffffffffffffffffffffffffffffffff16815260200190815260200160002060009054906101000a900460ff16151561155757600080fd5b8273ffffffffffffffffffffffffffffffffffffffff16828260405180828051906020019080838360005b8381101561159d578082015181840152602081019050611582565b50505050905090810190601f1680156115ca5780820380516001836020036101000a031916815260200191505b5091505060006040518083038185876187965a03f19250505015611706577f0c522140e9193f2aabe5087aa9816c5fdea5ba2e9e42a54acfe27ffdc98d91b060013385858560405180861515151581526020018573ffffffffffffffffffffffffffffffffffffffff1673ffffffffffffffffffffffffffffffffffffffff1681526020018473ffffffffffffffffffffffffffffffffffffffff1673ffffffffffffffffffffffffffffffffffffffff16815260200183815260200180602001828103825283818151815260200191508051906020019080838360005b838110156116c35780820151818401526020810190506116a8565b50505050905090810190601f1680156116f05780820380516001836020036101000a031916815260200191505b50965050505050505060405180910390a161170b565b600080fd5b505050565b600c60009054906101000a900473ffffffffffffffffffffffffffffffffffffffff1681565b6000809054906101000a900473ffffffffffffffffffffffffffffffffffffffff1673ffffffffffffffffffffffffffffffffffffffff163373ffffffffffffffffffffffffffffffffffffffff1614151561179157600080fd5b600360008273ffffffffffffffffffffffffffffffffffffffff1673ffffffffffffffffffffffffffffffffffffffff16815260200190815260200160002060009054906101000a900460ff161515156117ea57600080fd5b60326005805490501015156117fe57600080fd5b7f5611bf3e417d124f97bf2c788843ea8bb502b66079fbee02158ef30b172cb762816001604051808373ffffffffffffffffffffffffffffffffffffffff1673ffffffffffffffffffffffffffffffffffffffff168152602001821515151581526020019250505060405180910390a16001600360008373ffffffffffffffffffffffffffffffffffffffff1673ffffffffffffffffffffffffffffffffffffffff16815260200190815260200160002060006101000a81548160ff021916908315150217905550600580548060010182816118da919061424d565b9160005260206000209001600083909190916101000a81548173ffffffffffffffffffffffffffffffffffffffff021916908373ffffffffffffffffffffffffffffffffffffffff1602179055505050565b6000809054906101000a900473ffffffffffffffffffffffffffffffffffffffff1673ffffffffffffffffffffffffffffffffffffffff163373ffffffffffffffffffffffffffffffffffffffff1614151561198757600080fd5b600073ffffffffffffffffffffffffffffffffffffffff168173ffffffffffffffffffffffffffffffffffffffff16141515156119c357600080fd5b80600b60006101000a81548173ffffffffffffffffffffffffffffffffffffffff021916908373ffffffffffffffffffffffffffffffffffffffff1602179055507f38622430bb6defd4452b087e8d0b4a6d1c4d35c179c2d7d875d4abb272b9d88b600b60009054906101000a900473ffffffffffffffffffffffffffffffffffffffff16604051808273ffffffffffffffffffffffffffffffffffffffff1673ffffffffffffffffffffffffffffffffffffffff16815260200191505060405180910390a150565b6000600360003373ffffffffffffffffffffffffffffffffffffffff1673ffffffffffffffffffffffffffffffffffffffff16815260200190815260200160002060009054906101000a900460ff161515611ae657600080fd5b6000600e60006101000a81548160ff0219169083151502179055507f7d7f00509dd73ac4449f698ae75ccc797895eff5fa9d446d3df387598a26e735600e60009054906101000a900460ff16604051808215151515815260200191505060405180910390a16001905090565b6000809054906101000a900473ffffffffffffffffffffffffffffffffffffffff1673ffffffffffffffffffffffffffffffffffffffff163373ffffffffffffffffffffffffffffffffffffffff16141515611bad57600080fd5b6127108111151515611bbe57600080fd5b806007819055507f8c4d35e54a3f2ef1134138fd8ea3daee6a3c89e10d2665996babdf70261e2c76816040518082815260200191505060405180910390a150565b6000611c09614279565b6000806000600e60009054906101000a900460ff161515611c2957600080fd5b600b60009054906101000a900473ffffffffffffffffffffffffffffffffffffffff1673ffffffffffffffffffffffffffffffffffffffff163373ffffffffffffffffffffffffffffffffffffffff16141515611c8557600080fd5b611c8f8b8a613b28565b93506000846000015114151515611ca557600080fd5b73eeeeeeeeeeeeeeeeeeeeeeeeeeeeeeeeeeeeeeee73ffffffffffffffffffffffffffffffffffffffff168b73ffffffffffffffffffffffffffffffffffffffff161415611db257348a141515611cfb57600080fd5b612710600754612710038b02811515611d1057fe5b049250600c60009054906101000a900473ffffffffffffffffffffffffffffffffffffffff1673ffffffffffffffffffffffffffffffffffffffff1663d0e30db0846040518263ffffffff167c01000000000000000000000000000000000000000000000000000000000281526004016000604051808303818588803b1515611d9857600080fd5b6125ee5a03f11515611da957600080fd5b50505050611eca565b600034141515611dc157600080fd5b8a73ffffffffffffffffffffffffffffffffffffffff166323b872dd33308d6000604051602001526040518463ffffffff167c0100000000000000000000000000000000000000000000000000000000028152600401808473ffffffffffffffffffffffffffffffffffffffff1673ffffffffffffffffffffffffffffffffffffffff1681526020018373ffffffffffffffffffffffffffffffffffffffff1673ffffffffffffffffffffffffffffffffffffffff1681526020018281526020019350505050602060405180830381600087803b1515611ea057600080fd5b6102c65a03f11515611eb157600080fd5b505050604051805190501515611ec657600080fd5b8992505b600a60009054906101000a900473ffffffffffffffffffffffffffffffffffffffff1673ffffffffffffffffffffffffffffffffffffffff166347e7ef248560200151856000604051602001526040518363ffffffff167c0100000000000000000000000000000000000000000000000000000000028152600401808373ffffffffffffffffffffffffffffffffffffffff1673ffffffffffffffffffffffffffffffffffffffff16815260200182815260200192505050602060405180830381600087803b1515611f9b57600080fd5b6102c65a03f11515611fac57600080fd5b5050506040518051905050600a60009054906101000a900473ffffffffffffffffffffffffffffffffffffffff1673ffffffffffffffffffffffffffffffffffffffff16635e7f22c2856040015186602001518760000151876000604051602001526040518563ffffffff167c0100000000000000000000000000000000000000000000000000000000028152600401808573ffffffffffffffffffffffffffffffffffffffff1673ffffffffffffffffffffffffffffffffffffffff1681526020018473ffffffffffffffffffffffffffffffffffffffff1673ffffffffffffffffffffffffffffffffffffffff168152602001838152602001828152602001945050505050602060405180830381600087803b15156120cc57600080fd5b6102c65a03f115156120dd57600080fd5b5050506040518051905050600a60009054906101000a900473ffffffffffffffffffffffffffffffffffffffff1673ffffffffffffffffffffffffffffffffffffffff1663b0293850856040015186602001513088600001516000604051604001526040518563ffffffff167c0100000000000000000000000000000000000000000000000000000000028152600401808573ffffffffffffffffffffffffffffffffffffffff1673ffffffffffffffffffffffffffffffffffffffff1681526020018473ffffffffffffffffffffffffffffffffffffffff1673ffffffffffffffffffffffffffffffffffffffff1681526020018373ffffffffffffffffffffffffffffffffffffffff1673ffffffffffffffffffffffffffffffffffffffff1681526020018281526020019450505050506040805180830381600087803b151561222857600080fd5b6102c65a03f1151561223957600080fd5b505050604051805190602001805190508092508193505050600a60009054906101000a900473ffffffffffffffffffffffffffffffffffffffff1673ffffffffffffffffffffffffffffffffffffffff1663f3fef3a38560400151846000604051602001526040518363ffffffff167c0100000000000000000000000000000000000000000000000000000000028152600401808373ffffffffffffffffffffffffffffffffffffffff1673ffffffffffffffffffffffffffffffffffffffff16815260200182815260200192505050602060405180830381600087803b151561232257600080fd5b6102c65a03f1151561233357600080fd5b505050604051805190505073eeeeeeeeeeeeeeeeeeeeeeeeeeeeeeeeeeeeeeee73ffffffffffffffffffffffffffffffffffffffff168973ffffffffffffffffffffffffffffffffffffffff16141561248757600c60009054906101000a900473ffffffffffffffffffffffffffffffffffffffff1673ffffffffffffffffffffffffffffffffffffffff16632e1a7d4d836040518263ffffffff167c010000000000000000000000000000000000000000000000000000000002815260040180828152602001915050600060405180830381600087803b151561241657600080fd5b6102c65a03f1151561242757600080fd5b50505061271060075461271003830281151561243f57fe5b0491508773ffffffffffffffffffffffffffffffffffffffff166108fc839081150290604051600060405180830381858888f19350505050151561248257600080fd5b61255d565b836040015173ffffffffffffffffffffffffffffffffffffffff1663a9059cbb89846000604051602001526040518363ffffffff167c0100000000000000000000000000000000000000000000000000000000028152600401808373ffffffffffffffffffffffffffffffffffffffff1673ffffffffffffffffffffffffffffffffffffffff16815260200182815260200192505050602060405180830381600087803b151561253657600080fd5b6102c65a03f1151561254757600080fd5b50505060405180519050151561255c57600080fd5b5b6125798a8361256b8e613dab565b6125748d613dab565b613ee2565b871115151561258757600080fd5b3373ffffffffffffffffffffffffffffffffffffffff167fd7dd4b527e22d0655c20ef5e9f1db6f8b4059d29617cc7584d2e32f6b4fbf8ae8c8c8c868d8a60000151604051808773ffffffffffffffffffffffffffffffffffffffff1673ffffffffffffffffffffffffffffffffffffffff1681526020018681526020018573ffffffffffffffffffffffffffffffffffffffff1673ffffffffffffffffffffffffffffffffffffffff1681526020018481526020018373ffffffffffffffffffffffffffffffffffffffff1673ffffffffffffffffffffffffffffffffffffffff168152602001828152602001965050505050505060405180910390a260019450505050509695505050505050565b600d6020528060005260406000206000915054906101000a900460ff1681565b6000809054906101000a900473ffffffffffffffffffffffffffffffffffffffff1673ffffffffffffffffffffffffffffffffffffffff163373ffffffffffffffffffffffffffffffffffffffff1614151561271257600080fd5b600073ffffffffffffffffffffffffffffffffffffffff168173ffffffffffffffffffffffffffffffffffffffff161415151561274e57600080fd5b7f3b81caf78fa51ecbc8acb482fd7012a277b428d9b80f9d156e8a54107496cc40600160009054906101000a900473ffffffffffffffffffffffffffffffffffffffff16604051808273ffffffffffffffffffffffffffffffffffffffff1673ffffffffffffffffffffffffffffffffffffffff16815260200191505060405180910390a180600160006101000a81548173ffffffffffffffffffffffffffffffffffffffff021916908373ffffffffffffffffffffffffffffffffffffffff16021790555050565b3373ffffffffffffffffffffffffffffffffffffffff16600160009054906101000a900473ffffffffffffffffffffffffffffffffffffffff1673ffffffffffffffffffffffffffffffffffffffff1614151561287357600080fd5b7f65da1cfc2c2e81576ad96afb24a581f8e109b7a403b35cbd3243a1c99efdb9ed600160009054906101000a900473ffffffffffffffffffffffffffffffffffffffff166000809054906101000a900473ffffffffffffffffffffffffffffffffffffffff16604051808373ffffffffffffffffffffffffffffffffffffffff1673ffffffffffffffffffffffffffffffffffffffff1681526020018273ffffffffffffffffffffffffffffffffffffffff1673ffffffffffffffffffffffffffffffffffffffff1681526020019250505060405180910390a1600160009054906101000a900473ffffffffffffffffffffffffffffffffffffffff166000806101000a81548173ffffffffffffffffffffffffffffffffffffffff021916908373ffffffffffffffffffffffffffffffffffffffff1602179055506000600160006101000a81548173ffffffffffffffffffffffffffffffffffffffff021916908373ffffffffffffffffffffffffffffffffffffffff160217905550565b6000809054906101000a900473ffffffffffffffffffffffffffffffffffffffff1673ffffffffffffffffffffffffffffffffffffffff163373ffffffffffffffffffffffffffffffffffffffff16141515612a4e57600080fd5b600073ffffffffffffffffffffffffffffffffffffffff168173ffffffffffffffffffffffffffffffffffffffff1614151515612a8a57600080fd5b7f3b81caf78fa51ecbc8acb482fd7012a277b428d9b80f9d156e8a54107496cc4081604051808273ffffffffffffffffffffffffffffffffffffffff1673ffffffffffffffffffffffffffffffffffffffff16815260200191505060405180910390a17f65da1cfc2c2e81576ad96afb24a581f8e109b7a403b35cbd3243a1c99efdb9ed816000809054906101000a900473ffffffffffffffffffffffffffffffffffffffff16604051808373ffffffffffffffffffffffffffffffffffffffff1673ffffffffffffffffffffffffffffffffffffffff1681526020018273ffffffffffffffffffffffffffffffffffffffff1673ffffffffffffffffffffffffffffffffffffffff1681526020019250505060405180910390a1806000806101000a81548173ffffffffffffffffffffffffffffffffffffffff021916908373ffffffffffffffffffffffffffffffffffffffff16021790555050565b612bf0614239565b6005805480602002602001604051908101604052809291908181526020018280548015612c7257602002820191906000526020600020905b8160009054906101000a900473ffffffffffffffffffffffffffffffffffffffff1673ffffffffffffffffffffffffffffffffffffffff1681526020019060010190808311612c28575b5050505050905090565b6000612c86614279565b600080600e60009054906101000a900460ff161515612ca857600093506130f3565b73eeeeeeeeeeeeeeeeeeeeeeeeeeeeeeeeeeeeeeee73ffffffffffffffffffffffffffffffffffffffff168873ffffffffffffffffffffffffffffffffffffffff161415612d5157600d60008873ffffffffffffffffffffffffffffffffffffffff1673ffffffffffffffffffffffffffffffffffffffff16815260200190815260200160002060009054906101000a900460ff161515612d4c57600093506130f3565b612e04565b73eeeeeeeeeeeeeeeeeeeeeeeeeeeeeeeeeeeeeeee73ffffffffffffffffffffffffffffffffffffffff168773ffffffffffffffffffffffffffffffffffffffff161415612dfa57600d60008973ffffffffffffffffffffffffffffffffffffffff1673ffffffffffffffffffffffffffffffffffffffff16815260200190815260200160002060009054906101000a900460ff161515612df557600093506130f3565b612e03565b600093506130f3565b5b612e0e8888613b28565b9250600083600001511415612e2657600093506130f3565b600a60009054906101000a900473ffffffffffffffffffffffffffffffffffffffff1673ffffffffffffffffffffffffffffffffffffffff1663fdab1b7b8460400151856020015186600001516000604051604001526040518463ffffffff167c0100000000000000000000000000000000000000000000000000000000028152600401808473ffffffffffffffffffffffffffffffffffffffff1673ffffffffffffffffffffffffffffffffffffffff1681526020018373ffffffffffffffffffffffffffffffffffffffff1673ffffffffffffffffffffffffffffffffffffffff16815260200182815260200193505050506040805180830381600087803b1515612f3257600080fd5b6102c65a03f11515612f4357600080fd5b50505060405180519060200180519050846060018560800182815250828152505050600083606001511480612f7c575060008360800151145b15612f8a57600093506130f3565b612fa7836020015187856040015186606001518760800151613f93565b1515612fb657600093506130f3565b73eeeeeeeeeeeeeeeeeeeeeeeeeeeeeeeeeeeeeeee73ffffffffffffffffffffffffffffffffffffffff168873ffffffffffffffffffffffffffffffffffffffff1614613003578561301a565b61271060075461271003870281151561301857fe5b045b9150600082148061303057508183608001518302105b1561303e57600093506130f3565b82606001518360800151830281151561305357fe5b04905060095460085460095403820281151561306b57fe5b04905073eeeeeeeeeeeeeeeeeeeeeeeeeeeeeeeeeeeeeeee73ffffffffffffffffffffffffffffffffffffffff168773ffffffffffffffffffffffffffffffffffffffff16146130bb57806130d2565b6127106007546127100382028115156130d057fe5b045b90506130f086826130e28b613dab565b6130eb8b613dab565b613ee2565b93505b505050949350505050565b6000809054906101000a900473ffffffffffffffffffffffffffffffffffffffff1673ffffffffffffffffffffffffffffffffffffffff163373ffffffffffffffffffffffffffffffffffffffff1614151561315957600080fd5b600260008273ffffffffffffffffffffffffffffffffffffffff1673ffffffffffffffffffffffffffffffffffffffff16815260200190815260200160002060009054906101000a900460ff161515156131b257600080fd5b60326004805490501015156131c657600080fd5b7f091a7a4b85135fdd7e8dbc18b12fabe5cc191ea867aa3c2e1a24a102af61d58b816001604051808373ffffffffffffffffffffffffffffffffffffffff1673ffffffffffffffffffffffffffffffffffffffff168152602001821515151581526020019250505060405180910390a16001600260008373ffffffffffffffffffffffffffffffffffffffff1673ffffffffffffffffffffffffffffffffffffffff16815260200190815260200160002060006101000a81548160ff021916908315150217905550600480548060010182816132a2919061424d565b9160005260206000209001600083909190916101000a81548173ffffffffffffffffffffffffffffffffffffffff021916908373ffffffffffffffffffffffffffffffffffffffff1602179055505050565b6000809054906101000a900473ffffffffffffffffffffffffffffffffffffffff1673ffffffffffffffffffffffffffffffffffffffff163373ffffffffffffffffffffffffffffffffffffffff1614151561334f57600080fd5b600d60008273ffffffffffffffffffffffffffffffffffffffff1673ffffffffffffffffffffffffffffffffffffffff16815260200190815260200160002060009054906101000a900460ff1615156133a757600080fd5b6000600d60008373ffffffffffffffffffffffffffffffffffffffff1673ffffffffffffffffffffffffffffffffffffffff16815260200190815260200160002060006101000a81548160ff0219169083151502179055507f6621c4efc5efa31320394260425b7d14cbb9d7e3754b2c98c04af66b1cbf315b81604051808273ffffffffffffffffffffffffffffffffffffffff1673ffffffffffffffffffffffffffffffffffffffff16815260200191505060405180910390a150565b60008060009054906101000a900473ffffffffffffffffffffffffffffffffffffffff1673ffffffffffffffffffffffffffffffffffffffff163373ffffffffffffffffffffffffffffffffffffffff161415156134c257600080fd5b600260008373ffffffffffffffffffffffffffffffffffffffff1673ffffffffffffffffffffffffffffffffffffffff16815260200190815260200160002060009054906101000a900460ff16151561351a57600080fd5b6000600260008473ffffffffffffffffffffffffffffffffffffffff1673ffffffffffffffffffffffffffffffffffffffff16815260200190815260200160002060006101000a81548160ff021916908315150217905550600090505b600480549050811015613726578173ffffffffffffffffffffffffffffffffffffffff166004828154811015156135aa57fe5b906000526020600020900160009054906101000a900473ffffffffffffffffffffffffffffffffffffffff1673ffffffffffffffffffffffffffffffffffffffff16141561371b57600460016004805490500381548110151561360957fe5b906000526020600020900160009054906101000a900473ffffffffffffffffffffffffffffffffffffffff1660048281548110151561364457fe5b906000526020600020900160006101000a81548173ffffffffffffffffffffffffffffffffffffffff021916908373ffffffffffffffffffffffffffffffffffffffff16021790555060016004818180549050039150816136a5919061420d565b507f091a7a4b85135fdd7e8dbc18b12fabe5cc191ea867aa3c2e1a24a102af61d58b826000604051808373ffffffffffffffffffffffffffffffffffffffff1673ffffffffffffffffffffffffffffffffffffffff168152602001821515151581526020019250505060405180910390a1613726565b806001019050613577565b5050565b600b60009054906101000a900473ffffffffffffffffffffffffffffffffffffffff1681565b6000809054906101000a900473ffffffffffffffffffffffffffffffffffffffff1673ffffffffffffffffffffffffffffffffffffffff163373ffffffffffffffffffffffffffffffffffffffff161415156137ab57600080fd5b8073ffffffffffffffffffffffffffffffffffffffff166108fc839081150290604051600060405180830381858888f1935050505015156137eb57600080fd5b7fec47e7ed86c86774d1a72c19f35c639911393fe7c1a34031fdbd260890da90de8282604051808381526020018273ffffffffffffffffffffffffffffffffffffffff1673ffffffffffffffffffffffffffffffffffffffff1681526020019250505060405180910390a15050565b600073eeeeeeeeeeeeeeeeeeeeeeeeeeeeeeeeeeeeeeee73ffffffffffffffffffffffffffffffffffffffff168373ffffffffffffffffffffffffffffffffffffffff1614156138c3578173ffffffffffffffffffffffffffffffffffffffff16319050613984565b8273ffffffffffffffffffffffffffffffffffffffff166370a08231836000604051602001526040518263ffffffff167c0100000000000000000000000000000000000000000000000000000000028152600401808273ffffffffffffffffffffffffffffffffffffffff1673ffffffffffffffffffffffffffffffffffffffff168152602001915050602060405180830381600087803b151561396657600080fd5b6102c65a03f1151561397757600080fd5b5050506040518051905090505b92915050565b600e60009054906101000a900460ff1681565b60085481565b6000809054906101000a900473ffffffffffffffffffffffffffffffffffffffff1681565b73eeeeeeeeeeeeeeeeeeeeeeeeeeeeeeeeeeeeeeee73ffffffffffffffffffffffffffffffffffffffff168173ffffffffffffffffffffffffffffffffffffffff161415613a5a576012600660008373ffffffffffffffffffffffffffffffffffffffff1673ffffffffffffffffffffffffffffffffffffffff16815260200190815260200160002081905550613b25565b8073ffffffffffffffffffffffffffffffffffffffff1663313ce5676000604051602001526040518163ffffffff167c0100000000000000000000000000000000000000000000000000000000028152600401602060405180830381600087803b1515613ac657600080fd5b6102c65a03f11515613ad757600080fd5b50505060405180519050600660008373ffffffffffffffffffffffffffffffffffffffff1673ffffffffffffffffffffffffffffffffffffffff168152602001908152602001600020819055505b50565b613b30614279565b73eeeeeeeeeeeeeeeeeeeeeeeeeeeeeeeeeeeeeeee73ffffffffffffffffffffffffffffffffffffffff168373ffffffffffffffffffffffffffffffffffffffff1614613b7d5782613ba1565b600c60009054906101000a900473ffffffffffffffffffffffffffffffffffffffff165b816020019073ffffffffffffffffffffffffffffffffffffffff16908173ffffffffffffffffffffffffffffffffffffffff168152505073eeeeeeeeeeeeeeeeeeeeeeeeeeeeeeeeeeeeeeee73ffffffffffffffffffffffffffffffffffffffff168273ffffffffffffffffffffffffffffffffffffffff1614613c255781613c49565b600c60009054906101000a900473ffffffffffffffffffffffffffffffffffffffff165b816040019073ffffffffffffffffffffffffffffffffffffffff16908173ffffffffffffffffffffffffffffffffffffffff1681525050600a60009054906101000a900473ffffffffffffffffffffffffffffffffffffffff1673ffffffffffffffffffffffffffffffffffffffff166314584a9d826040015183602001516000604051602001526040518363ffffffff167c0100000000000000000000000000000000000000000000000000000000028152600401808373ffffffffffffffffffffffffffffffffffffffff1673ffffffffffffffffffffffffffffffffffffffff1681526020018273ffffffffffffffffffffffffffffffffffffffff1673ffffffffffffffffffffffffffffffffffffffff16815260200192505050602060405180830381600087803b1515613d8157600080fd5b6102c65a03f11515613d9257600080fd5b5050506040518051905081600001818152505092915050565b60008073eeeeeeeeeeeeeeeeeeeeeeeeeeeeeeeeeeeeeeee73ffffffffffffffffffffffffffffffffffffffff168373ffffffffffffffffffffffffffffffffffffffff161415613dff5760129150613edc565b600660008473ffffffffffffffffffffffffffffffffffffffff1673ffffffffffffffffffffffffffffffffffffffff1681526020019081526020016000205490506000811415613ed8578273ffffffffffffffffffffffffffffffffffffffff1663313ce5676000604051602001526040518163ffffffff167c0100000000000000000000000000000000000000000000000000000000028152600401602060405180830381600087803b1515613eb657600080fd5b6102c65a03f11515613ec757600080fd5b505050604051805190509150613edc565b8091505b50919050565b60006b204fce5e3e250261100000008511151515613eff57600080fd5b6b204fce5e3e250261100000008411151515613f1a57600080fd5b8282101515613f5957601283830311151515613f3557600080fd5b84838303600a0a02670de0b6b3a76400008502811515613f5157fe5b049050613f8b565b601282840311151515613f6b57600080fd5b84828403600a0a670de0b6b3a7640000860202811515613f8757fe5b0490505b949350505050565b600080600080600a60009054906101000a900473ffffffffffffffffffffffffffffffffffffffff1673ffffffffffffffffffffffffffffffffffffffff1663b8beafd6888b6000604051602001526040518363ffffffff167c0100000000000000000000000000000000000000000000000000000000028152600401808373ffffffffffffffffffffffffffffffffffffffff1673ffffffffffffffffffffffffffffffffffffffff1681526020018273ffffffffffffffffffffffffffffffffffffffff1673ffffffffffffffffffffffffffffffffffffffff16815260200192505050602060405180830381600087803b151561409257600080fd5b6102c65a03f115156140a357600080fd5b505050604051805190509250600a60009054906101000a900473ffffffffffffffffffffffffffffffffffffffff1673ffffffffffffffffffffffffffffffffffffffff1663b64c4905888b6000604051602001526040518363ffffffff167c0100000000000000000000000000000000000000000000000000000000028152600401808373ffffffffffffffffffffffffffffffffffffffff1673ffffffffffffffffffffffffffffffffffffffff1681526020018273ffffffffffffffffffffffffffffffffffffffff1673ffffffffffffffffffffffffffffffffffffffff16815260200192505050602060405180830381600087803b15156141a857600080fd5b6102c65a03f115156141b957600080fd5b5050506040518051905091508186830210156141d85760009350614201565b82858784028115156141e657fe5b0403905087811215156141fc5760019350614201565b600093505b50505095945050505050565b8154818355818115116142345781836000526020600020918201910161423391906142d5565b5b505050565b602060405190810160405280600081525090565b8154818355818115116142745781836000526020600020918201910161427391906142d5565b5b505050565b60a06040519081016040528060008152602001600073ffffffffffffffffffffffffffffffffffffffff168152602001600073ffffffffffffffffffffffffffffffffffffffff16815260200160008152602001600081525090565b6142f791905b808211156142f35760008160009055506001016142db565b5090565b905600a165627a7a72305820d08e144877a99ac3b0bf890f0284ca77d1e74048950f2f29af5e685f11c187d50029",
  "source": "pragma solidity 0.4.18;\n\n\nimport \"../Withdrawable.sol\";\nimport \"../KyberReserveInterface.sol\";\nimport \"../Utils2.sol\";\n\n\ninterface WETH9 {\n    function approve(address spender, uint amount) public returns(bool);\n    function withdraw(uint amount) public;\n    function deposit() public payable;\n}\n\n\ninterface DutchXExchange {\n    // Two functions below are in fact: mapping (address => mapping (address => uint)) public sellVolumesCurrent;\n    // Token => Token => amount\n    function buyVolumes(address sellToken, address buyToken) public view returns (uint);\n    function sellVolumesCurrent(address sellToken, address buyToken) public view returns (uint);\n    function deposit(address tokenAddress,uint amount) public returns(uint);\n    function postBuyOrder(address sellToken,address buyToken,uint auctionIndex,uint amount) public returns (uint);\n\n    function claimBuyerFunds(address sellToken, address buyToken, address user, uint auctionIndex) public\n        returns(uint returned, uint frtsIssued);\n\n    function withdraw(address tokenAddress,uint amount) public returns (uint);\n    function getAuctionIndex(address sellToken, address buyToken) public view returns(uint index);\n    function getFeeRatio(address user) public view returns (uint num, uint den); // feeRatio < 10^4\n\n    function getCurrentAuctionPrice(address sellToken, address buyToken, uint auctionIndex) public view\n        returns (uint num, uint den);\n}\n\n\ncontract KyberDutchXReserve is KyberReserveInterface, Withdrawable, Utils2 {\n\n    uint public constant BPS = 10000;\n    uint public constant DEFAULT_KYBER_FEE_BPS = 25;\n\n    uint public feeBps = DEFAULT_KYBER_FEE_BPS;\n    uint public dutchXFeeNum;\n    uint public dutchXFeeDen;\n\n    DutchXExchange public dutchX;\n    address public kyberNetwork;\n    WETH9 public weth;\n\n    mapping(address => bool) public listedTokens;\n\n    bool public tradeEnabled;\n\n    /**\n        Constructor\n    */\n    function KyberDutchXReserve(\n        DutchXExchange _dutchX,\n        address _admin,\n        address _kyberNetwork,\n        WETH9 _weth\n    )\n        public\n    {\n        require(address(_dutchX) != address(0));\n        require(_admin != address(0));\n        require(_kyberNetwork != address(0));\n        require(_weth != WETH9(0));\n\n        dutchX = _dutchX;\n        admin = _admin;\n        kyberNetwork = _kyberNetwork;\n        weth = _weth;\n\n        setDutchXFee();\n        require(weth.approve(dutchX, 2 ** 255));\n        setDecimals(ETH_TOKEN_ADDRESS);\n    }\n\n    function() public payable {\n        // anyone can deposit ether\n    }\n\n    struct AuctionData {\n        uint index;\n        ERC20 srcToken;\n        ERC20 dstToken;\n        uint priceNum; // numerator\n        uint priceDen; // denominator\n    }\n\n    /**\n        Returns rate = dest quantity / source quantity.\n    */\n    function getConversionRate(\n        ERC20 src,\n        ERC20 dest,\n        uint srcQty,\n        uint blockNumber\n    )\n        public\n        view\n        returns(uint)\n    {\n        blockNumber;\n        if (!tradeEnabled) return 0;\n\n        if (src == ETH_TOKEN_ADDRESS) {\n            if (!listedTokens[dest]) return 0;\n        } else if (dest == ETH_TOKEN_ADDRESS) {\n            if (!listedTokens[src]) return 0;\n        } else {\n            return 0;\n        }\n\n        AuctionData memory auctionData = getAuctionData(src, dest);\n        if (auctionData.index == 0) return 0;\n\n        (auctionData.priceNum, auctionData.priceDen) = dutchX.getCurrentAuctionPrice(\n                auctionData.dstToken,\n                auctionData.srcToken,\n                auctionData.index\n            );\n\n        if (auctionData.priceNum == 0 || auctionData.priceDen == 0) return 0;\n\n        if (!sufficientLiquidity(auctionData.srcToken, srcQty, auctionData.dstToken,\n            auctionData.priceNum, auctionData.priceDen)) {\n            return 0;\n        }\n\n        // if source is Eth, reduce kyber fee from source.\n        uint actualSrcQty = (src == ETH_TOKEN_ADDRESS) ? srcQty * (BPS - feeBps) / BPS : srcQty;\n\n        if (actualSrcQty == 0 || actualSrcQty * auctionData.priceDen < actualSrcQty) return 0;\n\n        uint convertedQty = (actualSrcQty * auctionData.priceDen) / auctionData.priceNum;\n        // reduce dutchX fees\n        convertedQty = convertedQty * (dutchXFeeDen - dutchXFeeNum) / dutchXFeeDen;\n\n        // if destination is Eth, reduce kyber fee from destination.\n        convertedQty = (dest == ETH_TOKEN_ADDRESS) ? convertedQty * (BPS - feeBps) / BPS : convertedQty;\n\n        // here use original srcQty, which will give the real rate (as seen by internal kyberNetwork)\n        return calcRateFromQty(\n            srcQty, /* srcAmount */\n            convertedQty, /* destAmount */\n            getDecimals(src), /* srcDecimals */\n            getDecimals(dest) /* dstDecimals */\n        );\n    }\n\n    event TradeExecute(\n        address indexed sender,\n        address src,\n        uint srcAmount,\n        address destToken,\n        uint destAmount,\n        address destAddress,\n        uint auctionIndex\n    );\n\n    function trade(\n        ERC20 srcToken,\n        uint srcAmount,\n        ERC20 destToken,\n        address destAddress,\n        uint conversionRate,\n        bool validate\n    )\n        public\n        payable\n        returns(bool)\n    {\n        validate;\n\n        require(tradeEnabled);\n        require(msg.sender == kyberNetwork);\n\n        AuctionData memory auctionData = getAuctionData(srcToken, destToken);\n        require(auctionData.index != 0);\n\n        uint actualSrcQty;\n\n        if (srcToken == ETH_TOKEN_ADDRESS){\n            require(srcAmount == msg.value);\n            actualSrcQty = srcAmount * (BPS - feeBps) / BPS;\n            weth.deposit.value(actualSrcQty)();\n        } else {\n            require(msg.value == 0);\n            require(srcToken.transferFrom(msg.sender, address(this), srcAmount));\n            actualSrcQty = srcAmount;\n        }\n\n        dutchX.deposit(auctionData.srcToken, actualSrcQty);\n        dutchX.postBuyOrder(auctionData.dstToken, auctionData.srcToken, auctionData.index, actualSrcQty);\n\n        uint destAmount;\n        uint frtsIssued;\n        (destAmount, frtsIssued) = dutchX.claimBuyerFunds(\n            auctionData.dstToken,\n            auctionData.srcToken,\n            this,\n            auctionData.index\n        );\n\n        dutchX.withdraw(auctionData.dstToken, destAmount);\n\n        if (destToken == ETH_TOKEN_ADDRESS) {\n            weth.withdraw(destAmount);\n            destAmount = destAmount * (BPS - feeBps) / BPS;\n            destAddress.transfer(destAmount);\n        } else {\n            require(auctionData.dstToken.transfer(destAddress, destAmount));\n        }\n\n        require(conversionRate <= calcRateFromQty(\n            srcAmount, /* srcAmount */\n            destAmount, /* destAmount */\n            getDecimals(srcToken), /* srcDecimals */\n            getDecimals(destToken) /* dstDecimals */\n        ));\n        \n        TradeExecute(\n            msg.sender, /* sender */\n            srcToken, /* src */\n            srcAmount, /* srcAmount */\n            destToken, /* destToken */\n            destAmount, /* destAmount */\n            destAddress, /* destAddress */\n            auctionData.index\n        );\n\n        return true;\n    }\n\n    event FeeUpdated(\n        uint bps\n    );\n\n    function setFee(uint bps) public onlyAdmin {\n        require(bps <= BPS);\n        feeBps = bps;\n        FeeUpdated(bps);\n    }\n\n    event TokenListed(\n        ERC20 token\n    );\n\n    function listToken(ERC20 token)\n        public\n        onlyAdmin\n    {\n        require(address(token) != address(0));\n\n        listedTokens[token] = true;\n        setDecimals(token);\n        require(token.approve(dutchX, 2**255));\n        TokenListed(token);\n    }\n\n    event TokenDelisted(ERC20 token);\n\n    function delistToken(ERC20 token)\n        public\n        onlyAdmin\n    {\n        require(listedTokens[token]);\n        listedTokens[token] = false;\n\n        TokenDelisted(token);\n    }\n\n    event TradeEnabled(\n        bool enable\n    );\n\n    function setDutchXFee() public {\n        (dutchXFeeNum, dutchXFeeDen) = dutchX.getFeeRatio(this);\n\n        // can't use denominator 0 (EVM bad instruction)\n        if (dutchXFeeDen == 0) {\n            tradeEnabled = false;\n        }\n\n        TradeEnabled(tradeEnabled);\n    }\n\n    function disableTrade()\n        public\n        onlyAlerter\n        returns(bool)\n    {\n        tradeEnabled = false;\n        TradeEnabled(tradeEnabled);\n        return true;\n    }\n\n    function enableTrade()\n        public\n        onlyAdmin\n        returns(bool)\n    {\n        tradeEnabled = true;\n        TradeEnabled(tradeEnabled);\n        return true;\n    }\n\n    event KyberNetworkSet(\n        address kyberNetwork\n    );\n\n    function setKyberNetwork(\n        address _kyberNetwork\n    )\n        public\n        onlyAdmin\n    {\n        require(_kyberNetwork != address(0));\n        kyberNetwork = _kyberNetwork;\n        KyberNetworkSet(kyberNetwork);\n    }\n\n    event Execution(bool success, address caller, address destination, uint value, bytes data);\n\n    function executeTransaction(address destination, uint value, bytes data)\n        public\n        onlyOperator\n    {\n        if (destination.call.value(value)(data)) {\n            Execution(true, msg.sender, destination, value, data);\n        } else {\n            revert();\n        }\n    }\n\n    function sufficientLiquidity(ERC20 src, uint srcQty, ERC20 dest, uint priceNum, uint priceDen)\n        internal view returns(bool)\n    {\n        uint buyVolume = dutchX.buyVolumes(dest, src);\n        uint sellVolume = dutchX.sellVolumesCurrent(dest, src);\n\n        // 10^30 * 10^37 = 10^67\n        if (sellVolume * priceNum < sellVolume) return false;\n        int outstandingVolume = int((sellVolume * priceNum) / priceDen) - int(buyVolume);\n        if (outstandingVolume >= int(srcQty)) return true;\n\n        return false;\n    }\n\n    function getAuctionData(ERC20 src, ERC20 dst) internal view returns (AuctionData data) {\n        data.srcToken = src == ETH_TOKEN_ADDRESS ? ERC20(weth) : src;\n        data.dstToken = dst == ETH_TOKEN_ADDRESS ? ERC20(weth) : dst;\n        data.index = dutchX.getAuctionIndex(data.dstToken, data.srcToken);\n    }\n}\n",
  "sourcePath": "/Users/oscarr/Ethereum/frappe/contracts/dutchX/KyberDutchXReserve.sol",
  "compiler": {
    "name": "solc",
    "version": "0.4.18+commit.9cf6e910.Emscripten.clang"
  },
  "schemaVersion": "3.0.6",
  "updatedAt": "2019-05-18T17:14:13.066Z",
  "devdoc": {
    "methods": {
      "claimAdmin()": {
        "details": "Allows the pendingAdmin address to finalize the change admin process."
      },
      "getBalance(address,address)": {
        "details": "get the balance of a user.",
        "params": {
          "token": "The token type"
        },
        "return": "The balance"
      },
      "transferAdmin(address)": {
        "details": "Allows the current admin to set the pendingAdmin address.",
        "params": {
          "newAdmin": "The address to transfer ownership to."
        }
      },
      "transferAdminQuickly(address)": {
        "details": "Allows the current admin to set the admin in one tx. Useful initial deployment.",
        "params": {
          "newAdmin": "The address to transfer ownership to."
        }
      },
      "withdrawEther(uint256,address)": {
        "details": "Withdraw Ethers"
      },
      "withdrawToken(address,uint256,address)": {
        "details": "Withdraw all ERC20 compatible tokens",
        "params": {
          "token": "ERC20 The address of the token contract"
        }
      }
    }
  },
  "userdoc": {
    "methods": {
      "getConversionRate(address,address,uint256,uint256)": {
        "notice": "Returns rate = dest quantity / source quantity."
      }
    }
  }
}