{
  "contractName": "LiquidityConversionRates",
  "abi": [
    {
      "constant": false,
      "inputs": [
        {
          "name": "alerter",
          "type": "address"
        }
      ],
      "name": "removeAlerter",
      "outputs": [],
      "payable": false,
      "stateMutability": "nonpayable",
      "type": "function"
    },
    {
      "constant": true,
      "inputs": [],
      "name": "maxSellRateInPrecision",
      "outputs": [
        {
          "name": "",
          "type": "uint256"
        }
      ],
      "payable": false,
      "stateMutability": "view",
      "type": "function"
    },
    {
      "constant": true,
      "inputs": [
        {
          "name": "r",
          "type": "uint256"
        },
        {
          "name": "pMIn",
          "type": "uint256"
        },
        {
          "name": "e",
          "type": "uint256"
        },
        {
          "name": "precision",
          "type": "uint256"
        }
      ],
      "name": "pE",
      "outputs": [
        {
          "name": "",
          "type": "uint256"
        }
      ],
      "payable": false,
      "stateMutability": "pure",
      "type": "function"
    },
    {
      "constant": true,
      "inputs": [],
      "name": "pendingAdmin",
      "outputs": [
        {
          "name": "",
          "type": "address"
        }
      ],
      "payable": false,
      "stateMutability": "view",
      "type": "function"
    },
    {
      "constant": true,
      "inputs": [
        {
          "name": "p",
          "type": "uint256"
        },
        {
          "name": "q",
          "type": "uint256"
        },
        {
          "name": "numPrecisionBits",
          "type": "uint256"
        }
      ],
      "name": "ln",
      "outputs": [
        {
          "name": "",
          "type": "uint256"
        }
      ],
      "payable": false,
      "stateMutability": "pure",
      "type": "function"
    },
    {
      "constant": true,
      "inputs": [],
      "name": "maxEthCapSellInFp",
      "outputs": [
        {
          "name": "",
          "type": "uint256"
        }
      ],
      "payable": false,
      "stateMutability": "view",
      "type": "function"
    },
    {
      "constant": true,
      "inputs": [],
      "name": "getOperators",
      "outputs": [
        {
          "name": "",
          "type": "address[]"
        }
      ],
      "payable": false,
      "stateMutability": "view",
      "type": "function"
    },
    {
      "constant": true,
      "inputs": [],
      "name": "BIG_NUMBER",
      "outputs": [
        {
          "name": "",
          "type": "uint256"
        }
      ],
      "payable": false,
      "stateMutability": "view",
      "type": "function"
    },
    {
      "constant": false,
      "inputs": [
        {
          "name": "token",
          "type": "address"
        },
        {
          "name": "amount",
          "type": "uint256"
        },
        {
          "name": "sendTo",
          "type": "address"
        }
      ],
      "name": "withdrawToken",
      "outputs": [],
      "payable": false,
      "stateMutability": "nonpayable",
      "type": "function"
    },
    {
      "constant": true,
      "inputs": [],
      "name": "collectedFeesInTwei",
      "outputs": [
        {
          "name": "",
          "type": "uint256"
        }
      ],
      "payable": false,
      "stateMutability": "view",
      "type": "function"
    },
    {
      "constant": false,
      "inputs": [
        {
          "name": "newAlerter",
          "type": "address"
        }
      ],
      "name": "addAlerter",
      "outputs": [],
      "payable": false,
      "stateMutability": "nonpayable",
      "type": "function"
    },
    {
      "constant": true,
      "inputs": [],
      "name": "rInFp",
      "outputs": [
        {
          "name": "",
          "type": "uint256"
        }
      ],
      "payable": false,
      "stateMutability": "view",
      "type": "function"
    },
    {
      "constant": true,
      "inputs": [],
      "name": "maxEthCapBuyInFp",
      "outputs": [
        {
          "name": "",
          "type": "uint256"
        }
      ],
      "payable": false,
      "stateMutability": "view",
      "type": "function"
    },
    {
      "constant": true,
      "inputs": [],
      "name": "formulaPrecision",
      "outputs": [
        {
          "name": "",
          "type": "uint256"
        }
      ],
      "payable": false,
      "stateMutability": "view",
      "type": "function"
    },
    {
      "constant": true,
      "inputs": [
        {
          "name": "x",
          "type": "uint256"
        },
        {
          "name": "y",
          "type": "uint256"
        }
      ],
      "name": "checkMultOverflow",
      "outputs": [
        {
          "name": "",
          "type": "bool"
        }
      ],
      "payable": false,
      "stateMutability": "pure",
      "type": "function"
    },
    {
      "constant": true,
      "inputs": [],
      "name": "numFpBits",
      "outputs": [
        {
          "name": "",
          "type": "uint256"
        }
      ],
      "payable": false,
      "stateMutability": "view",
      "type": "function"
    },
    {
      "constant": false,
      "inputs": [
        {
          "name": "newAdmin",
          "type": "address"
        }
      ],
      "name": "transferAdmin",
      "outputs": [],
      "payable": false,
      "stateMutability": "nonpayable",
      "type": "function"
    },
    {
      "constant": false,
      "inputs": [],
      "name": "claimAdmin",
      "outputs": [],
      "payable": false,
      "stateMutability": "nonpayable",
      "type": "function"
    },
    {
      "constant": false,
      "inputs": [
        {
          "name": "newAdmin",
          "type": "address"
        }
      ],
      "name": "transferAdminQuickly",
      "outputs": [],
      "payable": false,
      "stateMutability": "nonpayable",
      "type": "function"
    },
    {
      "constant": true,
      "inputs": [],
      "name": "getAlerters",
      "outputs": [
        {
          "name": "",
          "type": "address[]"
        }
      ],
      "payable": false,
      "stateMutability": "view",
      "type": "function"
    },
    {
      "constant": true,
      "inputs": [
        {
          "name": "r",
          "type": "uint256"
        },
        {
          "name": "pMIn",
          "type": "uint256"
        },
        {
          "name": "e",
          "type": "uint256"
        },
        {
          "name": "deltaE",
          "type": "uint256"
        },
        {
          "name": "precision",
          "type": "uint256"
        }
      ],
      "name": "deltaTFunc",
      "outputs": [
        {
          "name": "",
          "type": "uint256"
        }
      ],
      "payable": false,
      "stateMutability": "pure",
      "type": "function"
    },
    {
      "constant": true,
      "inputs": [
        {
          "name": "x",
          "type": "uint256"
        },
        {
          "name": "numPrecisionBits",
          "type": "uint256"
        }
      ],
      "name": "log2ForSmallNumber",
      "outputs": [
        {
          "name": "",
          "type": "uint256"
        }
      ],
      "payable": false,
      "stateMutability": "pure",
      "type": "function"
    },
    {
      "constant": true,
      "inputs": [
        {
          "name": "p",
          "type": "uint256"
        },
        {
          "name": "q",
          "type": "uint256"
        },
        {
          "name": "precision",
          "type": "uint256"
        }
      ],
      "name": "compactFraction",
      "outputs": [
        {
          "name": "",
          "type": "uint256"
        },
        {
          "name": "",
          "type": "uint256"
        }
      ],
      "payable": false,
      "stateMutability": "pure",
      "type": "function"
    },
    {
      "constant": true,
      "inputs": [
        {
          "name": "p",
          "type": "uint256"
        },
        {
          "name": "q",
          "type": "uint256"
        }
      ],
      "name": "countLeadingZeros",
      "outputs": [
        {
          "name": "",
          "type": "uint256"
        }
      ],
      "payable": false,
      "stateMutability": "pure",
      "type": "function"
    },
    {
      "constant": false,
      "inputs": [
        {
          "name": "newOperator",
          "type": "address"
        }
      ],
      "name": "addOperator",
      "outputs": [],
      "payable": false,
      "stateMutability": "nonpayable",
      "type": "function"
    },
    {
      "constant": true,
      "inputs": [
        {
          "name": "r",
          "type": "uint256"
        },
        {
          "name": "pMIn",
          "type": "uint256"
        },
        {
          "name": "e",
          "type": "uint256"
        },
        {
          "name": "deltaT",
          "type": "uint256"
        },
        {
          "name": "precision",
          "type": "uint256"
        },
        {
          "name": "numPrecisionBits",
          "type": "uint256"
        }
      ],
      "name": "deltaEFunc",
      "outputs": [
        {
          "name": "",
          "type": "uint256"
        }
      ],
      "payable": false,
      "stateMutability": "pure",
      "type": "function"
    },
    {
      "constant": true,
      "inputs": [],
      "name": "feeInBps",
      "outputs": [
        {
          "name": "",
          "type": "uint256"
        }
      ],
      "payable": false,
      "stateMutability": "view",
      "type": "function"
    },
    {
      "constant": true,
      "inputs": [
        {
          "name": "p",
          "type": "uint256"
        },
        {
          "name": "q",
          "type": "uint256"
        },
        {
          "name": "numPrecisionBits",
          "type": "uint256"
        }
      ],
      "name": "logBase2",
      "outputs": [
        {
          "name": "",
          "type": "uint256"
        }
      ],
      "payable": false,
      "stateMutability": "pure",
      "type": "function"
    },
    {
      "constant": true,
      "inputs": [],
      "name": "reserveContract",
      "outputs": [
        {
          "name": "",
          "type": "address"
        }
      ],
      "payable": false,
      "stateMutability": "view",
      "type": "function"
    },
    {
      "constant": false,
      "inputs": [
        {
          "name": "operator",
          "type": "address"
        }
      ],
      "name": "removeOperator",
      "outputs": [],
      "payable": false,
      "stateMutability": "nonpayable",
      "type": "function"
    },
    {
      "constant": true,
      "inputs": [
        {
          "name": "p",
          "type": "uint256"
        },
        {
          "name": "q",
          "type": "uint256"
        },
        {
          "name": "precision",
          "type": "uint256"
        }
      ],
      "name": "exp",
      "outputs": [
        {
          "name": "",
          "type": "uint256"
        }
      ],
      "payable": false,
      "stateMutability": "pure",
      "type": "function"
    },
    {
      "constant": false,
      "inputs": [
        {
          "name": "amount",
          "type": "uint256"
        },
        {
          "name": "sendTo",
          "type": "address"
        }
      ],
      "name": "withdrawEther",
      "outputs": [],
      "payable": false,
      "stateMutability": "nonpayable",
      "type": "function"
    },
    {
      "constant": true,
      "inputs": [],
      "name": "maxBuyRateInPrecision",
      "outputs": [
        {
          "name": "",
          "type": "uint256"
        }
      ],
      "payable": false,
      "stateMutability": "view",
      "type": "function"
    },
    {
      "constant": true,
      "inputs": [],
      "name": "minSellRateInPrecision",
      "outputs": [
        {
          "name": "",
          "type": "uint256"
        }
      ],
      "payable": false,
      "stateMutability": "view",
      "type": "function"
    },
    {
      "constant": true,
      "inputs": [],
      "name": "pMinInFp",
      "outputs": [
        {
          "name": "",
          "type": "uint256"
        }
      ],
      "payable": false,
      "stateMutability": "view",
      "type": "function"
    },
    {
      "constant": true,
      "inputs": [],
      "name": "maxQtyInFp",
      "outputs": [
        {
          "name": "",
          "type": "uint256"
        }
      ],
      "payable": false,
      "stateMutability": "view",
      "type": "function"
    },
    {
      "constant": true,
      "inputs": [],
      "name": "admin",
      "outputs": [
        {
          "name": "",
          "type": "address"
        }
      ],
      "payable": false,
      "stateMutability": "view",
      "type": "function"
    },
    {
      "constant": true,
      "inputs": [],
      "name": "minBuyRateInPrecision",
      "outputs": [
        {
          "name": "",
          "type": "uint256"
        }
      ],
      "payable": false,
      "stateMutability": "view",
      "type": "function"
    },
    {
      "constant": true,
      "inputs": [],
      "name": "token",
      "outputs": [
        {
          "name": "",
          "type": "address"
        }
      ],
      "payable": false,
      "stateMutability": "view",
      "type": "function"
    },
    {
      "inputs": [
        {
          "name": "_admin",
          "type": "address"
        },
        {
          "name": "_token",
          "type": "address"
        }
      ],
      "payable": false,
      "stateMutability": "nonpayable",
      "type": "constructor"
    },
    {
      "anonymous": false,
      "inputs": [
        {
          "indexed": false,
          "name": "reserve",
          "type": "address"
        }
      ],
      "name": "ReserveAddressSet",
      "type": "event"
    },
    {
      "anonymous": false,
      "inputs": [
        {
          "indexed": false,
          "name": "rInFp",
          "type": "uint256"
        },
        {
          "indexed": false,
          "name": "pMinInFp",
          "type": "uint256"
        },
        {
          "indexed": false,
          "name": "numFpBits",
          "type": "uint256"
        },
        {
          "indexed": false,
          "name": "maxCapBuyInFp",
          "type": "uint256"
        },
        {
          "indexed": false,
          "name": "maxEthCapSellInFp",
          "type": "uint256"
        },
        {
          "indexed": false,
          "name": "feeInBps",
          "type": "uint256"
        },
        {
          "indexed": false,
          "name": "formulaPrecision",
          "type": "uint256"
        },
        {
          "indexed": false,
          "name": "maxQtyInFp",
          "type": "uint256"
        },
        {
          "indexed": false,
          "name": "maxBuyRateInPrecision",
          "type": "uint256"
        },
        {
          "indexed": false,
          "name": "minBuyRateInPrecision",
          "type": "uint256"
        },
        {
          "indexed": false,
          "name": "maxSellRateInPrecision",
          "type": "uint256"
        },
        {
          "indexed": false,
          "name": "minSellRateInPrecision",
          "type": "uint256"
        }
      ],
      "name": "LiquidityParamsSet",
      "type": "event"
    },
    {
      "anonymous": false,
      "inputs": [
        {
          "indexed": false,
          "name": "resetFeesInTwei",
          "type": "uint256"
        }
      ],
      "name": "CollectedFeesReset",
      "type": "event"
    },
    {
      "anonymous": false,
      "inputs": [
        {
          "indexed": false,
          "name": "token",
          "type": "address"
        },
        {
          "indexed": false,
          "name": "amount",
          "type": "uint256"
        },
        {
          "indexed": false,
          "name": "sendTo",
          "type": "address"
        }
      ],
      "name": "TokenWithdraw",
      "type": "event"
    },
    {
      "anonymous": false,
      "inputs": [
        {
          "indexed": false,
          "name": "amount",
          "type": "uint256"
        },
        {
          "indexed": false,
          "name": "sendTo",
          "type": "address"
        }
      ],
      "name": "EtherWithdraw",
      "type": "event"
    },
    {
      "anonymous": false,
      "inputs": [
        {
          "indexed": false,
          "name": "pendingAdmin",
          "type": "address"
        }
      ],
      "name": "TransferAdminPending",
      "type": "event"
    },
    {
      "anonymous": false,
      "inputs": [
        {
          "indexed": false,
          "name": "newAdmin",
          "type": "address"
        },
        {
          "indexed": false,
          "name": "previousAdmin",
          "type": "address"
        }
      ],
      "name": "AdminClaimed",
      "type": "event"
    },
    {
      "anonymous": false,
      "inputs": [
        {
          "indexed": false,
          "name": "newAlerter",
          "type": "address"
        },
        {
          "indexed": false,
          "name": "isAdd",
          "type": "bool"
        }
      ],
      "name": "AlerterAdded",
      "type": "event"
    },
    {
      "anonymous": false,
      "inputs": [
        {
          "indexed": false,
          "name": "newOperator",
          "type": "address"
        },
        {
          "indexed": false,
          "name": "isAdd",
          "type": "bool"
        }
      ],
      "name": "OperatorAdded",
      "type": "event"
    },
    {
      "constant": false,
      "inputs": [
        {
          "name": "reserve",
          "type": "address"
        }
      ],
      "name": "setReserveAddress",
      "outputs": [],
      "payable": false,
      "stateMutability": "nonpayable",
      "type": "function"
    },
    {
      "constant": false,
      "inputs": [
        {
          "name": "_rInFp",
          "type": "uint256"
        },
        {
          "name": "_pMinInFp",
          "type": "uint256"
        },
        {
          "name": "_numFpBits",
          "type": "uint256"
        },
        {
          "name": "_maxCapBuyInWei",
          "type": "uint256"
        },
        {
          "name": "_maxCapSellInWei",
          "type": "uint256"
        },
        {
          "name": "_feeInBps",
          "type": "uint256"
        },
        {
          "name": "_maxTokenToEthRateInPrecision",
          "type": "uint256"
        },
        {
          "name": "_minTokenToEthRateInPrecision",
          "type": "uint256"
        }
      ],
      "name": "setLiquidityParams",
      "outputs": [],
      "payable": false,
      "stateMutability": "nonpayable",
      "type": "function"
    },
    {
      "constant": false,
      "inputs": [
        {
          "name": "conversionToken",
          "type": "address"
        },
        {
          "name": "buyAmountInTwei",
          "type": "int256"
        },
        {
          "name": "rateUpdateBlock",
          "type": "uint256"
        },
        {
          "name": "currentBlock",
          "type": "uint256"
        }
      ],
      "name": "recordImbalance",
      "outputs": [],
      "payable": false,
      "stateMutability": "nonpayable",
      "type": "function"
    },
    {
      "constant": false,
      "inputs": [],
      "name": "resetCollectedFees",
      "outputs": [],
      "payable": false,
      "stateMutability": "nonpayable",
      "type": "function"
    },
    {
      "constant": true,
      "inputs": [
        {
          "name": "conversionToken",
          "type": "address"
        },
        {
          "name": "currentBlockNumber",
          "type": "uint256"
        },
        {
          "name": "buy",
          "type": "bool"
        },
        {
          "name": "qtyInSrcWei",
          "type": "uint256"
        }
      ],
      "name": "getRate",
      "outputs": [
        {
          "name": "",
          "type": "uint256"
        }
      ],
      "payable": false,
      "stateMutability": "view",
      "type": "function"
    },
    {
      "constant": true,
      "inputs": [
        {
          "name": "conversionToken",
          "type": "address"
        },
        {
          "name": "buy",
          "type": "bool"
        },
        {
          "name": "qtyInSrcWei",
          "type": "uint256"
        },
        {
          "name": "eInFp",
          "type": "uint256"
        }
      ],
      "name": "getRateWithE",
      "outputs": [
        {
          "name": "",
          "type": "uint256"
        }
      ],
      "payable": false,
      "stateMutability": "view",
      "type": "function"
    },
    {
      "constant": true,
      "inputs": [
        {
          "name": "rateInPrecision",
          "type": "uint256"
        },
        {
          "name": "buy",
          "type": "bool"
        }
      ],
      "name": "rateAfterValidation",
      "outputs": [
        {
          "name": "",
          "type": "uint256"
        }
      ],
      "payable": false,
      "stateMutability": "view",
      "type": "function"
    },
    {
      "constant": true,
      "inputs": [
        {
          "name": "eInFp",
          "type": "uint256"
        },
        {
          "name": "deltaEInFp",
          "type": "uint256"
        }
      ],
      "name": "buyRate",
      "outputs": [
        {
          "name": "",
          "type": "uint256"
        }
      ],
      "payable": false,
      "stateMutability": "view",
      "type": "function"
    },
    {
      "constant": true,
      "inputs": [
        {
          "name": "eInFp",
          "type": "uint256"
        }
      ],
      "name": "buyRateZeroQuantity",
      "outputs": [
        {
          "name": "",
          "type": "uint256"
        }
      ],
      "payable": false,
      "stateMutability": "view",
      "type": "function"
    },
    {
      "constant": true,
      "inputs": [
        {
          "name": "eInFp",
          "type": "uint256"
        },
        {
          "name": "sellInputTokenQtyInFp",
          "type": "uint256"
        },
        {
          "name": "deltaTInFp",
          "type": "uint256"
        }
      ],
      "name": "sellRate",
      "outputs": [
        {
          "name": "rateInPrecision",
          "type": "uint256"
        },
        {
          "name": "deltaEInFp",
          "type": "uint256"
        }
      ],
      "payable": false,
      "stateMutability": "view",
      "type": "function"
    },
    {
      "constant": true,
      "inputs": [
        {
          "name": "eInFp",
          "type": "uint256"
        }
      ],
      "name": "sellRateZeroQuantity",
      "outputs": [
        {
          "name": "",
          "type": "uint256"
        }
      ],
      "payable": false,
      "stateMutability": "view",
      "type": "function"
    },
    {
      "constant": true,
      "inputs": [
        {
          "name": "qtyInTwei",
          "type": "uint256"
        }
      ],
      "name": "fromTweiToFp",
      "outputs": [
        {
          "name": "",
          "type": "uint256"
        }
      ],
      "payable": false,
      "stateMutability": "view",
      "type": "function"
    },
    {
      "constant": true,
      "inputs": [
        {
          "name": "qtyInwei",
          "type": "uint256"
        }
      ],
      "name": "fromWeiToFp",
      "outputs": [
        {
          "name": "",
          "type": "uint256"
        }
      ],
      "payable": false,
      "stateMutability": "view",
      "type": "function"
    },
    {
      "constant": true,
      "inputs": [
        {
          "name": "val",
          "type": "uint256"
        }
      ],
      "name": "valueAfterReducingFee",
      "outputs": [
        {
          "name": "",
          "type": "uint256"
        }
      ],
      "payable": false,
      "stateMutability": "view",
      "type": "function"
    },
    {
      "constant": true,
      "inputs": [
        {
          "name": "val",
          "type": "uint256"
        }
      ],
      "name": "calcCollectedFee",
      "outputs": [
        {
          "name": "",
          "type": "uint256"
        }
      ],
      "payable": false,
      "stateMutability": "view",
      "type": "function"
    },
    {
      "constant": true,
      "inputs": [
        {
          "name": "val",
          "type": "int256"
        }
      ],
      "name": "abs",
      "outputs": [
        {
          "name": "",
          "type": "uint256"
        }
      ],
      "payable": false,
      "stateMutability": "pure",
      "type": "function"
    }
  ],
  "bytecode": "0x6060604052600060115534156200001557600080fd5b60405160408062003c3583398101604052808051906020019091908051906020019091905050336000806101000a81548173ffffffffffffffffffffffffffffffffffffffff021916908373ffffffffffffffffffffffffffffffffffffffff1602179055506200009a82620001756401000000000262001ff7176401000000009004565b80600760006101000a81548173ffffffffffffffffffffffffffffffffffffffff021916908373ffffffffffffffffffffffffffffffffffffffff1602179055506200011c600760009054906101000a900473ffffffffffffffffffffffffffffffffffffffff166200036c640100000000026200348c176401000000009004565b60126200015f600760009054906101000a900473ffffffffffffffffffffffffffffffffffffffff16620004d064010000000002620032c4176401000000009004565b111515156200016d57600080fd5b50506200060d565b6000809054906101000a900473ffffffffffffffffffffffffffffffffffffffff1673ffffffffffffffffffffffffffffffffffffffff163373ffffffffffffffffffffffffffffffffffffffff16141515620001d157600080fd5b600073ffffffffffffffffffffffffffffffffffffffff168173ffffffffffffffffffffffffffffffffffffffff16141515156200020e57600080fd5b7f3b81caf78fa51ecbc8acb482fd7012a277b428d9b80f9d156e8a54107496cc4081604051808273ffffffffffffffffffffffffffffffffffffffff1673ffffffffffffffffffffffffffffffffffffffff16815260200191505060405180910390a17f65da1cfc2c2e81576ad96afb24a581f8e109b7a403b35cbd3243a1c99efdb9ed816000809054906101000a900473ffffffffffffffffffffffffffffffffffffffff16604051808373ffffffffffffffffffffffffffffffffffffffff1673ffffffffffffffffffffffffffffffffffffffff1681526020018273ffffffffffffffffffffffffffffffffffffffff1673ffffffffffffffffffffffffffffffffffffffff1681526020019250505060405180910390a1806000806101000a81548173ffffffffffffffffffffffffffffffffffffffff021916908373ffffffffffffffffffffffffffffffffffffffff16021790555050565b73eeeeeeeeeeeeeeeeeeeeeeeeeeeeeeeeeeeeeeee73ffffffffffffffffffffffffffffffffffffffff168173ffffffffffffffffffffffffffffffffffffffff16141562000400576012600660008373ffffffffffffffffffffffffffffffffffffffff1673ffffffffffffffffffffffffffffffffffffffff16815260200190815260200160002081905550620004cd565b8073ffffffffffffffffffffffffffffffffffffffff1663313ce5676000604051602001526040518163ffffffff167c0100000000000000000000000000000000000000000000000000000000028152600401602060405180830381600087803b15156200046d57600080fd5b6102c65a03f115156200047f57600080fd5b50505060405180519050600660008373ffffffffffffffffffffffffffffffffffffffff1673ffffffffffffffffffffffffffffffffffffffff168152602001908152602001600020819055505b50565b60008073eeeeeeeeeeeeeeeeeeeeeeeeeeeeeeeeeeeeeeee73ffffffffffffffffffffffffffffffffffffffff168373ffffffffffffffffffffffffffffffffffffffff16141562000526576012915062000607565b600660008473ffffffffffffffffffffffffffffffffffffffff1673ffffffffffffffffffffffffffffffffffffffff168152602001908152602001600020549050600081141562000603578273ffffffffffffffffffffffffffffffffffffffff1663313ce5676000604051602001526040518163ffffffff167c0100000000000000000000000000000000000000000000000000000000028152600401602060405180830381600087803b1515620005df57600080fd5b6102c65a03f11515620005f157600080fd5b50505060405180519050915062000607565b8091505b50919050565b613618806200061d6000396000f300606060405260043610610293576000357c0100000000000000000000000000000000000000000000000000000000900463ffffffff16806301a12fd3146102985780630f9b5129146102d157806314673d31146102fa5780631b5ac4b5146103335780631f05ff291461036a57806320b0961c146103a157806326782247146103f3578063275acbe314610448578063279fe9671461049157806327a099d8146104ba5780632f4fda30146105245780633ccdbb281461054d57806340277604146105ae578063408ee7fe146105d7578063436f64ac14610610578063463cf7301461063957806347be7bce146106625780634857d52d1461068b5780635111249e146106ed5780635909e89714610731578063625cfc46146107715780636f3d8043146107a857806371f805bf146107df57806375829def1461080857806377f50f97146108415780637acc8678146108565780637c423f541461088f57806382f19e3a146108f95780638369ff08146109545780638401824f1461099457806385961864146109e4578063869d7d9314610a4e578063925176d614610a8e5780639581860314610ade5780639870d7fe14610b15578063a0099b6014610b4e578063a0a7299b14610bb2578063a0dbde9d14610bdb578063a2c99d4714610c24578063a7f43acd14610c66578063aa98d57b14610cbb578063ac8a584a14610cf2578063b5debaf514610d2b578063b86f6aa714610d74578063b8e9c22e14610d89578063c6fd210314610df3578063ce56c45414610e47578063debc74f614610e89578063e255d5ad14610ec0578063e570270114610ee9578063ec6b16ca14610f12578063f0247f7814610f3b578063f851a44014610f64578063fbe3462c14610fb9578063fc0c546a14610fe2575b600080fd5b34156102a357600080fd5b6102cf600480803573ffffffffffffffffffffffffffffffffffffffff16906020019091905050611037565b005b34156102dc57600080fd5b6102e46112f9565b6040518082815260200191505060405180910390f35b341561030557600080fd5b610331600480803573ffffffffffffffffffffffffffffffffffffffff169060200190919050506112ff565b005b341561033e57600080fd5b6103546004808035906020019091905050611401565b6040518082815260200191505060405180910390f35b341561037557600080fd5b61038b600480803590602001909190505061143e565b6040518082815260200191505060405180910390f35b34156103ac57600080fd5b6103dd6004808035906020019091908035906020019091908035906020019091908035906020019091905050611476565b6040518082815260200191505060405180910390f35b34156103fe57600080fd5b6104066114b9565b604051808273ffffffffffffffffffffffffffffffffffffffff1673ffffffffffffffffffffffffffffffffffffffff16815260200191505060405180910390f35b341561045357600080fd5b61047b60048080359060200190919080359060200190919080359060200190919050506114df565b6040518082815260200191505060405180910390f35b341561049c57600080fd5b6104a461153c565b6040518082815260200191505060405180910390f35b34156104c557600080fd5b6104cd611542565b6040518080602001828103825283818151815260200191508051906020019060200280838360005b838110156105105780820151818401526020810190506104f5565b505050509050019250505060405180910390f35b341561052f57600080fd5b6105376115d6565b6040518082815260200191505060405180910390f35b341561055857600080fd5b6105ac600480803573ffffffffffffffffffffffffffffffffffffffff1690602001909190803590602001909190803573ffffffffffffffffffffffffffffffffffffffff169060200190919050506115e2565b005b34156105b957600080fd5b6105c16117b2565b6040518082815260200191505060405180910390f35b34156105e257600080fd5b61060e600480803573ffffffffffffffffffffffffffffffffffffffff169060200190919050506117b8565b005b341561061b57600080fd5b6106236119ae565b6040518082815260200191505060405180910390f35b341561064457600080fd5b61064c6119b4565b6040518082815260200191505060405180910390f35b341561066d57600080fd5b6106756119ba565b6040518082815260200191505060405180910390f35b341561069657600080fd5b6106eb60048080359060200190919080359060200190919080359060200190919080359060200190919080359060200190919080359060200190919080359060200190919080359060200190919050506119c0565b005b34156106f857600080fd5b6107176004808035906020019091908035906020019091905050611bc0565b604051808215151515815260200191505060405180910390f35b341561073c57600080fd5b61075b6004808035906020019091908035906020019091905050611bed565b6040518082815260200191505060405180910390f35b341561077c57600080fd5b6107926004808035906020019091905050611c40565b6040518082815260200191505060405180910390f35b34156107b357600080fd5b6107c96004808035906020019091905050611c7f565b6040518082815260200191505060405180910390f35b34156107ea57600080fd5b6107f2611cb5565b6040518082815260200191505060405180910390f35b341561081357600080fd5b61083f600480803573ffffffffffffffffffffffffffffffffffffffff16906020019091905050611cbb565b005b341561084c57600080fd5b610854611e1b565b005b341561086157600080fd5b61088d600480803573ffffffffffffffffffffffffffffffffffffffff16906020019091905050611ff7565b005b341561089a57600080fd5b6108a26121ec565b6040518080602001828103825283818151815260200191508051906020019060200280838360005b838110156108e55780820151818401526020810190506108ca565b505050509050019250505060405180910390f35b341561090457600080fd5b61093e6004808035906020019091908035906020019091908035906020019091908035906020019091908035906020019091905050612280565b6040518082815260200191505060405180910390f35b341561095f57600080fd5b61097e6004808035906020019091908035906020019091905050612357565b6040518082815260200191505060405180910390f35b341561099f57600080fd5b6109c76004808035906020019091908035906020019091908035906020019091905050612407565b604051808381526020018281526020019250505060405180910390f35b34156109ef57600080fd5b610a38600480803573ffffffffffffffffffffffffffffffffffffffff16906020019091908035151590602001909190803590602001909190803590602001909190505061244d565b6040518082815260200191505060405180910390f35b3415610a5957600080fd5b610a7860048080359060200190919080359060200190919050506125a7565b6040518082815260200191505060405180910390f35b3415610a9957600080fd5b610ac16004808035906020019091908035906020019091908035906020019091905050612658565b604051808381526020018281526020019250505060405180910390f35b3415610ae957600080fd5b610aff60048080359060200190919050506126a4565b6040518082815260200191505060405180910390f35b3415610b2057600080fd5b610b4c600480803573ffffffffffffffffffffffffffffffffffffffff16906020019091905050612705565b005b3415610b5957600080fd5b610b9c60048080359060200190919080359060200190919080359060200190919080359060200190919080359060200190919080359060200190919050506128fb565b6040518082815260200191505060405180910390f35b3415610bbd57600080fd5b610bc56129a9565b6040518082815260200191505060405180910390f35b3415610be657600080fd5b610c0e60048080359060200190919080359060200190919080359060200190919050506129af565b6040518082815260200191505060405180910390f35b3415610c2f57600080fd5b610c5060048080359060200190919080351515906020019091905050612a89565b6040518082815260200191505060405180910390f35b3415610c7157600080fd5b610c79612af3565b604051808273ffffffffffffffffffffffffffffffffffffffff1673ffffffffffffffffffffffffffffffffffffffff16815260200191505060405180910390f35b3415610cc657600080fd5b610cdc6004808035906020019091905050612b19565b6040518082815260200191505060405180910390f35b3415610cfd57600080fd5b610d29600480803573ffffffffffffffffffffffffffffffffffffffff16906020019091905050612b53565b005b3415610d3657600080fd5b610d5e6004808035906020019091908035906020019091908035906020019091905050612e18565b6040518082815260200191505060405180910390f35b3415610d7f57600080fd5b610d87612f19565b005b3415610d9457600080fd5b610ddd600480803573ffffffffffffffffffffffffffffffffffffffff169060200190919080359060200190919080351515906020019091908035906020019091905050612fbd565b6040518082815260200191505060405180910390f35b3415610dfe57600080fd5b610e45600480803573ffffffffffffffffffffffffffffffffffffffff16906020019091908035906020019091908035906020019091908035906020019091905050613058565b005b3415610e5257600080fd5b610e87600480803590602001909190803573ffffffffffffffffffffffffffffffffffffffff16906020019091905050613112565b005b3415610e9457600080fd5b610eaa600480803590602001909190505061321c565b6040518082815260200191505060405180910390f35b3415610ecb57600080fd5b610ed361325b565b6040518082815260200191505060405180910390f35b3415610ef457600080fd5b610efc613261565b6040518082815260200191505060405180910390f35b3415610f1d57600080fd5b610f25613267565b6040518082815260200191505060405180910390f35b3415610f4657600080fd5b610f4e61326d565b6040518082815260200191505060405180910390f35b3415610f6f57600080fd5b610f77613273565b604051808273ffffffffffffffffffffffffffffffffffffffff1673ffffffffffffffffffffffffffffffffffffffff16815260200191505060405180910390f35b3415610fc457600080fd5b610fcc613298565b6040518082815260200191505060405180910390f35b3415610fed57600080fd5b610ff561329e565b604051808273ffffffffffffffffffffffffffffffffffffffff1673ffffffffffffffffffffffffffffffffffffffff16815260200191505060405180910390f35b60008060009054906101000a900473ffffffffffffffffffffffffffffffffffffffff1673ffffffffffffffffffffffffffffffffffffffff163373ffffffffffffffffffffffffffffffffffffffff1614151561109457600080fd5b600360008373ffffffffffffffffffffffffffffffffffffffff1673ffffffffffffffffffffffffffffffffffffffff16815260200190815260200160002060009054906101000a900460ff1615156110ec57600080fd5b6000600360008473ffffffffffffffffffffffffffffffffffffffff1673ffffffffffffffffffffffffffffffffffffffff16815260200190815260200160002060006101000a81548160ff021916908315150217905550600090505b6005805490508110156112f5578173ffffffffffffffffffffffffffffffffffffffff1660058281548110151561117c57fe5b906000526020600020900160009054906101000a900473ffffffffffffffffffffffffffffffffffffffff1673ffffffffffffffffffffffffffffffffffffffff1614156112ea5760056001600580549050038154811015156111db57fe5b906000526020600020900160009054906101000a900473ffffffffffffffffffffffffffffffffffffffff1660058281548110151561121657fe5b906000526020600020900160006101000a81548173ffffffffffffffffffffffffffffffffffffffff021916908373ffffffffffffffffffffffffffffffffffffffff160217905550600580548091906001900361127491906133fb565b507f5611bf3e417d124f97bf2c788843ea8bb502b66079fbee02158ef30b172cb762826000604051808373ffffffffffffffffffffffffffffffffffffffff1673ffffffffffffffffffffffffffffffffffffffff168152602001821515151581526020019250505060405180910390a16112f5565b806001019050611149565b5050565b60145481565b6000809054906101000a900473ffffffffffffffffffffffffffffffffffffffff1673ffffffffffffffffffffffffffffffffffffffff163373ffffffffffffffffffffffffffffffffffffffff1614151561135a57600080fd5b80600860006101000a81548173ffffffffffffffffffffffffffffffffffffffff021916908373ffffffffffffffffffffffffffffffffffffffff1602179055507fbd2ca09dd2b354751631db75d1a63231ec123c0d68c81928ea03d0be326c7f8881604051808273ffffffffffffffffffffffffffffffffffffffff1673ffffffffffffffffffffffffffffffffffffffff16815260200191505060405180910390a150565b600080821215611435577fffffffffffffffffffffffffffffffffffffffffffffffffffffffffffffffff82029050611439565b8190505b919050565b60006b204fce5e3e25026110000000821115151561145b57600080fd5b6012600a0a600a54830281151561146e57fe5b049050919050565b60008061148884870284850285612e18565b90506114948186611bc0565b1515156114a057600080fd5b828186028115156114ad57fe5b04915050949350505050565b600160009054906101000a900473ffffffffffffffffffffffffffffffffffffffff1681565b600080600080690177c17eb2ae5edd211c925069021e19e0c9bab2400000915061150a8787876129af565b90506115168382611bc0565b15151561152257600080fd5b8181840281151561152f57fe5b0493505050509392505050565b600e5481565b61154a613427565b60048054806020026020016040519081016040528092919081815260200182805480156115cc57602002820191906000526020600020905b8160009054906101000a900473ffffffffffffffffffffffffffffffffffffffff1673ffffffffffffffffffffffffffffffffffffffff1681526020019060010190808311611582575b5050505050905090565b60c860019060020a0281565b6000809054906101000a900473ffffffffffffffffffffffffffffffffffffffff1673ffffffffffffffffffffffffffffffffffffffff163373ffffffffffffffffffffffffffffffffffffffff1614151561163d57600080fd5b8273ffffffffffffffffffffffffffffffffffffffff1663a9059cbb82846000604051602001526040518363ffffffff167c0100000000000000000000000000000000000000000000000000000000028152600401808373ffffffffffffffffffffffffffffffffffffffff1673ffffffffffffffffffffffffffffffffffffffff16815260200182815260200192505050602060405180830381600087803b15156116e857600080fd5b6102c65a03f115156116f957600080fd5b50505060405180519050151561170e57600080fd5b7f72cb8a894ddb372ceec3d2a7648d86f17d5a15caae0e986c53109b8a9a9385e6838383604051808473ffffffffffffffffffffffffffffffffffffffff1673ffffffffffffffffffffffffffffffffffffffff1681526020018381526020018273ffffffffffffffffffffffffffffffffffffffff1673ffffffffffffffffffffffffffffffffffffffff168152602001935050505060405180910390a1505050565b60115481565b6000809054906101000a900473ffffffffffffffffffffffffffffffffffffffff1673ffffffffffffffffffffffffffffffffffffffff163373ffffffffffffffffffffffffffffffffffffffff1614151561181357600080fd5b600360008273ffffffffffffffffffffffffffffffffffffffff1673ffffffffffffffffffffffffffffffffffffffff16815260200190815260200160002060009054906101000a900460ff1615151561186c57600080fd5b603260058054905010151561188057600080fd5b7f5611bf3e417d124f97bf2c788843ea8bb502b66079fbee02158ef30b172cb762816001604051808373ffffffffffffffffffffffffffffffffffffffff1673ffffffffffffffffffffffffffffffffffffffff168152602001821515151581526020019250505060405180910390a16001600360008373ffffffffffffffffffffffffffffffffffffffff1673ffffffffffffffffffffffffffffffffffffffff16815260200190815260200160002060006101000a81548160ff0219169083151502179055506005805480600101828161195c919061343b565b9160005260206000209001600083909190916101000a81548173ffffffffffffffffffffffffffffffffffffffff021916908373ffffffffffffffffffffffffffffffffffffffff1602179055505050565b600b5481565b600d5481565b600a5481565b6000809054906101000a900473ffffffffffffffffffffffffffffffffffffffff1673ffffffffffffffffffffffffffffffffffffffff163373ffffffffffffffffffffffffffffffffffffffff16141515611a1b57600080fd5b61010086101515611a2b57600080fd5b6b204fce5e3e25026110000000600a5411151515611a4857600080fd5b61271083101515611a5857600080fd5b8181101515611a6657600080fd5b87600b8190555086600c819055508560019060020a02600a81905550611a976b204fce5e3e2502611000000061143e565b600f8190555085600981905550611aad8561143e565b600d81905550611abc8461143e565b600e819055508260108190555080670de0b6b3a76400008002811515611ade57fe5b0460128190555081670de0b6b3a76400008002811515611afa57fe5b0460138190555081601481905550806015819055507f52db0a06d138736a4425764a1f7e1b432b5ce79099d523c0c4cd01e7320aba0e600b54600c54600954600d54600e54601054600a54600f54601254601354601454601554604051808d81526020018c81526020018b81526020018a81526020018981526020018881526020018781526020018681526020018581526020018481526020018381526020018281526020019c5050505050505050505050505060405180910390a15050505050505050565b600080821415611bd35760009050611be7565b8282838502811515611be157fe5b04141590505b92915050565b600080611c03600b54600c548686600a54612280565b9050600f548111151515611c1657600080fd5b611c1f81611c7f565b905082670de0b6b3a76400008202811515611c3657fe5b0491505092915050565b600080600a54670de0b6b3a7640000611c61600b54600c5487600a54611476565b02811515611c6b57fe5b049050611c7781611c7f565b915050919050565b600060c860019060020a028211151515611c9857600080fd5b612710826010546127100302811515611cad57fe5b049050919050565b60095481565b6000809054906101000a900473ffffffffffffffffffffffffffffffffffffffff1673ffffffffffffffffffffffffffffffffffffffff163373ffffffffffffffffffffffffffffffffffffffff16141515611d1657600080fd5b600073ffffffffffffffffffffffffffffffffffffffff168173ffffffffffffffffffffffffffffffffffffffff1614151515611d5257600080fd5b7f3b81caf78fa51ecbc8acb482fd7012a277b428d9b80f9d156e8a54107496cc40600160009054906101000a900473ffffffffffffffffffffffffffffffffffffffff16604051808273ffffffffffffffffffffffffffffffffffffffff1673ffffffffffffffffffffffffffffffffffffffff16815260200191505060405180910390a180600160006101000a81548173ffffffffffffffffffffffffffffffffffffffff021916908373ffffffffffffffffffffffffffffffffffffffff16021790555050565b3373ffffffffffffffffffffffffffffffffffffffff16600160009054906101000a900473ffffffffffffffffffffffffffffffffffffffff1673ffffffffffffffffffffffffffffffffffffffff16141515611e7757600080fd5b7f65da1cfc2c2e81576ad96afb24a581f8e109b7a403b35cbd3243a1c99efdb9ed600160009054906101000a900473ffffffffffffffffffffffffffffffffffffffff166000809054906101000a900473ffffffffffffffffffffffffffffffffffffffff16604051808373ffffffffffffffffffffffffffffffffffffffff1673ffffffffffffffffffffffffffffffffffffffff1681526020018273ffffffffffffffffffffffffffffffffffffffff1673ffffffffffffffffffffffffffffffffffffffff1681526020019250505060405180910390a1600160009054906101000a900473ffffffffffffffffffffffffffffffffffffffff166000806101000a81548173ffffffffffffffffffffffffffffffffffffffff021916908373ffffffffffffffffffffffffffffffffffffffff1602179055506000600160006101000a81548173ffffffffffffffffffffffffffffffffffffffff021916908373ffffffffffffffffffffffffffffffffffffffff160217905550565b6000809054906101000a900473ffffffffffffffffffffffffffffffffffffffff1673ffffffffffffffffffffffffffffffffffffffff163373ffffffffffffffffffffffffffffffffffffffff1614151561205257600080fd5b600073ffffffffffffffffffffffffffffffffffffffff168173ffffffffffffffffffffffffffffffffffffffff161415151561208e57600080fd5b7f3b81caf78fa51ecbc8acb482fd7012a277b428d9b80f9d156e8a54107496cc4081604051808273ffffffffffffffffffffffffffffffffffffffff1673ffffffffffffffffffffffffffffffffffffffff16815260200191505060405180910390a17f65da1cfc2c2e81576ad96afb24a581f8e109b7a403b35cbd3243a1c99efdb9ed816000809054906101000a900473ffffffffffffffffffffffffffffffffffffffff16604051808373ffffffffffffffffffffffffffffffffffffffff1673ffffffffffffffffffffffffffffffffffffffff1681526020018273ffffffffffffffffffffffffffffffffffffffff1673ffffffffffffffffffffffffffffffffffffffff1681526020019250505060405180910390a1806000806101000a81548173ffffffffffffffffffffffffffffffffffffffff021916908373ffffffffffffffffffffffffffffffffffffffff16021790555050565b6121f4613427565b600580548060200260200160405190810160405280929190818152602001828054801561227657602002820191906000526020600020905b8160009054906101000a900473ffffffffffffffffffffffffffffffffffffffff1673ffffffffffffffffffffffffffffffffffffffff168152602001906001019080831161222c575b5050505050905090565b60008060008061229289898988611476565b925082890291506122a8868a0286870287612e18565b90508481101515156122b957600080fd5b6122c585820386611bc0565b1515156122d157600080fd5b6122df858683030286611bc0565b1515156122eb57600080fd5b6122fb8586878403020286611bc0565b15151561230757600080fd5b6123118282611bc0565b15151561231d57600080fd5b6123278984611bc0565b15151561233357600080fd5b80820285868788850302020281151561234857fe5b04935050505095945050505050565b600080600080600080600094508660019060020a0293508360020292508391508388101580156123875750828811155b151561239257600080fd5b607d871015156123a157600080fd5b8690505b60008111156123f957838889028115156123bb57fe5b0497506002828115156123ca57fe5b04915082881015156123eb576002888115156123e257fe5b04975081850194505b8080600190039150506123a5565b849550505050505092915050565b60008082830284101561241f57848491509150612445565b612440838681151561242d57fe5b04848681151561243957fe5b0485612407565b915091505b935093915050565b60008060008060006b204fce5e3e25026110000000871115151561247057600080fd5b600f54861115151561248157600080fd5b600760009054906101000a900473ffffffffffffffffffffffffffffffffffffffff1673ffffffffffffffffffffffffffffffffffffffff168973ffffffffffffffffffffffffffffffffffffffff161415156124e1576000945061259b565b8715612530576124f08761143e565b9350600d54841115612505576000945061259b565b600084141561251e576125178661321c565b905061252b565b6125288685611bed565b90505b61258b565b612539876126a4565b925061254483611c7f565b915060008214156125635761255886611c40565b905060009350612577565b61256e868484612658565b80955081925050505b600e5484111561258a576000945061259b565b5b6125958189612a89565b90508094505b50505050949350505050565b600080600060ff60019060020a02915060ff90505b60008112151561262c5783828386028115156125d457fe5b041415156125f0576002828115156125e857fe5b04915061261e565b6000828502868115156125ff57fe5b04111561260e57809250612650565b60028281151561261a57fe5b0491505b8080600190039150506125bc565b7fffffffffffffffffffffffffffffffffffffffffffffffffffffffffffffffff92505b505092915050565b600080612671600b54600c548786600a546009546128fb565b9050600f54811115151561268457600080fd5b83670de0b6b3a7640000820281151561269957fe5b049150935093915050565b60006b204fce5e3e2502611000000082111515156126c157600080fd5b6126ec600760009054906101000a900473ffffffffffffffffffffffffffffffffffffffff166132c4565b600a0a600a5483028115156126fd57fe5b049050919050565b6000809054906101000a900473ffffffffffffffffffffffffffffffffffffffff1673ffffffffffffffffffffffffffffffffffffffff163373ffffffffffffffffffffffffffffffffffffffff1614151561276057600080fd5b600260008273ffffffffffffffffffffffffffffffffffffffff1673ffffffffffffffffffffffffffffffffffffffff16815260200190815260200160002060009054906101000a900460ff161515156127b957600080fd5b60326004805490501015156127cd57600080fd5b7f091a7a4b85135fdd7e8dbc18b12fabe5cc191ea867aa3c2e1a24a102af61d58b816001604051808373ffffffffffffffffffffffffffffffffffffffff1673ffffffffffffffffffffffffffffffffffffffff168152602001821515151581526020019250505060405180910390a16001600260008373ffffffffffffffffffffffffffffffffffffffff1673ffffffffffffffffffffffffffffffffffffffff16815260200190815260200160002060006101000a81548160ff021916908315150217905550600480548060010182816128a9919061343b565b9160005260206000209001600083909190916101000a81548173ffffffffffffffffffffffffffffffffffffffff021916908373ffffffffffffffffffffffffffffffffffffffff1602179055505050565b60008060008061290d8a8a8a89611476565b9250828a0291506129328688840281151561292457fe5b0487880201878802876114df565b905061293e8a84611bc0565b15151561294a57600080fd5b6129548687611bc0565b15151561296057600080fd5b61296a8288611bc0565b15151561297657600080fd5b6129808187611bc0565b15151561298c57600080fd5b8986820281151561299957fe5b0493505050509695505050505050565b60105481565b60008060008060008093508560019060020a029250868811156129d9576129d688886125a7565b93505b6129e38884611bc0565b1515156129ef57600080fd5b6129f98484611bc0565b151515612a0557600080fd5b612a168460019060020a0288611bc0565b151515612a2257600080fd5b8360019060020a028702838902811515612a3857fe5b049150612a458287612357565b905060c860019060020a0283850211151515612a6057600080fd5b60c860019060020a028111151515612a7757600080fd5b80838502019450505050509392505050565b60008060008315612aa35760135491506012549050612aae565b601554915060145490505b80851180612abb57508185105b15612ac95760009250612aeb565b620f4240670de0b6b3a764000002851115612ae75760009250612aeb565b8492505b505092915050565b600860009054906101000a900473ffffffffffffffffffffffffffffffffffffffff1681565b60006b204fce5e3e250261100000008211151515612b3657600080fd5b601054612710036010548302811515612b4b57fe5b049050919050565b60008060009054906101000a900473ffffffffffffffffffffffffffffffffffffffff1673ffffffffffffffffffffffffffffffffffffffff163373ffffffffffffffffffffffffffffffffffffffff16141515612bb057600080fd5b600260008373ffffffffffffffffffffffffffffffffffffffff1673ffffffffffffffffffffffffffffffffffffffff16815260200190815260200160002060009054906101000a900460ff161515612c0857600080fd5b6000600260008473ffffffffffffffffffffffffffffffffffffffff1673ffffffffffffffffffffffffffffffffffffffff16815260200190815260200160002060006101000a81548160ff021916908315150217905550600090505b600480549050811015612e14578173ffffffffffffffffffffffffffffffffffffffff16600482815481101515612c9857fe5b906000526020600020900160009054906101000a900473ffffffffffffffffffffffffffffffffffffffff1673ffffffffffffffffffffffffffffffffffffffff161415612e09576004600160048054905003815481101515612cf757fe5b906000526020600020900160009054906101000a900473ffffffffffffffffffffffffffffffffffffffff16600482815481101515612d3257fe5b906000526020600020900160006101000a81548173ffffffffffffffffffffffffffffffffffffffff021916908373ffffffffffffffffffffffffffffffffffffffff1602179055506001600481818054905003915081612d9391906133fb565b507f091a7a4b85135fdd7e8dbc18b12fabe5cc191ea867aa3c2e1a24a102af61d58b826000604051808373ffffffffffffffffffffffffffffffffffffffff1673ffffffffffffffffffffffffffffffffffffffff168152602001821515151581526020019250505060405180910390a1612e14565b806001019050612c65565b5050565b600080600080600080600080955060019450600193506001925060009150600090505b600115612f0b57612e4c8489611bc0565b15612e5957819650612f0c565b612e638386611bc0565b15612e7057819650612f0c565b848302888502811515612e7f57fe5b048201915080821415612e9457819650612f0c565b8190508580600101965050612ea9848b611bc0565b15612eb657819650612f0c565b612ec0838a611bc0565b15612ecd57819650612f0c565b612ed78587611bc0565b15612ee457819650612f0c565b898402935088830292508585029450612efe84848a612407565b8094508195505050612e3b565b5b5050505050509392505050565b60008060009054906101000a900473ffffffffffffffffffffffffffffffffffffffff1673ffffffffffffffffffffffffffffffffffffffff163373ffffffffffffffffffffffffffffffffffffffff16141515612f7657600080fd5b601154905060006011819055507fdeb4766cf1de6f18e3b195f199d403a02a3e09fbee1192b37d797fb300f05261816040518082815260200191505060405180910390a150565b60008060006b204fce5e3e250261100000008411151515612fdd57600080fd5b61301f600860009054906101000a900473ffffffffffffffffffffffffffffffffffffffff1673ffffffffffffffffffffffffffffffffffffffff163161143e565b915061302d8786868561244d565b9050620f4240670de0b6b3a764000002811115151561304b57600080fd5b8092505050949350505050565b600860009054906101000a900473ffffffffffffffffffffffffffffffffffffffff1673ffffffffffffffffffffffffffffffffffffffff163373ffffffffffffffffffffffffffffffffffffffff161415156130b457600080fd5b60008313156130e2576130ce6130c984611401565b612b19565b60116000828254019250508190555061310c565b6127106010546130f185611401565b028115156130fb57fe5b046011600082825401925050819055505b50505050565b6000809054906101000a900473ffffffffffffffffffffffffffffffffffffffff1673ffffffffffffffffffffffffffffffffffffffff163373ffffffffffffffffffffffffffffffffffffffff1614151561316d57600080fd5b8073ffffffffffffffffffffffffffffffffffffffff166108fc839081150290604051600060405180830381858888f1935050505015156131ad57600080fd5b7fec47e7ed86c86774d1a72c19f35c639911393fe7c1a34031fdbd260890da90de8282604051808381526020018273ffffffffffffffffffffffffffffffffffffffff1673ffffffffffffffffffffffffffffffffffffffff1681526020019250505060405180910390a15050565b600080613231600b54600c5485600a54611476565b670de0b6b3a7640000600a540281151561324757fe5b04905061325381611c7f565b915050919050565b60125481565b60155481565b600c5481565b600f5481565b6000809054906101000a900473ffffffffffffffffffffffffffffffffffffffff1681565b60135481565b600760009054906101000a900473ffffffffffffffffffffffffffffffffffffffff1681565b60008073eeeeeeeeeeeeeeeeeeeeeeeeeeeeeeeeeeeeeeee73ffffffffffffffffffffffffffffffffffffffff168373ffffffffffffffffffffffffffffffffffffffff16141561331857601291506133f5565b600660008473ffffffffffffffffffffffffffffffffffffffff1673ffffffffffffffffffffffffffffffffffffffff16815260200190815260200160002054905060008114156133f1578273ffffffffffffffffffffffffffffffffffffffff1663313ce5676000604051602001526040518163ffffffff167c0100000000000000000000000000000000000000000000000000000000028152600401602060405180830381600087803b15156133cf57600080fd5b6102c65a03f115156133e057600080fd5b5050506040518051905091506133f5565b8091505b50919050565b815481835581811511613422578183600052602060002091820191016134219190613467565b5b505050565b602060405190810160405280600081525090565b815481835581811511613462578183600052602060002091820191016134619190613467565b5b505050565b61348991905b8082111561348557600081600090555060010161346d565b5090565b90565b73eeeeeeeeeeeeeeeeeeeeeeeeeeeeeeeeeeeeeeee73ffffffffffffffffffffffffffffffffffffffff168173ffffffffffffffffffffffffffffffffffffffff16141561351e576012600660008373ffffffffffffffffffffffffffffffffffffffff1673ffffffffffffffffffffffffffffffffffffffff168152602001908152602001600020819055506135e9565b8073ffffffffffffffffffffffffffffffffffffffff1663313ce5676000604051602001526040518163ffffffff167c0100000000000000000000000000000000000000000000000000000000028152600401602060405180830381600087803b151561358a57600080fd5b6102c65a03f1151561359b57600080fd5b50505060405180519050600660008373ffffffffffffffffffffffffffffffffffffffff1673ffffffffffffffffffffffffffffffffffffffff168152602001908152602001600020819055505b505600a165627a7a723058204627b52b90b0d2391eef6cda5c88d0fd8c84bd27143c66cb4e1de9d10b505fb80029",
  "source": "pragma solidity 0.4.18;\n\nimport \"./ConversionRatesInterface.sol\";\nimport \"./LiquidityFormula.sol\";\nimport \"./Withdrawable.sol\";\nimport \"./Utils.sol\";\n\n\ncontract LiquidityConversionRates is ConversionRatesInterface, LiquidityFormula, Withdrawable, Utils {\n    ERC20 public token;\n    address public reserveContract;\n\n    uint public numFpBits;\n    uint public formulaPrecision;\n\n    uint public rInFp;\n    uint public pMinInFp;\n\n    uint public maxEthCapBuyInFp;\n    uint public maxEthCapSellInFp;\n    uint public maxQtyInFp;\n\n    uint public feeInBps;\n    uint public collectedFeesInTwei = 0;\n\n    uint public maxBuyRateInPrecision;\n    uint public minBuyRateInPrecision;\n    uint public maxSellRateInPrecision;\n    uint public minSellRateInPrecision;\n\n    function LiquidityConversionRates(address _admin, ERC20 _token) public {\n        transferAdminQuickly(_admin);\n        token = _token;\n        setDecimals(token);\n        require(getDecimals(token) <= MAX_DECIMALS);\n    }\n\n    event ReserveAddressSet(address reserve);\n\n    function setReserveAddress(address reserve) public onlyAdmin {\n        reserveContract = reserve;\n        ReserveAddressSet(reserve);\n    }\n\n    event LiquidityParamsSet(\n        uint rInFp,\n        uint pMinInFp,\n        uint numFpBits,\n        uint maxCapBuyInFp,\n        uint maxEthCapSellInFp,\n        uint feeInBps,\n        uint formulaPrecision,\n        uint maxQtyInFp,\n        uint maxBuyRateInPrecision,\n        uint minBuyRateInPrecision,\n        uint maxSellRateInPrecision,\n        uint minSellRateInPrecision\n    );\n\n    function setLiquidityParams(\n        uint _rInFp,\n        uint _pMinInFp,\n        uint _numFpBits,\n        uint _maxCapBuyInWei,\n        uint _maxCapSellInWei,\n        uint _feeInBps,\n        uint _maxTokenToEthRateInPrecision,\n        uint _minTokenToEthRateInPrecision\n    ) public onlyAdmin {\n\n        require(_numFpBits < 256);\n        require(formulaPrecision <= MAX_QTY);\n        require(_feeInBps < 10000);\n        require(_minTokenToEthRateInPrecision < _maxTokenToEthRateInPrecision);\n\n        rInFp = _rInFp;\n        pMinInFp = _pMinInFp;\n        formulaPrecision = uint(1)<<_numFpBits;\n        maxQtyInFp = fromWeiToFp(MAX_QTY);\n        numFpBits = _numFpBits;\n        maxEthCapBuyInFp = fromWeiToFp(_maxCapBuyInWei);\n        maxEthCapSellInFp = fromWeiToFp(_maxCapSellInWei);\n        feeInBps = _feeInBps;\n        maxBuyRateInPrecision = PRECISION * PRECISION / _minTokenToEthRateInPrecision;\n        minBuyRateInPrecision = PRECISION * PRECISION / _maxTokenToEthRateInPrecision;\n        maxSellRateInPrecision = _maxTokenToEthRateInPrecision;\n        minSellRateInPrecision = _minTokenToEthRateInPrecision;\n\n        LiquidityParamsSet(\n            rInFp,\n            pMinInFp,\n            numFpBits,\n            maxEthCapBuyInFp,\n            maxEthCapSellInFp,\n            feeInBps,\n            formulaPrecision,\n            maxQtyInFp,\n            maxBuyRateInPrecision,\n            minBuyRateInPrecision,\n            maxSellRateInPrecision,\n            minSellRateInPrecision\n        );\n    }\n\n    function recordImbalance(\n        ERC20 conversionToken,\n        int buyAmountInTwei,\n        uint rateUpdateBlock,\n        uint currentBlock\n    )\n        public\n    {\n        conversionToken;\n        rateUpdateBlock;\n        currentBlock;\n\n        require(msg.sender == reserveContract);\n        if (buyAmountInTwei > 0) {\n            // Buy case\n            collectedFeesInTwei += calcCollectedFee(abs(buyAmountInTwei));\n        } else {\n            // Sell case\n            collectedFeesInTwei += abs(buyAmountInTwei) * feeInBps / 10000;\n        }\n    }\n\n    event CollectedFeesReset(uint resetFeesInTwei);\n\n    function resetCollectedFees() public onlyAdmin {\n        uint resetFeesInTwei = collectedFeesInTwei;\n        collectedFeesInTwei = 0;\n\n        CollectedFeesReset(resetFeesInTwei);\n    }\n\n    function getRate(\n            ERC20 conversionToken,\n            uint currentBlockNumber,\n            bool buy,\n            uint qtyInSrcWei\n    ) public view returns(uint) {\n\n        currentBlockNumber;\n\n        require(qtyInSrcWei <= MAX_QTY);\n        uint eInFp = fromWeiToFp(reserveContract.balance);\n        uint rateInPrecision = getRateWithE(conversionToken, buy, qtyInSrcWei, eInFp);\n        require(rateInPrecision <= MAX_RATE);\n        return rateInPrecision;\n    }\n\n    function getRateWithE(ERC20 conversionToken, bool buy, uint qtyInSrcWei, uint eInFp) public view returns(uint) {\n        uint deltaEInFp;\n        uint sellInputTokenQtyInFp;\n        uint deltaTInFp;\n        uint rateInPrecision;\n\n        require(qtyInSrcWei <= MAX_QTY);\n        require(eInFp <= maxQtyInFp);\n        if (conversionToken != token) return 0;\n\n        if (buy) {\n            // ETH goes in, token goes out\n            deltaEInFp = fromWeiToFp(qtyInSrcWei);\n            if (deltaEInFp > maxEthCapBuyInFp) return 0;\n\n            if (deltaEInFp == 0) {\n                rateInPrecision = buyRateZeroQuantity(eInFp);\n            } else {\n                rateInPrecision = buyRate(eInFp, deltaEInFp);\n            }\n        } else {\n            sellInputTokenQtyInFp = fromTweiToFp(qtyInSrcWei);\n            deltaTInFp = valueAfterReducingFee(sellInputTokenQtyInFp);\n            if (deltaTInFp == 0) {\n                rateInPrecision = sellRateZeroQuantity(eInFp);\n                deltaEInFp = 0;\n            } else {\n                (rateInPrecision, deltaEInFp) = sellRate(eInFp, sellInputTokenQtyInFp, deltaTInFp);\n            }\n\n            if (deltaEInFp > maxEthCapSellInFp) return 0;\n        }\n\n        rateInPrecision = rateAfterValidation(rateInPrecision, buy);\n        return rateInPrecision;\n    }\n\n    function rateAfterValidation(uint rateInPrecision, bool buy) public view returns(uint) {\n        uint minAllowRateInPrecision;\n        uint maxAllowedRateInPrecision;\n\n        if (buy) {\n            minAllowRateInPrecision = minBuyRateInPrecision;\n            maxAllowedRateInPrecision = maxBuyRateInPrecision;\n        } else {\n            minAllowRateInPrecision = minSellRateInPrecision;\n            maxAllowedRateInPrecision = maxSellRateInPrecision;\n        }\n\n        if ((rateInPrecision > maxAllowedRateInPrecision) || (rateInPrecision < minAllowRateInPrecision)) {\n            return 0;\n        } else if (rateInPrecision > MAX_RATE) {\n            return 0;\n        } else {\n            return rateInPrecision;\n        }\n    }\n\n    function buyRate(uint eInFp, uint deltaEInFp) public view returns(uint) {\n        uint deltaTInFp = deltaTFunc(rInFp, pMinInFp, eInFp, deltaEInFp, formulaPrecision);\n        require(deltaTInFp <= maxQtyInFp);\n        deltaTInFp = valueAfterReducingFee(deltaTInFp);\n        return deltaTInFp * PRECISION / deltaEInFp;\n    }\n\n    function buyRateZeroQuantity(uint eInFp) public view returns(uint) {\n        uint ratePreReductionInPrecision = formulaPrecision * PRECISION / pE(rInFp, pMinInFp, eInFp, formulaPrecision);\n        return valueAfterReducingFee(ratePreReductionInPrecision);\n    }\n\n    function sellRate(\n        uint eInFp,\n        uint sellInputTokenQtyInFp,\n        uint deltaTInFp\n    ) public view returns(uint rateInPrecision, uint deltaEInFp) {\n        deltaEInFp = deltaEFunc(rInFp, pMinInFp, eInFp, deltaTInFp, formulaPrecision, numFpBits);\n        require(deltaEInFp <= maxQtyInFp);\n        rateInPrecision = deltaEInFp * PRECISION / sellInputTokenQtyInFp;\n    }\n\n    function sellRateZeroQuantity(uint eInFp) public view returns(uint) {\n        uint ratePreReductionInPrecision = pE(rInFp, pMinInFp, eInFp, formulaPrecision) * PRECISION / formulaPrecision;\n        return valueAfterReducingFee(ratePreReductionInPrecision);\n    }\n\n    function fromTweiToFp(uint qtyInTwei) public view returns(uint) {\n        require(qtyInTwei <= MAX_QTY);\n        return qtyInTwei * formulaPrecision / (10 ** getDecimals(token));\n    }\n\n    function fromWeiToFp(uint qtyInwei) public view returns(uint) {\n        require(qtyInwei <= MAX_QTY);\n        return qtyInwei * formulaPrecision / (10 ** ETH_DECIMALS);\n    }\n\n    function valueAfterReducingFee(uint val) public view returns(uint) {\n        require(val <= BIG_NUMBER);\n        return ((10000 - feeInBps) * val) / 10000;\n    }\n\n    function calcCollectedFee(uint val) public view returns(uint) {\n        require(val <= MAX_QTY);\n        return val * feeInBps / (10000 - feeInBps);\n    }\n\n    function abs(int val) public pure returns(uint) {\n        if (val < 0) {\n            return uint(val * (-1));\n        } else {\n            return uint(val);\n        }\n    }\n\n}\n",
  "sourcePath": "/Users/oscarr/Ethereum/frappe/contracts/LiquidityConversionRates.sol",
  "compiler": {
    "name": "solc",
    "version": "0.4.18+commit.9cf6e910.Emscripten.clang"
  },
  "schemaVersion": "3.0.6",
  "updatedAt": "2019-05-18T17:14:13.001Z",
  "devdoc": {
    "methods": {
      "claimAdmin()": {
        "details": "Allows the pendingAdmin address to finalize the change admin process."
      },
      "transferAdmin(address)": {
        "details": "Allows the current admin to set the pendingAdmin address.",
        "params": {
          "newAdmin": "The address to transfer ownership to."
        }
      },
      "transferAdminQuickly(address)": {
        "details": "Allows the current admin to set the admin in one tx. Useful initial deployment.",
        "params": {
          "newAdmin": "The address to transfer ownership to."
        }
      },
      "withdrawEther(uint256,address)": {
        "details": "Withdraw Ethers"
      },
      "withdrawToken(address,uint256,address)": {
        "details": "Withdraw all ERC20 compatible tokens",
        "params": {
          "token": "ERC20 The address of the token contract"
        }
      }
    }
  },
  "userdoc": {
    "methods": {}
  }
}