{
  "contractName": "MaliciousKyberNetwork",
  "abi": [
    {
      "constant": false,
      "inputs": [
        {
          "name": "alerter",
          "type": "address"
        }
      ],
      "name": "removeAlerter",
      "outputs": [],
      "payable": false,
      "stateMutability": "nonpayable",
      "type": "function"
    },
    {
      "constant": false,
      "inputs": [
        {
          "name": "trader",
          "type": "address"
        },
        {
          "name": "src",
          "type": "address"
        },
        {
          "name": "srcAmount",
          "type": "uint256"
        },
        {
          "name": "dest",
          "type": "address"
        },
        {
          "name": "destAddress",
          "type": "address"
        },
        {
          "name": "maxDestAmount",
          "type": "uint256"
        },
        {
          "name": "minConversionRate",
          "type": "uint256"
        },
        {
          "name": "walletId",
          "type": "address"
        },
        {
          "name": "hint",
          "type": "bytes"
        }
      ],
      "name": "tradeWithHint",
      "outputs": [
        {
          "name": "",
          "type": "uint256"
        }
      ],
      "payable": true,
      "stateMutability": "payable",
      "type": "function"
    },
    {
      "constant": true,
      "inputs": [],
      "name": "getReserves",
      "outputs": [
        {
          "name": "",
          "type": "address[]"
        }
      ],
      "payable": false,
      "stateMutability": "view",
      "type": "function"
    },
    {
      "constant": true,
      "inputs": [],
      "name": "myFeeWei",
      "outputs": [
        {
          "name": "",
          "type": "uint256"
        }
      ],
      "payable": false,
      "stateMutability": "view",
      "type": "function"
    },
    {
      "constant": true,
      "inputs": [
        {
          "name": "src",
          "type": "address"
        },
        {
          "name": "dest",
          "type": "address"
        },
        {
          "name": "srcAmount",
          "type": "uint256"
        },
        {
          "name": "usePermissionless",
          "type": "bool"
        }
      ],
      "name": "searchBestRate",
      "outputs": [
        {
          "name": "",
          "type": "address"
        },
        {
          "name": "",
          "type": "uint256"
        }
      ],
      "payable": false,
      "stateMutability": "view",
      "type": "function"
    },
    {
      "constant": true,
      "inputs": [
        {
          "name": "",
          "type": "bytes32"
        }
      ],
      "name": "infoFields",
      "outputs": [
        {
          "name": "",
          "type": "uint256"
        }
      ],
      "payable": false,
      "stateMutability": "view",
      "type": "function"
    },
    {
      "constant": false,
      "inputs": [
        {
          "name": "feeBurner",
          "type": "address"
        }
      ],
      "name": "setFeeBurner",
      "outputs": [],
      "payable": false,
      "stateMutability": "nonpayable",
      "type": "function"
    },
    {
      "constant": true,
      "inputs": [
        {
          "name": "src",
          "type": "address"
        },
        {
          "name": "dest",
          "type": "address"
        },
        {
          "name": "srcAmount",
          "type": "uint256"
        }
      ],
      "name": "findBestRateOnlyPermission",
      "outputs": [
        {
          "name": "obsolete",
          "type": "uint256"
        },
        {
          "name": "rate",
          "type": "uint256"
        }
      ],
      "payable": false,
      "stateMutability": "view",
      "type": "function"
    },
    {
      "constant": true,
      "inputs": [],
      "name": "enabled",
      "outputs": [
        {
          "name": "",
          "type": "bool"
        }
      ],
      "payable": false,
      "stateMutability": "view",
      "type": "function"
    },
    {
      "constant": false,
      "inputs": [
        {
          "name": "reserve",
          "type": "address"
        },
        {
          "name": "index",
          "type": "uint256"
        }
      ],
      "name": "removeReserve",
      "outputs": [
        {
          "name": "",
          "type": "bool"
        }
      ],
      "payable": false,
      "stateMutability": "nonpayable",
      "type": "function"
    },
    {
      "constant": true,
      "inputs": [],
      "name": "pendingAdmin",
      "outputs": [
        {
          "name": "",
          "type": "address"
        }
      ],
      "payable": false,
      "stateMutability": "view",
      "type": "function"
    },
    {
      "constant": true,
      "inputs": [],
      "name": "getOperators",
      "outputs": [
        {
          "name": "",
          "type": "address[]"
        }
      ],
      "payable": false,
      "stateMutability": "view",
      "type": "function"
    },
    {
      "constant": true,
      "inputs": [
        {
          "name": "",
          "type": "address"
        },
        {
          "name": "",
          "type": "uint256"
        }
      ],
      "name": "reservesPerTokenSrc",
      "outputs": [
        {
          "name": "",
          "type": "address"
        }
      ],
      "payable": false,
      "stateMutability": "view",
      "type": "function"
    },
    {
      "constant": false,
      "inputs": [
        {
          "name": "whiteList",
          "type": "address"
        }
      ],
      "name": "setWhiteList",
      "outputs": [],
      "payable": false,
      "stateMutability": "nonpayable",
      "type": "function"
    },
    {
      "constant": false,
      "inputs": [
        {
          "name": "token",
          "type": "address"
        },
        {
          "name": "amount",
          "type": "uint256"
        },
        {
          "name": "sendTo",
          "type": "address"
        }
      ],
      "name": "withdrawToken",
      "outputs": [],
      "payable": false,
      "stateMutability": "nonpayable",
      "type": "function"
    },
    {
      "constant": true,
      "inputs": [],
      "name": "maxGasPrice",
      "outputs": [
        {
          "name": "",
          "type": "uint256"
        }
      ],
      "payable": false,
      "stateMutability": "view",
      "type": "function"
    },
    {
      "constant": false,
      "inputs": [
        {
          "name": "newAlerter",
          "type": "address"
        }
      ],
      "name": "addAlerter",
      "outputs": [],
      "payable": false,
      "stateMutability": "nonpayable",
      "type": "function"
    },
    {
      "constant": true,
      "inputs": [],
      "name": "negligibleRateDiff",
      "outputs": [
        {
          "name": "",
          "type": "uint256"
        }
      ],
      "payable": false,
      "stateMutability": "view",
      "type": "function"
    },
    {
      "constant": true,
      "inputs": [],
      "name": "feeBurnerContract",
      "outputs": [
        {
          "name": "",
          "type": "address"
        }
      ],
      "payable": false,
      "stateMutability": "view",
      "type": "function"
    },
    {
      "constant": false,
      "inputs": [
        {
          "name": "expectedRate",
          "type": "address"
        }
      ],
      "name": "setExpectedRate",
      "outputs": [],
      "payable": false,
      "stateMutability": "nonpayable",
      "type": "function"
    },
    {
      "constant": true,
      "inputs": [],
      "name": "expectedRateContract",
      "outputs": [
        {
          "name": "",
          "type": "address"
        }
      ],
      "payable": false,
      "stateMutability": "view",
      "type": "function"
    },
    {
      "constant": true,
      "inputs": [],
      "name": "whiteListContract",
      "outputs": [
        {
          "name": "",
          "type": "address"
        }
      ],
      "payable": false,
      "stateMutability": "view",
      "type": "function"
    },
    {
      "constant": false,
      "inputs": [
        {
          "name": "field",
          "type": "bytes32"
        },
        {
          "name": "value",
          "type": "uint256"
        }
      ],
      "name": "setInfo",
      "outputs": [],
      "payable": false,
      "stateMutability": "nonpayable",
      "type": "function"
    },
    {
      "constant": true,
      "inputs": [
        {
          "name": "user",
          "type": "address"
        }
      ],
      "name": "getUserCapInWei",
      "outputs": [
        {
          "name": "",
          "type": "uint256"
        }
      ],
      "payable": false,
      "stateMutability": "view",
      "type": "function"
    },
    {
      "constant": true,
      "inputs": [],
      "name": "isEnabled",
      "outputs": [
        {
          "name": "",
          "type": "bool"
        }
      ],
      "payable": false,
      "stateMutability": "view",
      "type": "function"
    },
    {
      "constant": true,
      "inputs": [
        {
          "name": "",
          "type": "address"
        }
      ],
      "name": "reserveType",
      "outputs": [
        {
          "name": "",
          "type": "uint8"
        }
      ],
      "payable": false,
      "stateMutability": "view",
      "type": "function"
    },
    {
      "constant": false,
      "inputs": [
        {
          "name": "newAdmin",
          "type": "address"
        }
      ],
      "name": "transferAdmin",
      "outputs": [],
      "payable": false,
      "stateMutability": "nonpayable",
      "type": "function"
    },
    {
      "constant": false,
      "inputs": [
        {
          "name": "_enable",
          "type": "bool"
        }
      ],
      "name": "setEnable",
      "outputs": [],
      "payable": false,
      "stateMutability": "nonpayable",
      "type": "function"
    },
    {
      "constant": false,
      "inputs": [],
      "name": "claimAdmin",
      "outputs": [],
      "payable": false,
      "stateMutability": "nonpayable",
      "type": "function"
    },
    {
      "constant": true,
      "inputs": [],
      "name": "kyberNetworkProxyContract",
      "outputs": [
        {
          "name": "",
          "type": "address"
        }
      ],
      "payable": false,
      "stateMutability": "view",
      "type": "function"
    },
    {
      "constant": false,
      "inputs": [
        {
          "name": "newAdmin",
          "type": "address"
        }
      ],
      "name": "transferAdminQuickly",
      "outputs": [],
      "payable": false,
      "stateMutability": "nonpayable",
      "type": "function"
    },
    {
      "constant": true,
      "inputs": [],
      "name": "getAlerters",
      "outputs": [
        {
          "name": "",
          "type": "address[]"
        }
      ],
      "payable": false,
      "stateMutability": "view",
      "type": "function"
    },
    {
      "constant": true,
      "inputs": [
        {
          "name": "src",
          "type": "address"
        },
        {
          "name": "dest",
          "type": "address"
        },
        {
          "name": "srcQty",
          "type": "uint256"
        }
      ],
      "name": "getExpectedRate",
      "outputs": [
        {
          "name": "expectedRate",
          "type": "uint256"
        },
        {
          "name": "slippageRate",
          "type": "uint256"
        }
      ],
      "payable": false,
      "stateMutability": "view",
      "type": "function"
    },
    {
      "constant": true,
      "inputs": [
        {
          "name": "",
          "type": "uint256"
        }
      ],
      "name": "reserves",
      "outputs": [
        {
          "name": "",
          "type": "address"
        }
      ],
      "payable": false,
      "stateMutability": "view",
      "type": "function"
    },
    {
      "constant": true,
      "inputs": [
        {
          "name": "src",
          "type": "address"
        },
        {
          "name": "dest",
          "type": "address"
        },
        {
          "name": "srcQty",
          "type": "uint256"
        }
      ],
      "name": "getExpectedRateOnlyPermission",
      "outputs": [
        {
          "name": "expectedRate",
          "type": "uint256"
        },
        {
          "name": "slippageRate",
          "type": "uint256"
        }
      ],
      "payable": false,
      "stateMutability": "view",
      "type": "function"
    },
    {
      "constant": true,
      "inputs": [],
      "name": "PERM_HINT",
      "outputs": [
        {
          "name": "",
          "type": "bytes"
        }
      ],
      "payable": false,
      "stateMutability": "view",
      "type": "function"
    },
    {
      "constant": true,
      "inputs": [
        {
          "name": "user",
          "type": "address"
        },
        {
          "name": "token",
          "type": "address"
        }
      ],
      "name": "getUserCapInTokenWei",
      "outputs": [
        {
          "name": "",
          "type": "uint256"
        }
      ],
      "payable": false,
      "stateMutability": "view",
      "type": "function"
    },
    {
      "constant": true,
      "inputs": [
        {
          "name": "",
          "type": "address"
        },
        {
          "name": "",
          "type": "uint256"
        }
      ],
      "name": "reservesPerTokenDest",
      "outputs": [
        {
          "name": "",
          "type": "address"
        }
      ],
      "payable": false,
      "stateMutability": "view",
      "type": "function"
    },
    {
      "constant": false,
      "inputs": [
        {
          "name": "newOperator",
          "type": "address"
        }
      ],
      "name": "addOperator",
      "outputs": [],
      "payable": false,
      "stateMutability": "nonpayable",
      "type": "function"
    },
    {
      "constant": false,
      "inputs": [
        {
          "name": "reserve",
          "type": "address"
        },
        {
          "name": "isPermissionless",
          "type": "bool"
        }
      ],
      "name": "addReserve",
      "outputs": [
        {
          "name": "",
          "type": "bool"
        }
      ],
      "payable": false,
      "stateMutability": "nonpayable",
      "type": "function"
    },
    {
      "constant": false,
      "inputs": [
        {
          "name": "operator",
          "type": "address"
        }
      ],
      "name": "removeOperator",
      "outputs": [],
      "payable": false,
      "stateMutability": "nonpayable",
      "type": "function"
    },
    {
      "constant": true,
      "inputs": [],
      "name": "maxGasPriceValue",
      "outputs": [
        {
          "name": "",
          "type": "uint256"
        }
      ],
      "payable": false,
      "stateMutability": "view",
      "type": "function"
    },
    {
      "constant": true,
      "inputs": [
        {
          "name": "field",
          "type": "bytes32"
        }
      ],
      "name": "info",
      "outputs": [
        {
          "name": "",
          "type": "uint256"
        }
      ],
      "payable": false,
      "stateMutability": "view",
      "type": "function"
    },
    {
      "constant": true,
      "inputs": [
        {
          "name": "src",
          "type": "address"
        },
        {
          "name": "dest",
          "type": "address"
        },
        {
          "name": "srcAmount",
          "type": "uint256"
        }
      ],
      "name": "findBestRate",
      "outputs": [
        {
          "name": "obsolete",
          "type": "uint256"
        },
        {
          "name": "rate",
          "type": "uint256"
        }
      ],
      "payable": false,
      "stateMutability": "view",
      "type": "function"
    },
    {
      "constant": true,
      "inputs": [],
      "name": "myWallet",
      "outputs": [
        {
          "name": "",
          "type": "address"
        }
      ],
      "payable": false,
      "stateMutability": "view",
      "type": "function"
    },
    {
      "constant": false,
      "inputs": [
        {
          "name": "_maxGasPrice",
          "type": "uint256"
        },
        {
          "name": "_negligibleRateDiff",
          "type": "uint256"
        }
      ],
      "name": "setParams",
      "outputs": [],
      "payable": false,
      "stateMutability": "nonpayable",
      "type": "function"
    },
    {
      "constant": true,
      "inputs": [],
      "name": "PERM_HINT_GET_RATE",
      "outputs": [
        {
          "name": "",
          "type": "uint256"
        }
      ],
      "payable": false,
      "stateMutability": "view",
      "type": "function"
    },
    {
      "constant": false,
      "inputs": [
        {
          "name": "networkProxy",
          "type": "address"
        }
      ],
      "name": "setKyberProxy",
      "outputs": [],
      "payable": false,
      "stateMutability": "nonpayable",
      "type": "function"
    },
    {
      "constant": false,
      "inputs": [
        {
          "name": "amount",
          "type": "uint256"
        },
        {
          "name": "sendTo",
          "type": "address"
        }
      ],
      "name": "withdrawEther",
      "outputs": [],
      "payable": false,
      "stateMutability": "nonpayable",
      "type": "function"
    },
    {
      "constant": true,
      "inputs": [],
      "name": "getNumReserves",
      "outputs": [
        {
          "name": "",
          "type": "uint256"
        }
      ],
      "payable": false,
      "stateMutability": "view",
      "type": "function"
    },
    {
      "constant": true,
      "inputs": [
        {
          "name": "token",
          "type": "address"
        },
        {
          "name": "user",
          "type": "address"
        }
      ],
      "name": "getBalance",
      "outputs": [
        {
          "name": "",
          "type": "uint256"
        }
      ],
      "payable": false,
      "stateMutability": "view",
      "type": "function"
    },
    {
      "constant": false,
      "inputs": [
        {
          "name": "reserve",
          "type": "address"
        },
        {
          "name": "token",
          "type": "address"
        },
        {
          "name": "ethToToken",
          "type": "bool"
        },
        {
          "name": "tokenToEth",
          "type": "bool"
        },
        {
          "name": "add",
          "type": "bool"
        }
      ],
      "name": "listPairForReserve",
      "outputs": [
        {
          "name": "",
          "type": "bool"
        }
      ],
      "payable": false,
      "stateMutability": "nonpayable",
      "type": "function"
    },
    {
      "constant": true,
      "inputs": [],
      "name": "admin",
      "outputs": [
        {
          "name": "",
          "type": "address"
        }
      ],
      "payable": false,
      "stateMutability": "view",
      "type": "function"
    },
    {
      "inputs": [
        {
          "name": "_admin",
          "type": "address"
        }
      ],
      "payable": false,
      "stateMutability": "nonpayable",
      "type": "constructor"
    },
    {
      "payable": true,
      "stateMutability": "payable",
      "type": "fallback"
    },
    {
      "anonymous": false,
      "inputs": [
        {
          "indexed": true,
          "name": "sender",
          "type": "address"
        },
        {
          "indexed": false,
          "name": "amount",
          "type": "uint256"
        }
      ],
      "name": "EtherReceival",
      "type": "event"
    },
    {
      "anonymous": false,
      "inputs": [
        {
          "indexed": true,
          "name": "reserve",
          "type": "address"
        },
        {
          "indexed": false,
          "name": "add",
          "type": "bool"
        },
        {
          "indexed": false,
          "name": "isPermissionless",
          "type": "bool"
        }
      ],
      "name": "AddReserveToNetwork",
      "type": "event"
    },
    {
      "anonymous": false,
      "inputs": [
        {
          "indexed": false,
          "name": "reserve",
          "type": "address"
        }
      ],
      "name": "RemoveReserveFromNetwork",
      "type": "event"
    },
    {
      "anonymous": false,
      "inputs": [
        {
          "indexed": true,
          "name": "reserve",
          "type": "address"
        },
        {
          "indexed": false,
          "name": "src",
          "type": "address"
        },
        {
          "indexed": false,
          "name": "dest",
          "type": "address"
        },
        {
          "indexed": false,
          "name": "add",
          "type": "bool"
        }
      ],
      "name": "ListReservePairs",
      "type": "event"
    },
    {
      "anonymous": false,
      "inputs": [
        {
          "indexed": false,
          "name": "newContract",
          "type": "address"
        },
        {
          "indexed": false,
          "name": "currentContract",
          "type": "address"
        }
      ],
      "name": "WhiteListContractSet",
      "type": "event"
    },
    {
      "anonymous": false,
      "inputs": [
        {
          "indexed": false,
          "name": "newContract",
          "type": "address"
        },
        {
          "indexed": false,
          "name": "currentContract",
          "type": "address"
        }
      ],
      "name": "ExpectedRateContractSet",
      "type": "event"
    },
    {
      "anonymous": false,
      "inputs": [
        {
          "indexed": false,
          "name": "newContract",
          "type": "address"
        },
        {
          "indexed": false,
          "name": "currentContract",
          "type": "address"
        }
      ],
      "name": "FeeBurnerContractSet",
      "type": "event"
    },
    {
      "anonymous": false,
      "inputs": [
        {
          "indexed": false,
          "name": "maxGasPrice",
          "type": "uint256"
        },
        {
          "indexed": false,
          "name": "negligibleRateDiff",
          "type": "uint256"
        }
      ],
      "name": "KyberNetwrokParamsSet",
      "type": "event"
    },
    {
      "anonymous": false,
      "inputs": [
        {
          "indexed": false,
          "name": "isEnabled",
          "type": "bool"
        }
      ],
      "name": "KyberNetworkSetEnable",
      "type": "event"
    },
    {
      "anonymous": false,
      "inputs": [
        {
          "indexed": false,
          "name": "proxy",
          "type": "address"
        },
        {
          "indexed": false,
          "name": "sender",
          "type": "address"
        }
      ],
      "name": "KyberProxySet",
      "type": "event"
    },
    {
      "anonymous": false,
      "inputs": [
        {
          "indexed": true,
          "name": "trader",
          "type": "address"
        },
        {
          "indexed": false,
          "name": "src",
          "type": "address"
        },
        {
          "indexed": false,
          "name": "dest",
          "type": "address"
        },
        {
          "indexed": false,
          "name": "srcAmount",
          "type": "uint256"
        },
        {
          "indexed": false,
          "name": "dstAmount",
          "type": "uint256"
        },
        {
          "indexed": false,
          "name": "destAddress",
          "type": "address"
        },
        {
          "indexed": false,
          "name": "ethWeiValue",
          "type": "uint256"
        },
        {
          "indexed": false,
          "name": "reserve1",
          "type": "address"
        },
        {
          "indexed": false,
          "name": "reserve2",
          "type": "address"
        },
        {
          "indexed": false,
          "name": "hint",
          "type": "bytes"
        }
      ],
      "name": "KyberTrade",
      "type": "event"
    },
    {
      "anonymous": false,
      "inputs": [
        {
          "indexed": false,
          "name": "token",
          "type": "address"
        },
        {
          "indexed": false,
          "name": "amount",
          "type": "uint256"
        },
        {
          "indexed": false,
          "name": "sendTo",
          "type": "address"
        }
      ],
      "name": "TokenWithdraw",
      "type": "event"
    },
    {
      "anonymous": false,
      "inputs": [
        {
          "indexed": false,
          "name": "amount",
          "type": "uint256"
        },
        {
          "indexed": false,
          "name": "sendTo",
          "type": "address"
        }
      ],
      "name": "EtherWithdraw",
      "type": "event"
    },
    {
      "anonymous": false,
      "inputs": [
        {
          "indexed": false,
          "name": "pendingAdmin",
          "type": "address"
        }
      ],
      "name": "TransferAdminPending",
      "type": "event"
    },
    {
      "anonymous": false,
      "inputs": [
        {
          "indexed": false,
          "name": "newAdmin",
          "type": "address"
        },
        {
          "indexed": false,
          "name": "previousAdmin",
          "type": "address"
        }
      ],
      "name": "AdminClaimed",
      "type": "event"
    },
    {
      "anonymous": false,
      "inputs": [
        {
          "indexed": false,
          "name": "newAlerter",
          "type": "address"
        },
        {
          "indexed": false,
          "name": "isAdd",
          "type": "bool"
        }
      ],
      "name": "AlerterAdded",
      "type": "event"
    },
    {
      "anonymous": false,
      "inputs": [
        {
          "indexed": false,
          "name": "newOperator",
          "type": "address"
        },
        {
          "indexed": false,
          "name": "isAdd",
          "type": "bool"
        }
      ],
      "name": "OperatorAdded",
      "type": "event"
    },
    {
      "constant": false,
      "inputs": [
        {
          "name": "fee",
          "type": "uint256"
        }
      ],
      "name": "setMyFeeWei",
      "outputs": [],
      "payable": false,
      "stateMutability": "nonpayable",
      "type": "function"
    }
  ],
  "bytecode": "0x60606040526001600755600a600855640ba43b7400600f556000601060006101000a81548160ff021916908315150217905550611234601460006101000a81548173ffffffffffffffffffffffffffffffffffffffff021916908373ffffffffffffffffffffffffffffffffffffffff160217905550600a60155534156200008657600080fd5b604051602080620064ee8339810160405280805190602001909190505080336000806101000a81548173ffffffffffffffffffffffffffffffffffffffff021916908373ffffffffffffffffffffffffffffffffffffffff160217905550600073ffffffffffffffffffffffffffffffffffffffff168173ffffffffffffffffffffffffffffffffffffffff16141515156200012157600080fd5b806000806101000a81548173ffffffffffffffffffffffffffffffffffffffff021916908373ffffffffffffffffffffffffffffffffffffffff160217905550505061637b80620001736000396000f300606060405260043610610288576000357c0100000000000000000000000000000000000000000000000000000000900463ffffffff16806301a12fd31461034a578063088322ef146103835780630902f1ac1461049f5780630b490116146105095780630c235d96146105325780631610b59b146105e557806318903085146106205780631a79464e146106435780631dc1f78d1461067c578063238dafe0146106f8578063249715b314610725578063267822471461077f57806327a099d8146107d45780632ab8fc2d1461083e57806339e899ee146108c05780633ccdbb28146108f95780633de39c111461095a578063408ee7fe146109835780634cef5a5c146109bc578063579425b7146109e55780635d270cdc14610a3a5780635dada96414610a735780635ed5ea2814610ac85780635f65d70314610b1d5780636432679f14610b4d5780636aa633b614610b9a578063749f95bf14610bc757806375829def14610c225780637726bed314610c5b57806377f50f9714610c80578063785250da14610c955780637acc867814610cea5780637c423f5414610d23578063809a9e5514610d8d5780638334278d14610e0957806385dc0c5614610e6c5780638b98a2c514610ee85780638eaaeecf14610f76578063937e909b14610fe25780639870d7fe14611064578063a0d7bb1b1461109d578063ac8a584a146110f9578063b2d111f614611132578063b64a097e1461115b578063b8388aca14611196578063b880b69a14611212578063c0324c7714611267578063c0919ac614611293578063c6c3f3f9146112bc578063ce56c454146112f5578063cfff25bb14611337578063d4fac45d14611360578063e02584bf146113cc578063f851a4401461145d575b6000600281111561029557fe5b600a60003373ffffffffffffffffffffffffffffffffffffffff1673ffffffffffffffffffffffffffffffffffffffff16815260200190815260200160002060009054906101000a900460ff1660028111156102ed57fe5b141515156102fa57600080fd5b3373ffffffffffffffffffffffffffffffffffffffff167f75f33ed68675112c77094e7c5b073890598be1d23e27cd7f6907b4a7d98ac619346040518082815260200191505060405180910390a2005b341561035557600080fd5b610381600480803573ffffffffffffffffffffffffffffffffffffffff169060200190919050506114b2565b005b610489600480803573ffffffffffffffffffffffffffffffffffffffff1690602001909190803573ffffffffffffffffffffffffffffffffffffffff1690602001909190803590602001909190803573ffffffffffffffffffffffffffffffffffffffff1690602001909190803573ffffffffffffffffffffffffffffffffffffffff1690602001909190803590602001909190803590602001909190803573ffffffffffffffffffffffffffffffffffffffff1690602001909190803590602001908201803590602001908080601f01602080910402602001604051908101604052809392919081815260200183838082843782019150505050505091905050611774565b6040518082815260200191505060405180910390f35b34156104aa57600080fd5b6104b2611978565b6040518080602001828103825283818151815260200191508051906020019060200280838360005b838110156104f55780820151818401526020810190506104da565b505050509050019250505060405180910390f35b341561051457600080fd5b61051c611a0c565b6040518082815260200191505060405180910390f35b341561053d57600080fd5b61059c600480803573ffffffffffffffffffffffffffffffffffffffff1690602001909190803573ffffffffffffffffffffffffffffffffffffffff169060200190919080359060200190919080351515906020019091905050611a12565b604051808373ffffffffffffffffffffffffffffffffffffffff1673ffffffffffffffffffffffffffffffffffffffff1681526020018281526020019250505060405180910390f35b34156105f057600080fd5b61060a600480803560001916906020019091905050611fe9565b6040518082815260200191505060405180910390f35b341561062b57600080fd5b6106416004808035906020019091905050612001565b005b341561064e57600080fd5b61067a600480803573ffffffffffffffffffffffffffffffffffffffff1690602001909190505061200b565b005b341561068757600080fd5b6106db600480803573ffffffffffffffffffffffffffffffffffffffff1690602001909190803573ffffffffffffffffffffffffffffffffffffffff1690602001909190803590602001909190505061219f565b604051808381526020018281526020019250505060405180910390f35b341561070357600080fd5b61070b612204565b604051808215151515815260200191505060405180910390f35b341561073057600080fd5b610765600480803573ffffffffffffffffffffffffffffffffffffffff1690602001909190803590602001909190505061221b565b604051808215151515815260200191505060405180910390f35b341561078a57600080fd5b6107926124da565b604051808273ffffffffffffffffffffffffffffffffffffffff1673ffffffffffffffffffffffffffffffffffffffff16815260200191505060405180910390f35b34156107df57600080fd5b6107e7612500565b6040518080602001828103825283818151815260200191508051906020019060200280838360005b8381101561082a57808201518184015260208101905061080f565b505050509050019250505060405180910390f35b341561084957600080fd5b61087e600480803573ffffffffffffffffffffffffffffffffffffffff16906020019091908035906020019091905050612594565b604051808273ffffffffffffffffffffffffffffffffffffffff1673ffffffffffffffffffffffffffffffffffffffff16815260200191505060405180910390f35b34156108cb57600080fd5b6108f7600480803573ffffffffffffffffffffffffffffffffffffffff169060200190919050506125e2565b005b341561090457600080fd5b610958600480803573ffffffffffffffffffffffffffffffffffffffff1690602001909190803590602001909190803573ffffffffffffffffffffffffffffffffffffffff1690602001909190505061273a565b005b341561096557600080fd5b61096d61290a565b6040518082815260200191505060405180910390f35b341561098e57600080fd5b6109ba600480803573ffffffffffffffffffffffffffffffffffffffff16906020019091905050612914565b005b34156109c757600080fd5b6109cf612b0a565b6040518082815260200191505060405180910390f35b34156109f057600080fd5b6109f8612b10565b604051808273ffffffffffffffffffffffffffffffffffffffff1673ffffffffffffffffffffffffffffffffffffffff16815260200191505060405180910390f35b3415610a4557600080fd5b610a71600480803573ffffffffffffffffffffffffffffffffffffffff16906020019091905050612b36565b005b3415610a7e57600080fd5b610a86612cca565b604051808273ffffffffffffffffffffffffffffffffffffffff1673ffffffffffffffffffffffffffffffffffffffff16815260200191505060405180910390f35b3415610ad357600080fd5b610adb612cf0565b604051808273ffffffffffffffffffffffffffffffffffffffff1673ffffffffffffffffffffffffffffffffffffffff16815260200191505060405180910390f35b3415610b2857600080fd5b610b4b600480803560001916906020019091908035906020019091905050612d16565b005b3415610b5857600080fd5b610b84600480803573ffffffffffffffffffffffffffffffffffffffff16906020019091905050612d92565b6040518082815260200191505060405180910390f35b3415610ba557600080fd5b610bad612efa565b604051808215151515815260200191505060405180910390f35b3415610bd257600080fd5b610bfe600480803573ffffffffffffffffffffffffffffffffffffffff16906020019091905050612f0d565b60405180826002811115610c0e57fe5b60ff16815260200191505060405180910390f35b3415610c2d57600080fd5b610c59600480803573ffffffffffffffffffffffffffffffffffffffff16906020019091905050612f2d565b005b3415610c6657600080fd5b610c7e6004808035151590602001909190505061308d565b005b3415610c8b57600080fd5b610c93613270565b005b3415610ca057600080fd5b610ca861344c565b604051808273ffffffffffffffffffffffffffffffffffffffff1673ffffffffffffffffffffffffffffffffffffffff16815260200191505060405180910390f35b3415610cf557600080fd5b610d21600480803573ffffffffffffffffffffffffffffffffffffffff16906020019091905050613472565b005b3415610d2e57600080fd5b610d36613667565b6040518080602001828103825283818151815260200191508051906020019060200280838360005b83811015610d79578082015181840152602081019050610d5e565b505050509050019250505060405180910390f35b3415610d9857600080fd5b610dec600480803573ffffffffffffffffffffffffffffffffffffffff1690602001909190803573ffffffffffffffffffffffffffffffffffffffff169060200190919080359060200190919050506136fb565b604051808381526020018281526020019250505060405180910390f35b3415610e1457600080fd5b610e2a60048080359060200190919050506138f1565b604051808273ffffffffffffffffffffffffffffffffffffffff1673ffffffffffffffffffffffffffffffffffffffff16815260200191505060405180910390f35b3415610e7757600080fd5b610ecb600480803573ffffffffffffffffffffffffffffffffffffffff1690602001909190803573ffffffffffffffffffffffffffffffffffffffff16906020019091908035906020019091905050613930565b604051808381526020018281526020019250505060405180910390f35b3415610ef357600080fd5b610efb613aca565b6040518080602001828103825283818151815260200191508051906020019080838360005b83811015610f3b578082015181840152602081019050610f20565b50505050905090810190601f168015610f685780820380516001836020036101000a031916815260200191505b509250505060405180910390f35b3415610f8157600080fd5b610fcc600480803573ffffffffffffffffffffffffffffffffffffffff1690602001909190803573ffffffffffffffffffffffffffffffffffffffff16906020019091905050613b03565b6040518082815260200191505060405180910390f35b3415610fed57600080fd5b611022600480803573ffffffffffffffffffffffffffffffffffffffff16906020019091908035906020019091905050613b17565b604051808273ffffffffffffffffffffffffffffffffffffffff1673ffffffffffffffffffffffffffffffffffffffff16815260200191505060405180910390f35b341561106f57600080fd5b61109b600480803573ffffffffffffffffffffffffffffffffffffffff16906020019091905050613b65565b005b34156110a857600080fd5b6110df600480803573ffffffffffffffffffffffffffffffffffffffff169060200190919080351515906020019091905050613d5b565b604051808215151515815260200191505060405180910390f35b341561110457600080fd5b611130600480803573ffffffffffffffffffffffffffffffffffffffff16906020019091905050613f60565b005b341561113d57600080fd5b611145614225565b6040518082815260200191505060405180910390f35b341561116657600080fd5b61118060048080356000191690602001909190505061422b565b6040518082815260200191505060405180910390f35b34156111a157600080fd5b6111f5600480803573ffffffffffffffffffffffffffffffffffffffff1690602001909190803573ffffffffffffffffffffffffffffffffffffffff16906020019091908035906020019091905050614250565b604051808381526020018281526020019250505060405180910390f35b341561121d57600080fd5b611225614290565b604051808273ffffffffffffffffffffffffffffffffffffffff1673ffffffffffffffffffffffffffffffffffffffff16815260200191505060405180910390f35b341561127257600080fd5b61129160048080359060200190919080359060200190919050506142b6565b005b341561129e57600080fd5b6112a6614377565b6040518082815260200191505060405180910390f35b34156112c757600080fd5b6112f3600480803573ffffffffffffffffffffffffffffffffffffffff1690602001909190505061439b565b005b341561130057600080fd5b611335600480803590602001909190803573ffffffffffffffffffffffffffffffffffffffff1690602001909190505061452f565b005b341561134257600080fd5b61134a614639565b6040518082815260200191505060405180910390f35b341561136b57600080fd5b6113b6600480803573ffffffffffffffffffffffffffffffffffffffff1690602001909190803573ffffffffffffffffffffffffffffffffffffffff16906020019091905050614646565b6040518082815260200191505060405180910390f35b34156113d757600080fd5b611443600480803573ffffffffffffffffffffffffffffffffffffffff1690602001909190803573ffffffffffffffffffffffffffffffffffffffff16906020019091908035151590602001909190803515159060200190919080351515906020019091905050614776565b604051808215151515815260200191505060405180910390f35b341561146857600080fd5b611470614bea565b604051808273ffffffffffffffffffffffffffffffffffffffff1673ffffffffffffffffffffffffffffffffffffffff16815260200191505060405180910390f35b60008060009054906101000a900473ffffffffffffffffffffffffffffffffffffffff1673ffffffffffffffffffffffffffffffffffffffff163373ffffffffffffffffffffffffffffffffffffffff1614151561150f57600080fd5b600360008373ffffffffffffffffffffffffffffffffffffffff1673ffffffffffffffffffffffffffffffffffffffff16815260200190815260200160002060009054906101000a900460ff16151561156757600080fd5b6000600360008473ffffffffffffffffffffffffffffffffffffffff1673ffffffffffffffffffffffffffffffffffffffff16815260200190815260200160002060006101000a81548160ff021916908315150217905550600090505b600580549050811015611770578173ffffffffffffffffffffffffffffffffffffffff166005828154811015156115f757fe5b906000526020600020900160009054906101000a900473ffffffffffffffffffffffffffffffffffffffff1673ffffffffffffffffffffffffffffffffffffffff16141561176557600560016005805490500381548110151561165657fe5b906000526020600020900160009054906101000a900473ffffffffffffffffffffffffffffffffffffffff1660058281548110151561169157fe5b906000526020600020900160006101000a81548173ffffffffffffffffffffffffffffffffffffffff021916908373ffffffffffffffffffffffffffffffffffffffff16021790555060058054809190600190036116ef91906160ff565b507f5611bf3e417d124f97bf2c788843ea8bb502b66079fbee02158ef30b172cb762826000604051808373ffffffffffffffffffffffffffffffffffffffff1673ffffffffffffffffffffffffffffffffffffffff168152602001821515151581526020019250505060405180910390a1611770565b8060010190506115c4565b5050565b600061177e61612b565b600060016007600082825401925050819055506007549050600e60009054906101000a900473ffffffffffffffffffffffffffffffffffffffff1673ffffffffffffffffffffffffffffffffffffffff163373ffffffffffffffffffffffffffffffffffffffff161415156117f257600080fd5b600084511480611803575060048451145b151561180e57600080fd5b8b826000019073ffffffffffffffffffffffffffffffffffffffff16908173ffffffffffffffffffffffffffffffffffffffff16815250508a826020019073ffffffffffffffffffffffffffffffffffffffff16908173ffffffffffffffffffffffffffffffffffffffff16815250508982604001818152505088826060019073ffffffffffffffffffffffffffffffffffffffff16908173ffffffffffffffffffffffffffffffffffffffff168152505087826080019073ffffffffffffffffffffffffffffffffffffffff16908173ffffffffffffffffffffffffffffffffffffffff1681525050868260a0018181525050858260c0018181525050848260e0019073ffffffffffffffffffffffffffffffffffffffff16908173ffffffffffffffffffffffffffffffffffffffff16815250508382610100018190525061195782614c0f565b92506007548114151561196957600080fd5b50509998505050505050505050565b6119806161ec565b6009805480602002602001604051908101604052809291908181526020018280548015611a0257602002820191906000526020600020905b8160009054906101000a900473ffffffffffffffffffffffffffffffffffffffff1673ffffffffffffffffffffffffffffffffffffffff16815260200190600101908083116119b8575b5050505050905090565b60155481565b6000806000806000611a22616200565b611a2a616214565b611a32616214565b6000806000975060009650600095508c73ffffffffffffffffffffffffffffffffffffffff168e73ffffffffffffffffffffffffffffffffffffffff161415611ac557600987815481101515611a8457fe5b906000526020600020900160009054906101000a900473ffffffffffffffffffffffffffffffffffffffff16670de0b6b3a764000081915099509950611fd8565b73eeeeeeeeeeeeeeeeeeeeeeeeeeeeeeeeeeeeeeee73ffffffffffffffffffffffffffffffffffffffff168e73ffffffffffffffffffffffffffffffffffffffff1614611b5057601260008f73ffffffffffffffffffffffffffffffffffffffff1673ffffffffffffffffffffffffffffffffffffffff168152602001908152602001600020611b90565b601360008e73ffffffffffffffffffffffffffffffffffffffff1673ffffffffffffffffffffffffffffffffffffffff1681526020019081526020016000205b805480602002602001604051908101604052809291908181526020018280548015611c1057602002820191906000526020600020905b8160009054906101000a900473ffffffffffffffffffffffffffffffffffffffff1673ffffffffffffffffffffffffffffffffffffffff1681526020019060010190808311611bc6575b50505050509450600085511415611c6957600987815481101515611c3057fe5b906000526020600020900160009054906101000a900473ffffffffffffffffffffffffffffffffffffffff168881915099509950611fd8565b8451604051805910611c785750595b908082528060200260200182016040525093508451604051805910611c9a5750595b90808252806020026020018201604052509250600091505b8451821015611ec8578a158015611d415750600280811115611cd057fe5b600a60008785815181101515611ce257fe5b9060200190602002015173ffffffffffffffffffffffffffffffffffffffff1673ffffffffffffffffffffffffffffffffffffffff16815260200190815260200160002060009054906101000a900460ff166002811115611d3f57fe5b145b15611d4b57611ebb565b8482815181101515611d5957fe5b9060200190602002015173ffffffffffffffffffffffffffffffffffffffff16637cd442728f8f8f436000604051602001526040518563ffffffff167c0100000000000000000000000000000000000000000000000000000000028152600401808573ffffffffffffffffffffffffffffffffffffffff1673ffffffffffffffffffffffffffffffffffffffff1681526020018473ffffffffffffffffffffffffffffffffffffffff1673ffffffffffffffffffffffffffffffffffffffff168152602001838152602001828152602001945050505050602060405180830381600087803b1515611e4957600080fd5b6102c65a03f11515611e5a57600080fd5b505050604051805190508483815181101515611e7257fe5b9060200190602002018181525050878483815181101515611e8f57fe5b906020019060200201511115611eba578382815181101515611ead57fe5b9060200190602002015197505b5b8180600101925050611cb2565b6000881115611fba57600854612710016127108902811515611ee657fe5b049050600091505b8451821015611f4857808483815181101515611f0657fe5b90602001906020020151101515611f3b57818387806001019850815181101515611f2c57fe5b90602001906020020181815250505b8180600101925050611eee565b6001861115611f83578286600143034060019004811515611f6557fe5b06815181101515611f7257fe5b906020019060200201519650611f9f565b826000815181101515611f9257fe5b9060200190602002015196505b8387815181101515611fad57fe5b9060200190602002015197505b8487815181101515611fc857fe5b9060200190602002015188995099505b505050505050505094509492505050565b60116020528060005260406000206000915090505481565b8060158190555050565b6000809054906101000a900473ffffffffffffffffffffffffffffffffffffffff1673ffffffffffffffffffffffffffffffffffffffff163373ffffffffffffffffffffffffffffffffffffffff1614151561206657600080fd5b600073ffffffffffffffffffffffffffffffffffffffff168173ffffffffffffffffffffffffffffffffffffffff16141515156120a257600080fd5b7f91251c8b04e3ed4b921776c3aced2ad433c3701257fc5666cb35239ec4df541181600d60009054906101000a900473ffffffffffffffffffffffffffffffffffffffff16604051808373ffffffffffffffffffffffffffffffffffffffff1673ffffffffffffffffffffffffffffffffffffffff1681526020018273ffffffffffffffffffffffffffffffffffffffff1673ffffffffffffffffffffffffffffffffffffffff1681526020019250505060405180910390a180600d60006101000a81548173ffffffffffffffffffffffffffffffffffffffff021916908373ffffffffffffffffffffffffffffffffffffffff16021790555050565b6000806121aa616228565b6121eb8686866040805190810160405280600481526020017f5045524d00000000000000000000000000000000000000000000000000000000815250614f0b565b9050600081600001518191509250925050935093915050565b6000601060009054906101000a900460ff16905090565b6000600260003373ffffffffffffffffffffffffffffffffffffffff1673ffffffffffffffffffffffffffffffffffffffff16815260200190815260200160002060009054906101000a900460ff16151561227557600080fd5b6000600281111561228257fe5b600a60008573ffffffffffffffffffffffffffffffffffffffff1673ffffffffffffffffffffffffffffffffffffffff16815260200190815260200160002060009054906101000a900460ff1660028111156122da57fe5b141515156122e757600080fd5b8273ffffffffffffffffffffffffffffffffffffffff1660098381548110151561230d57fe5b906000526020600020900160009054906101000a900473ffffffffffffffffffffffffffffffffffffffff1673ffffffffffffffffffffffffffffffffffffffff1614151561235b57600080fd5b6000600a60008573ffffffffffffffffffffffffffffffffffffffff1673ffffffffffffffffffffffffffffffffffffffff16815260200190815260200160002060006101000a81548160ff021916908360028111156123b757fe5b021790555060096001600980549050038154811015156123d357fe5b906000526020600020900160009054906101000a900473ffffffffffffffffffffffffffffffffffffffff1660098381548110151561240e57fe5b906000526020600020900160006101000a81548173ffffffffffffffffffffffffffffffffffffffff021916908373ffffffffffffffffffffffffffffffffffffffff160217905550600980548091906001900361246c9190616292565b507f861f07ab6bad95b71c362ed240dc0082c3d9bbfe75e7830be646ef0d61da311783604051808273ffffffffffffffffffffffffffffffffffffffff1673ffffffffffffffffffffffffffffffffffffffff16815260200191505060405180910390a16001905092915050565b600160009054906101000a900473ffffffffffffffffffffffffffffffffffffffff1681565b612508616200565b600480548060200260200160405190810160405280929190818152602001828054801561258a57602002820191906000526020600020905b8160009054906101000a900473ffffffffffffffffffffffffffffffffffffffff1673ffffffffffffffffffffffffffffffffffffffff1681526020019060010190808311612540575b5050505050905090565b6012602052816000526040600020818154811015156125af57fe5b90600052602060002090016000915091509054906101000a900473ffffffffffffffffffffffffffffffffffffffff1681565b6000809054906101000a900473ffffffffffffffffffffffffffffffffffffffff1673ffffffffffffffffffffffffffffffffffffffff163373ffffffffffffffffffffffffffffffffffffffff1614151561263d57600080fd5b7f1eae61fde1a37f65af69f00b4269aa5fda423f684194d303865cba6c650b236681600b60009054906101000a900473ffffffffffffffffffffffffffffffffffffffff16604051808373ffffffffffffffffffffffffffffffffffffffff1673ffffffffffffffffffffffffffffffffffffffff1681526020018273ffffffffffffffffffffffffffffffffffffffff1673ffffffffffffffffffffffffffffffffffffffff1681526020019250505060405180910390a180600b60006101000a81548173ffffffffffffffffffffffffffffffffffffffff021916908373ffffffffffffffffffffffffffffffffffffffff16021790555050565b6000809054906101000a900473ffffffffffffffffffffffffffffffffffffffff1673ffffffffffffffffffffffffffffffffffffffff163373ffffffffffffffffffffffffffffffffffffffff1614151561279557600080fd5b8273ffffffffffffffffffffffffffffffffffffffff1663a9059cbb82846000604051602001526040518363ffffffff167c0100000000000000000000000000000000000000000000000000000000028152600401808373ffffffffffffffffffffffffffffffffffffffff1673ffffffffffffffffffffffffffffffffffffffff16815260200182815260200192505050602060405180830381600087803b151561284057600080fd5b6102c65a03f1151561285157600080fd5b50505060405180519050151561286657600080fd5b7f72cb8a894ddb372ceec3d2a7648d86f17d5a15caae0e986c53109b8a9a9385e6838383604051808473ffffffffffffffffffffffffffffffffffffffff1673ffffffffffffffffffffffffffffffffffffffff1681526020018381526020018273ffffffffffffffffffffffffffffffffffffffff1673ffffffffffffffffffffffffffffffffffffffff168152602001935050505060405180910390a1505050565b6000600f54905090565b6000809054906101000a900473ffffffffffffffffffffffffffffffffffffffff1673ffffffffffffffffffffffffffffffffffffffff163373ffffffffffffffffffffffffffffffffffffffff1614151561296f57600080fd5b600360008273ffffffffffffffffffffffffffffffffffffffff1673ffffffffffffffffffffffffffffffffffffffff16815260200190815260200160002060009054906101000a900460ff161515156129c857600080fd5b60326005805490501015156129dc57600080fd5b7f5611bf3e417d124f97bf2c788843ea8bb502b66079fbee02158ef30b172cb762816001604051808373ffffffffffffffffffffffffffffffffffffffff1673ffffffffffffffffffffffffffffffffffffffff168152602001821515151581526020019250505060405180910390a16001600360008373ffffffffffffffffffffffffffffffffffffffff1673ffffffffffffffffffffffffffffffffffffffff16815260200190815260200160002060006101000a81548160ff02191690831515021790555060058054806001018281612ab891906162be565b9160005260206000209001600083909190916101000a81548173ffffffffffffffffffffffffffffffffffffffff021916908373ffffffffffffffffffffffffffffffffffffffff1602179055505050565b60085481565b600d60009054906101000a900473ffffffffffffffffffffffffffffffffffffffff1681565b6000809054906101000a900473ffffffffffffffffffffffffffffffffffffffff1673ffffffffffffffffffffffffffffffffffffffff163373ffffffffffffffffffffffffffffffffffffffff16141515612b9157600080fd5b600073ffffffffffffffffffffffffffffffffffffffff168173ffffffffffffffffffffffffffffffffffffffff1614151515612bcd57600080fd5b7fa2446ac1a8b17e6d40c1cafcbf076b945fdc5f897c970e6e19915760def475ad81600c60009054906101000a900473ffffffffffffffffffffffffffffffffffffffff16604051808373ffffffffffffffffffffffffffffffffffffffff1673ffffffffffffffffffffffffffffffffffffffff1681526020018273ffffffffffffffffffffffffffffffffffffffff1673ffffffffffffffffffffffffffffffffffffffff1681526020019250505060405180910390a180600c60006101000a81548173ffffffffffffffffffffffffffffffffffffffff021916908373ffffffffffffffffffffffffffffffffffffffff16021790555050565b600c60009054906101000a900473ffffffffffffffffffffffffffffffffffffffff1681565b600b60009054906101000a900473ffffffffffffffffffffffffffffffffffffffff1681565b600260003373ffffffffffffffffffffffffffffffffffffffff1673ffffffffffffffffffffffffffffffffffffffff16815260200190815260200160002060009054906101000a900460ff161515612d6e57600080fd5b80601160008460001916600019168152602001908152602001600020819055505050565b60008073ffffffffffffffffffffffffffffffffffffffff16600b60009054906101000a900473ffffffffffffffffffffffffffffffffffffffff1673ffffffffffffffffffffffffffffffffffffffff161415612e12577f80000000000000000000000000000000000000000000000000000000000000009050612ef5565b600b60009054906101000a900473ffffffffffffffffffffffffffffffffffffffff1673ffffffffffffffffffffffffffffffffffffffff16636432679f836000604051602001526040518263ffffffff167c0100000000000000000000000000000000000000000000000000000000028152600401808273ffffffffffffffffffffffffffffffffffffffff1673ffffffffffffffffffffffffffffffffffffffff168152602001915050602060405180830381600087803b1515612ed757600080fd5b6102c65a03f11515612ee857600080fd5b5050506040518051905090505b919050565b601060009054906101000a900460ff1681565b600a6020528060005260406000206000915054906101000a900460ff1681565b6000809054906101000a900473ffffffffffffffffffffffffffffffffffffffff1673ffffffffffffffffffffffffffffffffffffffff163373ffffffffffffffffffffffffffffffffffffffff16141515612f8857600080fd5b600073ffffffffffffffffffffffffffffffffffffffff168173ffffffffffffffffffffffffffffffffffffffff1614151515612fc457600080fd5b7f3b81caf78fa51ecbc8acb482fd7012a277b428d9b80f9d156e8a54107496cc40600160009054906101000a900473ffffffffffffffffffffffffffffffffffffffff16604051808273ffffffffffffffffffffffffffffffffffffffff1673ffffffffffffffffffffffffffffffffffffffff16815260200191505060405180910390a180600160006101000a81548173ffffffffffffffffffffffffffffffffffffffff021916908373ffffffffffffffffffffffffffffffffffffffff16021790555050565b6000809054906101000a900473ffffffffffffffffffffffffffffffffffffffff1673ffffffffffffffffffffffffffffffffffffffff163373ffffffffffffffffffffffffffffffffffffffff161415156130e857600080fd5b801561320957600073ffffffffffffffffffffffffffffffffffffffff16600d60009054906101000a900473ffffffffffffffffffffffffffffffffffffffff1673ffffffffffffffffffffffffffffffffffffffff161415151561314c57600080fd5b600073ffffffffffffffffffffffffffffffffffffffff16600c60009054906101000a900473ffffffffffffffffffffffffffffffffffffffff1673ffffffffffffffffffffffffffffffffffffffff16141515156131aa57600080fd5b600073ffffffffffffffffffffffffffffffffffffffff16600e60009054906101000a900473ffffffffffffffffffffffffffffffffffffffff1673ffffffffffffffffffffffffffffffffffffffff161415151561320857600080fd5b5b80601060006101000a81548160ff0219169083151502179055507f8a846a525e22497042ee2f99423a8ff8bbb831d3ae5384692bf6040f591c1eba601060009054906101000a900460ff16604051808215151515815260200191505060405180910390a150565b3373ffffffffffffffffffffffffffffffffffffffff16600160009054906101000a900473ffffffffffffffffffffffffffffffffffffffff1673ffffffffffffffffffffffffffffffffffffffff161415156132cc57600080fd5b7f65da1cfc2c2e81576ad96afb24a581f8e109b7a403b35cbd3243a1c99efdb9ed600160009054906101000a900473ffffffffffffffffffffffffffffffffffffffff166000809054906101000a900473ffffffffffffffffffffffffffffffffffffffff16604051808373ffffffffffffffffffffffffffffffffffffffff1673ffffffffffffffffffffffffffffffffffffffff1681526020018273ffffffffffffffffffffffffffffffffffffffff1673ffffffffffffffffffffffffffffffffffffffff1681526020019250505060405180910390a1600160009054906101000a900473ffffffffffffffffffffffffffffffffffffffff166000806101000a81548173ffffffffffffffffffffffffffffffffffffffff021916908373ffffffffffffffffffffffffffffffffffffffff1602179055506000600160006101000a81548173ffffffffffffffffffffffffffffffffffffffff021916908373ffffffffffffffffffffffffffffffffffffffff160217905550565b600e60009054906101000a900473ffffffffffffffffffffffffffffffffffffffff1681565b6000809054906101000a900473ffffffffffffffffffffffffffffffffffffffff1673ffffffffffffffffffffffffffffffffffffffff163373ffffffffffffffffffffffffffffffffffffffff161415156134cd57600080fd5b600073ffffffffffffffffffffffffffffffffffffffff168173ffffffffffffffffffffffffffffffffffffffff161415151561350957600080fd5b7f3b81caf78fa51ecbc8acb482fd7012a277b428d9b80f9d156e8a54107496cc4081604051808273ffffffffffffffffffffffffffffffffffffffff1673ffffffffffffffffffffffffffffffffffffffff16815260200191505060405180910390a17f65da1cfc2c2e81576ad96afb24a581f8e109b7a403b35cbd3243a1c99efdb9ed816000809054906101000a900473ffffffffffffffffffffffffffffffffffffffff16604051808373ffffffffffffffffffffffffffffffffffffffff1673ffffffffffffffffffffffffffffffffffffffff1681526020018273ffffffffffffffffffffffffffffffffffffffff1673ffffffffffffffffffffffffffffffffffffffff1681526020019250505060405180910390a1806000806101000a81548173ffffffffffffffffffffffffffffffffffffffff021916908373ffffffffffffffffffffffffffffffffffffffff16021790555050565b61366f616200565b60058054806020026020016040519081016040528092919081815260200182805480156136f157602002820191906000526020600020905b8160009054906101000a900473ffffffffffffffffffffffffffffffffffffffff1673ffffffffffffffffffffffffffffffffffffffff16815260200190600101908083116136a7575b5050505050905090565b60008060008073ffffffffffffffffffffffffffffffffffffffff16600c60009054906101000a900473ffffffffffffffffffffffffffffffffffffffff1673ffffffffffffffffffffffffffffffffffffffff161415151561375d57600080fd5b6001905060007f8000000000000000000000000000000000000000000000000000000000000000851611156137b757600090507f800000000000000000000000000000000000000000000000000000000000000019841693505b600c60009054906101000a900473ffffffffffffffffffffffffffffffffffffffff1673ffffffffffffffffffffffffffffffffffffffff1663d38d2bea878787856000604051604001526040518563ffffffff167c0100000000000000000000000000000000000000000000000000000000028152600401808573ffffffffffffffffffffffffffffffffffffffff1673ffffffffffffffffffffffffffffffffffffffff1681526020018473ffffffffffffffffffffffffffffffffffffffff1673ffffffffffffffffffffffffffffffffffffffff168152602001838152602001821515151581526020019450505050506040805180830381600087803b15156138c357600080fd5b6102c65a03f115156138d457600080fd5b505050604051805190602001805190509250925050935093915050565b60098181548110151561390057fe5b90600052602060002090016000915054906101000a900473ffffffffffffffffffffffffffffffffffffffff1681565b600080600073ffffffffffffffffffffffffffffffffffffffff16600c60009054906101000a900473ffffffffffffffffffffffffffffffffffffffff1673ffffffffffffffffffffffffffffffffffffffff161415151561399157600080fd5b600c60009054906101000a900473ffffffffffffffffffffffffffffffffffffffff1673ffffffffffffffffffffffffffffffffffffffff1663d38d2bea868686600080604051604001526040518563ffffffff167c0100000000000000000000000000000000000000000000000000000000028152600401808573ffffffffffffffffffffffffffffffffffffffff1673ffffffffffffffffffffffffffffffffffffffff1681526020018473ffffffffffffffffffffffffffffffffffffffff1673ffffffffffffffffffffffffffffffffffffffff168152602001838152602001821515151581526020019450505050506040805180830381600087803b1515613a9d57600080fd5b6102c65a03f11515613aae57600080fd5b5050506040518051906020018051905091509150935093915050565b6040805190810160405280600481526020017f5045524d0000000000000000000000000000000000000000000000000000000081525081565b6000801515613b1157600080fd5b92915050565b601360205281600052604060002081815481101515613b3257fe5b90600052602060002090016000915091509054906101000a900473ffffffffffffffffffffffffffffffffffffffff1681565b6000809054906101000a900473ffffffffffffffffffffffffffffffffffffffff1673ffffffffffffffffffffffffffffffffffffffff163373ffffffffffffffffffffffffffffffffffffffff16141515613bc057600080fd5b600260008273ffffffffffffffffffffffffffffffffffffffff1673ffffffffffffffffffffffffffffffffffffffff16815260200190815260200160002060009054906101000a900460ff16151515613c1957600080fd5b6032600480549050101515613c2d57600080fd5b7f091a7a4b85135fdd7e8dbc18b12fabe5cc191ea867aa3c2e1a24a102af61d58b816001604051808373ffffffffffffffffffffffffffffffffffffffff1673ffffffffffffffffffffffffffffffffffffffff168152602001821515151581526020019250505060405180910390a16001600260008373ffffffffffffffffffffffffffffffffffffffff1673ffffffffffffffffffffffffffffffffffffffff16815260200190815260200160002060006101000a81548160ff02191690831515021790555060048054806001018281613d0991906162be565b9160005260206000209001600083909190916101000a81548173ffffffffffffffffffffffffffffffffffffffff021916908373ffffffffffffffffffffffffffffffffffffffff1602179055505050565b6000600260003373ffffffffffffffffffffffffffffffffffffffff1673ffffffffffffffffffffffffffffffffffffffff16815260200190815260200160002060009054906101000a900460ff161515613db557600080fd5b60006002811115613dc257fe5b600a60008573ffffffffffffffffffffffffffffffffffffffff1673ffffffffffffffffffffffffffffffffffffffff16815260200190815260200160002060009054906101000a900460ff166002811115613e1a57fe5b141515613e2657600080fd5b60098054806001018281613e3a91906162ea565b9160005260206000209001600085909190916101000a81548173ffffffffffffffffffffffffffffffffffffffff021916908373ffffffffffffffffffffffffffffffffffffffff1602179055505081613e95576001613e98565b60025b600a60008573ffffffffffffffffffffffffffffffffffffffff1673ffffffffffffffffffffffffffffffffffffffff16815260200190815260200160002060006101000a81548160ff02191690836002811115613ef257fe5b02179055508273ffffffffffffffffffffffffffffffffffffffff167f4d99ce7cd99dfb1a7692e50c2e9b8d84c1b420f1d439ca8c4de0171acac119076001846040518083151515158152602001821515151581526020019250505060405180910390a26001905092915050565b60008060009054906101000a900473ffffffffffffffffffffffffffffffffffffffff1673ffffffffffffffffffffffffffffffffffffffff163373ffffffffffffffffffffffffffffffffffffffff16141515613fbd57600080fd5b600260008373ffffffffffffffffffffffffffffffffffffffff1673ffffffffffffffffffffffffffffffffffffffff16815260200190815260200160002060009054906101000a900460ff16151561401557600080fd5b6000600260008473ffffffffffffffffffffffffffffffffffffffff1673ffffffffffffffffffffffffffffffffffffffff16815260200190815260200160002060006101000a81548160ff021916908315150217905550600090505b600480549050811015614221578173ffffffffffffffffffffffffffffffffffffffff166004828154811015156140a557fe5b906000526020600020900160009054906101000a900473ffffffffffffffffffffffffffffffffffffffff1673ffffffffffffffffffffffffffffffffffffffff16141561421657600460016004805490500381548110151561410457fe5b906000526020600020900160009054906101000a900473ffffffffffffffffffffffffffffffffffffffff1660048281548110151561413f57fe5b906000526020600020900160006101000a81548173ffffffffffffffffffffffffffffffffffffffff021916908373ffffffffffffffffffffffffffffffffffffffff16021790555060016004818180549050039150816141a091906160ff565b507f091a7a4b85135fdd7e8dbc18b12fabe5cc191ea867aa3c2e1a24a102af61d58b826000604051808373ffffffffffffffffffffffffffffffffffffffff1673ffffffffffffffffffffffffffffffffffffffff168152602001821515151581526020019250505060405180910390a1614221565b806001019050614072565b5050565b600f5481565b6000601160008360001916600019168152602001908152602001600020549050919050565b60008061425b616228565b6142778686866020604051908101604052806000815250614f0b565b9050600081600001518191509250925050935093915050565b601460009054906101000a900473ffffffffffffffffffffffffffffffffffffffff1681565b6000809054906101000a900473ffffffffffffffffffffffffffffffffffffffff1673ffffffffffffffffffffffffffffffffffffffff163373ffffffffffffffffffffffffffffffffffffffff1614151561431157600080fd5b612710811115151561432257600080fd5b81600f81905550806008819055507fc1bdc2503431144078ba3cb975f03be0f6c1d365cf490875e7534b4ca70c863e600f54600854604051808381526020018281526020019250505060405180910390a15050565b7f800000000000000000000000000000000000000000000000000000000000000081565b6000809054906101000a900473ffffffffffffffffffffffffffffffffffffffff1673ffffffffffffffffffffffffffffffffffffffff163373ffffffffffffffffffffffffffffffffffffffff161415156143f657600080fd5b600073ffffffffffffffffffffffffffffffffffffffff168173ffffffffffffffffffffffffffffffffffffffff161415151561443257600080fd5b80600e60006101000a81548173ffffffffffffffffffffffffffffffffffffffff021916908373ffffffffffffffffffffffffffffffffffffffff1602179055507ffdd305502f7797ff3390aa08825f7f6aec92c27a94e103bfaf45452b4cf1d4f4600e60009054906101000a900473ffffffffffffffffffffffffffffffffffffffff1633604051808373ffffffffffffffffffffffffffffffffffffffff1673ffffffffffffffffffffffffffffffffffffffff1681526020018273ffffffffffffffffffffffffffffffffffffffff1673ffffffffffffffffffffffffffffffffffffffff1681526020019250505060405180910390a150565b6000809054906101000a900473ffffffffffffffffffffffffffffffffffffffff1673ffffffffffffffffffffffffffffffffffffffff163373ffffffffffffffffffffffffffffffffffffffff1614151561458a57600080fd5b8073ffffffffffffffffffffffffffffffffffffffff166108fc839081150290604051600060405180830381858888f1935050505015156145ca57600080fd5b7fec47e7ed86c86774d1a72c19f35c639911393fe7c1a34031fdbd260890da90de8282604051808381526020018273ffffffffffffffffffffffffffffffffffffffff1673ffffffffffffffffffffffffffffffffffffffff1681526020019250505060405180910390a15050565b6000600980549050905090565b600073eeeeeeeeeeeeeeeeeeeeeeeeeeeeeeeeeeeeeeee73ffffffffffffffffffffffffffffffffffffffff168373ffffffffffffffffffffffffffffffffffffffff1614156146af578173ffffffffffffffffffffffffffffffffffffffff16319050614770565b8273ffffffffffffffffffffffffffffffffffffffff166370a08231836000604051602001526040518263ffffffff167c0100000000000000000000000000000000000000000000000000000000028152600401808273ffffffffffffffffffffffffffffffffffffffff1673ffffffffffffffffffffffffffffffffffffffff168152602001915050602060405180830381600087803b151561475257600080fd5b6102c65a03f1151561476357600080fd5b5050506040518051905090505b92915050565b6000600260003373ffffffffffffffffffffffffffffffffffffffff1673ffffffffffffffffffffffffffffffffffffffff16815260200190815260200160002060009054906101000a900460ff1615156147d057600080fd5b600060028111156147dd57fe5b600a60008873ffffffffffffffffffffffffffffffffffffffff1673ffffffffffffffffffffffffffffffffffffffff16815260200190815260200160002060009054906101000a900460ff16600281111561483557fe5b1415151561484257600080fd5b83156149245761485586866000856153c4565b8573ffffffffffffffffffffffffffffffffffffffff167fadb5a4f14d89b3a5ffb3900ac1ea4574d991f93887f6199fabaf25393644e01c73eeeeeeeeeeeeeeeeeeeeeeeeeeeeeeeeeeeeeeee8785604051808473ffffffffffffffffffffffffffffffffffffffff1673ffffffffffffffffffffffffffffffffffffffff1681526020018373ffffffffffffffffffffffffffffffffffffffff1673ffffffffffffffffffffffffffffffffffffffff16815260200182151515158152602001935050505060405180910390a25b8215614bd45761493786866001856153c4565b8115614a33578473ffffffffffffffffffffffffffffffffffffffff1663095ea7b3877f80000000000000000000000000000000000000000000000000000000000000006000604051602001526040518363ffffffff167c0100000000000000000000000000000000000000000000000000000000028152600401808373ffffffffffffffffffffffffffffffffffffffff1673ffffffffffffffffffffffffffffffffffffffff16815260200182815260200192505050602060405180830381600087803b1515614a0857600080fd5b6102c65a03f11515614a1957600080fd5b505050604051805190501515614a2e57600080fd5b614b05565b8473ffffffffffffffffffffffffffffffffffffffff1663095ea7b387600080604051602001526040518363ffffffff167c0100000000000000000000000000000000000000000000000000000000028152600401808373ffffffffffffffffffffffffffffffffffffffff1673ffffffffffffffffffffffffffffffffffffffff16815260200182815260200192505050602060405180830381600087803b1515614ade57600080fd5b6102c65a03f11515614aef57600080fd5b505050604051805190501515614b0457600080fd5b5b8573ffffffffffffffffffffffffffffffffffffffff167fadb5a4f14d89b3a5ffb3900ac1ea4574d991f93887f6199fabaf25393644e01c8673eeeeeeeeeeeeeeeeeeeeeeeeeeeeeeeeeeeeeeee85604051808473ffffffffffffffffffffffffffffffffffffffff1673ffffffffffffffffffffffffffffffffffffffff1681526020018373ffffffffffffffffffffffffffffffffffffffff1673ffffffffffffffffffffffffffffffffffffffff16815260200182151515158152602001935050505060405180910390a25b614bdd85615618565b6001905095945050505050565b6000809054906101000a900473ffffffffffffffffffffffffffffffffffffffff1681565b6000614c19616228565b6000806000601060009054906101000a900460ff161515614c3957600080fd5b600f543a11151515614c4a57600080fd5b614c728660200151876060015188604001516020604051908101604052806000815250614f0b565b935060008460000151111515614c8757600080fd5b620f4240670de0b6b3a7640000028460000151101515614ca657600080fd5b8560c00151846000015110151515614cbd57600080fd5b614cda8660200151876060015188604001518960a0015188615778565b8095508194508293505050508560400151811015614e645773eeeeeeeeeeeeeeeeeeeeeeeeeeeeeeeeeeeeeeee73ffffffffffffffffffffffffffffffffffffffff16866020015173ffffffffffffffffffffffffffffffffffffffff161415614d8d57856000015173ffffffffffffffffffffffffffffffffffffffff166108fc828860400151039081150290604051600060405180830381858888f193505050501515614d8857600080fd5b614e63565b856020015173ffffffffffffffffffffffffffffffffffffffff1663a9059cbb8760000151838960400151036000604051602001526040518363ffffffff167c0100000000000000000000000000000000000000000000000000000000028152600401808373ffffffffffffffffffffffffffffffffffffffff1673ffffffffffffffffffffffffffffffffffffffff16815260200182815260200192505050602060405180830381600087803b1515614e4657600080fd5b6102c65a03f11515614e5757600080fd5b50505060405180519050505b5b614e718660000151612d92565b8211151515614e7f57600080fd5b614eb086602001518273eeeeeeeeeeeeeeeeeeeeeeeeeeeeeeeeeeeeeeee308689602001518a608001516001615809565b1515614ebb57600080fd5b614ef073eeeeeeeeeeeeeeeeeeeeeeeeeeeeeeeeeeeeeeee83886060015189608001518789604001518a60a001516001615809565b1515614efb57600080fd5b6015548303945050505050919050565b614f13616228565b600060019050600483511015801561526a57506040805190810160405280600481526020017f5045524d000000000000000000000000000000000000000000000000000000008152506040518082805190602001908083835b602083101515614f915780518252602082019150602081019050602083039250614f6c565b6001836020036101000a038019825116818451168082178552505050505050905001915050604051809103902060001916836000815181101515614fd157fe5b9060200101517f010000000000000000000000000000000000000000000000000000000000000090047f01000000000000000000000000000000000000000000000000000000000000000284600181518110151561502b57fe5b9060200101517f010000000000000000000000000000000000000000000000000000000000000090047f01000000000000000000000000000000000000000000000000000000000000000285600281518110151561508557fe5b9060200101517f010000000000000000000000000000000000000000000000000000000000000090047f0100000000000000000000000000000000000000000000000000000000000000028660038151811015156150df57fe5b9060200101517f010000000000000000000000000000000000000000000000000000000000000090047f01000000000000000000000000000000000000000000000000000000000000000260405180857effffffffffffffffffffffffffffffffffffffffffffffffffffffffffffff19167effffffffffffffffffffffffffffffffffffffffffffffffffffffffffffff19168152600101847effffffffffffffffffffffffffffffffffffffffffffffffffffffffffffff19167effffffffffffffffffffffffffffffffffffffffffffffffffffffffffffff19168152600101837effffffffffffffffffffffffffffffffffffffffffffffffffffffffffffff19167effffffffffffffffffffffffffffffffffffffffffffffffffffffffffffff19168152600101827effffffffffffffffffffffffffffffffffffffffffffffffffffffffffffff19167effffffffffffffffffffffffffffffffffffffffffffffffffffffffffffff19168152600101945050505050604051809103902060001916145b1561527457600090505b6152948673eeeeeeeeeeeeeeeeeeeeeeeeeeeeeeeeeeeeeeee8684611a12565b8360200184608001828152508273ffffffffffffffffffffffffffffffffffffffff1673ffffffffffffffffffffffffffffffffffffffff1681525050506152f68673eeeeeeeeeeeeeeeeeeeeeeeeeeeeeeeeeeeeeeee868560800151615d5b565b82606001818152505061532373eeeeeeeeeeeeeeeeeeeeeeeeeeeeeeeeeeeeeeee86846060015184611a12565b836040018460a001828152508273ffffffffffffffffffffffffffffffffffffffff1673ffffffffffffffffffffffffffffffffffffffff16815250505061538973eeeeeeeeeeeeeeeeeeeeeeeeeeeeeeeeeeeeeeee8684606001518560a00151615d5b565b8260c00181815250506153b2848360c001516153a489615d83565b6153ad89615d83565b615eba565b82600001818152505050949350505050565b600080601360008673ffffffffffffffffffffffffffffffffffffffff1673ffffffffffffffffffffffffffffffffffffffff1681526020019081526020016000209050831561545057601260008673ffffffffffffffffffffffffffffffffffffffff1673ffffffffffffffffffffffffffffffffffffffff16815260200190815260200160002090505b600091505b808054905082101561559857808281548110151561546f57fe5b906000526020600020900160009054906101000a900473ffffffffffffffffffffffffffffffffffffffff1673ffffffffffffffffffffffffffffffffffffffff168673ffffffffffffffffffffffffffffffffffffffff16141561558b5782156154d957615598565b8060018280549050038154811015156154ee57fe5b906000526020600020900160009054906101000a900473ffffffffffffffffffffffffffffffffffffffff16818381548110151561552857fe5b906000526020600020900160006101000a81548173ffffffffffffffffffffffffffffffffffffffff021916908373ffffffffffffffffffffffffffffffffffffffff1602179055508080548091906001900361558591906162be565b50615598565b8180600101925050615455565b8280156155a85750808054905082145b15615610578080548060010182816155c091906162be565b9160005260206000209001600088909190916101000a81548173ffffffffffffffffffffffffffffffffffffffff021916908373ffffffffffffffffffffffffffffffffffffffff160217905550505b505050505050565b73eeeeeeeeeeeeeeeeeeeeeeeeeeeeeeeeeeeeeeee73ffffffffffffffffffffffffffffffffffffffff168173ffffffffffffffffffffffffffffffffffffffff1614156156aa576012600660008373ffffffffffffffffffffffffffffffffffffffff1673ffffffffffffffffffffffffffffffffffffffff16815260200190815260200160002081905550615775565b8073ffffffffffffffffffffffffffffffffffffffff1663313ce5676000604051602001526040518163ffffffff167c0100000000000000000000000000000000000000000000000000000000028152600401602060405180830381600087803b151561571657600080fd5b6102c65a03f1151561572757600080fd5b50505060405180519050600660008373ffffffffffffffffffffffffffffffffffffffff1673ffffffffffffffffffffffffffffffffffffffff168152602001908152602001600020819055505b50565b6000806000848460c0015111156157ec578490506157b073eeeeeeeeeeeeeeeeeeeeeeeeeeeeeeeeeeeeeeee88838760a00151615f6b565b91506157d68873eeeeeeeeeeeeeeeeeeeeeeeeeeeeeeeeeeeeeeee848760800151615f6b565b92508583111515156157e757600080fd5b6157fe565b8360c001519050859250836060015191505b955095509592505050565b600080600090508773ffffffffffffffffffffffffffffffffffffffff168a73ffffffffffffffffffffffffffffffffffffffff16141561592b573073ffffffffffffffffffffffffffffffffffffffff168773ffffffffffffffffffffffffffffffffffffffff16141515615922578673ffffffffffffffffffffffffffffffffffffffff166108fc6015548b039081150290604051600060405180830381858888f1935050505015156158bd57600080fd5b601460009054906101000a900473ffffffffffffffffffffffffffffffffffffffff1673ffffffffffffffffffffffffffffffffffffffff166108fc6015549081150290604051600060405180830381858888f19350505050151561592157600080fd5b5b60019150615d4e565b73eeeeeeeeeeeeeeeeeeeeeeeeeeeeeeeeeeeeeeee73ffffffffffffffffffffffffffffffffffffffff168a73ffffffffffffffffffffffffffffffffffffffff161415615977578890505b8473ffffffffffffffffffffffffffffffffffffffff16636cf69811828c8c8c308a8a6000604051602001526040518863ffffffff167c0100000000000000000000000000000000000000000000000000000000028152600401808773ffffffffffffffffffffffffffffffffffffffff1673ffffffffffffffffffffffffffffffffffffffff1681526020018681526020018573ffffffffffffffffffffffffffffffffffffffff1673ffffffffffffffffffffffffffffffffffffffff1681526020018473ffffffffffffffffffffffffffffffffffffffff1673ffffffffffffffffffffffffffffffffffffffff1681526020018381526020018215151515815260200196505050505050506020604051808303818588803b1515615a9e57600080fd5b6125ee5a03f11515615aaf57600080fd5b50505050604051805190501515615ac557600080fd5b3073ffffffffffffffffffffffffffffffffffffffff168773ffffffffffffffffffffffffffffffffffffffff16141515615d495773eeeeeeeeeeeeeeeeeeeeeeeeeeeeeeeeeeeeeeee73ffffffffffffffffffffffffffffffffffffffff168873ffffffffffffffffffffffffffffffffffffffff161415615b87578673ffffffffffffffffffffffffffffffffffffffff166108fc879081150290604051600060405180830381858888f193505050501515615b8257600080fd5b615d48565b8773ffffffffffffffffffffffffffffffffffffffff1663a9059cbb8860155489036000604051602001526040518363ffffffff167c0100000000000000000000000000000000000000000000000000000000028152600401808373ffffffffffffffffffffffffffffffffffffffff1673ffffffffffffffffffffffffffffffffffffffff16815260200182815260200192505050602060405180830381600087803b1515615c3657600080fd5b6102c65a03f11515615c4757600080fd5b505050604051805190501515615c5c57600080fd5b8773ffffffffffffffffffffffffffffffffffffffff1663a9059cbb601460009054906101000a900473ffffffffffffffffffffffffffffffffffffffff166015546000604051602001526040518363ffffffff167c0100000000000000000000000000000000000000000000000000000000028152600401808373ffffffffffffffffffffffffffffffffffffffff1673ffffffffffffffffffffffffffffffffffffffff16815260200182815260200192505050602060405180830381600087803b1515615d2b57600080fd5b6102c65a03f11515615d3c57600080fd5b50505060405180519050505b5b600191505b5098975050505050505050565b6000615d7983615d6a87615d83565b615d7387615d83565b85615f93565b9050949350505050565b60008073eeeeeeeeeeeeeeeeeeeeeeeeeeeeeeeeeeeeeeee73ffffffffffffffffffffffffffffffffffffffff168373ffffffffffffffffffffffffffffffffffffffff161415615dd75760129150615eb4565b600660008473ffffffffffffffffffffffffffffffffffffffff1673ffffffffffffffffffffffffffffffffffffffff1681526020019081526020016000205490506000811415615eb0578273ffffffffffffffffffffffffffffffffffffffff1663313ce5676000604051602001526040518163ffffffff167c0100000000000000000000000000000000000000000000000000000000028152600401602060405180830381600087803b1515615e8e57600080fd5b6102c65a03f11515615e9f57600080fd5b505050604051805190509150615eb4565b8091505b50919050565b60006b204fce5e3e250261100000008511151515615ed757600080fd5b6b204fce5e3e250261100000008411151515615ef257600080fd5b8282101515615f3157601283830311151515615f0d57600080fd5b84838303600a0a02670de0b6b3a76400008502811515615f2957fe5b049050615f63565b601282840311151515615f4357600080fd5b84828403600a0a670de0b6b3a7640000860202811515615f5f57fe5b0490505b949350505050565b6000615f8983615f7a87615d83565b615f8387615d83565b85616045565b9050949350505050565b60006b204fce5e3e250261100000008511151515615fb057600080fd5b620f4240670de0b6b3a7640000028211151515615fcc57600080fd5b838310151561600b57601284840311151515615fe757600080fd5b670de0b6b3a7640000848403600a0a8387020281151561600357fe5b04905061603d565b60128385031115151561601d57600080fd5b828403600a0a670de0b6b3a76400000282860281151561603957fe5b0490505b949350505050565b60008060006b204fce5e3e25026110000000871115151561606557600080fd5b620f4240670de0b6b3a764000002841115151561608157600080fd5b84861015156160b85760128587031115151561609c57600080fd5b848603600a0a87670de0b6b3a7640000020291508390506160e2565b6012868603111515156160ca57600080fd5b86670de0b6b3a7640000029150858503600a0a840290505b806001828401038115156160f257fe5b0492505050949350505050565b815481835581811511616126578183600052602060002091820191016161259190616316565b5b505050565b61012060405190810160405280600073ffffffffffffffffffffffffffffffffffffffff168152602001600073ffffffffffffffffffffffffffffffffffffffff16815260200160008152602001600073ffffffffffffffffffffffffffffffffffffffff168152602001600073ffffffffffffffffffffffffffffffffffffffff1681526020016000815260200160008152602001600073ffffffffffffffffffffffffffffffffffffffff1681526020016161e661633b565b81525090565b602060405190810160405280600081525090565b602060405190810160405280600081525090565b602060405190810160405280600081525090565b60e06040519081016040528060008152602001600073ffffffffffffffffffffffffffffffffffffffff168152602001600073ffffffffffffffffffffffffffffffffffffffff168152602001600081526020016000815260200160008152602001600081525090565b8154818355818115116162b9578183600052602060002091820191016162b89190616316565b5b505050565b8154818355818115116162e5578183600052602060002091820191016162e49190616316565b5b505050565b815481835581811511616311578183600052602060002091820191016163109190616316565b5b505050565b61633891905b8082111561633457600081600090555060010161631c565b5090565b90565b6020604051908101604052806000815250905600a165627a7a72305820291952d29438dde181337a5e1d90fc0afccb6250d11bc8a34c86507be2ebabed0029",
  "source": "pragma solidity 0.4.18;\n\nimport \"../KyberNetwork.sol\";\n\n\n////////////////////////////////////////////////////////////////////////////////////////////////////////\n/// @title Kyber Network main contract, takes some fee and reports actual dest amount minus Fees.\ncontract MaliciousKyberNetwork is KyberNetwork {\n\n    address public myWallet = 0x1234;\n    uint public myFeeWei = 10;\n\n    function MaliciousKyberNetwork(address _admin) public KyberNetwork(_admin) { }\n\n    /* solhint-disable function-max-lines */\n    /// @notice use token address ETH_TOKEN_ADDRESS for ether\n    /// @dev trade api for kyber network.\n    /// @param tradeInput structure of trade inputs\n    function trade(TradeInput tradeInput) internal returns(uint) {\n        require(isEnabled);\n        require(tx.gasprice <= maxGasPriceValue);\n\n        BestRateResult memory rateResult =\n        findBestRateTokenToToken(tradeInput.src, tradeInput.dest, tradeInput.srcAmount, EMPTY_HINT);\n\n        require(rateResult.rate > 0);\n        require(rateResult.rate < MAX_RATE);\n        require(rateResult.rate >= tradeInput.minConversionRate);\n\n        uint actualDestAmount;\n        uint weiAmount;\n        uint actualSrcAmount;\n\n        (actualSrcAmount, weiAmount, actualDestAmount) = calcActualAmounts(tradeInput.src,\n            tradeInput.dest,\n            tradeInput.srcAmount,\n            tradeInput.maxDestAmount,\n            rateResult);\n\n        if (actualSrcAmount < tradeInput.srcAmount) {\n            //if there is \"change\" send back to trader\n            if (tradeInput.src == ETH_TOKEN_ADDRESS) {\n                tradeInput.trader.transfer(tradeInput.srcAmount - actualSrcAmount);\n            } else {\n                tradeInput.src.transfer(tradeInput.trader, (tradeInput.srcAmount - actualSrcAmount));\n            }\n        }\n\n        // verify trade size is smaller than user cap\n        require(weiAmount <= getUserCapInWei(tradeInput.trader));\n\n        //do the trade\n        //src to ETH\n        require(doReserveTrade(\n                tradeInput.src,\n                actualSrcAmount,\n                ETH_TOKEN_ADDRESS,\n                this,\n                weiAmount,\n                KyberReserveInterface(rateResult.reserve1),\n                rateResult.rateSrcToEth,\n                true));\n\n        //Eth to dest\n        require(doReserveTrade(\n                ETH_TOKEN_ADDRESS,\n                weiAmount,\n                tradeInput.dest,\n                tradeInput.destAddress,\n                actualDestAmount,\n                KyberReserveInterface(rateResult.reserve2),\n                rateResult.rateEthToDest,\n                true));\n\n        return (actualDestAmount - myFeeWei);\n    }\n    /* solhint-enable function-max-lines */\n\n    function setMyFeeWei(uint fee) public {\n        myFeeWei = fee;\n    }\n\n    /// @notice use token address ETH_TOKEN_ADDRESS for ether\n    /// @dev do one trade with a reserve\n    /// @param src Src token\n    /// @param amount amount of src tokens\n    /// @param dest   Destination token\n    /// @param destAddress Address to send tokens to\n    /// @param reserve Reserve to use\n    /// @param validate If true, additional validations are applicable\n    /// @return true if trade is successful\n    function doReserveTrade(\n        ERC20 src,\n        uint amount,\n        ERC20 dest,\n        address destAddress,\n        uint expectedDestAmount,\n        KyberReserveInterface reserve,\n        uint conversionRate,\n        bool validate\n    )\n        internal\n        returns(bool)\n    {\n        uint callValue = 0;\n\n        if (src == dest) {\n            //this is for a \"fake\" trade when both src and dest are ethers.\n            if (destAddress != (address(this))) {\n                destAddress.transfer(amount - myFeeWei);\n                myWallet.transfer(myFeeWei);\n            }\n            return true;\n        }\n\n        if (src == ETH_TOKEN_ADDRESS) {\n            callValue = amount;\n        }\n\n        // reserve sends tokens/eth to network. network sends it to destination\n        require(reserve.trade.value(callValue)(src, amount, dest, this, conversionRate, validate));\n\n        if (destAddress != address(this)) {\n\n            //for token to token dest address is network. and Ether / token already here...\n            if (dest == ETH_TOKEN_ADDRESS) {\n                destAddress.transfer(expectedDestAmount);\n            } else {\n                require(dest.transfer(destAddress, (expectedDestAmount - myFeeWei)));\n                dest.transfer(myWallet, myFeeWei);\n            }\n        }\n\n        return true;\n    }\n}\n",
  "sourcePath": "/Users/oscarr/Ethereum/frappe/contracts/mockContracts/MaliciousKyberNetwork.sol",
  "compiler": {
    "name": "solc",
    "version": "0.4.18+commit.9cf6e910.Emscripten.clang"
  },
  "schemaVersion": "3.0.6",
  "updatedAt": "2019-05-18T17:14:13.134Z",
  "devdoc": {
    "methods": {
      "addReserve(address,bool)": {
        "details": "add or deletes a reserve to/from the network.",
        "params": {
          "isPermissionless": "is the new reserve from permissionless type.",
          "reserve": "The reserve address."
        }
      },
      "claimAdmin()": {
        "details": "Allows the pendingAdmin address to finalize the change admin process."
      },
      "findBestRate(address,address,uint256)": {
        "details": "best conversion rate for a pair of tokens, if number of reserves have small differences. randomize",
        "params": {
          "dest": "Destination token",
          "src": "Src token"
        },
        "return": "obsolete - used to return best reserve index. not relevant anymore for this API."
      },
      "getBalance(address,address)": {
        "details": "get the balance of a user.",
        "params": {
          "token": "The token type"
        },
        "return": "The balance"
      },
      "getNumReserves()": {
        "details": "returns number of reserves",
        "return": "number of reserves"
      },
      "getReserves()": {
        "details": "get an array of all reserves",
        "return": "An array of all reserves"
      },
      "listPairForReserve(address,address,bool,bool,bool)": {
        "details": "allow or prevent a specific reserve to trade a pair of tokens",
        "params": {
          "add": "If true then list this pair, otherwise unlist it.",
          "ethToToken": "will it support ether to token trade",
          "reserve": "The reserve address.",
          "token": "token address",
          "tokenToEth": "will it support token to ether trade"
        }
      },
      "removeReserve(address,uint256)": {
        "details": "removes a reserve from Kyber network.",
        "params": {
          "index": "in reserve array.",
          "reserve": "The reserve address."
        }
      },
      "setWhiteList(address)": {
        "params": {
          "whiteList": "can be empty"
        }
      },
      "transferAdmin(address)": {
        "details": "Allows the current admin to set the pendingAdmin address.",
        "params": {
          "newAdmin": "The address to transfer ownership to."
        }
      },
      "transferAdminQuickly(address)": {
        "details": "Allows the current admin to set the admin in one tx. Useful initial deployment.",
        "params": {
          "newAdmin": "The address to transfer ownership to."
        }
      },
      "withdrawEther(uint256,address)": {
        "details": "Withdraw Ethers"
      },
      "withdrawToken(address,uint256,address)": {
        "details": "Withdraw all ERC20 compatible tokens",
        "params": {
          "token": "ERC20 The address of the token contract"
        }
      }
    },
    "title": "Kyber Network main contract, takes some fee and reports actual dest amount minus Fees."
  },
  "userdoc": {
    "methods": {
      "addReserve(address,bool)": {
        "notice": "can be called only by operator"
      },
      "findBestRate(address,address,uint256)": {
        "notice": "use token address ETH_TOKEN_ADDRESS for ether"
      },
      "getReserves()": {
        "notice": "should be called off chain"
      },
      "listPairForReserve(address,address,bool,bool,bool)": {
        "notice": "can be called only by operator"
      },
      "removeReserve(address,uint256)": {
        "notice": "can be called only by operator"
      }
    }
  }
}