{
  "contractName": "MockDepositAddressEther",
  "abi": [
    {
      "constant": true,
      "inputs": [],
      "name": "bank",
      "outputs": [
        {
          "name": "",
          "type": "address"
        }
      ],
      "payable": false,
      "stateMutability": "view",
      "type": "function"
    },
    {
      "constant": true,
      "inputs": [],
      "name": "owner",
      "outputs": [
        {
          "name": "",
          "type": "address"
        }
      ],
      "payable": false,
      "stateMutability": "view",
      "type": "function"
    },
    {
      "inputs": [
        {
          "name": "_bank",
          "type": "address"
        },
        {
          "name": "_owner",
          "type": "address"
        }
      ],
      "payable": false,
      "stateMutability": "nonpayable",
      "type": "constructor"
    },
    {
      "payable": true,
      "stateMutability": "payable",
      "type": "fallback"
    },
    {
      "anonymous": false,
      "inputs": [
        {
          "indexed": false,
          "name": "amount",
          "type": "uint256"
        },
        {
          "indexed": false,
          "name": "destianation",
          "type": "address"
        }
      ],
      "name": "Withdraw",
      "type": "event"
    },
    {
      "constant": false,
      "inputs": [
        {
          "name": "etherAmount",
          "type": "uint256"
        },
        {
          "name": "destination",
          "type": "address"
        }
      ],
      "name": "withdraw",
      "outputs": [],
      "payable": false,
      "stateMutability": "nonpayable",
      "type": "function"
    },
    {
      "constant": false,
      "inputs": [
        {
          "name": "amount",
          "type": "uint256"
        }
      ],
      "name": "clearBalance",
      "outputs": [],
      "payable": false,
      "stateMutability": "nonpayable",
      "type": "function"
    },
    {
      "constant": true,
      "inputs": [],
      "name": "getBalance",
      "outputs": [
        {
          "name": "",
          "type": "uint256"
        }
      ],
      "payable": false,
      "stateMutability": "view",
      "type": "function"
    }
  ],
  "bytecode": "0x6060604052341561000f57600080fd5b60405160408061052a83398101604052808051906020019091908051906020019091905050818180600160006101000a81548173ffffffffffffffffffffffffffffffffffffffff021916908373ffffffffffffffffffffffffffffffffffffffff160217905550816000806101000a81548173ffffffffffffffffffffffffffffffffffffffff021916908373ffffffffffffffffffffffffffffffffffffffff16021790555050505050610460806100ca6000396000f30060606040526004361061006c576000357c0100000000000000000000000000000000000000000000000000000000900463ffffffff168062f714ce1461006e57806312065fe0146100b057806376cdb03b146100d957806384d9a4e61461012e5780638da5cb5b14610151575b005b341561007957600080fd5b6100ae600480803590602001909190803573ffffffffffffffffffffffffffffffffffffffff169060200190919050506101a6565b005b34156100bb57600080fd5b6100c36102e9565b6040518082815260200191505060405180910390f35b34156100e457600080fd5b6100ec610308565b604051808273ffffffffffffffffffffffffffffffffffffffff1673ffffffffffffffffffffffffffffffffffffffff16815260200191505060405180910390f35b341561013957600080fd5b61014f600480803590602001909190505061032d565b005b341561015c57600080fd5b61016461040e565b604051808273ffffffffffffffffffffffffffffffffffffffff1673ffffffffffffffffffffffffffffffffffffffff16815260200191505060405180910390f35b600160009054906101000a900473ffffffffffffffffffffffffffffffffffffffff1673ffffffffffffffffffffffffffffffffffffffff163373ffffffffffffffffffffffffffffffffffffffff1614151561020257600080fd5b6000809054906101000a900473ffffffffffffffffffffffffffffffffffffffff1673ffffffffffffffffffffffffffffffffffffffff16633bed33ce836040518263ffffffff167c010000000000000000000000000000000000000000000000000000000002815260040180828152602001915050600060405180830381600087803b151561029157600080fd5b6102c65a03f115156102a257600080fd5b5050508073ffffffffffffffffffffffffffffffffffffffff166108fc839081150290604051600060405180830381858888f1935050505015156102e557600080fd5b5050565b60003073ffffffffffffffffffffffffffffffffffffffff1631905090565b6000809054906101000a900473ffffffffffffffffffffffffffffffffffffffff1681565b600160009054906101000a900473ffffffffffffffffffffffffffffffffffffffff1673ffffffffffffffffffffffffffffffffffffffff163373ffffffffffffffffffffffffffffffffffffffff1614151561038957600080fd5b803073ffffffffffffffffffffffffffffffffffffffff163110151561040b576000809054906101000a900473ffffffffffffffffffffffffffffffffffffffff1673ffffffffffffffffffffffffffffffffffffffff166108fc829081150290604051600060405180830381858888f19350505050151561040a57600080fd5b5b50565b600160009054906101000a900473ffffffffffffffffffffffffffffffffffffffff16815600a165627a7a72305820824d62b916f5c62e85db3bced86083bf90bb0801d741d4f5264742480bdb95ef0029",
  "source": "pragma solidity ^0.4.18;\n\nimport \"./MockCentralBank.sol\";\nimport \"./MockDepositAddress.sol\";\n\n/// @title Mock Deposit Address for Ethers\n/// @author Ilan Doron\n/// @dev a dummy contract that simulates a deposit address of a token on a specific exchange.\n///         allows reserve manager to deposit and withdraw\ncontract MockDepositAddressEther is MockDepositAddress{\n\n    function MockDepositAddressEther(MockCentralBank _bank, address _owner)\n        MockDepositAddress(_bank, _owner)\n        public\n    {}\n\n    function () public payable {}\n\n    function withdraw(uint etherAmount, address destination) public onlyOwner {\n        bank.withdrawEther(etherAmount);\n        destination.transfer(etherAmount);\n    }\n\n    function clearBalance( uint amount ) public onlyOwner {\n        if (this.balance >= amount) {\n            bank.transfer(amount);\n        }\n    }\n\n    function getBalance() public view returns (uint) {\n        return this.balance;\n    }\n}",
  "sourcePath": "/Users/oscarr/Ethereum/frappe/contracts/mockContracts/MockDepositAddressEther.sol",
  "compiler": {
    "name": "solc",
    "version": "0.4.18+commit.9cf6e910.Emscripten.clang"
  },
  "schemaVersion": "3.0.6",
  "updatedAt": "2019-05-18T17:14:13.195Z",
  "devdoc": {
    "author": "Ilan Doron",
    "methods": {},
    "title": "Mock Deposit Address for Ethers"
  },
  "userdoc": {
    "methods": {}
  }
}