{
  "contractName": "MockPermission",
  "abi": [
    {
      "constant": false,
      "inputs": [
        {
          "name": "alerter",
          "type": "address"
        }
      ],
      "name": "removeAlerter",
      "outputs": [],
      "payable": false,
      "stateMutability": "nonpayable",
      "type": "function"
    },
    {
      "constant": true,
      "inputs": [],
      "name": "pendingAdmin",
      "outputs": [
        {
          "name": "",
          "type": "address"
        }
      ],
      "payable": false,
      "stateMutability": "view",
      "type": "function"
    },
    {
      "constant": true,
      "inputs": [],
      "name": "getOperators",
      "outputs": [
        {
          "name": "",
          "type": "address[]"
        }
      ],
      "payable": false,
      "stateMutability": "view",
      "type": "function"
    },
    {
      "constant": true,
      "inputs": [],
      "name": "rate",
      "outputs": [
        {
          "name": "",
          "type": "uint256"
        }
      ],
      "payable": false,
      "stateMutability": "view",
      "type": "function"
    },
    {
      "constant": false,
      "inputs": [
        {
          "name": "newAlerter",
          "type": "address"
        }
      ],
      "name": "addAlerter",
      "outputs": [],
      "payable": false,
      "stateMutability": "nonpayable",
      "type": "function"
    },
    {
      "constant": true,
      "inputs": [],
      "name": "tradeActive",
      "outputs": [
        {
          "name": "",
          "type": "bool"
        }
      ],
      "payable": false,
      "stateMutability": "view",
      "type": "function"
    },
    {
      "constant": false,
      "inputs": [
        {
          "name": "newAdmin",
          "type": "address"
        }
      ],
      "name": "transferAdmin",
      "outputs": [],
      "payable": false,
      "stateMutability": "nonpayable",
      "type": "function"
    },
    {
      "constant": false,
      "inputs": [],
      "name": "claimAdmin",
      "outputs": [],
      "payable": false,
      "stateMutability": "nonpayable",
      "type": "function"
    },
    {
      "constant": false,
      "inputs": [
        {
          "name": "newAdmin",
          "type": "address"
        }
      ],
      "name": "transferAdminQuickly",
      "outputs": [],
      "payable": false,
      "stateMutability": "nonpayable",
      "type": "function"
    },
    {
      "constant": true,
      "inputs": [],
      "name": "getAlerters",
      "outputs": [
        {
          "name": "",
          "type": "address[]"
        }
      ],
      "payable": false,
      "stateMutability": "view",
      "type": "function"
    },
    {
      "constant": false,
      "inputs": [
        {
          "name": "newOperator",
          "type": "address"
        }
      ],
      "name": "addOperator",
      "outputs": [],
      "payable": false,
      "stateMutability": "nonpayable",
      "type": "function"
    },
    {
      "constant": false,
      "inputs": [
        {
          "name": "operator",
          "type": "address"
        }
      ],
      "name": "removeOperator",
      "outputs": [],
      "payable": false,
      "stateMutability": "nonpayable",
      "type": "function"
    },
    {
      "constant": true,
      "inputs": [],
      "name": "admin",
      "outputs": [
        {
          "name": "",
          "type": "address"
        }
      ],
      "payable": false,
      "stateMutability": "view",
      "type": "function"
    },
    {
      "inputs": [],
      "payable": false,
      "stateMutability": "nonpayable",
      "type": "constructor"
    },
    {
      "anonymous": false,
      "inputs": [
        {
          "indexed": false,
          "name": "pendingAdmin",
          "type": "address"
        }
      ],
      "name": "TransferAdminPending",
      "type": "event"
    },
    {
      "anonymous": false,
      "inputs": [
        {
          "indexed": false,
          "name": "newAdmin",
          "type": "address"
        },
        {
          "indexed": false,
          "name": "previousAdmin",
          "type": "address"
        }
      ],
      "name": "AdminClaimed",
      "type": "event"
    },
    {
      "anonymous": false,
      "inputs": [
        {
          "indexed": false,
          "name": "newAlerter",
          "type": "address"
        },
        {
          "indexed": false,
          "name": "isAdd",
          "type": "bool"
        }
      ],
      "name": "AlerterAdded",
      "type": "event"
    },
    {
      "anonymous": false,
      "inputs": [
        {
          "indexed": false,
          "name": "newOperator",
          "type": "address"
        },
        {
          "indexed": false,
          "name": "isAdd",
          "type": "bool"
        }
      ],
      "name": "OperatorAdded",
      "type": "event"
    },
    {
      "constant": false,
      "inputs": [
        {
          "name": "newRate",
          "type": "uint256"
        }
      ],
      "name": "setRate",
      "outputs": [],
      "payable": false,
      "stateMutability": "nonpayable",
      "type": "function"
    },
    {
      "constant": false,
      "inputs": [],
      "name": "stopTrade",
      "outputs": [],
      "payable": false,
      "stateMutability": "nonpayable",
      "type": "function"
    },
    {
      "constant": false,
      "inputs": [],
      "name": "activateTrade",
      "outputs": [],
      "payable": false,
      "stateMutability": "nonpayable",
      "type": "function"
    }
  ],
  "bytecode": "0x60606040526001600760006101000a81548160ff021916908315150217905550341561002a57600080fd5b336000806101000a81548173ffffffffffffffffffffffffffffffffffffffff021916908373ffffffffffffffffffffffffffffffffffffffff1602179055506116b0806100796000396000f3006060604052600436106100e6576000357c0100000000000000000000000000000000000000000000000000000000900463ffffffff16806301a12fd3146100eb578063267822471461012457806327a099d8146101795780632c4e722e146101e357806334fcf4371461020c578063408ee7fe1461022f5780635882128d1461026857806375829def1461029557806377f50f97146102ce5780637acc8678146102e35780637c423f541461031c5780638baeefce146103865780639870d7fe1461039b578063ac8a584a146103d4578063ca7700921461040d578063f851a44014610422575b600080fd5b34156100f657600080fd5b610122600480803573ffffffffffffffffffffffffffffffffffffffff16906020019091905050610477565b005b341561012f57600080fd5b610137610739565b604051808273ffffffffffffffffffffffffffffffffffffffff1673ffffffffffffffffffffffffffffffffffffffff16815260200191505060405180910390f35b341561018457600080fd5b61018c61075f565b6040518080602001828103825283818151815260200191508051906020019060200280838360005b838110156101cf5780820151818401526020810190506101b4565b505050509050019250505060405180910390f35b34156101ee57600080fd5b6101f66107f3565b6040518082815260200191505060405180910390f35b341561021757600080fd5b61022d60048080359060200190919050506107f9565b005b341561023a57600080fd5b610266600480803573ffffffffffffffffffffffffffffffffffffffff1690602001909190505061085b565b005b341561027357600080fd5b61027b610a51565b604051808215151515815260200191505060405180910390f35b34156102a057600080fd5b6102cc600480803573ffffffffffffffffffffffffffffffffffffffff16906020019091905050610a64565b005b34156102d957600080fd5b6102e1610bc4565b005b34156102ee57600080fd5b61031a600480803573ffffffffffffffffffffffffffffffffffffffff16906020019091905050610da0565b005b341561032757600080fd5b61032f610f95565b6040518080602001828103825283818151815260200191508051906020019060200280838360005b83811015610372578082015181840152602081019050610357565b505050509050019250505060405180910390f35b341561039157600080fd5b610399611029565b005b34156103a657600080fd5b6103d2600480803573ffffffffffffffffffffffffffffffffffffffff1690602001909190505061109e565b005b34156103df57600080fd5b61040b600480803573ffffffffffffffffffffffffffffffffffffffff16906020019091905050611294565b005b341561041857600080fd5b610420611559565b005b341561042d57600080fd5b6104356115ce565b604051808273ffffffffffffffffffffffffffffffffffffffff1673ffffffffffffffffffffffffffffffffffffffff16815260200191505060405180910390f35b60008060009054906101000a900473ffffffffffffffffffffffffffffffffffffffff1673ffffffffffffffffffffffffffffffffffffffff163373ffffffffffffffffffffffffffffffffffffffff161415156104d457600080fd5b600360008373ffffffffffffffffffffffffffffffffffffffff1673ffffffffffffffffffffffffffffffffffffffff16815260200190815260200160002060009054906101000a900460ff16151561052c57600080fd5b6000600360008473ffffffffffffffffffffffffffffffffffffffff1673ffffffffffffffffffffffffffffffffffffffff16815260200190815260200160002060006101000a81548160ff021916908315150217905550600090505b600580549050811015610735578173ffffffffffffffffffffffffffffffffffffffff166005828154811015156105bc57fe5b906000526020600020900160009054906101000a900473ffffffffffffffffffffffffffffffffffffffff1673ffffffffffffffffffffffffffffffffffffffff16141561072a57600560016005805490500381548110151561061b57fe5b906000526020600020900160009054906101000a900473ffffffffffffffffffffffffffffffffffffffff1660058281548110151561065657fe5b906000526020600020900160006101000a81548173ffffffffffffffffffffffffffffffffffffffff021916908373ffffffffffffffffffffffffffffffffffffffff16021790555060058054809190600190036106b491906115f3565b507f5611bf3e417d124f97bf2c788843ea8bb502b66079fbee02158ef30b172cb762826000604051808373ffffffffffffffffffffffffffffffffffffffff1673ffffffffffffffffffffffffffffffffffffffff168152602001821515151581526020019250505060405180910390a1610735565b806001019050610589565b5050565b600160009054906101000a900473ffffffffffffffffffffffffffffffffffffffff1681565b61076761161f565b60048054806020026020016040519081016040528092919081815260200182805480156107e957602002820191906000526020600020905b8160009054906101000a900473ffffffffffffffffffffffffffffffffffffffff1673ffffffffffffffffffffffffffffffffffffffff168152602001906001019080831161079f575b5050505050905090565b60065481565b600260003373ffffffffffffffffffffffffffffffffffffffff1673ffffffffffffffffffffffffffffffffffffffff16815260200190815260200160002060009054906101000a900460ff16151561085157600080fd5b8060068190555050565b6000809054906101000a900473ffffffffffffffffffffffffffffffffffffffff1673ffffffffffffffffffffffffffffffffffffffff163373ffffffffffffffffffffffffffffffffffffffff161415156108b657600080fd5b600360008273ffffffffffffffffffffffffffffffffffffffff1673ffffffffffffffffffffffffffffffffffffffff16815260200190815260200160002060009054906101000a900460ff1615151561090f57600080fd5b603260058054905010151561092357600080fd5b7f5611bf3e417d124f97bf2c788843ea8bb502b66079fbee02158ef30b172cb762816001604051808373ffffffffffffffffffffffffffffffffffffffff1673ffffffffffffffffffffffffffffffffffffffff168152602001821515151581526020019250505060405180910390a16001600360008373ffffffffffffffffffffffffffffffffffffffff1673ffffffffffffffffffffffffffffffffffffffff16815260200190815260200160002060006101000a81548160ff021916908315150217905550600580548060010182816109ff9190611633565b9160005260206000209001600083909190916101000a81548173ffffffffffffffffffffffffffffffffffffffff021916908373ffffffffffffffffffffffffffffffffffffffff1602179055505050565b600760009054906101000a900460ff1681565b6000809054906101000a900473ffffffffffffffffffffffffffffffffffffffff1673ffffffffffffffffffffffffffffffffffffffff163373ffffffffffffffffffffffffffffffffffffffff16141515610abf57600080fd5b600073ffffffffffffffffffffffffffffffffffffffff168173ffffffffffffffffffffffffffffffffffffffff1614151515610afb57600080fd5b7f3b81caf78fa51ecbc8acb482fd7012a277b428d9b80f9d156e8a54107496cc40600160009054906101000a900473ffffffffffffffffffffffffffffffffffffffff16604051808273ffffffffffffffffffffffffffffffffffffffff1673ffffffffffffffffffffffffffffffffffffffff16815260200191505060405180910390a180600160006101000a81548173ffffffffffffffffffffffffffffffffffffffff021916908373ffffffffffffffffffffffffffffffffffffffff16021790555050565b3373ffffffffffffffffffffffffffffffffffffffff16600160009054906101000a900473ffffffffffffffffffffffffffffffffffffffff1673ffffffffffffffffffffffffffffffffffffffff16141515610c2057600080fd5b7f65da1cfc2c2e81576ad96afb24a581f8e109b7a403b35cbd3243a1c99efdb9ed600160009054906101000a900473ffffffffffffffffffffffffffffffffffffffff166000809054906101000a900473ffffffffffffffffffffffffffffffffffffffff16604051808373ffffffffffffffffffffffffffffffffffffffff1673ffffffffffffffffffffffffffffffffffffffff1681526020018273ffffffffffffffffffffffffffffffffffffffff1673ffffffffffffffffffffffffffffffffffffffff1681526020019250505060405180910390a1600160009054906101000a900473ffffffffffffffffffffffffffffffffffffffff166000806101000a81548173ffffffffffffffffffffffffffffffffffffffff021916908373ffffffffffffffffffffffffffffffffffffffff1602179055506000600160006101000a81548173ffffffffffffffffffffffffffffffffffffffff021916908373ffffffffffffffffffffffffffffffffffffffff160217905550565b6000809054906101000a900473ffffffffffffffffffffffffffffffffffffffff1673ffffffffffffffffffffffffffffffffffffffff163373ffffffffffffffffffffffffffffffffffffffff16141515610dfb57600080fd5b600073ffffffffffffffffffffffffffffffffffffffff168173ffffffffffffffffffffffffffffffffffffffff1614151515610e3757600080fd5b7f3b81caf78fa51ecbc8acb482fd7012a277b428d9b80f9d156e8a54107496cc4081604051808273ffffffffffffffffffffffffffffffffffffffff1673ffffffffffffffffffffffffffffffffffffffff16815260200191505060405180910390a17f65da1cfc2c2e81576ad96afb24a581f8e109b7a403b35cbd3243a1c99efdb9ed816000809054906101000a900473ffffffffffffffffffffffffffffffffffffffff16604051808373ffffffffffffffffffffffffffffffffffffffff1673ffffffffffffffffffffffffffffffffffffffff1681526020018273ffffffffffffffffffffffffffffffffffffffff1673ffffffffffffffffffffffffffffffffffffffff1681526020019250505060405180910390a1806000806101000a81548173ffffffffffffffffffffffffffffffffffffffff021916908373ffffffffffffffffffffffffffffffffffffffff16021790555050565b610f9d61161f565b600580548060200260200160405190810160405280929190818152602001828054801561101f57602002820191906000526020600020905b8160009054906101000a900473ffffffffffffffffffffffffffffffffffffffff1673ffffffffffffffffffffffffffffffffffffffff1681526020019060010190808311610fd5575b5050505050905090565b600360003373ffffffffffffffffffffffffffffffffffffffff1673ffffffffffffffffffffffffffffffffffffffff16815260200190815260200160002060009054906101000a900460ff16151561108157600080fd5b6000600760006101000a81548160ff021916908315150217905550565b6000809054906101000a900473ffffffffffffffffffffffffffffffffffffffff1673ffffffffffffffffffffffffffffffffffffffff163373ffffffffffffffffffffffffffffffffffffffff161415156110f957600080fd5b600260008273ffffffffffffffffffffffffffffffffffffffff1673ffffffffffffffffffffffffffffffffffffffff16815260200190815260200160002060009054906101000a900460ff1615151561115257600080fd5b603260048054905010151561116657600080fd5b7f091a7a4b85135fdd7e8dbc18b12fabe5cc191ea867aa3c2e1a24a102af61d58b816001604051808373ffffffffffffffffffffffffffffffffffffffff1673ffffffffffffffffffffffffffffffffffffffff168152602001821515151581526020019250505060405180910390a16001600260008373ffffffffffffffffffffffffffffffffffffffff1673ffffffffffffffffffffffffffffffffffffffff16815260200190815260200160002060006101000a81548160ff021916908315150217905550600480548060010182816112429190611633565b9160005260206000209001600083909190916101000a81548173ffffffffffffffffffffffffffffffffffffffff021916908373ffffffffffffffffffffffffffffffffffffffff1602179055505050565b60008060009054906101000a900473ffffffffffffffffffffffffffffffffffffffff1673ffffffffffffffffffffffffffffffffffffffff163373ffffffffffffffffffffffffffffffffffffffff161415156112f157600080fd5b600260008373ffffffffffffffffffffffffffffffffffffffff1673ffffffffffffffffffffffffffffffffffffffff16815260200190815260200160002060009054906101000a900460ff16151561134957600080fd5b6000600260008473ffffffffffffffffffffffffffffffffffffffff1673ffffffffffffffffffffffffffffffffffffffff16815260200190815260200160002060006101000a81548160ff021916908315150217905550600090505b600480549050811015611555578173ffffffffffffffffffffffffffffffffffffffff166004828154811015156113d957fe5b906000526020600020900160009054906101000a900473ffffffffffffffffffffffffffffffffffffffff1673ffffffffffffffffffffffffffffffffffffffff16141561154a57600460016004805490500381548110151561143857fe5b906000526020600020900160009054906101000a900473ffffffffffffffffffffffffffffffffffffffff1660048281548110151561147357fe5b906000526020600020900160006101000a81548173ffffffffffffffffffffffffffffffffffffffff021916908373ffffffffffffffffffffffffffffffffffffffff16021790555060016004818180549050039150816114d491906115f3565b507f091a7a4b85135fdd7e8dbc18b12fabe5cc191ea867aa3c2e1a24a102af61d58b826000604051808373ffffffffffffffffffffffffffffffffffffffff1673ffffffffffffffffffffffffffffffffffffffff168152602001821515151581526020019250505060405180910390a1611555565b8060010190506113a6565b5050565b600260003373ffffffffffffffffffffffffffffffffffffffff1673ffffffffffffffffffffffffffffffffffffffff16815260200190815260200160002060009054906101000a900460ff1615156115b157600080fd5b6001600760006101000a81548160ff021916908315150217905550565b6000809054906101000a900473ffffffffffffffffffffffffffffffffffffffff1681565b81548183558181151161161a57818360005260206000209182019101611619919061165f565b5b505050565b602060405190810160405280600081525090565b81548183558181151161165a57818360005260206000209182019101611659919061165f565b5b505050565b61168191905b8082111561167d576000816000905550600101611665565b5090565b905600a165627a7a72305820e4f5f800780c3b40c3db42f3f742de7cf3d7b12bfb1e1ac62a87dbb61c7a52d40029",
  "source": "pragma solidity ^0.4.18;\n\nimport \"../PermissionGroups.sol\";\n\n\ncontract MockPermission is PermissionGroups {\n    uint public rate;\n    bool public tradeActive = true;\n\n    function MockPermission () public\n        PermissionGroups()\n    {\n    }\n\n    function setRate ( uint newRate ) public\n        onlyOperator\n    {\n        rate = newRate;\n    }\n\n    function stopTrade () public\n        onlyAlerter\n    {\n        tradeActive = false;\n    }\n\n    function activateTrade () public\n        onlyOperator\n    {\n        tradeActive = true;\n    }\n}\n",
  "sourcePath": "/Users/oscarr/Ethereum/frappe/contracts/mockContracts/MockPermission.sol",
  "compiler": {
    "name": "solc",
    "version": "0.4.18+commit.9cf6e910.Emscripten.clang"
  },
  "schemaVersion": "3.0.6",
  "updatedAt": "2019-05-18T17:14:13.254Z",
  "devdoc": {
    "methods": {
      "claimAdmin()": {
        "details": "Allows the pendingAdmin address to finalize the change admin process."
      },
      "transferAdmin(address)": {
        "details": "Allows the current admin to set the pendingAdmin address.",
        "params": {
          "newAdmin": "The address to transfer ownership to."
        }
      },
      "transferAdminQuickly(address)": {
        "details": "Allows the current admin to set the admin in one tx. Useful initial deployment.",
        "params": {
          "newAdmin": "The address to transfer ownership to."
        }
      }
    }
  },
  "userdoc": {
    "methods": {}
  }
}