{
  "contractName": "MockUniswapFactory",
  "abi": [
    {
      "constant": true,
      "inputs": [],
      "name": "tokenToEth",
      "outputs": [
        {
          "name": "eth",
          "type": "uint256"
        },
        {
          "name": "token",
          "type": "uint256"
        }
      ],
      "payable": false,
      "stateMutability": "view",
      "type": "function"
    },
    {
      "constant": true,
      "inputs": [],
      "name": "ethToToken",
      "outputs": [
        {
          "name": "eth",
          "type": "uint256"
        },
        {
          "name": "token",
          "type": "uint256"
        }
      ],
      "payable": false,
      "stateMutability": "view",
      "type": "function"
    },
    {
      "constant": true,
      "inputs": [],
      "name": "token",
      "outputs": [
        {
          "name": "",
          "type": "address"
        }
      ],
      "payable": false,
      "stateMutability": "view",
      "type": "function"
    },
    {
      "payable": true,
      "stateMutability": "payable",
      "type": "fallback"
    },
    {
      "constant": true,
      "inputs": [
        {
          "name": "ethWei",
          "type": "uint256"
        }
      ],
      "name": "getEthToTokenInputPrice",
      "outputs": [
        {
          "name": "tokens_bought",
          "type": "uint256"
        }
      ],
      "payable": false,
      "stateMutability": "view",
      "type": "function"
    },
    {
      "constant": true,
      "inputs": [
        {
          "name": "tokens_sold",
          "type": "uint256"
        }
      ],
      "name": "getTokenToEthInputPrice",
      "outputs": [
        {
          "name": "eth_bought",
          "type": "uint256"
        }
      ],
      "payable": false,
      "stateMutability": "view",
      "type": "function"
    },
    {
      "constant": true,
      "inputs": [
        {
          "name": "_token",
          "type": "address"
        }
      ],
      "name": "getExchange",
      "outputs": [
        {
          "name": "exchange",
          "type": "address"
        }
      ],
      "payable": false,
      "stateMutability": "view",
      "type": "function"
    },
    {
      "constant": true,
      "inputs": [
        {
          "name": "_token",
          "type": "address"
        }
      ],
      "name": "createExchange",
      "outputs": [
        {
          "name": "exchange",
          "type": "address"
        }
      ],
      "payable": false,
      "stateMutability": "view",
      "type": "function"
    },
    {
      "constant": false,
      "inputs": [
        {
          "name": "min_tokens",
          "type": "uint256"
        },
        {
          "name": "deadline",
          "type": "uint256"
        }
      ],
      "name": "ethToTokenSwapInput",
      "outputs": [
        {
          "name": "tokens_bought",
          "type": "uint256"
        }
      ],
      "payable": true,
      "stateMutability": "payable",
      "type": "function"
    },
    {
      "constant": false,
      "inputs": [
        {
          "name": "tokens_sold",
          "type": "uint256"
        },
        {
          "name": "min_eth",
          "type": "uint256"
        },
        {
          "name": "deadline",
          "type": "uint256"
        }
      ],
      "name": "tokenToEthSwapInput",
      "outputs": [
        {
          "name": "eth_bought",
          "type": "uint256"
        }
      ],
      "payable": false,
      "stateMutability": "nonpayable",
      "type": "function"
    },
    {
      "constant": false,
      "inputs": [
        {
          "name": "eth",
          "type": "uint256"
        },
        {
          "name": "_token",
          "type": "uint256"
        }
      ],
      "name": "setRateEthToToken",
      "outputs": [],
      "payable": false,
      "stateMutability": "nonpayable",
      "type": "function"
    },
    {
      "constant": false,
      "inputs": [
        {
          "name": "eth",
          "type": "uint256"
        },
        {
          "name": "_token",
          "type": "uint256"
        }
      ],
      "name": "setRateTokenToEth",
      "outputs": [],
      "payable": false,
      "stateMutability": "nonpayable",
      "type": "function"
    },
    {
      "constant": false,
      "inputs": [
        {
          "name": "_token",
          "type": "address"
        }
      ],
      "name": "setToken",
      "outputs": [],
      "payable": false,
      "stateMutability": "nonpayable",
      "type": "function"
    }
  ],
  "bytecode": "0x6060604052341561000f57600080fd5b6107f98061001e6000396000f3006060604052600436106100ba576000357c0100000000000000000000000000000000000000000000000000000000900463ffffffff16806306f2bf62146100bc5780630707a10614610135578063144fa6d7146101615780631648f38e1461019a5780633a68e4e9146102135780635c5af0001461023f578063789770f41461026f57806395b68fe71461029f57806395e3c50b146102d6578063cd7724c31461031f578063f39b5b9b14610356578063fc0c546a1461038b575b005b34156100c757600080fd5b6100f3600480803573ffffffffffffffffffffffffffffffffffffffff169060200190919050506103e0565b604051808273ffffffffffffffffffffffffffffffffffffffff1673ffffffffffffffffffffffffffffffffffffffff16815260200191505060405180910390f35b341561014057600080fd5b61015f60048080359060200190919080359060200190919050506103ea565b005b341561016c57600080fd5b610198600480803573ffffffffffffffffffffffffffffffffffffffff1690602001909190505061041b565b005b34156101a557600080fd5b6101d1600480803573ffffffffffffffffffffffffffffffffffffffff1690602001909190505061045f565b604051808273ffffffffffffffffffffffffffffffffffffffff1673ffffffffffffffffffffffffffffffffffffffff16815260200191505060405180910390f35b341561021e57600080fd5b61023d6004808035906020019091908035906020019091905050610469565b005b341561024a57600080fd5b61025261049b565b604051808381526020018281526020019250505060405180910390f35b341561027a57600080fd5b6102826104ad565b604051808381526020018281526020019250505060405180910390f35b34156102aa57600080fd5b6102c060048080359060200190919050506104bf565b6040518082815260200191505060405180910390f35b34156102e157600080fd5b61030960048080359060200190919080359060200190919080359060200190919050506104e0565b6040518082815260200191505060405180910390f35b341561032a57600080fd5b610340600480803590602001909190505061066e565b6040518082815260200191505060405180910390f35b610375600480803590602001909190803590602001909190505061068e565b6040518082815260200191505060405180910390f35b341561039657600080fd5b61039e6107a7565b604051808273ffffffffffffffffffffffffffffffffffffffff1673ffffffffffffffffffffffffffffffffffffffff16815260200191505060405180910390f35b6000309050919050565b6040805190810160405280838152602001828152506000808201518160000155602082015181600101559050505050565b80600460006101000a81548173ffffffffffffffffffffffffffffffffffffffff021916908373ffffffffffffffffffffffffffffffffffffffff16021790555050565b6000309050919050565b604080519081016040528083815260200182815250600260008201518160000155602082015181600101559050505050565b60028060000154908060010154905082565b60008060000154908060010154905082565b600060026001015460026000015483028115156104d857fe5b049050919050565b60008042831115156104f157600080fd5b600460009054906101000a900473ffffffffffffffffffffffffffffffffffffffff1673ffffffffffffffffffffffffffffffffffffffff166323b872dd3330886000604051602001526040518463ffffffff167c0100000000000000000000000000000000000000000000000000000000028152600401808473ffffffffffffffffffffffffffffffffffffffff1673ffffffffffffffffffffffffffffffffffffffff1681526020018373ffffffffffffffffffffffffffffffffffffffff1673ffffffffffffffffffffffffffffffffffffffff1681526020018281526020019350505050602060405180830381600087803b15156105f257600080fd5b6102c65a03f1151561060357600080fd5b50505060405180519050151561061857600080fd5b610621856104bf565b90503373ffffffffffffffffffffffffffffffffffffffff166108fc829081150290604051600060405180830381858888f19350505050151561066357600080fd5b809150509392505050565b60008060000154600060010154830281151561068657fe5b049050919050565b600080428311151561069f57600080fd5b6106a83461066e565b9050600460009054906101000a900473ffffffffffffffffffffffffffffffffffffffff1673ffffffffffffffffffffffffffffffffffffffff1663a9059cbb33836000604051602001526040518363ffffffff167c0100000000000000000000000000000000000000000000000000000000028152600401808373ffffffffffffffffffffffffffffffffffffffff1673ffffffffffffffffffffffffffffffffffffffff16815260200182815260200192505050602060405180830381600087803b151561077757600080fd5b6102c65a03f1151561078857600080fd5b50505060405180519050151561079d57600080fd5b8091505092915050565b600460009054906101000a900473ffffffffffffffffffffffffffffffffffffffff16815600a165627a7a72305820c8312431b37dcba5fc9158a7af40d32a42b1f5bca1d35740ba108d47f66217f80029",
  "source": "pragma solidity 0.4.18;\n\nimport \"../../ERC20Interface.sol\";\n\n\ninterface MockUniswapExchange {\n    function ethToTokenSwapInput(\n        uint256 min_tokens,\n        uint256 deadline\n    )\n        external\n        payable\n        returns (uint256  tokens_bought);\n\n    function tokenToEthSwapInput(\n        uint256 tokens_sold,\n        uint256 min_eth,\n        uint256 deadline\n    )\n        external\n        returns (uint256  eth_bought);\n\n    function getEthToTokenInputPrice(\n        uint256 eth_sold\n    )\n        public\n        view\n        returns (uint256 tokens_bought);\n\n    function getTokenToEthInputPrice(\n        uint256 tokens_sold\n    )\n        public\n        view\n        returns (uint256 eth_bought);\n}\n\n\ncontract MockUniswapFactory is MockUniswapExchange {\n    struct Factors {\n        uint eth;\n        uint token;\n    }\n\n    Factors public ethToToken;\n    Factors public tokenToEth;\n\n    ERC20 public token;\n\n    function() public payable {\n        // anyone can deposit ether\n    }\n\n    function getEthToTokenInputPrice(\n        uint256 ethWei\n    )\n        public\n        view\n        returns (uint256 tokens_bought)\n    {\n        return ethWei * ethToToken.token / ethToToken.eth;\n    }\n\n    function getTokenToEthInputPrice(\n        uint256 tokens_sold\n    )\n        public\n        view\n        returns (uint256 eth_bought)\n    {\n        return tokens_sold * tokenToEth.eth / tokenToEth.token;\n    }\n\n    function getExchange(\n        address _token\n    )\n        external\n        view\n        returns (address exchange)\n    {\n        _token;  // eliminating unused variable warning\n\n        return address(this);\n    }\n\n    function createExchange(\n        address _token\n    )\n        external\n        view\n        returns(address exchange)\n    {\n        _token;  // eliminating unused variable warning\n\n        return address(this);\n    }\n\n    function ethToTokenSwapInput(\n        uint256 min_tokens,\n        uint256 deadline\n    )\n        external\n        payable\n        returns (uint256  tokens_bought)\n    {\n        min_tokens;  // eliminating unused variable warning\n\n        require(deadline > block.timestamp);\n\n        uint amount = getEthToTokenInputPrice(msg.value);\n        require(token.transfer(msg.sender, amount));\n        return amount;\n    }\n\n    function tokenToEthSwapInput(\n        uint256 tokens_sold,\n        uint256 min_eth,\n        uint256 deadline\n    )\n        external\n        returns (uint256  eth_bought)\n    {\n        min_eth;  // eliminating unused variable warning\n\n        require(deadline > block.timestamp);\n\n        require(token.transferFrom(msg.sender, address(this), tokens_sold));\n        uint amount = getTokenToEthInputPrice(tokens_sold);\n        msg.sender.transfer(amount);\n        return amount;\n    }\n\n    function setRateEthToToken(\n        uint eth,\n        uint _token\n    )\n        public\n    {\n        ethToToken = Factors(eth, _token);\n    }\n\n    function setRateTokenToEth(\n        uint eth,\n        uint _token\n    )\n        public\n    {\n        tokenToEth = Factors(eth, _token);\n    }\n\n    function setToken(ERC20 _token)\n        public\n    {\n        token = _token;\n    }\n}\n",
  "sourcePath": "/Users/oscarr/Ethereum/frappe/contracts/uniswap/forTesting/MockUniswapFactory.sol",
  "compiler": {
    "name": "solc",
    "version": "0.4.18+commit.9cf6e910.Emscripten.clang"
  },
  "schemaVersion": "3.0.6",
  "updatedAt": "2019-05-18T17:14:13.549Z",
  "devdoc": {
    "methods": {}
  },
  "userdoc": {
    "methods": {}
  }
}