{
  "contractName": "MockOrderbookReserve",
  "abi": [
    {
      "constant": true,
      "inputs": [],
      "name": "NUM_ORDERS",
      "outputs": [
        {
          "name": "",
          "type": "uint256"
        }
      ],
      "payable": false,
      "stateMutability": "view",
      "type": "function"
    },
    {
      "constant": false,
      "inputs": [
        {
          "name": "srcAmount",
          "type": "uint128"
        },
        {
          "name": "dstAmount",
          "type": "uint128"
        },
        {
          "name": "hintPrevOrder",
          "type": "uint32"
        }
      ],
      "name": "submitEthToTokenOrderWHint",
      "outputs": [
        {
          "name": "",
          "type": "bool"
        }
      ],
      "payable": false,
      "stateMutability": "nonpayable",
      "type": "function"
    },
    {
      "constant": true,
      "inputs": [
        {
          "name": "weiAmount",
          "type": "uint256"
        }
      ],
      "name": "calcBurnAmountFromFeeBurner",
      "outputs": [
        {
          "name": "",
          "type": "uint256"
        }
      ],
      "payable": false,
      "stateMutability": "view",
      "type": "function"
    },
    {
      "constant": true,
      "inputs": [
        {
          "name": "orderId",
          "type": "uint32"
        },
        {
          "name": "srcAmount",
          "type": "uint128"
        },
        {
          "name": "dstAmount",
          "type": "uint128"
        }
      ],
      "name": "getEthToTokenUpdateOrderHint",
      "outputs": [
        {
          "name": "",
          "type": "uint32"
        }
      ],
      "payable": false,
      "stateMutability": "view",
      "type": "function"
    },
    {
      "constant": true,
      "inputs": [
        {
          "name": "",
          "type": "address"
        }
      ],
      "name": "makerKnc",
      "outputs": [
        {
          "name": "",
          "type": "uint256"
        }
      ],
      "payable": false,
      "stateMutability": "view",
      "type": "function"
    },
    {
      "constant": true,
      "inputs": [
        {
          "name": "",
          "type": "address"
        }
      ],
      "name": "makerOrdersTokenToEth",
      "outputs": [
        {
          "name": "firstOrderId",
          "type": "uint32"
        },
        {
          "name": "takenBitmap",
          "type": "uint256"
        }
      ],
      "payable": false,
      "stateMutability": "view",
      "type": "function"
    },
    {
      "constant": false,
      "inputs": [
        {
          "name": "maker",
          "type": "address"
        },
        {
          "name": "amount",
          "type": "uint256"
        }
      ],
      "name": "depositToken",
      "outputs": [],
      "payable": false,
      "stateMutability": "nonpayable",
      "type": "function"
    },
    {
      "constant": true,
      "inputs": [],
      "name": "kncPerEthBaseRatePrecision",
      "outputs": [
        {
          "name": "",
          "type": "uint256"
        }
      ],
      "payable": false,
      "stateMutability": "view",
      "type": "function"
    },
    {
      "constant": false,
      "inputs": [
        {
          "name": "amount",
          "type": "uint256"
        }
      ],
      "name": "withdrawEther",
      "outputs": [],
      "payable": false,
      "stateMutability": "nonpayable",
      "type": "function"
    },
    {
      "constant": true,
      "inputs": [
        {
          "name": "srcAmount",
          "type": "uint128"
        },
        {
          "name": "dstAmount",
          "type": "uint128"
        }
      ],
      "name": "getTokenToEthAddOrderHint",
      "outputs": [
        {
          "name": "",
          "type": "uint32"
        }
      ],
      "payable": false,
      "stateMutability": "view",
      "type": "function"
    },
    {
      "constant": true,
      "inputs": [],
      "name": "BURN_TO_STAKE_FACTOR",
      "outputs": [
        {
          "name": "",
          "type": "uint256"
        }
      ],
      "payable": false,
      "stateMutability": "view",
      "type": "function"
    },
    {
      "constant": false,
      "inputs": [
        {
          "name": "amount",
          "type": "uint256"
        }
      ],
      "name": "withdrawToken",
      "outputs": [],
      "payable": false,
      "stateMutability": "nonpayable",
      "type": "function"
    },
    {
      "constant": false,
      "inputs": [
        {
          "name": "isEthToToken",
          "type": "bool[]"
        },
        {
          "name": "srcAmount",
          "type": "uint128[]"
        },
        {
          "name": "dstAmount",
          "type": "uint128[]"
        },
        {
          "name": "hintPrevOrder",
          "type": "uint32[]"
        },
        {
          "name": "isAfterPrevOrder",
          "type": "bool[]"
        }
      ],
      "name": "addOrderBatch",
      "outputs": [
        {
          "name": "",
          "type": "bool"
        }
      ],
      "payable": false,
      "stateMutability": "nonpayable",
      "type": "function"
    },
    {
      "constant": false,
      "inputs": [
        {
          "name": "maker",
          "type": "address"
        }
      ],
      "name": "depositEther",
      "outputs": [],
      "payable": true,
      "stateMutability": "payable",
      "type": "function"
    },
    {
      "constant": true,
      "inputs": [],
      "name": "MIN_REMAINING_ORDER_RATIO",
      "outputs": [
        {
          "name": "",
          "type": "uint256"
        }
      ],
      "payable": false,
      "stateMutability": "view",
      "type": "function"
    },
    {
      "constant": true,
      "inputs": [
        {
          "name": "",
          "type": "address"
        }
      ],
      "name": "makerOrdersEthToToken",
      "outputs": [
        {
          "name": "firstOrderId",
          "type": "uint32"
        },
        {
          "name": "takenBitmap",
          "type": "uint256"
        }
      ],
      "payable": false,
      "stateMutability": "view",
      "type": "function"
    },
    {
      "constant": false,
      "inputs": [
        {
          "name": "orderId",
          "type": "uint32"
        },
        {
          "name": "newSrcAmount",
          "type": "uint128"
        },
        {
          "name": "newDstAmount",
          "type": "uint128"
        },
        {
          "name": "hintPrevOrder",
          "type": "uint32"
        }
      ],
      "name": "updateEthToTokenOrderWHint",
      "outputs": [
        {
          "name": "",
          "type": "bool"
        }
      ],
      "payable": false,
      "stateMutability": "nonpayable",
      "type": "function"
    },
    {
      "constant": false,
      "inputs": [
        {
          "name": "orderId",
          "type": "uint32"
        }
      ],
      "name": "cancelTokenToEthOrder",
      "outputs": [
        {
          "name": "",
          "type": "bool"
        }
      ],
      "payable": false,
      "stateMutability": "nonpayable",
      "type": "function"
    },
    {
      "constant": true,
      "inputs": [
        {
          "name": "maker",
          "type": "address"
        }
      ],
      "name": "getEthToTokenMakerOrderIds",
      "outputs": [
        {
          "name": "orderList",
          "type": "uint32[]"
        }
      ],
      "payable": false,
      "stateMutability": "view",
      "type": "function"
    },
    {
      "constant": true,
      "inputs": [],
      "name": "getTokenToEthOrderList",
      "outputs": [
        {
          "name": "orderList",
          "type": "uint32[]"
        }
      ],
      "payable": false,
      "stateMutability": "view",
      "type": "function"
    },
    {
      "constant": true,
      "inputs": [
        {
          "name": "srcAmount",
          "type": "uint128"
        },
        {
          "name": "dstAmount",
          "type": "uint128"
        }
      ],
      "name": "getEthToTokenAddOrderHint",
      "outputs": [
        {
          "name": "",
          "type": "uint32"
        }
      ],
      "payable": false,
      "stateMutability": "view",
      "type": "function"
    },
    {
      "constant": true,
      "inputs": [],
      "name": "MAX_USD_PER_ETH",
      "outputs": [
        {
          "name": "",
          "type": "uint256"
        }
      ],
      "payable": false,
      "stateMutability": "view",
      "type": "function"
    },
    {
      "constant": true,
      "inputs": [],
      "name": "tokenToEthList",
      "outputs": [
        {
          "name": "",
          "type": "address"
        }
      ],
      "payable": false,
      "stateMutability": "view",
      "type": "function"
    },
    {
      "constant": true,
      "inputs": [],
      "name": "contracts",
      "outputs": [
        {
          "name": "kncToken",
          "type": "address"
        },
        {
          "name": "token",
          "type": "address"
        },
        {
          "name": "feeBurner",
          "type": "address"
        },
        {
          "name": "kyberNetwork",
          "type": "address"
        },
        {
          "name": "medianizer",
          "type": "address"
        },
        {
          "name": "orderListFactory",
          "type": "address"
        }
      ],
      "payable": false,
      "stateMutability": "view",
      "type": "function"
    },
    {
      "constant": true,
      "inputs": [
        {
          "name": "orderId",
          "type": "uint32"
        }
      ],
      "name": "getTokenToEthOrder",
      "outputs": [
        {
          "name": "_maker",
          "type": "address"
        },
        {
          "name": "_srcAmount",
          "type": "uint128"
        },
        {
          "name": "_dstAmount",
          "type": "uint128"
        },
        {
          "name": "_prevId",
          "type": "uint32"
        },
        {
          "name": "_nextId",
          "type": "uint32"
        }
      ],
      "payable": false,
      "stateMutability": "view",
      "type": "function"
    },
    {
      "constant": false,
      "inputs": [
        {
          "name": "srcToken",
          "type": "address"
        },
        {
          "name": "srcAmount",
          "type": "uint256"
        },
        {
          "name": "dstToken",
          "type": "address"
        },
        {
          "name": "dstAddress",
          "type": "address"
        },
        {
          "name": "conversionRate",
          "type": "uint256"
        },
        {
          "name": "validate",
          "type": "bool"
        }
      ],
      "name": "trade",
      "outputs": [
        {
          "name": "",
          "type": "bool"
        }
      ],
      "payable": true,
      "stateMutability": "payable",
      "type": "function"
    },
    {
      "constant": false,
      "inputs": [
        {
          "name": "srcAmount",
          "type": "uint128"
        },
        {
          "name": "dstAmount",
          "type": "uint128"
        }
      ],
      "name": "submitTokenToEthOrder",
      "outputs": [
        {
          "name": "",
          "type": "bool"
        }
      ],
      "payable": false,
      "stateMutability": "nonpayable",
      "type": "function"
    },
    {
      "constant": false,
      "inputs": [
        {
          "name": "srcAmount",
          "type": "uint128"
        },
        {
          "name": "dstAmount",
          "type": "uint128"
        }
      ],
      "name": "submitEthToTokenOrder",
      "outputs": [
        {
          "name": "",
          "type": "bool"
        }
      ],
      "payable": false,
      "stateMutability": "nonpayable",
      "type": "function"
    },
    {
      "constant": true,
      "inputs": [],
      "name": "MAX_BURN_FEE_BPS",
      "outputs": [
        {
          "name": "",
          "type": "uint256"
        }
      ],
      "payable": false,
      "stateMutability": "view",
      "type": "function"
    },
    {
      "constant": true,
      "inputs": [
        {
          "name": "src",
          "type": "address"
        },
        {
          "name": "dst",
          "type": "address"
        },
        {
          "name": "srcQty",
          "type": "uint256"
        },
        {
          "name": "blockNumber",
          "type": "uint256"
        }
      ],
      "name": "getConversionRate",
      "outputs": [
        {
          "name": "",
          "type": "uint256"
        }
      ],
      "payable": false,
      "stateMutability": "view",
      "type": "function"
    },
    {
      "constant": false,
      "inputs": [],
      "name": "setKncPerEthBaseRate",
      "outputs": [],
      "payable": false,
      "stateMutability": "nonpayable",
      "type": "function"
    },
    {
      "constant": true,
      "inputs": [
        {
          "name": "weiAmount",
          "type": "uint256"
        }
      ],
      "name": "calcKncStake",
      "outputs": [
        {
          "name": "",
          "type": "uint256"
        }
      ],
      "payable": false,
      "stateMutability": "view",
      "type": "function"
    },
    {
      "constant": false,
      "inputs": [
        {
          "name": "orderId",
          "type": "uint32"
        },
        {
          "name": "newSrcAmount",
          "type": "uint128"
        },
        {
          "name": "newDstAmount",
          "type": "uint128"
        }
      ],
      "name": "updateEthToTokenOrder",
      "outputs": [
        {
          "name": "",
          "type": "bool"
        }
      ],
      "payable": false,
      "stateMutability": "nonpayable",
      "type": "function"
    },
    {
      "constant": true,
      "inputs": [
        {
          "name": "weiAmount",
          "type": "uint256"
        }
      ],
      "name": "calcBurnAmount",
      "outputs": [
        {
          "name": "",
          "type": "uint256"
        }
      ],
      "payable": false,
      "stateMutability": "view",
      "type": "function"
    },
    {
      "constant": true,
      "inputs": [],
      "name": "limits",
      "outputs": [
        {
          "name": "minNewOrderSizeUsd",
          "type": "uint256"
        },
        {
          "name": "maxOrdersPerTrade",
          "type": "uint256"
        },
        {
          "name": "minNewOrderSizeWei",
          "type": "uint256"
        },
        {
          "name": "minOrderSizeWei",
          "type": "uint256"
        }
      ],
      "payable": false,
      "stateMutability": "view",
      "type": "function"
    },
    {
      "constant": true,
      "inputs": [
        {
          "name": "maker",
          "type": "address"
        }
      ],
      "name": "makerUnlockedKnc",
      "outputs": [
        {
          "name": "",
          "type": "uint256"
        }
      ],
      "payable": false,
      "stateMutability": "view",
      "type": "function"
    },
    {
      "constant": true,
      "inputs": [
        {
          "name": "orderId",
          "type": "uint32"
        },
        {
          "name": "srcAmount",
          "type": "uint128"
        },
        {
          "name": "dstAmount",
          "type": "uint128"
        }
      ],
      "name": "getTokenToEthUpdateOrderHint",
      "outputs": [
        {
          "name": "",
          "type": "uint32"
        }
      ],
      "payable": false,
      "stateMutability": "view",
      "type": "function"
    },
    {
      "constant": false,
      "inputs": [
        {
          "name": "orderId",
          "type": "uint32"
        },
        {
          "name": "newSrcAmount",
          "type": "uint128"
        },
        {
          "name": "newDstAmount",
          "type": "uint128"
        },
        {
          "name": "hintPrevOrder",
          "type": "uint32"
        }
      ],
      "name": "updateTokenToEthOrderWHint",
      "outputs": [
        {
          "name": "",
          "type": "bool"
        }
      ],
      "payable": false,
      "stateMutability": "nonpayable",
      "type": "function"
    },
    {
      "constant": false,
      "inputs": [
        {
          "name": "amount",
          "type": "uint256"
        }
      ],
      "name": "withdrawKncFee",
      "outputs": [],
      "payable": false,
      "stateMutability": "nonpayable",
      "type": "function"
    },
    {
      "constant": false,
      "inputs": [
        {
          "name": "orderId",
          "type": "uint32"
        },
        {
          "name": "newSrcAmount",
          "type": "uint128"
        },
        {
          "name": "newDstAmount",
          "type": "uint128"
        }
      ],
      "name": "updateTokenToEthOrder",
      "outputs": [
        {
          "name": "",
          "type": "bool"
        }
      ],
      "payable": false,
      "stateMutability": "nonpayable",
      "type": "function"
    },
    {
      "constant": false,
      "inputs": [
        {
          "name": "srcAmount",
          "type": "uint128"
        },
        {
          "name": "dstAmount",
          "type": "uint128"
        },
        {
          "name": "hintPrevOrder",
          "type": "uint32"
        }
      ],
      "name": "submitTokenToEthOrderWHint",
      "outputs": [
        {
          "name": "",
          "type": "bool"
        }
      ],
      "payable": false,
      "stateMutability": "nonpayable",
      "type": "function"
    },
    {
      "constant": false,
      "inputs": [],
      "name": "setMinOrderSizeEth",
      "outputs": [
        {
          "name": "",
          "type": "bool"
        }
      ],
      "payable": false,
      "stateMutability": "nonpayable",
      "type": "function"
    },
    {
      "constant": true,
      "inputs": [
        {
          "name": "maker",
          "type": "address"
        }
      ],
      "name": "getTokenToEthMakerOrderIds",
      "outputs": [
        {
          "name": "orderList",
          "type": "uint32[]"
        }
      ],
      "payable": false,
      "stateMutability": "view",
      "type": "function"
    },
    {
      "constant": true,
      "inputs": [
        {
          "name": "maker",
          "type": "address"
        }
      ],
      "name": "makerRequiredKncStake",
      "outputs": [
        {
          "name": "",
          "type": "uint256"
        }
      ],
      "payable": false,
      "stateMutability": "view",
      "type": "function"
    },
    {
      "constant": true,
      "inputs": [
        {
          "name": "orderId",
          "type": "uint32"
        }
      ],
      "name": "getEthToTokenOrder",
      "outputs": [
        {
          "name": "_maker",
          "type": "address"
        },
        {
          "name": "_srcAmount",
          "type": "uint128"
        },
        {
          "name": "_dstAmount",
          "type": "uint128"
        },
        {
          "name": "_prevId",
          "type": "uint32"
        },
        {
          "name": "_nextId",
          "type": "uint32"
        }
      ],
      "payable": false,
      "stateMutability": "view",
      "type": "function"
    },
    {
      "constant": true,
      "inputs": [],
      "name": "HEAD_ID",
      "outputs": [
        {
          "name": "",
          "type": "uint32"
        }
      ],
      "payable": false,
      "stateMutability": "view",
      "type": "function"
    },
    {
      "constant": true,
      "inputs": [
        {
          "name": "",
          "type": "address"
        }
      ],
      "name": "makerTotalOrdersWei",
      "outputs": [
        {
          "name": "",
          "type": "uint256"
        }
      ],
      "payable": false,
      "stateMutability": "view",
      "type": "function"
    },
    {
      "constant": false,
      "inputs": [
        {
          "name": "maker",
          "type": "address"
        },
        {
          "name": "amount",
          "type": "uint256"
        }
      ],
      "name": "depositKncForFee",
      "outputs": [],
      "payable": false,
      "stateMutability": "nonpayable",
      "type": "function"
    },
    {
      "constant": true,
      "inputs": [
        {
          "name": "",
          "type": "address"
        },
        {
          "name": "",
          "type": "address"
        }
      ],
      "name": "makerFunds",
      "outputs": [
        {
          "name": "",
          "type": "uint256"
        }
      ],
      "payable": false,
      "stateMutability": "view",
      "type": "function"
    },
    {
      "constant": true,
      "inputs": [],
      "name": "makerBurnFeeBps",
      "outputs": [
        {
          "name": "",
          "type": "uint256"
        }
      ],
      "payable": false,
      "stateMutability": "view",
      "type": "function"
    },
    {
      "constant": true,
      "inputs": [],
      "name": "TAIL_ID",
      "outputs": [
        {
          "name": "",
          "type": "uint32"
        }
      ],
      "payable": false,
      "stateMutability": "view",
      "type": "function"
    },
    {
      "constant": true,
      "inputs": [
        {
          "name": "token",
          "type": "address"
        },
        {
          "name": "user",
          "type": "address"
        }
      ],
      "name": "getBalance",
      "outputs": [
        {
          "name": "",
          "type": "uint256"
        }
      ],
      "payable": false,
      "stateMutability": "view",
      "type": "function"
    },
    {
      "constant": false,
      "inputs": [],
      "name": "init",
      "outputs": [
        {
          "name": "",
          "type": "bool"
        }
      ],
      "payable": false,
      "stateMutability": "nonpayable",
      "type": "function"
    },
    {
      "constant": true,
      "inputs": [],
      "name": "kncRateBlocksTrade",
      "outputs": [
        {
          "name": "",
          "type": "bool"
        }
      ],
      "payable": false,
      "stateMutability": "view",
      "type": "function"
    },
    {
      "constant": false,
      "inputs": [
        {
          "name": "isEthToToken",
          "type": "bool[]"
        },
        {
          "name": "orderId",
          "type": "uint32[]"
        },
        {
          "name": "newSrcAmount",
          "type": "uint128[]"
        },
        {
          "name": "newDstAmount",
          "type": "uint128[]"
        },
        {
          "name": "hintPrevOrder",
          "type": "uint32[]"
        }
      ],
      "name": "updateOrderBatch",
      "outputs": [
        {
          "name": "",
          "type": "bool"
        }
      ],
      "payable": false,
      "stateMutability": "nonpayable",
      "type": "function"
    },
    {
      "constant": true,
      "inputs": [],
      "name": "getEthToTokenOrderList",
      "outputs": [
        {
          "name": "orderList",
          "type": "uint32[]"
        }
      ],
      "payable": false,
      "stateMutability": "view",
      "type": "function"
    },
    {
      "constant": false,
      "inputs": [
        {
          "name": "orderId",
          "type": "uint32"
        }
      ],
      "name": "cancelEthToTokenOrder",
      "outputs": [
        {
          "name": "",
          "type": "bool"
        }
      ],
      "payable": false,
      "stateMutability": "nonpayable",
      "type": "function"
    },
    {
      "constant": true,
      "inputs": [],
      "name": "ethToTokenList",
      "outputs": [
        {
          "name": "",
          "type": "address"
        }
      ],
      "payable": false,
      "stateMutability": "view",
      "type": "function"
    },
    {
      "inputs": [
        {
          "name": "knc",
          "type": "address"
        },
        {
          "name": "reserveToken",
          "type": "address"
        },
        {
          "name": "burner",
          "type": "address"
        },
        {
          "name": "network",
          "type": "address"
        },
        {
          "name": "medianizer",
          "type": "address"
        },
        {
          "name": "factory",
          "type": "address"
        },
        {
          "name": "minNewOrderDollar",
          "type": "uint256"
        },
        {
          "name": "maxOrdersPerTrade",
          "type": "uint256"
        },
        {
          "name": "burnFeeBps",
          "type": "uint256"
        }
      ],
      "payable": false,
      "stateMutability": "nonpayable",
      "type": "constructor"
    },
    {
      "anonymous": false,
      "inputs": [
        {
          "indexed": false,
          "name": "srcToken",
          "type": "address"
        },
        {
          "indexed": false,
          "name": "dstToken",
          "type": "address"
        },
        {
          "indexed": false,
          "name": "srcAmount",
          "type": "uint256"
        },
        {
          "indexed": false,
          "name": "dstAmount",
          "type": "uint256"
        }
      ],
      "name": "OrderbookReserveTrade",
      "type": "event"
    },
    {
      "anonymous": false,
      "inputs": [
        {
          "indexed": true,
          "name": "maker",
          "type": "address"
        },
        {
          "indexed": false,
          "name": "amount",
          "type": "uint256"
        }
      ],
      "name": "TokenDeposited",
      "type": "event"
    },
    {
      "anonymous": false,
      "inputs": [
        {
          "indexed": true,
          "name": "maker",
          "type": "address"
        },
        {
          "indexed": false,
          "name": "amount",
          "type": "uint256"
        }
      ],
      "name": "EtherDeposited",
      "type": "event"
    },
    {
      "anonymous": false,
      "inputs": [
        {
          "indexed": true,
          "name": "maker",
          "type": "address"
        },
        {
          "indexed": false,
          "name": "amount",
          "type": "uint256"
        }
      ],
      "name": "KncFeeDeposited",
      "type": "event"
    },
    {
      "anonymous": false,
      "inputs": [
        {
          "indexed": true,
          "name": "maker",
          "type": "address"
        },
        {
          "indexed": false,
          "name": "orderId",
          "type": "uint32"
        },
        {
          "indexed": false,
          "name": "isEthToToken",
          "type": "bool"
        },
        {
          "indexed": false,
          "name": "srcAmount",
          "type": "uint128"
        },
        {
          "indexed": false,
          "name": "dstAmount",
          "type": "uint128"
        },
        {
          "indexed": false,
          "name": "addedWithHint",
          "type": "bool"
        }
      ],
      "name": "NewLimitOrder",
      "type": "event"
    },
    {
      "anonymous": false,
      "inputs": [
        {
          "indexed": true,
          "name": "maker",
          "type": "address"
        },
        {
          "indexed": false,
          "name": "isEthToToken",
          "type": "bool"
        },
        {
          "indexed": false,
          "name": "orderId",
          "type": "uint256"
        },
        {
          "indexed": false,
          "name": "srcAmount",
          "type": "uint128"
        },
        {
          "indexed": false,
          "name": "dstAmount",
          "type": "uint128"
        },
        {
          "indexed": false,
          "name": "updatedWithHint",
          "type": "bool"
        }
      ],
      "name": "OrderUpdated",
      "type": "event"
    },
    {
      "anonymous": false,
      "inputs": [
        {
          "indexed": true,
          "name": "maker",
          "type": "address"
        },
        {
          "indexed": false,
          "name": "isEthToToken",
          "type": "bool"
        },
        {
          "indexed": false,
          "name": "orderId",
          "type": "uint32"
        },
        {
          "indexed": false,
          "name": "srcAmount",
          "type": "uint128"
        },
        {
          "indexed": false,
          "name": "dstAmount",
          "type": "uint256"
        }
      ],
      "name": "OrderCanceled",
      "type": "event"
    },
    {
      "anonymous": false,
      "inputs": [
        {
          "indexed": false,
          "name": "maker",
          "type": "address"
        },
        {
          "indexed": false,
          "name": "orderId",
          "type": "uint32"
        },
        {
          "indexed": false,
          "name": "isEthToToken",
          "type": "bool"
        }
      ],
      "name": "FullOrderTaken",
      "type": "event"
    },
    {
      "anonymous": false,
      "inputs": [
        {
          "indexed": false,
          "name": "maker",
          "type": "address"
        },
        {
          "indexed": false,
          "name": "orderId",
          "type": "uint32"
        },
        {
          "indexed": false,
          "name": "isEthToToken",
          "type": "bool"
        },
        {
          "indexed": false,
          "name": "isRemoved",
          "type": "bool"
        }
      ],
      "name": "PartialOrderTaken",
      "type": "event"
    },
    {
      "constant": false,
      "inputs": [
        {
          "name": "maker",
          "type": "address"
        },
        {
          "name": "amountWei",
          "type": "int256"
        }
      ],
      "name": "testBindStakes",
      "outputs": [],
      "payable": false,
      "stateMutability": "nonpayable",
      "type": "function"
    },
    {
      "constant": false,
      "inputs": [
        {
          "name": "maker",
          "type": "address"
        },
        {
          "name": "weiAmount",
          "type": "uint256"
        },
        {
          "name": "burnWeiAmount",
          "type": "uint256"
        }
      ],
      "name": "testHandleStakes",
      "outputs": [],
      "payable": false,
      "stateMutability": "nonpayable",
      "type": "function"
    },
    {
      "constant": false,
      "inputs": [
        {
          "name": "rate",
          "type": "uint256"
        }
      ],
      "name": "setBaseKncPerEthRate",
      "outputs": [],
      "payable": false,
      "stateMutability": "nonpayable",
      "type": "function"
    },
    {
      "constant": false,
      "inputs": [
        {
          "name": "maker",
          "type": "address"
        },
        {
          "name": "orderId",
          "type": "uint32"
        },
        {
          "name": "userSrc",
          "type": "address"
        },
        {
          "name": "userDst",
          "type": "address"
        },
        {
          "name": "userPartialSrcAmount",
          "type": "uint128"
        },
        {
          "name": "userTakeDstAmount",
          "type": "uint128"
        },
        {
          "name": "orderSrcAmount",
          "type": "uint128"
        },
        {
          "name": "orderDstAmount",
          "type": "uint128"
        }
      ],
      "name": "testTakePartialOrder",
      "outputs": [],
      "payable": false,
      "stateMutability": "nonpayable",
      "type": "function"
    }
  ],
  "bytecode": "0x606060405234156200001057600080fd5b604051610120806200822783398101604052808051906020019091908051906020019091908051906020019091908051906020019091908051906020019091908051906020019091908051906020019091908051906020019091908051906020019091905050888888888888888888600073ffffffffffffffffffffffffffffffffffffffff168973ffffffffffffffffffffffffffffffffffffffff1614151515620000bc57600080fd5b600073ffffffffffffffffffffffffffffffffffffffff168873ffffffffffffffffffffffffffffffffffffffff1614151515620000f957600080fd5b600073ffffffffffffffffffffffffffffffffffffffff168773ffffffffffffffffffffffffffffffffffffffff16141515156200013657600080fd5b600073ffffffffffffffffffffffffffffffffffffffff168673ffffffffffffffffffffffffffffffffffffffff16141515156200017357600080fd5b600073ffffffffffffffffffffffffffffffffffffffff168573ffffffffffffffffffffffffffffffffffffffff1614151515620001b057600080fd5b600073ffffffffffffffffffffffffffffffffffffffff168473ffffffffffffffffffffffffffffffffffffffff1614151515620001ed57600080fd5b60008114151515620001fe57600080fd5b606481111515156200020f57600080fd5b600082141515156200022057600080fd5b6000831115156200023057600080fd5b85600660030160006101000a81548173ffffffffffffffffffffffffffffffffffffffff021916908373ffffffffffffffffffffffffffffffffffffffff16021790555086600660020160006101000a81548173ffffffffffffffffffffffffffffffffffffffff021916908373ffffffffffffffffffffffffffffffffffffffff16021790555084600660040160006101000a81548173ffffffffffffffffffffffffffffffffffffffff021916908373ffffffffffffffffffffffffffffffffffffffff16021790555083600660050160006101000a81548173ffffffffffffffffffffffffffffffffffffffff021916908373ffffffffffffffffffffffffffffffffffffffff16021790555088600660000160006101000a81548173ffffffffffffffffffffffffffffffffffffffff021916908373ffffffffffffffffffffffffffffffffffffffff16021790555087600660010160006101000a81548173ffffffffffffffffffffffffffffffffffffffff021916908373ffffffffffffffffffffffffffffffffffffffff160217905550806011819055508260026000018190555081600260010181905550620004016200065b6401000000000262003f51176401000000009004565b15156200040d57600080fd5b600660000160009054906101000a900473ffffffffffffffffffffffffffffffffffffffff1673ffffffffffffffffffffffffffffffffffffffff1663095ea7b3600660020160009054906101000a900473ffffffffffffffffffffffffffffffffffffffff167f80000000000000000000000000000000000000000000000000000000000000006000604051602001526040518363ffffffff167c0100000000000000000000000000000000000000000000000000000000028152600401808373ffffffffffffffffffffffffffffffffffffffff1673ffffffffffffffffffffffffffffffffffffffff16815260200182815260200192505050602060405180830381600087803b15156200052357600080fd5b6102c65a03f115156200053557600080fd5b5050506040518051905015156200054b57600080fd5b6200058f600660010160009054906101000a900473ffffffffffffffffffffffffffffffffffffffff16620007bc640100000000026200776f176401000000009004565b600660020160009054906101000a900473ffffffffffffffffffffffffffffffffffffffff1673ffffffffffffffffffffffffffffffffffffffff1663301254166000604051602001526040518163ffffffff167c0100000000000000000000000000000000000000000000000000000000028152600401602060405180830381600087803b15156200062157600080fd5b6102c65a03f115156200063357600080fd5b505050604051805190506001819055505050505050505050505050505050505050506200091e565b6000806000806000600660040160009054906101000a900473ffffffffffffffffffffffffffffffffffffffff1673ffffffffffffffffffffffffffffffffffffffff166359e02dd76000604051604001526040518163ffffffff167c01000000000000000000000000000000000000000000000000000000000281526004016040805180830381600087803b1515620006f457600080fd5b6102c65a03f115156200070657600080fd5b5050506040518051906020018051905080945081955050508215156200072b57600080fd5b670de0b6b3a764000084600190048115156200074357fe5b049150600082141515156200075757600080fd5b620186a0821015156200076957600080fd5b8360019004670de0b6b3a76400008060026000015402028115156200078a57fe5b04905080600280018190555060028060020154811515620007a757fe5b04600260030181905550600194505050505090565b73eeeeeeeeeeeeeeeeeeeeeeeeeeeeeeeeeeeeeeee73ffffffffffffffffffffffffffffffffffffffff168173ffffffffffffffffffffffffffffffffffffffff1614156200084f5760126000808373ffffffffffffffffffffffffffffffffffffffff1673ffffffffffffffffffffffffffffffffffffffff168152602001908152602001600020819055506200091b565b8073ffffffffffffffffffffffffffffffffffffffff1663313ce5676000604051602001526040518163ffffffff167c0100000000000000000000000000000000000000000000000000000000028152600401602060405180830381600087803b1515620008bc57600080fd5b6102c65a03f11515620008ce57600080fd5b505050604051805190506000808373ffffffffffffffffffffffffffffffffffffffff1673ffffffffffffffffffffffffffffffffffffffff168152602001908152602001600020819055505b50565b6178f9806200092e6000396000f3006060604052600436106102e0576000357c0100000000000000000000000000000000000000000000000000000000900463ffffffff16806304068ae2146102e557806314fd6da01461030e578063269fe82e146103855780632ac1db5a146103bc5780632b4d53031461043b57806330cbb66f14610488578063338b5dea146104e8578063370c3fdf1461052a5780633b443e3b1461056c5780633bed33ce14610595578063411273d8146105b857806344909b741461062857806350baa6221461065157806350d91deb1461067457806352802121146107e6578063541e15b61461081457806357df82e01461083d5780635cd363251461089d5780635e310670146109235780635ff468571461096457806362bb7533146109f257806362c5aecc14610a5c578063685e7fc214610acc578063690d986b14610af55780636c0f79b614610b4a5780636c3aacf914610c9e5780636cf6981114610d83578063702c02e914610e24578063744fa2c814610f1657806374d88c5014610f7e5780637a03b62414610fe65780637cd442721461100f5780637f18b5691461108d5780638108592c146110a257806384d062b4146110d9578063853717bb14611150578063860aefcf146111875780638b7d6b05146111c55780638fb2fbe11461121257806390f3dd331461129157806392418cf614611317578063968530881461133a578063971e668f146113855780639d0d6473146113fc5780639ebbf231146114735780639f7ba828146114a0578063a9055b811461152e578063abdde3d11461157b578063b7b2c52514611660578063ba6b0fa014611695578063bc1f71e1146116e2578063c01a3cd214611724578063c444214a14611790578063d11dfdec146117b9578063d4fac45d146117ee578063e1c7392a1461185a578063e934853214611887578063edbf5955146118b4578063f2e91350146118d7578063f67e8db214611a49578063f719254d14611ab3578063fe459fdf14611af4575b600080fd5b34156102f057600080fd5b6102f8611b49565b6040518082815260200191505060405180910390f35b341561031957600080fd5b61036b60048080356fffffffffffffffffffffffffffffffff169060200190919080356fffffffffffffffffffffffffffffffff1690602001909190803563ffffffff16906020019091905050611b4e565b604051808215151515815260200191505060405180910390f35b341561039057600080fd5b6103a66004808035906020019091905050611bb2565b6040518082815260200191505060405180910390f35b34156103c757600080fd5b610419600480803563ffffffff169060200190919080356fffffffffffffffffffffffffffffffff169060200190919080356fffffffffffffffffffffffffffffffff16906020019091905050611c84565b604051808263ffffffff1663ffffffff16815260200191505060405180910390f35b341561044657600080fd5b610472600480803573ffffffffffffffffffffffffffffffffffffffff16906020019091905050611ec6565b6040518082815260200191505060405180910390f35b341561049357600080fd5b6104bf600480803573ffffffffffffffffffffffffffffffffffffffff16906020019091905050611ede565b604051808363ffffffff1663ffffffff1681526020018281526020019250505060405180910390f35b34156104f357600080fd5b610528600480803573ffffffffffffffffffffffffffffffffffffffff16906020019091908035906020019091905050611f12565b005b341561053557600080fd5b61056a600480803573ffffffffffffffffffffffffffffffffffffffff16906020019091908035906020019091905050612193565b005b341561057757600080fd5b61057f6121a2565b6040518082815260200191505060405180910390f35b34156105a057600080fd5b6105b660048080359060200190919050506121a8565b005b34156105c357600080fd5b61060660048080356fffffffffffffffffffffffffffffffff169060200190919080356fffffffffffffffffffffffffffffffff16906020019091905050612333565b604051808263ffffffff1663ffffffff16815260200191505060405180910390f35b341561063357600080fd5b61063b612466565b6040518082815260200191505060405180910390f35b341561065c57600080fd5b610672600480803590602001909190505061246b565b005b341561067f57600080fd5b6107cc600480803590602001908201803590602001908080602002602001604051908101604052809392919081815260200183836020028082843782019150505050505091908035906020019082018035906020019080806020026020016040519081016040528093929190818152602001838360200280828437820191505050505050919080359060200190820180359060200190808060200260200160405190810160405280939291908181526020018383602002808284378201915050505050509190803590602001908201803590602001908080602002602001604051908101604052809392919081815260200183836020028082843782019150505050505091908035906020019082018035906020019080806020026020016040519081016040528093929190818152602001838360200280828437820191505050505050919050506126ce565b604051808215151515815260200191505060405180910390f35b610812600480803573ffffffffffffffffffffffffffffffffffffffff1690602001909190505061288b565b005b341561081f57600080fd5b6108276129b6565b6040518082815260200191505060405180910390f35b341561084857600080fd5b610874600480803573ffffffffffffffffffffffffffffffffffffffff169060200190919050506129bb565b604051808363ffffffff1663ffffffff1681526020018281526020019250505060405180910390f35b34156108a857600080fd5b610909600480803563ffffffff169060200190919080356fffffffffffffffffffffffffffffffff169060200190919080356fffffffffffffffffffffffffffffffff1690602001909190803563ffffffff169060200190919050506129ef565b604051808215151515815260200191505060405180910390f35b341561092e57600080fd5b61094a600480803563ffffffff16906020019091905050612a16565b604051808215151515815260200191505060405180910390f35b341561096f57600080fd5b61099b600480803573ffffffffffffffffffffffffffffffffffffffff16906020019091905050612a37565b6040518080602001828103825283818151815260200191508051906020019060200280838360005b838110156109de5780820151818401526020810190506109c3565b505050509050019250505060405180910390f35b34156109fd57600080fd5b610a05612b3d565b6040518080602001828103825283818151815260200191508051906020019060200280838360005b83811015610a48578082015181840152602081019050610a2d565b505050509050019250505060405180910390f35b3415610a6757600080fd5b610aaa60048080356fffffffffffffffffffffffffffffffff169060200190919080356fffffffffffffffffffffffffffffffff16906020019091905050612b7b565b604051808263ffffffff1663ffffffff16815260200191505060405180910390f35b3415610ad757600080fd5b610adf612cae565b6040518082815260200191505060405180910390f35b3415610b0057600080fd5b610b08612cb5565b604051808273ffffffffffffffffffffffffffffffffffffffff1673ffffffffffffffffffffffffffffffffffffffff16815260200191505060405180910390f35b3415610b5557600080fd5b610b5d612cdb565b604051808773ffffffffffffffffffffffffffffffffffffffff1673ffffffffffffffffffffffffffffffffffffffff1681526020018673ffffffffffffffffffffffffffffffffffffffff1673ffffffffffffffffffffffffffffffffffffffff1681526020018573ffffffffffffffffffffffffffffffffffffffff1673ffffffffffffffffffffffffffffffffffffffff1681526020018473ffffffffffffffffffffffffffffffffffffffff1673ffffffffffffffffffffffffffffffffffffffff1681526020018373ffffffffffffffffffffffffffffffffffffffff1673ffffffffffffffffffffffffffffffffffffffff1681526020018273ffffffffffffffffffffffffffffffffffffffff1673ffffffffffffffffffffffffffffffffffffffff168152602001965050505050505060405180910390f35b3415610ca957600080fd5b610cc5600480803563ffffffff16906020019091905050612dc5565b604051808673ffffffffffffffffffffffffffffffffffffffff1673ffffffffffffffffffffffffffffffffffffffff168152602001856fffffffffffffffffffffffffffffffff166fffffffffffffffffffffffffffffffff168152602001846fffffffffffffffffffffffffffffffff166fffffffffffffffffffffffffffffffff1681526020018363ffffffff1663ffffffff1681526020018263ffffffff1663ffffffff1681526020019550505050505060405180910390f35b610e0a600480803573ffffffffffffffffffffffffffffffffffffffff1690602001909190803590602001909190803573ffffffffffffffffffffffffffffffffffffffff1690602001909190803573ffffffffffffffffffffffffffffffffffffffff169060200190919080359060200190919080351515906020019091905050612eb8565b604051808215151515815260200191505060405180910390f35b3415610e2f57600080fd5b610f14600480803573ffffffffffffffffffffffffffffffffffffffff1690602001909190803563ffffffff1690602001909190803573ffffffffffffffffffffffffffffffffffffffff1690602001909190803573ffffffffffffffffffffffffffffffffffffffff169060200190919080356fffffffffffffffffffffffffffffffff169060200190919080356fffffffffffffffffffffffffffffffff169060200190919080356fffffffffffffffffffffffffffffffff169060200190919080356fffffffffffffffffffffffffffffffff16906020019091905050613443565b005b3415610f2157600080fd5b610f6460048080356fffffffffffffffffffffffffffffffff169060200190919080356fffffffffffffffffffffffffffffffff1690602001909190505061345e565b604051808215151515815260200191505060405180910390f35b3415610f8957600080fd5b610fcc60048080356fffffffffffffffffffffffffffffffff169060200190919080356fffffffffffffffffffffffffffffffff16906020019091905050613474565b604051808215151515815260200191505060405180910390f35b3415610ff157600080fd5b610ff961348a565b6040518082815260200191505060405180910390f35b341561101a57600080fd5b611077600480803573ffffffffffffffffffffffffffffffffffffffff1690602001909190803573ffffffffffffffffffffffffffffffffffffffff1690602001909190803590602001909190803590602001909190505061348f565b6040518082815260200191505060405180910390f35b341561109857600080fd5b6110a06138bb565b005b34156110ad57600080fd5b6110c36004808035906020019091905050613980565b6040518082815260200191505060405180910390f35b34156110e457600080fd5b611136600480803563ffffffff169060200190919080356fffffffffffffffffffffffffffffffff169060200190919080356fffffffffffffffffffffffffffffffff16906020019091905050613995565b604051808215151515815260200191505060405180910390f35b341561115b57600080fd5b61117160048080359060200190919050506139ad565b6040518082815260200191505060405180910390f35b341561119257600080fd5b61119a6139d6565b6040518085815260200184815260200183815260200182815260200194505050505060405180910390f35b34156111d057600080fd5b6111fc600480803573ffffffffffffffffffffffffffffffffffffffff169060200190919050506139f4565b6040518082815260200191505060405180910390f35b341561121d57600080fd5b61126f600480803563ffffffff169060200190919080356fffffffffffffffffffffffffffffffff169060200190919080356fffffffffffffffffffffffffffffffff16906020019091905050613a9d565b604051808263ffffffff1663ffffffff16815260200191505060405180910390f35b341561129c57600080fd5b6112fd600480803563ffffffff169060200190919080356fffffffffffffffffffffffffffffffff169060200190919080356fffffffffffffffffffffffffffffffff1690602001909190803563ffffffff16906020019091905050613cdf565b604051808215151515815260200191505060405180910390f35b341561132257600080fd5b6113386004808035906020019091905050613d06565b005b341561134557600080fd5b611383600480803573ffffffffffffffffffffffffffffffffffffffff16906020019091908035906020019091908035906020019091905050613eb7565b005b341561139057600080fd5b6113e2600480803563ffffffff169060200190919080356fffffffffffffffffffffffffffffffff169060200190919080356fffffffffffffffffffffffffffffffff16906020019091905050613ec8565b604051808215151515815260200191505060405180910390f35b341561140757600080fd5b61145960048080356fffffffffffffffffffffffffffffffff169060200190919080356fffffffffffffffffffffffffffffffff1690602001909190803563ffffffff16906020019091905050613eed565b604051808215151515815260200191505060405180910390f35b341561147e57600080fd5b611486613f51565b604051808215151515815260200191505060405180910390f35b34156114ab57600080fd5b6114d7600480803573ffffffffffffffffffffffffffffffffffffffff169060200190919050506140aa565b6040518080602001828103825283818151815260200191508051906020019060200280838360005b8381101561151a5780820151818401526020810190506114ff565b505050509050019250505060405180910390f35b341561153957600080fd5b611565600480803573ffffffffffffffffffffffffffffffffffffffff169060200190919050506141b0565b6040518082815260200191505060405180910390f35b341561158657600080fd5b6115a2600480803563ffffffff16906020019091905050614201565b604051808673ffffffffffffffffffffffffffffffffffffffff1673ffffffffffffffffffffffffffffffffffffffff168152602001856fffffffffffffffffffffffffffffffff166fffffffffffffffffffffffffffffffff168152602001846fffffffffffffffffffffffffffffffff166fffffffffffffffffffffffffffffffff1681526020018363ffffffff1663ffffffff1681526020018263ffffffff1663ffffffff1681526020019550505050505060405180910390f35b341561166b57600080fd5b6116736142f4565b604051808263ffffffff1663ffffffff16815260200191505060405180910390f35b34156116a057600080fd5b6116cc600480803573ffffffffffffffffffffffffffffffffffffffff169060200190919050506142f9565b6040518082815260200191505060405180910390f35b34156116ed57600080fd5b611722600480803573ffffffffffffffffffffffffffffffffffffffff16906020019091908035906020019091905050614311565b005b341561172f57600080fd5b61177a600480803573ffffffffffffffffffffffffffffffffffffffff1690602001909190803573ffffffffffffffffffffffffffffffffffffffff169060200190919050506147f0565b6040518082815260200191505060405180910390f35b341561179b57600080fd5b6117a3614815565b6040518082815260200191505060405180910390f35b34156117c457600080fd5b6117cc61481b565b604051808263ffffffff1663ffffffff16815260200191505060405180910390f35b34156117f957600080fd5b611844600480803573ffffffffffffffffffffffffffffffffffffffff1690602001909190803573ffffffffffffffffffffffffffffffffffffffff16906020019091905050614820565b6040518082815260200191505060405180910390f35b341561186557600080fd5b61186d614950565b604051808215151515815260200191505060405180910390f35b341561189257600080fd5b61189a614d12565b604051808215151515815260200191505060405180910390f35b34156118bf57600080fd5b6118d56004808035906020019091905050614dcc565b005b34156118e257600080fd5b611a2f60048080359060200190820180359060200190808060200260200160405190810160405280939291908181526020018383602002808284378201915050505050509190803590602001908201803590602001908080602002602001604051908101604052809392919081815260200183836020028082843782019150505050505091908035906020019082018035906020019080806020026020016040519081016040528093929190818152602001838360200280828437820191505050505050919080359060200190820180359060200190808060200260200160405190810160405280939291908181526020018383602002808284378201915050505050509190803590602001908201803590602001908080602002602001604051908101604052809392919081815260200183836020028082843782019150505050505091905050614dd6565b604051808215151515815260200191505060405180910390f35b3415611a5457600080fd5b611a5c614ecb565b6040518080602001828103825283818151815260200191508051906020019060200280838360005b83811015611a9f578082015181840152602081019050611a84565b505050509050019250505060405180910390f35b3415611abe57600080fd5b611ada600480803563ffffffff16906020019091905050614f09565b604051808215151515815260200191505060405180910390f35b3415611aff57600080fd5b611b07614f2a565b604051808273ffffffffffffffffffffffffffffffffffffffff1673ffffffffffffffffffffffffffffffffffffffff16815260200191505060405180910390f35b602081565b600080611b98601360003373ffffffffffffffffffffffffffffffffffffffff1673ffffffffffffffffffffffffffffffffffffffff168152602001908152602001600020614f50565b9050611ba8600182878787614fc7565b9150509392505050565b6000670de0b6b3a764000061271002600660020160009054906101000a900473ffffffffffffffffffffffffffffffffffffffff1673ffffffffffffffffffffffffffffffffffffffff1663301254166000604051602001526040518163ffffffff167c0100000000000000000000000000000000000000000000000000000000028152600401602060405180830381600087803b1515611c5257600080fd5b6102c65a03f11515611c6357600080fd5b50505060405180519050601154840202811515611c7c57fe5b049050919050565b60008060008060006002800154876fffffffffffffffffffffffffffffffff1610151515611cb157600080fd5b600d60009054906101000a900473ffffffffffffffffffffffffffffffffffffffff1673ffffffffffffffffffffffffffffffffffffffff166385fcb4a888886000604051602001526040518363ffffffff167c010000000000000000000000000000000000000000000000000000000002815260040180836fffffffffffffffffffffffffffffffff166fffffffffffffffffffffffffffffffff168152602001826fffffffffffffffffffffffffffffffff166fffffffffffffffffffffffffffffffff16815260200192505050602060405180830381600087803b1515611d9a57600080fd5b6102c65a03f11515611dab57600080fd5b5050506040518051905093508763ffffffff168463ffffffff161415611eb857600d60009054906101000a900473ffffffffffffffffffffffffffffffffffffffff1673ffffffffffffffffffffffffffffffffffffffff166361592b8589600060405160a001526040518263ffffffff167c0100000000000000000000000000000000000000000000000000000000028152600401808263ffffffff1663ffffffff16815260200191505060a060405180830381600087803b1515611e7057600080fd5b6102c65a03f11515611e8157600080fd5b5050506040518051906020018051906020018051906020018051906020018051905080955081985082965083965084975050505050505b839450505050509392505050565b600f6020528060005260406000206000915090505481565b60126020528060005260406000206000915090508060000160009054906101000a900463ffffffff16908060010154905082565b600073ffffffffffffffffffffffffffffffffffffffff168273ffffffffffffffffffffffffffffffffffffffff1614151515611f4e57600080fd5b6b204fce5e3e2502611000000081101515611f6857600080fd5b600660010160009054906101000a900473ffffffffffffffffffffffffffffffffffffffff1673ffffffffffffffffffffffffffffffffffffffff166323b872dd3330846000604051602001526040518463ffffffff167c0100000000000000000000000000000000000000000000000000000000028152600401808473ffffffffffffffffffffffffffffffffffffffff1673ffffffffffffffffffffffffffffffffffffffff1681526020018373ffffffffffffffffffffffffffffffffffffffff1673ffffffffffffffffffffffffffffffffffffffff1681526020018281526020019350505050602060405180830381600087803b151561206c57600080fd5b6102c65a03f1151561207d57600080fd5b50505060405180519050151561209257600080fd5b80600e60008473ffffffffffffffffffffffffffffffffffffffff1673ffffffffffffffffffffffffffffffffffffffff1681526020019081526020016000206000600660010160009054906101000a900473ffffffffffffffffffffffffffffffffffffffff1673ffffffffffffffffffffffffffffffffffffffff1673ffffffffffffffffffffffffffffffffffffffff168152602001908152602001600020600082825401925050819055508173ffffffffffffffffffffffffffffffffffffffff167fbc7c8a4d8049a3f99a02f2a20640c206a2e4d3f2fa54fd20da9f01fda3620cda826040518082815260200191505060405180910390a25050565b61219d8282615438565b505050565b60015481565b600080339150600e60008373ffffffffffffffffffffffffffffffffffffffff1673ffffffffffffffffffffffffffffffffffffffff168152602001908152602001600020600073eeeeeeeeeeeeeeeeeeeeeeeeeeeeeeeeeeeeeeee73ffffffffffffffffffffffffffffffffffffffff1673ffffffffffffffffffffffffffffffffffffffff16815260200190815260200160002054905082811015151561225057600080fd5b82600e60008473ffffffffffffffffffffffffffffffffffffffff1673ffffffffffffffffffffffffffffffffffffffff168152602001908152602001600020600073eeeeeeeeeeeeeeeeeeeeeeeeeeeeeeeeeeeeeeee73ffffffffffffffffffffffffffffffffffffffff1673ffffffffffffffffffffffffffffffffffffffff168152602001908152602001600020600082825403925050819055508173ffffffffffffffffffffffffffffffffffffffff166108fc849081150290604051600060405180830381858888f19350505050151561232e57600080fd5b505050565b60006002800154826fffffffffffffffffffffffffffffffff161015151561235a57600080fd5b600c60009054906101000a900473ffffffffffffffffffffffffffffffffffffffff1673ffffffffffffffffffffffffffffffffffffffff166385fcb4a884846000604051602001526040518363ffffffff167c010000000000000000000000000000000000000000000000000000000002815260040180836fffffffffffffffffffffffffffffffff166fffffffffffffffffffffffffffffffff168152602001826fffffffffffffffffffffffffffffffff166fffffffffffffffffffffffffffffffff16815260200192505050602060405180830381600087803b151561244357600080fd5b6102c65a03f1151561245457600080fd5b50505060405180519050905092915050565b600581565b600080339150600e60008373ffffffffffffffffffffffffffffffffffffffff1673ffffffffffffffffffffffffffffffffffffffff1681526020019081526020016000206000600660010160009054906101000a900473ffffffffffffffffffffffffffffffffffffffff1673ffffffffffffffffffffffffffffffffffffffff1673ffffffffffffffffffffffffffffffffffffffff16815260200190815260200160002054905082811015151561252457600080fd5b82600e60008473ffffffffffffffffffffffffffffffffffffffff1673ffffffffffffffffffffffffffffffffffffffff1681526020019081526020016000206000600660010160009054906101000a900473ffffffffffffffffffffffffffffffffffffffff1673ffffffffffffffffffffffffffffffffffffffff1673ffffffffffffffffffffffffffffffffffffffff16815260200190815260200160002060008282540392505081905550600660010160009054906101000a900473ffffffffffffffffffffffffffffffffffffffff1673ffffffffffffffffffffffffffffffffffffffff1663a9059cbb83856000604051602001526040518363ffffffff167c0100000000000000000000000000000000000000000000000000000000028152600401808373ffffffffffffffffffffffffffffffffffffffff1673ffffffffffffffffffffffffffffffffffffffff16815260200182815260200192505050602060405180830381600087803b15156126a357600080fd5b6102c65a03f115156126b457600080fd5b5050506040518051905015156126c957600080fd5b505050565b600080600080600086518a511415156126e657600080fd5b87518a511415156126f657600080fd5b88518a5114151561270657600080fd5b85518a5114151561271657600080fd5b33935060009150600090505b895181101561287a57858181518110151561273957fe5b9060200190602002015161276457868181518110151561275557fe5b90602001906020020151612766565b815b92506128108a8281518110151561277957fe5b906020019060200201516127cb57601260008673ffffffffffffffffffffffffffffffffffffffff1673ffffffffffffffffffffffffffffffffffffffff16815260200190815260200160002061280b565b601360008673ffffffffffffffffffffffffffffffffffffffff1673ffffffffffffffffffffffffffffffffffffffff1681526020019081526020016000205b614f50565b91506128648a8281518110151561282357fe5b90602001906020020151838b8481518110151561283c57fe5b906020019060200201518b8581518110151561285457fe5b9060200190602002015187614fc7565b151561286f57600080fd5b806001019050612722565b600194505050505095945050505050565b600073ffffffffffffffffffffffffffffffffffffffff168173ffffffffffffffffffffffffffffffffffffffff16141515156128c757600080fd5b34600e60008373ffffffffffffffffffffffffffffffffffffffff1673ffffffffffffffffffffffffffffffffffffffff168152602001908152602001600020600073eeeeeeeeeeeeeeeeeeeeeeeeeeeeeeeeeeeeeeee73ffffffffffffffffffffffffffffffffffffffff1673ffffffffffffffffffffffffffffffffffffffff168152602001908152602001600020600082825401925050819055508073ffffffffffffffffffffffffffffffffffffffff167f939e51ac2fd009b158d6344f7e68a83d8d18d9b0cc88cf514aac6aaa9cad2a18346040518082815260200191505060405180910390a250565b600281565b60136020528060005260406000206000915090508060000160009054906101000a900463ffffffff16908060010154905082565b60006129ff60018686868661561a565b1515612a0a57600080fd5b60019050949350505050565b6000612a23600083615b3a565b1515612a2e57600080fd5b60019050919050565b612a3f6176e9565b6000806000601360008673ffffffffffffffffffffffffffffffffffffffff1673ffffffffffffffffffffffffffffffffffffffff1681526020019081526020016000209250612a8e83615e2c565b604051805910612a9b5750595b9080825280602002602001820160405250935060009150600090505b60208163ffffffff161015612b355760008163ffffffff1660019060020a028460010154161115612b2a57808360000160009054906101000a900463ffffffff16018483806001019450815181101515612b0d57fe5b9060200190602002019063ffffffff16908163ffffffff16815250505b806001019050612ab7565b505050919050565b612b456176e9565b6000600c60009054906101000a900473ffffffffffffffffffffffffffffffffffffffff169050612b7581615e6d565b91505090565b60006002800154836fffffffffffffffffffffffffffffffff1610151515612ba257600080fd5b600d60009054906101000a900473ffffffffffffffffffffffffffffffffffffffff1673ffffffffffffffffffffffffffffffffffffffff166385fcb4a884846000604051602001526040518363ffffffff167c010000000000000000000000000000000000000000000000000000000002815260040180836fffffffffffffffffffffffffffffffff166fffffffffffffffffffffffffffffffff168152602001826fffffffffffffffffffffffffffffffff166fffffffffffffffffffffffffffffffff16815260200192505050602060405180830381600087803b1515612c8b57600080fd5b6102c65a03f11515612c9c57600080fd5b50505060405180519050905092915050565b620186a081565b600c60009054906101000a900473ffffffffffffffffffffffffffffffffffffffff1681565b60068060000160009054906101000a900473ffffffffffffffffffffffffffffffffffffffff16908060010160009054906101000a900473ffffffffffffffffffffffffffffffffffffffff16908060020160009054906101000a900473ffffffffffffffffffffffffffffffffffffffff16908060030160009054906101000a900473ffffffffffffffffffffffffffffffffffffffff16908060040160009054906101000a900473ffffffffffffffffffffffffffffffffffffffff16908060050160009054906101000a900473ffffffffffffffffffffffffffffffffffffffff16905086565b6000806000806000600c60009054906101000a900473ffffffffffffffffffffffffffffffffffffffff1673ffffffffffffffffffffffffffffffffffffffff166361592b8587600060405160a001526040518263ffffffff167c0100000000000000000000000000000000000000000000000000000000028152600401808263ffffffff1663ffffffff16815260200191505060a060405180830381600087803b1515612e7257600080fd5b6102c65a03f11515612e8357600080fd5b505050604051805190602001805190602001805190602001805190602001805190509450945094509450945091939590929450565b600080600660030160009054906101000a900473ffffffffffffffffffffffffffffffffffffffff1673ffffffffffffffffffffffffffffffffffffffff163373ffffffffffffffffffffffffffffffffffffffff16141515612f1a57600080fd5b73eeeeeeeeeeeeeeeeeeeeeeeeeeeeeeeeeeeeeeee73ffffffffffffffffffffffffffffffffffffffff168873ffffffffffffffffffffffffffffffffffffffff161480612fa7575073eeeeeeeeeeeeeeeeeeeeeeeeeeeeeeeeeeeeeeee73ffffffffffffffffffffffffffffffffffffffff168673ffffffffffffffffffffffffffffffffffffffff16145b1515612fb257600080fd5b600660010160009054906101000a900473ffffffffffffffffffffffffffffffffffffffff1673ffffffffffffffffffffffffffffffffffffffff168873ffffffffffffffffffffffffffffffffffffffff1614806130615750600660010160009054906101000a900473ffffffffffffffffffffffffffffffffffffffff1673ffffffffffffffffffffffffffffffffffffffff168673ffffffffffffffffffffffffffffffffffffffff16145b151561306c57600080fd5b6b204fce5e3e25026110000000871115151561308757600080fd5b73eeeeeeeeeeeeeeeeeeeeeeeeeeeeeeeeeeeeeeee73ffffffffffffffffffffffffffffffffffffffff168873ffffffffffffffffffffffffffffffffffffffff1614156130e25786341415156130dd57600080fd5b6131f7565b6000341415156130f157600080fd5b8773ffffffffffffffffffffffffffffffffffffffff166323b872dd33308a6000604051602001526040518463ffffffff167c0100000000000000000000000000000000000000000000000000000000028152600401808473ffffffffffffffffffffffffffffffffffffffff1673ffffffffffffffffffffffffffffffffffffffff1681526020018373ffffffffffffffffffffffffffffffffffffffff1673ffffffffffffffffffffffffffffffffffffffff1681526020018281526020019350505050602060405180830381600087803b15156131d057600080fd5b6102c65a03f115156131e157600080fd5b5050506040518051905015156131f657600080fd5b5b613202888888616095565b905061322087826132128b61636f565b61321b8a61636f565b6164a5565b841115151561322e57600080fd5b73eeeeeeeeeeeeeeeeeeeeeeeeeeeeeeeeeeeeeeee73ffffffffffffffffffffffffffffffffffffffff168673ffffffffffffffffffffffffffffffffffffffff1614156132bb578473ffffffffffffffffffffffffffffffffffffffff166108fc829081150290604051600060405180830381858888f1935050505015156132b657600080fd5b61338d565b8573ffffffffffffffffffffffffffffffffffffffff1663a9059cbb86836000604051602001526040518363ffffffff167c0100000000000000000000000000000000000000000000000000000000028152600401808373ffffffffffffffffffffffffffffffffffffffff1673ffffffffffffffffffffffffffffffffffffffff16815260200182815260200192505050602060405180830381600087803b151561336657600080fd5b6102c65a03f1151561337757600080fd5b50505060405180519050151561338c57600080fd5b5b7f36cfc7e9779b5ccf22f92f2f0d9adf9c74df05ab07de27c8cb508020389f9adc88878984604051808573ffffffffffffffffffffffffffffffffffffffff1673ffffffffffffffffffffffffffffffffffffffff1681526020018473ffffffffffffffffffffffffffffffffffffffff1673ffffffffffffffffffffffffffffffffffffffff16815260200183815260200182815260200194505050505060405180910390a160019150509695505050505050565b6134538888888888888888616556565b505050505050505050565b600061346c83836000613eed565b905092915050565b600061348283836000611b4e565b905092915050565b606481565b600080600061349c6176fd565b600080600073eeeeeeeeeeeeeeeeeeeeeeeeeeeeeeeeeeeeeeee73ffffffffffffffffffffffffffffffffffffffff168b73ffffffffffffffffffffffffffffffffffffffff16148061352e575073eeeeeeeeeeeeeeeeeeeeeeeeeeeeeeeeeeeeeeee73ffffffffffffffffffffffffffffffffffffffff168a73ffffffffffffffffffffffffffffffffffffffff16145b151561353957600080fd5b600660010160009054906101000a900473ffffffffffffffffffffffffffffffffffffffff1673ffffffffffffffffffffffffffffffffffffffff168b73ffffffffffffffffffffffffffffffffffffffff1614806135e85750600660010160009054906101000a900473ffffffffffffffffffffffffffffffffffffffff1673ffffffffffffffffffffffffffffffffffffffff168a73ffffffffffffffffffffffffffffffffffffffff16145b15156135f357600080fd5b6b204fce5e3e25026110000000891115151561360e57600080fd5b613616614d12565b1561362457600096506138ad565b73eeeeeeeeeeeeeeeeeeeeeeeeeeeeeeeeeeeeeeee73ffffffffffffffffffffffffffffffffffffffff168b73ffffffffffffffffffffffffffffffffffffffff161461369357600d60009054906101000a900473ffffffffffffffffffffffffffffffffffffffff166136b7565b600c60009054906101000a900473ffffffffffffffffffffffffffffffffffffffff165b95508892506000915060026001015490508573ffffffffffffffffffffffffffffffffffffffff1663a3fb59176000604051604001526040518163ffffffff167c01000000000000000000000000000000000000000000000000000000000281526004016040805180830381600087803b151561373357600080fd5b6102c65a03f1151561374457600080fd5b5050506040518051906020018051905085604001811515151581525081965050505b6000836fffffffffffffffffffffffffffffffff1611801561378a57508360400151155b801561379d575060008180600190039250115b15613857576137ac86866169c9565b9350826fffffffffffffffffffffffffffffffff1684608001516fffffffffffffffffffffffffffffffff161115156137f65783606001518201915083608001518303925061384b565b83608001516fffffffffffffffffffffffffffffffff16836fffffffffffffffffffffffffffffffff1685606001516fffffffffffffffffffffffffffffffff160281151561384157fe5b0482019150600092505b83602001519450613766565b6000836fffffffffffffffffffffffffffffffff1614151561387c57600096506138ad565b6138aa89836fffffffffffffffffffffffffffffffff1661389c8e61636f565b6138a58e61636f565b6164a5565b96505b505050505050949350505050565b6000600660020160009054906101000a900473ffffffffffffffffffffffffffffffffffffffff1673ffffffffffffffffffffffffffffffffffffffff1663301254166000604051602001526040518163ffffffff167c0100000000000000000000000000000000000000000000000000000000028152600401602060405180830381600087803b151561394e57600080fd5b6102c65a03f1151561395f57600080fd5b50505060405180519050905060015481101561397d57806001819055505b50565b6000600561398d836139ad565b029050919050565b60006139a484848460006129ef565b90509392505050565b6000670de0b6b3a7640000612710026001546011548402028115156139ce57fe5b049050919050565b60028060000154908060010154908060020154908060030154905084565b600080613a00836141b0565b9050600f60008473ffffffffffffffffffffffffffffffffffffffff1673ffffffffffffffffffffffffffffffffffffffff16815260200190815260200160002054811115613a525760009150613a97565b80600f60008573ffffffffffffffffffffffffffffffffffffffff1673ffffffffffffffffffffffffffffffffffffffff168152602001908152602001600020540391505b50919050565b60008060008060006002800154866fffffffffffffffffffffffffffffffff1610151515613aca57600080fd5b600c60009054906101000a900473ffffffffffffffffffffffffffffffffffffffff1673ffffffffffffffffffffffffffffffffffffffff166385fcb4a888886000604051602001526040518363ffffffff167c010000000000000000000000000000000000000000000000000000000002815260040180836fffffffffffffffffffffffffffffffff166fffffffffffffffffffffffffffffffff168152602001826fffffffffffffffffffffffffffffffff166fffffffffffffffffffffffffffffffff16815260200192505050602060405180830381600087803b1515613bb357600080fd5b6102c65a03f11515613bc457600080fd5b5050506040518051905093508763ffffffff168463ffffffff161415613cd157600c60009054906101000a900473ffffffffffffffffffffffffffffffffffffffff1673ffffffffffffffffffffffffffffffffffffffff166361592b8589600060405160a001526040518263ffffffff167c0100000000000000000000000000000000000000000000000000000000028152600401808263ffffffff1663ffffffff16815260200191505060a060405180830381600087803b1515613c8957600080fd5b6102c65a03f11515613c9a57600080fd5b5050506040518051906020018051906020018051906020018051906020018051905080955081985082965083965084975050505050505b839450505050509392505050565b6000613cef60008686868661561a565b1515613cfa57600080fd5b60019050949350505050565b600033905081600f60008373ffffffffffffffffffffffffffffffffffffffff1673ffffffffffffffffffffffffffffffffffffffff1681526020019081526020016000205410151515613d5957600080fd5b81613d63826139f4565b10151515613d7057600080fd5b81600f60008373ffffffffffffffffffffffffffffffffffffffff1673ffffffffffffffffffffffffffffffffffffffff16815260200190815260200160002060008282540392505081905550600660000160009054906101000a900473ffffffffffffffffffffffffffffffffffffffff1673ffffffffffffffffffffffffffffffffffffffff1663a9059cbb82846000604051602001526040518363ffffffff167c0100000000000000000000000000000000000000000000000000000000028152600401808373ffffffffffffffffffffffffffffffffffffffff1673ffffffffffffffffffffffffffffffffffffffff16815260200182815260200192505050602060405180830381600087803b1515613e8d57600080fd5b6102c65a03f11515613e9e57600080fd5b505050604051805190501515613eb357600080fd5b5050565b613ec2838383616b5b565b50505050565b6000613ed78484846000613cdf565b1515613ee257600080fd5b600190509392505050565b600080613f37601260003373ffffffffffffffffffffffffffffffffffffffff1673ffffffffffffffffffffffffffffffffffffffff168152602001908152602001600020614f50565b9050613f47600082878787614fc7565b9150509392505050565b6000806000806000600660040160009054906101000a900473ffffffffffffffffffffffffffffffffffffffff1673ffffffffffffffffffffffffffffffffffffffff166359e02dd76000604051604001526040518163ffffffff167c01000000000000000000000000000000000000000000000000000000000281526004016040805180830381600087803b1515613fe957600080fd5b6102c65a03f11515613ffa57600080fd5b50505060405180519060200180519050809450819550505082151561401e57600080fd5b670de0b6b3a7640000846001900481151561403557fe5b0491506000821415151561404857600080fd5b620186a08210151561405957600080fd5b8360019004670de0b6b3a764000080600260000154020281151561407957fe5b0490508060028001819055506002806002015481151561409557fe5b04600260030181905550600194505050505090565b6140b26176e9565b6000806000601260008673ffffffffffffffffffffffffffffffffffffffff1673ffffffffffffffffffffffffffffffffffffffff168152602001908152602001600020925061410183615e2c565b60405180591061410e5750595b9080825280602002602001820160405250935060009150600090505b60208163ffffffff1610156141a85760008163ffffffff1660019060020a02846001015416111561419d57808360000160009054906101000a900463ffffffff1601848380600101945081518110151561418057fe5b9060200190602002019063ffffffff16908163ffffffff16815250505b80600101905061412a565b505050919050565b60006141fa601060008473ffffffffffffffffffffffffffffffffffffffff1673ffffffffffffffffffffffffffffffffffffffff16815260200190815260200160002054613980565b9050919050565b6000806000806000600d60009054906101000a900473ffffffffffffffffffffffffffffffffffffffff1673ffffffffffffffffffffffffffffffffffffffff166361592b8587600060405160a001526040518263ffffffff167c0100000000000000000000000000000000000000000000000000000000028152600401808263ffffffff1663ffffffff16815260200191505060a060405180830381600087803b15156142ae57600080fd5b6102c65a03f115156142bf57600080fd5b505050604051805190602001805190602001805190602001805190602001805190509450945094509450945091939590929450565b600281565b60106020528060005260406000206000915090505481565b600073ffffffffffffffffffffffffffffffffffffffff168273ffffffffffffffffffffffffffffffffffffffff161415151561434d57600080fd5b6b204fce5e3e250261100000008110151561436757600080fd5b600660000160009054906101000a900473ffffffffffffffffffffffffffffffffffffffff1673ffffffffffffffffffffffffffffffffffffffff166323b872dd3330846000604051602001526040518463ffffffff167c0100000000000000000000000000000000000000000000000000000000028152600401808473ffffffffffffffffffffffffffffffffffffffff1673ffffffffffffffffffffffffffffffffffffffff1681526020018373ffffffffffffffffffffffffffffffffffffffff1673ffffffffffffffffffffffffffffffffffffffff1681526020018281526020019350505050602060405180830381600087803b151561446b57600080fd5b6102c65a03f1151561447c57600080fd5b50505060405180519050151561449157600080fd5b80600f60008473ffffffffffffffffffffffffffffffffffffffff1673ffffffffffffffffffffffffffffffffffffffff168152602001908152602001600020600082825401925050819055508173ffffffffffffffffffffffffffffffffffffffff167f7616f7b36d352f805882b5e6af4b72e6d1f325e5d73feef17ba9f06446849876826040518082815260200191505060405180910390a2614573601260008473ffffffffffffffffffffffffffffffffffffffff1673ffffffffffffffffffffffffffffffffffffffff168152602001908152602001600020616d11565b1561468c57614680601260008473ffffffffffffffffffffffffffffffffffffffff1673ffffffffffffffffffffffffffffffffffffffff168152602001908152602001600020600c60009054906101000a900473ffffffffffffffffffffffffffffffffffffffff1673ffffffffffffffffffffffffffffffffffffffff16631f38c35860206000604051602001526040518263ffffffff167c0100000000000000000000000000000000000000000000000000000000028152600401808263ffffffff1663ffffffff168152602001915050602060405180830381600087803b151561466057600080fd5b6102c65a03f1151561467157600080fd5b50505060405180519050616d48565b151561468b57600080fd5b5b6146d3601360008473ffffffffffffffffffffffffffffffffffffffff1673ffffffffffffffffffffffffffffffffffffffff168152602001908152602001600020616d11565b156147ec576147e0601360008473ffffffffffffffffffffffffffffffffffffffff1673ffffffffffffffffffffffffffffffffffffffff168152602001908152602001600020600d60009054906101000a900473ffffffffffffffffffffffffffffffffffffffff1673ffffffffffffffffffffffffffffffffffffffff16631f38c35860206000604051602001526040518263ffffffff167c0100000000000000000000000000000000000000000000000000000000028152600401808263ffffffff1663ffffffff168152602001915050602060405180830381600087803b15156147c057600080fd5b6102c65a03f115156147d157600080fd5b50505060405180519050616d48565b15156147eb57600080fd5b5b5050565b600e602052816000526040600020602052806000526040600020600091509150505481565b60115481565b600181565b600073eeeeeeeeeeeeeeeeeeeeeeeeeeeeeeeeeeeeeeee73ffffffffffffffffffffffffffffffffffffffff168373ffffffffffffffffffffffffffffffffffffffff161415614889578173ffffffffffffffffffffffffffffffffffffffff1631905061494a565b8273ffffffffffffffffffffffffffffffffffffffff166370a08231836000604051602001526040518263ffffffff167c0100000000000000000000000000000000000000000000000000000000028152600401808273ffffffffffffffffffffffffffffffffffffffff1673ffffffffffffffffffffffffffffffffffffffff168152602001915050602060405180830381600087803b151561492c57600080fd5b6102c65a03f1151561493d57600080fd5b5050506040518051905090505b92915050565b60008073ffffffffffffffffffffffffffffffffffffffff16600c60009054906101000a900473ffffffffffffffffffffffffffffffffffffffff1673ffffffffffffffffffffffffffffffffffffffff16141580156149ff5750600073ffffffffffffffffffffffffffffffffffffffff16600d60009054906101000a900473ffffffffffffffffffffffffffffffffffffffff1673ffffffffffffffffffffffffffffffffffffffff1614155b15614a0d5760019050614d0f565b600073ffffffffffffffffffffffffffffffffffffffff16600c60009054906101000a900473ffffffffffffffffffffffffffffffffffffffff1673ffffffffffffffffffffffffffffffffffffffff16141580614aba5750600073ffffffffffffffffffffffffffffffffffffffff16600d60009054906101000a900473ffffffffffffffffffffffffffffffffffffffff1673ffffffffffffffffffffffffffffffffffffffff1614155b15614ac457600080fd5b600660050160009054906101000a900473ffffffffffffffffffffffffffffffffffffffff1673ffffffffffffffffffffffffffffffffffffffff1663fccf6e67306000604051602001526040518263ffffffff167c0100000000000000000000000000000000000000000000000000000000028152600401808273ffffffffffffffffffffffffffffffffffffffff1673ffffffffffffffffffffffffffffffffffffffff168152602001915050602060405180830381600087803b1515614b8c57600080fd5b6102c65a03f11515614b9d57600080fd5b50505060405180519050600c60006101000a81548173ffffffffffffffffffffffffffffffffffffffff021916908373ffffffffffffffffffffffffffffffffffffffff160217905550600660050160009054906101000a900473ffffffffffffffffffffffffffffffffffffffff1673ffffffffffffffffffffffffffffffffffffffff1663fccf6e67306000604051602001526040518263ffffffff167c0100000000000000000000000000000000000000000000000000000000028152600401808273ffffffffffffffffffffffffffffffffffffffff1673ffffffffffffffffffffffffffffffffffffffff168152602001915050602060405180830381600087803b1515614caf57600080fd5b6102c65a03f11515614cc057600080fd5b50505060405180519050600d60006101000a81548173ffffffffffffffffffffffffffffffffffffffff021916908373ffffffffffffffffffffffffffffffffffffffff160217905550600190505b90565b6000600560015402600660020160009054906101000a900473ffffffffffffffffffffffffffffffffffffffff1673ffffffffffffffffffffffffffffffffffffffff1663301254166000604051602001526040518163ffffffff167c0100000000000000000000000000000000000000000000000000000000028152600401602060405180830381600087803b1515614dab57600080fd5b6102c65a03f11515614dbc57600080fd5b5050506040518051905011905090565b8060018190555050565b60008085518751141515614de957600080fd5b84518751141515614df957600080fd5b83518751141515614e0957600080fd5b82518751141515614e1957600080fd5b600090505b8651811015614ebd57614ea78782815181101515614e3857fe5b906020019060200201518783815181101515614e5057fe5b906020019060200201518784815181101515614e6857fe5b906020019060200201518785815181101515614e8057fe5b906020019060200201518786815181101515614e9857fe5b9060200190602002015161561a565b1515614eb257600080fd5b806001019050614e1e565b600191505095945050505050565b614ed36176e9565b6000600d60009054906101000a900473ffffffffffffffffffffffffffffffffffffffff169050614f0381615e6d565b91505090565b6000614f16600183615b3a565b1515614f2157600080fd5b60019050919050565b600d60009054906101000a900473ffffffffffffffffffffffffffffffffffffffff1681565b6000806000808460010154925060019150600090505b6020811015614fba5760008284161415614fa9578183178560010181905550808560000160009054906101000a900463ffffffff1663ffffffff16019350614fbf565b600282029150806001019050614f66565b600080fd5b505050919050565b6000806000806b204fce5e3e25026110000000876fffffffffffffffffffffffffffffffff16101515614ff957600080fd5b6b204fce5e3e25026110000000866fffffffffffffffffffffffffffffffff1610151561502557600080fd5b339250615034838a8989616dad565b151561503f57600080fd5b61506e876fffffffffffffffffffffffffffffffff16876fffffffffffffffffffffffffffffffff168b616e2e565b151561507957600080fd5b60009150886150aa57600c60009054906101000a900473ffffffffffffffffffffffffffffffffffffffff166150ce565b600d60009054906101000a900473ffffffffffffffffffffffffffffffffffffffff165b905060008563ffffffff16141515615221578073ffffffffffffffffffffffffffffffffffffffff1663a5da0bf5848a8a8a8a6000604051602001526040518663ffffffff167c0100000000000000000000000000000000000000000000000000000000028152600401808673ffffffffffffffffffffffffffffffffffffffff1673ffffffffffffffffffffffffffffffffffffffff1681526020018563ffffffff1663ffffffff168152602001846fffffffffffffffffffffffffffffffff166fffffffffffffffffffffffffffffffff168152602001836fffffffffffffffffffffffffffffffff166fffffffffffffffffffffffffffffffff1681526020018263ffffffff1663ffffffff16815260200195505050505050602060405180830381600087803b151561520357600080fd5b6102c65a03f1151561521457600080fd5b5050506040518051905091505b81151561535e578073ffffffffffffffffffffffffffffffffffffffff1663c92ba8b2848a8a8a6000604051602001526040518563ffffffff167c0100000000000000000000000000000000000000000000000000000000028152600401808573ffffffffffffffffffffffffffffffffffffffff1673ffffffffffffffffffffffffffffffffffffffff1681526020018463ffffffff1663ffffffff168152602001836fffffffffffffffffffffffffffffffff166fffffffffffffffffffffffffffffffff168152602001826fffffffffffffffffffffffffffffffff166fffffffffffffffffffffffffffffffff168152602001945050505050602060405180830381600087803b151561533757600080fd5b6102c65a03f1151561534857600080fd5b50505060405180519050151561535d57600080fd5b5b8273ffffffffffffffffffffffffffffffffffffffff167f2fb3fe66d41cb2d1b0d335656d86e7c779ebdc34c6f6fc806d35790a30be0e6d898b8a8a87604051808663ffffffff1663ffffffff16815260200185151515158152602001846fffffffffffffffffffffffffffffffff166fffffffffffffffffffffffffffffffff168152602001836fffffffffffffffffffffffffffffffff166fffffffffffffffffffffffffffffffff168152602001821515151581526020019550505050505060405180910390a26001935050505095945050505050565b600080600083121561552a57826000039050601060008573ffffffffffffffffffffffffffffffffffffffff1673ffffffffffffffffffffffffffffffffffffffff168152602001908152602001600020548111156154d457601060008573ffffffffffffffffffffffffffffffffffffffff1673ffffffffffffffffffffffffffffffffffffffff1681526020019081526020016000205490505b80601060008673ffffffffffffffffffffffffffffffffffffffff1673ffffffffffffffffffffffffffffffffffffffff1681526020019081526020016000206000828254039250508190555060019150615613565b61557483601060008773ffffffffffffffffffffffffffffffffffffffff1673ffffffffffffffffffffffffffffffffffffffff1681526020019081526020016000205401613980565b600f60008673ffffffffffffffffffffffffffffffffffffffff1673ffffffffffffffffffffffffffffffffffffffff16815260200190815260200160002054101515156155c157600080fd5b82601060008673ffffffffffffffffffffffffffffffffffffffff1673ffffffffffffffffffffffffffffffffffffffff16815260200190815260200160002060008282540192505081905550600191505b5092915050565b6000806000806000806000806b204fce5e3e250261100000008b6fffffffffffffffffffffffffffffffff1610151561565257600080fd5b6b204fce5e3e250261100000008a6fffffffffffffffffffffffffffffffff1610151561567e57600080fd5b6156ad8b6fffffffffffffffffffffffffffffffff168b6fffffffffffffffffffffffffffffffff168f616e2e565b15156156b857600080fd5b8c6156e557600c60009054906101000a900473ffffffffffffffffffffffffffffffffffffffff16615709565b600d60009054906101000a900473ffffffffffffffffffffffffffffffffffffffff165b91508173ffffffffffffffffffffffffffffffffffffffff166361592b858d600060405160a001526040518263ffffffff167c0100000000000000000000000000000000000000000000000000000000028152600401808263ffffffff1663ffffffff16815260200191505060a060405180830381600087803b151561578e57600080fd5b6102c65a03f1151561579f57600080fd5b50505060405180519060200180519060200180519060200180519060200180519050809850819850829a50839950849b5050505050503373ffffffffffffffffffffffffffffffffffffffff168773ffffffffffffffffffffffffffffffffffffffff1614151561580f57600080fd5b61581d878e87898f8f616ee0565b151561582c5760009750615b2a565b6000905060008963ffffffff16141515615958578173ffffffffffffffffffffffffffffffffffffffff1663a590529e8d8d8d8d6000604051604001526040518563ffffffff167c0100000000000000000000000000000000000000000000000000000000028152600401808563ffffffff1663ffffffff168152602001846fffffffffffffffffffffffffffffffff166fffffffffffffffffffffffffffffffff168152602001836fffffffffffffffffffffffffffffffff166fffffffffffffffffffffffffffffffff1681526020018263ffffffff1663ffffffff1681526020019450505050506040805180830381600087803b151561592e57600080fd5b6102c65a03f1151561593f57600080fd5b5050506040518051906020018051905080945081925050505b801515615a61578173ffffffffffffffffffffffffffffffffffffffff1663cb2f7b878d8d8d6000604051602001526040518463ffffffff167c0100000000000000000000000000000000000000000000000000000000028152600401808463ffffffff1663ffffffff168152602001836fffffffffffffffffffffffffffffffff166fffffffffffffffffffffffffffffffff168152602001826fffffffffffffffffffffffffffffffff166fffffffffffffffffffffffffffffffff1681526020019350505050602060405180830381600087803b1515615a3a57600080fd5b6102c65a03f11515615a4b57600080fd5b505050604051805190501515615a6057600080fd5b5b8673ffffffffffffffffffffffffffffffffffffffff167f2bf327e052ee7ab98550e3d864a5b2a61f7737dc75cbcaada4e55f88222ebbd78e8e8e8e8660405180861515151581526020018563ffffffff168152602001846fffffffffffffffffffffffffffffffff166fffffffffffffffffffffffffffffffff168152602001836fffffffffffffffffffffffffffffffff166fffffffffffffffffffffffffffffffff168152602001821515151581526020019550505050505060405180910390a2600197505b5050505050505095945050505050565b6000806000615b476176fd565b600033935086615b7957600c60009054906101000a900473ffffffffffffffffffffffffffffffffffffffff16615b9d565b600d60009054906101000a900473ffffffffffffffffffffffffffffffffffffffff165b9250615ba983876169c9565b91508373ffffffffffffffffffffffffffffffffffffffff16826000015173ffffffffffffffffffffffffffffffffffffffff16141515615be957600080fd5b86615bf8578160800151615bfe565b81606001515b6fffffffffffffffffffffffffffffffff169050615c1e84826000616b5b565b1515615c2957600080fd5b615c7a838589615c5e57600660010160009054906101000a900473ffffffffffffffffffffffffffffffffffffffff16615c74565b73eeeeeeeeeeeeeeeeeeeeeeeeeeeeeeeeeeeeeeee5b89616fd5565b1515615c8557600080fd5b81606001516fffffffffffffffffffffffffffffffff16600e60008673ffffffffffffffffffffffffffffffffffffffff1673ffffffffffffffffffffffffffffffffffffffff168152602001908152602001600020600089615d0d57600660010160009054906101000a900473ffffffffffffffffffffffffffffffffffffffff16615d23565b73eeeeeeeeeeeeeeeeeeeeeeeeeeeeeeeeeeeeeeee5b73ffffffffffffffffffffffffffffffffffffffff1673ffffffffffffffffffffffffffffffffffffffff168152602001908152602001600020600082825401925050819055508373ffffffffffffffffffffffffffffffffffffffff167f179f16fddc625e40df9cb92cfcea70d64a6262c82b7a769e52996b1ff511ff5688888560600151866080015160405180851515151581526020018463ffffffff1663ffffffff168152602001836fffffffffffffffffffffffffffffffff166fffffffffffffffffffffffffffffffff168152602001826fffffffffffffffffffffffffffffffff16815260200194505050505060405180910390a2600194505050505092915050565b600080600090505b6020811015615e675760008160019060020a028460010154161115615e5c5781806001019250505b806001019050615e34565b50919050565b615e756176e9565b615e7d6176fd565b6000806000808673ffffffffffffffffffffffffffffffffffffffff1663a3fb59176000604051604001526040518163ffffffff167c01000000000000000000000000000000000000000000000000000000000281526004016040805180830381600087803b1515615eee57600080fd5b6102c65a03f11515615eff57600080fd5b5050506040518051906020018051905080945081955050508215615f44576000604051805910615f2c5750595b9080825280602002602001820160405250955061608b565b600091505b84604001511515615f7457615f5e87856169c9565b9450818060010192505084602001519350615f49565b81604051805910615f825750595b908082528060200260200182016040525095508673ffffffffffffffffffffffffffffffffffffffff1663a3fb59176000604051604001526040518163ffffffff167c01000000000000000000000000000000000000000000000000000000000281526004016040805180830381600087803b151561600057600080fd5b6102c65a03f1151561601157600080fd5b505050604051805190602001805190508660400181151515158152508195505050600090505b8181101561608a5783868281518110151561604e57fe5b9060200190602002019063ffffffff16908163ffffffff168152505061607487856169c9565b9450846020015193508080600101915050616037565b5b5050505050919050565b60008060006160a26176fd565b600080600073eeeeeeeeeeeeeeeeeeeeeeeeeeeeeeeeeeeeeeee73ffffffffffffffffffffffffffffffffffffffff168a73ffffffffffffffffffffffffffffffffffffffff161461611657600d60009054906101000a900473ffffffffffffffffffffffffffffffffffffffff1661613a565b600c60009054906101000a900473ffffffffffffffffffffffffffffffffffffffff165b9550889250600091508573ffffffffffffffffffffffffffffffffffffffff1663a3fb59176000604051604001526040518163ffffffff167c01000000000000000000000000000000000000000000000000000000000281526004016040805180830381600087803b15156161ae57600080fd5b6102c65a03f115156161bf57600080fd5b5050506040518051906020018051905085604001811515151581525081965050505b6000836fffffffffffffffffffffffffffffffff1611801561620557508360400151155b1561630e5761621486866169c9565b9350826fffffffffffffffffffffffffffffffff1684608001516fffffffffffffffffffffffffffffffff16111515616283578360600151820191508360800151830392506162738460000151868c8b8860800151896060015161716f565b151561627e57600080fd5b616302565b83608001516fffffffffffffffffffffffffffffffff16836fffffffffffffffffffffffffffffffff1685606001516fffffffffffffffffffffffffffffffff16028115156162ce57fe5b04905080820191506162f28460000151868c8b87868a606001518b60800151616556565b15156162fd57600080fd5b600092505b836020015194506161e1565b6000836fffffffffffffffffffffffffffffffff1614801561634257506000826fffffffffffffffffffffffffffffffff16115b151561634d57600080fd5b816fffffffffffffffffffffffffffffffff1696505050505050509392505050565b60008073eeeeeeeeeeeeeeeeeeeeeeeeeeeeeeeeeeeeeeee73ffffffffffffffffffffffffffffffffffffffff168373ffffffffffffffffffffffffffffffffffffffff1614156163c3576012915061649f565b6000808473ffffffffffffffffffffffffffffffffffffffff1673ffffffffffffffffffffffffffffffffffffffff168152602001908152602001600020549050600081141561649b578273ffffffffffffffffffffffffffffffffffffffff1663313ce5676000604051602001526040518163ffffffff167c0100000000000000000000000000000000000000000000000000000000028152600401602060405180830381600087803b151561647957600080fd5b6102c65a03f1151561648a57600080fd5b50505060405180519050915061649f565b8091505b50919050565b60006b204fce5e3e2502611000000085111515156164c257600080fd5b6b204fce5e3e2502611000000084111515156164dd57600080fd5b828210151561651c576012838303111515156164f857600080fd5b84838303600a0a02670de0b6b3a7640000850281151561651457fe5b04905061654e565b60128284031115151561652e57600080fd5b84828403600a0a670de0b6b3a764000086020281151561654a57fe5b0490505b949350505050565b6000806000806000856fffffffffffffffffffffffffffffffff16896fffffffffffffffffffffffffffffffff1610151561659057600080fd5b866fffffffffffffffffffffffffffffffff16886fffffffffffffffffffffffffffffffff161015156165c257600080fd5b8787039650888603955073eeeeeeeeeeeeeeeeeeeeeeeeeeeeeeeeeeeeeeee73ffffffffffffffffffffffffffffffffffffffff168b73ffffffffffffffffffffffffffffffffffffffff161461663b57600d60009054906101000a900473ffffffffffffffffffffffffffffffffffffffff1661665f565b600c60009054906101000a900473ffffffffffffffffffffffffffffffffffffffff165b935073eeeeeeeeeeeeeeeeeeeeeeeeeeeeeeeeeeeeeeee73ffffffffffffffffffffffffffffffffffffffff168b73ffffffffffffffffffffffffffffffffffffffff16146166ae57866166b0565b855b6fffffffffffffffffffffffffffffffff1692506000915060026003015483101561679057866fffffffffffffffffffffffffffffffff16600e60008f73ffffffffffffffffffffffffffffffffffffffff1673ffffffffffffffffffffffffffffffffffffffff16815260200190815260200160002060008c73ffffffffffffffffffffffffffffffffffffffff1673ffffffffffffffffffffffffffffffffffffffff16815260200190815260200160002060008282540192505081905550829150616780848e8c8f616fd5565b151561678b57600080fd5b6168b2565b8373ffffffffffffffffffffffffffffffffffffffff1663a590529e8d898960026000604051604001526040518563ffffffff167c0100000000000000000000000000000000000000000000000000000000028152600401808563ffffffff1663ffffffff168152602001846fffffffffffffffffffffffffffffffff166fffffffffffffffffffffffffffffffff168152602001836fffffffffffffffffffffffffffffffff166fffffffffffffffffffffffffffffffff1681526020018263ffffffff1663ffffffff1681526020019450505050506040805180830381600087803b151561687f57600080fd5b6102c65a03f1151561689057600080fd5b5050506040518051906020018051905050809150508015156168b157600080fd5b5b7fd499cca7d46b5236c2cb522ceec930ccf485eefca1f0472c020a1b7328bf06438d8d73eeeeeeeeeeeeeeeeeeeeeeeeeeeeeeeeeeeeeeee73ffffffffffffffffffffffffffffffffffffffff168e73ffffffffffffffffffffffffffffffffffffffff161460008611604051808573ffffffffffffffffffffffffffffffffffffffff1673ffffffffffffffffffffffffffffffffffffffff1681526020018463ffffffff1663ffffffff168152602001831515151581526020018215151515815260200194505050505060405180910390a16169b78d8c8b6fffffffffffffffffffffffffffffffff168b6fffffffffffffffffffffffffffffffff1686617322565b94505050505098975050505050505050565b6169d16176fd565b60008373ffffffffffffffffffffffffffffffffffffffff166361592b8584600060405160a001526040518263ffffffff167c0100000000000000000000000000000000000000000000000000000000028152600401808263ffffffff1663ffffffff16815260200191505060a060405180830381600087803b1515616a5657600080fd5b6102c65a03f11515616a6757600080fd5b50505060405180519060200180519060200180519060200180519060200180519050866000018760600188608001896020018463ffffffff1663ffffffff16815250849850856fffffffffffffffffffffffffffffffff166fffffffffffffffffffffffffffffffff16815250856fffffffffffffffffffffffffffffffff166fffffffffffffffffffffffffffffffff168152508573ffffffffffffffffffffffffffffffffffffffff1673ffffffffffffffffffffffffffffffffffffffff168152505050505050600163ffffffff16826020015163ffffffff16148260400190151590811515815250505092915050565b600080838311151515616b6d57600080fd5b601060008673ffffffffffffffffffffffffffffffffffffffff1673ffffffffffffffffffffffffffffffffffffffff16815260200190815260200160002054841115616bfe576000601060008773ffffffffffffffffffffffffffffffffffffffff1673ffffffffffffffffffffffffffffffffffffffff16815260200190815260200160002081905550616c4c565b83601060008773ffffffffffffffffffffffffffffffffffffffff1673ffffffffffffffffffffffffffffffffffffffff168152602001908152602001600020600082825403925050819055505b6000831415616c5e5760019150616d09565b616c6783611bb2565b905080600f60008773ffffffffffffffffffffffffffffffffffffffff1673ffffffffffffffffffffffffffffffffffffffff1681526020019081526020016000205410151515616cb757600080fd5b80600f60008773ffffffffffffffffffffffffffffffffffffffff1673ffffffffffffffffffffffffffffffffffffffff16815260200190815260200160002060008282540392505081905550600191505b509392505050565b6000808260000160009054906101000a900463ffffffff1663ffffffff161415616d3e5760019050616d43565b600090505b919050565b6000808360000160009054906101000a900463ffffffff1663ffffffff161115616d755760009050616da7565b818360000160006101000a81548163ffffffff021916908363ffffffff16021790555060008360010181905550600190505b92915050565b60008084616dbb5782616dbd565b835b6fffffffffffffffffffffffffffffffff16905060028001548110151515616de457600080fd5b616e018686866fffffffffffffffffffffffffffffffff16617419565b1515616e0c57600080fd5b616e168682615438565b1515616e2157600080fd5b6001915050949350505050565b6000808215616e7857616e718486616e6a600660010160009054906101000a900473ffffffffffffffffffffffffffffffffffffffff1661636f565b60126164a5565b9050616eb5565b616eb284866012616ead600660010160009054906101000a900473ffffffffffffffffffffffffffffffffffffffff1661636f565b6164a5565b90505b620f4240670de0b6b3a764000002811115616ed35760009150616ed8565b600191505b509392505050565b600080600087616ef05783616ef2565b845b6fffffffffffffffffffffffffffffffff16915087616f3757856fffffffffffffffffffffffffffffffff16846fffffffffffffffffffffffffffffffff1603616f5f565b866fffffffffffffffffffffffffffffffff16856fffffffffffffffffffffffffffffffff16035b905060028001548210151515616f7457600080fd5b616fa58989896fffffffffffffffffffffffffffffffff16886fffffffffffffffffffffffffffffffff1603617419565b1515616fb057600080fd5b616fba8982615438565b1515616fc557600080fd5b6001925050509695505050505050565b6000808573ffffffffffffffffffffffffffffffffffffffff1662d84fd8846000604051602001526040518263ffffffff167c0100000000000000000000000000000000000000000000000000000000028152600401808263ffffffff1663ffffffff168152602001915050602060405180830381600087803b151561705a57600080fd5b6102c65a03f1151561706b57600080fd5b50505060405180519050151561708057600080fd5b73eeeeeeeeeeeeeeeeeeeeeeeeeeeeeeeeeeeeeeee73ffffffffffffffffffffffffffffffffffffffff168473ffffffffffffffffffffffffffffffffffffffff161461710b57601260008673ffffffffffffffffffffffffffffffffffffffff1673ffffffffffffffffffffffffffffffffffffffff16815260200190815260200160002061714b565b601360008673ffffffffffffffffffffffffffffffffffffffff1673ffffffffffffffffffffffffffffffffffffffff1681526020019081526020016000205b90506171578184617621565b151561716257600080fd5b6001915050949350505050565b60008073eeeeeeeeeeeeeeeeeeeeeeeeeeeeeeeeeeeeeeee73ffffffffffffffffffffffffffffffffffffffff168673ffffffffffffffffffffffffffffffffffffffff16146171e157600d60009054906101000a900473ffffffffffffffffffffffffffffffffffffffff16617205565b600c60009054906101000a900473ffffffffffffffffffffffffffffffffffffffff165b90506172138189878a616fd5565b151561721e57600080fd5b7ffc2eaa59b7259e4eb0ce92d7a86fce8b0fb67fade6f9f69df98f4771035a50c2888873eeeeeeeeeeeeeeeeeeeeeeeeeeeeeeeeeeeeeeee73ffffffffffffffffffffffffffffffffffffffff168973ffffffffffffffffffffffffffffffffffffffff1614604051808473ffffffffffffffffffffffffffffffffffffffff1673ffffffffffffffffffffffffffffffffffffffff1681526020018363ffffffff1663ffffffff16815260200182151515158152602001935050505060405180910390a16173158887866fffffffffffffffffffffffffffffffff16866fffffffffffffffffffffffffffffffff166000617322565b9150509695505050505050565b60008073eeeeeeeeeeeeeeeeeeeeeeeeeeeeeeeeeeeeeeee73ffffffffffffffffffffffffffffffffffffffff168673ffffffffffffffffffffffffffffffffffffffff16146173725783617374565b845b905084600e60008973ffffffffffffffffffffffffffffffffffffffff1673ffffffffffffffffffffffffffffffffffffffff16815260200190815260200160002060008873ffffffffffffffffffffffffffffffffffffffff1673ffffffffffffffffffffffffffffffffffffffff1681526020019081526020016000206000828254019250508190555061740d8784830183616b5b565b91505095945050505050565b6000808361744c57600660010160009054906101000a900473ffffffffffffffffffffffffffffffffffffffff16617462565b73eeeeeeeeeeeeeeeeeeeeeeeeeeeeeeeeeeeeeeee5b905060008312156174ff5782600003600e60008773ffffffffffffffffffffffffffffffffffffffff1673ffffffffffffffffffffffffffffffffffffffff16815260200190815260200160002060008373ffffffffffffffffffffffffffffffffffffffff1673ffffffffffffffffffffffffffffffffffffffff16815260200190815260200160002060008282540192505081905550617615565b82600e60008773ffffffffffffffffffffffffffffffffffffffff1673ffffffffffffffffffffffffffffffffffffffff16815260200190815260200160002060008373ffffffffffffffffffffffffffffffffffffffff1673ffffffffffffffffffffffffffffffffffffffff168152602001908152602001600020541015151561758a57600080fd5b82600e60008773ffffffffffffffffffffffffffffffffffffffff1673ffffffffffffffffffffffffffffffffffffffff16815260200190815260200160002060008373ffffffffffffffffffffffffffffffffffffffff1673ffffffffffffffffffffffffffffffffffffffff168152602001908152602001600020600082825403925050819055505b60019150509392505050565b60008060008460000160009054906101000a900463ffffffff1663ffffffff168463ffffffff161015151561765557600080fd5b60208560000160009054906101000a900463ffffffff1663ffffffff16018463ffffffff1610151561768657600080fd5b8460000160009054906101000a900463ffffffff1663ffffffff168463ffffffff160391508160019060020a0290506000856001015482161115156176ca57600080fd5b8019856001016000828254169250508190555060019250505092915050565b602060405190810160405280600081525090565b60a060405190810160405280600073ffffffffffffffffffffffffffffffffffffffff168152602001600063ffffffff16815260200160001515815260200160006fffffffffffffffffffffffffffffffff16815260200160006fffffffffffffffffffffffffffffffff1681525090565b73eeeeeeeeeeeeeeeeeeeeeeeeeeeeeeeeeeeeeeee73ffffffffffffffffffffffffffffffffffffffff168173ffffffffffffffffffffffffffffffffffffffff1614156178005760126000808373ffffffffffffffffffffffffffffffffffffffff1673ffffffffffffffffffffffffffffffffffffffff168152602001908152602001600020819055506178ca565b8073ffffffffffffffffffffffffffffffffffffffff1663313ce5676000604051602001526040518163ffffffff167c0100000000000000000000000000000000000000000000000000000000028152600401602060405180830381600087803b151561786c57600080fd5b6102c65a03f1151561787d57600080fd5b505050604051805190506000808373ffffffffffffffffffffffffffffffffffffffff1673ffffffffffffffffffffffffffffffffffffffff168152602001908152602001600020819055505b505600a165627a7a72305820dbb9fca556524e23a788cb3542f87b05f8cb76b12e6a865f0f30033527077ae90029",
  "source": "pragma solidity 0.4.18;\n\n\nimport \"../OrderbookReserve.sol\";\n\n\ncontract MockOrderbookReserve is OrderbookReserve {\n\n    function MockOrderbookReserve(\n        ERC20 knc,\n        ERC20 reserveToken,\n        address burner,\n        address network,\n        MedianizerInterface medianizer,\n        OrderListFactoryInterface factory,\n        uint minNewOrderDollar,\n        uint maxOrdersPerTrade,\n        uint burnFeeBps\n    )\n        public\n        OrderbookReserve(knc, reserveToken, burner, network, medianizer, factory, minNewOrderDollar, maxOrdersPerTrade,\n            burnFeeBps)\n    {\n    }\n\n    function testBindStakes(address maker, int amountWei) public {\n        bindOrderStakes(maker, amountWei);\n    }\n\n    function testHandleStakes(address maker, uint weiAmount, uint burnWeiAmount) public {\n        releaseOrderStakes(maker, weiAmount, burnWeiAmount);\n    }\n\n    function setBaseKncPerEthRate(uint rate) public {\n        kncPerEthBaseRatePrecision = rate;\n    }\n\n    function testTakePartialOrder(\n        address maker,\n        uint32 orderId,\n        ERC20 userSrc,\n        ERC20 userDst,\n        uint128 userPartialSrcAmount,\n        uint128 userTakeDstAmount,\n        uint128 orderSrcAmount,\n        uint128 orderDstAmount\n    ) public {\n        takePartialOrder(maker, orderId, userSrc, userDst, userPartialSrcAmount, userTakeDstAmount, orderSrcAmount, orderDstAmount);\n    }\n}\n",
  "sourcePath": "/Users/oscarr/Ethereum/frappe/contracts/permissionless/mock/MockOrderbookReserve.sol",
  "compiler": {
    "name": "solc",
    "version": "0.4.18+commit.9cf6e910.Emscripten.clang"
  },
  "schemaVersion": "3.0.6",
  "updatedAt": "2019-05-18T17:14:13.500Z",
  "devdoc": {
    "methods": {
      "addOrderBatch(bool[],uint128[],uint128[],uint32[],bool[])": {
        "details": "notice here a batch of orders represented in arrays. order x is represented by x cells of all arrays.all arrays expected to the same length.",
        "params": {
          "dstAmount": "per each order. destination amount for order x.",
          "hintPrevOrder": "per each order what is the order it should be added after in ordered list. 0 for no hint.",
          "isAfterPrevOrder": "per each order, set true if should be added in list right after previous added order.",
          "isEthToToken": "per each order. is order x eth to token (= src is Eth) or vice versa.",
          "srcAmount": "per each order. source amount for order x."
        }
      },
      "getBalance(address,address)": {
        "details": "get the balance of a user.",
        "params": {
          "token": "The token type"
        },
        "return": "The balance"
      },
      "getEthToTokenMakerOrderIds(address)": {
        "details": "This function is not fully optimized gas wise. Consider before calling on chain."
      },
      "getEthToTokenOrderList()": {
        "details": "This function is not fully optimized gas wise. Consider before calling on chain."
      },
      "getTokenToEthMakerOrderIds(address)": {
        "details": "This function is not fully optimized gas wise. Consider before calling on chain."
      },
      "getTokenToEthOrderList()": {
        "details": "This function is not fully optimized gas wise. Consider before calling on chain."
      },
      "init()": {
        "details": "separate init function for this contract, if this init is in the C'tor. gas consumption too high."
      },
      "kncRateBlocksTrade()": {
        "details": "Each maker stakes per order KNC that is factor of the required burn amount.If Knc per Eth rate becomes lower by more then factor, stake will not be enough and trade will be blocked."
      },
      "submitEthToTokenOrder(uint128,uint128)": {
        "params": {
          "dstAmount": "is the token amount the maker expects to get for his Ether.",
          "srcAmount": "is the Ether amount that will be payed, must be deposited before hand."
        }
      },
      "submitTokenToEthOrder(uint128,uint128)": {
        "params": {
          "dstAmount": "is the eth amount the maker expects to get for his tokens.",
          "srcAmount": "is the token amount that will be payed. must be deposited before hand in the makers account."
        }
      }
    }
  },
  "userdoc": {
    "methods": {}
  }
}