{
  "contractName": "MockKyberNetwork",
  "abi": [
    {
      "constant": true,
      "inputs": [],
      "name": "REVERT_HINT",
      "outputs": [
        {
          "name": "",
          "type": "uint256"
        }
      ],
      "payable": false,
      "stateMutability": "view",
      "type": "function"
    },
    {
      "constant": true,
      "inputs": [
        {
          "name": "",
          "type": "bytes32"
        }
      ],
      "name": "pairRate",
      "outputs": [
        {
          "name": "",
          "type": "uint256"
        }
      ],
      "payable": false,
      "stateMutability": "view",
      "type": "function"
    },
    {
      "payable": true,
      "stateMutability": "payable",
      "type": "fallback"
    },
    {
      "constant": false,
      "inputs": [
        {
          "name": "src",
          "type": "address"
        },
        {
          "name": "dest",
          "type": "address"
        },
        {
          "name": "rate",
          "type": "uint256"
        }
      ],
      "name": "setPairRate",
      "outputs": [],
      "payable": false,
      "stateMutability": "nonpayable",
      "type": "function"
    },
    {
      "constant": false,
      "inputs": [
        {
          "name": "src",
          "type": "address"
        },
        {
          "name": "srcAmount",
          "type": "uint256"
        },
        {
          "name": "dest",
          "type": "address"
        },
        {
          "name": "destAddress",
          "type": "address"
        },
        {
          "name": "maxDestAmount",
          "type": "uint256"
        },
        {
          "name": "minConversionRate",
          "type": "uint256"
        },
        {
          "name": "walletId",
          "type": "address"
        }
      ],
      "name": "trade",
      "outputs": [
        {
          "name": "",
          "type": "uint256"
        }
      ],
      "payable": true,
      "stateMutability": "payable",
      "type": "function"
    },
    {
      "constant": true,
      "inputs": [
        {
          "name": "src",
          "type": "address"
        },
        {
          "name": "dest",
          "type": "address"
        },
        {
          "name": "srcQty",
          "type": "uint256"
        }
      ],
      "name": "getExpectedRate",
      "outputs": [
        {
          "name": "expectedRate",
          "type": "uint256"
        },
        {
          "name": "slippageRate",
          "type": "uint256"
        }
      ],
      "payable": false,
      "stateMutability": "view",
      "type": "function"
    },
    {
      "constant": true,
      "inputs": [
        {
          "name": "src",
          "type": "address"
        },
        {
          "name": "dest",
          "type": "address"
        },
        {
          "name": "srcAmount",
          "type": "uint256"
        }
      ],
      "name": "findBestRate",
      "outputs": [
        {
          "name": "obsolete",
          "type": "uint256"
        },
        {
          "name": "rate",
          "type": "uint256"
        }
      ],
      "payable": false,
      "stateMutability": "view",
      "type": "function"
    },
    {
      "constant": true,
      "inputs": [
        {
          "name": "src",
          "type": "address"
        },
        {
          "name": "dest",
          "type": "address"
        },
        {
          "name": "srcAmount",
          "type": "uint256"
        }
      ],
      "name": "findBestRateOnlyPermission",
      "outputs": [
        {
          "name": "obsolete",
          "type": "uint256"
        },
        {
          "name": "rate",
          "type": "uint256"
        }
      ],
      "payable": false,
      "stateMutability": "view",
      "type": "function"
    },
    {
      "constant": true,
      "inputs": [
        {
          "name": "src",
          "type": "address"
        },
        {
          "name": "dest",
          "type": "address"
        },
        {
          "name": "srcAmount",
          "type": "uint256"
        },
        {
          "name": "usePermissionLess",
          "type": "bool"
        }
      ],
      "name": "searchBestRate",
      "outputs": [
        {
          "name": "obsolete",
          "type": "uint256"
        },
        {
          "name": "rate",
          "type": "uint256"
        }
      ],
      "payable": false,
      "stateMutability": "view",
      "type": "function"
    }
  ],
  "bytecode": "0x6060604052341561000f57600080fd5b610b068061001e6000396000f30060606040526004361061008e576000357c0100000000000000000000000000000000000000000000000000000000900463ffffffff1680630c235d96146100905780631dc1f78d1461011757806340d4149814610193578063809a9e55146101bc578063b8388aca14610238578063c5e64bbc146102b4578063cb3c28c7146102ef578063f9819fe9146103a9575b005b341561009b57600080fd5b6100fa600480803573ffffffffffffffffffffffffffffffffffffffff1690602001909190803573ffffffffffffffffffffffffffffffffffffffff16906020019091908035906020019091908035151590602001909190505061040a565b604051808381526020018281526020019250505060405180910390f35b341561012257600080fd5b610176600480803573ffffffffffffffffffffffffffffffffffffffff1690602001909190803573ffffffffffffffffffffffffffffffffffffffff169060200190919080359060200190919050506104d0565b604051808381526020018281526020019250505060405180910390f35b341561019e57600080fd5b6101a66105a8565b6040518082815260200191505060405180910390f35b34156101c757600080fd5b61021b600480803573ffffffffffffffffffffffffffffffffffffffff1690602001909190803573ffffffffffffffffffffffffffffffffffffffff169060200190919080359060200190919050506105b0565b604051808381526020018281526020019250505060405180910390f35b341561024357600080fd5b610297600480803573ffffffffffffffffffffffffffffffffffffffff1690602001909190803573ffffffffffffffffffffffffffffffffffffffff1690602001909190803590602001909190505061067d565b604051808381526020018281526020019250505060405180910390f35b34156102bf57600080fd5b6102d9600480803560001916906020019091905050610755565b6040518082815260200191505060405180910390f35b610393600480803573ffffffffffffffffffffffffffffffffffffffff1690602001909190803590602001909190803573ffffffffffffffffffffffffffffffffffffffff1690602001909190803573ffffffffffffffffffffffffffffffffffffffff1690602001909190803590602001909190803590602001909190803573ffffffffffffffffffffffffffffffffffffffff1690602001909190505061076d565b6040518082815260200191505060405180910390f35b34156103b457600080fd5b610408600480803573ffffffffffffffffffffffffffffffffffffffff1690602001909190803573ffffffffffffffffffffffffffffffffffffffff16906020019091908035906020019091905050610a23565b005b6000806000808787604051808373ffffffffffffffffffffffffffffffffffffffff1673ffffffffffffffffffffffffffffffffffffffff166c010000000000000000000000000281526014018273ffffffffffffffffffffffffffffffffffffffff1673ffffffffffffffffffffffffffffffffffffffff166c01000000000000000000000000028152601401925050506040518091039020600019166000191681526020019081526020016000205490506000818191509150915094509492505050565b60008063075bc37183141515156104e657600080fd5b6000808686604051808373ffffffffffffffffffffffffffffffffffffffff1673ffffffffffffffffffffffffffffffffffffffff166c010000000000000000000000000281526014018273ffffffffffffffffffffffffffffffffffffffff1673ffffffffffffffffffffffffffffffffffffffff166c010000000000000000000000000281526014019250505060405180910390206000191660001916815260200190815260200160002054905060008181915091509150935093915050565b63075bc37181565b6000806000808686604051808373ffffffffffffffffffffffffffffffffffffffff1673ffffffffffffffffffffffffffffffffffffffff166c010000000000000000000000000281526014018273ffffffffffffffffffffffffffffffffffffffff1673ffffffffffffffffffffffffffffffffffffffff166c010000000000000000000000000281526014019250505060405180910390206000191660001916815260200190815260200160002054915060646061830281151561067257fe5b049050935093915050565b60008063075bc371831415151561069357600080fd5b6000808686604051808373ffffffffffffffffffffffffffffffffffffffff1673ffffffffffffffffffffffffffffffffffffffff166c010000000000000000000000000281526014018273ffffffffffffffffffffffffffffffffffffffff1673ffffffffffffffffffffffffffffffffffffffff166c010000000000000000000000000281526014019250505060405180910390206000191660001916815260200190815260200160002054905060008181915091509150935093915050565b60006020528060005260406000206000915090505481565b6000806000806000808c8b604051808373ffffffffffffffffffffffffffffffffffffffff1673ffffffffffffffffffffffffffffffffffffffff166c010000000000000000000000000281526014018273ffffffffffffffffffffffffffffffffffffffff1673ffffffffffffffffffffffffffffffffffffffff166c010000000000000000000000000281526014019250505060405180910390206000191660001916815260200190815260200160002054925060008311151561083257600080fd5b858311151561084057600080fd5b73eeeeeeeeeeeeeeeeeeeeeeeeeeeeeeeeeeeeeeee73ffffffffffffffffffffffffffffffffffffffff168973ffffffffffffffffffffffffffffffffffffffff1614151561088e57600080fd5b670de0b6b3a7640000838b028115156108a357fe5b049150899050868211156108cd5786915082670de0b6b3a764000088028115156108c957fe5b0490505b8a73ffffffffffffffffffffffffffffffffffffffff166323b872dd3330846000604051602001526040518463ffffffff167c0100000000000000000000000000000000000000000000000000000000028152600401808473ffffffffffffffffffffffffffffffffffffffff1673ffffffffffffffffffffffffffffffffffffffff1681526020018373ffffffffffffffffffffffffffffffffffffffff1673ffffffffffffffffffffffffffffffffffffffff1681526020018281526020019350505050602060405180830381600087803b15156109ac57600080fd5b6102c65a03f115156109bd57600080fd5b5050506040518051905015156109d257600080fd5b8773ffffffffffffffffffffffffffffffffffffffff166108fc839081150290604051600060405180830381858888f193505050501515610a1257600080fd5b819350505050979650505050505050565b806000808585604051808373ffffffffffffffffffffffffffffffffffffffff1673ffffffffffffffffffffffffffffffffffffffff166c010000000000000000000000000281526014018273ffffffffffffffffffffffffffffffffffffffff1673ffffffffffffffffffffffffffffffffffffffff166c0100000000000000000000000002815260140192505050604051809103902060001916600019168152602001908152602001600020819055505050505600a165627a7a7230582074dc78064215404d3e8041438430d25381a973661f14e1ad5c377fac77a45ded0029",
  "source": "pragma solidity 0.4.18;\n\n\nimport \"../ERC20Interface.sol\";\n\n\n/// this mock is used when only simple actions are required. no reserves are involved.\ncontract MockKyberNetwork {\n    uint constant public REVERT_HINT = 123454321;\n\n    mapping(bytes32=>uint) public pairRate; //rate in precision units. i.e. if rate is 10**18 its same as 1:1\n    uint constant PRECISION = 10 ** 18;\n    ERC20 constant internal ETH_TOKEN_ADDRESS = ERC20(0x00eeeeeeeeeeeeeeeeeeeeeeeeeeeeeeeeeeeeeeee);\n\n    function() public payable {}\n\n    function setPairRate(ERC20 src, ERC20 dest, uint rate) public {\n        pairRate[keccak256(src, dest)] = rate;\n    }\n\n    // @dev trade function with same prototype as KyberNetwork\n    // will be used only to trade token to Ether,\n    // will work only when set pair worked.\n    function trade(\n        ERC20 src,\n        uint srcAmount,\n        ERC20 dest,\n        address destAddress,\n        uint maxDestAmount,\n        uint minConversionRate,\n        address walletId\n    )\n        public\n        payable\n        returns(uint)\n    {\n        uint rate = pairRate[keccak256(src, dest)];\n\n        walletId;\n\n        require(rate > 0);\n        require(rate > minConversionRate);\n        require(dest == ETH_TOKEN_ADDRESS);\n\n        uint destAmount = srcAmount * rate / PRECISION;\n        uint actualSrcAmount = srcAmount;\n\n        if (destAmount > maxDestAmount) {\n            destAmount = maxDestAmount;\n            actualSrcAmount = maxDestAmount * PRECISION / rate;\n        }\n\n        require(src.transferFrom(msg.sender, this, actualSrcAmount));\n        destAddress.transfer(destAmount);\n\n        return destAmount;\n    }\n\n    function getExpectedRate(ERC20 src, ERC20 dest, uint srcQty)\n        public view\n        returns(uint expectedRate, uint slippageRate)\n    {\n        srcQty;\n\n        expectedRate = pairRate[keccak256(src, dest)];\n        slippageRate = expectedRate * 97 / 100;\n    }\n\n    function findBestRate(ERC20 src, ERC20 dest, uint srcAmount) public view returns(uint obsolete, uint rate) {\n        srcAmount;\n\n        require (srcAmount != REVERT_HINT);\n\n        rate = pairRate[keccak256(src, dest)];\n        return(0, rate);\n    }\n\n    function findBestRateOnlyPermission(ERC20 src, ERC20 dest, uint srcAmount) public view returns(uint obsolete, uint rate) {\n        srcAmount;\n\n        require (srcAmount != REVERT_HINT);\n\n        rate = pairRate[keccak256(src, dest)];\n        return(0, rate);\n    }\n\n    function searchBestRate(ERC20 src, ERC20 dest, uint srcAmount, bool usePermissionLess) public view\n        returns(uint obsolete, uint rate)\n    {\n        srcAmount;\n        usePermissionLess;\n\n        rate = pairRate[keccak256(src, dest)];\n        return(0, rate);\n    }\n}\n",
  "sourcePath": "/Users/oscarr/Ethereum/frappe/contracts/mockContracts/MockKyberNetwork.sol",
  "compiler": {
    "name": "solc",
    "version": "0.4.18+commit.9cf6e910.Emscripten.clang"
  },
  "schemaVersion": "3.0.6",
  "updatedAt": "2019-05-18T17:14:13.244Z",
  "devdoc": {
    "methods": {}
  },
  "userdoc": {
    "methods": {}
  }
}