{
  "contractName": "MockOtc",
  "abi": [
    {
      "constant": true,
      "inputs": [],
      "name": "mkrForPayEth1st",
      "outputs": [
        {
          "name": "",
          "type": "uint256"
        }
      ],
      "payable": false,
      "stateMutability": "view",
      "type": "function"
    },
    {
      "constant": true,
      "inputs": [],
      "name": "wethToken",
      "outputs": [
        {
          "name": "",
          "type": "address"
        }
      ],
      "payable": false,
      "stateMutability": "view",
      "type": "function"
    },
    {
      "constant": true,
      "inputs": [],
      "name": "mkrForPayEth2nd",
      "outputs": [
        {
          "name": "",
          "type": "uint256"
        }
      ],
      "payable": false,
      "stateMutability": "view",
      "type": "function"
    },
    {
      "constant": true,
      "inputs": [
        {
          "name": "",
          "type": "uint256"
        }
      ],
      "name": "offers",
      "outputs": [
        {
          "name": "payAmt",
          "type": "uint256"
        },
        {
          "name": "payGem",
          "type": "address"
        },
        {
          "name": "buyAmt",
          "type": "uint256"
        },
        {
          "name": "buyGem",
          "type": "address"
        },
        {
          "name": "owner",
          "type": "address"
        },
        {
          "name": "timestamp",
          "type": "uint64"
        }
      ],
      "payable": false,
      "stateMutability": "view",
      "type": "function"
    },
    {
      "constant": true,
      "inputs": [],
      "name": "daisForPayEth",
      "outputs": [
        {
          "name": "",
          "type": "uint256"
        }
      ],
      "payable": false,
      "stateMutability": "view",
      "type": "function"
    },
    {
      "constant": true,
      "inputs": [],
      "name": "mkrToken",
      "outputs": [
        {
          "name": "",
          "type": "address"
        }
      ],
      "payable": false,
      "stateMutability": "view",
      "type": "function"
    },
    {
      "constant": true,
      "inputs": [],
      "name": "daiToken",
      "outputs": [
        {
          "name": "",
          "type": "address"
        }
      ],
      "payable": false,
      "stateMutability": "view",
      "type": "function"
    },
    {
      "constant": true,
      "inputs": [],
      "name": "mkrForPayEth3rd",
      "outputs": [
        {
          "name": "",
          "type": "uint256"
        }
      ],
      "payable": false,
      "stateMutability": "view",
      "type": "function"
    },
    {
      "inputs": [
        {
          "name": "_wethToken",
          "type": "address"
        },
        {
          "name": "_daiToken",
          "type": "address"
        },
        {
          "name": "_mkrToken",
          "type": "address"
        },
        {
          "name": "_daisForPayEth",
          "type": "uint256"
        },
        {
          "name": "_mkrForPayEth1st",
          "type": "uint256"
        },
        {
          "name": "_mkrForPayEth2nd",
          "type": "uint256"
        },
        {
          "name": "_mkrForPayEth3rd",
          "type": "uint256"
        }
      ],
      "payable": false,
      "stateMutability": "nonpayable",
      "type": "constructor"
    },
    {
      "payable": true,
      "stateMutability": "payable",
      "type": "fallback"
    },
    {
      "constant": false,
      "inputs": [
        {
          "name": "_daiPerEthBuy",
          "type": "uint256"
        },
        {
          "name": "_daiPerEthSell",
          "type": "uint256"
        }
      ],
      "name": "setFirstLevelDaiPrices",
      "outputs": [],
      "payable": false,
      "stateMutability": "nonpayable",
      "type": "function"
    },
    {
      "constant": true,
      "inputs": [
        {
          "name": "id",
          "type": "uint256"
        }
      ],
      "name": "getOffer",
      "outputs": [
        {
          "name": "",
          "type": "uint256"
        },
        {
          "name": "",
          "type": "address"
        },
        {
          "name": "",
          "type": "uint256"
        },
        {
          "name": "",
          "type": "address"
        }
      ],
      "payable": false,
      "stateMutability": "view",
      "type": "function"
    },
    {
      "constant": true,
      "inputs": [
        {
          "name": "offerSellGem",
          "type": "address"
        },
        {
          "name": "offerBuyGem",
          "type": "address"
        }
      ],
      "name": "getBestOffer",
      "outputs": [
        {
          "name": "",
          "type": "uint256"
        }
      ],
      "payable": false,
      "stateMutability": "view",
      "type": "function"
    },
    {
      "constant": false,
      "inputs": [
        {
          "name": "takerPayGem",
          "type": "address"
        },
        {
          "name": "takerPayAmt",
          "type": "uint256"
        },
        {
          "name": "takerBuyGem",
          "type": "address"
        },
        {
          "name": "minFillAmount",
          "type": "uint256"
        }
      ],
      "name": "sellAllAmount",
      "outputs": [
        {
          "name": "fillAmount",
          "type": "uint256"
        }
      ],
      "payable": false,
      "stateMutability": "nonpayable",
      "type": "function"
    },
    {
      "constant": true,
      "inputs": [
        {
          "name": "id",
          "type": "uint256"
        }
      ],
      "name": "getWorseOffer",
      "outputs": [
        {
          "name": "",
          "type": "uint256"
        }
      ],
      "payable": false,
      "stateMutability": "pure",
      "type": "function"
    },
    {
      "constant": false,
      "inputs": [
        {
          "name": "id",
          "type": "bytes32"
        },
        {
          "name": "takerBuyAmount",
          "type": "uint128"
        }
      ],
      "name": "take",
      "outputs": [],
      "payable": false,
      "stateMutability": "nonpayable",
      "type": "function"
    }
  ],
  "bytecode": "0x6060604052341561000f57600080fd5b60405160e08061203483398101604052808051906020019091908051906020019091908051906020019091908051906020019091908051906020019091908051906020019091908051906020019091905050610069610fc3565b610071610fc3565b610079610fc3565b610081610fc3565b8a6000806101000a81548173ffffffffffffffffffffffffffffffffffffffff021916908373ffffffffffffffffffffffffffffffffffffffff16021790555089600160006101000a81548173ffffffffffffffffffffffffffffffffffffffff021916908373ffffffffffffffffffffffffffffffffffffffff16021790555088600260006101000a81548173ffffffffffffffffffffffffffffffffffffffff021916908373ffffffffffffffffffffffffffffffffffffffff16021790555087600381905550866004819055508560058190555084600681905550876729a2241af62c000002836000018181525050600160009054906101000a900473ffffffffffffffffffffffffffffffffffffffff16836020019073ffffffffffffffffffffffffffffffffffffffff16908173ffffffffffffffffffffffffffffffffffffffff16815250506729a2241af62c00008360400181815250506000809054906101000a900473ffffffffffffffffffffffffffffffffffffffff16836060019073ffffffffffffffffffffffffffffffffffffffff16908173ffffffffffffffffffffffffffffffffffffffff16815250506000836080019073ffffffffffffffffffffffffffffffffffffffff16908173ffffffffffffffffffffffffffffffffffffffff168152505060008360a0019067ffffffffffffffff16908167ffffffffffffffff16815250508260076000600181526020019081526020016000206000820151816000015560208201518160010160006101000a81548173ffffffffffffffffffffffffffffffffffffffff021916908373ffffffffffffffffffffffffffffffffffffffff1602179055506040820151816002015560608201518160030160006101000a81548173ffffffffffffffffffffffffffffffffffffffff021916908373ffffffffffffffffffffffffffffffffffffffff16021790555060808201518160040160006101000a81548173ffffffffffffffffffffffffffffffffffffffff021916908373ffffffffffffffffffffffffffffffffffffffff16021790555060a08201518160040160146101000a81548167ffffffffffffffff021916908367ffffffffffffffff1602179055509050506729a2241af62c00008460000181815250506000809054906101000a900473ffffffffffffffffffffffffffffffffffffffff16846020019073ffffffffffffffffffffffffffffffffffffffff16908173ffffffffffffffffffffffffffffffffffffffff1681525050876729a2241af62c000002846040018181525050600160009054906101000a900473ffffffffffffffffffffffffffffffffffffffff16846060019073ffffffffffffffffffffffffffffffffffffffff16908173ffffffffffffffffffffffffffffffffffffffff16815250506000846080019073ffffffffffffffffffffffffffffffffffffffff16908173ffffffffffffffffffffffffffffffffffffffff168152505060008460a0019067ffffffffffffffff16908167ffffffffffffffff16815250508360076000600281526020019081526020016000206000820151816000015560208201518160010160006101000a81548173ffffffffffffffffffffffffffffffffffffffff021916908373ffffffffffffffffffffffffffffffffffffffff1602179055506040820151816002015560608201518160030160006101000a81548173ffffffffffffffffffffffffffffffffffffffff021916908373ffffffffffffffffffffffffffffffffffffffff16021790555060808201518160040160006101000a81548173ffffffffffffffffffffffffffffffffffffffff021916908373ffffffffffffffffffffffffffffffffffffffff16021790555060a08201518160040160146101000a81548167ffffffffffffffff021916908367ffffffffffffffff160217905550905050866729a2241af62c000060010202816000018181525050600260009054906101000a900473ffffffffffffffffffffffffffffffffffffffff16816020019073ffffffffffffffffffffffffffffffffffffffff16908173ffffffffffffffffffffffffffffffffffffffff16815250506729a2241af62c00006001028160400181815250506000809054906101000a900473ffffffffffffffffffffffffffffffffffffffff16816060019073ffffffffffffffffffffffffffffffffffffffff16908173ffffffffffffffffffffffffffffffffffffffff16815250508060076000600381526020019081526020016000206000820151816000015560208201518160010160006101000a81548173ffffffffffffffffffffffffffffffffffffffff021916908373ffffffffffffffffffffffffffffffffffffffff1602179055506040820151816002015560608201518160030160006101000a81548173ffffffffffffffffffffffffffffffffffffffff021916908373ffffffffffffffffffffffffffffffffffffffff16021790555060808201518160040160006101000a81548173ffffffffffffffffffffffffffffffffffffffff021916908373ffffffffffffffffffffffffffffffffffffffff16021790555060a08201518160040160146101000a81548167ffffffffffffffff021916908367ffffffffffffffff160217905550905050856729a2241af62c0000600202028160000181815250506729a2241af62c00006002028160400181815250508060076000600481526020019081526020016000206000820151816000015560208201518160010160006101000a81548173ffffffffffffffffffffffffffffffffffffffff021916908373ffffffffffffffffffffffffffffffffffffffff1602179055506040820151816002015560608201518160030160006101000a81548173ffffffffffffffffffffffffffffffffffffffff021916908373ffffffffffffffffffffffffffffffffffffffff16021790555060808201518160040160006101000a81548173ffffffffffffffffffffffffffffffffffffffff021916908373ffffffffffffffffffffffffffffffffffffffff16021790555060a08201518160040160146101000a81548167ffffffffffffffff021916908367ffffffffffffffff160217905550905050846729a2241af62c0000600302028160000181815250506729a2241af62c00006003028160400181815250508060076000600581526020019081526020016000206000820151816000015560208201518160010160006101000a81548173ffffffffffffffffffffffffffffffffffffffff021916908373ffffffffffffffffffffffffffffffffffffffff1602179055506040820151816002015560608201518160030160006101000a81548173ffffffffffffffffffffffffffffffffffffffff021916908373ffffffffffffffffffffffffffffffffffffffff16021790555060808201518160040160006101000a81548173ffffffffffffffffffffffffffffffffffffffff021916908373ffffffffffffffffffffffffffffffffffffffff16021790555060a08201518160040160146101000a81548167ffffffffffffffff021916908367ffffffffffffffff1602179055509050506729a2241af62c00006001028260000181815250506000809054906101000a900473ffffffffffffffffffffffffffffffffffffffff16826020019073ffffffffffffffffffffffffffffffffffffffff16908173ffffffffffffffffffffffffffffffffffffffff1681525050866729a2241af62c000060010202826040018181525050600260009054906101000a900473ffffffffffffffffffffffffffffffffffffffff16826060019073ffffffffffffffffffffffffffffffffffffffff16908173ffffffffffffffffffffffffffffffffffffffff16815250508160076000600681526020019081526020016000206000820151816000015560208201518160010160006101000a81548173ffffffffffffffffffffffffffffffffffffffff021916908373ffffffffffffffffffffffffffffffffffffffff1602179055506040820151816002015560608201518160030160006101000a81548173ffffffffffffffffffffffffffffffffffffffff021916908373ffffffffffffffffffffffffffffffffffffffff16021790555060808201518160040160006101000a81548173ffffffffffffffffffffffffffffffffffffffff021916908373ffffffffffffffffffffffffffffffffffffffff16021790555060a08201518160040160146101000a81548167ffffffffffffffff021916908367ffffffffffffffff1602179055509050506729a2241af62c0000600202826000018181525050856729a2241af62c0000600202028260400181815250508160076000600781526020019081526020016000206000820151816000015560208201518160010160006101000a81548173ffffffffffffffffffffffffffffffffffffffff021916908373ffffffffffffffffffffffffffffffffffffffff1602179055506040820151816002015560608201518160030160006101000a81548173ffffffffffffffffffffffffffffffffffffffff021916908373ffffffffffffffffffffffffffffffffffffffff16021790555060808201518160040160006101000a81548173ffffffffffffffffffffffffffffffffffffffff021916908373ffffffffffffffffffffffffffffffffffffffff16021790555060a08201518160040160146101000a81548167ffffffffffffffff021916908367ffffffffffffffff1602179055509050506729a2241af62c0000600302826000018181525050846729a2241af62c0000600302028260400181815250508160076000600881526020019081526020016000206000820151816000015560208201518160010160006101000a81548173ffffffffffffffffffffffffffffffffffffffff021916908373ffffffffffffffffffffffffffffffffffffffff1602179055506040820151816002015560608201518160030160006101000a81548173ffffffffffffffffffffffffffffffffffffffff021916908373ffffffffffffffffffffffffffffffffffffffff16021790555060808201518160040160006101000a81548173ffffffffffffffffffffffffffffffffffffffff021916908373ffffffffffffffffffffffffffffffffffffffff16021790555060a08201518160040160146101000a81548167ffffffffffffffff021916908367ffffffffffffffff1602179055509050505050505050505050505050611046565b60c06040519081016040528060008152602001600073ffffffffffffffffffffffffffffffffffffffff16815260200160008152602001600073ffffffffffffffffffffffffffffffffffffffff168152602001600073ffffffffffffffffffffffffffffffffffffffff168152602001600067ffffffffffffffff1681525090565b610fdf806110556000396000f3006060604052600436106100d0576000357c0100000000000000000000000000000000000000000000000000000000900463ffffffff1680630374fc6f146100d25780630621b4f61461013e57806321b12967146101bc57806327563ddc146101e55780634579268a1461021157806349606455146102b55780634b57b0be146102f757806359fc597b1461034c5780638a72ea6a14610375578063943911bc146104675780639f391a211461049e578063a0011296146104c7578063be22f5461461051c578063d56e1c6c14610571575b005b34156100dd57600080fd5b610128600480803573ffffffffffffffffffffffffffffffffffffffff1690602001909190803573ffffffffffffffffffffffffffffffffffffffff1690602001909190505061059a565b6040518082815260200191505060405180910390f35b341561014957600080fd5b6101a6600480803573ffffffffffffffffffffffffffffffffffffffff1690602001909190803590602001909190803573ffffffffffffffffffffffffffffffffffffffff16906020019091908035906020019091905050610883565b6040518082815260200191505060405180910390f35b34156101c757600080fd5b6101cf610a95565b6040518082815260200191505060405180910390f35b34156101f057600080fd5b61020f6004808035906020019091908035906020019091905050610a9b565b005b341561021c57600080fd5b6102326004808035906020019091905050610aeb565b604051808581526020018473ffffffffffffffffffffffffffffffffffffffff1673ffffffffffffffffffffffffffffffffffffffff1681526020018381526020018273ffffffffffffffffffffffffffffffffffffffff1673ffffffffffffffffffffffffffffffffffffffff16815260200194505050505060405180910390f35b34156102c057600080fd5b6102f56004808035600019169060200190919080356fffffffffffffffffffffffffffffffff16906020019091905050610b6c565b005b341561030257600080fd5b61030a610c2c565b604051808273ffffffffffffffffffffffffffffffffffffffff1673ffffffffffffffffffffffffffffffffffffffff16815260200191505060405180910390f35b341561035757600080fd5b61035f610c51565b6040518082815260200191505060405180910390f35b341561038057600080fd5b6103966004808035906020019091905050610c57565b604051808781526020018673ffffffffffffffffffffffffffffffffffffffff1673ffffffffffffffffffffffffffffffffffffffff1681526020018581526020018473ffffffffffffffffffffffffffffffffffffffff1673ffffffffffffffffffffffffffffffffffffffff1681526020018373ffffffffffffffffffffffffffffffffffffffff1673ffffffffffffffffffffffffffffffffffffffff1681526020018267ffffffffffffffff1667ffffffffffffffff168152602001965050505050505060405180910390f35b341561047257600080fd5b6104886004808035906020019091905050610d07565b6040518082815260200191505060405180910390f35b34156104a957600080fd5b6104b1610d7f565b6040518082815260200191505060405180910390f35b34156104d257600080fd5b6104da610d85565b604051808273ffffffffffffffffffffffffffffffffffffffff1673ffffffffffffffffffffffffffffffffffffffff16815260200191505060405180910390f35b341561052757600080fd5b61052f610dab565b604051808273ffffffffffffffffffffffffffffffffffffffff1673ffffffffffffffffffffffffffffffffffffffff16815260200191505060405180910390f35b341561057c57600080fd5b610584610dd1565b6040518082815260200191505060405180910390f35b60008060009054906101000a900473ffffffffffffffffffffffffffffffffffffffff1673ffffffffffffffffffffffffffffffffffffffff168373ffffffffffffffffffffffffffffffffffffffff161480156106455750600160009054906101000a900473ffffffffffffffffffffffffffffffffffffffff1673ffffffffffffffffffffffffffffffffffffffff168273ffffffffffffffffffffffffffffffffffffffff16145b15610653576002905061087d565b600160009054906101000a900473ffffffffffffffffffffffffffffffffffffffff1673ffffffffffffffffffffffffffffffffffffffff168373ffffffffffffffffffffffffffffffffffffffff161480156106fc57506000809054906101000a900473ffffffffffffffffffffffffffffffffffffffff1673ffffffffffffffffffffffffffffffffffffffff168273ffffffffffffffffffffffffffffffffffffffff16145b1561070a576001905061087d565b600260009054906101000a900473ffffffffffffffffffffffffffffffffffffffff1673ffffffffffffffffffffffffffffffffffffffff168373ffffffffffffffffffffffffffffffffffffffff161480156107b357506000809054906101000a900473ffffffffffffffffffffffffffffffffffffffff1673ffffffffffffffffffffffffffffffffffffffff168273ffffffffffffffffffffffffffffffffffffffff16145b156107c1576003905061087d565b6000809054906101000a900473ffffffffffffffffffffffffffffffffffffffff1673ffffffffffffffffffffffffffffffffffffffff168373ffffffffffffffffffffffffffffffffffffffff1614801561086a5750600260009054906101000a900473ffffffffffffffffffffffffffffffffffffffff1673ffffffffffffffffffffffffffffffffffffffff168273ffffffffffffffffffffffffffffffffffffffff16145b15610878576006905061087d565b600090505b92915050565b60008060009054906101000a900473ffffffffffffffffffffffffffffffffffffffff1673ffffffffffffffffffffffffffffffffffffffff168573ffffffffffffffffffffffffffffffffffffffff1614801561092e5750600160009054906101000a900473ffffffffffffffffffffffffffffffffffffffff1673ffffffffffffffffffffffffffffffffffffffff168373ffffffffffffffffffffffffffffffffffffffff16145b1561097657600760006001815260200190815260200160002060020154600760006001815260200190815260200160002060000154850281151561096e57fe5b049050610a71565b600160009054906101000a900473ffffffffffffffffffffffffffffffffffffffff1673ffffffffffffffffffffffffffffffffffffffff168573ffffffffffffffffffffffffffffffffffffffff16148015610a1f57506000809054906101000a900473ffffffffffffffffffffffffffffffffffffffff1673ffffffffffffffffffffffffffffffffffffffff168373ffffffffffffffffffffffffffffffffffffffff16145b15610a67576007600060028152602001908152602001600020600201546007600060028152602001908152602001600020600001548502811515610a5f57fe5b049050610a70565b60009050610a8d565b5b808211151515610a8057600080fd5b610a8c85858584610dd7565b5b949350505050565b60045481565b806729a2241af62c000002600760006001815260200190815260200160002060000181905550816729a2241af62c0000026007600060028152602001908152602001600020600201819055505050565b600080600080600060076000878152602001908152602001600020905080600001548160010160009054906101000a900473ffffffffffffffffffffffffffffffffffffffff1682600201548360030160009054906101000a900473ffffffffffffffffffffffffffffffffffffffff169450945094509450509193509193565b6000806000806000610b818760019004610aeb565b809550819650829750839850505050508483876fffffffffffffffffffffffffffffffff1602811515610bb057fe5b049050856fffffffffffffffffffffffffffffffff16866fffffffffffffffffffffffffffffffff16141515610be557600080fd5b80816fffffffffffffffffffffffffffffffff16141515610c0557600080fd5b610c23828286896fffffffffffffffffffffffffffffffff16610dd7565b50505050505050565b6000809054906101000a900473ffffffffffffffffffffffffffffffffffffffff1681565b60055481565b60076020528060005260406000206000915090508060000154908060010160009054906101000a900473ffffffffffffffffffffffffffffffffffffffff16908060020154908060030160009054906101000a900473ffffffffffffffffffffffffffffffffffffffff16908060040160009054906101000a900473ffffffffffffffffffffffffffffffffffffffff16908060040160149054906101000a900467ffffffffffffffff16905086565b60006003821415610d1b5760049050610d7a565b6004821415610d2d5760059050610d7a565b6005821415610d3f5760009050610d7a565b6006821415610d515760079050610d7a565b6007821415610d635760089050610d7a565b6008821415610d755760009050610d7a565b600090505b919050565b60035481565b600260009054906101000a900473ffffffffffffffffffffffffffffffffffffffff1681565b600160009054906101000a900473ffffffffffffffffffffffffffffffffffffffff1681565b60065481565b8373ffffffffffffffffffffffffffffffffffffffff166323b872dd3330866000604051602001526040518463ffffffff167c0100000000000000000000000000000000000000000000000000000000028152600401808473ffffffffffffffffffffffffffffffffffffffff1673ffffffffffffffffffffffffffffffffffffffff1681526020018373ffffffffffffffffffffffffffffffffffffffff1673ffffffffffffffffffffffffffffffffffffffff1681526020018281526020019350505050602060405180830381600087803b1515610eb657600080fd5b6102c65a03f11515610ec757600080fd5b505050604051805190501515610edc57600080fd5b8173ffffffffffffffffffffffffffffffffffffffff1663a9059cbb33836000604051602001526040518363ffffffff167c0100000000000000000000000000000000000000000000000000000000028152600401808373ffffffffffffffffffffffffffffffffffffffff1673ffffffffffffffffffffffffffffffffffffffff16815260200182815260200192505050602060405180830381600087803b1515610f8757600080fd5b6102c65a03f11515610f9857600080fd5b505050604051805190501515610fad57600080fd5b505050505600a165627a7a723058201ff4b9ba1aeda8a76dcdf1e8e1df3d5a727dfe150d85ee29bdd6ef591408bd130029",
  "source": "pragma solidity 0.4.18;\n\n\nimport \"../../ERC20Interface.sol\";\n\n\ncontract MockOtc {\n\n    uint constant internal OFFER_WEI_VALUE = 3 * (10**18);\n    uint constant internal MAKER_PAYS_DAI_OFFER_ID = 1;\n    uint constant internal MAKER_BUYS_DAI_OFFER_ID = 2;\n    uint constant internal MAKER_PAYS_MKR_FIRST_OFFER_ID = 3;\n    uint constant internal MAKER_PAYS_MKR_SECOND_OFFER_ID = 4;\n    uint constant internal MAKER_PAYS_MKR_THIRD_OFFER_ID = 5;\n    uint constant internal MAKER_BUYS_MKR_FIRST_OFFER_ID = 6;\n    uint constant internal MAKER_BUYS_MKR_SECOND_OFFER_ID = 7;\n    uint constant internal MAKER_BUYS_MKR_THIRD_OFFER_ID = 8;\n    ERC20 public wethToken;\n    ERC20 public daiToken;\n    ERC20 public mkrToken;\n    uint public daisForPayEth;\n    uint public mkrForPayEth1st;\n    uint public mkrForPayEth2nd;\n    uint public mkrForPayEth3rd;\n\n    mapping (uint => OfferInfo) public offers;\n\n    struct OfferInfo {\n        uint     payAmt;\n        ERC20    payGem;\n        uint     buyAmt;\n        ERC20    buyGem;\n        address  owner;\n        uint64   timestamp;\n    }\n\n    function MockOtc(\n        ERC20 _wethToken,\n        ERC20 _daiToken,\n        ERC20 _mkrToken,\n        uint _daisForPayEth,\n        uint _mkrForPayEth1st,\n        uint _mkrForPayEth2nd,\n        uint _mkrForPayEth3rd\n    )\n        public\n    {\n        wethToken = _wethToken;\n        daiToken = _daiToken;\n        mkrToken = _mkrToken;\n        daisForPayEth = _daisForPayEth;\n        mkrForPayEth1st = _mkrForPayEth1st;\n        mkrForPayEth2nd = _mkrForPayEth2nd;\n        mkrForPayEth3rd = _mkrForPayEth3rd;\n\n        OfferInfo memory buyDaiInfo;\n        OfferInfo memory payDaiInfo;\n        OfferInfo memory buyMkrInfo;\n        OfferInfo memory payMkrInfo;\n\n        // create 1 order where the maker buys weth and pays dai.\n        payDaiInfo.payAmt = OFFER_WEI_VALUE * _daisForPayEth;\n        payDaiInfo.payGem = daiToken;\n        payDaiInfo.buyAmt = OFFER_WEI_VALUE;\n        payDaiInfo.buyGem = wethToken;\n        payDaiInfo.owner = 0;\n        payDaiInfo.timestamp = 0;\n        offers[MAKER_PAYS_DAI_OFFER_ID] = payDaiInfo;\n\n        // create 1 order where the maker buys dai and pays weth.\n        buyDaiInfo.payAmt = OFFER_WEI_VALUE;\n        buyDaiInfo.payGem = wethToken;\n        buyDaiInfo.buyAmt = OFFER_WEI_VALUE * _daisForPayEth;\n        buyDaiInfo.buyGem = daiToken;\n        buyDaiInfo.owner = 0;\n        buyDaiInfo.timestamp = 0;\n        offers[MAKER_BUYS_DAI_OFFER_ID] = buyDaiInfo;\n\n        // create 3 orders where the maker buys weth and pays mkr.\n        payMkrInfo.payAmt = 1 * OFFER_WEI_VALUE  * _mkrForPayEth1st;\n        payMkrInfo.payGem = mkrToken;\n        payMkrInfo.buyAmt = 1 * OFFER_WEI_VALUE;\n        payMkrInfo.buyGem = wethToken;\n        offers[MAKER_PAYS_MKR_FIRST_OFFER_ID] = payMkrInfo;\n\n        payMkrInfo.payAmt = 2 * OFFER_WEI_VALUE  * _mkrForPayEth2nd;\n        payMkrInfo.buyAmt = 2 * OFFER_WEI_VALUE;\n        offers[MAKER_PAYS_MKR_SECOND_OFFER_ID] = payMkrInfo;\n\n        payMkrInfo.payAmt = 3 * OFFER_WEI_VALUE  * _mkrForPayEth3rd;\n        payMkrInfo.buyAmt = 3 * OFFER_WEI_VALUE;\n        offers[MAKER_PAYS_MKR_THIRD_OFFER_ID] = payMkrInfo;\n\n        // create 3 orders where the maker buys mkr and pays weth.\n        buyMkrInfo.payAmt = 1 * OFFER_WEI_VALUE;\n        buyMkrInfo.payGem = wethToken;\n        buyMkrInfo.buyAmt = 1 * OFFER_WEI_VALUE  * _mkrForPayEth1st;\n        buyMkrInfo.buyGem = mkrToken;\n        offers[MAKER_BUYS_MKR_FIRST_OFFER_ID] = buyMkrInfo;\n\n        buyMkrInfo.payAmt = 2 * OFFER_WEI_VALUE;\n        buyMkrInfo.buyAmt = 2 * OFFER_WEI_VALUE  * _mkrForPayEth2nd;\n        offers[MAKER_BUYS_MKR_SECOND_OFFER_ID] = buyMkrInfo;\n\n        buyMkrInfo.payAmt = 3 * OFFER_WEI_VALUE;\n        buyMkrInfo.buyAmt = 3 * OFFER_WEI_VALUE  * _mkrForPayEth3rd;\n        offers[MAKER_BUYS_MKR_THIRD_OFFER_ID] = buyMkrInfo;\n    }\n\n    function setFirstLevelDaiPrices(uint _daiPerEthBuy, uint _daiPerEthSell) public {\n        offers[MAKER_PAYS_DAI_OFFER_ID].payAmt = OFFER_WEI_VALUE * _daiPerEthSell;\n        offers[MAKER_BUYS_DAI_OFFER_ID].buyAmt = OFFER_WEI_VALUE * _daiPerEthBuy;\n    }\n\n    function() public payable {}\n\n    function getOffer(uint id) public constant returns (uint, ERC20, uint, ERC20) {\n        var offer = offers[id];\n        return (offer.payAmt, offer.payGem, offer.buyAmt, offer.buyGem);\n    }\n\n    function getBestOffer(ERC20 offerSellGem, ERC20 offerBuyGem) public constant returns(uint) {\n\n        if (offerSellGem == wethToken && offerBuyGem == daiToken) {\n            return MAKER_BUYS_DAI_OFFER_ID;\n        } else if (offerSellGem == daiToken && offerBuyGem == wethToken) {\n            return MAKER_PAYS_DAI_OFFER_ID;\n        } else if (offerSellGem == mkrToken && offerBuyGem == wethToken) {\n            return MAKER_PAYS_MKR_FIRST_OFFER_ID;\n        } else if (offerSellGem == wethToken && offerBuyGem == mkrToken ) {\n            return MAKER_BUYS_MKR_FIRST_OFFER_ID;\n        } else {\n            return 0;\n        }\n    }\n\n    function sellAllAmount(ERC20 takerPayGem, uint takerPayAmt, ERC20 takerBuyGem, uint minFillAmount)\n        public\n        returns (uint fillAmount)\n    {\n        if (takerPayGem == wethToken && takerBuyGem == daiToken) {\n            fillAmount = takerPayAmt * offers[MAKER_PAYS_DAI_OFFER_ID].payAmt / offers[MAKER_PAYS_DAI_OFFER_ID].buyAmt;\n        } else if (takerPayGem == daiToken && takerBuyGem == wethToken) {\n            fillAmount = takerPayAmt * offers[MAKER_BUYS_DAI_OFFER_ID].payAmt / offers[MAKER_BUYS_DAI_OFFER_ID].buyAmt;\n        } else {\n            return 0;\n        }\n\n        require(minFillAmount <= fillAmount);\n        buy(takerPayGem, takerPayAmt, takerBuyGem, fillAmount);\n    }\n\n    function getWorseOffer(uint id) public pure returns(uint) {\n        if (id == MAKER_PAYS_MKR_FIRST_OFFER_ID) {\n            return MAKER_PAYS_MKR_SECOND_OFFER_ID;\n        } else if (id == MAKER_PAYS_MKR_SECOND_OFFER_ID) {\n            return MAKER_PAYS_MKR_THIRD_OFFER_ID;\n        } else if (id == MAKER_PAYS_MKR_THIRD_OFFER_ID) {\n            return 0;\n        } if (id == MAKER_BUYS_MKR_FIRST_OFFER_ID) {\n            return MAKER_BUYS_MKR_SECOND_OFFER_ID;\n        } else if (id == MAKER_BUYS_MKR_SECOND_OFFER_ID) {\n            return MAKER_BUYS_MKR_THIRD_OFFER_ID;\n        } else if (id == MAKER_BUYS_MKR_THIRD_OFFER_ID) {\n            return 0;\n        } else {\n            return 0;\n        }\n    }\n\n    function take(bytes32 id, uint128 takerBuyAmount) public {\n        uint offerPayAmt;\n        ERC20 offerPayGem;\n        uint offerBuyAmt;\n        ERC20 offerBuyGem;\n    \n        (offerPayAmt, offerPayGem, offerBuyAmt, offerBuyGem) = getOffer(uint256(id));\n \n        uint takerPayAmount = takerBuyAmount * offerBuyAmt / offerPayAmt;\n    \n        require(uint128(takerBuyAmount) == takerBuyAmount);\n        require(uint128(takerPayAmount) == takerPayAmount);\n        buy(offerBuyGem, takerPayAmount, offerPayGem, takerBuyAmount);\n    }\n\n    function buy(ERC20 takerPayGem, uint takerPayAmt, ERC20 takerBuyGem, uint actualBuyAmt) internal {\n        require(takerPayGem.transferFrom(msg.sender, this, takerPayAmt));\n        require(takerBuyGem.transfer(msg.sender, actualBuyAmt));\n    }\n}\n",
  "sourcePath": "/Users/oscarr/Ethereum/frappe/contracts/oasisContracts/mockContracts/MockOtc.sol",
  "compiler": {
    "name": "solc",
    "version": "0.4.18+commit.9cf6e910.Emscripten.clang"
  },
  "schemaVersion": "3.0.6",
  "updatedAt": "2019-05-18T17:14:13.361Z",
  "devdoc": {
    "methods": {}
  },
  "userdoc": {
    "methods": {}
  }
}