{
  "contractName": "MockOrderIdManager",
  "abi": [
    {
      "constant": true,
      "inputs": [],
      "name": "NUM_ORDERS",
      "outputs": [
        {
          "name": "",
          "type": "uint256"
        }
      ],
      "payable": false,
      "stateMutability": "view",
      "type": "function"
    },
    {
      "anonymous": false,
      "inputs": [
        {
          "indexed": false,
          "name": "orderId",
          "type": "uint256"
        }
      ],
      "name": "NewOrderId",
      "type": "event"
    },
    {
      "constant": false,
      "inputs": [
        {
          "name": "firstId",
          "type": "uint256"
        }
      ],
      "name": "allocatOrderIds",
      "outputs": [],
      "payable": false,
      "stateMutability": "nonpayable",
      "type": "function"
    },
    {
      "constant": false,
      "inputs": [],
      "name": "fetchNewOrderId",
      "outputs": [
        {
          "name": "orderId",
          "type": "uint256"
        }
      ],
      "payable": false,
      "stateMutability": "nonpayable",
      "type": "function"
    },
    {
      "constant": false,
      "inputs": [
        {
          "name": "orderId",
          "type": "uint32"
        }
      ],
      "name": "releaseOrderId",
      "outputs": [],
      "payable": false,
      "stateMutability": "nonpayable",
      "type": "function"
    },
    {
      "constant": true,
      "inputs": [],
      "name": "getTakenOrdersBitMap",
      "outputs": [
        {
          "name": "",
          "type": "uint256"
        }
      ],
      "payable": false,
      "stateMutability": "view",
      "type": "function"
    },
    {
      "constant": true,
      "inputs": [],
      "name": "getFirstOrderId",
      "outputs": [
        {
          "name": "",
          "type": "uint32"
        }
      ],
      "payable": false,
      "stateMutability": "view",
      "type": "function"
    },
    {
      "constant": true,
      "inputs": [],
      "name": "isOrderAllocationRequired",
      "outputs": [
        {
          "name": "",
          "type": "bool"
        }
      ],
      "payable": false,
      "stateMutability": "view",
      "type": "function"
    }
  ],
  "bytecode": "0x6060604052341561000f57600080fd5b61046f8061001e6000396000f300606060405260043610610083576000357c0100000000000000000000000000000000000000000000000000000000900463ffffffff16806304068ae2146100885780630be423f8146100b157806321b741e9146100da5780638ed44f181461010f578063a24c0c821461013c578063d4fa1b8414610165578063de11cbf41461018e575b600080fd5b341561009357600080fd5b61009b6101b1565b6040518082815260200191505060405180910390f35b34156100bc57600080fd5b6100c46101b6565b6040518082815260200191505060405180910390f35b34156100e557600080fd5b6100ed6101c2565b604051808263ffffffff1663ffffffff16815260200191505060405180910390f35b341561011a57600080fd5b6101226101de565b604051808215151515815260200191505060405180910390f35b341561014757600080fd5b610163600480803563ffffffff169060200190919050506101ef565b005b341561017057600080fd5b6101786101fe565b6040518082815260200191505060405180910390f35b341561019957600080fd5b6101af600480803590602001909190505061024f565b005b602081565b60008060010154905090565b60008060000160009054906101000a900463ffffffff16905090565b60006101ea6000610268565b905090565b6101fa60008261029f565b5050565b600061020a6000610367565b63ffffffff1690507fd5717c284e46061bdc0b3b75e5cb3645f34417cbd74ca53b845d2f967882afc6816040518082815260200191505060405180910390a180905090565b61025a6000826103de565b151561026557600080fd5b50565b6000808260000160009054906101000a900463ffffffff1663ffffffff161415610295576001905061029a565b600090505b919050565b60008060008460000160009054906101000a900463ffffffff1663ffffffff168463ffffffff16101515156102d357600080fd5b60208560000160009054906101000a900463ffffffff1663ffffffff16018463ffffffff1610151561030457600080fd5b8460000160009054906101000a900463ffffffff1663ffffffff168463ffffffff160391508160019060020a02905060008560010154821611151561034857600080fd5b8019856001016000828254169250508190555060019250505092915050565b6000806000808460010154925060019150600090505b60208110156103d157600082841614156103c0578183178560010181905550808560000160009054906101000a900463ffffffff1663ffffffff160193506103d6565b60028202915080600101905061037d565b600080fd5b505050919050565b6000808360000160009054906101000a900463ffffffff1663ffffffff16111561040b576000905061043d565b818360000160006101000a81548163ffffffff021916908363ffffffff16021790555060008360010181905550600190505b929150505600a165627a7a7230582041d153784bbd46951825c8ebfa7d0bea0e953ac607e4f5cc84cc214196de83080029",
  "source": "pragma solidity 0.4.18;\n\n\nimport \"../OrderIdManager.sol\";\n\n\ncontract MockOrderIdManager is OrderIdManager {\n\n    OrderIdData orderIdData;\n\n    function allocatOrderIds(uint firstId) public {\n        require(allocateOrderIds(orderIdData, uint32(firstId)));\n    }\n\n    event NewOrderId(uint orderId);\n\n    function fetchNewOrderId() public returns (uint orderId) {\n        orderId = fetchNewOrderId(orderIdData);\n        NewOrderId(orderId);\n        return orderId;\n    }\n\n    function releaseOrderId(uint32 orderId) public {\n        releaseOrderId(orderIdData, orderId);\n    }\n\n    function getTakenOrdersBitMap() public view returns(uint256) {\n        return orderIdData.takenBitmap;\n    }\n\n    function getFirstOrderId() public view returns(uint32) {\n        return orderIdData.firstOrderId;\n    }\n\n    function isOrderAllocationRequired() public view returns(bool) {\n        return orderAllocationRequired(orderIdData);\n    }\n}\n",
  "sourcePath": "/Users/oscarr/Ethereum/frappe/contracts/permissionless/mock/MockOrderIdManager.sol",
  "compiler": {
    "name": "solc",
    "version": "0.4.18+commit.9cf6e910.Emscripten.clang"
  },
  "schemaVersion": "3.0.6",
  "updatedAt": "2019-05-18T17:14:13.499Z",
  "devdoc": {
    "methods": {}
  },
  "userdoc": {
    "methods": {}
  }
}