{
  "contractName": "MockExchange",
  "abi": [
    {
      "constant": true,
      "inputs": [
        {
          "name": "",
          "type": "address"
        }
      ],
      "name": "owners",
      "outputs": [
        {
          "name": "",
          "type": "bool"
        }
      ],
      "payable": false,
      "stateMutability": "view",
      "type": "function"
    },
    {
      "constant": true,
      "inputs": [],
      "name": "exchangeName",
      "outputs": [
        {
          "name": "",
          "type": "string"
        }
      ],
      "payable": false,
      "stateMutability": "view",
      "type": "function"
    },
    {
      "constant": true,
      "inputs": [
        {
          "name": "",
          "type": "address"
        }
      ],
      "name": "tokenDepositAddresses",
      "outputs": [
        {
          "name": "",
          "type": "address"
        }
      ],
      "payable": false,
      "stateMutability": "view",
      "type": "function"
    },
    {
      "constant": true,
      "inputs": [],
      "name": "bank",
      "outputs": [
        {
          "name": "",
          "type": "address"
        }
      ],
      "payable": false,
      "stateMutability": "view",
      "type": "function"
    },
    {
      "inputs": [
        {
          "name": "_exchangeName",
          "type": "string"
        },
        {
          "name": "_bank",
          "type": "address"
        }
      ],
      "payable": false,
      "stateMutability": "nonpayable",
      "type": "constructor"
    },
    {
      "constant": false,
      "inputs": [
        {
          "name": "token",
          "type": "address"
        },
        {
          "name": "tokenAmount",
          "type": "uint256"
        },
        {
          "name": "destination",
          "type": "address"
        }
      ],
      "name": "withdraw",
      "outputs": [],
      "payable": false,
      "stateMutability": "nonpayable",
      "type": "function"
    },
    {
      "constant": false,
      "inputs": [
        {
          "name": "tokens",
          "type": "address[]"
        },
        {
          "name": "amounts",
          "type": "uint256[]"
        }
      ],
      "name": "clearBalances",
      "outputs": [],
      "payable": false,
      "stateMutability": "nonpayable",
      "type": "function"
    },
    {
      "constant": true,
      "inputs": [
        {
          "name": "token",
          "type": "address"
        }
      ],
      "name": "getBalance",
      "outputs": [
        {
          "name": "",
          "type": "uint256"
        }
      ],
      "payable": false,
      "stateMutability": "view",
      "type": "function"
    },
    {
      "constant": false,
      "inputs": [
        {
          "name": "newOwner",
          "type": "address"
        }
      ],
      "name": "addOwner",
      "outputs": [],
      "payable": false,
      "stateMutability": "nonpayable",
      "type": "function"
    },
    {
      "constant": false,
      "inputs": [
        {
          "name": "token",
          "type": "address"
        }
      ],
      "name": "addMockDepositAddress",
      "outputs": [],
      "payable": false,
      "stateMutability": "nonpayable",
      "type": "function"
    }
  ],
  "bytecode": "0x6060604052341561000f57600080fd5b60405162001fb138038062001fb183398101604052808051820191906020018051906020019091905050816001908051906020019061004f9291906100f0565b5080600260006101000a81548173ffffffffffffffffffffffffffffffffffffffff021916908373ffffffffffffffffffffffffffffffffffffffff1602179055506001600360003373ffffffffffffffffffffffffffffffffffffffff1673ffffffffffffffffffffffffffffffffffffffff16815260200190815260200160002060006101000a81548160ff0219169083151502179055505050610195565b828054600181600116156101000203166002900490600052602060002090601f016020900481019282601f1061013157805160ff191683800117855561015f565b8280016001018555821561015f579182015b8281111561015e578251825591602001919060010190610143565b5b50905061016c9190610170565b5090565b61019291905b8082111561018e576000816000905550600101610176565b5090565b90565b611e0c80620001a56000396000f300606060405260043610610099576000357c0100000000000000000000000000000000000000000000000000000000900463ffffffff168063022914a71461009e5780634f68ea5f146100ef57806369328dec1461017d5780636a0d6681146101de5780637065cb481461025757806376cdb03b14610290578063bb49a123146102e5578063d8f67a901461037f578063f8b2cb4f146103b8575b600080fd5b34156100a957600080fd5b6100d5600480803573ffffffffffffffffffffffffffffffffffffffff16906020019091905050610405565b604051808215151515815260200191505060405180910390f35b34156100fa57600080fd5b610102610425565b6040518080602001828103825283818151815260200191508051906020019080838360005b83811015610142578082015181840152602081019050610127565b50505050905090810190601f16801561016f5780820380516001836020036101000a031916815260200191505b509250505060405180910390f35b341561018857600080fd5b6101dc600480803573ffffffffffffffffffffffffffffffffffffffff1690602001909190803590602001909190803573ffffffffffffffffffffffffffffffffffffffff169060200190919050506104c3565b005b34156101e957600080fd5b610215600480803573ffffffffffffffffffffffffffffffffffffffff169060200190919050506106cf565b604051808273ffffffffffffffffffffffffffffffffffffffff1673ffffffffffffffffffffffffffffffffffffffff16815260200191505060405180910390f35b341561026257600080fd5b61028e600480803573ffffffffffffffffffffffffffffffffffffffff16906020019091905050610702565b005b341561029b57600080fd5b6102a36107b5565b604051808273ffffffffffffffffffffffffffffffffffffffff1673ffffffffffffffffffffffffffffffffffffffff16815260200191505060405180910390f35b34156102f057600080fd5b61037d600480803590602001908201803590602001908080602002602001604051908101604052809392919081815260200183836020028082843782019150505050505091908035906020019082018035906020019080806020026020016040519081016040528093929190818152602001838360200280828437820191505050505050919050506107db565b005b341561038a57600080fd5b6103b6600480803573ffffffffffffffffffffffffffffffffffffffff16906020019091905050610a15565b005b34156103c357600080fd5b6103ef600480803573ffffffffffffffffffffffffffffffffffffffff16906020019091905050610e71565b6040518082815260200191505060405180910390f35b60036020528060005260406000206000915054906101000a900460ff1681565b60018054600181600116156101000203166002900480601f0160208091040260200160405190810160405280929190818152602001828054600181600116156101000203166002900480156104bb5780601f10610490576101008083540402835291602001916104bb565b820191906000526020600020905b81548152906001019060200180831161049e57829003601f168201915b505050505081565b600360003373ffffffffffffffffffffffffffffffffffffffff1673ffffffffffffffffffffffffffffffffffffffff16815260200190815260200160002060009054906101000a900460ff16151561051b57600080fd5b600073ffffffffffffffffffffffffffffffffffffffff16600460008573ffffffffffffffffffffffffffffffffffffffff1673ffffffffffffffffffffffffffffffffffffffff16815260200190815260200160002060009054906101000a900473ffffffffffffffffffffffffffffffffffffffff1673ffffffffffffffffffffffffffffffffffffffff16141515156105b657600080fd5b600460008473ffffffffffffffffffffffffffffffffffffffff1673ffffffffffffffffffffffffffffffffffffffff16815260200190815260200160002060009054906101000a900473ffffffffffffffffffffffffffffffffffffffff1673ffffffffffffffffffffffffffffffffffffffff1662f714ce83836040518363ffffffff167c0100000000000000000000000000000000000000000000000000000000028152600401808381526020018273ffffffffffffffffffffffffffffffffffffffff1673ffffffffffffffffffffffffffffffffffffffff16815260200192505050600060405180830381600087803b15156106b657600080fd5b6102c65a03f115156106c757600080fd5b505050505050565b60046020528060005260406000206000915054906101000a900473ffffffffffffffffffffffffffffffffffffffff1681565b600360003373ffffffffffffffffffffffffffffffffffffffff1673ffffffffffffffffffffffffffffffffffffffff16815260200190815260200160002060009054906101000a900460ff16151561075a57600080fd5b6001600360008373ffffffffffffffffffffffffffffffffffffffff1673ffffffffffffffffffffffffffffffffffffffff16815260200190815260200160002060006101000a81548160ff02191690831515021790555050565b600260009054906101000a900473ffffffffffffffffffffffffffffffffffffffff1681565b6000600360003373ffffffffffffffffffffffffffffffffffffffff1673ffffffffffffffffffffffffffffffffffffffff16815260200190815260200160002060009054906101000a900460ff16151561083557600080fd5b600090505b8251811015610a1057600073ffffffffffffffffffffffffffffffffffffffff1660046000858481518110151561086d57fe5b9060200190602002015173ffffffffffffffffffffffffffffffffffffffff1673ffffffffffffffffffffffffffffffffffffffff16815260200190815260200160002060009054906101000a900473ffffffffffffffffffffffffffffffffffffffff1673ffffffffffffffffffffffffffffffffffffffff1614156108f357610a03565b60046000848381518110151561090557fe5b9060200190602002015173ffffffffffffffffffffffffffffffffffffffff1673ffffffffffffffffffffffffffffffffffffffff16815260200190815260200160002060009054906101000a900473ffffffffffffffffffffffffffffffffffffffff1673ffffffffffffffffffffffffffffffffffffffff166384d9a4e6838381518110151561099357fe5b906020019060200201516040518263ffffffff167c010000000000000000000000000000000000000000000000000000000002815260040180828152602001915050600060405180830381600087803b15156109ee57600080fd5b6102c65a03f115156109ff57600080fd5b5050505b808060010191505061083a565b505050565b600360003373ffffffffffffffffffffffffffffffffffffffff1673ffffffffffffffffffffffffffffffffffffffff16815260200190815260200160002060009054906101000a900460ff161515610a6d57600080fd5b73eeeeeeeeeeeeeeeeeeeeeeeeeeeeeeeeeeeeeeee73ffffffffffffffffffffffffffffffffffffffff168173ffffffffffffffffffffffffffffffffffffffff161415610be257600260009054906101000a900473ffffffffffffffffffffffffffffffffffffffff1630610ae1610f60565b808373ffffffffffffffffffffffffffffffffffffffff1673ffffffffffffffffffffffffffffffffffffffff1681526020018273ffffffffffffffffffffffffffffffffffffffff1673ffffffffffffffffffffffffffffffffffffffff16815260200192505050604051809103906000f0801515610b6057600080fd5b600460008373ffffffffffffffffffffffffffffffffffffffff1673ffffffffffffffffffffffffffffffffffffffff16815260200190815260200160002060006101000a81548173ffffffffffffffffffffffffffffffffffffffff021916908373ffffffffffffffffffffffffffffffffffffffff160217905550610d3f565b80600260009054906101000a900473ffffffffffffffffffffffffffffffffffffffff1630610c0f610f70565b808473ffffffffffffffffffffffffffffffffffffffff1673ffffffffffffffffffffffffffffffffffffffff1681526020018373ffffffffffffffffffffffffffffffffffffffff1673ffffffffffffffffffffffffffffffffffffffff1681526020018273ffffffffffffffffffffffffffffffffffffffff1673ffffffffffffffffffffffffffffffffffffffff1681526020019350505050604051809103906000f0801515610cc157600080fd5b600460008373ffffffffffffffffffffffffffffffffffffffff1673ffffffffffffffffffffffffffffffffffffffff16815260200190815260200160002060006101000a81548173ffffffffffffffffffffffffffffffffffffffff021916908373ffffffffffffffffffffffffffffffffffffffff1602179055505b600260009054906101000a900473ffffffffffffffffffffffffffffffffffffffff1673ffffffffffffffffffffffffffffffffffffffff16637065cb48600460008473ffffffffffffffffffffffffffffffffffffffff1673ffffffffffffffffffffffffffffffffffffffff16815260200190815260200160002060009054906101000a900473ffffffffffffffffffffffffffffffffffffffff166040518263ffffffff167c0100000000000000000000000000000000000000000000000000000000028152600401808273ffffffffffffffffffffffffffffffffffffffff1673ffffffffffffffffffffffffffffffffffffffff168152602001915050600060405180830381600087803b1515610e5a57600080fd5b6102c65a03f11515610e6b57600080fd5b50505050565b6000600460008373ffffffffffffffffffffffffffffffffffffffff1673ffffffffffffffffffffffffffffffffffffffff16815260200190815260200160002060009054906101000a900473ffffffffffffffffffffffffffffffffffffffff1673ffffffffffffffffffffffffffffffffffffffff166312065fe06000604051602001526040518163ffffffff167c0100000000000000000000000000000000000000000000000000000000028152600401602060405180830381600087803b1515610f3e57600080fd5b6102c65a03f11515610f4f57600080fd5b505050604051805190509050919050565b60405161052a80610f8183390190565b604051610936806114ab8339019056006060604052341561000f57600080fd5b60405160408061052a83398101604052808051906020019091908051906020019091905050818180600160006101000a81548173ffffffffffffffffffffffffffffffffffffffff021916908373ffffffffffffffffffffffffffffffffffffffff160217905550816000806101000a81548173ffffffffffffffffffffffffffffffffffffffff021916908373ffffffffffffffffffffffffffffffffffffffff16021790555050505050610460806100ca6000396000f30060606040526004361061006c576000357c0100000000000000000000000000000000000000000000000000000000900463ffffffff168062f714ce1461006e57806312065fe0146100b057806376cdb03b146100d957806384d9a4e61461012e5780638da5cb5b14610151575b005b341561007957600080fd5b6100ae600480803590602001909190803573ffffffffffffffffffffffffffffffffffffffff169060200190919050506101a6565b005b34156100bb57600080fd5b6100c36102e9565b6040518082815260200191505060405180910390f35b34156100e457600080fd5b6100ec610308565b604051808273ffffffffffffffffffffffffffffffffffffffff1673ffffffffffffffffffffffffffffffffffffffff16815260200191505060405180910390f35b341561013957600080fd5b61014f600480803590602001909190505061032d565b005b341561015c57600080fd5b61016461040e565b604051808273ffffffffffffffffffffffffffffffffffffffff1673ffffffffffffffffffffffffffffffffffffffff16815260200191505060405180910390f35b600160009054906101000a900473ffffffffffffffffffffffffffffffffffffffff1673ffffffffffffffffffffffffffffffffffffffff163373ffffffffffffffffffffffffffffffffffffffff1614151561020257600080fd5b6000809054906101000a900473ffffffffffffffffffffffffffffffffffffffff1673ffffffffffffffffffffffffffffffffffffffff16633bed33ce836040518263ffffffff167c010000000000000000000000000000000000000000000000000000000002815260040180828152602001915050600060405180830381600087803b151561029157600080fd5b6102c65a03f115156102a257600080fd5b5050508073ffffffffffffffffffffffffffffffffffffffff166108fc839081150290604051600060405180830381858888f1935050505015156102e557600080fd5b5050565b60003073ffffffffffffffffffffffffffffffffffffffff1631905090565b6000809054906101000a900473ffffffffffffffffffffffffffffffffffffffff1681565b600160009054906101000a900473ffffffffffffffffffffffffffffffffffffffff1673ffffffffffffffffffffffffffffffffffffffff163373ffffffffffffffffffffffffffffffffffffffff1614151561038957600080fd5b803073ffffffffffffffffffffffffffffffffffffffff163110151561040b576000809054906101000a900473ffffffffffffffffffffffffffffffffffffffff1673ffffffffffffffffffffffffffffffffffffffff166108fc829081150290604051600060405180830381858888f19350505050151561040a57600080fd5b5b50565b600160009054906101000a900473ffffffffffffffffffffffffffffffffffffffff16815600a165627a7a72305820824d62b916f5c62e85db3bced86083bf90bb0801d741d4f5264742480bdb95ef00296060604052341561000f57600080fd5b60405160608061093683398101604052808051906020019091908051906020019091908051906020019091905050818180600160006101000a81548173ffffffffffffffffffffffffffffffffffffffff021916908373ffffffffffffffffffffffffffffffffffffffff160217905550816000806101000a81548173ffffffffffffffffffffffffffffffffffffffff021916908373ffffffffffffffffffffffffffffffffffffffff160217905550505082600260006101000a81548173ffffffffffffffffffffffffffffffffffffffff021916908373ffffffffffffffffffffffffffffffffffffffff160217905550505050610821806101156000396000f300606060405260043610610077576000357c0100000000000000000000000000000000000000000000000000000000900463ffffffff168062f714ce1461007c57806312065fe0146100be57806376cdb03b146100e757806384d9a4e61461013c5780638da5cb5b1461015f578063fc0c546a146101b4575b600080fd5b341561008757600080fd5b6100bc600480803590602001909190803573ffffffffffffffffffffffffffffffffffffffff16906020019091905050610209565b005b34156100c957600080fd5b6100d161044b565b6040518082815260200191505060405180910390f35b34156100f257600080fd5b6100fa610532565b604051808273ffffffffffffffffffffffffffffffffffffffff1673ffffffffffffffffffffffffffffffffffffffff16815260200191505060405180910390f35b341561014757600080fd5b61015d6004808035906020019091905050610557565b005b341561016a57600080fd5b6101726107a9565b604051808273ffffffffffffffffffffffffffffffffffffffff1673ffffffffffffffffffffffffffffffffffffffff16815260200191505060405180910390f35b34156101bf57600080fd5b6101c76107cf565b604051808273ffffffffffffffffffffffffffffffffffffffff1673ffffffffffffffffffffffffffffffffffffffff16815260200191505060405180910390f35b600160009054906101000a900473ffffffffffffffffffffffffffffffffffffffff1673ffffffffffffffffffffffffffffffffffffffff163373ffffffffffffffffffffffffffffffffffffffff1614151561026557600080fd5b6000809054906101000a900473ffffffffffffffffffffffffffffffffffffffff1673ffffffffffffffffffffffffffffffffffffffff16639e281a98600260009054906101000a900473ffffffffffffffffffffffffffffffffffffffff16846040518363ffffffff167c0100000000000000000000000000000000000000000000000000000000028152600401808373ffffffffffffffffffffffffffffffffffffffff1673ffffffffffffffffffffffffffffffffffffffff16815260200182815260200192505050600060405180830381600087803b151561034a57600080fd5b6102c65a03f1151561035b57600080fd5b505050600260009054906101000a900473ffffffffffffffffffffffffffffffffffffffff1673ffffffffffffffffffffffffffffffffffffffff1663a9059cbb82846000604051602001526040518363ffffffff167c0100000000000000000000000000000000000000000000000000000000028152600401808373ffffffffffffffffffffffffffffffffffffffff1673ffffffffffffffffffffffffffffffffffffffff16815260200182815260200192505050602060405180830381600087803b151561042b57600080fd5b6102c65a03f1151561043c57600080fd5b50505060405180519050505050565b6000600260009054906101000a900473ffffffffffffffffffffffffffffffffffffffff1673ffffffffffffffffffffffffffffffffffffffff166370a08231306000604051602001526040518263ffffffff167c0100000000000000000000000000000000000000000000000000000000028152600401808273ffffffffffffffffffffffffffffffffffffffff1673ffffffffffffffffffffffffffffffffffffffff168152602001915050602060405180830381600087803b151561051257600080fd5b6102c65a03f1151561052357600080fd5b50505060405180519050905090565b6000809054906101000a900473ffffffffffffffffffffffffffffffffffffffff1681565b600160009054906101000a900473ffffffffffffffffffffffffffffffffffffffff1673ffffffffffffffffffffffffffffffffffffffff163373ffffffffffffffffffffffffffffffffffffffff161415156105b357600080fd5b80600260009054906101000a900473ffffffffffffffffffffffffffffffffffffffff1673ffffffffffffffffffffffffffffffffffffffff166370a08231306000604051602001526040518263ffffffff167c0100000000000000000000000000000000000000000000000000000000028152600401808273ffffffffffffffffffffffffffffffffffffffff1673ffffffffffffffffffffffffffffffffffffffff168152602001915050602060405180830381600087803b151561067957600080fd5b6102c65a03f1151561068a57600080fd5b505050604051805190501015156107a657600260009054906101000a900473ffffffffffffffffffffffffffffffffffffffff1673ffffffffffffffffffffffffffffffffffffffff1663a9059cbb6000809054906101000a900473ffffffffffffffffffffffffffffffffffffffff16836000604051602001526040518363ffffffff167c0100000000000000000000000000000000000000000000000000000000028152600401808373ffffffffffffffffffffffffffffffffffffffff1673ffffffffffffffffffffffffffffffffffffffff16815260200182815260200192505050602060405180830381600087803b151561078957600080fd5b6102c65a03f1151561079a57600080fd5b50505060405180519050505b50565b600160009054906101000a900473ffffffffffffffffffffffffffffffffffffffff1681565b600260009054906101000a900473ffffffffffffffffffffffffffffffffffffffff16815600a165627a7a723058200105f27b0e3c49ab5e505b306a7156e5f0316d1b54a95b881c162e945cbbfb520029a165627a7a723058200a96797c26b59909e1180d33205e48fed60d6f4ac5f47abf28a1f3f24d3595c30029",
  "source": "pragma solidity ^0.4.18;\n\n\nimport \"../ERC20Interface.sol\";\nimport \"./MockCentralBank.sol\";\nimport \"./MockDepositAddressEther.sol\";\nimport \"./MockDepositAddressToken.sol\";\nimport \"../Utils.sol\";\n\n\n/// @title Mock Exchange Deposit Address\n/// @author Ilan Doron\n/// @dev a dummy contract that simulates a deposit address of an exchange. allows user to deposit, withdraw and convert tokens.\ncontract MockExchange is Utils {\n\n    string public exchangeName;\n    MockCentralBank public bank;\n    mapping(address=>bool) public owners;\n    mapping(address=>MockDepositAddress) public tokenDepositAddresses;\n\n    function MockExchange(string _exchangeName, MockCentralBank _bank) public {\n        exchangeName = _exchangeName;\n        bank = _bank;\n        owners[msg.sender] = true;\n    }\n\n    modifier onlyOwner()\n    {\n        require(owners[msg.sender]);\n        _;\n    }\n\n    function withdraw(ERC20 token, uint tokenAmount, address destination) public onlyOwner {\n        require(tokenDepositAddresses[token] != address(0));\n        // withdraw from mockDepositaddress. which withdraws from bank\n        tokenDepositAddresses[token].withdraw(tokenAmount, destination);\n    }\n\n    function clearBalances(ERC20[] tokens, uint[] amounts) public onlyOwner {\n\n        for (uint i = 0; i < tokens.length; i++) {\n            if (tokenDepositAddresses[tokens[i]] == address(0)) continue;\n            tokenDepositAddresses[tokens[i]].clearBalance(amounts[i]);\n        }\n    }\n\n    function getBalance( ERC20 token ) public view returns(uint) {\n        return tokenDepositAddresses[token].getBalance();\n    }\n\n    function addOwner( address newOwner ) public onlyOwner {\n        owners[newOwner] = true;\n    }\n\n    function addMockDepositAddress( ERC20 token ) public onlyOwner {\n\n        if (token == ETH_TOKEN_ADDRESS)\n            tokenDepositAddresses[token] = new MockDepositAddressEther(bank, this);\n        else\n            tokenDepositAddresses[token] = new MockDepositAddressToken(token, bank, this);\n\n        bank.addOwner(tokenDepositAddresses[token]);\n    }\n}",
  "sourcePath": "/Users/oscarr/Ethereum/frappe/contracts/mockContracts/MockExchange.sol",
  "compiler": {
    "name": "solc",
    "version": "0.4.18+commit.9cf6e910.Emscripten.clang"
  },
  "schemaVersion": "3.0.6",
  "updatedAt": "2019-05-18T17:14:13.202Z",
  "devdoc": {
    "author": "Ilan Doron",
    "methods": {},
    "title": "Mock Exchange Deposit Address"
  },
  "userdoc": {
    "methods": {}
  }
}