{
  "contractName": "MockCentralBank",
  "abi": [
    {
      "constant": true,
      "inputs": [
        {
          "name": "",
          "type": "address"
        }
      ],
      "name": "owners",
      "outputs": [
        {
          "name": "",
          "type": "bool"
        }
      ],
      "payable": false,
      "stateMutability": "view",
      "type": "function"
    },
    {
      "inputs": [],
      "payable": false,
      "stateMutability": "nonpayable",
      "type": "constructor"
    },
    {
      "payable": true,
      "stateMutability": "payable",
      "type": "fallback"
    },
    {
      "constant": false,
      "inputs": [
        {
          "name": "amount",
          "type": "uint256"
        }
      ],
      "name": "withdrawEther",
      "outputs": [],
      "payable": false,
      "stateMutability": "nonpayable",
      "type": "function"
    },
    {
      "constant": false,
      "inputs": [
        {
          "name": "token",
          "type": "address"
        },
        {
          "name": "amount",
          "type": "uint256"
        }
      ],
      "name": "withdrawToken",
      "outputs": [],
      "payable": false,
      "stateMutability": "nonpayable",
      "type": "function"
    },
    {
      "constant": false,
      "inputs": [],
      "name": "depositEther",
      "outputs": [],
      "payable": true,
      "stateMutability": "payable",
      "type": "function"
    },
    {
      "constant": false,
      "inputs": [
        {
          "name": "newOwner",
          "type": "address"
        }
      ],
      "name": "addOwner",
      "outputs": [],
      "payable": false,
      "stateMutability": "nonpayable",
      "type": "function"
    }
  ],
  "bytecode": "0x6060604052341561000f57600080fd5b60016000803373ffffffffffffffffffffffffffffffffffffffff1673ffffffffffffffffffffffffffffffffffffffff16815260200190815260200160002060006101000a81548160ff021916908315150217905550610423806100756000396000f30060606040526004361061006d576000357c0100000000000000000000000000000000000000000000000000000000900463ffffffff168063022914a71461006f5780633bed33ce146100c05780637065cb48146100e357806398ea5fca1461011c5780639e281a9814610126575b005b341561007a57600080fd5b6100a6600480803573ffffffffffffffffffffffffffffffffffffffff16906020019091905050610168565b604051808215151515815260200191505060405180910390f35b34156100cb57600080fd5b6100e16004808035906020019091905050610188565b005b34156100ee57600080fd5b61011a600480803573ffffffffffffffffffffffffffffffffffffffff16906020019091905050610222565b005b6101246102d3565b005b341561013157600080fd5b610166600480803573ffffffffffffffffffffffffffffffffffffffff169060200190919080359060200190919050506102d5565b005b60006020528060005260406000206000915054906101000a900460ff1681565b6000803273ffffffffffffffffffffffffffffffffffffffff1673ffffffffffffffffffffffffffffffffffffffff16815260200190815260200160002060009054906101000a900460ff1615156101df57600080fd5b3373ffffffffffffffffffffffffffffffffffffffff166108fc829081150290604051600060405180830381858888f19350505050151561021f57600080fd5b50565b6000803273ffffffffffffffffffffffffffffffffffffffff1673ffffffffffffffffffffffffffffffffffffffff16815260200190815260200160002060009054906101000a900460ff16151561027957600080fd5b60016000808373ffffffffffffffffffffffffffffffffffffffff1673ffffffffffffffffffffffffffffffffffffffff16815260200190815260200160002060006101000a81548160ff02191690831515021790555050565b565b6000803273ffffffffffffffffffffffffffffffffffffffff1673ffffffffffffffffffffffffffffffffffffffff16815260200190815260200160002060009054906101000a900460ff16151561032c57600080fd5b8173ffffffffffffffffffffffffffffffffffffffff1663a9059cbb33836000604051602001526040518363ffffffff167c0100000000000000000000000000000000000000000000000000000000028152600401808373ffffffffffffffffffffffffffffffffffffffff1673ffffffffffffffffffffffffffffffffffffffff16815260200182815260200192505050602060405180830381600087803b15156103d757600080fd5b6102c65a03f115156103e857600080fd5b505050604051805190505050505600a165627a7a7230582046a13da709f088b028954fd86e18ddda2a23dd6a5ef69efac5c591a3ac7c3f110029",
  "source": "pragma solidity ^0.4.18;\n\nimport \"../ERC20Interface.sol\";\n\n\n/// @title Mock Central Bank\n/// @author Yaron Velner\n/// @dev a dummy contract that simulates a bank that holds tokens and ether. centralized exchanges can convert tokens here.\n\n\ncontract MockCentralBank {\n    mapping(address=>bool) public owners;\n\n    function MockCentralBank() public {\n        owners[msg.sender] = true;\n    }\n\n    function() payable public { }\n\n    function withdrawEther(uint amount) public {\n        if (! owners[tx.origin]) revert();\n\n        msg.sender.transfer(amount);\n    }\n\n    function withdrawToken(ERC20 token, uint amount) public {\n        if (!owners[tx.origin]) revert();\n\n        token.transfer(msg.sender,amount);\n    }\n\n    function depositEther() public payable {\n        // just to simplify interaction with testrpc\n    }\n\n    function addOwner(address newOwner) public {\n      if ( ! owners[tx.origin] ) revert();\n      owners[newOwner] = true;\n    }\n}\n",
  "sourcePath": "/Users/oscarr/Ethereum/frappe/contracts/mockContracts/MockCentralBank.sol",
  "compiler": {
    "name": "solc",
    "version": "0.4.18+commit.9cf6e910.Emscripten.clang"
  },
  "schemaVersion": "3.0.6",
  "updatedAt": "2019-05-18T17:14:13.184Z",
  "devdoc": {
    "author": "Yaron Velner",
    "methods": {},
    "title": "Mock Central Bank"
  },
  "userdoc": {
    "methods": {}
  }
}