{
  "contractName": "MockUtils",
  "abi": [
    {
      "constant": true,
      "inputs": [],
      "name": "getMaxRate",
      "outputs": [
        {
          "name": "",
          "type": "uint256"
        }
      ],
      "payable": false,
      "stateMutability": "pure",
      "type": "function"
    },
    {
      "constant": true,
      "inputs": [],
      "name": "getMaxQty",
      "outputs": [
        {
          "name": "",
          "type": "uint256"
        }
      ],
      "payable": false,
      "stateMutability": "pure",
      "type": "function"
    },
    {
      "constant": true,
      "inputs": [
        {
          "name": "srcQty",
          "type": "uint256"
        },
        {
          "name": "srcDecimals",
          "type": "uint256"
        },
        {
          "name": "dstDecimals",
          "type": "uint256"
        },
        {
          "name": "rate",
          "type": "uint256"
        }
      ],
      "name": "mockCalcDstQty",
      "outputs": [
        {
          "name": "",
          "type": "uint256"
        }
      ],
      "payable": false,
      "stateMutability": "pure",
      "type": "function"
    },
    {
      "constant": true,
      "inputs": [
        {
          "name": "dstQty",
          "type": "uint256"
        },
        {
          "name": "srcDecimals",
          "type": "uint256"
        },
        {
          "name": "dstDecimals",
          "type": "uint256"
        },
        {
          "name": "rate",
          "type": "uint256"
        }
      ],
      "name": "mockCalcSrcQty",
      "outputs": [
        {
          "name": "",
          "type": "uint256"
        }
      ],
      "payable": false,
      "stateMutability": "pure",
      "type": "function"
    }
  ],
  "bytecode": "0x6060604052341561000f57600080fd5b61034e8061001e6000396000f300606060405260043610610062576000357c0100000000000000000000000000000000000000000000000000000000900463ffffffff16806308fad7b414610067578063318282f114610090578063d2a6e002146100e2578063d2b5145e1461010b575b600080fd5b341561007257600080fd5b61007a61015d565b6040518082815260200191505060405180910390f35b341561009b57600080fd5b6100cc6004808035906020019091908035906020019091908035906020019091908035906020019091905050610171565b6040518082815260200191505060405180910390f35b34156100ed57600080fd5b6100f5610189565b6040518082815260200191505060405180910390f35b341561011657600080fd5b610147600480803590602001909190803590602001909190803590602001909190803590602001909190505061019e565b6040518082815260200191505060405180910390f35b60006b204fce5e3e25026110000000905090565b600061017f858585856101b6565b9050949350505050565b6000620f4240670de0b6b3a764000002905090565b60006101ac85858585610270565b9050949350505050565b60008060006b204fce5e3e2502611000000087111515156101d657600080fd5b620f4240670de0b6b3a76400000284111515156101f257600080fd5b84861015156102295760128587031115151561020d57600080fd5b848603600a0a87670de0b6b3a764000002029150839050610253565b60128686031115151561023b57600080fd5b86670de0b6b3a7640000029150858503600a0a840290505b8060018284010381151561026357fe5b0492505050949350505050565b60006b204fce5e3e25026110000000851115151561028d57600080fd5b620f4240670de0b6b3a76400000282111515156102a957600080fd5b83831015156102e8576012848403111515156102c457600080fd5b670de0b6b3a7640000848403600a0a838702028115156102e057fe5b04905061031a565b6012838503111515156102fa57600080fd5b828403600a0a670de0b6b3a76400000282860281151561031657fe5b0490505b9493505050505600a165627a7a72305820fedfbe3c5bd679efb5c10ef0c7fdf6bd666626d98d4ea3f9991cd752faf158550029",
  "source": "pragma solidity 0.4.18;\n\n\nimport \"../Utils.sol\";\n\n/// @title Kyber utils contract\ncontract MockUtils is Utils {\n\n    function getMaxRate() public pure returns(uint) {\n        return MAX_RATE;\n    }\n\n    function getMaxQty() public pure returns(uint) {\n        return MAX_QTY;\n    }\n\n    function mockCalcDstQty(uint srcQty, uint srcDecimals, uint dstDecimals, uint rate) public pure returns(uint) {\n        return calcDstQty(srcQty, srcDecimals, dstDecimals, rate);\n    }\n\n    function mockCalcSrcQty(uint dstQty, uint srcDecimals, uint dstDecimals, uint rate) public pure returns(uint) {\n        return calcSrcQty(dstQty, srcDecimals, dstDecimals, rate);\n    }\n}\n",
  "sourcePath": "/Users/oscarr/Ethereum/frappe/contracts/mockContracts/MockUtils.sol",
  "compiler": {
    "name": "solc",
    "version": "0.4.18+commit.9cf6e910.Emscripten.clang"
  },
  "schemaVersion": "3.0.6",
  "updatedAt": "2019-05-18T17:14:13.254Z",
  "devdoc": {
    "methods": {},
    "title": "Kyber utils contract"
  },
  "userdoc": {
    "methods": {}
  }
}