{
  "contractName": "MockImbalanceRecorder",
  "abi": [
    {
      "constant": false,
      "inputs": [
        {
          "name": "alerter",
          "type": "address"
        }
      ],
      "name": "removeAlerter",
      "outputs": [],
      "payable": false,
      "stateMutability": "nonpayable",
      "type": "function"
    },
    {
      "constant": true,
      "inputs": [],
      "name": "pendingAdmin",
      "outputs": [
        {
          "name": "",
          "type": "address"
        }
      ],
      "payable": false,
      "stateMutability": "view",
      "type": "function"
    },
    {
      "constant": true,
      "inputs": [],
      "name": "getOperators",
      "outputs": [
        {
          "name": "",
          "type": "address[]"
        }
      ],
      "payable": false,
      "stateMutability": "view",
      "type": "function"
    },
    {
      "constant": false,
      "inputs": [
        {
          "name": "token",
          "type": "address"
        },
        {
          "name": "amount",
          "type": "uint256"
        },
        {
          "name": "sendTo",
          "type": "address"
        }
      ],
      "name": "withdrawToken",
      "outputs": [],
      "payable": false,
      "stateMutability": "nonpayable",
      "type": "function"
    },
    {
      "constant": false,
      "inputs": [
        {
          "name": "newAlerter",
          "type": "address"
        }
      ],
      "name": "addAlerter",
      "outputs": [],
      "payable": false,
      "stateMutability": "nonpayable",
      "type": "function"
    },
    {
      "constant": false,
      "inputs": [
        {
          "name": "newAdmin",
          "type": "address"
        }
      ],
      "name": "transferAdmin",
      "outputs": [],
      "payable": false,
      "stateMutability": "nonpayable",
      "type": "function"
    },
    {
      "constant": false,
      "inputs": [],
      "name": "claimAdmin",
      "outputs": [],
      "payable": false,
      "stateMutability": "nonpayable",
      "type": "function"
    },
    {
      "constant": false,
      "inputs": [
        {
          "name": "newAdmin",
          "type": "address"
        }
      ],
      "name": "transferAdminQuickly",
      "outputs": [],
      "payable": false,
      "stateMutability": "nonpayable",
      "type": "function"
    },
    {
      "constant": true,
      "inputs": [],
      "name": "getAlerters",
      "outputs": [
        {
          "name": "",
          "type": "address[]"
        }
      ],
      "payable": false,
      "stateMutability": "view",
      "type": "function"
    },
    {
      "constant": false,
      "inputs": [
        {
          "name": "newOperator",
          "type": "address"
        }
      ],
      "name": "addOperator",
      "outputs": [],
      "payable": false,
      "stateMutability": "nonpayable",
      "type": "function"
    },
    {
      "constant": true,
      "inputs": [
        {
          "name": "",
          "type": "address"
        },
        {
          "name": "",
          "type": "uint256"
        }
      ],
      "name": "tokenImbalanceData",
      "outputs": [
        {
          "name": "",
          "type": "uint256"
        }
      ],
      "payable": false,
      "stateMutability": "view",
      "type": "function"
    },
    {
      "constant": false,
      "inputs": [
        {
          "name": "operator",
          "type": "address"
        }
      ],
      "name": "removeOperator",
      "outputs": [],
      "payable": false,
      "stateMutability": "nonpayable",
      "type": "function"
    },
    {
      "constant": false,
      "inputs": [
        {
          "name": "token",
          "type": "address"
        },
        {
          "name": "minimalRecordResolution",
          "type": "uint256"
        },
        {
          "name": "maxPerBlockImbalance",
          "type": "uint256"
        },
        {
          "name": "maxTotalImbalance",
          "type": "uint256"
        }
      ],
      "name": "setTokenControlInfo",
      "outputs": [],
      "payable": false,
      "stateMutability": "nonpayable",
      "type": "function"
    },
    {
      "constant": false,
      "inputs": [
        {
          "name": "amount",
          "type": "uint256"
        },
        {
          "name": "sendTo",
          "type": "address"
        }
      ],
      "name": "withdrawEther",
      "outputs": [],
      "payable": false,
      "stateMutability": "nonpayable",
      "type": "function"
    },
    {
      "constant": true,
      "inputs": [
        {
          "name": "token",
          "type": "address"
        }
      ],
      "name": "getTokenControlInfo",
      "outputs": [
        {
          "name": "",
          "type": "uint256"
        },
        {
          "name": "",
          "type": "uint256"
        },
        {
          "name": "",
          "type": "uint256"
        }
      ],
      "payable": false,
      "stateMutability": "view",
      "type": "function"
    },
    {
      "constant": true,
      "inputs": [],
      "name": "admin",
      "outputs": [
        {
          "name": "",
          "type": "address"
        }
      ],
      "payable": false,
      "stateMutability": "view",
      "type": "function"
    },
    {
      "inputs": [
        {
          "name": "_admin",
          "type": "address"
        }
      ],
      "payable": false,
      "stateMutability": "nonpayable",
      "type": "constructor"
    },
    {
      "anonymous": false,
      "inputs": [
        {
          "indexed": false,
          "name": "token",
          "type": "address"
        },
        {
          "indexed": false,
          "name": "amount",
          "type": "uint256"
        },
        {
          "indexed": false,
          "name": "sendTo",
          "type": "address"
        }
      ],
      "name": "TokenWithdraw",
      "type": "event"
    },
    {
      "anonymous": false,
      "inputs": [
        {
          "indexed": false,
          "name": "amount",
          "type": "uint256"
        },
        {
          "indexed": false,
          "name": "sendTo",
          "type": "address"
        }
      ],
      "name": "EtherWithdraw",
      "type": "event"
    },
    {
      "anonymous": false,
      "inputs": [
        {
          "indexed": false,
          "name": "pendingAdmin",
          "type": "address"
        }
      ],
      "name": "TransferAdminPending",
      "type": "event"
    },
    {
      "anonymous": false,
      "inputs": [
        {
          "indexed": false,
          "name": "newAdmin",
          "type": "address"
        },
        {
          "indexed": false,
          "name": "previousAdmin",
          "type": "address"
        }
      ],
      "name": "AdminClaimed",
      "type": "event"
    },
    {
      "anonymous": false,
      "inputs": [
        {
          "indexed": false,
          "name": "newAlerter",
          "type": "address"
        },
        {
          "indexed": false,
          "name": "isAdd",
          "type": "bool"
        }
      ],
      "name": "AlerterAdded",
      "type": "event"
    },
    {
      "anonymous": false,
      "inputs": [
        {
          "indexed": false,
          "name": "newOperator",
          "type": "address"
        },
        {
          "indexed": false,
          "name": "isAdd",
          "type": "bool"
        }
      ],
      "name": "OperatorAdded",
      "type": "event"
    },
    {
      "constant": false,
      "inputs": [
        {
          "name": "token",
          "type": "address"
        },
        {
          "name": "buyAmount",
          "type": "int256"
        },
        {
          "name": "rateUpdateBlock",
          "type": "uint256"
        },
        {
          "name": "currentBlock",
          "type": "uint256"
        }
      ],
      "name": "addTrade",
      "outputs": [],
      "payable": false,
      "stateMutability": "nonpayable",
      "type": "function"
    },
    {
      "constant": true,
      "inputs": [
        {
          "name": "token",
          "type": "address"
        },
        {
          "name": "rateUpdateBlock",
          "type": "uint256"
        },
        {
          "name": "currentBlock",
          "type": "uint256"
        }
      ],
      "name": "getImbalanceSinceUpdate",
      "outputs": [
        {
          "name": "buyImbalance",
          "type": "int256"
        },
        {
          "name": "currentBlockImbalance",
          "type": "int256"
        }
      ],
      "payable": false,
      "stateMutability": "view",
      "type": "function"
    },
    {
      "constant": true,
      "inputs": [
        {
          "name": "token",
          "type": "address"
        },
        {
          "name": "rateUpdateBlock",
          "type": "uint256"
        },
        {
          "name": "currentBlock",
          "type": "uint256"
        }
      ],
      "name": "getMockImbalance",
      "outputs": [
        {
          "name": "totalImbalance",
          "type": "int256"
        },
        {
          "name": "currentBlockImbalance",
          "type": "int256"
        }
      ],
      "payable": false,
      "stateMutability": "view",
      "type": "function"
    },
    {
      "constant": true,
      "inputs": [
        {
          "name": "token",
          "type": "address"
        },
        {
          "name": "startBlock",
          "type": "uint256"
        },
        {
          "name": "endBlock",
          "type": "uint256"
        }
      ],
      "name": "getMockImbalanceInRange",
      "outputs": [
        {
          "name": "buyImbalance",
          "type": "int256"
        }
      ],
      "payable": false,
      "stateMutability": "view",
      "type": "function"
    },
    {
      "constant": true,
      "inputs": [
        {
          "name": "token",
          "type": "address"
        }
      ],
      "name": "getMaxBlockImbalance",
      "outputs": [
        {
          "name": "",
          "type": "uint256"
        }
      ],
      "payable": false,
      "stateMutability": "view",
      "type": "function"
    },
    {
      "constant": true,
      "inputs": [
        {
          "name": "token",
          "type": "address"
        }
      ],
      "name": "getMaxImbalance",
      "outputs": [
        {
          "name": "",
          "type": "uint256"
        }
      ],
      "payable": false,
      "stateMutability": "view",
      "type": "function"
    },
    {
      "constant": true,
      "inputs": [
        {
          "name": "lastBlockBuyUnitsImbalance",
          "type": "int256"
        },
        {
          "name": "lastBlock",
          "type": "uint256"
        },
        {
          "name": "totalBuyUnitsImbalance",
          "type": "int256"
        },
        {
          "name": "lastRateUpdateBlock",
          "type": "uint256"
        }
      ],
      "name": "callEncodeTokenImbalanceData",
      "outputs": [
        {
          "name": "",
          "type": "uint256"
        }
      ],
      "payable": false,
      "stateMutability": "pure",
      "type": "function"
    },
    {
      "constant": true,
      "inputs": [
        {
          "name": "input",
          "type": "uint256"
        }
      ],
      "name": "callDecodeTokenImbalanceData",
      "outputs": [
        {
          "name": "",
          "type": "int256"
        },
        {
          "name": "",
          "type": "uint256"
        },
        {
          "name": "",
          "type": "int256"
        },
        {
          "name": "",
          "type": "uint256"
        }
      ],
      "payable": false,
      "stateMutability": "pure",
      "type": "function"
    }
  ],
  "bytecode": "0x6060604052341561000f57600080fd5b6040516020806127738339810160405280805190602001909190505080336000806101000a81548173ffffffffffffffffffffffffffffffffffffffff021916908373ffffffffffffffffffffffffffffffffffffffff160217905550600073ffffffffffffffffffffffffffffffffffffffff168173ffffffffffffffffffffffffffffffffffffffff16141515156100a857600080fd5b806000806101000a81548173ffffffffffffffffffffffffffffffffffffffff021916908373ffffffffffffffffffffffffffffffffffffffff160217905550505061267a806100f96000396000f30060606040526004361061013e576000357c0100000000000000000000000000000000000000000000000000000000900463ffffffff16806301a12fd31461014357806316d1ef751461017c57806326782247146101e257806327a099d8146102375780633ccdbb28146102a1578063408ee7fe146103025780634b407f411461033b5780634d36081f1461038d57806370ef252e146103f3578063754d6e821461045257806375829def146104a657806377f50f97146104df5780637acc8678146104f45780637c423f541461052d5780639870d7fe14610597578063a80c609e146105d0578063ac8a584a14610626578063af122f641461065f578063bfee3569146106ac578063ce56c45414610700578063cedcbda014610742578063daae59561461078f578063e7d4fd91146107db578063f851a44014610836575b600080fd5b341561014e57600080fd5b61017a600480803573ffffffffffffffffffffffffffffffffffffffff1690602001909190505061088b565b005b341561018757600080fd5b6101c5600480803573ffffffffffffffffffffffffffffffffffffffff16906020019091908035906020019091908035906020019091905050610b4d565b604051808381526020018281526020019250505060405180910390f35b34156101ed57600080fd5b6101f5610b67565b604051808273ffffffffffffffffffffffffffffffffffffffff1673ffffffffffffffffffffffffffffffffffffffff16815260200191505060405180910390f35b341561024257600080fd5b61024a610b8d565b6040518080602001828103825283818151815260200191508051906020019060200280838360005b8381101561028d578082015181840152602081019050610272565b505050509050019250505060405180910390f35b34156102ac57600080fd5b610300600480803573ffffffffffffffffffffffffffffffffffffffff1690602001909190803590602001909190803573ffffffffffffffffffffffffffffffffffffffff16906020019091905050610c21565b005b341561030d57600080fd5b610339600480803573ffffffffffffffffffffffffffffffffffffffff16906020019091905050610df1565b005b341561034657600080fd5b6103776004808035906020019091908035906020019091908035906020019091908035906020019091905050610fe7565b6040518082815260200191505060405180910390f35b341561039857600080fd5b6103d6600480803573ffffffffffffffffffffffffffffffffffffffff16906020019091908035906020019091908035906020019091905050611029565b604051808381526020018281526020019250505060405180910390f35b34156103fe57600080fd5b61043c600480803573ffffffffffffffffffffffffffffffffffffffff16906020019091908035906020019091908035906020019091905050611043565b6040518082815260200191505060405180910390f35b341561045d57600080fd5b6104a4600480803573ffffffffffffffffffffffffffffffffffffffff16906020019091908035906020019091908035906020019091908035906020019091905050611059565b005b34156104b157600080fd5b6104dd600480803573ffffffffffffffffffffffffffffffffffffffff1690602001909190505061106b565b005b34156104ea57600080fd5b6104f26111cb565b005b34156104ff57600080fd5b61052b600480803573ffffffffffffffffffffffffffffffffffffffff169060200190919050506113a7565b005b341561053857600080fd5b61054061159c565b6040518080602001828103825283818151815260200191508051906020019060200280838360005b83811015610583578082015181840152602081019050610568565b505050509050019250505060405180910390f35b34156105a257600080fd5b6105ce600480803573ffffffffffffffffffffffffffffffffffffffff16906020019091905050611630565b005b34156105db57600080fd5b610610600480803573ffffffffffffffffffffffffffffffffffffffff16906020019091908035906020019091905050611826565b6040518082815260200191505060405180910390f35b341561063157600080fd5b61065d600480803573ffffffffffffffffffffffffffffffffffffffff1690602001909190505061184b565b005b341561066a57600080fd5b610696600480803573ffffffffffffffffffffffffffffffffffffffff16906020019091905050611b10565b6040518082815260200191505060405180910390f35b34156106b757600080fd5b6106fe600480803573ffffffffffffffffffffffffffffffffffffffff16906020019091908035906020019091908035906020019091908035906020019091905050611b22565b005b341561070b57600080fd5b610740600480803590602001909190803573ffffffffffffffffffffffffffffffffffffffff16906020019091905050611bff565b005b341561074d57600080fd5b610779600480803573ffffffffffffffffffffffffffffffffffffffff16906020019091905050611d09565b6040518082815260200191505060405180910390f35b341561079a57600080fd5b6107b06004808035906020019091905050611d1b565b6040518085815260200184815260200183815260200182815260200194505050505060405180910390f35b34156107e657600080fd5b610812600480803573ffffffffffffffffffffffffffffffffffffffff16906020019091905050611d58565b60405180848152602001838152602001828152602001935050505060405180910390f35b341561084157600080fd5b610849611e33565b604051808273ffffffffffffffffffffffffffffffffffffffff1673ffffffffffffffffffffffffffffffffffffffff16815260200191505060405180910390f35b60008060009054906101000a900473ffffffffffffffffffffffffffffffffffffffff1673ffffffffffffffffffffffffffffffffffffffff163373ffffffffffffffffffffffffffffffffffffffff161415156108e857600080fd5b600360008373ffffffffffffffffffffffffffffffffffffffff1673ffffffffffffffffffffffffffffffffffffffff16815260200190815260200160002060009054906101000a900460ff16151561094057600080fd5b6000600360008473ffffffffffffffffffffffffffffffffffffffff1673ffffffffffffffffffffffffffffffffffffffff16815260200190815260200160002060006101000a81548160ff021916908315150217905550600090505b600580549050811015610b49578173ffffffffffffffffffffffffffffffffffffffff166005828154811015156109d057fe5b906000526020600020900160009054906101000a900473ffffffffffffffffffffffffffffffffffffffff1673ffffffffffffffffffffffffffffffffffffffff161415610b3e576005600160058054905003815481101515610a2f57fe5b906000526020600020900160009054906101000a900473ffffffffffffffffffffffffffffffffffffffff16600582815481101515610a6a57fe5b906000526020600020900160006101000a81548173ffffffffffffffffffffffffffffffffffffffff021916908373ffffffffffffffffffffffffffffffffffffffff1602179055506005805480919060019003610ac89190612594565b507f5611bf3e417d124f97bf2c788843ea8bb502b66079fbee02158ef30b172cb762826000604051808373ffffffffffffffffffffffffffffffffffffffff1673ffffffffffffffffffffffffffffffffffffffff168152602001821515151581526020019250505060405180910390a1610b49565b80600101905061099d565b5050565b600080610b5b858585611e58565b91509150935093915050565b600160009054906101000a900473ffffffffffffffffffffffffffffffffffffffff1681565b610b956125c0565b6004805480602002602001604051908101604052809291908181526020018280548015610c1757602002820191906000526020600020905b8160009054906101000a900473ffffffffffffffffffffffffffffffffffffffff1673ffffffffffffffffffffffffffffffffffffffff1681526020019060010190808311610bcd575b5050505050905090565b6000809054906101000a900473ffffffffffffffffffffffffffffffffffffffff1673ffffffffffffffffffffffffffffffffffffffff163373ffffffffffffffffffffffffffffffffffffffff16141515610c7c57600080fd5b8273ffffffffffffffffffffffffffffffffffffffff1663a9059cbb82846000604051602001526040518363ffffffff167c0100000000000000000000000000000000000000000000000000000000028152600401808373ffffffffffffffffffffffffffffffffffffffff1673ffffffffffffffffffffffffffffffffffffffff16815260200182815260200192505050602060405180830381600087803b1515610d2757600080fd5b6102c65a03f11515610d3857600080fd5b505050604051805190501515610d4d57600080fd5b7f72cb8a894ddb372ceec3d2a7648d86f17d5a15caae0e986c53109b8a9a9385e6838383604051808473ffffffffffffffffffffffffffffffffffffffff1673ffffffffffffffffffffffffffffffffffffffff1681526020018381526020018273ffffffffffffffffffffffffffffffffffffffff1673ffffffffffffffffffffffffffffffffffffffff168152602001935050505060405180910390a1505050565b6000809054906101000a900473ffffffffffffffffffffffffffffffffffffffff1673ffffffffffffffffffffffffffffffffffffffff163373ffffffffffffffffffffffffffffffffffffffff16141515610e4c57600080fd5b600360008273ffffffffffffffffffffffffffffffffffffffff1673ffffffffffffffffffffffffffffffffffffffff16815260200190815260200160002060009054906101000a900460ff16151515610ea557600080fd5b6032600580549050101515610eb957600080fd5b7f5611bf3e417d124f97bf2c788843ea8bb502b66079fbee02158ef30b172cb762816001604051808373ffffffffffffffffffffffffffffffffffffffff1673ffffffffffffffffffffffffffffffffffffffff168152602001821515151581526020019250505060405180910390a16001600360008373ffffffffffffffffffffffffffffffffffffffff1673ffffffffffffffffffffffffffffffffffffffff16815260200190815260200160002060006101000a81548160ff02191690831515021790555060058054806001018281610f9591906125d4565b9160005260206000209001600083909190916101000a81548173ffffffffffffffffffffffffffffffffffffffff021916908373ffffffffffffffffffffffffffffffffffffffff1602179055505050565b6000610ff1612600565b60806040519081016040528087815260200186815260200185815260200184815250905061101e81611ec8565b915050949350505050565b600080611037858585612058565b91509150935093915050565b600061105084848461217f565b90509392505050565b61106584848484612243565b50505050565b6000809054906101000a900473ffffffffffffffffffffffffffffffffffffffff1673ffffffffffffffffffffffffffffffffffffffff163373ffffffffffffffffffffffffffffffffffffffff161415156110c657600080fd5b600073ffffffffffffffffffffffffffffffffffffffff168173ffffffffffffffffffffffffffffffffffffffff161415151561110257600080fd5b7f3b81caf78fa51ecbc8acb482fd7012a277b428d9b80f9d156e8a54107496cc40600160009054906101000a900473ffffffffffffffffffffffffffffffffffffffff16604051808273ffffffffffffffffffffffffffffffffffffffff1673ffffffffffffffffffffffffffffffffffffffff16815260200191505060405180910390a180600160006101000a81548173ffffffffffffffffffffffffffffffffffffffff021916908373ffffffffffffffffffffffffffffffffffffffff16021790555050565b3373ffffffffffffffffffffffffffffffffffffffff16600160009054906101000a900473ffffffffffffffffffffffffffffffffffffffff1673ffffffffffffffffffffffffffffffffffffffff1614151561122757600080fd5b7f65da1cfc2c2e81576ad96afb24a581f8e109b7a403b35cbd3243a1c99efdb9ed600160009054906101000a900473ffffffffffffffffffffffffffffffffffffffff166000809054906101000a900473ffffffffffffffffffffffffffffffffffffffff16604051808373ffffffffffffffffffffffffffffffffffffffff1673ffffffffffffffffffffffffffffffffffffffff1681526020018273ffffffffffffffffffffffffffffffffffffffff1673ffffffffffffffffffffffffffffffffffffffff1681526020019250505060405180910390a1600160009054906101000a900473ffffffffffffffffffffffffffffffffffffffff166000806101000a81548173ffffffffffffffffffffffffffffffffffffffff021916908373ffffffffffffffffffffffffffffffffffffffff1602179055506000600160006101000a81548173ffffffffffffffffffffffffffffffffffffffff021916908373ffffffffffffffffffffffffffffffffffffffff160217905550565b6000809054906101000a900473ffffffffffffffffffffffffffffffffffffffff1673ffffffffffffffffffffffffffffffffffffffff163373ffffffffffffffffffffffffffffffffffffffff1614151561140257600080fd5b600073ffffffffffffffffffffffffffffffffffffffff168173ffffffffffffffffffffffffffffffffffffffff161415151561143e57600080fd5b7f3b81caf78fa51ecbc8acb482fd7012a277b428d9b80f9d156e8a54107496cc4081604051808273ffffffffffffffffffffffffffffffffffffffff1673ffffffffffffffffffffffffffffffffffffffff16815260200191505060405180910390a17f65da1cfc2c2e81576ad96afb24a581f8e109b7a403b35cbd3243a1c99efdb9ed816000809054906101000a900473ffffffffffffffffffffffffffffffffffffffff16604051808373ffffffffffffffffffffffffffffffffffffffff1673ffffffffffffffffffffffffffffffffffffffff1681526020018273ffffffffffffffffffffffffffffffffffffffff1673ffffffffffffffffffffffffffffffffffffffff1681526020019250505060405180910390a1806000806101000a81548173ffffffffffffffffffffffffffffffffffffffff021916908373ffffffffffffffffffffffffffffffffffffffff16021790555050565b6115a46125c0565b600580548060200260200160405190810160405280929190818152602001828054801561162657602002820191906000526020600020905b8160009054906101000a900473ffffffffffffffffffffffffffffffffffffffff1673ffffffffffffffffffffffffffffffffffffffff16815260200190600101908083116115dc575b5050505050905090565b6000809054906101000a900473ffffffffffffffffffffffffffffffffffffffff1673ffffffffffffffffffffffffffffffffffffffff163373ffffffffffffffffffffffffffffffffffffffff1614151561168b57600080fd5b600260008273ffffffffffffffffffffffffffffffffffffffff1673ffffffffffffffffffffffffffffffffffffffff16815260200190815260200160002060009054906101000a900460ff161515156116e457600080fd5b60326004805490501015156116f857600080fd5b7f091a7a4b85135fdd7e8dbc18b12fabe5cc191ea867aa3c2e1a24a102af61d58b816001604051808373ffffffffffffffffffffffffffffffffffffffff1673ffffffffffffffffffffffffffffffffffffffff168152602001821515151581526020019250505060405180910390a16001600260008373ffffffffffffffffffffffffffffffffffffffff1673ffffffffffffffffffffffffffffffffffffffff16815260200190815260200160002060006101000a81548160ff021916908315150217905550600480548060010182816117d491906125d4565b9160005260206000209001600083909190916101000a81548173ffffffffffffffffffffffffffffffffffffffff021916908373ffffffffffffffffffffffffffffffffffffffff1602179055505050565b6007602052816000526040600020602052806000526040600020600091509150505481565b60008060009054906101000a900473ffffffffffffffffffffffffffffffffffffffff1673ffffffffffffffffffffffffffffffffffffffff163373ffffffffffffffffffffffffffffffffffffffff161415156118a857600080fd5b600260008373ffffffffffffffffffffffffffffffffffffffff1673ffffffffffffffffffffffffffffffffffffffff16815260200190815260200160002060009054906101000a900460ff16151561190057600080fd5b6000600260008473ffffffffffffffffffffffffffffffffffffffff1673ffffffffffffffffffffffffffffffffffffffff16815260200190815260200160002060006101000a81548160ff021916908315150217905550600090505b600480549050811015611b0c578173ffffffffffffffffffffffffffffffffffffffff1660048281548110151561199057fe5b906000526020600020900160009054906101000a900473ffffffffffffffffffffffffffffffffffffffff1673ffffffffffffffffffffffffffffffffffffffff161415611b015760046001600480549050038154811015156119ef57fe5b906000526020600020900160009054906101000a900473ffffffffffffffffffffffffffffffffffffffff16600482815481101515611a2a57fe5b906000526020600020900160006101000a81548173ffffffffffffffffffffffffffffffffffffffff021916908373ffffffffffffffffffffffffffffffffffffffff1602179055506001600481818054905003915081611a8b9190612594565b507f091a7a4b85135fdd7e8dbc18b12fabe5cc191ea867aa3c2e1a24a102af61d58b826000604051808373ffffffffffffffffffffffffffffffffffffffff1673ffffffffffffffffffffffffffffffffffffffff168152602001821515151581526020019250505060405180910390a1611b0c565b80600101905061195d565b5050565b6000611b1b8261242c565b9050919050565b6000809054906101000a900473ffffffffffffffffffffffffffffffffffffffff1673ffffffffffffffffffffffffffffffffffffffff163373ffffffffffffffffffffffffffffffffffffffff16141515611b7d57600080fd5b60606040519081016040528084815260200183815260200182815250600660008673ffffffffffffffffffffffffffffffffffffffff1673ffffffffffffffffffffffffffffffffffffffff16815260200190815260200160002060008201518160000155602082015181600101556040820151816002015590505050505050565b6000809054906101000a900473ffffffffffffffffffffffffffffffffffffffff1673ffffffffffffffffffffffffffffffffffffffff163373ffffffffffffffffffffffffffffffffffffffff16141515611c5a57600080fd5b8073ffffffffffffffffffffffffffffffffffffffff166108fc839081150290604051600060405180830381858888f193505050501515611c9a57600080fd5b7fec47e7ed86c86774d1a72c19f35c639911393fe7c1a34031fdbd260890da90de8282604051808381526020018273ffffffffffffffffffffffffffffffffffffffff1673ffffffffffffffffffffffffffffffffffffffff1681526020019250505060405180910390a15050565b6000611d1482612478565b9050919050565b600080600080611d29612600565b611d32866124c4565b905080600001518160200151826040015183606001519450945094509450509193509193565b6000806000600660008573ffffffffffffffffffffffffffffffffffffffff1673ffffffffffffffffffffffffffffffffffffffff16815260200190815260200160002060000154600660008673ffffffffffffffffffffffffffffffffffffffff1673ffffffffffffffffffffffffffffffffffffffff16815260200190815260200160002060010154600660008773ffffffffffffffffffffffffffffffffffffffff1673ffffffffffffffffffffffffffffffffffffffff168152602001908152602001600020600201549250925092509193909250565b6000809054906101000a900473ffffffffffffffffffffffffffffffffffffffff1681565b6000806000600660008773ffffffffffffffffffffffffffffffffffffffff1673ffffffffffffffffffffffffffffffffffffffff168152602001908152602001600020600001549050611ead868686612058565b80935081945050508083029250808202915050935093915050565b600080600268010000000000000000811515611ee057fe5b048360000151121515611ef257600080fd5b6002680100000000000000007fffffffffffffffffffffffffffffffffffffffffffffffffffffffffffffffff02811515611f2957fe5b058360000151131515611f3b57600080fd5b680100000000000000008360200151101515611f5657600080fd5b600268010000000000000000811515611f6b57fe5b048360400151121515611f7d57600080fd5b6002680100000000000000007fffffffffffffffffffffffffffffffffffffffffffffffffffffffffffffffff02811515611fb457fe5b058360400151131515611fc657600080fd5b680100000000000000008360600151101515611fe157600080fd5b600168010000000000000000038360000151169050680100000000000000008360200151028117905068010000000000000000806001680100000000000000000385604001511602028117905068010000000000000000806801000000000000000085606001510202028117905080915050919050565b600080600080600080600061206b612600565b60009750600096506000955060009450899350889250600091505b6005821015612164576120e8600760008d73ffffffffffffffffffffffffffffffffffffffff1673ffffffffffffffffffffffffffffffffffffffff1681526020019081526020016000206000848152602001908152602001600020546124c4565b905082816020015111158015612102575083816020015110155b15612111578060000151850194505b89816060015114151561212357612157565b858160200151101561213457612157565b8060200151955080604001519750888160200151141561215657806000015196505b5b8180600101925050612086565b6000881415612171578497505b505050505050935093915050565b60008061218a612600565b83851115151561219957600080fd5b60009250600091505b600582101561223a57612204600760008873ffffffffffffffffffffffffffffffffffffffff1673ffffffffffffffffffffffffffffffffffffffff1681526020019081526020016000206000848152602001908152602001600020546124c4565b90508381602001511115801561221e575084816020015110155b1561222d578060000151830192505b81806001019250506121a2565b50509392505050565b6000806000612250612600565b600060058681151561225e57fe5b069450600660008a73ffffffffffffffffffffffffffffffffffffffff1673ffffffffffffffffffffffffffffffffffffffff16815260200190815260200160002060000154888115156122ae57fe5b0593506000925061230e600760008b73ffffffffffffffffffffffffffffffffffffffff1673ffffffffffffffffffffffffffffffffffffffff1681526020019081526020016000206000878152602001908152602001600020546124c4565b9150858260200151141561238657868260600151141561234d578382600001818151019150818152505083826040018181510191508181525050612381565b61235889888861217f565b925083830182604001818152505083826000018181510191508181525050868260600181815250505b6123c4565b612391898888612058565b80925081945050508382600001818152505085826020018181525050868260600181815250508383018260400181815250505b6123cd82611ec8565b600760008b73ffffffffffffffffffffffffffffffffffffffff1673ffffffffffffffffffffffffffffffffffffffff168152602001908152602001600020600087815260200190815260200160002081905550505050505050505050565b6000600660008373ffffffffffffffffffffffffffffffffffffffff1673ffffffffffffffffffffffffffffffffffffffff168152602001908152602001600020600201549050919050565b6000600660008373ffffffffffffffffffffffffffffffffffffffff1673ffffffffffffffffffffffffffffffffffffffff168152602001908152602001600020600101549050919050565b6124cc612600565b6124d4612600565b60016801000000000000000003831660070b81600001818152505060016801000000000000000003680100000000000000008481151561251057fe5b041667ffffffffffffffff16816020018181525050600168010000000000000000036801000000000000000080028481151561254857fe5b041660070b81604001818152505068010000000000000000806801000000000000000002028381151561257757fe5b0467ffffffffffffffff1681606001818152505080915050919050565b8154818355818115116125bb578183600052602060002091820191016125ba9190612629565b5b505050565b602060405190810160405280600081525090565b8154818355818115116125fb578183600052602060002091820191016125fa9190612629565b5b505050565b608060405190810160405280600081526020016000815260200160008152602001600081525090565b61264b91905b8082111561264757600081600090555060010161262f565b5090565b905600a165627a7a723058209c0697165c8d441ceac1093bfd11ea19a73d168d5830ace58b766518af88e3440029",
  "source": "pragma solidity ^0.4.18;\n\n\nimport \"../VolumeImbalanceRecorder.sol\";\n\n\ncontract MockImbalanceRecorder is VolumeImbalanceRecorder {\n    function MockImbalanceRecorder(address _admin) public VolumeImbalanceRecorder(_admin) {}\n\n    function addTrade(ERC20 token, int buyAmount, uint rateUpdateBlock, uint currentBlock) public {\n        addImbalance(token, buyAmount, rateUpdateBlock, currentBlock);\n    }\n\n    function getImbalanceSinceUpdate(ERC20 token, uint rateUpdateBlock, uint currentBlock)\n        public view\n        returns(int buyImbalance, int currentBlockImbalance)\n    {\n        return getImbalanceSinceRateUpdate(token, rateUpdateBlock, currentBlock);\n    }\n\n    function getMockImbalance(ERC20 token, uint rateUpdateBlock, uint currentBlock)\n        public view\n        returns(int totalImbalance, int currentBlockImbalance)\n    {\n        return getImbalance(token, rateUpdateBlock, currentBlock);\n    }\n\n    function getMockImbalanceInRange(ERC20 token, uint startBlock, uint endBlock) public view returns(int buyImbalance) {\n        return getImbalanceInRange(token, startBlock, endBlock);\n    }\n\n    function getMaxBlockImbalance(ERC20 token) public view returns(uint) {\n        return getMaxPerBlockImbalance(token);\n    }\n\n    function getMaxImbalance(ERC20 token) public view returns(uint) {\n        return getMaxTotalImbalance(token);\n    }\n\n    function callEncodeTokenImbalanceData(\n        int lastBlockBuyUnitsImbalance,\n        uint lastBlock,\n        int totalBuyUnitsImbalance,\n        uint lastRateUpdateBlock\n    )\n        external pure returns(uint)\n    {\n        TokenImbalanceData memory data =\n            TokenImbalanceData(lastBlockBuyUnitsImbalance, lastBlock, totalBuyUnitsImbalance, lastRateUpdateBlock);\n        return(encodeTokenImbalanceData(data));\n    }\n\n    function callDecodeTokenImbalanceData(uint input) external pure returns(int, uint, int, uint) {\n        TokenImbalanceData memory data = (decodeTokenImbalanceData(input));\n        return (\n            data.lastBlockBuyUnitsImbalance,\n            data.lastBlock ,\n            data.totalBuyUnitsImbalance,\n            data.lastRateUpdateBlock\n        );\n    }\n}\n",
  "sourcePath": "/Users/oscarr/Ethereum/frappe/contracts/mockContracts/MockImbalanceRecorder.sol",
  "compiler": {
    "name": "solc",
    "version": "0.4.18+commit.9cf6e910.Emscripten.clang"
  },
  "schemaVersion": "3.0.6",
  "updatedAt": "2019-05-18T17:14:13.228Z",
  "devdoc": {
    "methods": {
      "claimAdmin()": {
        "details": "Allows the pendingAdmin address to finalize the change admin process."
      },
      "transferAdmin(address)": {
        "details": "Allows the current admin to set the pendingAdmin address.",
        "params": {
          "newAdmin": "The address to transfer ownership to."
        }
      },
      "transferAdminQuickly(address)": {
        "details": "Allows the current admin to set the admin in one tx. Useful initial deployment.",
        "params": {
          "newAdmin": "The address to transfer ownership to."
        }
      },
      "withdrawEther(uint256,address)": {
        "details": "Withdraw Ethers"
      },
      "withdrawToken(address,uint256,address)": {
        "details": "Withdraw all ERC20 compatible tokens",
        "params": {
          "token": "ERC20 The address of the token contract"
        }
      }
    }
  },
  "userdoc": {
    "methods": {}
  }
}