{
  "contractName": "MockUtils2",
  "abi": [
    {
      "constant": true,
      "inputs": [
        {
          "name": "token",
          "type": "address"
        },
        {
          "name": "user",
          "type": "address"
        }
      ],
      "name": "getBalance",
      "outputs": [
        {
          "name": "",
          "type": "uint256"
        }
      ],
      "payable": false,
      "stateMutability": "view",
      "type": "function"
    },
    {
      "constant": true,
      "inputs": [
        {
          "name": "token",
          "type": "address"
        }
      ],
      "name": "mockGetDecimalsSafe",
      "outputs": [
        {
          "name": "",
          "type": "uint256"
        }
      ],
      "payable": false,
      "stateMutability": "view",
      "type": "function"
    },
    {
      "constant": false,
      "inputs": [
        {
          "name": "token",
          "type": "address"
        }
      ],
      "name": "mockSetDecimalsSafe",
      "outputs": [],
      "payable": false,
      "stateMutability": "nonpayable",
      "type": "function"
    },
    {
      "constant": true,
      "inputs": [
        {
          "name": "srcAmount",
          "type": "uint256"
        },
        {
          "name": "destAmount",
          "type": "uint256"
        },
        {
          "name": "srcDecimals",
          "type": "uint256"
        },
        {
          "name": "dstDecimals",
          "type": "uint256"
        }
      ],
      "name": "mockCalcRateFromQty",
      "outputs": [
        {
          "name": "rateResult",
          "type": "uint256"
        }
      ],
      "payable": false,
      "stateMutability": "pure",
      "type": "function"
    }
  ],
  "bytecode": "0x6060604052341561000f57600080fd5b6105828061001e6000396000f300606060405260043610610062576000357c0100000000000000000000000000000000000000000000000000000000900463ffffffff1680635d7d2ed914610067578063d120473f146100b4578063d493bc1b146100ed578063d4fac45d1461013f575b600080fd5b341561007257600080fd5b61009e600480803573ffffffffffffffffffffffffffffffffffffffff169060200190919050506101ab565b6040518082815260200191505060405180910390f35b34156100bf57600080fd5b6100eb600480803573ffffffffffffffffffffffffffffffffffffffff169060200190919050506101f3565b005b34156100f857600080fd5b61012960048080359060200190919080359060200190919080359060200190919080359060200190919050506101ff565b6040518082815260200191505060405180910390f35b341561014a57600080fd5b610195600480803573ffffffffffffffffffffffffffffffffffffffff1690602001909190803573ffffffffffffffffffffffffffffffffffffffff16906020019091905050610217565b6040518082815260200191505060405180910390f35b60008060008373ffffffffffffffffffffffffffffffffffffffff1673ffffffffffffffffffffffffffffffffffffffff168152602001908152602001600020549050919050565b6101fc81610347565b50565b600061020d858585856104a5565b9050949350505050565b600073eeeeeeeeeeeeeeeeeeeeeeeeeeeeeeeeeeeeeeee73ffffffffffffffffffffffffffffffffffffffff168373ffffffffffffffffffffffffffffffffffffffff161415610280578173ffffffffffffffffffffffffffffffffffffffff16319050610341565b8273ffffffffffffffffffffffffffffffffffffffff166370a08231836000604051602001526040518263ffffffff167c0100000000000000000000000000000000000000000000000000000000028152600401808273ffffffffffffffffffffffffffffffffffffffff1673ffffffffffffffffffffffffffffffffffffffff168152602001915050602060405180830381600087803b151561032357600080fd5b6102c65a03f1151561033457600080fd5b5050506040518051905090505b92915050565b73eeeeeeeeeeeeeeeeeeeeeeeeeeeeeeeeeeeeeeee73ffffffffffffffffffffffffffffffffffffffff168173ffffffffffffffffffffffffffffffffffffffff1614156103d85760126000808373ffffffffffffffffffffffffffffffffffffffff1673ffffffffffffffffffffffffffffffffffffffff168152602001908152602001600020819055506104a2565b8073ffffffffffffffffffffffffffffffffffffffff1663313ce5676000604051602001526040518163ffffffff167c0100000000000000000000000000000000000000000000000000000000028152600401602060405180830381600087803b151561044457600080fd5b6102c65a03f1151561045557600080fd5b505050604051805190506000808373ffffffffffffffffffffffffffffffffffffffff1673ffffffffffffffffffffffffffffffffffffffff168152602001908152602001600020819055505b50565b60006b204fce5e3e2502611000000085111515156104c257600080fd5b6b204fce5e3e2502611000000084111515156104dd57600080fd5b828210151561051c576012838303111515156104f857600080fd5b84838303600a0a02670de0b6b3a7640000850281151561051457fe5b04905061054e565b60128284031115151561052e57600080fd5b84828403600a0a670de0b6b3a764000086020281151561054a57fe5b0490505b9493505050505600a165627a7a723058205eec1c2b6b68f50f48d4454c9ada4b1e114a8eb56dfaad986846071ba2af53750029",
  "source": "pragma solidity 0.4.18;\n\n\nimport \"../Utils2.sol\";\n\n\n/// @title Kyber utils contract\ncontract MockUtils2 is Utils2 {\n    function mockGetDecimalsSafe(ERC20 token) public view returns(uint) {\n        return decimals[token];\n    }\n\n    function mockSetDecimalsSafe(ERC20 token) public {\n        setDecimals(token);\n    }\n\n    function mockCalcRateFromQty(uint srcAmount, uint destAmount, uint srcDecimals, uint dstDecimals)\n        public pure returns(uint rateResult)\n    {\n        rateResult = calcRateFromQty(srcAmount, destAmount, srcDecimals, dstDecimals);\n    }\n}\n",
  "sourcePath": "/Users/oscarr/Ethereum/frappe/contracts/mockContracts/MockUtils2.sol",
  "compiler": {
    "name": "solc",
    "version": "0.4.18+commit.9cf6e910.Emscripten.clang"
  },
  "schemaVersion": "3.0.6",
  "updatedAt": "2019-05-18T17:14:13.255Z",
  "devdoc": {
    "methods": {
      "getBalance(address,address)": {
        "details": "get the balance of a user.",
        "params": {
          "token": "The token type"
        },
        "return": "The balance"
      }
    },
    "title": "Kyber utils contract"
  },
  "userdoc": {
    "methods": {}
  }
}