{
  "contractName": "MockDutchX",
  "abi": [
    {
      "constant": true,
      "inputs": [],
      "name": "feeDenominator",
      "outputs": [
        {
          "name": "",
          "type": "uint256"
        }
      ],
      "payable": false,
      "stateMutability": "view",
      "type": "function"
    },
    {
      "constant": true,
      "inputs": [
        {
          "name": "",
          "type": "address"
        },
        {
          "name": "",
          "type": "address"
        },
        {
          "name": "",
          "type": "uint256"
        },
        {
          "name": "",
          "type": "address"
        }
      ],
      "name": "buyerBalances",
      "outputs": [
        {
          "name": "",
          "type": "uint256"
        }
      ],
      "payable": false,
      "stateMutability": "view",
      "type": "function"
    },
    {
      "constant": true,
      "inputs": [],
      "name": "auctionIndexCounter",
      "outputs": [
        {
          "name": "",
          "type": "uint256"
        }
      ],
      "payable": false,
      "stateMutability": "view",
      "type": "function"
    },
    {
      "constant": true,
      "inputs": [],
      "name": "mutualDenominator",
      "outputs": [
        {
          "name": "",
          "type": "uint256"
        }
      ],
      "payable": false,
      "stateMutability": "view",
      "type": "function"
    },
    {
      "constant": true,
      "inputs": [],
      "name": "ethToken",
      "outputs": [
        {
          "name": "",
          "type": "address"
        }
      ],
      "payable": false,
      "stateMutability": "view",
      "type": "function"
    },
    {
      "constant": true,
      "inputs": [
        {
          "name": "",
          "type": "address"
        },
        {
          "name": "",
          "type": "address"
        }
      ],
      "name": "tokenAuctionIndex",
      "outputs": [
        {
          "name": "",
          "type": "uint256"
        }
      ],
      "payable": false,
      "stateMutability": "view",
      "type": "function"
    },
    {
      "constant": true,
      "inputs": [
        {
          "name": "",
          "type": "address"
        },
        {
          "name": "",
          "type": "address"
        },
        {
          "name": "",
          "type": "uint256"
        },
        {
          "name": "",
          "type": "address"
        }
      ],
      "name": "claimedAmounts",
      "outputs": [
        {
          "name": "",
          "type": "uint256"
        }
      ],
      "payable": false,
      "stateMutability": "view",
      "type": "function"
    },
    {
      "constant": true,
      "inputs": [
        {
          "name": "",
          "type": "address"
        },
        {
          "name": "",
          "type": "address"
        }
      ],
      "name": "sellVolumesCurrent",
      "outputs": [
        {
          "name": "",
          "type": "uint256"
        }
      ],
      "payable": false,
      "stateMutability": "view",
      "type": "function"
    },
    {
      "constant": true,
      "inputs": [
        {
          "name": "",
          "type": "address"
        },
        {
          "name": "",
          "type": "address"
        }
      ],
      "name": "buyVolumes",
      "outputs": [
        {
          "name": "",
          "type": "uint256"
        }
      ],
      "payable": false,
      "stateMutability": "view",
      "type": "function"
    },
    {
      "constant": true,
      "inputs": [
        {
          "name": "",
          "type": "address"
        },
        {
          "name": "",
          "type": "address"
        },
        {
          "name": "",
          "type": "uint256"
        },
        {
          "name": "",
          "type": "address"
        }
      ],
      "name": "sellerBalances",
      "outputs": [
        {
          "name": "",
          "type": "uint256"
        }
      ],
      "payable": false,
      "stateMutability": "view",
      "type": "function"
    },
    {
      "constant": true,
      "inputs": [
        {
          "name": "",
          "type": "address"
        },
        {
          "name": "",
          "type": "address"
        }
      ],
      "name": "balances",
      "outputs": [
        {
          "name": "",
          "type": "uint256"
        }
      ],
      "payable": false,
      "stateMutability": "view",
      "type": "function"
    },
    {
      "constant": true,
      "inputs": [],
      "name": "feeNumerator",
      "outputs": [
        {
          "name": "",
          "type": "uint256"
        }
      ],
      "payable": false,
      "stateMutability": "view",
      "type": "function"
    },
    {
      "constant": true,
      "inputs": [
        {
          "name": "",
          "type": "address"
        },
        {
          "name": "",
          "type": "address"
        }
      ],
      "name": "tokenAuctionNumerator",
      "outputs": [
        {
          "name": "",
          "type": "uint256"
        }
      ],
      "payable": false,
      "stateMutability": "view",
      "type": "function"
    },
    {
      "inputs": [
        {
          "name": "_ethToken",
          "type": "address"
        }
      ],
      "payable": false,
      "stateMutability": "nonpayable",
      "type": "constructor"
    },
    {
      "constant": false,
      "inputs": [
        {
          "name": "sellToken",
          "type": "address"
        },
        {
          "name": "buyToken",
          "type": "address"
        }
      ],
      "name": "startNewAuctionIndex",
      "outputs": [],
      "payable": false,
      "stateMutability": "nonpayable",
      "type": "function"
    },
    {
      "constant": false,
      "inputs": [
        {
          "name": "sellToken",
          "type": "address"
        },
        {
          "name": "buyToken",
          "type": "address"
        },
        {
          "name": "amount",
          "type": "uint256"
        },
        {
          "name": "numerator",
          "type": "uint256"
        }
      ],
      "name": "addSellFundsToAuction",
      "outputs": [],
      "payable": false,
      "stateMutability": "nonpayable",
      "type": "function"
    },
    {
      "constant": false,
      "inputs": [
        {
          "name": "sellToken",
          "type": "address"
        },
        {
          "name": "buyToken",
          "type": "address"
        },
        {
          "name": "numerator",
          "type": "uint256"
        }
      ],
      "name": "setNewAuctionNumerator",
      "outputs": [],
      "payable": false,
      "stateMutability": "nonpayable",
      "type": "function"
    },
    {
      "constant": true,
      "inputs": [
        {
          "name": "sellToken",
          "type": "address"
        },
        {
          "name": "buyToken",
          "type": "address"
        },
        {
          "name": "auctionIndex",
          "type": "uint256"
        }
      ],
      "name": "getCurrentAuctionPrice",
      "outputs": [
        {
          "name": "num",
          "type": "uint256"
        },
        {
          "name": "den",
          "type": "uint256"
        }
      ],
      "payable": false,
      "stateMutability": "view",
      "type": "function"
    },
    {
      "constant": false,
      "inputs": [
        {
          "name": "tokenAddress",
          "type": "address"
        },
        {
          "name": "amount",
          "type": "uint256"
        }
      ],
      "name": "deposit",
      "outputs": [
        {
          "name": "",
          "type": "uint256"
        }
      ],
      "payable": false,
      "stateMutability": "nonpayable",
      "type": "function"
    },
    {
      "constant": true,
      "inputs": [
        {
          "name": "sellToken",
          "type": "address"
        },
        {
          "name": "buyToken",
          "type": "address"
        }
      ],
      "name": "getAuctionIndex",
      "outputs": [
        {
          "name": "index",
          "type": "uint256"
        }
      ],
      "payable": false,
      "stateMutability": "view",
      "type": "function"
    },
    {
      "constant": false,
      "inputs": [
        {
          "name": "sellToken",
          "type": "address"
        },
        {
          "name": "buyToken",
          "type": "address"
        },
        {
          "name": "auctionIndex",
          "type": "uint256"
        },
        {
          "name": "amount",
          "type": "uint256"
        }
      ],
      "name": "postBuyOrder",
      "outputs": [
        {
          "name": "",
          "type": "uint256"
        }
      ],
      "payable": false,
      "stateMutability": "nonpayable",
      "type": "function"
    },
    {
      "constant": false,
      "inputs": [
        {
          "name": "sellToken",
          "type": "address"
        },
        {
          "name": "buyToken",
          "type": "address"
        },
        {
          "name": "user",
          "type": "address"
        },
        {
          "name": "auctionIndex",
          "type": "uint256"
        }
      ],
      "name": "claimBuyerFunds",
      "outputs": [
        {
          "name": "returned",
          "type": "uint256"
        },
        {
          "name": "frtsIssued",
          "type": "uint256"
        }
      ],
      "payable": false,
      "stateMutability": "nonpayable",
      "type": "function"
    },
    {
      "constant": false,
      "inputs": [
        {
          "name": "tokenAddress",
          "type": "address"
        },
        {
          "name": "amount",
          "type": "uint256"
        }
      ],
      "name": "withdraw",
      "outputs": [
        {
          "name": "",
          "type": "uint256"
        }
      ],
      "payable": false,
      "stateMutability": "nonpayable",
      "type": "function"
    },
    {
      "constant": false,
      "inputs": [
        {
          "name": "numerator",
          "type": "uint256"
        },
        {
          "name": "denominator",
          "type": "uint256"
        }
      ],
      "name": "setFee",
      "outputs": [],
      "payable": false,
      "stateMutability": "nonpayable",
      "type": "function"
    },
    {
      "constant": true,
      "inputs": [
        {
          "name": "user",
          "type": "address"
        }
      ],
      "name": "getFeeRatio",
      "outputs": [
        {
          "name": "num",
          "type": "uint256"
        },
        {
          "name": "den",
          "type": "uint256"
        }
      ],
      "payable": false,
      "stateMutability": "view",
      "type": "function"
    }
  ],
  "bytecode": "0x60606040526001600055678ac7230489e80000600155341561002057600080fd5b604051602080611e6c83398101604052808051906020019091905050600073ffffffffffffffffffffffffffffffffffffffff168173ffffffffffffffffffffffffffffffffffffffff161415151561007857600080fd5b80600460006101000a81548173ffffffffffffffffffffffffffffffffffffffff021916908373ffffffffffffffffffffffffffffffffffffffff16021790555050611da3806100c96000396000f30060606040526004361061013e576000357c0100000000000000000000000000000000000000000000000000000000900463ffffffff16806314584a9d14610143578063180b0d7e146101af578063339739d9146101d857806337775807146102305780633dc5dad0146102c457806347e7ef24146102ed57806352f7c988146103435780635e7f22c21461036f5780636aca65e7146103ed5780637bf1a627146104165780638129015b1461046b5780639fec8e96146104d7578063b02938501461056b578063b64c490514610606578063b8beafd614610672578063c1a21bf3146106de578063c23f001f14610772578063d5f64618146107de578063da92937e14610848578063e86dea4a146108a9578063edd0b5cb146108d2578063f3fef3a314610926578063fcb373441461097c578063fdab1b7b146109e8575b600080fd5b341561014e57600080fd5b610199600480803573ffffffffffffffffffffffffffffffffffffffff1690602001909190803573ffffffffffffffffffffffffffffffffffffffff16906020019091905050610a64565b6040518082815260200191505060405180910390f35b34156101ba57600080fd5b6101c2610aeb565b6040518082815260200191505060405180910390f35b34156101e357600080fd5b61022e600480803573ffffffffffffffffffffffffffffffffffffffff1690602001909190803573ffffffffffffffffffffffffffffffffffffffff16906020019091905050610af1565b005b341561023b57600080fd5b6102ae600480803573ffffffffffffffffffffffffffffffffffffffff1690602001909190803573ffffffffffffffffffffffffffffffffffffffff1690602001909190803590602001909190803573ffffffffffffffffffffffffffffffffffffffff16906020019091905050610b85565b6040518082815260200191505060405180910390f35b34156102cf57600080fd5b6102d7610bc4565b6040518082815260200191505060405180910390f35b34156102f857600080fd5b61032d600480803573ffffffffffffffffffffffffffffffffffffffff16906020019091908035906020019091905050610bca565b6040518082815260200191505060405180910390f35b341561034e57600080fd5b61036d6004808035906020019091908035906020019091905050610de0565b005b341561037a57600080fd5b6103d7600480803573ffffffffffffffffffffffffffffffffffffffff1690602001909190803573ffffffffffffffffffffffffffffffffffffffff16906020019091908035906020019091908035906020019091905050610df2565b6040518082815260200191505060405180910390f35b34156103f857600080fd5b61040061134e565b6040518082815260200191505060405180910390f35b341561042157600080fd5b610429611354565b604051808273ffffffffffffffffffffffffffffffffffffffff1673ffffffffffffffffffffffffffffffffffffffff16815260200191505060405180910390f35b341561047657600080fd5b6104c1600480803573ffffffffffffffffffffffffffffffffffffffff1690602001909190803573ffffffffffffffffffffffffffffffffffffffff1690602001909190505061137a565b6040518082815260200191505060405180910390f35b34156104e257600080fd5b610555600480803573ffffffffffffffffffffffffffffffffffffffff1690602001909190803573ffffffffffffffffffffffffffffffffffffffff1690602001909190803590602001909190803573ffffffffffffffffffffffffffffffffffffffff1690602001909190505061139f565b6040518082815260200191505060405180910390f35b341561057657600080fd5b6105e9600480803573ffffffffffffffffffffffffffffffffffffffff1690602001909190803573ffffffffffffffffffffffffffffffffffffffff1690602001909190803573ffffffffffffffffffffffffffffffffffffffff169060200190919080359060200190919050506113de565b604051808381526020018281526020019250505060405180910390f35b341561061157600080fd5b61065c600480803573ffffffffffffffffffffffffffffffffffffffff1690602001909190803573ffffffffffffffffffffffffffffffffffffffff1690602001909190505061171f565b6040518082815260200191505060405180910390f35b341561067d57600080fd5b6106c8600480803573ffffffffffffffffffffffffffffffffffffffff1690602001909190803573ffffffffffffffffffffffffffffffffffffffff16906020019091905050611744565b6040518082815260200191505060405180910390f35b34156106e957600080fd5b61075c600480803573ffffffffffffffffffffffffffffffffffffffff1690602001909190803573ffffffffffffffffffffffffffffffffffffffff1690602001909190803590602001909190803573ffffffffffffffffffffffffffffffffffffffff16906020019091905050611769565b6040518082815260200191505060405180910390f35b341561077d57600080fd5b6107c8600480803573ffffffffffffffffffffffffffffffffffffffff1690602001909190803573ffffffffffffffffffffffffffffffffffffffff169060200190919050506117a8565b6040518082815260200191505060405180910390f35b34156107e957600080fd5b610846600480803573ffffffffffffffffffffffffffffffffffffffff1690602001909190803573ffffffffffffffffffffffffffffffffffffffff169060200190919080359060200190919080359060200190919050506117cd565b005b341561085357600080fd5b6108a7600480803573ffffffffffffffffffffffffffffffffffffffff1690602001909190803573ffffffffffffffffffffffffffffffffffffffff1690602001909190803590602001909190505061196d565b005b34156108b457600080fd5b6108bc6119f3565b6040518082815260200191505060405180910390f35b34156108dd57600080fd5b610909600480803573ffffffffffffffffffffffffffffffffffffffff169060200190919050506119f9565b604051808381526020018281526020019250505060405180910390f35b341561093157600080fd5b610966600480803573ffffffffffffffffffffffffffffffffffffffff16906020019091908035906020019091905050611a0b565b6040518082815260200191505060405180910390f35b341561098757600080fd5b6109d2600480803573ffffffffffffffffffffffffffffffffffffffff1690602001909190803573ffffffffffffffffffffffffffffffffffffffff16906020019091905050611c8c565b6040518082815260200191505060405180910390f35b34156109f357600080fd5b610a47600480803573ffffffffffffffffffffffffffffffffffffffff1690602001909190803573ffffffffffffffffffffffffffffffffffffffff16906020019091908035906020019091905050611cb1565b604051808381526020018281526020019250505060405180910390f35b6000600760008473ffffffffffffffffffffffffffffffffffffffff1673ffffffffffffffffffffffffffffffffffffffff16815260200190815260200160002060008373ffffffffffffffffffffffffffffffffffffffff1673ffffffffffffffffffffffffffffffffffffffff16815260200190815260200160002054905092915050565b60035481565b60008081548092919060010191905055600760008473ffffffffffffffffffffffffffffffffffffffff1673ffffffffffffffffffffffffffffffffffffffff16815260200190815260200160002060008373ffffffffffffffffffffffffffffffffffffffff1673ffffffffffffffffffffffffffffffffffffffff168152602001908152602001600020819055505050565b600b6020528360005260406000206020528260005260406000206020528160005260406000206020528060005260406000206000935093505050505481565b60005481565b60008273ffffffffffffffffffffffffffffffffffffffff166323b872dd3330856000604051602001526040518463ffffffff167c0100000000000000000000000000000000000000000000000000000000028152600401808473ffffffffffffffffffffffffffffffffffffffff1673ffffffffffffffffffffffffffffffffffffffff1681526020018373ffffffffffffffffffffffffffffffffffffffff1673ffffffffffffffffffffffffffffffffffffffff1681526020018281526020019350505050602060405180830381600087803b1515610cab57600080fd5b6102c65a03f11515610cbc57600080fd5b505050604051805190501515610cd157600080fd5b81600960008573ffffffffffffffffffffffffffffffffffffffff1673ffffffffffffffffffffffffffffffffffffffff16815260200190815260200160002060003373ffffffffffffffffffffffffffffffffffffffff1673ffffffffffffffffffffffffffffffffffffffff16815260200190815260200160002060008282540192505081905550600960008473ffffffffffffffffffffffffffffffffffffffff1673ffffffffffffffffffffffffffffffffffffffff16815260200190815260200160002060003373ffffffffffffffffffffffffffffffffffffffff1673ffffffffffffffffffffffffffffffffffffffff16815260200190815260200160002054905092915050565b81600281905550806003819055505050565b600080600080600080600080600560008d73ffffffffffffffffffffffffffffffffffffffff1673ffffffffffffffffffffffffffffffffffffffff16815260200190815260200160002060008c73ffffffffffffffffffffffffffffffffffffffff1673ffffffffffffffffffffffffffffffffffffffff16815260200190815260200160002054111515610e8757600080fd5b600960008b73ffffffffffffffffffffffffffffffffffffffff1673ffffffffffffffffffffffffffffffffffffffff16815260200190815260200160002060003373ffffffffffffffffffffffffffffffffffffffff1673ffffffffffffffffffffffffffffffffffffffff168152602001908152602001600020548811151515610f1257600080fd5b600560008c73ffffffffffffffffffffffffffffffffffffffff1673ffffffffffffffffffffffffffffffffffffffff16815260200190815260200160002060008b73ffffffffffffffffffffffffffffffffffffffff1673ffffffffffffffffffffffffffffffffffffffff168152602001908152602001600020549550600660008c73ffffffffffffffffffffffffffffffffffffffff1673ffffffffffffffffffffffffffffffffffffffff16815260200190815260200160002060008b73ffffffffffffffffffffffffffffffffffffffff1673ffffffffffffffffffffffffffffffffffffffff16815260200190815260200160002054945061101b8b8b8b611cb1565b8094508195505050848385880281151561103157fe5b041015151561103f57600080fd5b848385880281151561104d57fe5b04039150818810156110765760008811156110715761106e8a8c8b8b611d40565b90505b61107d565b8197508190505b60008811156112735787600960008c73ffffffffffffffffffffffffffffffffffffffff1673ffffffffffffffffffffffffffffffffffffffff16815260200190815260200160002060003373ffffffffffffffffffffffffffffffffffffffff1673ffffffffffffffffffffffffffffffffffffffff1681526020019081526020016000206000828254039250508190555080600b60008d73ffffffffffffffffffffffffffffffffffffffff1673ffffffffffffffffffffffffffffffffffffffff16815260200190815260200160002060008c73ffffffffffffffffffffffffffffffffffffffff1673ffffffffffffffffffffffffffffffffffffffff16815260200190815260200160002060008b815260200190815260200160002060003373ffffffffffffffffffffffffffffffffffffffff1673ffffffffffffffffffffffffffffffffffffffff1681526020019081526020016000206000828254019250508190555080600660008d73ffffffffffffffffffffffffffffffffffffffff1673ffffffffffffffffffffffffffffffffffffffff16815260200190815260200160002060008c73ffffffffffffffffffffffffffffffffffffffff1673ffffffffffffffffffffffffffffffffffffffff168152602001908152602001600020600082825401925050819055505b600b60008c73ffffffffffffffffffffffffffffffffffffffff1673ffffffffffffffffffffffffffffffffffffffff16815260200190815260200160002060008b73ffffffffffffffffffffffffffffffffffffffff1673ffffffffffffffffffffffffffffffffffffffff16815260200190815260200160002060008a815260200190815260200160002060003373ffffffffffffffffffffffffffffffffffffffff1673ffffffffffffffffffffffffffffffffffffffff168152602001908152602001600020549650505050505050949350505050565b60015481565b600460009054906101000a900473ffffffffffffffffffffffffffffffffffffffff1681565b6007602052816000526040600020602052806000526040600020600091509150505481565b600c6020528360005260406000206020528260005260406000206020528160005260406000206020528060005260406000206000935093505050505481565b6000806000806000806113f28a8a89611cb1565b8094508195505050600b60008b73ffffffffffffffffffffffffffffffffffffffff1673ffffffffffffffffffffffffffffffffffffffff16815260200190815260200160002060008a73ffffffffffffffffffffffffffffffffffffffff1673ffffffffffffffffffffffffffffffffffffffff168152602001908152602001600020600088815260200190815260200160002060008973ffffffffffffffffffffffffffffffffffffffff1673ffffffffffffffffffffffffffffffffffffffff168152602001908152602001600020549150600c60008b73ffffffffffffffffffffffffffffffffffffffff1673ffffffffffffffffffffffffffffffffffffffff16815260200190815260200160002060008a73ffffffffffffffffffffffffffffffffffffffff1673ffffffffffffffffffffffffffffffffffffffff168152602001908152602001600020600088815260200190815260200160002060008973ffffffffffffffffffffffffffffffffffffffff1673ffffffffffffffffffffffffffffffffffffffff168152602001908152602001600020548484840281151561159f57fe5b0403905080600c60008c73ffffffffffffffffffffffffffffffffffffffff1673ffffffffffffffffffffffffffffffffffffffff16815260200190815260200160002060008b73ffffffffffffffffffffffffffffffffffffffff1673ffffffffffffffffffffffffffffffffffffffff168152602001908152602001600020600089815260200190815260200160002060008a73ffffffffffffffffffffffffffffffffffffffff1673ffffffffffffffffffffffffffffffffffffffff16815260200190815260200160002060008282540192505081905550600081111561170f5780600960008c73ffffffffffffffffffffffffffffffffffffffff1673ffffffffffffffffffffffffffffffffffffffff16815260200190815260200160002060008a73ffffffffffffffffffffffffffffffffffffffff1673ffffffffffffffffffffffffffffffffffffffff168152602001908152602001600020600082825401925050819055505b8095505050505094509492505050565b6005602052816000526040600020602052806000526040600020600091509150505481565b6006602052816000526040600020602052806000526040600020600091509150505481565b600a6020528360005260406000206020528260005260406000206020528160005260406000206020528060005260406000206000935093505050505481565b6009602052816000526040600020602052806000526040600020600091509150505481565b8373ffffffffffffffffffffffffffffffffffffffff166323b872dd3330856000604051602001526040518463ffffffff167c0100000000000000000000000000000000000000000000000000000000028152600401808473ffffffffffffffffffffffffffffffffffffffff1673ffffffffffffffffffffffffffffffffffffffff1681526020018373ffffffffffffffffffffffffffffffffffffffff1673ffffffffffffffffffffffffffffffffffffffff1681526020018281526020019350505050602060405180830381600087803b15156118ac57600080fd5b6102c65a03f115156118bd57600080fd5b5050506040518051905015156118d257600080fd5b81600560008673ffffffffffffffffffffffffffffffffffffffff1673ffffffffffffffffffffffffffffffffffffffff16815260200190815260200160002060008573ffffffffffffffffffffffffffffffffffffffff1673ffffffffffffffffffffffffffffffffffffffff1681526020019081526020016000206000828254019250508190555061196784848361196d565b50505050565b80600860008573ffffffffffffffffffffffffffffffffffffffff1673ffffffffffffffffffffffffffffffffffffffff16815260200190815260200160002060008473ffffffffffffffffffffffffffffffffffffffff1673ffffffffffffffffffffffffffffffffffffffff16815260200190815260200160002081905550505050565b60025481565b60008060025460035491509150915091565b600080600960008573ffffffffffffffffffffffffffffffffffffffff1673ffffffffffffffffffffffffffffffffffffffff16815260200190815260200160002060003373ffffffffffffffffffffffffffffffffffffffff1673ffffffffffffffffffffffffffffffffffffffff168152602001908152602001600020549050808311151515611a9c57600080fd5b600083111515611aab57600080fd5b82600960008673ffffffffffffffffffffffffffffffffffffffff1673ffffffffffffffffffffffffffffffffffffffff16815260200190815260200160002060003373ffffffffffffffffffffffffffffffffffffffff1673ffffffffffffffffffffffffffffffffffffffff168152602001908152602001600020600082825403925050819055508373ffffffffffffffffffffffffffffffffffffffff1663a9059cbb33856000604051602001526040518363ffffffff167c0100000000000000000000000000000000000000000000000000000000028152600401808373ffffffffffffffffffffffffffffffffffffffff1673ffffffffffffffffffffffffffffffffffffffff16815260200182815260200192505050602060405180830381600087803b1515611be057600080fd5b6102c65a03f11515611bf157600080fd5b505050604051805190501515611c0657600080fd5b600960008573ffffffffffffffffffffffffffffffffffffffff1673ffffffffffffffffffffffffffffffffffffffff16815260200190815260200160002060003373ffffffffffffffffffffffffffffffffffffffff1673ffffffffffffffffffffffffffffffffffffffff1681526020019081526020016000205491505092915050565b6008602052816000526040600020602052806000526040600020600091509150505481565b600080600860008673ffffffffffffffffffffffffffffffffffffffff1673ffffffffffffffffffffffffffffffffffffffff16815260200190815260200160002060008573ffffffffffffffffffffffffffffffffffffffff1673ffffffffffffffffffffffffffffffffffffffff1681526020019081526020016000205491506001549050935093915050565b600080600080611d4f336119f9565b809350819450505081838602811515611d6457fe5b04905080850393505050509493505050505600a165627a7a723058202e10574caede3165bfd14da2757b6a7c2cc97e841916b314e33fd31e59b1d2610029",
  "source": "pragma solidity 0.4.18;\n\n\nimport \"../../ERC20Interface.sol\";\n\n\ncontract MockDutchX {\n\n    uint public auctionIndexCounter = 1; //counter\n    uint public mutualDenominator = 10 ** 19;\n    uint public feeNumerator;\n    uint public feeDenominator;\n    address public ethToken;\n\n    // Token => Token => amount\n    mapping (address => mapping (address => uint)) public sellVolumesCurrent;\n    // Token => Token => amount\n    mapping (address => mapping (address => uint)) public buyVolumes;\n    mapping (address => mapping (address => uint)) public tokenAuctionIndex;\n    mapping (address => mapping (address => uint)) public tokenAuctionNumerator;\n\n    // Token => user => amount\n    // balances stores a user's balance in the DutchX\n    mapping (address => mapping (address => uint)) public balances;\n\n    // Token => Token =>  auctionIndex => user => amount\n    mapping (address => mapping (address => mapping (uint => mapping (address => uint)))) public sellerBalances;\n    mapping (address => mapping (address => mapping (uint => mapping (address => uint)))) public buyerBalances;\n    mapping (address => mapping (address => mapping (uint => mapping (address => uint)))) public claimedAmounts;\n\n    function MockDutchX(address _ethToken) public {\n        require(_ethToken != address(0));\n        ethToken = _ethToken;\n    }\n\n    function startNewAuctionIndex(address sellToken, address buyToken) public {\n        tokenAuctionIndex[sellToken][buyToken] = auctionIndexCounter++;\n    }\n\n    function addSellFundsToAuction(address sellToken, address buyToken, uint amount, uint numerator) public {\n        require(ERC20(sellToken).transferFrom(msg.sender, this, amount));\n        sellVolumesCurrent[sellToken][buyToken] += amount;\n        setNewAuctionNumerator(sellToken, buyToken, numerator);\n    }\n\n    function setNewAuctionNumerator(address sellToken, address buyToken, uint numerator) public {\n        tokenAuctionNumerator[sellToken][buyToken] = numerator;\n    }\n\n    function getCurrentAuctionPrice(address sellToken, address buyToken, uint auctionIndex) public view\n        returns(uint num, uint den)\n    {\n        auctionIndex;\n        num = tokenAuctionNumerator[sellToken][buyToken];\n        den = mutualDenominator;\n    }\n\n    function deposit(\n        address tokenAddress,\n        uint amount\n    )\n        public\n        returns (uint)\n    {\n        require(ERC20(tokenAddress).transferFrom(msg.sender, this, amount));\n        balances[tokenAddress][msg.sender] += amount;\n        return balances[tokenAddress][msg.sender];\n    }\n\n    function getAuctionIndex(address sellToken, address buyToken) public view returns(uint index){\n        index = tokenAuctionIndex[sellToken][buyToken];\n    }\n\n    function postBuyOrder(\n        address sellToken,\n        address buyToken,\n        uint auctionIndex,\n        uint amount\n    )\n        public\n        returns (uint)\n    {\n        // R6: auction must be funded\n        require(sellVolumesCurrent[sellToken][buyToken] > 0);\n        require(amount <= balances[buyToken][msg.sender]);\n\n        uint sellVolume = sellVolumesCurrent[sellToken][buyToken];\n        uint buyVolume = buyVolumes[sellToken][buyToken];\n\n        uint num;\n        uint den;\n        (num, den) = getCurrentAuctionPrice(sellToken, buyToken, auctionIndex);\n        // 10^30 * 10^37 = 10^67\n        require((sellVolume * num) / den >= buyVolume);\n        uint outstandingVolume = (sellVolume * num) / den - buyVolume;\n\n        uint amountAfterFee;\n        if (amount < outstandingVolume) {\n            if (amount > 0) {\n                amountAfterFee = settleFee(buyToken, sellToken, auctionIndex, amount);\n            }\n        } else {\n            amount = outstandingVolume;\n            amountAfterFee = outstandingVolume;\n        }\n\n        // Here we could also use outstandingVolume or amountAfterFee, it doesn't matter\n        if (amount > 0) {\n            // Update variables\n            balances[buyToken][msg.sender] -= amount;\n            buyerBalances[sellToken][buyToken][auctionIndex][msg.sender] += amountAfterFee;\n            buyVolumes[sellToken][buyToken] += amountAfterFee;\n        }\n\n        return buyerBalances[sellToken][buyToken][auctionIndex][msg.sender];\n    }\n\n    function claimBuyerFunds(\n        address sellToken,\n        address buyToken,\n        address user,\n        uint auctionIndex\n    )\n        public\n        returns (uint returned, uint frtsIssued)\n    {\n        uint num;\n        uint den;\n        (num, den) = getCurrentAuctionPrice(sellToken, buyToken, auctionIndex);\n\n        uint buyerBalance = buyerBalances[sellToken][buyToken][auctionIndex][user];\n        // < 10^30 * 10^37 = 10^67\n        uint unclaimedBuyerFunds = (buyerBalance * den) / num - claimedAmounts[sellToken][buyToken][auctionIndex][user];\n\n        claimedAmounts[sellToken][buyToken][auctionIndex][user] += unclaimedBuyerFunds;\n\n        // Claim tokens\n        if (unclaimedBuyerFunds > 0) {\n            balances[sellToken][user] += unclaimedBuyerFunds;\n        }\n\n        frtsIssued;\n        returned = unclaimedBuyerFunds;\n    }\n\n    function withdraw(\n        address tokenAddress,\n        uint amount\n    )\n        public\n        returns (uint)\n    {\n        uint usersBalance = balances[tokenAddress][msg.sender];\n        require(amount <= usersBalance);\n        require(amount > 0);\n        balances[tokenAddress][msg.sender] -= amount;\n\n        require(ERC20(tokenAddress).transfer(msg.sender, amount));\n        return balances[tokenAddress][msg.sender];\n    }\n\n    function setFee(uint numerator, uint denominator) public {\n        feeNumerator = numerator;\n        feeDenominator = denominator;\n    }\n\n    // feeRatio < 10^4\n    function getFeeRatio(address user) public view returns (uint num, uint den) {\n        user;\n        return (feeNumerator, feeDenominator);\n    }\n\n    function settleFee(\n        address primaryToken,\n        address secondaryToken,\n        uint auctionIndex,\n        uint amount\n    )\n        internal\n        view\n            // < 10^30\n        returns (uint amountAfterFee)\n    {\n        primaryToken;\n        secondaryToken;\n        auctionIndex;\n\n        uint feeNum;\n        uint feeDen;\n        (feeNum, feeDen) = getFeeRatio(msg.sender);\n        // 10^30 * 10^3 / 10^4 = 10^29\n        uint fee = (amount * feeNum) / feeDen;\n\n        amountAfterFee = amount - fee;\n    }\n}\n",
  "sourcePath": "/Users/oscarr/Ethereum/frappe/contracts/dutchX/mock/MockDutchX.sol",
  "compiler": {
    "name": "solc",
    "version": "0.4.18+commit.9cf6e910.Emscripten.clang"
  },
  "schemaVersion": "3.0.6",
  "updatedAt": "2019-05-18T17:14:13.091Z",
  "devdoc": {
    "methods": {}
  },
  "userdoc": {
    "methods": {}
  }
}