{
  "contractName": "MockDepositAddressToken",
  "abi": [
    {
      "constant": true,
      "inputs": [],
      "name": "bank",
      "outputs": [
        {
          "name": "",
          "type": "address"
        }
      ],
      "payable": false,
      "stateMutability": "view",
      "type": "function"
    },
    {
      "constant": true,
      "inputs": [],
      "name": "owner",
      "outputs": [
        {
          "name": "",
          "type": "address"
        }
      ],
      "payable": false,
      "stateMutability": "view",
      "type": "function"
    },
    {
      "constant": true,
      "inputs": [],
      "name": "token",
      "outputs": [
        {
          "name": "",
          "type": "address"
        }
      ],
      "payable": false,
      "stateMutability": "view",
      "type": "function"
    },
    {
      "inputs": [
        {
          "name": "_token",
          "type": "address"
        },
        {
          "name": "_bank",
          "type": "address"
        },
        {
          "name": "_owner",
          "type": "address"
        }
      ],
      "payable": false,
      "stateMutability": "nonpayable",
      "type": "constructor"
    },
    {
      "anonymous": false,
      "inputs": [
        {
          "indexed": false,
          "name": "amount",
          "type": "uint256"
        },
        {
          "indexed": false,
          "name": "destianation",
          "type": "address"
        }
      ],
      "name": "Withdraw",
      "type": "event"
    },
    {
      "constant": false,
      "inputs": [
        {
          "name": "tokenAmount",
          "type": "uint256"
        },
        {
          "name": "destination",
          "type": "address"
        }
      ],
      "name": "withdraw",
      "outputs": [],
      "payable": false,
      "stateMutability": "nonpayable",
      "type": "function"
    },
    {
      "constant": false,
      "inputs": [
        {
          "name": "amount",
          "type": "uint256"
        }
      ],
      "name": "clearBalance",
      "outputs": [],
      "payable": false,
      "stateMutability": "nonpayable",
      "type": "function"
    },
    {
      "constant": true,
      "inputs": [],
      "name": "getBalance",
      "outputs": [
        {
          "name": "",
          "type": "uint256"
        }
      ],
      "payable": false,
      "stateMutability": "view",
      "type": "function"
    }
  ],
  "bytecode": "0x6060604052341561000f57600080fd5b60405160608061093683398101604052808051906020019091908051906020019091908051906020019091905050818180600160006101000a81548173ffffffffffffffffffffffffffffffffffffffff021916908373ffffffffffffffffffffffffffffffffffffffff160217905550816000806101000a81548173ffffffffffffffffffffffffffffffffffffffff021916908373ffffffffffffffffffffffffffffffffffffffff160217905550505082600260006101000a81548173ffffffffffffffffffffffffffffffffffffffff021916908373ffffffffffffffffffffffffffffffffffffffff160217905550505050610821806101156000396000f300606060405260043610610077576000357c0100000000000000000000000000000000000000000000000000000000900463ffffffff168062f714ce1461007c57806312065fe0146100be57806376cdb03b146100e757806384d9a4e61461013c5780638da5cb5b1461015f578063fc0c546a146101b4575b600080fd5b341561008757600080fd5b6100bc600480803590602001909190803573ffffffffffffffffffffffffffffffffffffffff16906020019091905050610209565b005b34156100c957600080fd5b6100d161044b565b6040518082815260200191505060405180910390f35b34156100f257600080fd5b6100fa610532565b604051808273ffffffffffffffffffffffffffffffffffffffff1673ffffffffffffffffffffffffffffffffffffffff16815260200191505060405180910390f35b341561014757600080fd5b61015d6004808035906020019091905050610557565b005b341561016a57600080fd5b6101726107a9565b604051808273ffffffffffffffffffffffffffffffffffffffff1673ffffffffffffffffffffffffffffffffffffffff16815260200191505060405180910390f35b34156101bf57600080fd5b6101c76107cf565b604051808273ffffffffffffffffffffffffffffffffffffffff1673ffffffffffffffffffffffffffffffffffffffff16815260200191505060405180910390f35b600160009054906101000a900473ffffffffffffffffffffffffffffffffffffffff1673ffffffffffffffffffffffffffffffffffffffff163373ffffffffffffffffffffffffffffffffffffffff1614151561026557600080fd5b6000809054906101000a900473ffffffffffffffffffffffffffffffffffffffff1673ffffffffffffffffffffffffffffffffffffffff16639e281a98600260009054906101000a900473ffffffffffffffffffffffffffffffffffffffff16846040518363ffffffff167c0100000000000000000000000000000000000000000000000000000000028152600401808373ffffffffffffffffffffffffffffffffffffffff1673ffffffffffffffffffffffffffffffffffffffff16815260200182815260200192505050600060405180830381600087803b151561034a57600080fd5b6102c65a03f1151561035b57600080fd5b505050600260009054906101000a900473ffffffffffffffffffffffffffffffffffffffff1673ffffffffffffffffffffffffffffffffffffffff1663a9059cbb82846000604051602001526040518363ffffffff167c0100000000000000000000000000000000000000000000000000000000028152600401808373ffffffffffffffffffffffffffffffffffffffff1673ffffffffffffffffffffffffffffffffffffffff16815260200182815260200192505050602060405180830381600087803b151561042b57600080fd5b6102c65a03f1151561043c57600080fd5b50505060405180519050505050565b6000600260009054906101000a900473ffffffffffffffffffffffffffffffffffffffff1673ffffffffffffffffffffffffffffffffffffffff166370a08231306000604051602001526040518263ffffffff167c0100000000000000000000000000000000000000000000000000000000028152600401808273ffffffffffffffffffffffffffffffffffffffff1673ffffffffffffffffffffffffffffffffffffffff168152602001915050602060405180830381600087803b151561051257600080fd5b6102c65a03f1151561052357600080fd5b50505060405180519050905090565b6000809054906101000a900473ffffffffffffffffffffffffffffffffffffffff1681565b600160009054906101000a900473ffffffffffffffffffffffffffffffffffffffff1673ffffffffffffffffffffffffffffffffffffffff163373ffffffffffffffffffffffffffffffffffffffff161415156105b357600080fd5b80600260009054906101000a900473ffffffffffffffffffffffffffffffffffffffff1673ffffffffffffffffffffffffffffffffffffffff166370a08231306000604051602001526040518263ffffffff167c0100000000000000000000000000000000000000000000000000000000028152600401808273ffffffffffffffffffffffffffffffffffffffff1673ffffffffffffffffffffffffffffffffffffffff168152602001915050602060405180830381600087803b151561067957600080fd5b6102c65a03f1151561068a57600080fd5b505050604051805190501015156107a657600260009054906101000a900473ffffffffffffffffffffffffffffffffffffffff1673ffffffffffffffffffffffffffffffffffffffff1663a9059cbb6000809054906101000a900473ffffffffffffffffffffffffffffffffffffffff16836000604051602001526040518363ffffffff167c0100000000000000000000000000000000000000000000000000000000028152600401808373ffffffffffffffffffffffffffffffffffffffff1673ffffffffffffffffffffffffffffffffffffffff16815260200182815260200192505050602060405180830381600087803b151561078957600080fd5b6102c65a03f1151561079a57600080fd5b50505060405180519050505b50565b600160009054906101000a900473ffffffffffffffffffffffffffffffffffffffff1681565b600260009054906101000a900473ffffffffffffffffffffffffffffffffffffffff16815600a165627a7a723058200105f27b0e3c49ab5e505b306a7156e5f0316d1b54a95b881c162e945cbbfb520029",
  "source": "pragma solidity ^0.4.18;\n\nimport \"./MockCentralBank.sol\";\nimport \"./MockDepositAddress.sol\";\n\n/// @title Mock Deposit Address for token\n/// @author Ilan Doron\n/// @dev a dummy contract that simulates a deposit address of a token on a specific exchange. allows reserve manager to deposit and withdraw\ncontract MockDepositAddressToken is MockDepositAddress{\n\n    ERC20 public token;\n\n    function MockDepositAddressToken(ERC20 _token, MockCentralBank _bank, address _owner)\n        MockDepositAddress(_bank, _owner)\n        public\n    {\n        token = _token;\n    }\n\n    function withdraw(uint tokenAmount, address destination) public onlyOwner {\n        bank.withdrawToken(token, tokenAmount);\n        token.transfer(destination, tokenAmount);\n    }\n\n    function clearBalance(uint amount) public\n        onlyOwner\n    {\n        if (token.balanceOf(this) >= amount) {\n            token.transfer(bank, amount);\n        }\n    }\n\n    function getBalance() public view returns (uint) {\n        return token.balanceOf(this);\n    }\n}",
  "sourcePath": "/Users/oscarr/Ethereum/frappe/contracts/mockContracts/MockDepositAddressToken.sol",
  "compiler": {
    "name": "solc",
    "version": "0.4.18+commit.9cf6e910.Emscripten.clang"
  },
  "schemaVersion": "3.0.6",
  "updatedAt": "2019-05-18T17:14:13.197Z",
  "devdoc": {
    "author": "Ilan Doron",
    "methods": {},
    "title": "Mock Deposit Address for token"
  },
  "userdoc": {
    "methods": {}
  }
}