{
  "contractName": "MockMedianizer",
  "abi": [
    {
      "constant": false,
      "inputs": [
        {
          "name": "dollarPerEth",
          "type": "uint256"
        }
      ],
      "name": "setEthPrice",
      "outputs": [],
      "payable": false,
      "stateMutability": "nonpayable",
      "type": "function"
    },
    {
      "constant": false,
      "inputs": [
        {
          "name": "isValid",
          "type": "bool"
        }
      ],
      "name": "setValid",
      "outputs": [],
      "payable": false,
      "stateMutability": "nonpayable",
      "type": "function"
    },
    {
      "constant": true,
      "inputs": [],
      "name": "peek",
      "outputs": [
        {
          "name": "",
          "type": "bytes32"
        },
        {
          "name": "",
          "type": "bool"
        }
      ],
      "payable": false,
      "stateMutability": "view",
      "type": "function"
    }
  ],
  "bytecode": "0x606060405260018060006101000a81548160ff021916908315150217905550341561002957600080fd5b610153806100386000396000f300606060405260043610610056576000357c0100000000000000000000000000000000000000000000000000000000900463ffffffff1680629f92621461005b57806359e02dd71461007e5780636c64edee146100ba575b600080fd5b341561006657600080fd5b61007c60048080359060200190919050506100df565b005b341561008957600080fd5b6100916100e9565b604051808360001916600019168152602001821515151581526020019250505060405180910390f35b34156100c557600080fd5b6100dd6004808035151590602001909190505061010a565b005b8060008190555050565b600080600054600102600160009054906101000a900460ff16915091509091565b80600160006101000a81548160ff021916908315150217905550505600a165627a7a7230582077bd00a7110977cc9867b02b55583c8314f4526c8247e191b2100620364a0b970029",
  "source": "pragma solidity 0.4.18;\n\n\ncontract MockMedianizer {\n\n    uint dollarPerEthPrecision;\n    bool valid = true;\n\n    function setEthPrice(uint dollarPerEth) public {\n        dollarPerEthPrecision = dollarPerEth;\n    }\n\n    function setValid(bool isValid) public {\n        valid = isValid;\n    }\n\n    function peek() public view returns (bytes32, bool) {\n        return(bytes32(dollarPerEthPrecision), valid);\n    }\n}\n",
  "sourcePath": "/Users/oscarr/Ethereum/frappe/contracts/permissionless/mock/MockMedianizer.sol",
  "compiler": {
    "name": "solc",
    "version": "0.4.18+commit.9cf6e910.Emscripten.clang"
  },
  "schemaVersion": "3.0.6",
  "updatedAt": "2019-05-18T17:14:13.498Z",
  "devdoc": {
    "methods": {}
  },
  "userdoc": {
    "methods": {}
  }
}