{
  "contractName": "MockConversionRate",
  "abi": [
    {
      "constant": false,
      "inputs": [
        {
          "name": "alerter",
          "type": "address"
        }
      ],
      "name": "removeAlerter",
      "outputs": [],
      "payable": false,
      "stateMutability": "nonpayable",
      "type": "function"
    },
    {
      "constant": false,
      "inputs": [
        {
          "name": "reserve",
          "type": "address"
        }
      ],
      "name": "setReserveAddress",
      "outputs": [],
      "payable": false,
      "stateMutability": "nonpayable",
      "type": "function"
    },
    {
      "constant": false,
      "inputs": [
        {
          "name": "token",
          "type": "address"
        }
      ],
      "name": "disableTokenTrade",
      "outputs": [],
      "payable": false,
      "stateMutability": "nonpayable",
      "type": "function"
    },
    {
      "constant": true,
      "inputs": [],
      "name": "validRateDurationInBlocks",
      "outputs": [
        {
          "name": "",
          "type": "uint256"
        }
      ],
      "payable": false,
      "stateMutability": "view",
      "type": "function"
    },
    {
      "constant": false,
      "inputs": [
        {
          "name": "tokens",
          "type": "address[]"
        },
        {
          "name": "baseBuy",
          "type": "uint256[]"
        },
        {
          "name": "baseSell",
          "type": "uint256[]"
        },
        {
          "name": "buy",
          "type": "bytes14[]"
        },
        {
          "name": "sell",
          "type": "bytes14[]"
        },
        {
          "name": "blockNumber",
          "type": "uint256"
        },
        {
          "name": "indices",
          "type": "uint256[]"
        }
      ],
      "name": "setBaseRate",
      "outputs": [],
      "payable": false,
      "stateMutability": "nonpayable",
      "type": "function"
    },
    {
      "constant": false,
      "inputs": [
        {
          "name": "token",
          "type": "address"
        }
      ],
      "name": "enableTokenTrade",
      "outputs": [],
      "payable": false,
      "stateMutability": "nonpayable",
      "type": "function"
    },
    {
      "constant": true,
      "inputs": [],
      "name": "pendingAdmin",
      "outputs": [
        {
          "name": "",
          "type": "address"
        }
      ],
      "payable": false,
      "stateMutability": "view",
      "type": "function"
    },
    {
      "constant": true,
      "inputs": [],
      "name": "getOperators",
      "outputs": [
        {
          "name": "",
          "type": "address[]"
        }
      ],
      "payable": false,
      "stateMutability": "view",
      "type": "function"
    },
    {
      "constant": true,
      "inputs": [],
      "name": "getListedTokens",
      "outputs": [
        {
          "name": "",
          "type": "address[]"
        }
      ],
      "payable": false,
      "stateMutability": "view",
      "type": "function"
    },
    {
      "constant": false,
      "inputs": [
        {
          "name": "token",
          "type": "address"
        },
        {
          "name": "amount",
          "type": "uint256"
        },
        {
          "name": "sendTo",
          "type": "address"
        }
      ],
      "name": "withdrawToken",
      "outputs": [],
      "payable": false,
      "stateMutability": "nonpayable",
      "type": "function"
    },
    {
      "constant": false,
      "inputs": [
        {
          "name": "newAlerter",
          "type": "address"
        }
      ],
      "name": "addAlerter",
      "outputs": [],
      "payable": false,
      "stateMutability": "nonpayable",
      "type": "function"
    },
    {
      "constant": true,
      "inputs": [],
      "name": "numTokensInCurrentCompactData",
      "outputs": [
        {
          "name": "",
          "type": "uint256"
        }
      ],
      "payable": false,
      "stateMutability": "view",
      "type": "function"
    },
    {
      "constant": true,
      "inputs": [
        {
          "name": "token",
          "type": "address"
        },
        {
          "name": "command",
          "type": "uint256"
        },
        {
          "name": "param",
          "type": "uint256"
        }
      ],
      "name": "getStepFunctionData",
      "outputs": [
        {
          "name": "",
          "type": "int256"
        }
      ],
      "payable": false,
      "stateMutability": "view",
      "type": "function"
    },
    {
      "constant": false,
      "inputs": [
        {
          "name": "buy",
          "type": "bytes14[]"
        },
        {
          "name": "sell",
          "type": "bytes14[]"
        },
        {
          "name": "blockNumber",
          "type": "uint256"
        },
        {
          "name": "indices",
          "type": "uint256[]"
        }
      ],
      "name": "setCompactData",
      "outputs": [],
      "payable": false,
      "stateMutability": "nonpayable",
      "type": "function"
    },
    {
      "constant": false,
      "inputs": [
        {
          "name": "duration",
          "type": "uint256"
        }
      ],
      "name": "setValidRateDurationInBlocks",
      "outputs": [],
      "payable": false,
      "stateMutability": "nonpayable",
      "type": "function"
    },
    {
      "constant": true,
      "inputs": [
        {
          "name": "token",
          "type": "address"
        }
      ],
      "name": "getTokenBasicData",
      "outputs": [
        {
          "name": "",
          "type": "bool"
        },
        {
          "name": "",
          "type": "bool"
        }
      ],
      "payable": false,
      "stateMutability": "view",
      "type": "function"
    },
    {
      "constant": false,
      "inputs": [
        {
          "name": "newAdmin",
          "type": "address"
        }
      ],
      "name": "transferAdmin",
      "outputs": [],
      "payable": false,
      "stateMutability": "nonpayable",
      "type": "function"
    },
    {
      "constant": false,
      "inputs": [],
      "name": "claimAdmin",
      "outputs": [],
      "payable": false,
      "stateMutability": "nonpayable",
      "type": "function"
    },
    {
      "constant": false,
      "inputs": [
        {
          "name": "newAdmin",
          "type": "address"
        }
      ],
      "name": "transferAdminQuickly",
      "outputs": [],
      "payable": false,
      "stateMutability": "nonpayable",
      "type": "function"
    },
    {
      "constant": true,
      "inputs": [],
      "name": "getAlerters",
      "outputs": [
        {
          "name": "",
          "type": "address[]"
        }
      ],
      "payable": false,
      "stateMutability": "view",
      "type": "function"
    },
    {
      "constant": true,
      "inputs": [
        {
          "name": "token",
          "type": "address"
        }
      ],
      "name": "getRateUpdateBlock",
      "outputs": [
        {
          "name": "",
          "type": "uint256"
        }
      ],
      "payable": false,
      "stateMutability": "view",
      "type": "function"
    },
    {
      "constant": false,
      "inputs": [
        {
          "name": "token",
          "type": "address"
        },
        {
          "name": "xBuy",
          "type": "int256[]"
        },
        {
          "name": "yBuy",
          "type": "int256[]"
        },
        {
          "name": "xSell",
          "type": "int256[]"
        },
        {
          "name": "ySell",
          "type": "int256[]"
        }
      ],
      "name": "setQtyStepFunction",
      "outputs": [],
      "payable": false,
      "stateMutability": "nonpayable",
      "type": "function"
    },
    {
      "constant": false,
      "inputs": [
        {
          "name": "newOperator",
          "type": "address"
        }
      ],
      "name": "addOperator",
      "outputs": [],
      "payable": false,
      "stateMutability": "nonpayable",
      "type": "function"
    },
    {
      "constant": true,
      "inputs": [],
      "name": "reserveContract",
      "outputs": [
        {
          "name": "",
          "type": "address"
        }
      ],
      "payable": false,
      "stateMutability": "view",
      "type": "function"
    },
    {
      "constant": true,
      "inputs": [
        {
          "name": "",
          "type": "address"
        },
        {
          "name": "",
          "type": "uint256"
        }
      ],
      "name": "tokenImbalanceData",
      "outputs": [
        {
          "name": "",
          "type": "uint256"
        }
      ],
      "payable": false,
      "stateMutability": "view",
      "type": "function"
    },
    {
      "constant": false,
      "inputs": [
        {
          "name": "operator",
          "type": "address"
        }
      ],
      "name": "removeOperator",
      "outputs": [],
      "payable": false,
      "stateMutability": "nonpayable",
      "type": "function"
    },
    {
      "constant": true,
      "inputs": [
        {
          "name": "token",
          "type": "address"
        },
        {
          "name": "currentBlockNumber",
          "type": "uint256"
        },
        {
          "name": "buy",
          "type": "bool"
        },
        {
          "name": "qty",
          "type": "uint256"
        }
      ],
      "name": "getRate",
      "outputs": [
        {
          "name": "",
          "type": "uint256"
        }
      ],
      "payable": false,
      "stateMutability": "view",
      "type": "function"
    },
    {
      "constant": false,
      "inputs": [
        {
          "name": "token",
          "type": "address"
        },
        {
          "name": "xBuy",
          "type": "int256[]"
        },
        {
          "name": "yBuy",
          "type": "int256[]"
        },
        {
          "name": "xSell",
          "type": "int256[]"
        },
        {
          "name": "ySell",
          "type": "int256[]"
        }
      ],
      "name": "setImbalanceStepFunction",
      "outputs": [],
      "payable": false,
      "stateMutability": "nonpayable",
      "type": "function"
    },
    {
      "constant": false,
      "inputs": [
        {
          "name": "token",
          "type": "address"
        },
        {
          "name": "minimalRecordResolution",
          "type": "uint256"
        },
        {
          "name": "maxPerBlockImbalance",
          "type": "uint256"
        },
        {
          "name": "maxTotalImbalance",
          "type": "uint256"
        }
      ],
      "name": "setTokenControlInfo",
      "outputs": [],
      "payable": false,
      "stateMutability": "nonpayable",
      "type": "function"
    },
    {
      "constant": false,
      "inputs": [
        {
          "name": "token",
          "type": "address"
        },
        {
          "name": "buyAmount",
          "type": "int256"
        },
        {
          "name": "rateUpdateBlock",
          "type": "uint256"
        },
        {
          "name": "currentBlock",
          "type": "uint256"
        }
      ],
      "name": "recordImbalance",
      "outputs": [],
      "payable": false,
      "stateMutability": "nonpayable",
      "type": "function"
    },
    {
      "constant": false,
      "inputs": [
        {
          "name": "amount",
          "type": "uint256"
        },
        {
          "name": "sendTo",
          "type": "address"
        }
      ],
      "name": "withdrawEther",
      "outputs": [],
      "payable": false,
      "stateMutability": "nonpayable",
      "type": "function"
    },
    {
      "constant": true,
      "inputs": [
        {
          "name": "token",
          "type": "address"
        },
        {
          "name": "buy",
          "type": "bool"
        }
      ],
      "name": "getBasicRate",
      "outputs": [
        {
          "name": "",
          "type": "uint256"
        }
      ],
      "payable": false,
      "stateMutability": "view",
      "type": "function"
    },
    {
      "constant": false,
      "inputs": [
        {
          "name": "token",
          "type": "address"
        }
      ],
      "name": "addToken",
      "outputs": [],
      "payable": false,
      "stateMutability": "nonpayable",
      "type": "function"
    },
    {
      "constant": true,
      "inputs": [
        {
          "name": "token",
          "type": "address"
        }
      ],
      "name": "getCompactData",
      "outputs": [
        {
          "name": "",
          "type": "uint256"
        },
        {
          "name": "",
          "type": "uint256"
        },
        {
          "name": "",
          "type": "bytes1"
        },
        {
          "name": "",
          "type": "bytes1"
        }
      ],
      "payable": false,
      "stateMutability": "view",
      "type": "function"
    },
    {
      "constant": true,
      "inputs": [
        {
          "name": "token",
          "type": "address"
        }
      ],
      "name": "getTokenControlInfo",
      "outputs": [
        {
          "name": "",
          "type": "uint256"
        },
        {
          "name": "",
          "type": "uint256"
        },
        {
          "name": "",
          "type": "uint256"
        }
      ],
      "payable": false,
      "stateMutability": "view",
      "type": "function"
    },
    {
      "constant": true,
      "inputs": [],
      "name": "admin",
      "outputs": [
        {
          "name": "",
          "type": "address"
        }
      ],
      "payable": false,
      "stateMutability": "view",
      "type": "function"
    },
    {
      "inputs": [
        {
          "name": "admin",
          "type": "address"
        }
      ],
      "payable": false,
      "stateMutability": "nonpayable",
      "type": "constructor"
    },
    {
      "anonymous": false,
      "inputs": [
        {
          "indexed": false,
          "name": "token",
          "type": "address"
        },
        {
          "indexed": false,
          "name": "amount",
          "type": "uint256"
        },
        {
          "indexed": false,
          "name": "sendTo",
          "type": "address"
        }
      ],
      "name": "TokenWithdraw",
      "type": "event"
    },
    {
      "anonymous": false,
      "inputs": [
        {
          "indexed": false,
          "name": "amount",
          "type": "uint256"
        },
        {
          "indexed": false,
          "name": "sendTo",
          "type": "address"
        }
      ],
      "name": "EtherWithdraw",
      "type": "event"
    },
    {
      "anonymous": false,
      "inputs": [
        {
          "indexed": false,
          "name": "pendingAdmin",
          "type": "address"
        }
      ],
      "name": "TransferAdminPending",
      "type": "event"
    },
    {
      "anonymous": false,
      "inputs": [
        {
          "indexed": false,
          "name": "newAdmin",
          "type": "address"
        },
        {
          "indexed": false,
          "name": "previousAdmin",
          "type": "address"
        }
      ],
      "name": "AdminClaimed",
      "type": "event"
    },
    {
      "anonymous": false,
      "inputs": [
        {
          "indexed": false,
          "name": "newAlerter",
          "type": "address"
        },
        {
          "indexed": false,
          "name": "isAdd",
          "type": "bool"
        }
      ],
      "name": "AlerterAdded",
      "type": "event"
    },
    {
      "anonymous": false,
      "inputs": [
        {
          "indexed": false,
          "name": "newOperator",
          "type": "address"
        },
        {
          "indexed": false,
          "name": "isAdd",
          "type": "bool"
        }
      ],
      "name": "OperatorAdded",
      "type": "event"
    },
    {
      "constant": true,
      "inputs": [
        {
          "name": "token",
          "type": "address"
        },
        {
          "name": "rateUpdateBlock",
          "type": "uint256"
        },
        {
          "name": "currentBlock",
          "type": "uint256"
        }
      ],
      "name": "mockGetImbalance",
      "outputs": [
        {
          "name": "totalImbalance",
          "type": "int256"
        },
        {
          "name": "currentBlockImbalance",
          "type": "int256"
        }
      ],
      "payable": false,
      "stateMutability": "view",
      "type": "function"
    },
    {
      "constant": true,
      "inputs": [
        {
          "name": "token",
          "type": "address"
        }
      ],
      "name": "mockGetMaxTotalImbalance",
      "outputs": [
        {
          "name": "",
          "type": "uint256"
        }
      ],
      "payable": false,
      "stateMutability": "view",
      "type": "function"
    },
    {
      "constant": true,
      "inputs": [
        {
          "name": "token",
          "type": "address"
        }
      ],
      "name": "getUpdateRateBlockFromCompact",
      "outputs": [
        {
          "name": "updateRateBlock",
          "type": "uint256"
        }
      ],
      "payable": false,
      "stateMutability": "view",
      "type": "function"
    },
    {
      "constant": true,
      "inputs": [
        {
          "name": "rate",
          "type": "uint256"
        },
        {
          "name": "bps",
          "type": "int256"
        }
      ],
      "name": "mockAddBps",
      "outputs": [
        {
          "name": "",
          "type": "uint256"
        }
      ],
      "payable": false,
      "stateMutability": "pure",
      "type": "function"
    }
  ],
  "bytecode": "0x6060604052600a6009556000600d5534156200001a57600080fd5b60405160208062005781833981016040528080519060200190919050508080336000806101000a81548173ffffffffffffffffffffffffffffffffffffffff021916908373ffffffffffffffffffffffffffffffffffffffff160217905550600073ffffffffffffffffffffffffffffffffffffffff168173ffffffffffffffffffffffffffffffffffffffff1614151515620000b657600080fd5b806000806101000a81548173ffffffffffffffffffffffffffffffffffffffff021916908373ffffffffffffffffffffffffffffffffffffffff16021790555050505061567880620001096000396000f3006060604052600436106101ee576000357c0100000000000000000000000000000000000000000000000000000000900463ffffffff16806301a12fd3146101f35780630648f12d1461022c57806314673d311461026c578063158859f7146102a557806316265694146102de5780631a4813d7146103075780631d6a8bda146104aa57806326782247146104e357806327a099d8146105385780632ba996a5146105a25780633ccdbb281461060c578063408ee7fe1461066d5780635085c9f1146106a657806359175e12146106cf57806362674e931461071c578063648873341461077b5780636c6295b81461085e578063721bba591461088157806375829def146108dd57806377f50f97146109165780637acc86781461092b5780637c423f54146109645780638036d757146109ce57806380d8b38014610a1b5780639870d7fe14610b54578063a7cd4e2b14610b8d578063a7f43acd14610bf3578063a80c609e14610c48578063ac8a584a14610c9e578063b8e9c22e14610cd7578063bc9cbcc814610d41578063bfee356914610e7a578063c6fd210314610ece578063c8033a7b14610f22578063ce56c45414610f6f578063cf8fee1114610fb1578063d48bfca714611009578063e4a2ac6214611042578063e7d4fd911461112c578063f851a44014611187575b600080fd5b34156101fe57600080fd5b61022a600480803573ffffffffffffffffffffffffffffffffffffffff169060200190919050506111dc565b005b341561023757600080fd5b610256600480803590602001909190803590602001909190505061149e565b6040518082815260200191505060405180910390f35b341561027757600080fd5b6102a3600480803573ffffffffffffffffffffffffffffffffffffffff169060200190919050506114b2565b005b34156102b057600080fd5b6102dc600480803573ffffffffffffffffffffffffffffffffffffffff16906020019091905050611551565b005b34156102e957600080fd5b6102f1611662565b6040518082815260200191505060405180910390f35b341561031257600080fd5b6104a86004808035906020019082018035906020019080806020026020016040519081016040528093929190818152602001838360200280828437820191505050505050919080359060200190820180359060200190808060200260200160405190810160405280939291908181526020018383602002808284378201915050505050509190803590602001908201803590602001908080602002602001604051908101604052809392919081815260200183836020028082843782019150505050505091908035906020019082018035906020019080806020026020016040519081016040528093929190818152602001838360200280828437820191505050505050919080359060200190820180359060200190808060200260200160405190810160405280939291908181526020018383602002808284378201915050505050509190803590602001909190803590602001908201803590602001908080602002602001604051908101604052809392919081815260200183836020028082843782019150505050505091905050611668565b005b34156104b557600080fd5b6104e1600480803573ffffffffffffffffffffffffffffffffffffffff1690602001909190505061188f565b005b34156104ee57600080fd5b6104f66119f5565b604051808273ffffffffffffffffffffffffffffffffffffffff1673ffffffffffffffffffffffffffffffffffffffff16815260200191505060405180910390f35b341561054357600080fd5b61054b611a1b565b6040518080602001828103825283818151815260200191508051906020019060200280838360005b8381101561058e578082015181840152602081019050610573565b505050509050019250505060405180910390f35b34156105ad57600080fd5b6105b5611aaf565b6040518080602001828103825283818151815260200191508051906020019060200280838360005b838110156105f85780820151818401526020810190506105dd565b505050509050019250505060405180910390f35b341561061757600080fd5b61066b600480803573ffffffffffffffffffffffffffffffffffffffff1690602001909190803590602001909190803573ffffffffffffffffffffffffffffffffffffffff16906020019091905050611b43565b005b341561067857600080fd5b6106a4600480803573ffffffffffffffffffffffffffffffffffffffff16906020019091905050611d13565b005b34156106b157600080fd5b6106b9611f09565b6040518082815260200191505060405180910390f35b34156106da57600080fd5b610706600480803573ffffffffffffffffffffffffffffffffffffffff16906020019091905050611f0f565b6040518082815260200191505060405180910390f35b341561072757600080fd5b610765600480803573ffffffffffffffffffffffffffffffffffffffff16906020019091908035906020019091908035906020019091905050611f82565b6040518082815260200191505060405180910390f35b341561078657600080fd5b61085c60048080359060200190820180359060200190808060200260200160405190810160405280939291908181526020018383602002808284378201915050505050509190803590602001908201803590602001908080602002602001604051908101604052809392919081815260200183836020028082843782019150505050505091908035906020019091908035906020019082018035906020019080806020026020016040519081016040528093929190818152602001838360200280828437820191505050505050919050506125c7565b005b341561086957600080fd5b61087f6004808035906020019091905050612753565b005b341561088c57600080fd5b6108b8600480803573ffffffffffffffffffffffffffffffffffffffff169060200190919050506127b8565b6040518083151515158152602001821515151581526020019250505060405180910390f35b34156108e857600080fd5b610914600480803573ffffffffffffffffffffffffffffffffffffffff16906020019091905050612864565b005b341561092157600080fd5b6109296129c4565b005b341561093657600080fd5b610962600480803573ffffffffffffffffffffffffffffffffffffffff16906020019091905050612ba0565b005b341561096f57600080fd5b610977612d95565b6040518080602001828103825283818151815260200191508051906020019060200280838360005b838110156109ba57808201518184015260208101905061099f565b505050509050019250505060405180910390f35b34156109d957600080fd5b610a05600480803573ffffffffffffffffffffffffffffffffffffffff16906020019091905050612e29565b6040518082815260200191505060405180910390f35b3415610a2657600080fd5b610b52600480803573ffffffffffffffffffffffffffffffffffffffff1690602001909190803590602001908201803590602001908080602002602001604051908101604052809392919081815260200183836020028082843782019150505050505091908035906020019082018035906020019080806020026020016040519081016040528093929190818152602001838360200280828437820191505050505050919080359060200190820180359060200190808060200260200160405190810160405280939291908181526020018383602002808284378201915050505050509190803590602001908201803590602001908080602002602001604051908101604052809392919081815260200183836020028082843782019150505050505091905050612e9c565b005b3415610b5f57600080fd5b610b8b600480803573ffffffffffffffffffffffffffffffffffffffff169060200190919050506130c0565b005b3415610b9857600080fd5b610bd6600480803573ffffffffffffffffffffffffffffffffffffffff169060200190919080359060200190919080359060200190919050506132b6565b604051808381526020018281526020019250505060405180910390f35b3415610bfe57600080fd5b610c066132d4565b604051808273ffffffffffffffffffffffffffffffffffffffff1673ffffffffffffffffffffffffffffffffffffffff16815260200191505060405180910390f35b3415610c5357600080fd5b610c88600480803573ffffffffffffffffffffffffffffffffffffffff169060200190919080359060200190919050506132fa565b6040518082815260200191505060405180910390f35b3415610ca957600080fd5b610cd5600480803573ffffffffffffffffffffffffffffffffffffffff1690602001909190505061331f565b005b3415610ce257600080fd5b610d2b600480803573ffffffffffffffffffffffffffffffffffffffff1690602001909190803590602001909190803515159060200190919080359060200190919050506135e4565b6040518082815260200191505060405180910390f35b3415610d4c57600080fd5b610e78600480803573ffffffffffffffffffffffffffffffffffffffff1690602001909190803590602001908201803590602001908080602002602001604051908101604052809392919081815260200183836020028082843782019150505050505091908035906020019082018035906020019080806020026020016040519081016040528093929190818152602001838360200280828437820191505050505050919080359060200190820180359060200190808060200260200160405190810160405280939291908181526020018383602002808284378201915050505050509190803590602001908201803590602001908080602002602001604051908101604052809392919081815260200183836020028082843782019150505050505091905050613cfd565b005b3415610e8557600080fd5b610ecc600480803573ffffffffffffffffffffffffffffffffffffffff16906020019091908035906020019091908035906020019091908035906020019091905050613f21565b005b3415610ed957600080fd5b610f20600480803573ffffffffffffffffffffffffffffffffffffffff16906020019091908035906020019091908035906020019091908035906020019091905050613ffe565b005b3415610f2d57600080fd5b610f59600480803573ffffffffffffffffffffffffffffffffffffffff16906020019091905050614081565b6040518082815260200191505060405180910390f35b3415610f7a57600080fd5b610faf600480803590602001909190803573ffffffffffffffffffffffffffffffffffffffff16906020019091905050614093565b005b3415610fbc57600080fd5b610ff3600480803573ffffffffffffffffffffffffffffffffffffffff16906020019091908035151590602001909190505061419d565b6040518082815260200191505060405180910390f35b341561101457600080fd5b611040600480803573ffffffffffffffffffffffffffffffffffffffff1690602001909190505061423b565b005b341561104d57600080fd5b611079600480803573ffffffffffffffffffffffffffffffffffffffff16906020019091905050614496565b60405180858152602001848152602001837effffffffffffffffffffffffffffffffffffffffffffffffffffffffffffff19167effffffffffffffffffffffffffffffffffffffffffffffffffffffffffffff19168152602001827effffffffffffffffffffffffffffffffffffffffffffffffffffffffffffff19167effffffffffffffffffffffffffffffffffffffffffffffffffffffffffffff1916815260200194505050505060405180910390f35b341561113757600080fd5b611163600480803573ffffffffffffffffffffffffffffffffffffffff16906020019091905050614627565b60405180848152602001838152602001828152602001935050505060405180910390f35b341561119257600080fd5b61119a614702565b604051808273ffffffffffffffffffffffffffffffffffffffff1673ffffffffffffffffffffffffffffffffffffffff16815260200191505060405180910390f35b60008060009054906101000a900473ffffffffffffffffffffffffffffffffffffffff1673ffffffffffffffffffffffffffffffffffffffff163373ffffffffffffffffffffffffffffffffffffffff1614151561123957600080fd5b600360008373ffffffffffffffffffffffffffffffffffffffff1673ffffffffffffffffffffffffffffffffffffffff16815260200190815260200160002060009054906101000a900460ff16151561129157600080fd5b6000600360008473ffffffffffffffffffffffffffffffffffffffff1673ffffffffffffffffffffffffffffffffffffffff16815260200190815260200160002060006101000a81548160ff021916908315150217905550600090505b60058054905081101561149a578173ffffffffffffffffffffffffffffffffffffffff1660058281548110151561132157fe5b906000526020600020900160009054906101000a900473ffffffffffffffffffffffffffffffffffffffff1673ffffffffffffffffffffffffffffffffffffffff16141561148f57600560016005805490500381548110151561138057fe5b906000526020600020900160009054906101000a900473ffffffffffffffffffffffffffffffffffffffff166005828154811015156113bb57fe5b906000526020600020900160006101000a81548173ffffffffffffffffffffffffffffffffffffffff021916908373ffffffffffffffffffffffffffffffffffffffff1602179055506005805480919060019003611419919061548f565b507f5611bf3e417d124f97bf2c788843ea8bb502b66079fbee02158ef30b172cb762826000604051808373ffffffffffffffffffffffffffffffffffffffff1673ffffffffffffffffffffffffffffffffffffffff168152602001821515151581526020019250505060405180910390a161149a565b8060010190506112ee565b5050565b60006114aa8383614727565b905092915050565b6000809054906101000a900473ffffffffffffffffffffffffffffffffffffffff1673ffffffffffffffffffffffffffffffffffffffff163373ffffffffffffffffffffffffffffffffffffffff1614151561150d57600080fd5b80600e60006101000a81548173ffffffffffffffffffffffffffffffffffffffff021916908373ffffffffffffffffffffffffffffffffffffffff16021790555050565b600360003373ffffffffffffffffffffffffffffffffffffffff1673ffffffffffffffffffffffffffffffffffffffff16815260200190815260200160002060009054906101000a900460ff1615156115a957600080fd5b600b60008273ffffffffffffffffffffffffffffffffffffffff1673ffffffffffffffffffffffffffffffffffffffff16815260200190815260200160002060000160009054906101000a900460ff16151561160457600080fd5b6000600b60008373ffffffffffffffffffffffffffffffffffffffff1673ffffffffffffffffffffffffffffffffffffffff16815260200190815260200160002060000160016101000a81548160ff02191690831515021790555050565b60095481565b6000600260003373ffffffffffffffffffffffffffffffffffffffff1673ffffffffffffffffffffffffffffffffffffffff16815260200190815260200160002060009054906101000a900460ff1615156116c257600080fd5b865188511415156116d257600080fd5b855188511415156116e257600080fd5b845184511415156116f257600080fd5b8151845114151561170257600080fd5b600090505b875181101561187957600b6000898381518110151561172257fe5b9060200190602002015173ffffffffffffffffffffffffffffffffffffffff1673ffffffffffffffffffffffffffffffffffffffff16815260200190815260200160002060000160009054906101000a900460ff16151561178257600080fd5b868181518110151561179057fe5b90602001906020020151600b60008a848151811015156117ac57fe5b9060200190602002015173ffffffffffffffffffffffffffffffffffffffff1673ffffffffffffffffffffffffffffffffffffffff16815260200190815260200160002060030181905550858181518110151561180557fe5b90602001906020020151600b60008a8481518110151561182157fe5b9060200190602002015173ffffffffffffffffffffffffffffffffffffffff1673ffffffffffffffffffffffffffffffffffffffff168152602001908152602001600020600401819055508080600101915050611707565b611885858585856125c7565b5050505050505050565b6000809054906101000a900473ffffffffffffffffffffffffffffffffffffffff1673ffffffffffffffffffffffffffffffffffffffff163373ffffffffffffffffffffffffffffffffffffffff161415156118ea57600080fd5b600b60008273ffffffffffffffffffffffffffffffffffffffff1673ffffffffffffffffffffffffffffffffffffffff16815260200190815260200160002060000160009054906101000a900460ff16151561194557600080fd5b6000600660008373ffffffffffffffffffffffffffffffffffffffff1673ffffffffffffffffffffffffffffffffffffffff168152602001908152602001600020600001541415151561199757600080fd5b6001600b60008373ffffffffffffffffffffffffffffffffffffffff1673ffffffffffffffffffffffffffffffffffffffff16815260200190815260200160002060000160016101000a81548160ff02191690831515021790555050565b600160009054906101000a900473ffffffffffffffffffffffffffffffffffffffff1681565b611a236154bb565b6004805480602002602001604051908101604052809291908181526020018280548015611aa557602002820191906000526020600020905b8160009054906101000a900473ffffffffffffffffffffffffffffffffffffffff1673ffffffffffffffffffffffffffffffffffffffff1681526020019060010190808311611a5b575b5050505050905090565b611ab76154cf565b600a805480602002602001604051908101604052809291908181526020018280548015611b3957602002820191906000526020600020905b8160009054906101000a900473ffffffffffffffffffffffffffffffffffffffff1673ffffffffffffffffffffffffffffffffffffffff1681526020019060010190808311611aef575b5050505050905090565b6000809054906101000a900473ffffffffffffffffffffffffffffffffffffffff1673ffffffffffffffffffffffffffffffffffffffff163373ffffffffffffffffffffffffffffffffffffffff16141515611b9e57600080fd5b8273ffffffffffffffffffffffffffffffffffffffff1663a9059cbb82846000604051602001526040518363ffffffff167c0100000000000000000000000000000000000000000000000000000000028152600401808373ffffffffffffffffffffffffffffffffffffffff1673ffffffffffffffffffffffffffffffffffffffff16815260200182815260200192505050602060405180830381600087803b1515611c4957600080fd5b6102c65a03f11515611c5a57600080fd5b505050604051805190501515611c6f57600080fd5b7f72cb8a894ddb372ceec3d2a7648d86f17d5a15caae0e986c53109b8a9a9385e6838383604051808473ffffffffffffffffffffffffffffffffffffffff1673ffffffffffffffffffffffffffffffffffffffff1681526020018381526020018273ffffffffffffffffffffffffffffffffffffffff1673ffffffffffffffffffffffffffffffffffffffff168152602001935050505060405180910390a1505050565b6000809054906101000a900473ffffffffffffffffffffffffffffffffffffffff1673ffffffffffffffffffffffffffffffffffffffff163373ffffffffffffffffffffffffffffffffffffffff16141515611d6e57600080fd5b600360008273ffffffffffffffffffffffffffffffffffffffff1673ffffffffffffffffffffffffffffffffffffffff16815260200190815260200160002060009054906101000a900460ff16151515611dc757600080fd5b6032600580549050101515611ddb57600080fd5b7f5611bf3e417d124f97bf2c788843ea8bb502b66079fbee02158ef30b172cb762816001604051808373ffffffffffffffffffffffffffffffffffffffff1673ffffffffffffffffffffffffffffffffffffffff168152602001821515151581526020019250505060405180910390a16001600360008373ffffffffffffffffffffffffffffffffffffffff1673ffffffffffffffffffffffffffffffffffffffff16815260200190815260200160002060006101000a81548160ff02191690831515021790555060058054806001018281611eb791906154e3565b9160005260206000209001600083909190916101000a81548173ffffffffffffffffffffffffffffffffffffffff021916908373ffffffffffffffffffffffffffffffffffffffff1602179055505050565b600d5481565b600080600c600b60008573ffffffffffffffffffffffffffffffffffffffff1673ffffffffffffffffffffffffffffffffffffffff16815260200190815260200160002060010154815481101515611f6357fe5b9060005260206000209001549050611f7a816147a7565b915050919050565b600080831415611fdc57600b60008573ffffffffffffffffffffffffffffffffffffffff1673ffffffffffffffffffffffffffffffffffffffff1681526020019081526020016000206005016000018054905090506125c0565b600183141561204a57600b60008573ffffffffffffffffffffffffffffffffffffffff1673ffffffffffffffffffffffffffffffffffffffff1681526020019081526020016000206005016000018281548110151561203757fe5b90600052602060002090015490506125c0565b60028314156120a357600b60008573ffffffffffffffffffffffffffffffffffffffff1673ffffffffffffffffffffffffffffffffffffffff1681526020019081526020016000206005016001018054905090506125c0565b600383141561211157600b60008573ffffffffffffffffffffffffffffffffffffffff1673ffffffffffffffffffffffffffffffffffffffff168152602001908152602001600020600501600101828154811015156120fe57fe5b90600052602060002090015490506125c0565b600483141561216a57600b60008573ffffffffffffffffffffffffffffffffffffffff1673ffffffffffffffffffffffffffffffffffffffff1681526020019081526020016000206007016000018054905090506125c0565b60058314156121d857600b60008573ffffffffffffffffffffffffffffffffffffffff1673ffffffffffffffffffffffffffffffffffffffff168152602001908152602001600020600701600001828154811015156121c557fe5b90600052602060002090015490506125c0565b600683141561223157600b60008573ffffffffffffffffffffffffffffffffffffffff1673ffffffffffffffffffffffffffffffffffffffff1681526020019081526020016000206007016001018054905090506125c0565b600783141561229f57600b60008573ffffffffffffffffffffffffffffffffffffffff1673ffffffffffffffffffffffffffffffffffffffff1681526020019081526020016000206007016001018281548110151561228c57fe5b90600052602060002090015490506125c0565b60088314156122f857600b60008573ffffffffffffffffffffffffffffffffffffffff1673ffffffffffffffffffffffffffffffffffffffff1681526020019081526020016000206009016000018054905090506125c0565b600983141561236657600b60008573ffffffffffffffffffffffffffffffffffffffff1673ffffffffffffffffffffffffffffffffffffffff1681526020019081526020016000206009016000018281548110151561235357fe5b90600052602060002090015490506125c0565b600a8314156123bf57600b60008573ffffffffffffffffffffffffffffffffffffffff1673ffffffffffffffffffffffffffffffffffffffff1681526020019081526020016000206009016001018054905090506125c0565b600b83141561242d57600b60008573ffffffffffffffffffffffffffffffffffffffff1673ffffffffffffffffffffffffffffffffffffffff1681526020019081526020016000206009016001018281548110151561241a57fe5b90600052602060002090015490506125c0565b600c83141561248657600b60008573ffffffffffffffffffffffffffffffffffffffff1673ffffffffffffffffffffffffffffffffffffffff168152602001908152602001600020600b016000018054905090506125c0565b600d8314156124f457600b60008573ffffffffffffffffffffffffffffffffffffffff1673ffffffffffffffffffffffffffffffffffffffff168152602001908152602001600020600b01600001828154811015156124e157fe5b90600052602060002090015490506125c0565b600e83141561254d57600b60008573ffffffffffffffffffffffffffffffffffffffff1673ffffffffffffffffffffffffffffffffffffffff168152602001908152602001600020600b016001018054905090506125c0565b600f8314156125bb57600b60008573ffffffffffffffffffffffffffffffffffffffff1673ffffffffffffffffffffffffffffffffffffffff168152602001908152602001600020600b01600101828154811015156125a857fe5b90600052602060002090015490506125c0565b600080fd5b9392505050565b6000806000600260003373ffffffffffffffffffffffffffffffffffffffff1673ffffffffffffffffffffffffffffffffffffffff16815260200190815260200160002060009054906101000a900460ff16151561262457600080fd5b8551875114151561263457600080fd5b8651845114151561264457600080fd5b63ffffffff851115151561265757600080fd5b600e60080260020a9250600091505b835182101561274a57600c80549050848381518110151561268357fe5b9060200190602002015110151561269957600080fd5b82830285028387848151811015156126ad57fe5b90602001906020020151720100000000000000000000000000000000000090040288848151811015156126dc57fe5b90602001906020020151720100000000000000000000000000000000000090041717905080600102600c858481518110151561271457fe5b9060200190602002015181548110151561272a57fe5b906000526020600020900181600019169055508180600101925050612666565b50505050505050565b6000809054906101000a900473ffffffffffffffffffffffffffffffffffffffff1673ffffffffffffffffffffffffffffffffffffffff163373ffffffffffffffffffffffffffffffffffffffff161415156127ae57600080fd5b8060098190555050565b600080600b60008473ffffffffffffffffffffffffffffffffffffffff1673ffffffffffffffffffffffffffffffffffffffff16815260200190815260200160002060000160009054906101000a900460ff16600b60008573ffffffffffffffffffffffffffffffffffffffff1673ffffffffffffffffffffffffffffffffffffffff16815260200190815260200160002060000160019054906101000a900460ff1691509150915091565b6000809054906101000a900473ffffffffffffffffffffffffffffffffffffffff1673ffffffffffffffffffffffffffffffffffffffff163373ffffffffffffffffffffffffffffffffffffffff161415156128bf57600080fd5b600073ffffffffffffffffffffffffffffffffffffffff168173ffffffffffffffffffffffffffffffffffffffff16141515156128fb57600080fd5b7f3b81caf78fa51ecbc8acb482fd7012a277b428d9b80f9d156e8a54107496cc40600160009054906101000a900473ffffffffffffffffffffffffffffffffffffffff16604051808273ffffffffffffffffffffffffffffffffffffffff1673ffffffffffffffffffffffffffffffffffffffff16815260200191505060405180910390a180600160006101000a81548173ffffffffffffffffffffffffffffffffffffffff021916908373ffffffffffffffffffffffffffffffffffffffff16021790555050565b3373ffffffffffffffffffffffffffffffffffffffff16600160009054906101000a900473ffffffffffffffffffffffffffffffffffffffff1673ffffffffffffffffffffffffffffffffffffffff16141515612a2057600080fd5b7f65da1cfc2c2e81576ad96afb24a581f8e109b7a403b35cbd3243a1c99efdb9ed600160009054906101000a900473ffffffffffffffffffffffffffffffffffffffff166000809054906101000a900473ffffffffffffffffffffffffffffffffffffffff16604051808373ffffffffffffffffffffffffffffffffffffffff1673ffffffffffffffffffffffffffffffffffffffff1681526020018273ffffffffffffffffffffffffffffffffffffffff1673ffffffffffffffffffffffffffffffffffffffff1681526020019250505060405180910390a1600160009054906101000a900473ffffffffffffffffffffffffffffffffffffffff166000806101000a81548173ffffffffffffffffffffffffffffffffffffffff021916908373ffffffffffffffffffffffffffffffffffffffff1602179055506000600160006101000a81548173ffffffffffffffffffffffffffffffffffffffff021916908373ffffffffffffffffffffffffffffffffffffffff160217905550565b6000809054906101000a900473ffffffffffffffffffffffffffffffffffffffff1673ffffffffffffffffffffffffffffffffffffffff163373ffffffffffffffffffffffffffffffffffffffff16141515612bfb57600080fd5b600073ffffffffffffffffffffffffffffffffffffffff168173ffffffffffffffffffffffffffffffffffffffff1614151515612c3757600080fd5b7f3b81caf78fa51ecbc8acb482fd7012a277b428d9b80f9d156e8a54107496cc4081604051808273ffffffffffffffffffffffffffffffffffffffff1673ffffffffffffffffffffffffffffffffffffffff16815260200191505060405180910390a17f65da1cfc2c2e81576ad96afb24a581f8e109b7a403b35cbd3243a1c99efdb9ed816000809054906101000a900473ffffffffffffffffffffffffffffffffffffffff16604051808373ffffffffffffffffffffffffffffffffffffffff1673ffffffffffffffffffffffffffffffffffffffff1681526020018273ffffffffffffffffffffffffffffffffffffffff1673ffffffffffffffffffffffffffffffffffffffff1681526020019250505060405180910390a1806000806101000a81548173ffffffffffffffffffffffffffffffffffffffff021916908373ffffffffffffffffffffffffffffffffffffffff16021790555050565b612d9d6154bb565b6005805480602002602001604051908101604052809291908181526020018280548015612e1f57602002820191906000526020600020905b8160009054906101000a900473ffffffffffffffffffffffffffffffffffffffff1673ffffffffffffffffffffffffffffffffffffffff1681526020019060010190808311612dd5575b5050505050905090565b600080600c600b60008573ffffffffffffffffffffffffffffffffffffffff1673ffffffffffffffffffffffffffffffffffffffff16815260200190815260200160002060010154815481101515612e7d57fe5b9060005260206000209001549050612e94816147a7565b915050919050565b600260003373ffffffffffffffffffffffffffffffffffffffff1673ffffffffffffffffffffffffffffffffffffffff16815260200190815260200160002060009054906101000a900460ff161515612ef457600080fd5b82518451141515612f0457600080fd5b80518251141515612f1457600080fd5b600a845111151515612f2557600080fd5b600a825111151515612f3657600080fd5b600b60008673ffffffffffffffffffffffffffffffffffffffff1673ffffffffffffffffffffffffffffffffffffffff16815260200190815260200160002060000160009054906101000a900460ff161515612f9157600080fd5b604080519081016040528085815260200184815250600b60008773ffffffffffffffffffffffffffffffffffffffff1673ffffffffffffffffffffffffffffffffffffffff168152602001908152602001600020600501600082015181600001908051906020019061300492919061550f565b50602082015181600101908051906020019061302192919061550f565b50905050604080519081016040528083815260200182815250600b60008773ffffffffffffffffffffffffffffffffffffffff1673ffffffffffffffffffffffffffffffffffffffff168152602001908152602001600020600701600082015181600001908051906020019061309892919061550f565b5060208201518160010190805190602001906130b592919061550f565b509050505050505050565b6000809054906101000a900473ffffffffffffffffffffffffffffffffffffffff1673ffffffffffffffffffffffffffffffffffffffff163373ffffffffffffffffffffffffffffffffffffffff1614151561311b57600080fd5b600260008273ffffffffffffffffffffffffffffffffffffffff1673ffffffffffffffffffffffffffffffffffffffff16815260200190815260200160002060009054906101000a900460ff1615151561317457600080fd5b603260048054905010151561318857600080fd5b7f091a7a4b85135fdd7e8dbc18b12fabe5cc191ea867aa3c2e1a24a102af61d58b816001604051808373ffffffffffffffffffffffffffffffffffffffff1673ffffffffffffffffffffffffffffffffffffffff168152602001821515151581526020019250505060405180910390a16001600260008373ffffffffffffffffffffffffffffffffffffffff1673ffffffffffffffffffffffffffffffffffffffff16815260200190815260200160002060006101000a81548160ff0219169083151502179055506004805480600101828161326491906154e3565b9160005260206000209001600083909190916101000a81548173ffffffffffffffffffffffffffffffffffffffff021916908373ffffffffffffffffffffffffffffffffffffffff1602179055505050565b6000806132c48585856147d0565b8092508193505050935093915050565b600e60009054906101000a900473ffffffffffffffffffffffffffffffffffffffff1681565b6007602052816000526040600020602052806000526040600020600091509150505481565b60008060009054906101000a900473ffffffffffffffffffffffffffffffffffffffff1673ffffffffffffffffffffffffffffffffffffffff163373ffffffffffffffffffffffffffffffffffffffff1614151561337c57600080fd5b600260008373ffffffffffffffffffffffffffffffffffffffff1673ffffffffffffffffffffffffffffffffffffffff16815260200190815260200160002060009054906101000a900460ff1615156133d457600080fd5b6000600260008473ffffffffffffffffffffffffffffffffffffffff1673ffffffffffffffffffffffffffffffffffffffff16815260200190815260200160002060006101000a81548160ff021916908315150217905550600090505b6004805490508110156135e0578173ffffffffffffffffffffffffffffffffffffffff1660048281548110151561346457fe5b906000526020600020900160009054906101000a900473ffffffffffffffffffffffffffffffffffffffff1673ffffffffffffffffffffffffffffffffffffffff1614156135d55760046001600480549050038154811015156134c357fe5b906000526020600020900160009054906101000a900473ffffffffffffffffffffffffffffffffffffffff166004828154811015156134fe57fe5b906000526020600020900160006101000a81548173ffffffffffffffffffffffffffffffffffffffff021916908373ffffffffffffffffffffffffffffffffffffffff160217905550600160048181805490500391508161355f919061548f565b507f091a7a4b85135fdd7e8dbc18b12fabe5cc191ea867aa3c2e1a24a102af61d58b826000604051808373ffffffffffffffffffffffffffffffffffffffff1673ffffffffffffffffffffffffffffffffffffffff168152602001821515151581526020019250505060405180910390a16135e0565b806001019050613431565b5050565b6000806000806000806000806000600b60008e73ffffffffffffffffffffffffffffffffffffffff1673ffffffffffffffffffffffffffffffffffffffff16815260200190815260200160002060000160019054906101000a900460ff1615156136515760009850613ced565b6000600660008f73ffffffffffffffffffffffffffffffffffffffff1673ffffffffffffffffffffffffffffffffffffffff1681526020019081526020016000206000015414156136a55760009850613ced565b600c600b60008f73ffffffffffffffffffffffffffffffffffffffff1673ffffffffffffffffffffffffffffffffffffffff168152602001908152602001600020600101548154811015156136f657fe5b906000526020600020900154975061370d886147a7565b965060095487018c1015156137255760009850613ced565b6137308d888e6147d0565b80965081975050508a156139e857600b60008e73ffffffffffffffffffffffffffffffffffffffff1673ffffffffffffffffffffffffffffffffffffffff16815260200190815260200160002060030154905061378f888e6001614840565b9150600a8260000b0292506137a48184614727565b90506137b18d828c614904565b995089935083860195506138c1600b60008f73ffffffffffffffffffffffffffffffffffffffff1673ffffffffffffffffffffffffffffffffffffffff1681526020019081526020016000206005016040805190810160405290816000820180548060200260200160405190810160405280929190818152602001828054801561385a57602002820191906000526020600020905b815481526020019060010190808311613846575b50505050508152602001600182018054806020026020016040519081016040528092919081815260200182805480156138b257602002820191906000526020600020905b81548152602001906001019080831161389e575b5050505050815250508b61492f565b92506138cd8184614727565b90506139d5600b60008f73ffffffffffffffffffffffffffffffffffffffff1673ffffffffffffffffffffffffffffffffffffffff1681526020019081526020016000206009016040805190810160405290816000820180548060200260200160405190810160405280929190818152602001828054801561396e57602002820191906000526020600020905b81548152602001906001019080831161395a575b50505050508152602001600182018054806020026020016040519081016040528092919081815260200182805480156139c657602002820191906000526020600020905b8154815260200190600101908083116139b2575b5050505050815250508761492f565b92506139e18184614727565b9050613ca3565b600b60008e73ffffffffffffffffffffffffffffffffffffffff1673ffffffffffffffffffffffffffffffffffffffff168152602001908152602001600020600401549050613a39888e6000614840565b9150600a8260000b029250613a4e8184614727565b9050897fffffffffffffffffffffffffffffffffffffffffffffffffffffffffffffffff0293508386019550613b80600b60008f73ffffffffffffffffffffffffffffffffffffffff1673ffffffffffffffffffffffffffffffffffffffff16815260200190815260200160002060070160408051908101604052908160008201805480602002602001604051908101604052809291908181526020018280548015613b1957602002820191906000526020600020905b815481526020019060010190808311613b05575b5050505050815260200160018201805480602002602001604051908101604052809291908181526020018280548015613b7157602002820191906000526020600020905b815481526020019060010190808311613b5d575b5050505050815250508b61492f565b9250613b8c8184614727565b9050613c94600b60008f73ffffffffffffffffffffffffffffffffffffffff1673ffffffffffffffffffffffffffffffffffffffff168152602001908152602001600020600b0160408051908101604052908160008201805480602002602001604051908101604052809291908181526020018280548015613c2d57602002820191906000526020600020905b815481526020019060010190808311613c19575b5050505050815260200160018201805480602002602001604051908101604052809291908181526020018280548015613c8557602002820191906000526020600020905b815481526020019060010190808311613c71575b5050505050815250508761492f565b9250613ca08184614727565b90505b613cac8d6149c7565b613cb587614a13565b101515613cc55760009850613ced565b613cce8d614a50565b613cd9858701614a13565b101515613ce95760009850613ced565b8098505b5050505050505050949350505050565b600260003373ffffffffffffffffffffffffffffffffffffffff1673ffffffffffffffffffffffffffffffffffffffff16815260200190815260200160002060009054906101000a900460ff161515613d5557600080fd5b82518451141515613d6557600080fd5b80518251141515613d7557600080fd5b600a845111151515613d8657600080fd5b600a825111151515613d9757600080fd5b600b60008673ffffffffffffffffffffffffffffffffffffffff1673ffffffffffffffffffffffffffffffffffffffff16815260200190815260200160002060000160009054906101000a900460ff161515613df257600080fd5b604080519081016040528085815260200184815250600b60008773ffffffffffffffffffffffffffffffffffffffff1673ffffffffffffffffffffffffffffffffffffffff1681526020019081526020016000206009016000820151816000019080519060200190613e6592919061550f565b506020820151816001019080519060200190613e8292919061550f565b50905050604080519081016040528083815260200182815250600b60008773ffffffffffffffffffffffffffffffffffffffff1673ffffffffffffffffffffffffffffffffffffffff168152602001908152602001600020600b016000820151816000019080519060200190613ef992919061550f565b506020820151816001019080519060200190613f1692919061550f565b509050505050505050565b6000809054906101000a900473ffffffffffffffffffffffffffffffffffffffff1673ffffffffffffffffffffffffffffffffffffffff163373ffffffffffffffffffffffffffffffffffffffff16141515613f7c57600080fd5b60606040519081016040528084815260200183815260200182815250600660008673ffffffffffffffffffffffffffffffffffffffff1673ffffffffffffffffffffffffffffffffffffffff16815260200190815260200160002060008201518160000155602082015181600101556040820151816002015590505050505050565b600e60009054906101000a900473ffffffffffffffffffffffffffffffffffffffff1673ffffffffffffffffffffffffffffffffffffffff163373ffffffffffffffffffffffffffffffffffffffff1614151561405a57600080fd5b600082141561406f5761406c84612e29565b91505b61407b84848484614a9c565b50505050565b600061408c826149c7565b9050919050565b6000809054906101000a900473ffffffffffffffffffffffffffffffffffffffff1673ffffffffffffffffffffffffffffffffffffffff163373ffffffffffffffffffffffffffffffffffffffff161415156140ee57600080fd5b8073ffffffffffffffffffffffffffffffffffffffff166108fc839081150290604051600060405180830381858888f19350505050151561412e57600080fd5b7fec47e7ed86c86774d1a72c19f35c639911393fe7c1a34031fdbd260890da90de8282604051808381526020018273ffffffffffffffffffffffffffffffffffffffff1673ffffffffffffffffffffffffffffffffffffffff1681526020019250505060405180910390a15050565b600081156141ef57600b60008473ffffffffffffffffffffffffffffffffffffffff1673ffffffffffffffffffffffffffffffffffffffff168152602001908152602001600020600301549050614235565b600b60008473ffffffffffffffffffffffffffffffffffffffff1673ffffffffffffffffffffffffffffffffffffffff1681526020019081526020016000206004015490505b92915050565b6000809054906101000a900473ffffffffffffffffffffffffffffffffffffffff1673ffffffffffffffffffffffffffffffffffffffff163373ffffffffffffffffffffffffffffffffffffffff1614151561429657600080fd5b600b60008273ffffffffffffffffffffffffffffffffffffffff1673ffffffffffffffffffffffffffffffffffffffff16815260200190815260200160002060000160009054906101000a900460ff161515156142f257600080fd5b6001600b60008373ffffffffffffffffffffffffffffffffffffffff1673ffffffffffffffffffffffffffffffffffffffff16815260200190815260200160002060000160006101000a81548160ff021916908315150217905550600a8054806001018281614361919061555c565b9160005260206000209001600083909190916101000a81548173ffffffffffffffffffffffffffffffffffffffff021916908373ffffffffffffffffffffffffffffffffffffffff160217905550506000600d5414156143d157600c80548091906001016143cf9190615588565b505b6001600c8054905003600b60008373ffffffffffffffffffffffffffffffffffffffff1673ffffffffffffffffffffffffffffffffffffffff16815260200190815260200160002060010181905550600d54600b60008373ffffffffffffffffffffffffffffffffffffffff1673ffffffffffffffffffffffffffffffffffffffff16815260200190815260200160002060020181905550600e6001600d540181151561447a57fe5b06600d8190555061448a81614c85565b61449381614cfb565b50565b600080600080600080600b60008873ffffffffffffffffffffffffffffffffffffffff1673ffffffffffffffffffffffffffffffffffffffff16815260200190815260200160002060000160009054906101000a900460ff1615156144fa57600080fd5b600b60008873ffffffffffffffffffffffffffffffffffffffff1673ffffffffffffffffffffffffffffffffffffffff168152602001908152602001600020600101549150600b60008873ffffffffffffffffffffffffffffffffffffffff1673ffffffffffffffffffffffffffffffffffffffff16815260200190815260200160002060020154905081816145ac600c8581548110151561459857fe5b9060005260206000209001548a6001614840565b7f0100000000000000000000000000000000000000000000000000000000000000026145f4600c868154811015156145e057fe5b9060005260206000209001548b6000614840565b7f010000000000000000000000000000000000000000000000000000000000000002955095509550955050509193509193565b6000806000600660008573ffffffffffffffffffffffffffffffffffffffff1673ffffffffffffffffffffffffffffffffffffffff16815260200190815260200160002060000154600660008673ffffffffffffffffffffffffffffffffffffffff1673ffffffffffffffffffffffffffffffffffffffff16815260200190815260200160002060010154600660008773ffffffffffffffffffffffffffffffffffffffff1673ffffffffffffffffffffffffffffffffffffffff168152602001908152602001600020600201549250925092509193909250565b6000809054906101000a900473ffffffffffffffffffffffffffffffffffffffff1681565b600080620f4240670de0b6b3a764000002841115151561474657600080fd5b7fffffffffffffffffffffffffffffffffffffffffffffffffffffffffffffd8f0831215151561477557600080fd5b64174876e800831315151561478957600080fd5b612710905080838201850281151561479d57fe5b0491505092915050565b6000600e60080260020a600e60080260020a0282600190048115156147c857fe5b049050919050565b6000806000600660008773ffffffffffffffffffffffffffffffffffffffff1673ffffffffffffffffffffffffffffffffffffffff168152602001908152602001600020600001549050614825868686614e5b565b80935081945050508083029250808202915050935093915050565b6000806000600b60008673ffffffffffffffffffffffffffffffffffffffff1673ffffffffffffffffffffffffffffffffffffffff168152602001908152602001600020600201549150831561489e5781600e6020030190506148a5565b8160040190505b85816020811015156148b357fe5b1a7f0100000000000000000000000000000000000000000000000000000000000000027f01000000000000000000000000000000000000000000000000000000000000009004925050509392505050565b600080600061491286614f82565b915060129050614924858284876150b9565b925050509392505050565b60008060008460200151519150600090505b8181101561499d5784600001518181518110151561495b57fe5b90602001906020020151841315156149905784602001518181518110151561497f57fe5b9060200190602002015192506149bf565b8080600101915050614941565b8460200151600183038151811015156149b257fe5b9060200190602002015192505b505092915050565b6000600660008373ffffffffffffffffffffffffffffffffffffffff1673ffffffffffffffffffffffffffffffffffffffff168152602001908152602001600020600201549050919050565b600080821215614a4757817fffffffffffffffffffffffffffffffffffffffffffffffffffffffffffffffff029050614a4b565b8190505b919050565b6000600660008373ffffffffffffffffffffffffffffffffffffffff1673ffffffffffffffffffffffffffffffffffffffff168152602001908152602001600020600101549050919050565b6000806000614aa96155b4565b6000600586811515614ab757fe5b069450600660008a73ffffffffffffffffffffffffffffffffffffffff1673ffffffffffffffffffffffffffffffffffffffff1681526020019081526020016000206000015488811515614b0757fe5b05935060009250614b67600760008b73ffffffffffffffffffffffffffffffffffffffff1673ffffffffffffffffffffffffffffffffffffffff16815260200190815260200160002060008781526020019081526020016000205461516b565b91508582602001511415614bdf578682606001511415614ba6578382600001818151019150818152505083826040018181510191508181525050614bda565b614bb189888861523b565b925083830182604001818152505083826000018181510191508181525050868260600181815250505b614c1d565b614bea898888614e5b565b80925081945050508382600001818152505085826020018181525050868260600181815250508383018260400181815250505b614c26826152ff565b600760008b73ffffffffffffffffffffffffffffffffffffffff1673ffffffffffffffffffffffffffffffffffffffff168152602001908152602001600020600087815260200190815260200160002081905550505050505050505050565b60008090505b6005811015614cf7576001600760008473ffffffffffffffffffffffffffffffffffffffff1673ffffffffffffffffffffffffffffffffffffffff1681526020019081526020016000206000838152602001908152602001600020819055508080600101915050614c8b565b5050565b73eeeeeeeeeeeeeeeeeeeeeeeeeeeeeeeeeeeeeeee73ffffffffffffffffffffffffffffffffffffffff168173ffffffffffffffffffffffffffffffffffffffff161415614d8d576012600860008373ffffffffffffffffffffffffffffffffffffffff1673ffffffffffffffffffffffffffffffffffffffff16815260200190815260200160002081905550614e58565b8073ffffffffffffffffffffffffffffffffffffffff1663313ce5676000604051602001526040518163ffffffff167c0100000000000000000000000000000000000000000000000000000000028152600401602060405180830381600087803b1515614df957600080fd5b6102c65a03f11515614e0a57600080fd5b50505060405180519050600860008373ffffffffffffffffffffffffffffffffffffffff1673ffffffffffffffffffffffffffffffffffffffff168152602001908152602001600020819055505b50565b6000806000806000806000614e6e6155b4565b60009750600096506000955060009450899350889250600091505b6005821015614f6757614eeb600760008d73ffffffffffffffffffffffffffffffffffffffff1673ffffffffffffffffffffffffffffffffffffffff16815260200190815260200160002060008481526020019081526020016000205461516b565b905082816020015111158015614f05575083816020015110155b15614f14578060000151850194505b898160600151141515614f2657614f5a565b8581602001511015614f3757614f5a565b80602001519550806040015197508881602001511415614f5957806000015196505b5b8180600101925050614e89565b6000881415614f74578497505b505050505050935093915050565b60008073eeeeeeeeeeeeeeeeeeeeeeeeeeeeeeeeeeeeeeee73ffffffffffffffffffffffffffffffffffffffff168373ffffffffffffffffffffffffffffffffffffffff161415614fd657601291506150b3565b600860008473ffffffffffffffffffffffffffffffffffffffff1673ffffffffffffffffffffffffffffffffffffffff16815260200190815260200160002054905060008114156150af578273ffffffffffffffffffffffffffffffffffffffff1663313ce5676000604051602001526040518163ffffffff167c0100000000000000000000000000000000000000000000000000000000028152600401602060405180830381600087803b151561508d57600080fd5b6102c65a03f1151561509e57600080fd5b5050506040518051905091506150b3565b8091505b50919050565b60006b204fce5e3e2502611000000085111515156150d657600080fd5b620f4240670de0b6b3a76400000282111515156150f257600080fd5b83831015156151315760128484031115151561510d57600080fd5b670de0b6b3a7640000848403600a0a8387020281151561512957fe5b049050615163565b60128385031115151561514357600080fd5b828403600a0a670de0b6b3a76400000282860281151561515f57fe5b0490505b949350505050565b6151736155b4565b61517b6155b4565b60016801000000000000000003831660070b8160000181815250506001680100000000000000000368010000000000000000848115156151b757fe5b041667ffffffffffffffff1681602001818152505060016801000000000000000003680100000000000000008002848115156151ef57fe5b041660070b81604001818152505068010000000000000000806801000000000000000002028381151561521e57fe5b0467ffffffffffffffff1681606001818152505080915050919050565b6000806152466155b4565b83851115151561525557600080fd5b60009250600091505b60058210156152f6576152c0600760008873ffffffffffffffffffffffffffffffffffffffff1673ffffffffffffffffffffffffffffffffffffffff16815260200190815260200160002060008481526020019081526020016000205461516b565b9050838160200151111580156152da575084816020015110155b156152e9578060000151830192505b818060010192505061525e565b50509392505050565b60008060026801000000000000000081151561531757fe5b04836000015112151561532957600080fd5b6002680100000000000000007fffffffffffffffffffffffffffffffffffffffffffffffffffffffffffffffff0281151561536057fe5b05836000015113151561537257600080fd5b68010000000000000000836020015110151561538d57600080fd5b6002680100000000000000008115156153a257fe5b0483604001511215156153b457600080fd5b6002680100000000000000007fffffffffffffffffffffffffffffffffffffffffffffffffffffffffffffffff028115156153eb57fe5b0583604001511315156153fd57600080fd5b68010000000000000000836060015110151561541857600080fd5b600168010000000000000000038360000151169050680100000000000000008360200151028117905068010000000000000000806001680100000000000000000385604001511602028117905068010000000000000000806801000000000000000085606001510202028117905080915050919050565b8154818355818115116154b6578183600052602060002091820191016154b591906155dd565b5b505050565b602060405190810160405280600081525090565b602060405190810160405280600081525090565b81548183558181151161550a5781836000526020600020918201910161550991906155dd565b5b505050565b82805482825590600052602060002090810192821561554b579160200282015b8281111561554a57825182559160200191906001019061552f565b5b5090506155589190615602565b5090565b8154818355818115116155835781836000526020600020918201910161558291906155dd565b5b505050565b8154818355818115116155af578183600052602060002091820191016155ae9190615627565b5b505050565b608060405190810160405280600081526020016000815260200160008152602001600081525090565b6155ff91905b808211156155fb5760008160009055506001016155e3565b5090565b90565b61562491905b80821115615620576000816000905550600101615608565b5090565b90565b61564991905b8082111561564557600081600090555060010161562d565b5090565b905600a165627a7a72305820817156efff75c77476fb9d2e9ba718dd5b58101003a5d2c2a3a876a7989d5b350029",
  "source": "pragma solidity ^0.4.18;\n\n\nimport \"../ConversionRates.sol\";\n\ncontract MockConversionRate is ConversionRates {\n    function MockConversionRate(address admin) ConversionRates(admin) public {\n\n    }\n\n    function mockGetImbalance(ERC20 token, uint rateUpdateBlock, uint currentBlock) public view\n        returns(int totalImbalance, int currentBlockImbalance)\n    {\n        (totalImbalance, currentBlockImbalance) = getImbalance(token, rateUpdateBlock, currentBlock);\n//        return(totalImbalance, currentBlockImbalance);\n    }\n\n    function mockGetMaxTotalImbalance(ERC20 token) public view returns(uint) {\n        return getMaxTotalImbalance(token);\n    }\n\n    function getUpdateRateBlockFromCompact (ERC20 token) public view returns(uint updateRateBlock) {\n        // get rate update block\n        bytes32 compactData = tokenRatesCompactData[tokenData[token].compactDataArrayIndex];\n        updateRateBlock = getLast4Bytes(compactData);\n    }\n\n    function mockAddBps(uint rate, int bps) public pure returns(uint) {\n        return addBps(rate, bps);\n    }\n}\n",
  "sourcePath": "/Users/oscarr/Ethereum/frappe/contracts/mockContracts/MockConversionRate.sol",
  "compiler": {
    "name": "solc",
    "version": "0.4.18+commit.9cf6e910.Emscripten.clang"
  },
  "schemaVersion": "3.0.6",
  "updatedAt": "2019-05-18T17:14:13.189Z",
  "devdoc": {
    "methods": {
      "claimAdmin()": {
        "details": "Allows the pendingAdmin address to finalize the change admin process."
      },
      "transferAdmin(address)": {
        "details": "Allows the current admin to set the pendingAdmin address.",
        "params": {
          "newAdmin": "The address to transfer ownership to."
        }
      },
      "transferAdminQuickly(address)": {
        "details": "Allows the current admin to set the admin in one tx. Useful initial deployment.",
        "params": {
          "newAdmin": "The address to transfer ownership to."
        }
      },
      "withdrawEther(uint256,address)": {
        "details": "Withdraw Ethers"
      },
      "withdrawToken(address,uint256,address)": {
        "details": "Withdraw all ERC20 compatible tokens",
        "params": {
          "token": "ERC20 The address of the token contract"
        }
      }
    }
  },
  "userdoc": {
    "methods": {}
  }
}