{
  "contractName": "OrderList",
  "abi": [
    {
      "constant": false,
      "inputs": [
        {
          "name": "alerter",
          "type": "address"
        }
      ],
      "name": "removeAlerter",
      "outputs": [],
      "payable": false,
      "stateMutability": "nonpayable",
      "type": "function"
    },
    {
      "constant": true,
      "inputs": [],
      "name": "pendingAdmin",
      "outputs": [
        {
          "name": "",
          "type": "address"
        }
      ],
      "payable": false,
      "stateMutability": "view",
      "type": "function"
    },
    {
      "constant": true,
      "inputs": [],
      "name": "getOperators",
      "outputs": [
        {
          "name": "",
          "type": "address[]"
        }
      ],
      "payable": false,
      "stateMutability": "view",
      "type": "function"
    },
    {
      "constant": true,
      "inputs": [],
      "name": "UPDATE_MOVE_ORDER",
      "outputs": [
        {
          "name": "",
          "type": "uint256"
        }
      ],
      "payable": false,
      "stateMutability": "view",
      "type": "function"
    },
    {
      "constant": false,
      "inputs": [
        {
          "name": "newAlerter",
          "type": "address"
        }
      ],
      "name": "addAlerter",
      "outputs": [],
      "payable": false,
      "stateMutability": "nonpayable",
      "type": "function"
    },
    {
      "constant": true,
      "inputs": [
        {
          "name": "",
          "type": "uint32"
        }
      ],
      "name": "orders",
      "outputs": [
        {
          "name": "maker",
          "type": "address"
        },
        {
          "name": "prevId",
          "type": "uint32"
        },
        {
          "name": "nextId",
          "type": "uint32"
        },
        {
          "name": "srcAmount",
          "type": "uint128"
        },
        {
          "name": "dstAmount",
          "type": "uint128"
        }
      ],
      "payable": false,
      "stateMutability": "view",
      "type": "function"
    },
    {
      "constant": false,
      "inputs": [
        {
          "name": "newAdmin",
          "type": "address"
        }
      ],
      "name": "transferAdmin",
      "outputs": [],
      "payable": false,
      "stateMutability": "nonpayable",
      "type": "function"
    },
    {
      "constant": false,
      "inputs": [],
      "name": "claimAdmin",
      "outputs": [],
      "payable": false,
      "stateMutability": "nonpayable",
      "type": "function"
    },
    {
      "constant": false,
      "inputs": [
        {
          "name": "newAdmin",
          "type": "address"
        }
      ],
      "name": "transferAdminQuickly",
      "outputs": [],
      "payable": false,
      "stateMutability": "nonpayable",
      "type": "function"
    },
    {
      "constant": true,
      "inputs": [],
      "name": "getAlerters",
      "outputs": [
        {
          "name": "",
          "type": "address[]"
        }
      ],
      "payable": false,
      "stateMutability": "view",
      "type": "function"
    },
    {
      "constant": false,
      "inputs": [
        {
          "name": "newOperator",
          "type": "address"
        }
      ],
      "name": "addOperator",
      "outputs": [],
      "payable": false,
      "stateMutability": "nonpayable",
      "type": "function"
    },
    {
      "constant": false,
      "inputs": [
        {
          "name": "operator",
          "type": "address"
        }
      ],
      "name": "removeOperator",
      "outputs": [],
      "payable": false,
      "stateMutability": "nonpayable",
      "type": "function"
    },
    {
      "constant": true,
      "inputs": [],
      "name": "nextFreeId",
      "outputs": [
        {
          "name": "",
          "type": "uint32"
        }
      ],
      "payable": false,
      "stateMutability": "view",
      "type": "function"
    },
    {
      "constant": true,
      "inputs": [],
      "name": "HEAD_ID",
      "outputs": [
        {
          "name": "",
          "type": "uint32"
        }
      ],
      "payable": false,
      "stateMutability": "view",
      "type": "function"
    },
    {
      "constant": true,
      "inputs": [],
      "name": "UPDATE_FAILED",
      "outputs": [
        {
          "name": "",
          "type": "uint256"
        }
      ],
      "payable": false,
      "stateMutability": "view",
      "type": "function"
    },
    {
      "constant": true,
      "inputs": [],
      "name": "UPDATE_ONLY_AMOUNTS",
      "outputs": [
        {
          "name": "",
          "type": "uint256"
        }
      ],
      "payable": false,
      "stateMutability": "view",
      "type": "function"
    },
    {
      "constant": true,
      "inputs": [],
      "name": "TAIL_ID",
      "outputs": [
        {
          "name": "",
          "type": "uint32"
        }
      ],
      "payable": false,
      "stateMutability": "view",
      "type": "function"
    },
    {
      "constant": true,
      "inputs": [],
      "name": "admin",
      "outputs": [
        {
          "name": "",
          "type": "address"
        }
      ],
      "payable": false,
      "stateMutability": "view",
      "type": "function"
    },
    {
      "inputs": [
        {
          "name": "_admin",
          "type": "address"
        }
      ],
      "payable": false,
      "stateMutability": "nonpayable",
      "type": "constructor"
    },
    {
      "anonymous": false,
      "inputs": [
        {
          "indexed": false,
          "name": "pendingAdmin",
          "type": "address"
        }
      ],
      "name": "TransferAdminPending",
      "type": "event"
    },
    {
      "anonymous": false,
      "inputs": [
        {
          "indexed": false,
          "name": "newAdmin",
          "type": "address"
        },
        {
          "indexed": false,
          "name": "previousAdmin",
          "type": "address"
        }
      ],
      "name": "AdminClaimed",
      "type": "event"
    },
    {
      "anonymous": false,
      "inputs": [
        {
          "indexed": false,
          "name": "newAlerter",
          "type": "address"
        },
        {
          "indexed": false,
          "name": "isAdd",
          "type": "bool"
        }
      ],
      "name": "AlerterAdded",
      "type": "event"
    },
    {
      "anonymous": false,
      "inputs": [
        {
          "indexed": false,
          "name": "newOperator",
          "type": "address"
        },
        {
          "indexed": false,
          "name": "isAdd",
          "type": "bool"
        }
      ],
      "name": "OperatorAdded",
      "type": "event"
    },
    {
      "constant": true,
      "inputs": [
        {
          "name": "orderId",
          "type": "uint32"
        }
      ],
      "name": "getOrderDetails",
      "outputs": [
        {
          "name": "maker",
          "type": "address"
        },
        {
          "name": "srcAmount",
          "type": "uint128"
        },
        {
          "name": "dstAmount",
          "type": "uint128"
        },
        {
          "name": "prevId",
          "type": "uint32"
        },
        {
          "name": "nextId",
          "type": "uint32"
        }
      ],
      "payable": false,
      "stateMutability": "view",
      "type": "function"
    },
    {
      "constant": false,
      "inputs": [
        {
          "name": "maker",
          "type": "address"
        },
        {
          "name": "orderId",
          "type": "uint32"
        },
        {
          "name": "srcAmount",
          "type": "uint128"
        },
        {
          "name": "dstAmount",
          "type": "uint128"
        }
      ],
      "name": "add",
      "outputs": [
        {
          "name": "",
          "type": "bool"
        }
      ],
      "payable": false,
      "stateMutability": "nonpayable",
      "type": "function"
    },
    {
      "constant": false,
      "inputs": [
        {
          "name": "maker",
          "type": "address"
        },
        {
          "name": "orderId",
          "type": "uint32"
        },
        {
          "name": "srcAmount",
          "type": "uint128"
        },
        {
          "name": "dstAmount",
          "type": "uint128"
        },
        {
          "name": "prevId",
          "type": "uint32"
        }
      ],
      "name": "addAfterId",
      "outputs": [
        {
          "name": "",
          "type": "bool"
        }
      ],
      "payable": false,
      "stateMutability": "nonpayable",
      "type": "function"
    },
    {
      "constant": false,
      "inputs": [
        {
          "name": "orderId",
          "type": "uint32"
        }
      ],
      "name": "remove",
      "outputs": [
        {
          "name": "",
          "type": "bool"
        }
      ],
      "payable": false,
      "stateMutability": "nonpayable",
      "type": "function"
    },
    {
      "constant": false,
      "inputs": [
        {
          "name": "orderId",
          "type": "uint32"
        },
        {
          "name": "srcAmount",
          "type": "uint128"
        },
        {
          "name": "dstAmount",
          "type": "uint128"
        }
      ],
      "name": "update",
      "outputs": [
        {
          "name": "",
          "type": "bool"
        }
      ],
      "payable": false,
      "stateMutability": "nonpayable",
      "type": "function"
    },
    {
      "constant": false,
      "inputs": [
        {
          "name": "orderId",
          "type": "uint32"
        },
        {
          "name": "updatedSrcAmount",
          "type": "uint128"
        },
        {
          "name": "updatedDstAmount",
          "type": "uint128"
        },
        {
          "name": "updatedPrevId",
          "type": "uint32"
        }
      ],
      "name": "updateWithPositionHint",
      "outputs": [
        {
          "name": "",
          "type": "bool"
        },
        {
          "name": "",
          "type": "uint256"
        }
      ],
      "payable": false,
      "stateMutability": "nonpayable",
      "type": "function"
    },
    {
      "constant": false,
      "inputs": [
        {
          "name": "howMany",
          "type": "uint32"
        }
      ],
      "name": "allocateIds",
      "outputs": [
        {
          "name": "",
          "type": "uint32"
        }
      ],
      "payable": false,
      "stateMutability": "nonpayable",
      "type": "function"
    },
    {
      "constant": true,
      "inputs": [
        {
          "name": "srcAmount1",
          "type": "uint128"
        },
        {
          "name": "dstAmount1",
          "type": "uint128"
        },
        {
          "name": "srcAmount2",
          "type": "uint128"
        },
        {
          "name": "dstAmount2",
          "type": "uint128"
        }
      ],
      "name": "compareOrders",
      "outputs": [
        {
          "name": "",
          "type": "int256"
        }
      ],
      "payable": false,
      "stateMutability": "pure",
      "type": "function"
    },
    {
      "constant": true,
      "inputs": [
        {
          "name": "srcAmount",
          "type": "uint128"
        },
        {
          "name": "dstAmount",
          "type": "uint128"
        }
      ],
      "name": "findPrevOrderId",
      "outputs": [
        {
          "name": "",
          "type": "uint32"
        }
      ],
      "payable": false,
      "stateMutability": "view",
      "type": "function"
    },
    {
      "constant": true,
      "inputs": [],
      "name": "getFirstOrder",
      "outputs": [
        {
          "name": "orderId",
          "type": "uint32"
        },
        {
          "name": "isEmpty",
          "type": "bool"
        }
      ],
      "payable": false,
      "stateMutability": "view",
      "type": "function"
    }
  ],
  "bytecode": "0x60606040526003600760006101000a81548163ffffffff021916908363ffffffff160217905550341561003157600080fd5b60405160208061308c83398101604052808051906020019091905050336000806101000a81548173ffffffffffffffffffffffffffffffffffffffff021916908373ffffffffffffffffffffffffffffffffffffffff160217905550600073ffffffffffffffffffffffffffffffffffffffff168173ffffffffffffffffffffffffffffffffffffffff16141515156100c957600080fd5b806000806101000a81548173ffffffffffffffffffffffffffffffffffffffff021916908373ffffffffffffffffffffffffffffffffffffffff160217905550600060066000600263ffffffff1663ffffffff16815260200190815260200160002060000160006101000a81548173ffffffffffffffffffffffffffffffffffffffff021916908373ffffffffffffffffffffffffffffffffffffffff160217905550600060066000600263ffffffff1663ffffffff16815260200190815260200160002060000160146101000a81548163ffffffff021916908363ffffffff160217905550600160066000600263ffffffff1663ffffffff16815260200190815260200160002060000160186101000a81548163ffffffff021916908363ffffffff160217905550600060066000600263ffffffff1663ffffffff16815260200190815260200160002060010160006101000a8154816fffffffffffffffffffffffffffffffff02191690836fffffffffffffffffffffffffffffffff160217905550600060066000600263ffffffff1663ffffffff16815260200190815260200160002060010160106101000a8154816fffffffffffffffffffffffffffffffff02191690836fffffffffffffffffffffffffffffffff16021790555050612dd4806102b86000396000f300606060405260043610610169576000357c0100000000000000000000000000000000000000000000000000000000900463ffffffff168062d84fd81461016e57806301a12fd3146101af5780631f38c358146101e8578063244c96a11461023157806326782247146102cb57806327a099d814610320578063374ab1c61461038a578063408ee7fe146103b357806361592b85146103ec578063689f1532146104d157806375829def146105b657806377f50f97146105ef5780637acc8678146106045780637c423f541461063d57806385fcb4a8146106a75780639870d7fe14610717578063a3fb591714610750578063a590529e14610790578063a5da0bf51461081d578063ac8a584a146108c2578063b39c4718146108fb578063b7b2c52514610930578063c41c6d5614610965578063c70ad4a31461098e578063c92ba8b2146109b7578063cb2f7b8714610a4d578063d11dfdec14610ac4578063f851a44014610af9575b600080fd5b341561017957600080fd5b610195600480803563ffffffff16906020019091905050610b4e565b604051808215151515815260200191505060405180910390f35b34156101ba57600080fd5b6101e6600480803573ffffffffffffffffffffffffffffffffffffffff16906020019091905050610cfa565b005b34156101f357600080fd5b61020f600480803563ffffffff16906020019091905050610fbc565b604051808263ffffffff1663ffffffff16815260200191505060405180910390f35b341561023c57600080fd5b6102b560048080356fffffffffffffffffffffffffffffffff169060200190919080356fffffffffffffffffffffffffffffffff169060200190919080356fffffffffffffffffffffffffffffffff169060200190919080356fffffffffffffffffffffffffffffffff169060200190919050506110af565b6040518082815260200191505060405180910390f35b34156102d657600080fd5b6102de611165565b604051808273ffffffffffffffffffffffffffffffffffffffff1673ffffffffffffffffffffffffffffffffffffffff16815260200191505060405180910390f35b341561032b57600080fd5b61033361118b565b6040518080602001828103825283818151815260200191508051906020019060200280838360005b8381101561037657808201518184015260208101905061035b565b505050509050019250505060405180910390f35b341561039557600080fd5b61039d61121f565b6040518082815260200191505060405180910390f35b34156103be57600080fd5b6103ea600480803573ffffffffffffffffffffffffffffffffffffffff16906020019091905050611224565b005b34156103f757600080fd5b610413600480803563ffffffff1690602001909190505061141a565b604051808673ffffffffffffffffffffffffffffffffffffffff1673ffffffffffffffffffffffffffffffffffffffff168152602001856fffffffffffffffffffffffffffffffff166fffffffffffffffffffffffffffffffff168152602001846fffffffffffffffffffffffffffffffff166fffffffffffffffffffffffffffffffff1681526020018363ffffffff1663ffffffff1681526020018263ffffffff1663ffffffff1681526020019550505050505060405180910390f35b34156104dc57600080fd5b6104f8600480803563ffffffff169060200190919050506114e9565b604051808673ffffffffffffffffffffffffffffffffffffffff1673ffffffffffffffffffffffffffffffffffffffff1681526020018563ffffffff1663ffffffff1681526020018463ffffffff1663ffffffff168152602001836fffffffffffffffffffffffffffffffff166fffffffffffffffffffffffffffffffff168152602001826fffffffffffffffffffffffffffffffff166fffffffffffffffffffffffffffffffff1681526020019550505050505060405180910390f35b34156105c157600080fd5b6105ed600480803573ffffffffffffffffffffffffffffffffffffffff16906020019091905050611597565b005b34156105fa57600080fd5b6106026116f7565b005b341561060f57600080fd5b61063b600480803573ffffffffffffffffffffffffffffffffffffffff169060200190919050506118d3565b005b341561064857600080fd5b610650611ac8565b6040518080602001828103825283818151815260200191508051906020019060200280838360005b83811015610693578082015181840152602081019050610678565b505050509050019250505060405180910390f35b34156106b257600080fd5b6106f560048080356fffffffffffffffffffffffffffffffff169060200190919080356fffffffffffffffffffffffffffffffff16906020019091905050611b5c565b604051808263ffffffff1663ffffffff16815260200191505060405180910390f35b341561072257600080fd5b61074e600480803573ffffffffffffffffffffffffffffffffffffffff16906020019091905050611c6f565b005b341561075b57600080fd5b610763611e65565b604051808363ffffffff1663ffffffff168152602001821515151581526020019250505060405180910390f35b341561079b57600080fd5b6107fc600480803563ffffffff169060200190919080356fffffffffffffffffffffffffffffffff169060200190919080356fffffffffffffffffffffffffffffffff1690602001909190803563ffffffff16906020019091905050611ee7565b60405180831515151581526020018281526020019250505060405180910390f35b341561082857600080fd5b6108a8600480803573ffffffffffffffffffffffffffffffffffffffff1690602001909190803563ffffffff169060200190919080356fffffffffffffffffffffffffffffffff169060200190919080356fffffffffffffffffffffffffffffffff1690602001909190803563ffffffff169060200190919050506121d3565b604051808215151515815260200191505060405180910390f35b34156108cd57600080fd5b6108f9600480803573ffffffffffffffffffffffffffffffffffffffff1690602001909190505061229b565b005b341561090657600080fd5b61090e612560565b604051808263ffffffff1663ffffffff16815260200191505060405180910390f35b341561093b57600080fd5b610943612576565b604051808263ffffffff1663ffffffff16815260200191505060405180910390f35b341561097057600080fd5b61097861257b565b6040518082815260200191505060405180910390f35b341561099957600080fd5b6109a1612580565b6040518082815260200191505060405180910390f35b34156109c257600080fd5b610a33600480803573ffffffffffffffffffffffffffffffffffffffff1690602001909190803563ffffffff169060200190919080356fffffffffffffffffffffffffffffffff169060200190919080356fffffffffffffffffffffffffffffffff16906020019091905050612585565b604051808215151515815260200191505060405180910390f35b3415610a5857600080fd5b610aaa600480803563ffffffff169060200190919080356fffffffffffffffffffffffffffffffff169060200190919080356fffffffffffffffffffffffffffffffff1690602001909190505061264f565b604051808215151515815260200191505060405180910390f35b3415610acf57600080fd5b610ad7612729565b604051808263ffffffff1663ffffffff16815260200191505060405180910390f35b3415610b0457600080fd5b610b0c61272e565b604051808273ffffffffffffffffffffffffffffffffffffffff1673ffffffffffffffffffffffffffffffffffffffff16815260200191505060405180910390f35b6000806000809054906101000a900473ffffffffffffffffffffffffffffffffffffffff1673ffffffffffffffffffffffffffffffffffffffff163373ffffffffffffffffffffffffffffffffffffffff16141515610bac57600080fd5b610bb583612753565b600660008463ffffffff1663ffffffff16815260200190815260200160002090508060000160189054906101000a900463ffffffff16600660008360000160149054906101000a900463ffffffff1663ffffffff1663ffffffff16815260200190815260200160002060000160186101000a81548163ffffffff021916908363ffffffff1602179055508060000160149054906101000a900463ffffffff16600660008360000160189054906101000a900463ffffffff1663ffffffff1663ffffffff16815260200190815260200160002060000160146101000a81548163ffffffff021916908363ffffffff16021790555060018160000160146101000a81548163ffffffff021916908363ffffffff16021790555060028160000160186101000a81548163ffffffff021916908363ffffffff1602179055506001915050919050565b60008060009054906101000a900473ffffffffffffffffffffffffffffffffffffffff1673ffffffffffffffffffffffffffffffffffffffff163373ffffffffffffffffffffffffffffffffffffffff16141515610d5757600080fd5b600360008373ffffffffffffffffffffffffffffffffffffffff1673ffffffffffffffffffffffffffffffffffffffff16815260200190815260200160002060009054906101000a900460ff161515610daf57600080fd5b6000600360008473ffffffffffffffffffffffffffffffffffffffff1673ffffffffffffffffffffffffffffffffffffffff16815260200190815260200160002060006101000a81548160ff021916908315150217905550600090505b600580549050811015610fb8578173ffffffffffffffffffffffffffffffffffffffff16600582815481101515610e3f57fe5b906000526020600020900160009054906101000a900473ffffffffffffffffffffffffffffffffffffffff1673ffffffffffffffffffffffffffffffffffffffff161415610fad576005600160058054905003815481101515610e9e57fe5b906000526020600020900160009054906101000a900473ffffffffffffffffffffffffffffffffffffffff16600582815481101515610ed957fe5b906000526020600020900160006101000a81548173ffffffffffffffffffffffffffffffffffffffff021916908373ffffffffffffffffffffffffffffffffffffffff1602179055506005805480919060019003610f379190612d17565b507f5611bf3e417d124f97bf2c788843ea8bb502b66079fbee02158ef30b172cb762826000604051808373ffffffffffffffffffffffffffffffffffffffff1673ffffffffffffffffffffffffffffffffffffffff168152602001821515151581526020019250505060405180910390a1610fb8565b806001019050610e0c565b5050565b6000806000809054906101000a900473ffffffffffffffffffffffffffffffffffffffff1673ffffffffffffffffffffffffffffffffffffffff163373ffffffffffffffffffffffffffffffffffffffff1614151561101a57600080fd5b600760009054906101000a900463ffffffff169050600760009054906101000a900463ffffffff1663ffffffff1683600760009054906101000a900463ffffffff160163ffffffff161015151561107057600080fd5b82600760008282829054906101000a900463ffffffff160192506101000a81548163ffffffff021916908363ffffffff16021790555080915050919050565b6000806000806000886fffffffffffffffffffffffffffffffff169350876fffffffffffffffffffffffffffffffff169250866fffffffffffffffffffffffffffffffff169150856fffffffffffffffffffffffffffffffff169050808402838302101561113f577fffffffffffffffffffffffffffffffffffffffffffffffffffffffffffffffff9450611159565b80840283830211156111545760019450611159565b600094505b50505050949350505050565b600160009054906101000a900473ffffffffffffffffffffffffffffffffffffffff1681565b611193612d43565b600480548060200260200160405190810160405280929190818152602001828054801561121557602002820191906000526020600020905b8160009054906101000a900473ffffffffffffffffffffffffffffffffffffffff1673ffffffffffffffffffffffffffffffffffffffff16815260200190600101908083116111cb575b5050505050905090565b600181565b6000809054906101000a900473ffffffffffffffffffffffffffffffffffffffff1673ffffffffffffffffffffffffffffffffffffffff163373ffffffffffffffffffffffffffffffffffffffff1614151561127f57600080fd5b600360008273ffffffffffffffffffffffffffffffffffffffff1673ffffffffffffffffffffffffffffffffffffffff16815260200190815260200160002060009054906101000a900460ff161515156112d857600080fd5b60326005805490501015156112ec57600080fd5b7f5611bf3e417d124f97bf2c788843ea8bb502b66079fbee02158ef30b172cb762816001604051808373ffffffffffffffffffffffffffffffffffffffff1673ffffffffffffffffffffffffffffffffffffffff168152602001821515151581526020019250505060405180910390a16001600360008373ffffffffffffffffffffffffffffffffffffffff1673ffffffffffffffffffffffffffffffffffffffff16815260200190815260200160002060006101000a81548160ff021916908315150217905550600580548060010182816113c89190612d57565b9160005260206000209001600083909190916101000a81548173ffffffffffffffffffffffffffffffffffffffff021916908373ffffffffffffffffffffffffffffffffffffffff1602179055505050565b600080600080600080600660008863ffffffff1663ffffffff16815260200190815260200160002090508060000160009054906101000a900473ffffffffffffffffffffffffffffffffffffffff1695508060010160009054906101000a90046fffffffffffffffffffffffffffffffff1694508060010160109054906101000a90046fffffffffffffffffffffffffffffffff1693508060000160149054906101000a900463ffffffff1692508060000160189054906101000a900463ffffffff1691505091939590929450565b60066020528060005260406000206000915090508060000160009054906101000a900473ffffffffffffffffffffffffffffffffffffffff16908060000160149054906101000a900463ffffffff16908060000160189054906101000a900463ffffffff16908060010160009054906101000a90046fffffffffffffffffffffffffffffffff16908060010160109054906101000a90046fffffffffffffffffffffffffffffffff16905085565b6000809054906101000a900473ffffffffffffffffffffffffffffffffffffffff1673ffffffffffffffffffffffffffffffffffffffff163373ffffffffffffffffffffffffffffffffffffffff161415156115f257600080fd5b600073ffffffffffffffffffffffffffffffffffffffff168173ffffffffffffffffffffffffffffffffffffffff161415151561162e57600080fd5b7f3b81caf78fa51ecbc8acb482fd7012a277b428d9b80f9d156e8a54107496cc40600160009054906101000a900473ffffffffffffffffffffffffffffffffffffffff16604051808273ffffffffffffffffffffffffffffffffffffffff1673ffffffffffffffffffffffffffffffffffffffff16815260200191505060405180910390a180600160006101000a81548173ffffffffffffffffffffffffffffffffffffffff021916908373ffffffffffffffffffffffffffffffffffffffff16021790555050565b3373ffffffffffffffffffffffffffffffffffffffff16600160009054906101000a900473ffffffffffffffffffffffffffffffffffffffff1673ffffffffffffffffffffffffffffffffffffffff1614151561175357600080fd5b7f65da1cfc2c2e81576ad96afb24a581f8e109b7a403b35cbd3243a1c99efdb9ed600160009054906101000a900473ffffffffffffffffffffffffffffffffffffffff166000809054906101000a900473ffffffffffffffffffffffffffffffffffffffff16604051808373ffffffffffffffffffffffffffffffffffffffff1673ffffffffffffffffffffffffffffffffffffffff1681526020018273ffffffffffffffffffffffffffffffffffffffff1673ffffffffffffffffffffffffffffffffffffffff1681526020019250505060405180910390a1600160009054906101000a900473ffffffffffffffffffffffffffffffffffffffff166000806101000a81548173ffffffffffffffffffffffffffffffffffffffff021916908373ffffffffffffffffffffffffffffffffffffffff1602179055506000600160006101000a81548173ffffffffffffffffffffffffffffffffffffffff021916908373ffffffffffffffffffffffffffffffffffffffff160217905550565b6000809054906101000a900473ffffffffffffffffffffffffffffffffffffffff1673ffffffffffffffffffffffffffffffffffffffff163373ffffffffffffffffffffffffffffffffffffffff1614151561192e57600080fd5b600073ffffffffffffffffffffffffffffffffffffffff168173ffffffffffffffffffffffffffffffffffffffff161415151561196a57600080fd5b7f3b81caf78fa51ecbc8acb482fd7012a277b428d9b80f9d156e8a54107496cc4081604051808273ffffffffffffffffffffffffffffffffffffffff1673ffffffffffffffffffffffffffffffffffffffff16815260200191505060405180910390a17f65da1cfc2c2e81576ad96afb24a581f8e109b7a403b35cbd3243a1c99efdb9ed816000809054906101000a900473ffffffffffffffffffffffffffffffffffffffff16604051808373ffffffffffffffffffffffffffffffffffffffff1673ffffffffffffffffffffffffffffffffffffffff1681526020018273ffffffffffffffffffffffffffffffffffffffff1673ffffffffffffffffffffffffffffffffffffffff1681526020019250505060405180910390a1806000806101000a81548173ffffffffffffffffffffffffffffffffffffffff021916908373ffffffffffffffffffffffffffffffffffffffff16021790555050565b611ad0612d43565b6005805480602002602001604051908101604052809291908181526020018280548015611b5257602002820191906000526020600020905b8160009054906101000a900473ffffffffffffffffffffffffffffffffffffffff1673ffffffffffffffffffffffffffffffffffffffff1681526020019060010190808311611b08575b5050505050905090565b60008060008060029250600660008463ffffffff1663ffffffff16815260200190815260200160002091505b600163ffffffff168260000160189054906101000a900463ffffffff1663ffffffff16141515611c62578160000160189054906101000a900463ffffffff169250600660008463ffffffff1663ffffffff1681526020019081526020016000209150611c3686868460010160009054906101000a90046fffffffffffffffffffffffffffffffff168560010160109054906101000a90046fffffffffffffffffffffffffffffffff166110af565b90506000811215611c5d578160000160149054906101000a900463ffffffff169350611c66565b611b88565b8293505b50505092915050565b6000809054906101000a900473ffffffffffffffffffffffffffffffffffffffff1673ffffffffffffffffffffffffffffffffffffffff163373ffffffffffffffffffffffffffffffffffffffff16141515611cca57600080fd5b600260008273ffffffffffffffffffffffffffffffffffffffff1673ffffffffffffffffffffffffffffffffffffffff16815260200190815260200160002060009054906101000a900460ff16151515611d2357600080fd5b6032600480549050101515611d3757600080fd5b7f091a7a4b85135fdd7e8dbc18b12fabe5cc191ea867aa3c2e1a24a102af61d58b816001604051808373ffffffffffffffffffffffffffffffffffffffff1673ffffffffffffffffffffffffffffffffffffffff168152602001821515151581526020019250505060405180910390a16001600260008373ffffffffffffffffffffffffffffffffffffffff1673ffffffffffffffffffffffffffffffffffffffff16815260200190815260200160002060006101000a81548160ff02191690831515021790555060048054806001018281611e139190612d57565b9160005260206000209001600083909190916101000a81548173ffffffffffffffffffffffffffffffffffffffff021916908373ffffffffffffffffffffffffffffffffffffffff1602179055505050565b60008060066000600263ffffffff1663ffffffff16815260200190815260200160002060000160189054906101000a900463ffffffff16600163ffffffff1660066000600263ffffffff1663ffffffff16815260200190815260200160002060000160189054906101000a900463ffffffff1663ffffffff1614915091509091565b6000806000806000809054906101000a900473ffffffffffffffffffffffffffffffffffffffff1673ffffffffffffffffffffffffffffffffffffffff163373ffffffffffffffffffffffffffffffffffffffff16141515611f4857600080fd5b60008863ffffffff1614158015611f6c5750600263ffffffff168863ffffffff1614155b8015611f855750600163ffffffff168863ffffffff1614155b1515611f9057600080fd5b8463ffffffff168863ffffffff1614151515611fab57600080fd5b8463ffffffff16600660008a63ffffffff1663ffffffff16815260200190815260200160002060000160149054906101000a900463ffffffff1663ffffffff1614156120fb57600660008963ffffffff1663ffffffff16815260200190815260200160002060000160189054906101000a900463ffffffff1691506120328787878561286c565b156120f65786600660008a63ffffffff1663ffffffff16815260200190815260200160002060010160006101000a8154816fffffffffffffffffffffffffffffffff02191690836fffffffffffffffffffffffffffffffff16021790555085600660008a63ffffffff1663ffffffff16815260200190815260200160002060010160106101000a8154816fffffffffffffffffffffffffffffffff02191690836fffffffffffffffffffffffffffffffff16021790555060016000935093506121c8565b6121bf565b600660008663ffffffff1663ffffffff16815260200190815260200160002060000160189054906101000a900463ffffffff16915061213c8787878561286c565b156121be57600660008963ffffffff1663ffffffff16815260200190815260200160002060000160009054906101000a900473ffffffffffffffffffffffffffffffffffffffff16905061218f88610b4e565b151561219a57600080fd5b6121a78189898989612aa7565b15156121b257600080fd5b600180935093506121c8565b5b60006002935093505b505094509492505050565b6000806000809054906101000a900473ffffffffffffffffffffffffffffffffffffffff1673ffffffffffffffffffffffffffffffffffffffff163373ffffffffffffffffffffffffffffffffffffffff1614151561223157600080fd5b600660008463ffffffff1663ffffffff16815260200190815260200160002060000160189054906101000a900463ffffffff1690506122728585858461286c565b15156122815760009150612291565b61228e8787878787612aa7565b91505b5095945050505050565b60008060009054906101000a900473ffffffffffffffffffffffffffffffffffffffff1673ffffffffffffffffffffffffffffffffffffffff163373ffffffffffffffffffffffffffffffffffffffff161415156122f857600080fd5b600260008373ffffffffffffffffffffffffffffffffffffffff1673ffffffffffffffffffffffffffffffffffffffff16815260200190815260200160002060009054906101000a900460ff16151561235057600080fd5b6000600260008473ffffffffffffffffffffffffffffffffffffffff1673ffffffffffffffffffffffffffffffffffffffff16815260200190815260200160002060006101000a81548160ff021916908315150217905550600090505b60048054905081101561255c578173ffffffffffffffffffffffffffffffffffffffff166004828154811015156123e057fe5b906000526020600020900160009054906101000a900473ffffffffffffffffffffffffffffffffffffffff1673ffffffffffffffffffffffffffffffffffffffff16141561255157600460016004805490500381548110151561243f57fe5b906000526020600020900160009054906101000a900473ffffffffffffffffffffffffffffffffffffffff1660048281548110151561247a57fe5b906000526020600020900160006101000a81548173ffffffffffffffffffffffffffffffffffffffff021916908373ffffffffffffffffffffffffffffffffffffffff16021790555060016004818180549050039150816124db9190612d17565b507f091a7a4b85135fdd7e8dbc18b12fabe5cc191ea867aa3c2e1a24a102af61d58b826000604051808373ffffffffffffffffffffffffffffffffffffffff1673ffffffffffffffffffffffffffffffffffffffff168152602001821515151581526020019250505060405180910390a161255c565b8060010190506123ad565b5050565b600760009054906101000a900463ffffffff1681565b600281565b600281565b600081565b6000806000809054906101000a900473ffffffffffffffffffffffffffffffffffffffff1673ffffffffffffffffffffffffffffffffffffffff163373ffffffffffffffffffffffffffffffffffffffff161415156125e357600080fd5b60008563ffffffff16141580156126075750600263ffffffff168563ffffffff1614155b80156126205750600163ffffffff168563ffffffff1614155b151561262b57600080fd5b6126358484611b5c565b90506126448686868685612aa7565b915050949350505050565b6000806000809054906101000a900473ffffffffffffffffffffffffffffffffffffffff1673ffffffffffffffffffffffffffffffffffffffff163373ffffffffffffffffffffffffffffffffffffffff161415156126ad57600080fd5b600660008663ffffffff1663ffffffff16815260200190815260200160002060000160009054906101000a900473ffffffffffffffffffffffffffffffffffffffff1690506126fb85610b4e565b151561270657600080fd5b61271281868686612585565b151561271d57600080fd5b60019150509392505050565b600181565b6000809054906101000a900473ffffffffffffffffffffffffffffffffffffffff1681565b6000808263ffffffff16141580156127785750600263ffffffff168263ffffffff1614155b80156127915750600163ffffffff168263ffffffff1614155b151561279c57600080fd5b600660008363ffffffff1663ffffffff168152602001908152602001600020905060008160000160149054906101000a900463ffffffff1663ffffffff1614158015612803575060008160000160189054906101000a900463ffffffff1663ffffffff1614155b80156128305750600163ffffffff168160000160149054906101000a900463ffffffff1663ffffffff1614155b801561285d5750600263ffffffff168160000160189054906101000a900463ffffffff1663ffffffff1614155b151561286857600080fd5b5050565b600080600080600163ffffffff168663ffffffff1614806128995750600263ffffffff168563ffffffff16145b156128a75760009350612a9c565b600660008763ffffffff1663ffffffff1681526020019081526020016000209250600263ffffffff168663ffffffff161415801561297a575060008360000160149054906101000a900463ffffffff1663ffffffff161480612923575060008360000160189054906101000a900463ffffffff1663ffffffff16145b8061294e5750600163ffffffff168360000160149054906101000a900463ffffffff1663ffffffff16145b806129795750600263ffffffff168360000160189054906101000a900463ffffffff1663ffffffff16145b5b156129885760009350612a9c565b600263ffffffff168663ffffffff161415156129ff576129ea88888560010160009054906101000a90046fffffffffffffffffffffffffffffffff168660010160109054906101000a90046fffffffffffffffffffffffffffffffff166110af565b915060008212156129fe5760009350612a9c565b5b600163ffffffff168563ffffffff16141515612a9757600660008663ffffffff1663ffffffff1681526020019081526020016000209050612a8288888360010160009054906101000a90046fffffffffffffffffffffffffffffffff168460010160109054906101000a90046fffffffffffffffffffffffffffffffff166110af565b91506000821315612a965760009350612a9c565b5b600193505b505050949350505050565b6000806000600660008563ffffffff1663ffffffff168152602001908152602001600020915087600660008963ffffffff1663ffffffff16815260200190815260200160002060000160006101000a81548173ffffffffffffffffffffffffffffffffffffffff021916908373ffffffffffffffffffffffffffffffffffffffff16021790555083600660008963ffffffff1663ffffffff16815260200190815260200160002060000160146101000a81548163ffffffff021916908363ffffffff1602179055508160000160189054906101000a900463ffffffff16600660008963ffffffff1663ffffffff16815260200190815260200160002060000160186101000a81548163ffffffff021916908363ffffffff16021790555085600660008963ffffffff1663ffffffff16815260200190815260200160002060010160006101000a8154816fffffffffffffffffffffffffffffffff02191690836fffffffffffffffffffffffffffffffff16021790555084600660008963ffffffff1663ffffffff16815260200190815260200160002060010160106101000a8154816fffffffffffffffffffffffffffffffff02191690836fffffffffffffffffffffffffffffffff1602179055508160000160189054906101000a900463ffffffff169050600163ffffffff168163ffffffff16141515612ce55786600660008363ffffffff1663ffffffff16815260200190815260200160002060000160146101000a81548163ffffffff021916908363ffffffff1602179055505b868260000160186101000a81548163ffffffff021916908363ffffffff16021790555060019250505095945050505050565b815481835581811511612d3e57818360005260206000209182019101612d3d9190612d83565b5b505050565b602060405190810160405280600081525090565b815481835581811511612d7e57818360005260206000209182019101612d7d9190612d83565b5b505050565b612da591905b80821115612da1576000816000905550600101612d89565b5090565b905600a165627a7a723058207d80b1df3c3844830710f92651debb3e1039903708bd4b338e32940460fa69420029",
  "source": "pragma solidity 0.4.18;\n\n\nimport \"../PermissionGroups.sol\";\nimport \"./OrderListInterface.sol\";\n\n\ncontract OrderList is PermissionGroups, OrderListInterface {\n\n    struct Order {\n        address maker;\n        uint32 prevId;\n        uint32 nextId;\n        uint128 srcAmount;\n        uint128 dstAmount;\n    }\n\n    mapping (uint32 => Order) public orders;\n\n    // Results of calling updateWithPositionHint.\n    uint constant public UPDATE_ONLY_AMOUNTS = 0;\n    uint constant public UPDATE_MOVE_ORDER = 1;\n    uint constant public UPDATE_FAILED = 2;\n\n    uint32 constant public TAIL_ID = 1;\n    uint32 constant public HEAD_ID = 2;\n\n    uint32 public nextFreeId = 3;\n\n    function OrderList(address _admin) public {\n        require(_admin != address(0));\n\n        admin = _admin;\n\n        // Initializing a \"dummy\" order as HEAD.\n        orders[HEAD_ID].maker = 0;\n        orders[HEAD_ID].prevId = 0;\n        orders[HEAD_ID].nextId = TAIL_ID;\n        orders[HEAD_ID].srcAmount = 0;\n        orders[HEAD_ID].dstAmount = 0;\n    }\n\n    function getOrderDetails(uint32 orderId)\n        public\n        view\n        returns (\n            address maker,\n            uint128 srcAmount,\n            uint128 dstAmount,\n            uint32 prevId,\n            uint32 nextId\n        )\n    {\n        Order storage order = orders[orderId];\n\n        maker = order.maker;\n        srcAmount = order.srcAmount;\n        dstAmount = order.dstAmount;\n        prevId = order.prevId;\n        nextId = order.nextId;\n    }\n\n    function add(\n        address maker,\n        uint32 orderId,\n        uint128 srcAmount,\n        uint128 dstAmount\n    )\n        public\n        onlyAdmin\n        returns(bool)\n    {\n        require(orderId != 0 && orderId != HEAD_ID && orderId != TAIL_ID);\n\n        uint32 prevId = findPrevOrderId(srcAmount, dstAmount);\n        return addAfterValidId(maker, orderId, srcAmount, dstAmount, prevId);\n    }\n\n    // Returns false if provided with bad hint.\n    function addAfterId(\n        address maker,\n        uint32 orderId,\n        uint128 srcAmount,\n        uint128 dstAmount,\n        uint32 prevId\n    )\n        public\n        onlyAdmin\n        returns (bool)\n    {\n        uint32 nextId = orders[prevId].nextId;\n        if (!isRightPosition(srcAmount, dstAmount, prevId, nextId)) {\n            return false;\n        }\n        return addAfterValidId(maker, orderId, srcAmount, dstAmount, prevId);\n    }\n\n    function remove(uint32 orderId) public onlyAdmin returns (bool) {\n        verifyCanRemoveOrderById(orderId);\n\n        // Disconnect order from list\n        Order storage order = orders[orderId];\n        orders[order.prevId].nextId = order.nextId;\n        orders[order.nextId].prevId = order.prevId;\n\n        // Mark deleted order\n        order.prevId = TAIL_ID;\n        order.nextId = HEAD_ID;\n\n        return true;\n    }\n\n    function update(uint32 orderId, uint128 srcAmount, uint128 dstAmount)\n        public\n        onlyAdmin\n        returns(bool)\n    {\n        address maker = orders[orderId].maker;\n        require(remove(orderId));\n        require(add(maker, orderId, srcAmount, dstAmount));\n\n        return true;\n    }\n\n    // Returns false if provided with a bad hint.\n    function updateWithPositionHint(\n        uint32 orderId,\n        uint128 updatedSrcAmount,\n        uint128 updatedDstAmount,\n        uint32 updatedPrevId\n    )\n        public\n        onlyAdmin\n        returns (bool, uint)\n    {\n        require(orderId != 0 && orderId != HEAD_ID && orderId != TAIL_ID);\n\n        // Normal orders usually cannot serve as their own previous order.\n        // For further discussion see Heinlein's 'All You Zombies'.\n        require(orderId != updatedPrevId);\n\n        uint32 nextId;\n\n        // updatedPrevId is the intended prevId of the order, after updating its\n        // values.\n        // If it is the same as the current prevId of the order, the order does\n        // not need to change place in the list, only update its amounts.\n        if (orders[orderId].prevId == updatedPrevId) {\n            nextId = orders[orderId].nextId;\n            if (isRightPosition(\n                updatedSrcAmount,\n                updatedDstAmount,\n                updatedPrevId,\n                nextId)\n            ) {\n                orders[orderId].srcAmount = updatedSrcAmount;\n                orders[orderId].dstAmount = updatedDstAmount;\n                return (true, UPDATE_ONLY_AMOUNTS);\n            }\n        } else {\n            nextId = orders[updatedPrevId].nextId;\n            if (isRightPosition(\n                updatedSrcAmount,\n                updatedDstAmount,\n                updatedPrevId,\n                nextId)\n            ) {\n                // Let's move the order to the hinted position.\n                address maker = orders[orderId].maker;\n                require(remove(orderId));\n                require(\n                    addAfterValidId(\n                        maker,\n                        orderId,\n                        updatedSrcAmount,\n                        updatedDstAmount,\n                        updatedPrevId\n                    )\n                );\n                return (true, UPDATE_MOVE_ORDER);\n            }\n        }\n\n        // bad hint.\n        return (false, UPDATE_FAILED);\n    }\n\n    function allocateIds(uint32 howMany) public onlyAdmin returns(uint32) {\n        uint32 firstId = nextFreeId;\n        require(nextFreeId + howMany >= nextFreeId);\n        nextFreeId += howMany;\n        return firstId;\n    }\n\n    function compareOrders(\n        uint128 srcAmount1,\n        uint128 dstAmount1,\n        uint128 srcAmount2,\n        uint128 dstAmount2\n    )\n        public\n        pure\n        returns(int)\n    {\n        uint256 s1 = srcAmount1;\n        uint256 d1 = dstAmount1;\n        uint256 s2 = srcAmount2;\n        uint256 d2 = dstAmount2;\n\n        if (s2 * d1 < s1 * d2) return -1;\n        if (s2 * d1 > s1 * d2) return 1;\n        return 0;\n    }\n\n    function findPrevOrderId(uint128 srcAmount, uint128 dstAmount)\n        public\n        view\n        returns(uint32)\n    {\n        uint32 currId = HEAD_ID;\n        Order storage curr = orders[currId];\n\n        while (curr.nextId != TAIL_ID) {\n            currId = curr.nextId;\n            curr = orders[currId];\n            int cmp = compareOrders(\n                srcAmount,\n                dstAmount,\n                curr.srcAmount,\n                curr.dstAmount\n            );\n\n            if (cmp < 0) {\n                return curr.prevId;\n            }\n        }\n        return currId;\n    }\n\n    function getFirstOrder() public view returns(uint32 orderId, bool isEmpty) {\n        return (\n            orders[HEAD_ID].nextId,\n            orders[HEAD_ID].nextId == TAIL_ID\n        );\n    }\n\n    function addAfterValidId(\n        address maker,\n        uint32 orderId,\n        uint128 srcAmount,\n        uint128 dstAmount,\n        uint32 prevId\n    )\n        private\n        returns(bool)\n    {\n        Order storage prevOrder = orders[prevId];\n\n        // Add new order\n        orders[orderId].maker = maker;\n        orders[orderId].prevId = prevId;\n        orders[orderId].nextId = prevOrder.nextId;\n        orders[orderId].srcAmount = srcAmount;\n        orders[orderId].dstAmount = dstAmount;\n\n        // Update next order to point back to added order\n        uint32 nextOrderId = prevOrder.nextId;\n        if (nextOrderId != TAIL_ID) {\n            orders[nextOrderId].prevId = orderId;\n        }\n\n        // Update previous order to point to added order\n        prevOrder.nextId = orderId;\n\n        return true;\n    }\n\n    function verifyCanRemoveOrderById(uint32 orderId) private view {\n        require(orderId != 0 && orderId != HEAD_ID && orderId != TAIL_ID);\n\n        Order storage order = orders[orderId];\n\n        // Make sure this order actually in the list.\n        require(order.prevId != 0 && order.nextId != 0 && order.prevId != TAIL_ID && order.nextId != HEAD_ID);\n    }\n\n    function isRightPosition(\n        uint128 srcAmount,\n        uint128 dstAmount,\n        uint32 prevId,\n        uint32 nextId\n    )\n        private\n        view\n        returns (bool)\n    {\n        if (prevId == TAIL_ID || nextId == HEAD_ID) return false;\n\n        Order storage prev = orders[prevId];\n\n        // Make sure prev order is either HEAD or properly initialised.\n        if (prevId != HEAD_ID && (\n                prev.prevId == 0 ||\n                prev.nextId == 0 ||\n                prev.prevId == TAIL_ID ||\n                prev.nextId == HEAD_ID)) {\n            return false;\n        }\n\n        int cmp;\n        // Make sure that the new order should be after the provided prevId.\n        if (prevId != HEAD_ID) {\n            cmp = compareOrders(\n                srcAmount,\n                dstAmount,\n                prev.srcAmount,\n                prev.dstAmount\n            );\n            // new order is better than prev\n            if (cmp < 0) return false;\n        }\n\n        // Make sure that the new order should be before provided prevId's next order.\n        if (nextId != TAIL_ID) {\n            Order storage next = orders[nextId];\n            cmp = compareOrders(\n                srcAmount,\n                dstAmount,\n                next.srcAmount,\n                next.dstAmount\n            );\n            // new order is worse than next\n            if (cmp > 0) return false;\n        }\n\n        return true;\n    }\n}\n",
  "sourcePath": "/Users/oscarr/Ethereum/frappe/contracts/permissionless/OrderList.sol",
  "compiler": {
    "name": "solc",
    "version": "0.4.18+commit.9cf6e910.Emscripten.clang"
  },
  "schemaVersion": "3.0.6",
  "updatedAt": "2019-05-18T17:14:13.371Z",
  "devdoc": {
    "methods": {
      "claimAdmin()": {
        "details": "Allows the pendingAdmin address to finalize the change admin process."
      },
      "transferAdmin(address)": {
        "details": "Allows the current admin to set the pendingAdmin address.",
        "params": {
          "newAdmin": "The address to transfer ownership to."
        }
      },
      "transferAdminQuickly(address)": {
        "details": "Allows the current admin to set the admin in one tx. Useful initial deployment.",
        "params": {
          "newAdmin": "The address to transfer ownership to."
        }
      }
    }
  },
  "userdoc": {
    "methods": {}
  }
}