{
  "contractName": "OrderIdManager",
  "abi": [
    {
      "constant": true,
      "inputs": [],
      "name": "NUM_ORDERS",
      "outputs": [
        {
          "name": "",
          "type": "uint256"
        }
      ],
      "payable": false,
      "stateMutability": "view",
      "type": "function"
    }
  ],
  "bytecode": "0x60606040523415600e57600080fd5b609b8061001c6000396000f300606060405260043610603f576000357c0100000000000000000000000000000000000000000000000000000000900463ffffffff16806304068ae2146044575b600080fd5b3415604e57600080fd5b6054606a565b6040518082815260200191505060405180910390f35b6020815600a165627a7a72305820be2ff9a83fea3724eb66ffad79153280e991e84112262041dcb36bb4def0300b0029",
  "source": "pragma solidity 0.4.18;\n\n\ncontract OrderIdManager {\n    struct OrderIdData {\n        uint32 firstOrderId;\n        uint takenBitmap;\n    }\n\n    uint constant public NUM_ORDERS = 32;\n\n    function fetchNewOrderId(OrderIdData storage freeOrders)\n        internal\n        returns(uint32)\n    {\n        uint orderBitmap = freeOrders.takenBitmap;\n        uint bitPointer = 1;\n\n        for (uint i = 0; i < NUM_ORDERS; ++i) {\n\n            if ((orderBitmap & bitPointer) == 0) {\n                freeOrders.takenBitmap = orderBitmap | bitPointer;\n                return(uint32(uint(freeOrders.firstOrderId) + i));\n            }\n\n            bitPointer *= 2;\n        }\n\n        revert();\n    }\n\n    /// @dev mark order as free to use.\n    function releaseOrderId(OrderIdData storage freeOrders, uint32 orderId)\n        internal\n        returns(bool)\n    {\n        require(orderId >= freeOrders.firstOrderId);\n        require(orderId < (freeOrders.firstOrderId + NUM_ORDERS));\n\n        uint orderBitNum = uint(orderId) - uint(freeOrders.firstOrderId);\n        uint bitPointer = uint(1) << orderBitNum;\n\n        require(bitPointer & freeOrders.takenBitmap > 0);\n\n        freeOrders.takenBitmap &= ~bitPointer;\n        return true;\n    }\n\n    function allocateOrderIds(\n        OrderIdData storage makerOrders,\n        uint32 firstAllocatedId\n    )\n        internal\n        returns(bool)\n    {\n        if (makerOrders.firstOrderId > 0) {\n            return false;\n        }\n\n        makerOrders.firstOrderId = firstAllocatedId;\n        makerOrders.takenBitmap = 0;\n\n        return true;\n    }\n\n    function orderAllocationRequired(OrderIdData storage freeOrders) internal view returns (bool) {\n\n        if (freeOrders.firstOrderId == 0) return true;\n        return false;\n    }\n\n    function getNumActiveOrderIds(OrderIdData storage makerOrders) internal view returns (uint numActiveOrders) {\n        for (uint i = 0; i < NUM_ORDERS; ++i) {\n            if ((makerOrders.takenBitmap & (uint(1) << i)) > 0) numActiveOrders++;\n        }\n    }\n}\n",
  "sourcePath": "/Users/oscarr/Ethereum/frappe/contracts/permissionless/OrderIdManager.sol",
  "compiler": {
    "name": "solc",
    "version": "0.4.18+commit.9cf6e910.Emscripten.clang"
  },
  "schemaVersion": "3.0.6",
  "updatedAt": "2019-05-18T17:14:13.369Z",
  "devdoc": {
    "methods": {}
  },
  "userdoc": {
    "methods": {}
  }
}