{
  "contractName": "PermissionlessOrderbookReserveLister",
  "abi": [
    {
      "constant": true,
      "inputs": [
        {
          "name": "",
          "type": "address"
        }
      ],
      "name": "reserveListingStage",
      "outputs": [
        {
          "name": "",
          "type": "uint8"
        }
      ],
      "payable": false,
      "stateMutability": "view",
      "type": "function"
    },
    {
      "constant": true,
      "inputs": [],
      "name": "kyberNetworkContract",
      "outputs": [
        {
          "name": "",
          "type": "address"
        }
      ],
      "payable": false,
      "stateMutability": "view",
      "type": "function"
    },
    {
      "constant": true,
      "inputs": [],
      "name": "maxOrdersPerTrade",
      "outputs": [
        {
          "name": "",
          "type": "uint256"
        }
      ],
      "payable": false,
      "stateMutability": "view",
      "type": "function"
    },
    {
      "constant": true,
      "inputs": [],
      "name": "kncToken",
      "outputs": [
        {
          "name": "",
          "type": "address"
        }
      ],
      "payable": false,
      "stateMutability": "view",
      "type": "function"
    },
    {
      "constant": true,
      "inputs": [],
      "name": "orderFactoryContract",
      "outputs": [
        {
          "name": "",
          "type": "address"
        }
      ],
      "payable": false,
      "stateMutability": "view",
      "type": "function"
    },
    {
      "constant": true,
      "inputs": [],
      "name": "ORDERBOOK_BURN_FEE_BPS",
      "outputs": [
        {
          "name": "",
          "type": "uint256"
        }
      ],
      "payable": false,
      "stateMutability": "view",
      "type": "function"
    },
    {
      "constant": true,
      "inputs": [
        {
          "name": "",
          "type": "address"
        }
      ],
      "name": "reserves",
      "outputs": [
        {
          "name": "",
          "type": "address"
        }
      ],
      "payable": false,
      "stateMutability": "view",
      "type": "function"
    },
    {
      "constant": true,
      "inputs": [],
      "name": "minNewOrderValueUsd",
      "outputs": [
        {
          "name": "",
          "type": "uint256"
        }
      ],
      "payable": false,
      "stateMutability": "view",
      "type": "function"
    },
    {
      "constant": true,
      "inputs": [],
      "name": "medianizerContract",
      "outputs": [
        {
          "name": "",
          "type": "address"
        }
      ],
      "payable": false,
      "stateMutability": "view",
      "type": "function"
    },
    {
      "inputs": [
        {
          "name": "kyber",
          "type": "address"
        },
        {
          "name": "factory",
          "type": "address"
        },
        {
          "name": "medianizer",
          "type": "address"
        },
        {
          "name": "knc",
          "type": "address"
        },
        {
          "name": "unsupportedTokens",
          "type": "address[]"
        },
        {
          "name": "maxOrders",
          "type": "uint256"
        },
        {
          "name": "minOrderValueUsd",
          "type": "uint256"
        }
      ],
      "payable": false,
      "stateMutability": "nonpayable",
      "type": "constructor"
    },
    {
      "anonymous": false,
      "inputs": [
        {
          "indexed": false,
          "name": "token",
          "type": "address"
        },
        {
          "indexed": false,
          "name": "stage",
          "type": "uint8"
        }
      ],
      "name": "TokenOrderbookListingStage",
      "type": "event"
    },
    {
      "constant": false,
      "inputs": [
        {
          "name": "token",
          "type": "address"
        }
      ],
      "name": "addOrderbookContract",
      "outputs": [
        {
          "name": "",
          "type": "bool"
        }
      ],
      "payable": false,
      "stateMutability": "nonpayable",
      "type": "function"
    },
    {
      "constant": false,
      "inputs": [
        {
          "name": "token",
          "type": "address"
        }
      ],
      "name": "initOrderbookContract",
      "outputs": [
        {
          "name": "",
          "type": "bool"
        }
      ],
      "payable": false,
      "stateMutability": "nonpayable",
      "type": "function"
    },
    {
      "constant": false,
      "inputs": [
        {
          "name": "token",
          "type": "address"
        }
      ],
      "name": "listOrderbookContract",
      "outputs": [
        {
          "name": "",
          "type": "bool"
        }
      ],
      "payable": false,
      "stateMutability": "nonpayable",
      "type": "function"
    },
    {
      "constant": false,
      "inputs": [
        {
          "name": "token",
          "type": "address"
        },
        {
          "name": "hintReserveIndex",
          "type": "uint256"
        }
      ],
      "name": "unlistOrderbookContract",
      "outputs": [],
      "payable": false,
      "stateMutability": "nonpayable",
      "type": "function"
    },
    {
      "constant": true,
      "inputs": [
        {
          "name": "token",
          "type": "address"
        }
      ],
      "name": "getOrderbookListingStage",
      "outputs": [
        {
          "name": "",
          "type": "address"
        },
        {
          "name": "",
          "type": "uint8"
        }
      ],
      "payable": false,
      "stateMutability": "view",
      "type": "function"
    }
  ],
  "bytecode": "0x60606040526103e860005534156200001657600080fd5b60405162009cfb38038062009cfb8339810160405280805190602001909190805190602001909190805190602001909190805190602001909190805182019190602001805190602001909190805190602001909190505060008073ffffffffffffffffffffffffffffffffffffffff168873ffffffffffffffffffffffffffffffffffffffff1614151515620000ab57600080fd5b600073ffffffffffffffffffffffffffffffffffffffff168773ffffffffffffffffffffffffffffffffffffffff1614151515620000e857600080fd5b600073ffffffffffffffffffffffffffffffffffffffff168673ffffffffffffffffffffffffffffffffffffffff16141515156200012557600080fd5b600073ffffffffffffffffffffffffffffffffffffffff168573ffffffffffffffffffffffffffffffffffffffff16141515156200016257600080fd5b6001831115156200017257600080fd5b6000821115156200018257600080fd5b87600260006101000a81548173ffffffffffffffffffffffffffffffffffffffff021916908373ffffffffffffffffffffffffffffffffffffffff16021790555086600360006101000a81548173ffffffffffffffffffffffffffffffffffffffff021916908373ffffffffffffffffffffffffffffffffffffffff16021790555085600460006101000a81548173ffffffffffffffffffffffffffffffffffffffff021916908373ffffffffffffffffffffffffffffffffffffffff16021790555084600560006101000a81548173ffffffffffffffffffffffffffffffffffffffff021916908373ffffffffffffffffffffffffffffffffffffffff1602179055508260018190555081600081905550600090505b83518110156200037657600073ffffffffffffffffffffffffffffffffffffffff168482815181101515620002ca57fe5b9060200190602002015173ffffffffffffffffffffffffffffffffffffffff1614151515620002f857600080fd5b60016008600086848151811015156200030d57fe5b9060200190602002015173ffffffffffffffffffffffffffffffffffffffff1673ffffffffffffffffffffffffffffffffffffffff16815260200190815260200160002060006101000a81548160ff021916908315150217905550808060010191505062000299565b505050505050505061996d806200038e6000396000f300606060405260043610620000df576000357c0100000000000000000000000000000000000000000000000000000000900463ffffffff1680630f631c0714620000e45780631138f0d4146200014357806315365af514620001975780634f61ff8b14620001eb5780636f84f05c1462000243578063811c7fe2146200026f5780638fd37d9014620002c75780639d9bcdea146200030c578063a75f31bb1462000364578063c5d569c91462000390578063d66bd52414620003e4578063f11def681462000460578063f89d973c146200048c578063fa24d141146200051e575b600080fd5b3415620000f057600080fd5b6200011e600480803573ffffffffffffffffffffffffffffffffffffffff1690602001909190505062000576565b604051808260038111156200012f57fe5b60ff16815260200191505060405180910390f35b34156200014f57600080fd5b6200017d600480803573ffffffffffffffffffffffffffffffffffffffff1690602001909190505062000596565b604051808215151515815260200191505060405180910390f35b3415620001a357600080fd5b620001d1600480803573ffffffffffffffffffffffffffffffffffffffff1690602001909190505062000c4d565b604051808215151515815260200191505060405180910390f35b3415620001f757600080fd5b620002016200112a565b604051808273ffffffffffffffffffffffffffffffffffffffff1673ffffffffffffffffffffffffffffffffffffffff16815260200191505060405180910390f35b34156200024f57600080fd5b6200025962001150565b6040518082815260200191505060405180910390f35b34156200027b57600080fd5b6200028562001156565b604051808273ffffffffffffffffffffffffffffffffffffffff1673ffffffffffffffffffffffffffffffffffffffff16815260200191505060405180910390f35b3415620002d357600080fd5b6200030a600480803573ffffffffffffffffffffffffffffffffffffffff169060200190919080359060200190919050506200117c565b005b34156200031857600080fd5b6200032262001598565b604051808273ffffffffffffffffffffffffffffffffffffffff1673ffffffffffffffffffffffffffffffffffffffff16815260200191505060405180910390f35b34156200037057600080fd5b6200037a620015be565b6040518082815260200191505060405180910390f35b34156200039c57600080fd5b620003ca600480803573ffffffffffffffffffffffffffffffffffffffff16906020019091905050620015c3565b604051808215151515815260200191505060405180910390f35b3415620003f057600080fd5b6200041e600480803573ffffffffffffffffffffffffffffffffffffffff1690602001909190505062001813565b604051808273ffffffffffffffffffffffffffffffffffffffff1673ffffffffffffffffffffffffffffffffffffffff16815260200191505060405180910390f35b34156200046c57600080fd5b6200047662001846565b6040518082815260200191505060405180910390f35b34156200049857600080fd5b620004c6600480803573ffffffffffffffffffffffffffffffffffffffff169060200190919050506200184c565b604051808373ffffffffffffffffffffffffffffffffffffffff1673ffffffffffffffffffffffffffffffffffffffff1681526020018260038111156200050957fe5b60ff1681526020019250505060405180910390f35b34156200052a57600080fd5b6200053462001908565b604051808273ffffffffffffffffffffffffffffffffffffffff1673ffffffffffffffffffffffffffffffffffffffff16815260200191505060405180910390f35b60076020528060005260406000206000915054906101000a900460ff1681565b60008060026003811115620005a757fe5b600760008573ffffffffffffffffffffffffffffffffffffffff1673ffffffffffffffffffffffffffffffffffffffff16815260200190815260200160002060009054906101000a900460ff1660038111156200060057fe5b1415156200060d57600080fd5b600260009054906101000a900473ffffffffffffffffffffffffffffffffffffffff1673ffffffffffffffffffffffffffffffffffffffff1663a0d7bb1b600660008673ffffffffffffffffffffffffffffffffffffffff1673ffffffffffffffffffffffffffffffffffffffff16815260200190815260200160002060009054906101000a900473ffffffffffffffffffffffffffffffffffffffff1660016000604051602001526040518363ffffffff167c0100000000000000000000000000000000000000000000000000000000028152600401808373ffffffffffffffffffffffffffffffffffffffff1673ffffffffffffffffffffffffffffffffffffffff1681526020018215151515815260200192505050602060405180830381600087803b15156200073f57600080fd5b6102c65a03f115156200075157600080fd5b5050506040518051905015156200076757600080fd5b600260009054906101000a900473ffffffffffffffffffffffffffffffffffffffff1673ffffffffffffffffffffffffffffffffffffffff1663e02584bf600660008673ffffffffffffffffffffffffffffffffffffffff1673ffffffffffffffffffffffffffffffffffffffff16815260200190815260200160002060009054906101000a900473ffffffffffffffffffffffffffffffffffffffff168560018060016000604051602001526040518663ffffffff167c0100000000000000000000000000000000000000000000000000000000028152600401808673ffffffffffffffffffffffffffffffffffffffff1673ffffffffffffffffffffffffffffffffffffffff1681526020018573ffffffffffffffffffffffffffffffffffffffff1673ffffffffffffffffffffffffffffffffffffffff16815260200184151515158152602001831515151581526020018215151515815260200195505050505050602060405180830381600087803b1515620008e657600080fd5b6102c65a03f11515620008f857600080fd5b5050506040518051905015156200090e57600080fd5b600260009054906101000a900473ffffffffffffffffffffffffffffffffffffffff1673ffffffffffffffffffffffffffffffffffffffff1663579425b76000604051602001526040518163ffffffff167c0100000000000000000000000000000000000000000000000000000000028152600401602060405180830381600087803b15156200099d57600080fd5b6102c65a03f11515620009af57600080fd5b5050506040518051905090508073ffffffffffffffffffffffffffffffffffffffff166346b8c49e600660008673ffffffffffffffffffffffffffffffffffffffff1673ffffffffffffffffffffffffffffffffffffffff16815260200190815260200160002060009054906101000a900473ffffffffffffffffffffffffffffffffffffffff166019600660008873ffffffffffffffffffffffffffffffffffffffff1673ffffffffffffffffffffffffffffffffffffffff16815260200190815260200160002060009054906101000a900473ffffffffffffffffffffffffffffffffffffffff166040518463ffffffff167c0100000000000000000000000000000000000000000000000000000000028152600401808473ffffffffffffffffffffffffffffffffffffffff1673ffffffffffffffffffffffffffffffffffffffff1681526020018381526020018273ffffffffffffffffffffffffffffffffffffffff1673ffffffffffffffffffffffffffffffffffffffff1681526020019350505050600060405180830381600087803b151562000b5157600080fd5b6102c65a03f1151562000b6357600080fd5b5050506003600760008573ffffffffffffffffffffffffffffffffffffffff1673ffffffffffffffffffffffffffffffffffffffff16815260200190815260200160002060006101000a81548160ff0219169083600381111562000bc357fe5b02179055507fe12acf08fb18ff58234a202175353b298bbc088f0e3c0eab0986752c5701ce77836003604051808373ffffffffffffffffffffffffffffffffffffffff1673ffffffffffffffffffffffffffffffffffffffff16815260200182600381111562000c2f57fe5b60ff1681526020019250505060405180910390a16001915050919050565b600080600381111562000c5c57fe5b600760008473ffffffffffffffffffffffffffffffffffffffff1673ffffffffffffffffffffffffffffffffffffffff16815260200190815260200160002060009054906101000a900460ff16600381111562000cb557fe5b14151562000cc257600080fd5b600860008373ffffffffffffffffffffffffffffffffffffffff1673ffffffffffffffffffffffffffffffffffffffff16815260200190815260200160002060009054906101000a900460ff1615151562000d1c57600080fd5b600560009054906101000a900473ffffffffffffffffffffffffffffffffffffffff1682600260009054906101000a900473ffffffffffffffffffffffffffffffffffffffff1673ffffffffffffffffffffffffffffffffffffffff1663579425b76000604051602001526040518163ffffffff167c0100000000000000000000000000000000000000000000000000000000028152600401602060405180830381600087803b151562000dcf57600080fd5b6102c65a03f1151562000de157600080fd5b50505060405180519050600260009054906101000a900473ffffffffffffffffffffffffffffffffffffffff16600460009054906101000a900473ffffffffffffffffffffffffffffffffffffffff16600360009054906101000a900473ffffffffffffffffffffffffffffffffffffffff16600054600154601962000e666200192e565b808a73ffffffffffffffffffffffffffffffffffffffff1673ffffffffffffffffffffffffffffffffffffffff1681526020018973ffffffffffffffffffffffffffffffffffffffff1673ffffffffffffffffffffffffffffffffffffffff1681526020018873ffffffffffffffffffffffffffffffffffffffff1673ffffffffffffffffffffffffffffffffffffffff1681526020018773ffffffffffffffffffffffffffffffffffffffff1673ffffffffffffffffffffffffffffffffffffffff1681526020018673ffffffffffffffffffffffffffffffffffffffff1673ffffffffffffffffffffffffffffffffffffffff1681526020018573ffffffffffffffffffffffffffffffffffffffff1673ffffffffffffffffffffffffffffffffffffffff1681526020018481526020018381526020018281526020019950505050505050505050604051809103906000f080151562000fc757600080fd5b600660008473ffffffffffffffffffffffffffffffffffffffff1673ffffffffffffffffffffffffffffffffffffffff16815260200190815260200160002060006101000a81548173ffffffffffffffffffffffffffffffffffffffff021916908373ffffffffffffffffffffffffffffffffffffffff1602179055506001600760008473ffffffffffffffffffffffffffffffffffffffff1673ffffffffffffffffffffffffffffffffffffffff16815260200190815260200160002060006101000a81548160ff02191690836003811115620010a157fe5b02179055507fe12acf08fb18ff58234a202175353b298bbc088f0e3c0eab0986752c5701ce77826001604051808373ffffffffffffffffffffffffffffffffffffffff1673ffffffffffffffffffffffffffffffffffffffff1681526020018260038111156200110d57fe5b60ff1681526020019250505060405180910390a160019050919050565b600260009054906101000a900473ffffffffffffffffffffffffffffffffffffffff1681565b60015481565b600560009054906101000a900473ffffffffffffffffffffffffffffffffffffffff1681565b6003808111156200118957fe5b600760008473ffffffffffffffffffffffffffffffffffffffff1673ffffffffffffffffffffffffffffffffffffffff16815260200190815260200160002060009054906101000a900460ff166003811115620011e257fe5b141515620011ef57600080fd5b600660008373ffffffffffffffffffffffffffffffffffffffff1673ffffffffffffffffffffffffffffffffffffffff16815260200190815260200160002060009054906101000a900473ffffffffffffffffffffffffffffffffffffffff1673ffffffffffffffffffffffffffffffffffffffff1663e93485326000604051602001526040518163ffffffff167c0100000000000000000000000000000000000000000000000000000000028152600401602060405180830381600087803b1515620012bb57600080fd5b6102c65a03f11515620012cd57600080fd5b505050604051805190501515620012e357600080fd5b600260009054906101000a900473ffffffffffffffffffffffffffffffffffffffff1673ffffffffffffffffffffffffffffffffffffffff1663249715b3600660008573ffffffffffffffffffffffffffffffffffffffff1673ffffffffffffffffffffffffffffffffffffffff16815260200190815260200160002060009054906101000a900473ffffffffffffffffffffffffffffffffffffffff16836000604051602001526040518363ffffffff167c0100000000000000000000000000000000000000000000000000000000028152600401808373ffffffffffffffffffffffffffffffffffffffff1673ffffffffffffffffffffffffffffffffffffffff16815260200182815260200192505050602060405180830381600087803b15156200141057600080fd5b6102c65a03f115156200142257600080fd5b5050506040518051905015156200143857600080fd5b6000600760008473ffffffffffffffffffffffffffffffffffffffff1673ffffffffffffffffffffffffffffffffffffffff16815260200190815260200160002060006101000a81548160ff021916908360038111156200149557fe5b02179055506000600660008473ffffffffffffffffffffffffffffffffffffffff1673ffffffffffffffffffffffffffffffffffffffff16815260200190815260200160002060006101000a81548173ffffffffffffffffffffffffffffffffffffffff021916908373ffffffffffffffffffffffffffffffffffffffff1602179055507fe12acf08fb18ff58234a202175353b298bbc088f0e3c0eab0986752c5701ce77826000604051808373ffffffffffffffffffffffffffffffffffffffff1673ffffffffffffffffffffffffffffffffffffffff1681526020018260038111156200158057fe5b60ff1681526020019250505060405180910390a15050565b600360009054906101000a900473ffffffffffffffffffffffffffffffffffffffff1681565b601981565b600060016003811115620015d357fe5b600760008473ffffffffffffffffffffffffffffffffffffffff1673ffffffffffffffffffffffffffffffffffffffff16815260200190815260200160002060009054906101000a900460ff1660038111156200162c57fe5b1415156200163957600080fd5b600660008373ffffffffffffffffffffffffffffffffffffffff1673ffffffffffffffffffffffffffffffffffffffff16815260200190815260200160002060009054906101000a900473ffffffffffffffffffffffffffffffffffffffff1673ffffffffffffffffffffffffffffffffffffffff1663e1c7392a6000604051602001526040518163ffffffff167c0100000000000000000000000000000000000000000000000000000000028152600401602060405180830381600087803b15156200170557600080fd5b6102c65a03f115156200171757600080fd5b5050506040518051905015156200172d57600080fd5b6002600760008473ffffffffffffffffffffffffffffffffffffffff1673ffffffffffffffffffffffffffffffffffffffff16815260200190815260200160002060006101000a81548160ff021916908360038111156200178a57fe5b02179055507fe12acf08fb18ff58234a202175353b298bbc088f0e3c0eab0986752c5701ce77826002604051808373ffffffffffffffffffffffffffffffffffffffff1673ffffffffffffffffffffffffffffffffffffffff168152602001826003811115620017f657fe5b60ff1681526020019250505060405180910390a160019050919050565b60066020528060005260406000206000915054906101000a900473ffffffffffffffffffffffffffffffffffffffff1681565b60005481565b600080600660008473ffffffffffffffffffffffffffffffffffffffff1673ffffffffffffffffffffffffffffffffffffffff16815260200190815260200160002060009054906101000a900473ffffffffffffffffffffffffffffffffffffffff16600760008573ffffffffffffffffffffffffffffffffffffffff1673ffffffffffffffffffffffffffffffffffffffff16815260200190815260200160002060009054906101000a900460ff1681915091509150915091565b600460009054906101000a900473ffffffffffffffffffffffffffffffffffffffff1681565b6040516180028062001940833901905600606060405234156200001057600080fd5b604051610120806200800283398101604052808051906020019091908051906020019091908051906020019091908051906020019091908051906020019091908051906020019091908051906020019091908051906020019091908051906020019091905050600073ffffffffffffffffffffffffffffffffffffffff168973ffffffffffffffffffffffffffffffffffffffff1614151515620000b357600080fd5b600073ffffffffffffffffffffffffffffffffffffffff168873ffffffffffffffffffffffffffffffffffffffff1614151515620000f057600080fd5b600073ffffffffffffffffffffffffffffffffffffffff168773ffffffffffffffffffffffffffffffffffffffff16141515156200012d57600080fd5b600073ffffffffffffffffffffffffffffffffffffffff168673ffffffffffffffffffffffffffffffffffffffff16141515156200016a57600080fd5b600073ffffffffffffffffffffffffffffffffffffffff168573ffffffffffffffffffffffffffffffffffffffff1614151515620001a757600080fd5b600073ffffffffffffffffffffffffffffffffffffffff168473ffffffffffffffffffffffffffffffffffffffff1614151515620001e457600080fd5b60008114151515620001f557600080fd5b606481111515156200020657600080fd5b600082141515156200021757600080fd5b6000831115156200022757600080fd5b85600660030160006101000a81548173ffffffffffffffffffffffffffffffffffffffff021916908373ffffffffffffffffffffffffffffffffffffffff16021790555086600660020160006101000a81548173ffffffffffffffffffffffffffffffffffffffff021916908373ffffffffffffffffffffffffffffffffffffffff16021790555084600660040160006101000a81548173ffffffffffffffffffffffffffffffffffffffff021916908373ffffffffffffffffffffffffffffffffffffffff16021790555083600660050160006101000a81548173ffffffffffffffffffffffffffffffffffffffff021916908373ffffffffffffffffffffffffffffffffffffffff16021790555088600660000160006101000a81548173ffffffffffffffffffffffffffffffffffffffff021916908373ffffffffffffffffffffffffffffffffffffffff16021790555087600660010160006101000a81548173ffffffffffffffffffffffffffffffffffffffff021916908373ffffffffffffffffffffffffffffffffffffffff160217905550806011819055508260026000018190555081600260010181905550620003f8620006496401000000000262003d48176401000000009004565b15156200040457600080fd5b600660000160009054906101000a900473ffffffffffffffffffffffffffffffffffffffff1673ffffffffffffffffffffffffffffffffffffffff1663095ea7b3600660020160009054906101000a900473ffffffffffffffffffffffffffffffffffffffff167f80000000000000000000000000000000000000000000000000000000000000006000604051602001526040518363ffffffff167c0100000000000000000000000000000000000000000000000000000000028152600401808373ffffffffffffffffffffffffffffffffffffffff1673ffffffffffffffffffffffffffffffffffffffff16815260200182815260200192505050602060405180830381600087803b15156200051a57600080fd5b6102c65a03f115156200052c57600080fd5b5050506040518051905015156200054257600080fd5b62000586600660010160009054906101000a900473ffffffffffffffffffffffffffffffffffffffff16620007aa640100000000026200755c176401000000009004565b600660020160009054906101000a900473ffffffffffffffffffffffffffffffffffffffff1673ffffffffffffffffffffffffffffffffffffffff1663301254166000604051602001526040518163ffffffff167c0100000000000000000000000000000000000000000000000000000000028152600401602060405180830381600087803b15156200061857600080fd5b6102c65a03f115156200062a57600080fd5b505050604051805190506001819055505050505050505050506200090c565b6000806000806000600660040160009054906101000a900473ffffffffffffffffffffffffffffffffffffffff1673ffffffffffffffffffffffffffffffffffffffff166359e02dd76000604051604001526040518163ffffffff167c01000000000000000000000000000000000000000000000000000000000281526004016040805180830381600087803b1515620006e257600080fd5b6102c65a03f11515620006f457600080fd5b5050506040518051906020018051905080945081955050508215156200071957600080fd5b670de0b6b3a764000084600190048115156200073157fe5b049150600082141515156200074557600080fd5b620186a0821015156200075757600080fd5b8360019004670de0b6b3a76400008060026000015402028115156200077857fe5b049050806002800181905550600280600201548115156200079557fe5b04600260030181905550600194505050505090565b73eeeeeeeeeeeeeeeeeeeeeeeeeeeeeeeeeeeeeeee73ffffffffffffffffffffffffffffffffffffffff168173ffffffffffffffffffffffffffffffffffffffff1614156200083d5760126000808373ffffffffffffffffffffffffffffffffffffffff1673ffffffffffffffffffffffffffffffffffffffff1681526020019081526020016000208190555062000909565b8073ffffffffffffffffffffffffffffffffffffffff1663313ce5676000604051602001526040518163ffffffff167c0100000000000000000000000000000000000000000000000000000000028152600401602060405180830381600087803b1515620008aa57600080fd5b6102c65a03f11515620008bc57600080fd5b505050604051805190506000808373ffffffffffffffffffffffffffffffffffffffff1673ffffffffffffffffffffffffffffffffffffffff168152602001908152602001600020819055505b50565b6176e6806200091c6000396000f3006060604052600436106102b4576000357c0100000000000000000000000000000000000000000000000000000000900463ffffffff16806304068ae2146102b957806314fd6da0146102e2578063269fe82e146103595780632ac1db5a146103905780632b4d53031461040f57806330cbb66f1461045c578063338b5dea146104bc5780633b443e3b146104fe5780633bed33ce14610527578063411273d81461054a57806344909b74146105ba57806350baa622146105e357806350d91deb146106065780635280212114610778578063541e15b6146107a657806357df82e0146107cf5780635cd363251461082f5780635e310670146108b55780635ff46857146108f657806362bb75331461098457806362c5aecc146109ee578063685e7fc214610a5e578063690d986b14610a875780636c0f79b614610adc5780636c3aacf914610c305780636cf6981114610d15578063744fa2c814610db657806374d88c5014610e1e5780637a03b62414610e865780637cd4427214610eaf5780637f18b56914610f2d5780638108592c14610f4257806384d062b414610f79578063853717bb14610ff0578063860aefcf146110275780638b7d6b05146110655780638fb2fbe1146110b257806390f3dd331461113157806392418cf6146111b7578063971e668f146111da5780639d0d6473146112515780639ebbf231146112c85780639f7ba828146112f5578063a9055b8114611383578063abdde3d1146113d0578063b7b2c525146114b5578063ba6b0fa0146114ea578063bc1f71e114611537578063c01a3cd214611579578063c444214a146115e5578063d11dfdec1461160e578063d4fac45d14611643578063e1c7392a146116af578063e9348532146116dc578063f2e9135014611709578063f67e8db21461187b578063f719254d146118e5578063fe459fdf14611926575b600080fd5b34156102c457600080fd5b6102cc61197b565b6040518082815260200191505060405180910390f35b34156102ed57600080fd5b61033f60048080356fffffffffffffffffffffffffffffffff169060200190919080356fffffffffffffffffffffffffffffffff1690602001909190803563ffffffff16906020019091905050611980565b604051808215151515815260200191505060405180910390f35b341561036457600080fd5b61037a60048080359060200190919050506119e4565b6040518082815260200191505060405180910390f35b341561039b57600080fd5b6103ed600480803563ffffffff169060200190919080356fffffffffffffffffffffffffffffffff169060200190919080356fffffffffffffffffffffffffffffffff16906020019091905050611ab6565b604051808263ffffffff1663ffffffff16815260200191505060405180910390f35b341561041a57600080fd5b610446600480803573ffffffffffffffffffffffffffffffffffffffff16906020019091905050611cf8565b6040518082815260200191505060405180910390f35b341561046757600080fd5b610493600480803573ffffffffffffffffffffffffffffffffffffffff16906020019091905050611d10565b604051808363ffffffff1663ffffffff1681526020018281526020019250505060405180910390f35b34156104c757600080fd5b6104fc600480803573ffffffffffffffffffffffffffffffffffffffff16906020019091908035906020019091905050611d44565b005b341561050957600080fd5b610511611fc5565b6040518082815260200191505060405180910390f35b341561053257600080fd5b6105486004808035906020019091905050611fcb565b005b341561055557600080fd5b61059860048080356fffffffffffffffffffffffffffffffff169060200190919080356fffffffffffffffffffffffffffffffff16906020019091905050612156565b604051808263ffffffff1663ffffffff16815260200191505060405180910390f35b34156105c557600080fd5b6105cd612289565b6040518082815260200191505060405180910390f35b34156105ee57600080fd5b610604600480803590602001909190505061228e565b005b341561061157600080fd5b61075e600480803590602001908201803590602001908080602002602001604051908101604052809392919081815260200183836020028082843782019150505050505091908035906020019082018035906020019080806020026020016040519081016040528093929190818152602001838360200280828437820191505050505050919080359060200190820180359060200190808060200260200160405190810160405280939291908181526020018383602002808284378201915050505050509190803590602001908201803590602001908080602002602001604051908101604052809392919081815260200183836020028082843782019150505050505091908035906020019082018035906020019080806020026020016040519081016040528093929190818152602001838360200280828437820191505050505050919050506124f1565b604051808215151515815260200191505060405180910390f35b6107a4600480803573ffffffffffffffffffffffffffffffffffffffff169060200190919050506126ae565b005b34156107b157600080fd5b6107b96127d9565b6040518082815260200191505060405180910390f35b34156107da57600080fd5b610806600480803573ffffffffffffffffffffffffffffffffffffffff169060200190919050506127de565b604051808363ffffffff1663ffffffff1681526020018281526020019250505060405180910390f35b341561083a57600080fd5b61089b600480803563ffffffff169060200190919080356fffffffffffffffffffffffffffffffff169060200190919080356fffffffffffffffffffffffffffffffff1690602001909190803563ffffffff16906020019091905050612812565b604051808215151515815260200191505060405180910390f35b34156108c057600080fd5b6108dc600480803563ffffffff16906020019091905050612839565b604051808215151515815260200191505060405180910390f35b341561090157600080fd5b61092d600480803573ffffffffffffffffffffffffffffffffffffffff1690602001909190505061285a565b6040518080602001828103825283818151815260200191508051906020019060200280838360005b83811015610970578082015181840152602081019050610955565b505050509050019250505060405180910390f35b341561098f57600080fd5b610997612960565b6040518080602001828103825283818151815260200191508051906020019060200280838360005b838110156109da5780820151818401526020810190506109bf565b505050509050019250505060405180910390f35b34156109f957600080fd5b610a3c60048080356fffffffffffffffffffffffffffffffff169060200190919080356fffffffffffffffffffffffffffffffff1690602001909190505061299e565b604051808263ffffffff1663ffffffff16815260200191505060405180910390f35b3415610a6957600080fd5b610a71612ad1565b6040518082815260200191505060405180910390f35b3415610a9257600080fd5b610a9a612ad8565b604051808273ffffffffffffffffffffffffffffffffffffffff1673ffffffffffffffffffffffffffffffffffffffff16815260200191505060405180910390f35b3415610ae757600080fd5b610aef612afe565b604051808773ffffffffffffffffffffffffffffffffffffffff1673ffffffffffffffffffffffffffffffffffffffff1681526020018673ffffffffffffffffffffffffffffffffffffffff1673ffffffffffffffffffffffffffffffffffffffff1681526020018573ffffffffffffffffffffffffffffffffffffffff1673ffffffffffffffffffffffffffffffffffffffff1681526020018473ffffffffffffffffffffffffffffffffffffffff1673ffffffffffffffffffffffffffffffffffffffff1681526020018373ffffffffffffffffffffffffffffffffffffffff1673ffffffffffffffffffffffffffffffffffffffff1681526020018273ffffffffffffffffffffffffffffffffffffffff1673ffffffffffffffffffffffffffffffffffffffff168152602001965050505050505060405180910390f35b3415610c3b57600080fd5b610c57600480803563ffffffff16906020019091905050612be8565b604051808673ffffffffffffffffffffffffffffffffffffffff1673ffffffffffffffffffffffffffffffffffffffff168152602001856fffffffffffffffffffffffffffffffff166fffffffffffffffffffffffffffffffff168152602001846fffffffffffffffffffffffffffffffff166fffffffffffffffffffffffffffffffff1681526020018363ffffffff1663ffffffff1681526020018263ffffffff1663ffffffff1681526020019550505050505060405180910390f35b610d9c600480803573ffffffffffffffffffffffffffffffffffffffff1690602001909190803590602001909190803573ffffffffffffffffffffffffffffffffffffffff1690602001909190803573ffffffffffffffffffffffffffffffffffffffff169060200190919080359060200190919080351515906020019091905050612cdb565b604051808215151515815260200191505060405180910390f35b3415610dc157600080fd5b610e0460048080356fffffffffffffffffffffffffffffffff169060200190919080356fffffffffffffffffffffffffffffffff16906020019091905050613266565b604051808215151515815260200191505060405180910390f35b3415610e2957600080fd5b610e6c60048080356fffffffffffffffffffffffffffffffff169060200190919080356fffffffffffffffffffffffffffffffff1690602001909190505061327c565b604051808215151515815260200191505060405180910390f35b3415610e9157600080fd5b610e99613292565b6040518082815260200191505060405180910390f35b3415610eba57600080fd5b610f17600480803573ffffffffffffffffffffffffffffffffffffffff1690602001909190803573ffffffffffffffffffffffffffffffffffffffff16906020019091908035906020019091908035906020019091905050613297565b6040518082815260200191505060405180910390f35b3415610f3857600080fd5b610f406136c3565b005b3415610f4d57600080fd5b610f636004808035906020019091905050613788565b6040518082815260200191505060405180910390f35b3415610f8457600080fd5b610fd6600480803563ffffffff169060200190919080356fffffffffffffffffffffffffffffffff169060200190919080356fffffffffffffffffffffffffffffffff1690602001909190505061379d565b604051808215151515815260200191505060405180910390f35b3415610ffb57600080fd5b61101160048080359060200190919050506137b5565b6040518082815260200191505060405180910390f35b341561103257600080fd5b61103a6137de565b6040518085815260200184815260200183815260200182815260200194505050505060405180910390f35b341561107057600080fd5b61109c600480803573ffffffffffffffffffffffffffffffffffffffff169060200190919050506137fc565b6040518082815260200191505060405180910390f35b34156110bd57600080fd5b61110f600480803563ffffffff169060200190919080356fffffffffffffffffffffffffffffffff169060200190919080356fffffffffffffffffffffffffffffffff169060200190919050506138a5565b604051808263ffffffff1663ffffffff16815260200191505060405180910390f35b341561113c57600080fd5b61119d600480803563ffffffff169060200190919080356fffffffffffffffffffffffffffffffff169060200190919080356fffffffffffffffffffffffffffffffff1690602001909190803563ffffffff16906020019091905050613ae7565b604051808215151515815260200191505060405180910390f35b34156111c257600080fd5b6111d86004808035906020019091905050613b0e565b005b34156111e557600080fd5b611237600480803563ffffffff169060200190919080356fffffffffffffffffffffffffffffffff169060200190919080356fffffffffffffffffffffffffffffffff16906020019091905050613cbf565b604051808215151515815260200191505060405180910390f35b341561125c57600080fd5b6112ae60048080356fffffffffffffffffffffffffffffffff169060200190919080356fffffffffffffffffffffffffffffffff1690602001909190803563ffffffff16906020019091905050613ce4565b604051808215151515815260200191505060405180910390f35b34156112d357600080fd5b6112db613d48565b604051808215151515815260200191505060405180910390f35b341561130057600080fd5b61132c600480803573ffffffffffffffffffffffffffffffffffffffff16906020019091905050613ea1565b6040518080602001828103825283818151815260200191508051906020019060200280838360005b8381101561136f578082015181840152602081019050611354565b505050509050019250505060405180910390f35b341561138e57600080fd5b6113ba600480803573ffffffffffffffffffffffffffffffffffffffff16906020019091905050613fa7565b6040518082815260200191505060405180910390f35b34156113db57600080fd5b6113f7600480803563ffffffff16906020019091905050613ff8565b604051808673ffffffffffffffffffffffffffffffffffffffff1673ffffffffffffffffffffffffffffffffffffffff168152602001856fffffffffffffffffffffffffffffffff166fffffffffffffffffffffffffffffffff168152602001846fffffffffffffffffffffffffffffffff166fffffffffffffffffffffffffffffffff1681526020018363ffffffff1663ffffffff1681526020018263ffffffff1663ffffffff1681526020019550505050505060405180910390f35b34156114c057600080fd5b6114c86140eb565b604051808263ffffffff1663ffffffff16815260200191505060405180910390f35b34156114f557600080fd5b611521600480803573ffffffffffffffffffffffffffffffffffffffff169060200190919050506140f0565b6040518082815260200191505060405180910390f35b341561154257600080fd5b611577600480803573ffffffffffffffffffffffffffffffffffffffff16906020019091908035906020019091905050614108565b005b341561158457600080fd5b6115cf600480803573ffffffffffffffffffffffffffffffffffffffff1690602001909190803573ffffffffffffffffffffffffffffffffffffffff169060200190919050506145e7565b6040518082815260200191505060405180910390f35b34156115f057600080fd5b6115f861460c565b6040518082815260200191505060405180910390f35b341561161957600080fd5b611621614612565b604051808263ffffffff1663ffffffff16815260200191505060405180910390f35b341561164e57600080fd5b611699600480803573ffffffffffffffffffffffffffffffffffffffff1690602001909190803573ffffffffffffffffffffffffffffffffffffffff16906020019091905050614617565b6040518082815260200191505060405180910390f35b34156116ba57600080fd5b6116c2614747565b604051808215151515815260200191505060405180910390f35b34156116e757600080fd5b6116ef614b09565b604051808215151515815260200191505060405180910390f35b341561171457600080fd5b61186160048080359060200190820180359060200190808060200260200160405190810160405280939291908181526020018383602002808284378201915050505050509190803590602001908201803590602001908080602002602001604051908101604052809392919081815260200183836020028082843782019150505050505091908035906020019082018035906020019080806020026020016040519081016040528093929190818152602001838360200280828437820191505050505050919080359060200190820180359060200190808060200260200160405190810160405280939291908181526020018383602002808284378201915050505050509190803590602001908201803590602001908080602002602001604051908101604052809392919081815260200183836020028082843782019150505050505091905050614bc3565b604051808215151515815260200191505060405180910390f35b341561188657600080fd5b61188e614cb8565b6040518080602001828103825283818151815260200191508051906020019060200280838360005b838110156118d15780820151818401526020810190506118b6565b505050509050019250505060405180910390f35b34156118f057600080fd5b61190c600480803563ffffffff16906020019091905050614cf6565b604051808215151515815260200191505060405180910390f35b341561193157600080fd5b611939614d17565b604051808273ffffffffffffffffffffffffffffffffffffffff1673ffffffffffffffffffffffffffffffffffffffff16815260200191505060405180910390f35b602081565b6000806119ca601360003373ffffffffffffffffffffffffffffffffffffffff1673ffffffffffffffffffffffffffffffffffffffff168152602001908152602001600020614d3d565b90506119da600182878787614db4565b9150509392505050565b6000670de0b6b3a764000061271002600660020160009054906101000a900473ffffffffffffffffffffffffffffffffffffffff1673ffffffffffffffffffffffffffffffffffffffff1663301254166000604051602001526040518163ffffffff167c0100000000000000000000000000000000000000000000000000000000028152600401602060405180830381600087803b1515611a8457600080fd5b6102c65a03f11515611a9557600080fd5b50505060405180519050601154840202811515611aae57fe5b049050919050565b60008060008060006002800154876fffffffffffffffffffffffffffffffff1610151515611ae357600080fd5b600d60009054906101000a900473ffffffffffffffffffffffffffffffffffffffff1673ffffffffffffffffffffffffffffffffffffffff166385fcb4a888886000604051602001526040518363ffffffff167c010000000000000000000000000000000000000000000000000000000002815260040180836fffffffffffffffffffffffffffffffff166fffffffffffffffffffffffffffffffff168152602001826fffffffffffffffffffffffffffffffff166fffffffffffffffffffffffffffffffff16815260200192505050602060405180830381600087803b1515611bcc57600080fd5b6102c65a03f11515611bdd57600080fd5b5050506040518051905093508763ffffffff168463ffffffff161415611cea57600d60009054906101000a900473ffffffffffffffffffffffffffffffffffffffff1673ffffffffffffffffffffffffffffffffffffffff166361592b8589600060405160a001526040518263ffffffff167c0100000000000000000000000000000000000000000000000000000000028152600401808263ffffffff1663ffffffff16815260200191505060a060405180830381600087803b1515611ca257600080fd5b6102c65a03f11515611cb357600080fd5b5050506040518051906020018051906020018051906020018051906020018051905080955081985082965083965084975050505050505b839450505050509392505050565b600f6020528060005260406000206000915090505481565b60126020528060005260406000206000915090508060000160009054906101000a900463ffffffff16908060010154905082565b600073ffffffffffffffffffffffffffffffffffffffff168273ffffffffffffffffffffffffffffffffffffffff1614151515611d8057600080fd5b6b204fce5e3e2502611000000081101515611d9a57600080fd5b600660010160009054906101000a900473ffffffffffffffffffffffffffffffffffffffff1673ffffffffffffffffffffffffffffffffffffffff166323b872dd3330846000604051602001526040518463ffffffff167c0100000000000000000000000000000000000000000000000000000000028152600401808473ffffffffffffffffffffffffffffffffffffffff1673ffffffffffffffffffffffffffffffffffffffff1681526020018373ffffffffffffffffffffffffffffffffffffffff1673ffffffffffffffffffffffffffffffffffffffff1681526020018281526020019350505050602060405180830381600087803b1515611e9e57600080fd5b6102c65a03f11515611eaf57600080fd5b505050604051805190501515611ec457600080fd5b80600e60008473ffffffffffffffffffffffffffffffffffffffff1673ffffffffffffffffffffffffffffffffffffffff1681526020019081526020016000206000600660010160009054906101000a900473ffffffffffffffffffffffffffffffffffffffff1673ffffffffffffffffffffffffffffffffffffffff1673ffffffffffffffffffffffffffffffffffffffff168152602001908152602001600020600082825401925050819055508173ffffffffffffffffffffffffffffffffffffffff167fbc7c8a4d8049a3f99a02f2a20640c206a2e4d3f2fa54fd20da9f01fda3620cda826040518082815260200191505060405180910390a25050565b60015481565b600080339150600e60008373ffffffffffffffffffffffffffffffffffffffff1673ffffffffffffffffffffffffffffffffffffffff168152602001908152602001600020600073eeeeeeeeeeeeeeeeeeeeeeeeeeeeeeeeeeeeeeee73ffffffffffffffffffffffffffffffffffffffff1673ffffffffffffffffffffffffffffffffffffffff16815260200190815260200160002054905082811015151561207357600080fd5b82600e60008473ffffffffffffffffffffffffffffffffffffffff1673ffffffffffffffffffffffffffffffffffffffff168152602001908152602001600020600073eeeeeeeeeeeeeeeeeeeeeeeeeeeeeeeeeeeeeeee73ffffffffffffffffffffffffffffffffffffffff1673ffffffffffffffffffffffffffffffffffffffff168152602001908152602001600020600082825403925050819055508173ffffffffffffffffffffffffffffffffffffffff166108fc849081150290604051600060405180830381858888f19350505050151561215157600080fd5b505050565b60006002800154826fffffffffffffffffffffffffffffffff161015151561217d57600080fd5b600c60009054906101000a900473ffffffffffffffffffffffffffffffffffffffff1673ffffffffffffffffffffffffffffffffffffffff166385fcb4a884846000604051602001526040518363ffffffff167c010000000000000000000000000000000000000000000000000000000002815260040180836fffffffffffffffffffffffffffffffff166fffffffffffffffffffffffffffffffff168152602001826fffffffffffffffffffffffffffffffff166fffffffffffffffffffffffffffffffff16815260200192505050602060405180830381600087803b151561226657600080fd5b6102c65a03f1151561227757600080fd5b50505060405180519050905092915050565b600581565b600080339150600e60008373ffffffffffffffffffffffffffffffffffffffff1673ffffffffffffffffffffffffffffffffffffffff1681526020019081526020016000206000600660010160009054906101000a900473ffffffffffffffffffffffffffffffffffffffff1673ffffffffffffffffffffffffffffffffffffffff1673ffffffffffffffffffffffffffffffffffffffff16815260200190815260200160002054905082811015151561234757600080fd5b82600e60008473ffffffffffffffffffffffffffffffffffffffff1673ffffffffffffffffffffffffffffffffffffffff1681526020019081526020016000206000600660010160009054906101000a900473ffffffffffffffffffffffffffffffffffffffff1673ffffffffffffffffffffffffffffffffffffffff1673ffffffffffffffffffffffffffffffffffffffff16815260200190815260200160002060008282540392505081905550600660010160009054906101000a900473ffffffffffffffffffffffffffffffffffffffff1673ffffffffffffffffffffffffffffffffffffffff1663a9059cbb83856000604051602001526040518363ffffffff167c0100000000000000000000000000000000000000000000000000000000028152600401808373ffffffffffffffffffffffffffffffffffffffff1673ffffffffffffffffffffffffffffffffffffffff16815260200182815260200192505050602060405180830381600087803b15156124c657600080fd5b6102c65a03f115156124d757600080fd5b5050506040518051905015156124ec57600080fd5b505050565b600080600080600086518a5114151561250957600080fd5b87518a5114151561251957600080fd5b88518a5114151561252957600080fd5b85518a5114151561253957600080fd5b33935060009150600090505b895181101561269d57858181518110151561255c57fe5b9060200190602002015161258757868181518110151561257857fe5b90602001906020020151612589565b815b92506126338a8281518110151561259c57fe5b906020019060200201516125ee57601260008673ffffffffffffffffffffffffffffffffffffffff1673ffffffffffffffffffffffffffffffffffffffff16815260200190815260200160002061262e565b601360008673ffffffffffffffffffffffffffffffffffffffff1673ffffffffffffffffffffffffffffffffffffffff1681526020019081526020016000205b614d3d565b91506126878a8281518110151561264657fe5b90602001906020020151838b8481518110151561265f57fe5b906020019060200201518b8581518110151561267757fe5b9060200190602002015187614db4565b151561269257600080fd5b806001019050612545565b600194505050505095945050505050565b600073ffffffffffffffffffffffffffffffffffffffff168173ffffffffffffffffffffffffffffffffffffffff16141515156126ea57600080fd5b34600e60008373ffffffffffffffffffffffffffffffffffffffff1673ffffffffffffffffffffffffffffffffffffffff168152602001908152602001600020600073eeeeeeeeeeeeeeeeeeeeeeeeeeeeeeeeeeeeeeee73ffffffffffffffffffffffffffffffffffffffff1673ffffffffffffffffffffffffffffffffffffffff168152602001908152602001600020600082825401925050819055508073ffffffffffffffffffffffffffffffffffffffff167f939e51ac2fd009b158d6344f7e68a83d8d18d9b0cc88cf514aac6aaa9cad2a18346040518082815260200191505060405180910390a250565b600281565b60136020528060005260406000206000915090508060000160009054906101000a900463ffffffff16908060010154905082565b6000612822600186868686615225565b151561282d57600080fd5b60019050949350505050565b6000612846600083615745565b151561285157600080fd5b60019050919050565b6128626174d6565b6000806000601360008673ffffffffffffffffffffffffffffffffffffffff1673ffffffffffffffffffffffffffffffffffffffff16815260200190815260200160002092506128b183615a37565b6040518059106128be5750595b9080825280602002602001820160405250935060009150600090505b60208163ffffffff1610156129585760008163ffffffff1660019060020a02846001015416111561294d57808360000160009054906101000a900463ffffffff1601848380600101945081518110151561293057fe5b9060200190602002019063ffffffff16908163ffffffff16815250505b8060010190506128da565b505050919050565b6129686174d6565b6000600c60009054906101000a900473ffffffffffffffffffffffffffffffffffffffff16905061299881615a78565b91505090565b60006002800154836fffffffffffffffffffffffffffffffff16101515156129c557600080fd5b600d60009054906101000a900473ffffffffffffffffffffffffffffffffffffffff1673ffffffffffffffffffffffffffffffffffffffff166385fcb4a884846000604051602001526040518363ffffffff167c010000000000000000000000000000000000000000000000000000000002815260040180836fffffffffffffffffffffffffffffffff166fffffffffffffffffffffffffffffffff168152602001826fffffffffffffffffffffffffffffffff166fffffffffffffffffffffffffffffffff16815260200192505050602060405180830381600087803b1515612aae57600080fd5b6102c65a03f11515612abf57600080fd5b50505060405180519050905092915050565b620186a081565b600c60009054906101000a900473ffffffffffffffffffffffffffffffffffffffff1681565b60068060000160009054906101000a900473ffffffffffffffffffffffffffffffffffffffff16908060010160009054906101000a900473ffffffffffffffffffffffffffffffffffffffff16908060020160009054906101000a900473ffffffffffffffffffffffffffffffffffffffff16908060030160009054906101000a900473ffffffffffffffffffffffffffffffffffffffff16908060040160009054906101000a900473ffffffffffffffffffffffffffffffffffffffff16908060050160009054906101000a900473ffffffffffffffffffffffffffffffffffffffff16905086565b6000806000806000600c60009054906101000a900473ffffffffffffffffffffffffffffffffffffffff1673ffffffffffffffffffffffffffffffffffffffff166361592b8587600060405160a001526040518263ffffffff167c0100000000000000000000000000000000000000000000000000000000028152600401808263ffffffff1663ffffffff16815260200191505060a060405180830381600087803b1515612c9557600080fd5b6102c65a03f11515612ca657600080fd5b505050604051805190602001805190602001805190602001805190602001805190509450945094509450945091939590929450565b600080600660030160009054906101000a900473ffffffffffffffffffffffffffffffffffffffff1673ffffffffffffffffffffffffffffffffffffffff163373ffffffffffffffffffffffffffffffffffffffff16141515612d3d57600080fd5b73eeeeeeeeeeeeeeeeeeeeeeeeeeeeeeeeeeeeeeee73ffffffffffffffffffffffffffffffffffffffff168873ffffffffffffffffffffffffffffffffffffffff161480612dca575073eeeeeeeeeeeeeeeeeeeeeeeeeeeeeeeeeeeeeeee73ffffffffffffffffffffffffffffffffffffffff168673ffffffffffffffffffffffffffffffffffffffff16145b1515612dd557600080fd5b600660010160009054906101000a900473ffffffffffffffffffffffffffffffffffffffff1673ffffffffffffffffffffffffffffffffffffffff168873ffffffffffffffffffffffffffffffffffffffff161480612e845750600660010160009054906101000a900473ffffffffffffffffffffffffffffffffffffffff1673ffffffffffffffffffffffffffffffffffffffff168673ffffffffffffffffffffffffffffffffffffffff16145b1515612e8f57600080fd5b6b204fce5e3e250261100000008711151515612eaa57600080fd5b73eeeeeeeeeeeeeeeeeeeeeeeeeeeeeeeeeeeeeeee73ffffffffffffffffffffffffffffffffffffffff168873ffffffffffffffffffffffffffffffffffffffff161415612f05578634141515612f0057600080fd5b61301a565b600034141515612f1457600080fd5b8773ffffffffffffffffffffffffffffffffffffffff166323b872dd33308a6000604051602001526040518463ffffffff167c0100000000000000000000000000000000000000000000000000000000028152600401808473ffffffffffffffffffffffffffffffffffffffff1673ffffffffffffffffffffffffffffffffffffffff1681526020018373ffffffffffffffffffffffffffffffffffffffff1673ffffffffffffffffffffffffffffffffffffffff1681526020018281526020019350505050602060405180830381600087803b1515612ff357600080fd5b6102c65a03f1151561300457600080fd5b50505060405180519050151561301957600080fd5b5b613025888888615ca0565b905061304387826130358b615f7a565b61303e8a615f7a565b6160b0565b841115151561305157600080fd5b73eeeeeeeeeeeeeeeeeeeeeeeeeeeeeeeeeeeeeeee73ffffffffffffffffffffffffffffffffffffffff168673ffffffffffffffffffffffffffffffffffffffff1614156130de578473ffffffffffffffffffffffffffffffffffffffff166108fc829081150290604051600060405180830381858888f1935050505015156130d957600080fd5b6131b0565b8573ffffffffffffffffffffffffffffffffffffffff1663a9059cbb86836000604051602001526040518363ffffffff167c0100000000000000000000000000000000000000000000000000000000028152600401808373ffffffffffffffffffffffffffffffffffffffff1673ffffffffffffffffffffffffffffffffffffffff16815260200182815260200192505050602060405180830381600087803b151561318957600080fd5b6102c65a03f1151561319a57600080fd5b5050506040518051905015156131af57600080fd5b5b7f36cfc7e9779b5ccf22f92f2f0d9adf9c74df05ab07de27c8cb508020389f9adc88878984604051808573ffffffffffffffffffffffffffffffffffffffff1673ffffffffffffffffffffffffffffffffffffffff1681526020018473ffffffffffffffffffffffffffffffffffffffff1673ffffffffffffffffffffffffffffffffffffffff16815260200183815260200182815260200194505050505060405180910390a160019150509695505050505050565b600061327483836000613ce4565b905092915050565b600061328a83836000611980565b905092915050565b606481565b60008060006132a46174ea565b600080600073eeeeeeeeeeeeeeeeeeeeeeeeeeeeeeeeeeeeeeee73ffffffffffffffffffffffffffffffffffffffff168b73ffffffffffffffffffffffffffffffffffffffff161480613336575073eeeeeeeeeeeeeeeeeeeeeeeeeeeeeeeeeeeeeeee73ffffffffffffffffffffffffffffffffffffffff168a73ffffffffffffffffffffffffffffffffffffffff16145b151561334157600080fd5b600660010160009054906101000a900473ffffffffffffffffffffffffffffffffffffffff1673ffffffffffffffffffffffffffffffffffffffff168b73ffffffffffffffffffffffffffffffffffffffff1614806133f05750600660010160009054906101000a900473ffffffffffffffffffffffffffffffffffffffff1673ffffffffffffffffffffffffffffffffffffffff168a73ffffffffffffffffffffffffffffffffffffffff16145b15156133fb57600080fd5b6b204fce5e3e25026110000000891115151561341657600080fd5b61341e614b09565b1561342c57600096506136b5565b73eeeeeeeeeeeeeeeeeeeeeeeeeeeeeeeeeeeeeeee73ffffffffffffffffffffffffffffffffffffffff168b73ffffffffffffffffffffffffffffffffffffffff161461349b57600d60009054906101000a900473ffffffffffffffffffffffffffffffffffffffff166134bf565b600c60009054906101000a900473ffffffffffffffffffffffffffffffffffffffff165b95508892506000915060026001015490508573ffffffffffffffffffffffffffffffffffffffff1663a3fb59176000604051604001526040518163ffffffff167c01000000000000000000000000000000000000000000000000000000000281526004016040805180830381600087803b151561353b57600080fd5b6102c65a03f1151561354c57600080fd5b5050506040518051906020018051905085604001811515151581525081965050505b6000836fffffffffffffffffffffffffffffffff1611801561359257508360400151155b80156135a5575060008180600190039250115b1561365f576135b48686616161565b9350826fffffffffffffffffffffffffffffffff1684608001516fffffffffffffffffffffffffffffffff161115156135fe57836060015182019150836080015183039250613653565b83608001516fffffffffffffffffffffffffffffffff16836fffffffffffffffffffffffffffffffff1685606001516fffffffffffffffffffffffffffffffff160281151561364957fe5b0482019150600092505b8360200151945061356e565b6000836fffffffffffffffffffffffffffffffff1614151561368457600096506136b5565b6136b289836fffffffffffffffffffffffffffffffff166136a48e615f7a565b6136ad8e615f7a565b6160b0565b96505b505050505050949350505050565b6000600660020160009054906101000a900473ffffffffffffffffffffffffffffffffffffffff1673ffffffffffffffffffffffffffffffffffffffff1663301254166000604051602001526040518163ffffffff167c0100000000000000000000000000000000000000000000000000000000028152600401602060405180830381600087803b151561375657600080fd5b6102c65a03f1151561376757600080fd5b50505060405180519050905060015481101561378557806001819055505b50565b60006005613795836137b5565b029050919050565b60006137ac8484846000612812565b90509392505050565b6000670de0b6b3a7640000612710026001546011548402028115156137d657fe5b049050919050565b60028060000154908060010154908060020154908060030154905084565b60008061380883613fa7565b9050600f60008473ffffffffffffffffffffffffffffffffffffffff1673ffffffffffffffffffffffffffffffffffffffff1681526020019081526020016000205481111561385a576000915061389f565b80600f60008573ffffffffffffffffffffffffffffffffffffffff1673ffffffffffffffffffffffffffffffffffffffff168152602001908152602001600020540391505b50919050565b60008060008060006002800154866fffffffffffffffffffffffffffffffff16101515156138d257600080fd5b600c60009054906101000a900473ffffffffffffffffffffffffffffffffffffffff1673ffffffffffffffffffffffffffffffffffffffff166385fcb4a888886000604051602001526040518363ffffffff167c010000000000000000000000000000000000000000000000000000000002815260040180836fffffffffffffffffffffffffffffffff166fffffffffffffffffffffffffffffffff168152602001826fffffffffffffffffffffffffffffffff166fffffffffffffffffffffffffffffffff16815260200192505050602060405180830381600087803b15156139bb57600080fd5b6102c65a03f115156139cc57600080fd5b5050506040518051905093508763ffffffff168463ffffffff161415613ad957600c60009054906101000a900473ffffffffffffffffffffffffffffffffffffffff1673ffffffffffffffffffffffffffffffffffffffff166361592b8589600060405160a001526040518263ffffffff167c0100000000000000000000000000000000000000000000000000000000028152600401808263ffffffff1663ffffffff16815260200191505060a060405180830381600087803b1515613a9157600080fd5b6102c65a03f11515613aa257600080fd5b5050506040518051906020018051906020018051906020018051906020018051905080955081985082965083965084975050505050505b839450505050509392505050565b6000613af7600086868686615225565b1515613b0257600080fd5b60019050949350505050565b600033905081600f60008373ffffffffffffffffffffffffffffffffffffffff1673ffffffffffffffffffffffffffffffffffffffff1681526020019081526020016000205410151515613b6157600080fd5b81613b6b826137fc565b10151515613b7857600080fd5b81600f60008373ffffffffffffffffffffffffffffffffffffffff1673ffffffffffffffffffffffffffffffffffffffff16815260200190815260200160002060008282540392505081905550600660000160009054906101000a900473ffffffffffffffffffffffffffffffffffffffff1673ffffffffffffffffffffffffffffffffffffffff1663a9059cbb82846000604051602001526040518363ffffffff167c0100000000000000000000000000000000000000000000000000000000028152600401808373ffffffffffffffffffffffffffffffffffffffff1673ffffffffffffffffffffffffffffffffffffffff16815260200182815260200192505050602060405180830381600087803b1515613c9557600080fd5b6102c65a03f11515613ca657600080fd5b505050604051805190501515613cbb57600080fd5b5050565b6000613cce8484846000613ae7565b1515613cd957600080fd5b600190509392505050565b600080613d2e601260003373ffffffffffffffffffffffffffffffffffffffff1673ffffffffffffffffffffffffffffffffffffffff168152602001908152602001600020614d3d565b9050613d3e600082878787614db4565b9150509392505050565b6000806000806000600660040160009054906101000a900473ffffffffffffffffffffffffffffffffffffffff1673ffffffffffffffffffffffffffffffffffffffff166359e02dd76000604051604001526040518163ffffffff167c01000000000000000000000000000000000000000000000000000000000281526004016040805180830381600087803b1515613de057600080fd5b6102c65a03f11515613df157600080fd5b505050604051805190602001805190508094508195505050821515613e1557600080fd5b670de0b6b3a76400008460019004811515613e2c57fe5b04915060008214151515613e3f57600080fd5b620186a082101515613e5057600080fd5b8360019004670de0b6b3a7640000806002600001540202811515613e7057fe5b04905080600280018190555060028060020154811515613e8c57fe5b04600260030181905550600194505050505090565b613ea96174d6565b6000806000601260008673ffffffffffffffffffffffffffffffffffffffff1673ffffffffffffffffffffffffffffffffffffffff1681526020019081526020016000209250613ef883615a37565b604051805910613f055750595b9080825280602002602001820160405250935060009150600090505b60208163ffffffff161015613f9f5760008163ffffffff1660019060020a028460010154161115613f9457808360000160009054906101000a900463ffffffff16018483806001019450815181101515613f7757fe5b9060200190602002019063ffffffff16908163ffffffff16815250505b806001019050613f21565b505050919050565b6000613ff1601060008473ffffffffffffffffffffffffffffffffffffffff1673ffffffffffffffffffffffffffffffffffffffff16815260200190815260200160002054613788565b9050919050565b6000806000806000600d60009054906101000a900473ffffffffffffffffffffffffffffffffffffffff1673ffffffffffffffffffffffffffffffffffffffff166361592b8587600060405160a001526040518263ffffffff167c0100000000000000000000000000000000000000000000000000000000028152600401808263ffffffff1663ffffffff16815260200191505060a060405180830381600087803b15156140a557600080fd5b6102c65a03f115156140b657600080fd5b505050604051805190602001805190602001805190602001805190602001805190509450945094509450945091939590929450565b600281565b60106020528060005260406000206000915090505481565b600073ffffffffffffffffffffffffffffffffffffffff168273ffffffffffffffffffffffffffffffffffffffff161415151561414457600080fd5b6b204fce5e3e250261100000008110151561415e57600080fd5b600660000160009054906101000a900473ffffffffffffffffffffffffffffffffffffffff1673ffffffffffffffffffffffffffffffffffffffff166323b872dd3330846000604051602001526040518463ffffffff167c0100000000000000000000000000000000000000000000000000000000028152600401808473ffffffffffffffffffffffffffffffffffffffff1673ffffffffffffffffffffffffffffffffffffffff1681526020018373ffffffffffffffffffffffffffffffffffffffff1673ffffffffffffffffffffffffffffffffffffffff1681526020018281526020019350505050602060405180830381600087803b151561426257600080fd5b6102c65a03f1151561427357600080fd5b50505060405180519050151561428857600080fd5b80600f60008473ffffffffffffffffffffffffffffffffffffffff1673ffffffffffffffffffffffffffffffffffffffff168152602001908152602001600020600082825401925050819055508173ffffffffffffffffffffffffffffffffffffffff167f7616f7b36d352f805882b5e6af4b72e6d1f325e5d73feef17ba9f06446849876826040518082815260200191505060405180910390a261436a601260008473ffffffffffffffffffffffffffffffffffffffff1673ffffffffffffffffffffffffffffffffffffffff1681526020019081526020016000206162f3565b1561448357614477601260008473ffffffffffffffffffffffffffffffffffffffff1673ffffffffffffffffffffffffffffffffffffffff168152602001908152602001600020600c60009054906101000a900473ffffffffffffffffffffffffffffffffffffffff1673ffffffffffffffffffffffffffffffffffffffff16631f38c35860206000604051602001526040518263ffffffff167c0100000000000000000000000000000000000000000000000000000000028152600401808263ffffffff1663ffffffff168152602001915050602060405180830381600087803b151561445757600080fd5b6102c65a03f1151561446857600080fd5b5050506040518051905061632a565b151561448257600080fd5b5b6144ca601360008473ffffffffffffffffffffffffffffffffffffffff1673ffffffffffffffffffffffffffffffffffffffff1681526020019081526020016000206162f3565b156145e3576145d7601360008473ffffffffffffffffffffffffffffffffffffffff1673ffffffffffffffffffffffffffffffffffffffff168152602001908152602001600020600d60009054906101000a900473ffffffffffffffffffffffffffffffffffffffff1673ffffffffffffffffffffffffffffffffffffffff16631f38c35860206000604051602001526040518263ffffffff167c0100000000000000000000000000000000000000000000000000000000028152600401808263ffffffff1663ffffffff168152602001915050602060405180830381600087803b15156145b757600080fd5b6102c65a03f115156145c857600080fd5b5050506040518051905061632a565b15156145e257600080fd5b5b5050565b600e602052816000526040600020602052806000526040600020600091509150505481565b60115481565b600181565b600073eeeeeeeeeeeeeeeeeeeeeeeeeeeeeeeeeeeeeeee73ffffffffffffffffffffffffffffffffffffffff168373ffffffffffffffffffffffffffffffffffffffff161415614680578173ffffffffffffffffffffffffffffffffffffffff16319050614741565b8273ffffffffffffffffffffffffffffffffffffffff166370a08231836000604051602001526040518263ffffffff167c0100000000000000000000000000000000000000000000000000000000028152600401808273ffffffffffffffffffffffffffffffffffffffff1673ffffffffffffffffffffffffffffffffffffffff168152602001915050602060405180830381600087803b151561472357600080fd5b6102c65a03f1151561473457600080fd5b5050506040518051905090505b92915050565b60008073ffffffffffffffffffffffffffffffffffffffff16600c60009054906101000a900473ffffffffffffffffffffffffffffffffffffffff1673ffffffffffffffffffffffffffffffffffffffff16141580156147f65750600073ffffffffffffffffffffffffffffffffffffffff16600d60009054906101000a900473ffffffffffffffffffffffffffffffffffffffff1673ffffffffffffffffffffffffffffffffffffffff1614155b156148045760019050614b06565b600073ffffffffffffffffffffffffffffffffffffffff16600c60009054906101000a900473ffffffffffffffffffffffffffffffffffffffff1673ffffffffffffffffffffffffffffffffffffffff161415806148b15750600073ffffffffffffffffffffffffffffffffffffffff16600d60009054906101000a900473ffffffffffffffffffffffffffffffffffffffff1673ffffffffffffffffffffffffffffffffffffffff1614155b156148bb57600080fd5b600660050160009054906101000a900473ffffffffffffffffffffffffffffffffffffffff1673ffffffffffffffffffffffffffffffffffffffff1663fccf6e67306000604051602001526040518263ffffffff167c0100000000000000000000000000000000000000000000000000000000028152600401808273ffffffffffffffffffffffffffffffffffffffff1673ffffffffffffffffffffffffffffffffffffffff168152602001915050602060405180830381600087803b151561498357600080fd5b6102c65a03f1151561499457600080fd5b50505060405180519050600c60006101000a81548173ffffffffffffffffffffffffffffffffffffffff021916908373ffffffffffffffffffffffffffffffffffffffff160217905550600660050160009054906101000a900473ffffffffffffffffffffffffffffffffffffffff1673ffffffffffffffffffffffffffffffffffffffff1663fccf6e67306000604051602001526040518263ffffffff167c0100000000000000000000000000000000000000000000000000000000028152600401808273ffffffffffffffffffffffffffffffffffffffff1673ffffffffffffffffffffffffffffffffffffffff168152602001915050602060405180830381600087803b1515614aa657600080fd5b6102c65a03f11515614ab757600080fd5b50505060405180519050600d60006101000a81548173ffffffffffffffffffffffffffffffffffffffff021916908373ffffffffffffffffffffffffffffffffffffffff160217905550600190505b90565b6000600560015402600660020160009054906101000a900473ffffffffffffffffffffffffffffffffffffffff1673ffffffffffffffffffffffffffffffffffffffff1663301254166000604051602001526040518163ffffffff167c0100000000000000000000000000000000000000000000000000000000028152600401602060405180830381600087803b1515614ba257600080fd5b6102c65a03f11515614bb357600080fd5b5050506040518051905011905090565b60008085518751141515614bd657600080fd5b84518751141515614be657600080fd5b83518751141515614bf657600080fd5b82518751141515614c0657600080fd5b600090505b8651811015614caa57614c948782815181101515614c2557fe5b906020019060200201518783815181101515614c3d57fe5b906020019060200201518784815181101515614c5557fe5b906020019060200201518785815181101515614c6d57fe5b906020019060200201518786815181101515614c8557fe5b90602001906020020151615225565b1515614c9f57600080fd5b806001019050614c0b565b600191505095945050505050565b614cc06174d6565b6000600d60009054906101000a900473ffffffffffffffffffffffffffffffffffffffff169050614cf081615a78565b91505090565b6000614d03600183615745565b1515614d0e57600080fd5b60019050919050565b600d60009054906101000a900473ffffffffffffffffffffffffffffffffffffffff1681565b6000806000808460010154925060019150600090505b6020811015614da75760008284161415614d96578183178560010181905550808560000160009054906101000a900463ffffffff1663ffffffff16019350614dac565b600282029150806001019050614d53565b600080fd5b505050919050565b6000806000806b204fce5e3e25026110000000876fffffffffffffffffffffffffffffffff16101515614de657600080fd5b6b204fce5e3e25026110000000866fffffffffffffffffffffffffffffffff16101515614e1257600080fd5b339250614e21838a898961638f565b1515614e2c57600080fd5b614e5b876fffffffffffffffffffffffffffffffff16876fffffffffffffffffffffffffffffffff168b616410565b1515614e6657600080fd5b6000915088614e9757600c60009054906101000a900473ffffffffffffffffffffffffffffffffffffffff16614ebb565b600d60009054906101000a900473ffffffffffffffffffffffffffffffffffffffff165b905060008563ffffffff1614151561500e578073ffffffffffffffffffffffffffffffffffffffff1663a5da0bf5848a8a8a8a6000604051602001526040518663ffffffff167c0100000000000000000000000000000000000000000000000000000000028152600401808673ffffffffffffffffffffffffffffffffffffffff1673ffffffffffffffffffffffffffffffffffffffff1681526020018563ffffffff1663ffffffff168152602001846fffffffffffffffffffffffffffffffff166fffffffffffffffffffffffffffffffff168152602001836fffffffffffffffffffffffffffffffff166fffffffffffffffffffffffffffffffff1681526020018263ffffffff1663ffffffff16815260200195505050505050602060405180830381600087803b1515614ff057600080fd5b6102c65a03f1151561500157600080fd5b5050506040518051905091505b81151561514b578073ffffffffffffffffffffffffffffffffffffffff1663c92ba8b2848a8a8a6000604051602001526040518563ffffffff167c0100000000000000000000000000000000000000000000000000000000028152600401808573ffffffffffffffffffffffffffffffffffffffff1673ffffffffffffffffffffffffffffffffffffffff1681526020018463ffffffff1663ffffffff168152602001836fffffffffffffffffffffffffffffffff166fffffffffffffffffffffffffffffffff168152602001826fffffffffffffffffffffffffffffffff166fffffffffffffffffffffffffffffffff168152602001945050505050602060405180830381600087803b151561512457600080fd5b6102c65a03f1151561513557600080fd5b50505060405180519050151561514a57600080fd5b5b8273ffffffffffffffffffffffffffffffffffffffff167f2fb3fe66d41cb2d1b0d335656d86e7c779ebdc34c6f6fc806d35790a30be0e6d898b8a8a87604051808663ffffffff1663ffffffff16815260200185151515158152602001846fffffffffffffffffffffffffffffffff166fffffffffffffffffffffffffffffffff168152602001836fffffffffffffffffffffffffffffffff166fffffffffffffffffffffffffffffffff168152602001821515151581526020019550505050505060405180910390a26001935050505095945050505050565b6000806000806000806000806b204fce5e3e250261100000008b6fffffffffffffffffffffffffffffffff1610151561525d57600080fd5b6b204fce5e3e250261100000008a6fffffffffffffffffffffffffffffffff1610151561528957600080fd5b6152b88b6fffffffffffffffffffffffffffffffff168b6fffffffffffffffffffffffffffffffff168f616410565b15156152c357600080fd5b8c6152f057600c60009054906101000a900473ffffffffffffffffffffffffffffffffffffffff16615314565b600d60009054906101000a900473ffffffffffffffffffffffffffffffffffffffff165b91508173ffffffffffffffffffffffffffffffffffffffff166361592b858d600060405160a001526040518263ffffffff167c0100000000000000000000000000000000000000000000000000000000028152600401808263ffffffff1663ffffffff16815260200191505060a060405180830381600087803b151561539957600080fd5b6102c65a03f115156153aa57600080fd5b50505060405180519060200180519060200180519060200180519060200180519050809850819850829a50839950849b5050505050503373ffffffffffffffffffffffffffffffffffffffff168773ffffffffffffffffffffffffffffffffffffffff1614151561541a57600080fd5b615428878e87898f8f6164c2565b15156154375760009750615735565b6000905060008963ffffffff16141515615563578173ffffffffffffffffffffffffffffffffffffffff1663a590529e8d8d8d8d6000604051604001526040518563ffffffff167c0100000000000000000000000000000000000000000000000000000000028152600401808563ffffffff1663ffffffff168152602001846fffffffffffffffffffffffffffffffff166fffffffffffffffffffffffffffffffff168152602001836fffffffffffffffffffffffffffffffff166fffffffffffffffffffffffffffffffff1681526020018263ffffffff1663ffffffff1681526020019450505050506040805180830381600087803b151561553957600080fd5b6102c65a03f1151561554a57600080fd5b5050506040518051906020018051905080945081925050505b80151561566c578173ffffffffffffffffffffffffffffffffffffffff1663cb2f7b878d8d8d6000604051602001526040518463ffffffff167c0100000000000000000000000000000000000000000000000000000000028152600401808463ffffffff1663ffffffff168152602001836fffffffffffffffffffffffffffffffff166fffffffffffffffffffffffffffffffff168152602001826fffffffffffffffffffffffffffffffff166fffffffffffffffffffffffffffffffff1681526020019350505050602060405180830381600087803b151561564557600080fd5b6102c65a03f1151561565657600080fd5b50505060405180519050151561566b57600080fd5b5b8673ffffffffffffffffffffffffffffffffffffffff167f2bf327e052ee7ab98550e3d864a5b2a61f7737dc75cbcaada4e55f88222ebbd78e8e8e8e8660405180861515151581526020018563ffffffff168152602001846fffffffffffffffffffffffffffffffff166fffffffffffffffffffffffffffffffff168152602001836fffffffffffffffffffffffffffffffff166fffffffffffffffffffffffffffffffff168152602001821515151581526020019550505050505060405180910390a2600197505b5050505050505095945050505050565b60008060006157526174ea565b60003393508661578457600c60009054906101000a900473ffffffffffffffffffffffffffffffffffffffff166157a8565b600d60009054906101000a900473ffffffffffffffffffffffffffffffffffffffff165b92506157b48387616161565b91508373ffffffffffffffffffffffffffffffffffffffff16826000015173ffffffffffffffffffffffffffffffffffffffff161415156157f457600080fd5b86615803578160800151615809565b81606001515b6fffffffffffffffffffffffffffffffff169050615829848260006165b7565b151561583457600080fd5b61588583858961586957600660010160009054906101000a900473ffffffffffffffffffffffffffffffffffffffff1661587f565b73eeeeeeeeeeeeeeeeeeeeeeeeeeeeeeeeeeeeeeee5b8961676d565b151561589057600080fd5b81606001516fffffffffffffffffffffffffffffffff16600e60008673ffffffffffffffffffffffffffffffffffffffff1673ffffffffffffffffffffffffffffffffffffffff16815260200190815260200160002060008961591857600660010160009054906101000a900473ffffffffffffffffffffffffffffffffffffffff1661592e565b73eeeeeeeeeeeeeeeeeeeeeeeeeeeeeeeeeeeeeeee5b73ffffffffffffffffffffffffffffffffffffffff1673ffffffffffffffffffffffffffffffffffffffff168152602001908152602001600020600082825401925050819055508373ffffffffffffffffffffffffffffffffffffffff167f179f16fddc625e40df9cb92cfcea70d64a6262c82b7a769e52996b1ff511ff5688888560600151866080015160405180851515151581526020018463ffffffff1663ffffffff168152602001836fffffffffffffffffffffffffffffffff166fffffffffffffffffffffffffffffffff168152602001826fffffffffffffffffffffffffffffffff16815260200194505050505060405180910390a2600194505050505092915050565b600080600090505b6020811015615a725760008160019060020a028460010154161115615a675781806001019250505b806001019050615a3f565b50919050565b615a806174d6565b615a886174ea565b6000806000808673ffffffffffffffffffffffffffffffffffffffff1663a3fb59176000604051604001526040518163ffffffff167c01000000000000000000000000000000000000000000000000000000000281526004016040805180830381600087803b1515615af957600080fd5b6102c65a03f11515615b0a57600080fd5b5050506040518051906020018051905080945081955050508215615b4f576000604051805910615b375750595b90808252806020026020018201604052509550615c96565b600091505b84604001511515615b7f57615b698785616161565b9450818060010192505084602001519350615b54565b81604051805910615b8d5750595b908082528060200260200182016040525095508673ffffffffffffffffffffffffffffffffffffffff1663a3fb59176000604051604001526040518163ffffffff167c01000000000000000000000000000000000000000000000000000000000281526004016040805180830381600087803b1515615c0b57600080fd5b6102c65a03f11515615c1c57600080fd5b505050604051805190602001805190508660400181151515158152508195505050600090505b81811015615c9557838682815181101515615c5957fe5b9060200190602002019063ffffffff16908163ffffffff1681525050615c7f8785616161565b9450846020015193508080600101915050615c42565b5b5050505050919050565b6000806000615cad6174ea565b600080600073eeeeeeeeeeeeeeeeeeeeeeeeeeeeeeeeeeeeeeee73ffffffffffffffffffffffffffffffffffffffff168a73ffffffffffffffffffffffffffffffffffffffff1614615d2157600d60009054906101000a900473ffffffffffffffffffffffffffffffffffffffff16615d45565b600c60009054906101000a900473ffffffffffffffffffffffffffffffffffffffff165b9550889250600091508573ffffffffffffffffffffffffffffffffffffffff1663a3fb59176000604051604001526040518163ffffffff167c01000000000000000000000000000000000000000000000000000000000281526004016040805180830381600087803b1515615db957600080fd5b6102c65a03f11515615dca57600080fd5b5050506040518051906020018051905085604001811515151581525081965050505b6000836fffffffffffffffffffffffffffffffff16118015615e1057508360400151155b15615f1957615e1f8686616161565b9350826fffffffffffffffffffffffffffffffff1684608001516fffffffffffffffffffffffffffffffff16111515615e8e57836060015182019150836080015183039250615e7e8460000151868c8b88608001518960600151616907565b1515615e8957600080fd5b615f0d565b83608001516fffffffffffffffffffffffffffffffff16836fffffffffffffffffffffffffffffffff1685606001516fffffffffffffffffffffffffffffffff1602811515615ed957fe5b0490508082019150615efd8460000151868c8b87868a606001518b60800151616aba565b1515615f0857600080fd5b600092505b83602001519450615dec565b6000836fffffffffffffffffffffffffffffffff16148015615f4d57506000826fffffffffffffffffffffffffffffffff16115b1515615f5857600080fd5b816fffffffffffffffffffffffffffffffff1696505050505050509392505050565b60008073eeeeeeeeeeeeeeeeeeeeeeeeeeeeeeeeeeeeeeee73ffffffffffffffffffffffffffffffffffffffff168373ffffffffffffffffffffffffffffffffffffffff161415615fce57601291506160aa565b6000808473ffffffffffffffffffffffffffffffffffffffff1673ffffffffffffffffffffffffffffffffffffffff16815260200190815260200160002054905060008114156160a6578273ffffffffffffffffffffffffffffffffffffffff1663313ce5676000604051602001526040518163ffffffff167c0100000000000000000000000000000000000000000000000000000000028152600401602060405180830381600087803b151561608457600080fd5b6102c65a03f1151561609557600080fd5b5050506040518051905091506160aa565b8091505b50919050565b60006b204fce5e3e2502611000000085111515156160cd57600080fd5b6b204fce5e3e2502611000000084111515156160e857600080fd5b82821015156161275760128383031115151561610357600080fd5b84838303600a0a02670de0b6b3a7640000850281151561611f57fe5b049050616159565b60128284031115151561613957600080fd5b84828403600a0a670de0b6b3a764000086020281151561615557fe5b0490505b949350505050565b6161696174ea565b60008373ffffffffffffffffffffffffffffffffffffffff166361592b8584600060405160a001526040518263ffffffff167c0100000000000000000000000000000000000000000000000000000000028152600401808263ffffffff1663ffffffff16815260200191505060a060405180830381600087803b15156161ee57600080fd5b6102c65a03f115156161ff57600080fd5b50505060405180519060200180519060200180519060200180519060200180519050866000018760600188608001896020018463ffffffff1663ffffffff16815250849850856fffffffffffffffffffffffffffffffff166fffffffffffffffffffffffffffffffff16815250856fffffffffffffffffffffffffffffffff166fffffffffffffffffffffffffffffffff168152508573ffffffffffffffffffffffffffffffffffffffff1673ffffffffffffffffffffffffffffffffffffffff168152505050505050600163ffffffff16826020015163ffffffff16148260400190151590811515815250505092915050565b6000808260000160009054906101000a900463ffffffff1663ffffffff1614156163205760019050616325565b600090505b919050565b6000808360000160009054906101000a900463ffffffff1663ffffffff1611156163575760009050616389565b818360000160006101000a81548163ffffffff021916908363ffffffff16021790555060008360010181905550600190505b92915050565b6000808461639d578261639f565b835b6fffffffffffffffffffffffffffffffff169050600280015481101515156163c657600080fd5b6163e38686866fffffffffffffffffffffffffffffffff16616f2d565b15156163ee57600080fd5b6163f88682617135565b151561640357600080fd5b6001915050949350505050565b600080821561645a57616453848661644c600660010160009054906101000a900473ffffffffffffffffffffffffffffffffffffffff16615f7a565b60126160b0565b9050616497565b6164948486601261648f600660010160009054906101000a900473ffffffffffffffffffffffffffffffffffffffff16615f7a565b6160b0565b90505b620f4240670de0b6b3a7640000028111156164b557600091506164ba565b600191505b509392505050565b6000806000876164d257836164d4565b845b6fffffffffffffffffffffffffffffffff1691508761651957856fffffffffffffffffffffffffffffffff16846fffffffffffffffffffffffffffffffff1603616541565b866fffffffffffffffffffffffffffffffff16856fffffffffffffffffffffffffffffffff16035b90506002800154821015151561655657600080fd5b6165878989896fffffffffffffffffffffffffffffffff16886fffffffffffffffffffffffffffffffff1603616f2d565b151561659257600080fd5b61659c8982617135565b15156165a757600080fd5b6001925050509695505050505050565b6000808383111515156165c957600080fd5b601060008673ffffffffffffffffffffffffffffffffffffffff1673ffffffffffffffffffffffffffffffffffffffff1681526020019081526020016000205484111561665a576000601060008773ffffffffffffffffffffffffffffffffffffffff1673ffffffffffffffffffffffffffffffffffffffff168152602001908152602001600020819055506166a8565b83601060008773ffffffffffffffffffffffffffffffffffffffff1673ffffffffffffffffffffffffffffffffffffffff168152602001908152602001600020600082825403925050819055505b60008314156166ba5760019150616765565b6166c3836119e4565b905080600f60008773ffffffffffffffffffffffffffffffffffffffff1673ffffffffffffffffffffffffffffffffffffffff168152602001908152602001600020541015151561671357600080fd5b80600f60008773ffffffffffffffffffffffffffffffffffffffff1673ffffffffffffffffffffffffffffffffffffffff16815260200190815260200160002060008282540392505081905550600191505b509392505050565b6000808573ffffffffffffffffffffffffffffffffffffffff1662d84fd8846000604051602001526040518263ffffffff167c0100000000000000000000000000000000000000000000000000000000028152600401808263ffffffff1663ffffffff168152602001915050602060405180830381600087803b15156167f257600080fd5b6102c65a03f1151561680357600080fd5b50505060405180519050151561681857600080fd5b73eeeeeeeeeeeeeeeeeeeeeeeeeeeeeeeeeeeeeeee73ffffffffffffffffffffffffffffffffffffffff168473ffffffffffffffffffffffffffffffffffffffff16146168a357601260008673ffffffffffffffffffffffffffffffffffffffff1673ffffffffffffffffffffffffffffffffffffffff1681526020019081526020016000206168e3565b601360008673ffffffffffffffffffffffffffffffffffffffff1673ffffffffffffffffffffffffffffffffffffffff1681526020019081526020016000205b90506168ef8184617317565b15156168fa57600080fd5b6001915050949350505050565b60008073eeeeeeeeeeeeeeeeeeeeeeeeeeeeeeeeeeeeeeee73ffffffffffffffffffffffffffffffffffffffff168673ffffffffffffffffffffffffffffffffffffffff161461697957600d60009054906101000a900473ffffffffffffffffffffffffffffffffffffffff1661699d565b600c60009054906101000a900473ffffffffffffffffffffffffffffffffffffffff165b90506169ab8189878a61676d565b15156169b657600080fd5b7ffc2eaa59b7259e4eb0ce92d7a86fce8b0fb67fade6f9f69df98f4771035a50c2888873eeeeeeeeeeeeeeeeeeeeeeeeeeeeeeeeeeeeeeee73ffffffffffffffffffffffffffffffffffffffff168973ffffffffffffffffffffffffffffffffffffffff1614604051808473ffffffffffffffffffffffffffffffffffffffff1673ffffffffffffffffffffffffffffffffffffffff1681526020018363ffffffff1663ffffffff16815260200182151515158152602001935050505060405180910390a1616aad8887866fffffffffffffffffffffffffffffffff16866fffffffffffffffffffffffffffffffff1660006173df565b9150509695505050505050565b6000806000806000856fffffffffffffffffffffffffffffffff16896fffffffffffffffffffffffffffffffff16101515616af457600080fd5b866fffffffffffffffffffffffffffffffff16886fffffffffffffffffffffffffffffffff16101515616b2657600080fd5b8787039650888603955073eeeeeeeeeeeeeeeeeeeeeeeeeeeeeeeeeeeeeeee73ffffffffffffffffffffffffffffffffffffffff168b73ffffffffffffffffffffffffffffffffffffffff1614616b9f57600d60009054906101000a900473ffffffffffffffffffffffffffffffffffffffff16616bc3565b600c60009054906101000a900473ffffffffffffffffffffffffffffffffffffffff165b935073eeeeeeeeeeeeeeeeeeeeeeeeeeeeeeeeeeeeeeee73ffffffffffffffffffffffffffffffffffffffff168b73ffffffffffffffffffffffffffffffffffffffff1614616c125786616c14565b855b6fffffffffffffffffffffffffffffffff16925060009150600260030154831015616cf457866fffffffffffffffffffffffffffffffff16600e60008f73ffffffffffffffffffffffffffffffffffffffff1673ffffffffffffffffffffffffffffffffffffffff16815260200190815260200160002060008c73ffffffffffffffffffffffffffffffffffffffff1673ffffffffffffffffffffffffffffffffffffffff16815260200190815260200160002060008282540192505081905550829150616ce4848e8c8f61676d565b1515616cef57600080fd5b616e16565b8373ffffffffffffffffffffffffffffffffffffffff1663a590529e8d898960026000604051604001526040518563ffffffff167c0100000000000000000000000000000000000000000000000000000000028152600401808563ffffffff1663ffffffff168152602001846fffffffffffffffffffffffffffffffff166fffffffffffffffffffffffffffffffff168152602001836fffffffffffffffffffffffffffffffff166fffffffffffffffffffffffffffffffff1681526020018263ffffffff1663ffffffff1681526020019450505050506040805180830381600087803b1515616de357600080fd5b6102c65a03f11515616df457600080fd5b505050604051805190602001805190505080915050801515616e1557600080fd5b5b7fd499cca7d46b5236c2cb522ceec930ccf485eefca1f0472c020a1b7328bf06438d8d73eeeeeeeeeeeeeeeeeeeeeeeeeeeeeeeeeeeeeeee73ffffffffffffffffffffffffffffffffffffffff168e73ffffffffffffffffffffffffffffffffffffffff161460008611604051808573ffffffffffffffffffffffffffffffffffffffff1673ffffffffffffffffffffffffffffffffffffffff1681526020018463ffffffff1663ffffffff168152602001831515151581526020018215151515815260200194505050505060405180910390a1616f1b8d8c8b6fffffffffffffffffffffffffffffffff168b6fffffffffffffffffffffffffffffffff16866173df565b94505050505098975050505050505050565b60008083616f6057600660010160009054906101000a900473ffffffffffffffffffffffffffffffffffffffff16616f76565b73eeeeeeeeeeeeeeeeeeeeeeeeeeeeeeeeeeeeeeee5b905060008312156170135782600003600e60008773ffffffffffffffffffffffffffffffffffffffff1673ffffffffffffffffffffffffffffffffffffffff16815260200190815260200160002060008373ffffffffffffffffffffffffffffffffffffffff1673ffffffffffffffffffffffffffffffffffffffff16815260200190815260200160002060008282540192505081905550617129565b82600e60008773ffffffffffffffffffffffffffffffffffffffff1673ffffffffffffffffffffffffffffffffffffffff16815260200190815260200160002060008373ffffffffffffffffffffffffffffffffffffffff1673ffffffffffffffffffffffffffffffffffffffff168152602001908152602001600020541015151561709e57600080fd5b82600e60008773ffffffffffffffffffffffffffffffffffffffff1673ffffffffffffffffffffffffffffffffffffffff16815260200190815260200160002060008373ffffffffffffffffffffffffffffffffffffffff1673ffffffffffffffffffffffffffffffffffffffff168152602001908152602001600020600082825403925050819055505b60019150509392505050565b600080600083121561722757826000039050601060008573ffffffffffffffffffffffffffffffffffffffff1673ffffffffffffffffffffffffffffffffffffffff168152602001908152602001600020548111156171d157601060008573ffffffffffffffffffffffffffffffffffffffff1673ffffffffffffffffffffffffffffffffffffffff1681526020019081526020016000205490505b80601060008673ffffffffffffffffffffffffffffffffffffffff1673ffffffffffffffffffffffffffffffffffffffff1681526020019081526020016000206000828254039250508190555060019150617310565b61727183601060008773ffffffffffffffffffffffffffffffffffffffff1673ffffffffffffffffffffffffffffffffffffffff1681526020019081526020016000205401613788565b600f60008673ffffffffffffffffffffffffffffffffffffffff1673ffffffffffffffffffffffffffffffffffffffff16815260200190815260200160002054101515156172be57600080fd5b82601060008673ffffffffffffffffffffffffffffffffffffffff1673ffffffffffffffffffffffffffffffffffffffff16815260200190815260200160002060008282540192505081905550600191505b5092915050565b60008060008460000160009054906101000a900463ffffffff1663ffffffff168463ffffffff161015151561734b57600080fd5b60208560000160009054906101000a900463ffffffff1663ffffffff16018463ffffffff1610151561737c57600080fd5b8460000160009054906101000a900463ffffffff1663ffffffff168463ffffffff160391508160019060020a0290506000856001015482161115156173c057600080fd5b8019856001016000828254169250508190555060019250505092915050565b60008073eeeeeeeeeeeeeeeeeeeeeeeeeeeeeeeeeeeeeeee73ffffffffffffffffffffffffffffffffffffffff168673ffffffffffffffffffffffffffffffffffffffff161461742f5783617431565b845b905084600e60008973ffffffffffffffffffffffffffffffffffffffff1673ffffffffffffffffffffffffffffffffffffffff16815260200190815260200160002060008873ffffffffffffffffffffffffffffffffffffffff1673ffffffffffffffffffffffffffffffffffffffff168152602001908152602001600020600082825401925050819055506174ca87848301836165b7565b91505095945050505050565b602060405190810160405280600081525090565b60a060405190810160405280600073ffffffffffffffffffffffffffffffffffffffff168152602001600063ffffffff16815260200160001515815260200160006fffffffffffffffffffffffffffffffff16815260200160006fffffffffffffffffffffffffffffffff1681525090565b73eeeeeeeeeeeeeeeeeeeeeeeeeeeeeeeeeeeeeeee73ffffffffffffffffffffffffffffffffffffffff168173ffffffffffffffffffffffffffffffffffffffff1614156175ed5760126000808373ffffffffffffffffffffffffffffffffffffffff1673ffffffffffffffffffffffffffffffffffffffff168152602001908152602001600020819055506176b7565b8073ffffffffffffffffffffffffffffffffffffffff1663313ce5676000604051602001526040518163ffffffff167c0100000000000000000000000000000000000000000000000000000000028152600401602060405180830381600087803b151561765957600080fd5b6102c65a03f1151561766a57600080fd5b505050604051805190506000808373ffffffffffffffffffffffffffffffffffffffff1673ffffffffffffffffffffffffffffffffffffffff168152602001908152602001600020819055505b505600a165627a7a7230582045d5d04c9e2df475fbe7c2be1878140c1a54e339398d741b1ca12f033452c6b60029a165627a7a7230582032cebc80186133a9152be9b689c8fa665f3745a3c095f2af75592460b25d4a740029",
  "source": "pragma solidity 0.4.18;\n\n\nimport \"./OrderbookReserve.sol\";\nimport \"../FeeBurnerInterface.sol\";\n\n\ncontract InternalNetworkInterface {\n    function addReserve(\n        KyberReserveInterface reserve,\n        bool isPermissionless\n    )\n        public\n        returns(bool);\n\n    function removeReserve(\n        KyberReserveInterface reserve,\n        uint index\n    )\n        public\n        returns(bool);\n\n    function listPairForReserve(\n        address reserve,\n        ERC20 token,\n        bool ethToToken,\n        bool tokenToEth,\n        bool add\n    )\n        public\n        returns(bool);\n\n    FeeBurnerInterface public feeBurnerContract;\n}\n\n\ncontract PermissionlessOrderbookReserveLister {\n    // KNC burn fee per wei value of an order. 25 in BPS = 0.25%.\n    uint constant public ORDERBOOK_BURN_FEE_BPS = 25;\n\n    uint public minNewOrderValueUsd = 1000; // set in order book minimum USD value of a new limit order\n    uint public maxOrdersPerTrade;          // set in order book maximum orders to be traversed in rate query and trade\n\n    InternalNetworkInterface public kyberNetworkContract;\n    OrderListFactoryInterface public orderFactoryContract;\n    MedianizerInterface public medianizerContract;\n    ERC20 public kncToken;\n\n    enum ListingStage {NO_RESERVE, RESERVE_ADDED, RESERVE_INIT, RESERVE_LISTED}\n\n    mapping(address => OrderbookReserveInterface) public reserves; //Permissionless orderbook reserves mapped per token\n    mapping(address => ListingStage) public reserveListingStage;   //Reserves listing stage\n    mapping(address => bool) tokenListingBlocked;\n\n    function PermissionlessOrderbookReserveLister(\n        InternalNetworkInterface kyber,\n        OrderListFactoryInterface factory,\n        MedianizerInterface medianizer,\n        ERC20 knc,\n        address[] unsupportedTokens,\n        uint maxOrders,\n        uint minOrderValueUsd\n    )\n        public\n    {\n        require(kyber != address(0));\n        require(factory != address(0));\n        require(medianizer != address(0));\n        require(knc != address(0));\n        require(maxOrders > 1);\n        require(minOrderValueUsd > 0);\n\n        kyberNetworkContract = kyber;\n        orderFactoryContract = factory;\n        medianizerContract = medianizer;\n        kncToken = knc;\n        maxOrdersPerTrade = maxOrders;\n        minNewOrderValueUsd = minOrderValueUsd;\n\n        for (uint i = 0; i < unsupportedTokens.length; i++) {\n            require(unsupportedTokens[i] != address(0));\n            tokenListingBlocked[unsupportedTokens[i]] = true;\n        }\n    }\n\n    event TokenOrderbookListingStage(ERC20 token, ListingStage stage);\n\n    /// @dev anyone can call\n    function addOrderbookContract(ERC20 token) public returns(bool) {\n        require(reserveListingStage[token] == ListingStage.NO_RESERVE);\n        require(!(tokenListingBlocked[token]));\n\n        reserves[token] = new OrderbookReserve({\n            knc: kncToken,\n            reserveToken: token,\n            burner: kyberNetworkContract.feeBurnerContract(),\n            network: kyberNetworkContract,\n            medianizer: medianizerContract,\n            factory: orderFactoryContract,\n            minNewOrderUsd: minNewOrderValueUsd,\n            maxOrdersPerTrade: maxOrdersPerTrade,\n            burnFeeBps: ORDERBOOK_BURN_FEE_BPS\n        });\n\n        reserveListingStage[token] = ListingStage.RESERVE_ADDED;\n\n        TokenOrderbookListingStage(token, ListingStage.RESERVE_ADDED);\n        return true;\n    }\n\n    /// @dev anyone can call\n    function initOrderbookContract(ERC20 token) public returns(bool) {\n        require(reserveListingStage[token] == ListingStage.RESERVE_ADDED);\n        require(reserves[token].init());\n\n        reserveListingStage[token] = ListingStage.RESERVE_INIT;\n        TokenOrderbookListingStage(token, ListingStage.RESERVE_INIT);\n        return true;\n    }\n\n    /// @dev anyone can call\n    function listOrderbookContract(ERC20 token) public returns(bool) {\n        require(reserveListingStage[token] == ListingStage.RESERVE_INIT);\n\n        require(\n            kyberNetworkContract.addReserve(\n                KyberReserveInterface(reserves[token]),\n                true\n            )\n        );\n\n        require(\n            kyberNetworkContract.listPairForReserve(\n                KyberReserveInterface(reserves[token]),\n                token,\n                true,\n                true,\n                true\n            )\n        );\n\n        FeeBurnerInterface feeBurner = FeeBurnerInterface(kyberNetworkContract.feeBurnerContract());\n\n        feeBurner.setReserveData(\n            reserves[token], /* reserve */\n            ORDERBOOK_BURN_FEE_BPS, /* fee */\n            reserves[token] /* kncWallet */\n        );\n\n        reserveListingStage[token] = ListingStage.RESERVE_LISTED;\n        TokenOrderbookListingStage(token, ListingStage.RESERVE_LISTED);\n        return true;\n    }\n\n    function unlistOrderbookContract(ERC20 token, uint hintReserveIndex) public {\n        require(reserveListingStage[token] == ListingStage.RESERVE_LISTED);\n        require(reserves[token].kncRateBlocksTrade());\n        require(kyberNetworkContract.removeReserve(KyberReserveInterface(reserves[token]), hintReserveIndex));\n        reserveListingStage[token] = ListingStage.NO_RESERVE;\n        reserves[token] = OrderbookReserveInterface(0);\n        TokenOrderbookListingStage(token, ListingStage.NO_RESERVE);\n    }\n\n    /// @dev permission less reserve currently supports one token per reserve.\n    function getOrderbookListingStage(ERC20 token)\n        public\n        view\n        returns(address, ListingStage)\n    {\n        return (reserves[token], reserveListingStage[token]);\n    }\n}\n",
  "sourcePath": "/Users/oscarr/Ethereum/frappe/contracts/permissionless/PermissionlessOrderbookReserveLister.sol",
  "compiler": {
    "name": "solc",
    "version": "0.4.18+commit.9cf6e910.Emscripten.clang"
  },
  "schemaVersion": "3.0.6",
  "updatedAt": "2019-05-18T17:14:13.493Z",
  "devdoc": {
    "methods": {
      "addOrderbookContract(address)": {
        "details": "anyone can call"
      },
      "getOrderbookListingStage(address)": {
        "details": "permission less reserve currently supports one token per reserve."
      },
      "initOrderbookContract(address)": {
        "details": "anyone can call"
      },
      "listOrderbookContract(address)": {
        "details": "anyone can call"
      }
    }
  },
  "userdoc": {
    "methods": {}
  }
}