{
  "contractName": "TestTokenFailing",
  "abi": [
    {
      "constant": true,
      "inputs": [],
      "name": "name",
      "outputs": [
        {
          "name": "",
          "type": "string"
        }
      ],
      "payable": false,
      "stateMutability": "view",
      "type": "function"
    },
    {
      "constant": false,
      "inputs": [
        {
          "name": "_spender",
          "type": "address"
        },
        {
          "name": "_value",
          "type": "uint256"
        }
      ],
      "name": "approve",
      "outputs": [
        {
          "name": "",
          "type": "bool"
        }
      ],
      "payable": false,
      "stateMutability": "nonpayable",
      "type": "function"
    },
    {
      "constant": true,
      "inputs": [],
      "name": "totalSupply",
      "outputs": [
        {
          "name": "",
          "type": "uint256"
        }
      ],
      "payable": false,
      "stateMutability": "view",
      "type": "function"
    },
    {
      "constant": false,
      "inputs": [
        {
          "name": "_from",
          "type": "address"
        },
        {
          "name": "_to",
          "type": "address"
        },
        {
          "name": "_value",
          "type": "uint256"
        }
      ],
      "name": "transferFrom",
      "outputs": [
        {
          "name": "",
          "type": "bool"
        }
      ],
      "payable": false,
      "stateMutability": "nonpayable",
      "type": "function"
    },
    {
      "constant": true,
      "inputs": [],
      "name": "INITIAL_SUPPLY",
      "outputs": [
        {
          "name": "",
          "type": "uint256"
        }
      ],
      "payable": false,
      "stateMutability": "view",
      "type": "function"
    },
    {
      "constant": true,
      "inputs": [],
      "name": "decimals",
      "outputs": [
        {
          "name": "",
          "type": "uint256"
        }
      ],
      "payable": false,
      "stateMutability": "view",
      "type": "function"
    },
    {
      "constant": true,
      "inputs": [
        {
          "name": "_owner",
          "type": "address"
        }
      ],
      "name": "balanceOf",
      "outputs": [
        {
          "name": "balance",
          "type": "uint256"
        }
      ],
      "payable": false,
      "stateMutability": "view",
      "type": "function"
    },
    {
      "constant": true,
      "inputs": [],
      "name": "symbol",
      "outputs": [
        {
          "name": "",
          "type": "string"
        }
      ],
      "payable": false,
      "stateMutability": "view",
      "type": "function"
    },
    {
      "constant": false,
      "inputs": [
        {
          "name": "_to",
          "type": "address"
        },
        {
          "name": "_value",
          "type": "uint256"
        }
      ],
      "name": "transfer",
      "outputs": [
        {
          "name": "",
          "type": "bool"
        }
      ],
      "payable": false,
      "stateMutability": "nonpayable",
      "type": "function"
    },
    {
      "constant": true,
      "inputs": [
        {
          "name": "_owner",
          "type": "address"
        },
        {
          "name": "_spender",
          "type": "address"
        }
      ],
      "name": "allowance",
      "outputs": [
        {
          "name": "remaining",
          "type": "uint256"
        }
      ],
      "payable": false,
      "stateMutability": "view",
      "type": "function"
    },
    {
      "inputs": [
        {
          "name": "_name",
          "type": "string"
        },
        {
          "name": "_symbol",
          "type": "string"
        },
        {
          "name": "_decimals",
          "type": "uint256"
        }
      ],
      "payable": false,
      "stateMutability": "nonpayable",
      "type": "constructor"
    },
    {
      "anonymous": false,
      "inputs": [
        {
          "indexed": true,
          "name": "_burner",
          "type": "address"
        },
        {
          "indexed": false,
          "name": "_value",
          "type": "uint256"
        }
      ],
      "name": "Burn",
      "type": "event"
    },
    {
      "anonymous": false,
      "inputs": [
        {
          "indexed": true,
          "name": "owner",
          "type": "address"
        },
        {
          "indexed": true,
          "name": "spender",
          "type": "address"
        },
        {
          "indexed": false,
          "name": "value",
          "type": "uint256"
        }
      ],
      "name": "Approval",
      "type": "event"
    },
    {
      "anonymous": false,
      "inputs": [
        {
          "indexed": true,
          "name": "from",
          "type": "address"
        },
        {
          "indexed": true,
          "name": "to",
          "type": "address"
        },
        {
          "indexed": false,
          "name": "value",
          "type": "uint256"
        }
      ],
      "name": "Transfer",
      "type": "event"
    },
    {
      "constant": false,
      "inputs": [
        {
          "name": "_value",
          "type": "uint256"
        }
      ],
      "name": "burn",
      "outputs": [
        {
          "name": "",
          "type": "bool"
        }
      ],
      "payable": false,
      "stateMutability": "nonpayable",
      "type": "function"
    },
    {
      "constant": false,
      "inputs": [
        {
          "name": "_from",
          "type": "address"
        },
        {
          "name": "_value",
          "type": "uint256"
        }
      ],
      "name": "burnFrom",
      "outputs": [
        {
          "name": "",
          "type": "bool"
        }
      ],
      "payable": false,
      "stateMutability": "nonpayable",
      "type": "function"
    }
  ],
  "bytecode": "0x60606040526040805190810160405280600481526020017f5465737400000000000000000000000000000000000000000000000000000000815250600390805190602001906200005192919062000196565b506040805190810160405280600381526020017f5453540000000000000000000000000000000000000000000000000000000000815250600490805190602001906200009f92919062000196565b5060126005557c03b58e88c75313ec9d329eaaa18fb92f75215b171000000000000000006006553415620000d257600080fd5b60405162000fb538038062000fb583398101604052808051820191906020018051820191906020018051906020019091905050600654600081905550600654600160003373ffffffffffffffffffffffffffffffffffffffff1673ffffffffffffffffffffffffffffffffffffffff1681526020019081526020016000208190555082600390805190602001906200016c92919062000196565b5081600490805190602001906200018592919062000196565b508060058190555050505062000245565b828054600181600116156101000203166002900490600052602060002090601f016020900481019282601f10620001d957805160ff19168380011785556200020a565b828001600101855582156200020a579182015b8281111562000209578251825591602001919060010190620001ec565b5b5090506200021991906200021d565b5090565b6200024291905b808211156200023e57600081600090555060010162000224565b5090565b90565b610d6080620002556000396000f3006060604052600436106100ba576000357c0100000000000000000000000000000000000000000000000000000000900463ffffffff16806306fdde03146100bf578063095ea7b31461014d57806318160ddd146101a757806323b872dd146101d05780632ff2e9dc14610249578063313ce5671461027257806342966c681461029b57806370a08231146102d657806379cc67901461032357806395d89b411461037d578063a9059cbb1461040b578063dd62ed3e14610465575b600080fd5b34156100ca57600080fd5b6100d26104d1565b6040518080602001828103825283818151815260200191508051906020019080838360005b838110156101125780820151818401526020810190506100f7565b50505050905090810190601f16801561013f5780820380516001836020036101000a031916815260200191505b509250505060405180910390f35b341561015857600080fd5b61018d600480803573ffffffffffffffffffffffffffffffffffffffff1690602001909190803590602001909190505061056f565b604051808215151515815260200191505060405180910390f35b34156101b257600080fd5b6101ba61057a565b6040518082815260200191505060405180910390f35b34156101db57600080fd5b61022f600480803573ffffffffffffffffffffffffffffffffffffffff1690602001909190803573ffffffffffffffffffffffffffffffffffffffff16906020019091908035906020019091905050610580565b604051808215151515815260200191505060405180910390f35b341561025457600080fd5b61025c61083d565b6040518082815260200191505060405180910390f35b341561027d57600080fd5b610285610843565b6040518082815260200191505060405180910390f35b34156102a657600080fd5b6102bc6004808035906020019091905050610849565b604051808215151515815260200191505060405180910390f35b34156102e157600080fd5b61030d600480803573ffffffffffffffffffffffffffffffffffffffff169060200190919050506109b8565b6040518082815260200191505060405180910390f35b341561032e57600080fd5b610363600480803573ffffffffffffffffffffffffffffffffffffffff16906020019091908035906020019091905050610a01565b604051808215151515815260200191505060405180910390f35b341561038857600080fd5b610390610a20565b6040518080602001828103825283818151815260200191508051906020019080838360005b838110156103d05780820151818401526020810190506103b5565b50505050905090810190601f1680156103fd5780820380516001836020036101000a031916815260200191505b509250505060405180910390f35b341561041657600080fd5b61044b600480803573ffffffffffffffffffffffffffffffffffffffff16906020019091908035906020019091905050610abe565b604051808215151515815260200191505060405180910390f35b341561047057600080fd5b6104bb600480803573ffffffffffffffffffffffffffffffffffffffff1690602001909190803573ffffffffffffffffffffffffffffffffffffffff16906020019091905050610c70565b6040518082815260200191505060405180910390f35b60038054600181600116156101000203166002900480601f0160208091040260200160405190810160405280929190818152602001828054600181600116156101000203166002900480156105675780601f1061053c57610100808354040283529160200191610567565b820191906000526020600020905b81548152906001019060200180831161054a57829003601f168201915b505050505081565b600080905092915050565b60005481565b600080600260008673ffffffffffffffffffffffffffffffffffffffff1673ffffffffffffffffffffffffffffffffffffffff16815260200190815260200160002060003373ffffffffffffffffffffffffffffffffffffffff1673ffffffffffffffffffffffffffffffffffffffff1681526020019081526020016000205490508083111561060f57600080fd5b61066183600160008773ffffffffffffffffffffffffffffffffffffffff1673ffffffffffffffffffffffffffffffffffffffff16815260200190815260200160002054610cf790919063ffffffff16565b600160008673ffffffffffffffffffffffffffffffffffffffff1673ffffffffffffffffffffffffffffffffffffffff168152602001908152602001600020819055506106f683600160008873ffffffffffffffffffffffffffffffffffffffff1673ffffffffffffffffffffffffffffffffffffffff16815260200190815260200160002054610d1890919063ffffffff16565b600160008773ffffffffffffffffffffffffffffffffffffffff1673ffffffffffffffffffffffffffffffffffffffff1681526020019081526020016000208190555061074c8382610d1890919063ffffffff16565b600260008773ffffffffffffffffffffffffffffffffffffffff1673ffffffffffffffffffffffffffffffffffffffff16815260200190815260200160002060003373ffffffffffffffffffffffffffffffffffffffff1673ffffffffffffffffffffffffffffffffffffffff168152602001908152602001600020819055508373ffffffffffffffffffffffffffffffffffffffff168573ffffffffffffffffffffffffffffffffffffffff167fddf252ad1be2c89b69c2b068fc378daa952ba7f163c4a11628f55a4df523b3ef856040518082815260200191505060405180910390a360009150509392505050565b60065481565b60055481565b600061089d82600160003373ffffffffffffffffffffffffffffffffffffffff1673ffffffffffffffffffffffffffffffffffffffff16815260200190815260200160002054610d1890919063ffffffff16565b600160003373ffffffffffffffffffffffffffffffffffffffff1673ffffffffffffffffffffffffffffffffffffffff168152602001908152602001600020819055506108f582600054610d1890919063ffffffff16565b6000819055503373ffffffffffffffffffffffffffffffffffffffff167fcc16f5dbb4873280815c1ee09dbd06736cffcc184412cf7a71a0fdb75d397ca5836040518082815260200191505060405180910390a2600073ffffffffffffffffffffffffffffffffffffffff163373ffffffffffffffffffffffffffffffffffffffff167fddf252ad1be2c89b69c2b068fc378daa952ba7f163c4a11628f55a4df523b3ef846040518082815260200191505060405180910390a360009050919050565b6000600160008373ffffffffffffffffffffffffffffffffffffffff1673ffffffffffffffffffffffffffffffffffffffff168152602001908152602001600020549050919050565b6000610a0e833384610580565b50610a1882610849565b905092915050565b60048054600181600116156101000203166002900480601f016020809104026020016040519081016040528092919081815260200182805460018160011615610100020316600290048015610ab65780601f10610a8b57610100808354040283529160200191610ab6565b820191906000526020600020905b815481529060010190602001808311610a9957829003601f168201915b505050505081565b600060406004810160003690501015610ad657600080fd5b610b2883600160003373ffffffffffffffffffffffffffffffffffffffff1673ffffffffffffffffffffffffffffffffffffffff16815260200190815260200160002054610d1890919063ffffffff16565b600160003373ffffffffffffffffffffffffffffffffffffffff1673ffffffffffffffffffffffffffffffffffffffff16815260200190815260200160002081905550610bbd83600160008773ffffffffffffffffffffffffffffffffffffffff1673ffffffffffffffffffffffffffffffffffffffff16815260200190815260200160002054610cf790919063ffffffff16565b600160008673ffffffffffffffffffffffffffffffffffffffff1673ffffffffffffffffffffffffffffffffffffffff168152602001908152602001600020819055508373ffffffffffffffffffffffffffffffffffffffff163373ffffffffffffffffffffffffffffffffffffffff167fddf252ad1be2c89b69c2b068fc378daa952ba7f163c4a11628f55a4df523b3ef856040518082815260200191505060405180910390a3600091505092915050565b6000600260008473ffffffffffffffffffffffffffffffffffffffff1673ffffffffffffffffffffffffffffffffffffffff16815260200190815260200160002060008373ffffffffffffffffffffffffffffffffffffffff1673ffffffffffffffffffffffffffffffffffffffff16815260200190815260200160002054905092915050565b6000808284019050838110151515610d0e57600080fd5b8091505092915050565b6000828211151515610d2957600080fd5b8183039050929150505600a165627a7a7230582064c9986c63334f8a9061352e935d201329bd126157c480b016d2510dc9999b100029",
  "source": "pragma solidity ^0.4.18;\n\n\n/* all this file is based on code from open zepplin\n * https://github.com/OpenZeppelin/zeppelin-solidity/tree/master/contracts/token */\n\n\n/**\n * Standard ERC20 token\n *\n * Based on code by FirstBlood:\n * https://github.com/Firstbloodio/token/blob/master/smart_contract/FirstBloodToken.sol\n */\n\n\n/**\n * Math operations with safety checks\n */\nlibrary SafeMath {\n    function mul(uint a, uint b) internal pure returns (uint) {\n        uint c = a * b;\n        require(a == 0 || c / a == b);\n        return c;\n    }\n\n    function div(uint a, uint b) internal pure returns (uint) {\n        require(b > 0);\n        uint c = a / b;\n        require(a == b * c + a % b);\n        return c;\n    }\n\n    function sub(uint a, uint b) internal pure returns (uint) {\n        require(b <= a);\n        return a - b;\n    }\n\n    function add(uint a, uint b) internal pure returns (uint) {\n        uint c = a + b;\n        require(c >= a);\n        return c;\n    }\n\n    function max64(uint64 a, uint64 b) internal pure returns (uint64) {\n        return a >= b ? a : b;\n    }\n\n    function min64(uint64 a, uint64 b) internal pure returns (uint64) {\n        return a < b ? a : b;\n    }\n\n    function max256(uint256 a, uint256 b) internal pure returns (uint256) {\n        return a >= b ? a : b;\n    }\n\n    function min256(uint256 a, uint256 b) internal pure returns (uint256) {\n        return a < b ? a : b;\n    }\n}\n\n\n////////////////////////////////////////////////////////////////////////////////\n\n/*\n * ERC20Basic\n * Simpler version of ERC20 interface\n * see https://github.com/ethereum/EIPs/issues/20\n */\ncontract ERC20Basic {\n    uint public totalSupply;\n    function balanceOf(address who) public view returns (uint);\n    function transfer(address to, uint value) public returns (bool);\n    event Transfer(address indexed from, address indexed to, uint value);\n}\n\n////////////////////////////////////////////////////////////////////////////////\n\n/*\n * ERC20 interface\n * see https://github.com/ethereum/EIPs/issues/20\n */\ncontract ERC20 is ERC20Basic {\n    function allowance(address owner, address spender) public view returns (uint);\n    function transferFrom(address from, address to, uint value) public returns (bool);\n    function approve(address spender, uint value) public returns (bool);\n    event Approval(address indexed owner, address indexed spender, uint value);\n}\n\n////////////////////////////////////////////////////////////////////////////////\n\n/*\n * Basic token\n * Basic version of StandardToken, with no allowances\n */\ncontract BasicToken is ERC20Basic {\n    using SafeMath for uint;\n\n    mapping(address => uint) balances;\n\n    /*\n     * Fix for the ERC20 short address attack\n     */\n    modifier onlyPayloadSize(uint size) {\n        if (msg.data.length < size + 4) {\n            revert();\n        }\n        _;\n    }\n\n    function transfer(address _to, uint _value)  public onlyPayloadSize(2 * 32) returns (bool) {\n        balances[msg.sender] = balances[msg.sender].sub(_value);\n        balances[_to] = balances[_to].add(_value);\n        Transfer(msg.sender, _to, _value);\n        return false;\n    }\n\n    function balanceOf(address _owner) public view returns (uint balance) {\n        return balances[_owner];\n    }\n}\n\n\n////////////////////////////////////////////////////////////////////////////////\n\n/**\n * Standard ERC20 token\n *\n * https://github.com/ethereum/EIPs/issues/20\n * Based on code by FirstBlood:\n * https://github.com/Firstbloodio/token/blob/master/smart_contract/FirstBloodToken.sol\n */\ncontract StandardToken is BasicToken, ERC20 {\n\n    mapping (address => mapping (address => uint)) allowed;\n\n    function transferFrom(address _from, address _to, uint _value) public returns (bool) {\n\n        var _allowance = allowed[_from][msg.sender];\n\n        // Check is not needed because sub(_allowance, _value) will already revert if this condition is not met\n        if (_value > _allowance) revert();\n\n        balances[_to] = balances[_to].add(_value);\n        balances[_from] = balances[_from].sub(_value);\n        allowed[_from][msg.sender] = _allowance.sub(_value);\n        Transfer(_from, _to, _value);\n        return false;\n    }\n\n    function approve(address _spender, uint _value) public returns (bool) {\n        _spender;\n        _value;\n        return false;\n    }\n\n    function allowance(address _owner, address _spender) public view returns (uint remaining) {\n        return allowed[_owner][_spender];\n    }\n}\n\n////////////////////////////////////////////////////////////////////////////////\n\n/*\n * SimpleToken\n *\n * Very simple ERC20 Token example, where all tokens are pre-assigned\n * to the creator. Note they can later distribute these tokens\n * as they wish using `transfer` and other `StandardToken` functions.\n */\ncontract TestTokenFailing is StandardToken {\n\n    string public name = \"Test\";\n    string public symbol = \"TST\";\n    uint public decimals = 18;\n    uint public INITIAL_SUPPLY = 10**(50+18);\n\n    function TestTokenFailing(string _name, string _symbol, uint _decimals) public {\n        totalSupply = INITIAL_SUPPLY;\n        balances[msg.sender] = INITIAL_SUPPLY;\n        name = _name;\n        symbol = _symbol;\n        decimals = _decimals;\n    }\n\n    event Burn(address indexed _burner, uint _value);\n\n    function burn(uint _value) public returns (bool) {\n        balances[msg.sender] = balances[msg.sender].sub(_value);\n        totalSupply = totalSupply.sub(_value);\n        Burn(msg.sender, _value);\n        Transfer(msg.sender, address(0x0), _value);\n        return false;\n    }\n\n    // save some gas by making only one contract call\n    function burnFrom(address _from, uint256 _value) public returns (bool) {\n        transferFrom( _from, msg.sender, _value );\n        return burn(_value);\n    }\n}\n",
  "sourcePath": "/Users/oscarr/Ethereum/frappe/contracts/mockContracts/TestTokenFailing.sol",
  "compiler": {
    "name": "solc",
    "version": "0.4.18+commit.9cf6e910.Emscripten.clang"
  },
  "schemaVersion": "3.0.6",
  "updatedAt": "2019-05-18T17:14:13.291Z",
  "devdoc": {
    "methods": {}
  },
  "userdoc": {
    "methods": {}
  }
}