{
  "contractName": "testBytes32",
  "abi": [
    {
      "constant": true,
      "inputs": [],
      "name": "localHint",
      "outputs": [
        {
          "name": "",
          "type": "bytes"
        }
      ],
      "payable": false,
      "stateMutability": "view",
      "type": "function"
    },
    {
      "inputs": [
        {
          "name": "",
          "type": "bytes"
        }
      ],
      "payable": false,
      "stateMutability": "nonpayable",
      "type": "constructor"
    },
    {
      "anonymous": false,
      "inputs": [
        {
          "indexed": false,
          "name": "sentHint",
          "type": "bytes"
        },
        {
          "indexed": false,
          "name": "localHint",
          "type": "bytes"
        }
      ],
      "name": "TestBytes",
      "type": "event"
    },
    {
      "constant": false,
      "inputs": [
        {
          "name": "hint",
          "type": "bytes"
        }
      ],
      "name": "testBytes",
      "outputs": [],
      "payable": false,
      "stateMutability": "nonpayable",
      "type": "function"
    }
  ],
  "bytecode": "0x6060604052341561000f57600080fd5b6040516105e93803806105e98339810160405280805182019190505060507f01000000000000000000000000000000000000000000000000000000000000000260016000815460018160011615610100020316600290048110151561007057fe5b81546001161561008f5790600052602060002090602091828204019190065b601f036101000a81548160ff021916907f01000000000000000000000000000000000000000000000000000000000000008404021790555060457f010000000000000000000000000000000000000000000000000000000000000002600180815460018160011615610100020316600290048110151561010b57fe5b81546001161561012a5790600052602060002090602091828204019190065b601f036101000a81548160ff021916907f01000000000000000000000000000000000000000000000000000000000000008404021790555060527f0100000000000000000000000000000000000000000000000000000000000000026001600281546001816001161561010002031660029004811015156101a757fe5b8154600116156101c65790600052602060002090602091828204019190065b601f036101000a81548160ff021916907f010000000000000000000000000000000000000000000000000000000000000084040217905550604d7f01000000000000000000000000000000000000000000000000000000000000000260016003815460018160011615610100020316600290048110151561024357fe5b8154600116156102625790600052602060002090602091828204019190065b601f036101000a81548160ff021916907f0100000000000000000000000000000000000000000000000000000000000000840402179055505061033f806102aa6000396000f30060606040526004361061004c576000357c0100000000000000000000000000000000000000000000000000000000900463ffffffff1680633ca8b1a714610051578063c0fa3b3a146100ae575b600080fd5b341561005c57600080fd5b6100ac600480803590602001908201803590602001908080601f0160208091040260200160405190810160405280939291908181526020018383808284378201915050505050509190505061013c565b005b34156100b957600080fd5b6100c1610275565b6040518080602001828103825283818151815260200191508051906020019080838360005b838110156101015780820151818401526020810190506100e6565b50505050905090810190601f16801561012e5780820380516001836020036101000a031916815260200191505b509250505060405180910390f35b6000808154600101919050819055507f057e88f66b6be94a307d97910504dd5a4c2123fd59f1b0238ab6d0c6a7460f66816001604051808060200180602001838103835285818151815260200191508051906020019080838360005b838110156101b3578082015181840152602081019050610198565b50505050905090810190601f1680156101e05780820380516001836020036101000a031916815260200191505b508381038252848181546001816001161561010002031660029004815260200191508054600181600116156101000203166002900480156102625780601f1061023757610100808354040283529160200191610262565b820191906000526020600020905b81548152906001019060200180831161024557829003601f168201915b505094505050505060405180910390a150565b60018054600181600116156101000203166002900480601f01602080910402602001604051908101604052809291908181526020018280546001816001161561010002031660029004801561030b5780601f106102e05761010080835404028352916020019161030b565b820191906000526020600020905b8154815290600101906020018083116102ee57829003601f168201915b5050505050815600a165627a7a723058201ff9141abeb482daae4315a8e675a2e972ab5d91fd64f449ab41cf04057baae40029",
  "source": "pragma solidity 0.4.18;\n\ncontract testBytes32 {\n\n    uint numTests;\n    bytes public localHint;\n\n    function testBytes32(bytes) public{\n        localHint[0] = byte(80);\n        localHint[1] = byte(69);\n        localHint[2] = byte(82);\n        localHint[3] = byte(77);\n    }\n\n    event TestBytes(bytes sentHint, bytes localHint);\n    function testBytes(bytes hint) public {\n        ++numTests;\n        TestBytes(hint, localHint);\n    }\n}\n",
  "sourcePath": "/Users/oscarr/Ethereum/frappe/contracts/permissionless/mock/TestBytes32.sol",
  "compiler": {
    "name": "solc",
    "version": "0.4.18+commit.9cf6e910.Emscripten.clang"
  },
  "schemaVersion": "3.0.6",
  "updatedAt": "2019-05-18T17:14:13.502Z",
  "devdoc": {
    "methods": {}
  },
  "userdoc": {
    "methods": {}
  }
}