{
  "contractName": "TestingKyberUniswapReserve",
  "abi": [
    {
      "constant": false,
      "inputs": [],
      "name": "enableTrade",
      "outputs": [
        {
          "name": "",
          "type": "bool"
        }
      ],
      "payable": false,
      "stateMutability": "nonpayable",
      "type": "function"
    },
    {
      "constant": false,
      "inputs": [
        {
          "name": "alerter",
          "type": "address"
        }
      ],
      "name": "removeAlerter",
      "outputs": [],
      "payable": false,
      "stateMutability": "nonpayable",
      "type": "function"
    },
    {
      "constant": true,
      "inputs": [
        {
          "name": "",
          "type": "address"
        }
      ],
      "name": "tokenExchange",
      "outputs": [
        {
          "name": "",
          "type": "address"
        }
      ],
      "payable": false,
      "stateMutability": "view",
      "type": "function"
    },
    {
      "constant": true,
      "inputs": [
        {
          "name": "",
          "type": "address"
        }
      ],
      "name": "internalPricePremiumBps",
      "outputs": [
        {
          "name": "",
          "type": "uint256"
        }
      ],
      "payable": false,
      "stateMutability": "view",
      "type": "function"
    },
    {
      "constant": false,
      "inputs": [
        {
          "name": "token",
          "type": "address"
        }
      ],
      "name": "listToken",
      "outputs": [],
      "payable": false,
      "stateMutability": "nonpayable",
      "type": "function"
    },
    {
      "constant": true,
      "inputs": [],
      "name": "feeBps",
      "outputs": [
        {
          "name": "",
          "type": "uint256"
        }
      ],
      "payable": false,
      "stateMutability": "view",
      "type": "function"
    },
    {
      "constant": true,
      "inputs": [],
      "name": "pendingAdmin",
      "outputs": [
        {
          "name": "",
          "type": "address"
        }
      ],
      "payable": false,
      "stateMutability": "view",
      "type": "function"
    },
    {
      "constant": true,
      "inputs": [],
      "name": "getOperators",
      "outputs": [
        {
          "name": "",
          "type": "address[]"
        }
      ],
      "payable": false,
      "stateMutability": "view",
      "type": "function"
    },
    {
      "constant": true,
      "inputs": [],
      "name": "DEFAULT_FEE_BPS",
      "outputs": [
        {
          "name": "",
          "type": "uint256"
        }
      ],
      "payable": false,
      "stateMutability": "view",
      "type": "function"
    },
    {
      "constant": true,
      "inputs": [
        {
          "name": "token",
          "type": "address"
        },
        {
          "name": "amount",
          "type": "uint256"
        }
      ],
      "name": "addPremium",
      "outputs": [
        {
          "name": "",
          "type": "uint256"
        }
      ],
      "payable": false,
      "stateMutability": "view",
      "type": "function"
    },
    {
      "constant": false,
      "inputs": [
        {
          "name": "token",
          "type": "address"
        },
        {
          "name": "amount",
          "type": "uint256"
        },
        {
          "name": "sendTo",
          "type": "address"
        }
      ],
      "name": "withdrawToken",
      "outputs": [],
      "payable": false,
      "stateMutability": "nonpayable",
      "type": "function"
    },
    {
      "constant": false,
      "inputs": [
        {
          "name": "newAlerter",
          "type": "address"
        }
      ],
      "name": "addAlerter",
      "outputs": [],
      "payable": false,
      "stateMutability": "nonpayable",
      "type": "function"
    },
    {
      "constant": true,
      "inputs": [
        {
          "name": "",
          "type": "address"
        }
      ],
      "name": "internalInventoryMin",
      "outputs": [
        {
          "name": "",
          "type": "uint256"
        }
      ],
      "payable": false,
      "stateMutability": "view",
      "type": "function"
    },
    {
      "constant": false,
      "inputs": [
        {
          "name": "_kyberNetwork",
          "type": "address"
        }
      ],
      "name": "setKyberNetwork",
      "outputs": [],
      "payable": false,
      "stateMutability": "nonpayable",
      "type": "function"
    },
    {
      "constant": true,
      "inputs": [
        {
          "name": "srcToken",
          "type": "address"
        },
        {
          "name": "srcAmount",
          "type": "uint256"
        },
        {
          "name": "destToken",
          "type": "address"
        },
        {
          "name": "destAmount",
          "type": "uint256"
        },
        {
          "name": "rateSrcDest",
          "type": "uint256"
        },
        {
          "name": "rateDestSrc",
          "type": "uint256"
        }
      ],
      "name": "shouldUseInternalInventory",
      "outputs": [
        {
          "name": "",
          "type": "bool"
        }
      ],
      "payable": false,
      "stateMutability": "view",
      "type": "function"
    },
    {
      "constant": false,
      "inputs": [],
      "name": "disableTrade",
      "outputs": [
        {
          "name": "",
          "type": "bool"
        }
      ],
      "payable": false,
      "stateMutability": "nonpayable",
      "type": "function"
    },
    {
      "constant": false,
      "inputs": [
        {
          "name": "bps",
          "type": "uint256"
        }
      ],
      "name": "setFee",
      "outputs": [],
      "payable": false,
      "stateMutability": "nonpayable",
      "type": "function"
    },
    {
      "constant": false,
      "inputs": [
        {
          "name": "srcToken",
          "type": "address"
        },
        {
          "name": "srcAmount",
          "type": "uint256"
        },
        {
          "name": "destToken",
          "type": "address"
        },
        {
          "name": "destAddress",
          "type": "address"
        },
        {
          "name": "conversionRate",
          "type": "uint256"
        },
        {
          "name": "validate",
          "type": "bool"
        }
      ],
      "name": "trade",
      "outputs": [
        {
          "name": "",
          "type": "bool"
        }
      ],
      "payable": true,
      "stateMutability": "payable",
      "type": "function"
    },
    {
      "constant": false,
      "inputs": [
        {
          "name": "newAdmin",
          "type": "address"
        }
      ],
      "name": "transferAdmin",
      "outputs": [],
      "payable": false,
      "stateMutability": "nonpayable",
      "type": "function"
    },
    {
      "constant": false,
      "inputs": [],
      "name": "claimAdmin",
      "outputs": [],
      "payable": false,
      "stateMutability": "nonpayable",
      "type": "function"
    },
    {
      "constant": false,
      "inputs": [
        {
          "name": "newAdmin",
          "type": "address"
        }
      ],
      "name": "transferAdminQuickly",
      "outputs": [],
      "payable": false,
      "stateMutability": "nonpayable",
      "type": "function"
    },
    {
      "constant": true,
      "inputs": [
        {
          "name": "src",
          "type": "address"
        },
        {
          "name": "dest",
          "type": "address"
        }
      ],
      "name": "isValidTokens",
      "outputs": [
        {
          "name": "",
          "type": "bool"
        }
      ],
      "payable": false,
      "stateMutability": "view",
      "type": "function"
    },
    {
      "constant": false,
      "inputs": [
        {
          "name": "token",
          "type": "address"
        },
        {
          "name": "minSpreadBps",
          "type": "uint256"
        },
        {
          "name": "premiumBps",
          "type": "uint256"
        }
      ],
      "name": "setInternalActivationConfig",
      "outputs": [],
      "payable": false,
      "stateMutability": "nonpayable",
      "type": "function"
    },
    {
      "constant": true,
      "inputs": [],
      "name": "getAlerters",
      "outputs": [
        {
          "name": "",
          "type": "address[]"
        }
      ],
      "payable": false,
      "stateMutability": "view",
      "type": "function"
    },
    {
      "constant": true,
      "inputs": [
        {
          "name": "src",
          "type": "address"
        },
        {
          "name": "dest",
          "type": "address"
        },
        {
          "name": "srcQty",
          "type": "uint256"
        },
        {
          "name": "blockNumber",
          "type": "uint256"
        }
      ],
      "name": "getConversionRate",
      "outputs": [
        {
          "name": "",
          "type": "uint256"
        }
      ],
      "payable": false,
      "stateMutability": "view",
      "type": "function"
    },
    {
      "constant": true,
      "inputs": [],
      "name": "uniswapFactory",
      "outputs": [
        {
          "name": "",
          "type": "address"
        }
      ],
      "payable": false,
      "stateMutability": "view",
      "type": "function"
    },
    {
      "constant": false,
      "inputs": [
        {
          "name": "newOperator",
          "type": "address"
        }
      ],
      "name": "addOperator",
      "outputs": [],
      "payable": false,
      "stateMutability": "nonpayable",
      "type": "function"
    },
    {
      "constant": true,
      "inputs": [
        {
          "name": "",
          "type": "address"
        }
      ],
      "name": "internalInventoryMax",
      "outputs": [
        {
          "name": "",
          "type": "uint256"
        }
      ],
      "payable": false,
      "stateMutability": "view",
      "type": "function"
    },
    {
      "constant": false,
      "inputs": [
        {
          "name": "token",
          "type": "address"
        },
        {
          "name": "minBalance",
          "type": "uint256"
        },
        {
          "name": "maxBalance",
          "type": "uint256"
        }
      ],
      "name": "setInternalInventoryLimits",
      "outputs": [],
      "payable": false,
      "stateMutability": "nonpayable",
      "type": "function"
    },
    {
      "constant": true,
      "inputs": [
        {
          "name": "amount",
          "type": "uint256"
        }
      ],
      "name": "deductFee",
      "outputs": [
        {
          "name": "",
          "type": "uint256"
        }
      ],
      "payable": false,
      "stateMutability": "view",
      "type": "function"
    },
    {
      "constant": false,
      "inputs": [
        {
          "name": "token",
          "type": "address"
        }
      ],
      "name": "delistToken",
      "outputs": [],
      "payable": false,
      "stateMutability": "nonpayable",
      "type": "function"
    },
    {
      "constant": false,
      "inputs": [
        {
          "name": "operator",
          "type": "address"
        }
      ],
      "name": "removeOperator",
      "outputs": [],
      "payable": false,
      "stateMutability": "nonpayable",
      "type": "function"
    },
    {
      "constant": true,
      "inputs": [],
      "name": "kyberNetwork",
      "outputs": [
        {
          "name": "",
          "type": "address"
        }
      ],
      "payable": false,
      "stateMutability": "view",
      "type": "function"
    },
    {
      "constant": true,
      "inputs": [
        {
          "name": "_askRate",
          "type": "uint256"
        },
        {
          "name": "_bidRate",
          "type": "uint256"
        }
      ],
      "name": "calculateSpreadBps",
      "outputs": [
        {
          "name": "",
          "type": "int256"
        }
      ],
      "payable": false,
      "stateMutability": "pure",
      "type": "function"
    },
    {
      "constant": true,
      "inputs": [
        {
          "name": "",
          "type": "address"
        }
      ],
      "name": "internalActivationMinSpreadBps",
      "outputs": [
        {
          "name": "",
          "type": "uint256"
        }
      ],
      "payable": false,
      "stateMutability": "view",
      "type": "function"
    },
    {
      "constant": false,
      "inputs": [
        {
          "name": "amount",
          "type": "uint256"
        },
        {
          "name": "sendTo",
          "type": "address"
        }
      ],
      "name": "withdrawEther",
      "outputs": [],
      "payable": false,
      "stateMutability": "nonpayable",
      "type": "function"
    },
    {
      "constant": true,
      "inputs": [
        {
          "name": "token",
          "type": "address"
        },
        {
          "name": "user",
          "type": "address"
        }
      ],
      "name": "getBalance",
      "outputs": [
        {
          "name": "",
          "type": "uint256"
        }
      ],
      "payable": false,
      "stateMutability": "view",
      "type": "function"
    },
    {
      "constant": true,
      "inputs": [],
      "name": "tradeEnabled",
      "outputs": [
        {
          "name": "",
          "type": "bool"
        }
      ],
      "payable": false,
      "stateMutability": "view",
      "type": "function"
    },
    {
      "constant": true,
      "inputs": [],
      "name": "admin",
      "outputs": [
        {
          "name": "",
          "type": "address"
        }
      ],
      "payable": false,
      "stateMutability": "view",
      "type": "function"
    },
    {
      "inputs": [
        {
          "name": "_uniswapFactory",
          "type": "address"
        },
        {
          "name": "_admin",
          "type": "address"
        },
        {
          "name": "_kyberNetwork",
          "type": "address"
        }
      ],
      "payable": false,
      "stateMutability": "nonpayable",
      "type": "constructor"
    },
    {
      "payable": true,
      "stateMutability": "payable",
      "type": "fallback"
    },
    {
      "anonymous": false,
      "inputs": [
        {
          "indexed": true,
          "name": "sender",
          "type": "address"
        },
        {
          "indexed": false,
          "name": "src",
          "type": "address"
        },
        {
          "indexed": false,
          "name": "srcAmount",
          "type": "uint256"
        },
        {
          "indexed": false,
          "name": "destToken",
          "type": "address"
        },
        {
          "indexed": false,
          "name": "destAmount",
          "type": "uint256"
        },
        {
          "indexed": false,
          "name": "destAddress",
          "type": "address"
        },
        {
          "indexed": false,
          "name": "useInternalInventory",
          "type": "bool"
        }
      ],
      "name": "TradeExecute",
      "type": "event"
    },
    {
      "anonymous": false,
      "inputs": [
        {
          "indexed": false,
          "name": "bps",
          "type": "uint256"
        }
      ],
      "name": "FeeUpdated",
      "type": "event"
    },
    {
      "anonymous": false,
      "inputs": [
        {
          "indexed": false,
          "name": "token",
          "type": "address"
        },
        {
          "indexed": false,
          "name": "minSpreadBps",
          "type": "uint256"
        },
        {
          "indexed": false,
          "name": "premiumBps",
          "type": "uint256"
        }
      ],
      "name": "InternalActivationConfigUpdated",
      "type": "event"
    },
    {
      "anonymous": false,
      "inputs": [
        {
          "indexed": false,
          "name": "token",
          "type": "address"
        },
        {
          "indexed": false,
          "name": "minBalance",
          "type": "uint256"
        },
        {
          "indexed": false,
          "name": "maxBalance",
          "type": "uint256"
        }
      ],
      "name": "InternalInventoryLimitsUpdated",
      "type": "event"
    },
    {
      "anonymous": false,
      "inputs": [
        {
          "indexed": false,
          "name": "token",
          "type": "address"
        },
        {
          "indexed": false,
          "name": "exchange",
          "type": "address"
        }
      ],
      "name": "TokenListed",
      "type": "event"
    },
    {
      "anonymous": false,
      "inputs": [
        {
          "indexed": false,
          "name": "token",
          "type": "address"
        }
      ],
      "name": "TokenDelisted",
      "type": "event"
    },
    {
      "anonymous": false,
      "inputs": [
        {
          "indexed": false,
          "name": "enable",
          "type": "bool"
        }
      ],
      "name": "TradeEnabled",
      "type": "event"
    },
    {
      "anonymous": false,
      "inputs": [
        {
          "indexed": false,
          "name": "kyberNetwork",
          "type": "address"
        }
      ],
      "name": "KyberNetworkSet",
      "type": "event"
    },
    {
      "anonymous": false,
      "inputs": [
        {
          "indexed": false,
          "name": "token",
          "type": "address"
        },
        {
          "indexed": false,
          "name": "amount",
          "type": "uint256"
        },
        {
          "indexed": false,
          "name": "sendTo",
          "type": "address"
        }
      ],
      "name": "TokenWithdraw",
      "type": "event"
    },
    {
      "anonymous": false,
      "inputs": [
        {
          "indexed": false,
          "name": "amount",
          "type": "uint256"
        },
        {
          "indexed": false,
          "name": "sendTo",
          "type": "address"
        }
      ],
      "name": "EtherWithdraw",
      "type": "event"
    },
    {
      "anonymous": false,
      "inputs": [
        {
          "indexed": false,
          "name": "pendingAdmin",
          "type": "address"
        }
      ],
      "name": "TransferAdminPending",
      "type": "event"
    },
    {
      "anonymous": false,
      "inputs": [
        {
          "indexed": false,
          "name": "newAdmin",
          "type": "address"
        },
        {
          "indexed": false,
          "name": "previousAdmin",
          "type": "address"
        }
      ],
      "name": "AdminClaimed",
      "type": "event"
    },
    {
      "anonymous": false,
      "inputs": [
        {
          "indexed": false,
          "name": "newAlerter",
          "type": "address"
        },
        {
          "indexed": false,
          "name": "isAdd",
          "type": "bool"
        }
      ],
      "name": "AlerterAdded",
      "type": "event"
    },
    {
      "anonymous": false,
      "inputs": [
        {
          "indexed": false,
          "name": "newOperator",
          "type": "address"
        },
        {
          "indexed": false,
          "name": "isAdd",
          "type": "bool"
        }
      ],
      "name": "OperatorAdded",
      "type": "event"
    },
    {
      "constant": true,
      "inputs": [
        {
          "name": "token",
          "type": "address"
        }
      ],
      "name": "getTokenDecimals",
      "outputs": [
        {
          "name": "",
          "type": "uint256"
        }
      ],
      "payable": false,
      "stateMutability": "view",
      "type": "function"
    }
  ],
  "bytecode": "0x606060405260196009556001600f60006101000a81548160ff02191690831515021790555034156200003057600080fd5b60405160608062004a8883398101604052808051906020019091908051906020019091908051906020019091905050828282336000806101000a81548173ffffffffffffffffffffffffffffffffffffffff021916908373ffffffffffffffffffffffffffffffffffffffff16021790555060008373ffffffffffffffffffffffffffffffffffffffff1614151515620000c957600080fd5b60008273ffffffffffffffffffffffffffffffffffffffff1614151515620000f057600080fd5b60008173ffffffffffffffffffffffffffffffffffffffff16141515156200011757600080fd5b82600760006101000a81548173ffffffffffffffffffffffffffffffffffffffff021916908373ffffffffffffffffffffffffffffffffffffffff160217905550816000806101000a81548173ffffffffffffffffffffffffffffffffffffffff021916908373ffffffffffffffffffffffffffffffffffffffff16021790555080600860006101000a81548173ffffffffffffffffffffffffffffffffffffffff021916908373ffffffffffffffffffffffffffffffffffffffff16021790555050505050505061489980620001ef6000396000f3006060604052600436106101ed576000357c0100000000000000000000000000000000000000000000000000000000900463ffffffff16806299d386146101ef57806301a12fd31461021c5780630dd94b96146102555780631db95078146102ce5780631fc1e25f1461031b57806324a9d85314610354578063267822471461037d57806327a099d8146103d257806333d8262c1461043c5780633a6e7d39146104655780633ccdbb28146104bb578063408ee7fe1461051c57806348caa2061461055557806354a325a6146105a25780635a65d4c9146105db5780636940030f1461066f57806369fe0e2d1461069c5780636cf69811146106bf57806375829def1461076057806377f50f9714610799578063785c7cf6146107ae5780637acc8678146107fb5780637be98598146108345780637bec03aa146108a45780637c423f54146108ef5780637cd44272146109595780638bdb2afa146109d75780639870d7fe14610a2c578063998614cb14610a655780639b9a33ff14610ab2578063a9afaaaf14610afd578063abffc9ac14610b34578063ac8a584a14610b6d578063b78b842d14610ba6578063bc91970a14610bfb578063c3e0d71214610c3b578063ce56c45414610c88578063d4fac45d14610cca578063d621e81314610d36578063f851a44014610d63575b005b34156101fa57600080fd5b610202610db8565b604051808215151515815260200191505060405180910390f35b341561022757600080fd5b610253600480803573ffffffffffffffffffffffffffffffffffffffff16906020019091905050610e73565b005b341561026057600080fd5b61028c600480803573ffffffffffffffffffffffffffffffffffffffff16906020019091905050611135565b604051808273ffffffffffffffffffffffffffffffffffffffff1673ffffffffffffffffffffffffffffffffffffffff16815260200191505060405180910390f35b34156102d957600080fd5b610305600480803573ffffffffffffffffffffffffffffffffffffffff16906020019091905050611168565b6040518082815260200191505060405180910390f35b341561032657600080fd5b610352600480803573ffffffffffffffffffffffffffffffffffffffff16906020019091905050611180565b005b341561035f57600080fd5b61036761162b565b6040518082815260200191505060405180910390f35b341561038857600080fd5b610390611631565b604051808273ffffffffffffffffffffffffffffffffffffffff1673ffffffffffffffffffffffffffffffffffffffff16815260200191505060405180910390f35b34156103dd57600080fd5b6103e5611657565b6040518080602001828103825283818151815260200191508051906020019060200280838360005b8381101561042857808201518184015260208101905061040d565b505050509050019250505060405180910390f35b341561044757600080fd5b61044f6116eb565b6040518082815260200191505060405180910390f35b341561047057600080fd5b6104a5600480803573ffffffffffffffffffffffffffffffffffffffff169060200190919080359060200190919050506116f0565b6040518082815260200191505060405180910390f35b34156104c657600080fd5b61051a600480803573ffffffffffffffffffffffffffffffffffffffff1690602001909190803590602001909190803573ffffffffffffffffffffffffffffffffffffffff16906020019091905050611768565b005b341561052757600080fd5b610553600480803573ffffffffffffffffffffffffffffffffffffffff16906020019091905050611938565b005b341561056057600080fd5b61058c600480803573ffffffffffffffffffffffffffffffffffffffff16906020019091905050611b2e565b6040518082815260200191505060405180910390f35b34156105ad57600080fd5b6105d9600480803573ffffffffffffffffffffffffffffffffffffffff16906020019091905050611b46565b005b34156105e657600080fd5b610655600480803573ffffffffffffffffffffffffffffffffffffffff1690602001909190803590602001909190803573ffffffffffffffffffffffffffffffffffffffff16906020019091908035906020019091908035906020019091908035906020019091905050611c90565b604051808215151515815260200191505060405180910390f35b341561067a57600080fd5b610682612006565b604051808215151515815260200191505060405180910390f35b34156106a757600080fd5b6106bd60048080359060200190919050506120be565b005b610746600480803573ffffffffffffffffffffffffffffffffffffffff1690602001909190803590602001909190803573ffffffffffffffffffffffffffffffffffffffff1690602001909190803573ffffffffffffffffffffffffffffffffffffffff16906020019091908035906020019091908035151590602001909190505061216b565b604051808215151515815260200191505060405180910390f35b341561076b57600080fd5b610797600480803573ffffffffffffffffffffffffffffffffffffffff169060200190919050506128eb565b005b34156107a457600080fd5b6107ac612a4b565b005b34156107b957600080fd5b6107e5600480803573ffffffffffffffffffffffffffffffffffffffff16906020019091905050612c27565b6040518082815260200191505060405180910390f35b341561080657600080fd5b610832600480803573ffffffffffffffffffffffffffffffffffffffff16906020019091905050612c70565b005b341561083f57600080fd5b61088a600480803573ffffffffffffffffffffffffffffffffffffffff1690602001909190803573ffffffffffffffffffffffffffffffffffffffff16906020019091905050612e65565b604051808215151515815260200191505060405180910390f35b34156108af57600080fd5b6108ed600480803573ffffffffffffffffffffffffffffffffffffffff1690602001909190803590602001909190803590602001909190505061302c565b005b34156108fa57600080fd5b610902613244565b6040518080602001828103825283818151815260200191508051906020019060200280838360005b8381101561094557808201518184015260208101905061092a565b505050509050019250505060405180910390f35b341561096457600080fd5b6109c1600480803573ffffffffffffffffffffffffffffffffffffffff1690602001909190803573ffffffffffffffffffffffffffffffffffffffff169060200190919080359060200190919080359060200190919050506132d8565b6040518082815260200191505060405180910390f35b34156109e257600080fd5b6109ea61345d565b604051808273ffffffffffffffffffffffffffffffffffffffff1673ffffffffffffffffffffffffffffffffffffffff16815260200191505060405180910390f35b3415610a3757600080fd5b610a63600480803573ffffffffffffffffffffffffffffffffffffffff16906020019091905050613483565b005b3415610a7057600080fd5b610a9c600480803573ffffffffffffffffffffffffffffffffffffffff16906020019091905050613679565b6040518082815260200191505060405180910390f35b3415610abd57600080fd5b610afb600480803573ffffffffffffffffffffffffffffffffffffffff16906020019091908035906020019091908035906020019091905050613691565b005b3415610b0857600080fd5b610b1e6004808035906020019091905050613884565b6040518082815260200191505060405180910390f35b3415610b3f57600080fd5b610b6b600480803573ffffffffffffffffffffffffffffffffffffffff169060200190919050506138a3565b005b3415610b7857600080fd5b610ba4600480803573ffffffffffffffffffffffffffffffffffffffff16906020019091905050613b6d565b005b3415610bb157600080fd5b610bb9613e32565b604051808273ffffffffffffffffffffffffffffffffffffffff1673ffffffffffffffffffffffffffffffffffffffff16815260200191505060405180910390f35b3415610c0657600080fd5b610c256004808035906020019091908035906020019091905050613e58565b6040518082815260200191505060405180910390f35b3415610c4657600080fd5b610c72600480803573ffffffffffffffffffffffffffffffffffffffff16906020019091905050613e81565b6040518082815260200191505060405180910390f35b3415610c9357600080fd5b610cc8600480803590602001909190803573ffffffffffffffffffffffffffffffffffffffff16906020019091905050613e99565b005b3415610cd557600080fd5b610d20600480803573ffffffffffffffffffffffffffffffffffffffff1690602001909190803573ffffffffffffffffffffffffffffffffffffffff16906020019091905050613fa3565b6040518082815260200191505060405180910390f35b3415610d4157600080fd5b610d496140d3565b604051808215151515815260200191505060405180910390f35b3415610d6e57600080fd5b610d766140e6565b604051808273ffffffffffffffffffffffffffffffffffffffff1673ffffffffffffffffffffffffffffffffffffffff16815260200191505060405180910390f35b60008060009054906101000a900473ffffffffffffffffffffffffffffffffffffffff1673ffffffffffffffffffffffffffffffffffffffff163373ffffffffffffffffffffffffffffffffffffffff16141515610e1557600080fd5b6001600f60006101000a81548160ff0219169083151502179055507f7d7f00509dd73ac4449f698ae75ccc797895eff5fa9d446d3df387598a26e7356001604051808215151515815260200191505060405180910390a16001905090565b60008060009054906101000a900473ffffffffffffffffffffffffffffffffffffffff1673ffffffffffffffffffffffffffffffffffffffff163373ffffffffffffffffffffffffffffffffffffffff16141515610ed057600080fd5b600360008373ffffffffffffffffffffffffffffffffffffffff1673ffffffffffffffffffffffffffffffffffffffff16815260200190815260200160002060009054906101000a900460ff161515610f2857600080fd5b6000600360008473ffffffffffffffffffffffffffffffffffffffff1673ffffffffffffffffffffffffffffffffffffffff16815260200190815260200160002060006101000a81548160ff021916908315150217905550600090505b600580549050811015611131578173ffffffffffffffffffffffffffffffffffffffff16600582815481101515610fb857fe5b906000526020600020900160009054906101000a900473ffffffffffffffffffffffffffffffffffffffff1673ffffffffffffffffffffffffffffffffffffffff16141561112657600560016005805490500381548110151561101757fe5b906000526020600020900160009054906101000a900473ffffffffffffffffffffffffffffffffffffffff1660058281548110151561105257fe5b906000526020600020900160006101000a81548173ffffffffffffffffffffffffffffffffffffffff021916908373ffffffffffffffffffffffffffffffffffffffff16021790555060058054809190600190036110b091906147dc565b507f5611bf3e417d124f97bf2c788843ea8bb502b66079fbee02158ef30b172cb762826000604051808373ffffffffffffffffffffffffffffffffffffffff1673ffffffffffffffffffffffffffffffffffffffff168152602001821515151581526020019250505060405180910390a1611131565b806001019050610f85565b5050565b600a6020528060005260406000206000915054906101000a900473ffffffffffffffffffffffffffffffffffffffff1681565b600e6020528060005260406000206000915090505481565b60008060009054906101000a900473ffffffffffffffffffffffffffffffffffffffff1673ffffffffffffffffffffffffffffffffffffffff163373ffffffffffffffffffffffffffffffffffffffff161415156111dd57600080fd5b60008273ffffffffffffffffffffffffffffffffffffffff161415151561120357600080fd5b600760009054906101000a900473ffffffffffffffffffffffffffffffffffffffff1673ffffffffffffffffffffffffffffffffffffffff166306f2bf62836000604051602001526040518263ffffffff167c0100000000000000000000000000000000000000000000000000000000028152600401808273ffffffffffffffffffffffffffffffffffffffff1673ffffffffffffffffffffffffffffffffffffffff168152602001915050602060405180830381600087803b15156112c857600080fd5b6102c65a03f115156112d957600080fd5b50505060405180519050905080600a60008473ffffffffffffffffffffffffffffffffffffffff1673ffffffffffffffffffffffffffffffffffffffff16815260200190815260200160002060006101000a81548173ffffffffffffffffffffffffffffffffffffffff021916908373ffffffffffffffffffffffffffffffffffffffff16021790555061136c8261410b565b8173ffffffffffffffffffffffffffffffffffffffff1663095ea7b3827f80000000000000000000000000000000000000000000000000000000000000006000604051602001526040518363ffffffff167c0100000000000000000000000000000000000000000000000000000000028152600401808373ffffffffffffffffffffffffffffffffffffffff1673ffffffffffffffffffffffffffffffffffffffff16815260200182815260200192505050602060405180830381600087803b151561143757600080fd5b6102c65a03f1151561144857600080fd5b50505060405180519050151561145d57600080fd5b7f8000000000000000000000000000000000000000000000000000000000000000600b60008473ffffffffffffffffffffffffffffffffffffffff1673ffffffffffffffffffffffffffffffffffffffff168152602001908152602001600020819055506000600c60008473ffffffffffffffffffffffffffffffffffffffff1673ffffffffffffffffffffffffffffffffffffffff168152602001908152602001600020819055506000600d60008473ffffffffffffffffffffffffffffffffffffffff1673ffffffffffffffffffffffffffffffffffffffff168152602001908152602001600020819055506000600e60008473ffffffffffffffffffffffffffffffffffffffff1673ffffffffffffffffffffffffffffffffffffffff168152602001908152602001600020819055507f99d2b755eb38920131acb332adf086ea38d15009f223c21f3aa978d6ab2347868282604051808373ffffffffffffffffffffffffffffffffffffffff1673ffffffffffffffffffffffffffffffffffffffff1681526020018273ffffffffffffffffffffffffffffffffffffffff1673ffffffffffffffffffffffffffffffffffffffff1681526020019250505060405180910390a15050565b60095481565b600160009054906101000a900473ffffffffffffffffffffffffffffffffffffffff1681565b61165f614808565b60048054806020026020016040519081016040528092919081815260200182805480156116e157602002820191906000526020600020905b8160009054906101000a900473ffffffffffffffffffffffffffffffffffffffff1673ffffffffffffffffffffffffffffffffffffffff1681526020019060010190808311611697575b5050505050905090565b601981565b60006b204fce5e3e25026110000000821115151561170d57600080fd5b612710600e60008573ffffffffffffffffffffffffffffffffffffffff1673ffffffffffffffffffffffffffffffffffffffff1681526020019081526020016000205461271001830281151561175f57fe5b04905092915050565b6000809054906101000a900473ffffffffffffffffffffffffffffffffffffffff1673ffffffffffffffffffffffffffffffffffffffff163373ffffffffffffffffffffffffffffffffffffffff161415156117c357600080fd5b8273ffffffffffffffffffffffffffffffffffffffff1663a9059cbb82846000604051602001526040518363ffffffff167c0100000000000000000000000000000000000000000000000000000000028152600401808373ffffffffffffffffffffffffffffffffffffffff1673ffffffffffffffffffffffffffffffffffffffff16815260200182815260200192505050602060405180830381600087803b151561186e57600080fd5b6102c65a03f1151561187f57600080fd5b50505060405180519050151561189457600080fd5b7f72cb8a894ddb372ceec3d2a7648d86f17d5a15caae0e986c53109b8a9a9385e6838383604051808473ffffffffffffffffffffffffffffffffffffffff1673ffffffffffffffffffffffffffffffffffffffff1681526020018381526020018273ffffffffffffffffffffffffffffffffffffffff1673ffffffffffffffffffffffffffffffffffffffff168152602001935050505060405180910390a1505050565b6000809054906101000a900473ffffffffffffffffffffffffffffffffffffffff1673ffffffffffffffffffffffffffffffffffffffff163373ffffffffffffffffffffffffffffffffffffffff1614151561199357600080fd5b600360008273ffffffffffffffffffffffffffffffffffffffff1673ffffffffffffffffffffffffffffffffffffffff16815260200190815260200160002060009054906101000a900460ff161515156119ec57600080fd5b6032600580549050101515611a0057600080fd5b7f5611bf3e417d124f97bf2c788843ea8bb502b66079fbee02158ef30b172cb762816001604051808373ffffffffffffffffffffffffffffffffffffffff1673ffffffffffffffffffffffffffffffffffffffff168152602001821515151581526020019250505060405180910390a16001600360008373ffffffffffffffffffffffffffffffffffffffff1673ffffffffffffffffffffffffffffffffffffffff16815260200190815260200160002060006101000a81548160ff02191690831515021790555060058054806001018281611adc919061481c565b9160005260206000209001600083909190916101000a81548173ffffffffffffffffffffffffffffffffffffffff021916908373ffffffffffffffffffffffffffffffffffffffff1602179055505050565b600b6020528060005260406000206000915090505481565b6000809054906101000a900473ffffffffffffffffffffffffffffffffffffffff1673ffffffffffffffffffffffffffffffffffffffff163373ffffffffffffffffffffffffffffffffffffffff16141515611ba157600080fd5b60008173ffffffffffffffffffffffffffffffffffffffff1614151515611bc757600080fd5b80600860006101000a81548173ffffffffffffffffffffffffffffffffffffffff021916908373ffffffffffffffffffffffffffffffffffffffff1602179055507f38622430bb6defd4452b087e8d0b4a6d1c4d35c179c2d7d875d4abb272b9d88b600860009054906101000a900473ffffffffffffffffffffffffffffffffffffffff16604051808273ffffffffffffffffffffffffffffffffffffffff1673ffffffffffffffffffffffffffffffffffffffff16815260200191505060405180910390a150565b6000806000806000806b204fce5e3e250261100000008b101515611cb357600080fd5b6b204fce5e3e2502611000000089101515611ccd57600080fd5b73eeeeeeeeeeeeeeeeeeeeeeeeeeeeeeeeeeeeeeee73ffffffffffffffffffffffffffffffffffffffff168c73ffffffffffffffffffffffffffffffffffffffff161415611e39578994508473ffffffffffffffffffffffffffffffffffffffff166370a08231306000604051602001526040518263ffffffff167c0100000000000000000000000000000000000000000000000000000000028152600401808273ffffffffffffffffffffffffffffffffffffffff1673ffffffffffffffffffffffffffffffffffffffff168152602001915050602060405180830381600087803b1515611dbb57600080fd5b6102c65a03f11515611dcc57600080fd5b50505060405180519050935088841080611e265750600b60008673ffffffffffffffffffffffffffffffffffffffff1673ffffffffffffffffffffffffffffffffffffffff16815260200190815260200160002054898503105b15611e345760009550611ff7565b611f74565b8b9450883073ffffffffffffffffffffffffffffffffffffffff16311015611e645760009550611ff7565b600c60008673ffffffffffffffffffffffffffffffffffffffff1673ffffffffffffffffffffffffffffffffffffffff168152602001908152602001600020548b8673ffffffffffffffffffffffffffffffffffffffff166370a08231306000604051602001526040518263ffffffff167c0100000000000000000000000000000000000000000000000000000000028152600401808273ffffffffffffffffffffffffffffffffffffffff1673ffffffffffffffffffffffffffffffffffffffff168152602001915050602060405180830381600087803b1515611f4857600080fd5b6102c65a03f11515611f5957600080fd5b50505060405180519050011115611f735760009550611ff7565b5b866ec097ce7bc90715b34b9f1000000000811515611f8e57fe5b04925082881115611fa25760009550611ff7565b600d60008673ffffffffffffffffffffffffffffffffffffffff1673ffffffffffffffffffffffffffffffffffffffff168152602001908152602001600020549150611fee8389613e58565b90508181101595505b50505050509695505050505050565b6000600360003373ffffffffffffffffffffffffffffffffffffffff1673ffffffffffffffffffffffffffffffffffffffff16815260200190815260200160002060009054906101000a900460ff16151561206057600080fd5b6000600f60006101000a81548160ff0219169083151502179055507f7d7f00509dd73ac4449f698ae75ccc797895eff5fa9d446d3df387598a26e7356000604051808215151515815260200191505060405180910390a16001905090565b6000809054906101000a900473ffffffffffffffffffffffffffffffffffffffff1673ffffffffffffffffffffffffffffffffffffffff163373ffffffffffffffffffffffffffffffffffffffff1614151561211957600080fd5b612710811115151561212a57600080fd5b806009819055507f8c4d35e54a3f2ef1134138fd8ea3daee6a3c89e10d2665996babdf70261e2c76816040518082815260200191505060405180910390a150565b600080600080600080600f60009054906101000a900460ff16151561218f57600080fd5b600860009054906101000a900473ffffffffffffffffffffffffffffffffffffffff1673ffffffffffffffffffffffffffffffffffffffff163373ffffffffffffffffffffffffffffffffffffffff161415156121eb57600080fd5b6121f58c8b612e65565b151561220057600080fd5b86156122815760008811151561221557600080fd5b73eeeeeeeeeeeeeeeeeeeeeeeeeeeeeeeeeeeeeeee73ffffffffffffffffffffffffffffffffffffffff168c73ffffffffffffffffffffffffffffffffffffffff161415612270578a3414151561226b57600080fd5b612280565b60003414151561227f57600080fd5b5b5b73eeeeeeeeeeeeeeeeeeeeeeeeeeeeeeeeeeeeeeee73ffffffffffffffffffffffffffffffffffffffff168c73ffffffffffffffffffffffffffffffffffffffff161415156123d0578b73ffffffffffffffffffffffffffffffffffffffff166323b872dd33308e6000604051602001526040518463ffffffff167c0100000000000000000000000000000000000000000000000000000000028152600401808473ffffffffffffffffffffffffffffffffffffffff1673ffffffffffffffffffffffffffffffffffffffff1681526020018373ffffffffffffffffffffffffffffffffffffffff1673ffffffffffffffffffffffffffffffffffffffff1681526020018281526020019350505050602060405180830381600087803b15156123a957600080fd5b6102c65a03f115156123ba57600080fd5b5050506040518051905015156123cf57600080fd5b5b6123dc8c8b8d8b61426b565b945060016002898115156123ec57fe5b0614935073eeeeeeeeeeeeeeeeeeeeeeeeeeeeeeeeeeeeeeee73ffffffffffffffffffffffffffffffffffffffff168c73ffffffffffffffffffffffffffffffffffffffff1614156126505783151561257a576124488b613884565b9050600a60008b73ffffffffffffffffffffffffffffffffffffffff1673ffffffffffffffffffffffffffffffffffffffff16815260200190815260200160002060009054906101000a900473ffffffffffffffffffffffffffffffffffffffff1691508173ffffffffffffffffffffffffffffffffffffffff1663f39b5b9b8260017f80000000000000000000000000000000000000000000000000000000000000006000604051602001526040518463ffffffff167c010000000000000000000000000000000000000000000000000000000002815260040180838152602001828152602001925050506020604051808303818588803b151561254c57600080fd5b6125ee5a03f1151561255d57600080fd5b5050505060405180519050925084831015151561257957600080fd5b5b8973ffffffffffffffffffffffffffffffffffffffff1663a9059cbb8a876000604051602001526040518363ffffffff167c0100000000000000000000000000000000000000000000000000000000028152600401808373ffffffffffffffffffffffffffffffffffffffff1673ffffffffffffffffffffffffffffffffffffffff16815260200182815260200192505050602060405180830381600087803b151561262557600080fd5b6102c65a03f1151561263657600080fd5b50505060405180519050151561264b57600080fd5b6127da565b83151561279957600a60008d73ffffffffffffffffffffffffffffffffffffffff1673ffffffffffffffffffffffffffffffffffffffff16815260200190815260200160002060009054906101000a900473ffffffffffffffffffffffffffffffffffffffff1691508173ffffffffffffffffffffffffffffffffffffffff166395e3c50b8c60017f80000000000000000000000000000000000000000000000000000000000000006000604051602001526040518463ffffffff167c0100000000000000000000000000000000000000000000000000000000028152600401808481526020018381526020018281526020019350505050602060405180830381600087803b151561276157600080fd5b6102c65a03f1151561277257600080fd5b50505060405180519050925061278783613884565b925084831015151561279857600080fd5b5b8873ffffffffffffffffffffffffffffffffffffffff166108fc869081150290604051600060405180830381858888f1935050505015156127d957600080fd5b5b3373ffffffffffffffffffffffffffffffffffffffff167f3e5691bfb48667c037c1014f0b320bbf4095c37ad5cd1f0b2573366756f54ac68d8d8d898e8a604051808773ffffffffffffffffffffffffffffffffffffffff1673ffffffffffffffffffffffffffffffffffffffff1681526020018681526020018573ffffffffffffffffffffffffffffffffffffffff1673ffffffffffffffffffffffffffffffffffffffff1681526020018481526020018373ffffffffffffffffffffffffffffffffffffffff1673ffffffffffffffffffffffffffffffffffffffff16815260200182151515158152602001965050505050505060405180910390a26001955050505050509695505050505050565b6000809054906101000a900473ffffffffffffffffffffffffffffffffffffffff1673ffffffffffffffffffffffffffffffffffffffff163373ffffffffffffffffffffffffffffffffffffffff1614151561294657600080fd5b600073ffffffffffffffffffffffffffffffffffffffff168173ffffffffffffffffffffffffffffffffffffffff161415151561298257600080fd5b7f3b81caf78fa51ecbc8acb482fd7012a277b428d9b80f9d156e8a54107496cc40600160009054906101000a900473ffffffffffffffffffffffffffffffffffffffff16604051808273ffffffffffffffffffffffffffffffffffffffff1673ffffffffffffffffffffffffffffffffffffffff16815260200191505060405180910390a180600160006101000a81548173ffffffffffffffffffffffffffffffffffffffff021916908373ffffffffffffffffffffffffffffffffffffffff16021790555050565b3373ffffffffffffffffffffffffffffffffffffffff16600160009054906101000a900473ffffffffffffffffffffffffffffffffffffffff1673ffffffffffffffffffffffffffffffffffffffff16141515612aa757600080fd5b7f65da1cfc2c2e81576ad96afb24a581f8e109b7a403b35cbd3243a1c99efdb9ed600160009054906101000a900473ffffffffffffffffffffffffffffffffffffffff166000809054906101000a900473ffffffffffffffffffffffffffffffffffffffff16604051808373ffffffffffffffffffffffffffffffffffffffff1673ffffffffffffffffffffffffffffffffffffffff1681526020018273ffffffffffffffffffffffffffffffffffffffff1673ffffffffffffffffffffffffffffffffffffffff1681526020019250505060405180910390a1600160009054906101000a900473ffffffffffffffffffffffffffffffffffffffff166000806101000a81548173ffffffffffffffffffffffffffffffffffffffff021916908373ffffffffffffffffffffffffffffffffffffffff1602179055506000600160006101000a81548173ffffffffffffffffffffffffffffffffffffffff021916908373ffffffffffffffffffffffffffffffffffffffff160217905550565b6000600660008373ffffffffffffffffffffffffffffffffffffffff1673ffffffffffffffffffffffffffffffffffffffff168152602001908152602001600020549050919050565b6000809054906101000a900473ffffffffffffffffffffffffffffffffffffffff1673ffffffffffffffffffffffffffffffffffffffff163373ffffffffffffffffffffffffffffffffffffffff16141515612ccb57600080fd5b600073ffffffffffffffffffffffffffffffffffffffff168173ffffffffffffffffffffffffffffffffffffffff1614151515612d0757600080fd5b7f3b81caf78fa51ecbc8acb482fd7012a277b428d9b80f9d156e8a54107496cc4081604051808273ffffffffffffffffffffffffffffffffffffffff1673ffffffffffffffffffffffffffffffffffffffff16815260200191505060405180910390a17f65da1cfc2c2e81576ad96afb24a581f8e109b7a403b35cbd3243a1c99efdb9ed816000809054906101000a900473ffffffffffffffffffffffffffffffffffffffff16604051808373ffffffffffffffffffffffffffffffffffffffff1673ffffffffffffffffffffffffffffffffffffffff1681526020018273ffffffffffffffffffffffffffffffffffffffff1673ffffffffffffffffffffffffffffffffffffffff1681526020019250505060405180910390a1806000806101000a81548173ffffffffffffffffffffffffffffffffffffffff021916908373ffffffffffffffffffffffffffffffffffffffff16021790555050565b600073eeeeeeeeeeeeeeeeeeeeeeeeeeeeeeeeeeeeeeee73ffffffffffffffffffffffffffffffffffffffff168373ffffffffffffffffffffffffffffffffffffffff16148015612f425750600073ffffffffffffffffffffffffffffffffffffffff16600a60008473ffffffffffffffffffffffffffffffffffffffff1673ffffffffffffffffffffffffffffffffffffffff16815260200190815260200160002060009054906101000a900473ffffffffffffffffffffffffffffffffffffffff1673ffffffffffffffffffffffffffffffffffffffff1614155b806130245750600073ffffffffffffffffffffffffffffffffffffffff16600a60008573ffffffffffffffffffffffffffffffffffffffff1673ffffffffffffffffffffffffffffffffffffffff16815260200190815260200160002060009054906101000a900473ffffffffffffffffffffffffffffffffffffffff1673ffffffffffffffffffffffffffffffffffffffff1614158015613023575073eeeeeeeeeeeeeeeeeeeeeeeeeeeeeeeeeeeeeeee73ffffffffffffffffffffffffffffffffffffffff168273ffffffffffffffffffffffffffffffffffffffff16145b5b905092915050565b6000809054906101000a900473ffffffffffffffffffffffffffffffffffffffff1673ffffffffffffffffffffffffffffffffffffffff163373ffffffffffffffffffffffffffffffffffffffff1614151561308757600080fd5b600073ffffffffffffffffffffffffffffffffffffffff16600a60008573ffffffffffffffffffffffffffffffffffffffff1673ffffffffffffffffffffffffffffffffffffffff16815260200190815260200160002060009054906101000a900473ffffffffffffffffffffffffffffffffffffffff1673ffffffffffffffffffffffffffffffffffffffff161415151561312257600080fd5b6103e8821115151561313357600080fd5b6101f4811115151561314457600080fd5b81600d60008573ffffffffffffffffffffffffffffffffffffffff1673ffffffffffffffffffffffffffffffffffffffff1681526020019081526020016000208190555080600e60008573ffffffffffffffffffffffffffffffffffffffff1673ffffffffffffffffffffffffffffffffffffffff168152602001908152602001600020819055507ff32eb6e759557a6efda6830142e2357097b173bc01c7a45d4f409fd9ce87387b838383604051808473ffffffffffffffffffffffffffffffffffffffff1673ffffffffffffffffffffffffffffffffffffffff168152602001838152602001828152602001935050505060405180910390a1505050565b61324c614808565b60058054806020026020016040519081016040528092919081815260200182805480156132ce57602002820191906000526020600020905b8160009054906101000a900473ffffffffffffffffffffffffffffffffffffffff1673ffffffffffffffffffffffffffffffffffffffff1681526020019060010190808311613284575b5050505050905090565b6000806000806000806000806132ee8c8c612e65565b15156132fd576000975061344e565b600f60009054906101000a900460ff16151561331c576000975061344e565b60008a141561332e576000975061344e565b73eeeeeeeeeeeeeeeeeeeeeeeeeeeeeeeeeeeeeeee73ffffffffffffffffffffffffffffffffffffffff168c73ffffffffffffffffffffffffffffffffffffffff16141561337e578a96506133d4565b73eeeeeeeeeeeeeeeeeeeeeeeeeeeeeeeeeeeeeeee73ffffffffffffffffffffffffffffffffffffffff168b73ffffffffffffffffffffffffffffffffffffffff1614156133ce578b96506133d3565b600080fd5b5b6133df8c8c8c614293565b80965081975050506133f28b8d88614293565b90508094505061340287876116f0565b92506134128c8b8d868989611c90565b9150811561343d576134368a846134288f614509565b6134318f614509565b614640565b9050613441565b8490505b61344b81836146f1565b97505b50505050505050949350505050565b600760009054906101000a900473ffffffffffffffffffffffffffffffffffffffff1681565b6000809054906101000a900473ffffffffffffffffffffffffffffffffffffffff1673ffffffffffffffffffffffffffffffffffffffff163373ffffffffffffffffffffffffffffffffffffffff161415156134de57600080fd5b600260008273ffffffffffffffffffffffffffffffffffffffff1673ffffffffffffffffffffffffffffffffffffffff16815260200190815260200160002060009054906101000a900460ff1615151561353757600080fd5b603260048054905010151561354b57600080fd5b7f091a7a4b85135fdd7e8dbc18b12fabe5cc191ea867aa3c2e1a24a102af61d58b816001604051808373ffffffffffffffffffffffffffffffffffffffff1673ffffffffffffffffffffffffffffffffffffffff168152602001821515151581526020019250505060405180910390a16001600260008373ffffffffffffffffffffffffffffffffffffffff1673ffffffffffffffffffffffffffffffffffffffff16815260200190815260200160002060006101000a81548160ff02191690831515021790555060048054806001018281613627919061481c565b9160005260206000209001600083909190916101000a81548173ffffffffffffffffffffffffffffffffffffffff021916908373ffffffffffffffffffffffffffffffffffffffff1602179055505050565b600c6020528060005260406000206000915090505481565b600260003373ffffffffffffffffffffffffffffffffffffffff1673ffffffffffffffffffffffffffffffffffffffff16815260200190815260200160002060009054906101000a900460ff1615156136e957600080fd5b600073ffffffffffffffffffffffffffffffffffffffff16600a60008573ffffffffffffffffffffffffffffffffffffffff1673ffffffffffffffffffffffffffffffffffffffff16815260200190815260200160002060009054906101000a900473ffffffffffffffffffffffffffffffffffffffff1673ffffffffffffffffffffffffffffffffffffffff161415151561378457600080fd5b81600b60008573ffffffffffffffffffffffffffffffffffffffff1673ffffffffffffffffffffffffffffffffffffffff1681526020019081526020016000208190555080600c60008573ffffffffffffffffffffffffffffffffffffffff1673ffffffffffffffffffffffffffffffffffffffff168152602001908152602001600020819055507f5421c19be109a988c30678d84f56dd237868f8147ba05c20a6b78726e8f5d8ca838383604051808473ffffffffffffffffffffffffffffffffffffffff1673ffffffffffffffffffffffffffffffffffffffff168152602001838152602001828152602001935050505060405180910390a1505050565b600061271060095461271003830281151561389b57fe5b049050919050565b6000809054906101000a900473ffffffffffffffffffffffffffffffffffffffff1673ffffffffffffffffffffffffffffffffffffffff163373ffffffffffffffffffffffffffffffffffffffff161415156138fe57600080fd5b600073ffffffffffffffffffffffffffffffffffffffff16600a60008373ffffffffffffffffffffffffffffffffffffffff1673ffffffffffffffffffffffffffffffffffffffff16815260200190815260200160002060009054906101000a900473ffffffffffffffffffffffffffffffffffffffff1673ffffffffffffffffffffffffffffffffffffffff161415151561399957600080fd5b600a60008273ffffffffffffffffffffffffffffffffffffffff1673ffffffffffffffffffffffffffffffffffffffff16815260200190815260200160002060006101000a81549073ffffffffffffffffffffffffffffffffffffffff0219169055600b60008273ffffffffffffffffffffffffffffffffffffffff1673ffffffffffffffffffffffffffffffffffffffff16815260200190815260200160002060009055600c60008273ffffffffffffffffffffffffffffffffffffffff1673ffffffffffffffffffffffffffffffffffffffff16815260200190815260200160002060009055600d60008273ffffffffffffffffffffffffffffffffffffffff1673ffffffffffffffffffffffffffffffffffffffff16815260200190815260200160002060009055600e60008273ffffffffffffffffffffffffffffffffffffffff1673ffffffffffffffffffffffffffffffffffffffff168152602001908152602001600020600090557f6621c4efc5efa31320394260425b7d14cbb9d7e3754b2c98c04af66b1cbf315b81604051808273ffffffffffffffffffffffffffffffffffffffff1673ffffffffffffffffffffffffffffffffffffffff16815260200191505060405180910390a150565b60008060009054906101000a900473ffffffffffffffffffffffffffffffffffffffff1673ffffffffffffffffffffffffffffffffffffffff163373ffffffffffffffffffffffffffffffffffffffff16141515613bca57600080fd5b600260008373ffffffffffffffffffffffffffffffffffffffff1673ffffffffffffffffffffffffffffffffffffffff16815260200190815260200160002060009054906101000a900460ff161515613c2257600080fd5b6000600260008473ffffffffffffffffffffffffffffffffffffffff1673ffffffffffffffffffffffffffffffffffffffff16815260200190815260200160002060006101000a81548160ff021916908315150217905550600090505b600480549050811015613e2e578173ffffffffffffffffffffffffffffffffffffffff16600482815481101515613cb257fe5b906000526020600020900160009054906101000a900473ffffffffffffffffffffffffffffffffffffffff1673ffffffffffffffffffffffffffffffffffffffff161415613e23576004600160048054905003815481101515613d1157fe5b906000526020600020900160009054906101000a900473ffffffffffffffffffffffffffffffffffffffff16600482815481101515613d4c57fe5b906000526020600020900160006101000a81548173ffffffffffffffffffffffffffffffffffffffff021916908373ffffffffffffffffffffffffffffffffffffffff1602179055506001600481818054905003915081613dad91906147dc565b507f091a7a4b85135fdd7e8dbc18b12fabe5cc191ea867aa3c2e1a24a102af61d58b826000604051808373ffffffffffffffffffffffffffffffffffffffff1673ffffffffffffffffffffffffffffffffffffffff168152602001821515151581526020019250505060405180910390a1613e2e565b806001019050613c7f565b5050565b600860009054906101000a900473ffffffffffffffffffffffffffffffffffffffff1681565b6000806000849150839050808201818303614e2002811515613e7657fe5b059250505092915050565b600d6020528060005260406000206000915090505481565b6000809054906101000a900473ffffffffffffffffffffffffffffffffffffffff1673ffffffffffffffffffffffffffffffffffffffff163373ffffffffffffffffffffffffffffffffffffffff16141515613ef457600080fd5b8073ffffffffffffffffffffffffffffffffffffffff166108fc839081150290604051600060405180830381858888f193505050501515613f3457600080fd5b7fec47e7ed86c86774d1a72c19f35c639911393fe7c1a34031fdbd260890da90de8282604051808381526020018273ffffffffffffffffffffffffffffffffffffffff1673ffffffffffffffffffffffffffffffffffffffff1681526020019250505060405180910390a15050565b600073eeeeeeeeeeeeeeeeeeeeeeeeeeeeeeeeeeeeeeee73ffffffffffffffffffffffffffffffffffffffff168373ffffffffffffffffffffffffffffffffffffffff16141561400c578173ffffffffffffffffffffffffffffffffffffffff163190506140cd565b8273ffffffffffffffffffffffffffffffffffffffff166370a08231836000604051602001526040518263ffffffff167c0100000000000000000000000000000000000000000000000000000000028152600401808273ffffffffffffffffffffffffffffffffffffffff1673ffffffffffffffffffffffffffffffffffffffff168152602001915050602060405180830381600087803b15156140af57600080fd5b6102c65a03f115156140c057600080fd5b5050506040518051905090505b92915050565b600f60009054906101000a900460ff1681565b6000809054906101000a900473ffffffffffffffffffffffffffffffffffffffff1681565b73eeeeeeeeeeeeeeeeeeeeeeeeeeeeeeeeeeeeeeee73ffffffffffffffffffffffffffffffffffffffff168173ffffffffffffffffffffffffffffffffffffffff16141561419d576012600660008373ffffffffffffffffffffffffffffffffffffffff1673ffffffffffffffffffffffffffffffffffffffff16815260200190815260200160002081905550614268565b8073ffffffffffffffffffffffffffffffffffffffff1663313ce5676000604051602001526040518163ffffffff167c0100000000000000000000000000000000000000000000000000000000028152600401602060405180830381600087803b151561420957600080fd5b6102c65a03f1151561421a57600080fd5b50505060405180519050600660008373ffffffffffffffffffffffffffffffffffffffff1673ffffffffffffffffffffffffffffffffffffffff168152602001908152602001600020819055505b50565b60006142898361427a87614509565b61428387614509565b8561472a565b9050949350505050565b600080600073eeeeeeeeeeeeeeeeeeeeeeeeeeeeeeeeeeeeeeee73ffffffffffffffffffffffffffffffffffffffff168673ffffffffffffffffffffffffffffffffffffffff1614156143e357600a60008673ffffffffffffffffffffffffffffffffffffffff1673ffffffffffffffffffffffffffffffffffffffff16815260200190815260200160002060009054906101000a900473ffffffffffffffffffffffffffffffffffffffff1690508073ffffffffffffffffffffffffffffffffffffffff1663cd7724c361436786613884565b6000604051602001526040518263ffffffff167c010000000000000000000000000000000000000000000000000000000002815260040180828152602001915050602060405180830381600087803b15156143c157600080fd5b6102c65a03f115156143d257600080fd5b5050506040518051905092506144e2565b600a60008773ffffffffffffffffffffffffffffffffffffffff1673ffffffffffffffffffffffffffffffffffffffff16815260200190815260200160002060009054906101000a900473ffffffffffffffffffffffffffffffffffffffff1690506144df8173ffffffffffffffffffffffffffffffffffffffff166395b68fe7866000604051602001526040518263ffffffff167c010000000000000000000000000000000000000000000000000000000002815260040180828152602001915050602060405180830381600087803b15156144bf57600080fd5b6102c65a03f115156144d057600080fd5b50505060405180519050613884565b92505b6144fe84846144f089614509565b6144f989614509565b614640565b915050935093915050565b60008073eeeeeeeeeeeeeeeeeeeeeeeeeeeeeeeeeeeeeeee73ffffffffffffffffffffffffffffffffffffffff168373ffffffffffffffffffffffffffffffffffffffff16141561455d576012915061463a565b600660008473ffffffffffffffffffffffffffffffffffffffff1673ffffffffffffffffffffffffffffffffffffffff1681526020019081526020016000205490506000811415614636578273ffffffffffffffffffffffffffffffffffffffff1663313ce5676000604051602001526040518163ffffffff167c0100000000000000000000000000000000000000000000000000000000028152600401602060405180830381600087803b151561461457600080fd5b6102c65a03f1151561462557600080fd5b50505060405180519050915061463a565b8091505b50919050565b60006b204fce5e3e25026110000000851115151561465d57600080fd5b6b204fce5e3e25026110000000841115151561467857600080fd5b82821015156146b75760128383031115151561469357600080fd5b84838303600a0a02670de0b6b3a764000085028115156146af57fe5b0490506146e9565b6012828403111515156146c957600080fd5b84828403600a0a670de0b6b3a76400008602028115156146e557fe5b0490505b949350505050565b6000816146ff576000614702565b60015b60ff1660028481151561471157fe5b06146147205760018303614722565b825b905092915050565b60006b204fce5e3e25026110000000851115151561474757600080fd5b620f4240670de0b6b3a764000002821115151561476357600080fd5b83831015156147a25760128484031115151561477e57600080fd5b670de0b6b3a7640000848403600a0a8387020281151561479a57fe5b0490506147d4565b6012838503111515156147b457600080fd5b828403600a0a670de0b6b3a7640000028286028115156147d057fe5b0490505b949350505050565b815481835581811511614803578183600052602060002091820191016148029190614848565b5b505050565b602060405190810160405280600081525090565b815481835581811511614843578183600052602060002091820191016148429190614848565b5b505050565b61486a91905b8082111561486657600081600090555060010161484e565b5090565b905600a165627a7a72305820dea8fb6622dd611652f7a8ea867ca5a82f1ac0c6bba3a982f3241d5c8a8c57c30029",
  "source": "pragma solidity 0.4.18;\n\nimport \"../KyberUniswapReserve.sol\";\n\n\ncontract TestingKyberUniswapReserve is KyberUniswapReserve {\n    function TestingKyberUniswapReserve(\n        UniswapFactory _uniswapFactory,\n        address _admin,\n        address _kyberNetwork\n    )\n        public\n        KyberUniswapReserve(_uniswapFactory, _admin, _kyberNetwork)\n    {\n    }\n\n    function getTokenDecimals(ERC20 token)\n        public\n        view\n        returns(uint)\n    {\n        return decimals[token];\n    }\n}\n",
  "sourcePath": "/Users/oscarr/Ethereum/frappe/contracts/uniswap/forTesting/KyberTestingUniswapReserve.sol",
  "compiler": {
    "name": "solc",
    "version": "0.4.18+commit.9cf6e910.Emscripten.clang"
  },
  "schemaVersion": "3.0.6",
  "updatedAt": "2019-05-18T17:14:13.546Z",
  "devdoc": {
    "methods": {
      "claimAdmin()": {
        "details": "Allows the pendingAdmin address to finalize the change admin process."
      },
      "getBalance(address,address)": {
        "details": "get the balance of a user.",
        "params": {
          "token": "The token type"
        },
        "return": "The balance"
      },
      "transferAdmin(address)": {
        "details": "Allows the current admin to set the pendingAdmin address.",
        "params": {
          "newAdmin": "The address to transfer ownership to."
        }
      },
      "transferAdminQuickly(address)": {
        "details": "Allows the current admin to set the admin in one tx. Useful initial deployment.",
        "params": {
          "newAdmin": "The address to transfer ownership to."
        }
      },
      "withdrawEther(uint256,address)": {
        "details": "Withdraw Ethers"
      },
      "withdrawToken(address,uint256,address)": {
        "details": "Withdraw all ERC20 compatible tokens",
        "params": {
          "token": "ERC20 The address of the token contract"
        }
      }
    }
  },
  "userdoc": {
    "methods": {
      "getConversionRate(address,address,uint256,uint256)": {
        "notice": "Returns dest quantity / source quantity. Last bit of the rate indicates whether to use internal inventory: 0 - use uniswap 1 - use internal inventory"
      },
      "trade(address,uint256,address,address,uint256,bool)": {
        "notice": "conversionRate: expected conversion rate should be >= this value."
      }
    }
  }
}