{
  "contractName": "UtilMath",
  "abi": [
    {
      "constant": true,
      "inputs": [],
      "name": "BIG_NUMBER",
      "outputs": [
        {
          "name": "",
          "type": "uint256"
        }
      ],
      "payable": false,
      "stateMutability": "view",
      "type": "function"
    },
    {
      "constant": true,
      "inputs": [
        {
          "name": "x",
          "type": "uint256"
        },
        {
          "name": "y",
          "type": "uint256"
        }
      ],
      "name": "checkMultOverflow",
      "outputs": [
        {
          "name": "",
          "type": "bool"
        }
      ],
      "payable": false,
      "stateMutability": "pure",
      "type": "function"
    },
    {
      "constant": true,
      "inputs": [
        {
          "name": "p",
          "type": "uint256"
        },
        {
          "name": "q",
          "type": "uint256"
        },
        {
          "name": "precision",
          "type": "uint256"
        }
      ],
      "name": "compactFraction",
      "outputs": [
        {
          "name": "",
          "type": "uint256"
        },
        {
          "name": "",
          "type": "uint256"
        }
      ],
      "payable": false,
      "stateMutability": "pure",
      "type": "function"
    },
    {
      "constant": true,
      "inputs": [
        {
          "name": "p",
          "type": "uint256"
        },
        {
          "name": "q",
          "type": "uint256"
        },
        {
          "name": "precision",
          "type": "uint256"
        }
      ],
      "name": "exp",
      "outputs": [
        {
          "name": "",
          "type": "uint256"
        }
      ],
      "payable": false,
      "stateMutability": "pure",
      "type": "function"
    },
    {
      "constant": true,
      "inputs": [
        {
          "name": "p",
          "type": "uint256"
        },
        {
          "name": "q",
          "type": "uint256"
        }
      ],
      "name": "countLeadingZeros",
      "outputs": [
        {
          "name": "",
          "type": "uint256"
        }
      ],
      "payable": false,
      "stateMutability": "pure",
      "type": "function"
    },
    {
      "constant": true,
      "inputs": [
        {
          "name": "x",
          "type": "uint256"
        },
        {
          "name": "numPrecisionBits",
          "type": "uint256"
        }
      ],
      "name": "log2ForSmallNumber",
      "outputs": [
        {
          "name": "",
          "type": "uint256"
        }
      ],
      "payable": false,
      "stateMutability": "pure",
      "type": "function"
    },
    {
      "constant": true,
      "inputs": [
        {
          "name": "p",
          "type": "uint256"
        },
        {
          "name": "q",
          "type": "uint256"
        },
        {
          "name": "numPrecisionBits",
          "type": "uint256"
        }
      ],
      "name": "logBase2",
      "outputs": [
        {
          "name": "",
          "type": "uint256"
        }
      ],
      "payable": false,
      "stateMutability": "pure",
      "type": "function"
    },
    {
      "constant": true,
      "inputs": [
        {
          "name": "p",
          "type": "uint256"
        },
        {
          "name": "q",
          "type": "uint256"
        },
        {
          "name": "numPrecisionBits",
          "type": "uint256"
        }
      ],
      "name": "ln",
      "outputs": [
        {
          "name": "",
          "type": "uint256"
        }
      ],
      "payable": false,
      "stateMutability": "pure",
      "type": "function"
    }
  ],
  "bytecode": "0x6060604052341561000f57600080fd5b6106ef8061001e6000396000f30060606040526004361061008e576000357c0100000000000000000000000000000000000000000000000000000000900463ffffffff168063275acbe3146100935780632f4fda30146100dc5780635111249e146101055780638369ff08146101495780638401824f14610189578063869d7d93146101d9578063a0dbde9d14610219578063b5debaf514610262575b600080fd5b341561009e57600080fd5b6100c660048080359060200190919080359060200190919080359060200190919050506102ab565b6040518082815260200191505060405180910390f35b34156100e757600080fd5b6100ef610308565b6040518082815260200191505060405180910390f35b341561011057600080fd5b61012f6004808035906020019091908035906020019091905050610314565b604051808215151515815260200191505060405180910390f35b341561015457600080fd5b6101736004808035906020019091908035906020019091905050610341565b6040518082815260200191505060405180910390f35b341561019457600080fd5b6101bc60048080359060200190919080359060200190919080359060200190919050506103f1565b604051808381526020018281526020019250505060405180910390f35b34156101e457600080fd5b6102036004808035906020019091908035906020019091905050610437565b6040518082815260200191505060405180910390f35b341561022457600080fd5b61024c60048080359060200190919080359060200190919080359060200190919050506104e8565b6040518082815260200191505060405180910390f35b341561026d57600080fd5b61029560048080359060200190919080359060200190919080359060200190919050506105c2565b6040518082815260200191505060405180910390f35b600080600080690177c17eb2ae5edd211c925069021e19e0c9bab240000091506102d68787876104e8565b90506102e28382610314565b1515156102ee57600080fd5b818184028115156102fb57fe5b0493505050509392505050565b60c860019060020a0281565b600080821415610327576000905061033b565b828283850281151561033557fe5b04141590505b92915050565b600080600080600080600094508660019060020a0293508360020292508391508388101580156103715750828811155b151561037c57600080fd5b607d8710151561038b57600080fd5b8690505b60008111156103e357838889028115156103a557fe5b0497506002828115156103b457fe5b04915082881015156103d5576002888115156103cc57fe5b04975081850194505b80806001900391505061038f565b849550505050505092915050565b6000808283028410156104095784849150915061042f565b61042a838681151561041757fe5b04848681151561042357fe5b04856103f1565b915091505b935093915050565b600080600060ff60019060020a02915060ff90505b6000811215156104bc57838283860281151561046457fe5b041415156104805760028281151561047857fe5b0491506104ae565b60008285028681151561048f57fe5b04111561049e578092506104e0565b6002828115156104aa57fe5b0491505b80806001900391505061044c565b7fffffffffffffffffffffffffffffffffffffffffffffffffffffffffffffffff92505b505092915050565b60008060008060008093508560019060020a029250868811156105125761050f8888610437565b93505b61051c8884610314565b15151561052857600080fd5b6105328484610314565b15151561053e57600080fd5b61054f8460019060020a0288610314565b15151561055b57600080fd5b8360019060020a02870283890281151561057157fe5b04915061057e8287610341565b905060c860019060020a028385021115151561059957600080fd5b60c860019060020a0281111515156105b057600080fd5b80838502019450505050509392505050565b600080600080600080600080955060019450600193506001925060009150600090505b6001156106b5576105f68489610314565b15610603578196506106b6565b61060d8386610314565b1561061a578196506106b6565b84830288850281151561062957fe5b04820191508082141561063e578196506106b6565b8190508580600101965050610653848b610314565b15610660578196506106b6565b61066a838a610314565b15610677578196506106b6565b6106818587610314565b1561068e578196506106b6565b8984029350888302925085850294506106a884848a6103f1565b80945081955050506105e5565b5b50505050505093925050505600a165627a7a72305820f2df144ff50b889f223529c7978bfac6a67da610042d5b4359ad4cfbb0ac31f00029",
  "source": "pragma solidity 0.4.18;\n\n\ncontract UtilMath {\n    uint public constant BIG_NUMBER = (uint(1)<<uint(200));\n\n    function checkMultOverflow(uint x, uint y) public pure returns(bool) {\n        if (y == 0) return false;\n        return (((x*y) / y) != x);\n    }\n\n    function compactFraction(uint p, uint q, uint precision) public pure returns (uint, uint) {\n        if (q < precision * precision) return (p, q);\n        return compactFraction(p/precision, q/precision, precision);\n    }\n\n    /* solhint-disable code-complexity */\n    function exp(uint p, uint q, uint precision) public pure returns (uint) {\n        uint n = 0;\n        uint nFact = 1;\n        uint currentP = 1;\n        uint currentQ = 1;\n\n        uint sum = 0;\n        uint prevSum = 0;\n\n        while (true) {\n            if (checkMultOverflow(currentP, precision)) return sum;\n            if (checkMultOverflow(currentQ, nFact)) return sum;\n\n            sum += (currentP * precision) / (currentQ * nFact);\n\n            if (sum == prevSum) return sum;\n            prevSum = sum;\n\n            n++;\n\n            if (checkMultOverflow(currentP, p)) return sum;\n            if (checkMultOverflow(currentQ, q)) return sum;\n            if (checkMultOverflow(nFact, n)) return sum;\n\n            currentP *= p;\n            currentQ *= q;\n            nFact *= n;\n\n            (currentP, currentQ) = compactFraction(currentP, currentQ, precision);\n        }\n    }\n    /* solhint-enable code-complexity */\n\n    function countLeadingZeros(uint p, uint q) public pure returns (uint) {\n        uint denomator = (uint(1)<<255);\n        for (int i = 255; i >= 0; i--) {\n            if ((q*denomator)/denomator != q) {\n                // overflow\n                denomator = denomator/2;\n                continue;\n            }\n            if (p/(q*denomator) > 0) return uint(i);\n            denomator = denomator/2;\n        }\n\n        return uint(-1);\n    }\n\n    // log2 for a number that it in [1,2)\n    function log2ForSmallNumber(uint x, uint numPrecisionBits) public pure returns (uint) {\n        uint res = 0;\n        uint one = (uint(1)<<numPrecisionBits);\n        uint two = 2 * one;\n        uint addition = one;\n\n        require((x >= one) && (x <= two));\n        require(numPrecisionBits < 125);\n\n        for (uint i = numPrecisionBits; i > 0; i--) {\n            x = (x*x) / one;\n            addition = addition/2;\n            if (x >= two) {\n                x = x/2;\n                res += addition;\n            }\n        }\n\n        return res;\n    }\n\n    function logBase2 (uint p, uint q, uint numPrecisionBits) public pure returns (uint) {\n        uint n = 0;\n        uint precision = (uint(1)<<numPrecisionBits);\n\n        if (p > q) {\n            n = countLeadingZeros(p, q);\n        }\n\n        require(!checkMultOverflow(p, precision));\n        require(!checkMultOverflow(n, precision));\n        require(!checkMultOverflow(uint(1)<<n, q));\n\n        uint y = p * precision / (q * (uint(1)<<n));\n        uint log2Small = log2ForSmallNumber(y, numPrecisionBits);\n\n        require(n*precision <= BIG_NUMBER);\n        require(log2Small <= BIG_NUMBER);\n\n        return n * precision + log2Small;\n    }\n\n    function ln(uint p, uint q, uint numPrecisionBits) public pure returns (uint) {\n        uint ln2Numerator   = 6931471805599453094172;\n        uint ln2Denomerator = 10000000000000000000000;\n\n        uint log2x = logBase2(p, q, numPrecisionBits);\n\n        require(!checkMultOverflow(ln2Numerator, log2x));\n\n        return ln2Numerator * log2x / ln2Denomerator;\n    }\n}\n\n\ncontract LiquidityFormula is UtilMath {\n    function pE(uint r, uint pMIn, uint e, uint precision) public pure returns (uint) {\n        uint expRE = exp(r*e, precision*precision, precision);\n        require(!checkMultOverflow(expRE, pMIn));\n        return pMIn*expRE / precision;\n    }\n\n    function deltaTFunc(uint r, uint pMIn, uint e, uint deltaE, uint precision) public pure returns (uint) {\n        uint pe = pE(r, pMIn, e, precision);\n        uint rpe = r * pe;\n        uint erdeltaE = exp(r*deltaE, precision*precision, precision);\n\n        require(erdeltaE >= precision);\n        require(!checkMultOverflow(erdeltaE - precision, precision));\n        require(!checkMultOverflow((erdeltaE - precision)*precision, precision));\n        require(!checkMultOverflow((erdeltaE - precision)*precision*precision, precision));\n        require(!checkMultOverflow(rpe, erdeltaE));\n        require(!checkMultOverflow(r, pe));\n\n        return (erdeltaE - precision) * precision * precision * precision / (rpe*erdeltaE);\n    }\n\n    function deltaEFunc(uint r, uint pMIn, uint e, uint deltaT, uint precision, uint numPrecisionBits)\n        public pure\n        returns (uint)\n    {\n        uint pe = pE(r, pMIn, e, precision);\n        uint rpe = r * pe;\n        uint lnPart = ln(precision*precision + rpe*deltaT/precision, precision*precision, numPrecisionBits);\n\n        require(!checkMultOverflow(r, pe));\n        require(!checkMultOverflow(precision, precision));\n        require(!checkMultOverflow(rpe, deltaT));\n        require(!checkMultOverflow(lnPart, precision));\n\n        return lnPart * precision / r;\n    }\n}\n",
  "sourcePath": "/Users/oscarr/Ethereum/frappe/contracts/LiquidityFormula.sol",
  "compiler": {
    "name": "solc",
    "version": "0.4.18+commit.9cf6e910.Emscripten.clang"
  },
  "schemaVersion": "3.0.6",
  "updatedAt": "2019-05-18T17:14:13.018Z",
  "devdoc": {
    "methods": {}
  },
  "userdoc": {
    "methods": {}
  }
}