{
  "contractName": "VolumeImbalanceRecorder",
  "abi": [
    {
      "constant": false,
      "inputs": [
        {
          "name": "alerter",
          "type": "address"
        }
      ],
      "name": "removeAlerter",
      "outputs": [],
      "payable": false,
      "stateMutability": "nonpayable",
      "type": "function"
    },
    {
      "constant": true,
      "inputs": [],
      "name": "pendingAdmin",
      "outputs": [
        {
          "name": "",
          "type": "address"
        }
      ],
      "payable": false,
      "stateMutability": "view",
      "type": "function"
    },
    {
      "constant": true,
      "inputs": [],
      "name": "getOperators",
      "outputs": [
        {
          "name": "",
          "type": "address[]"
        }
      ],
      "payable": false,
      "stateMutability": "view",
      "type": "function"
    },
    {
      "constant": false,
      "inputs": [
        {
          "name": "token",
          "type": "address"
        },
        {
          "name": "amount",
          "type": "uint256"
        },
        {
          "name": "sendTo",
          "type": "address"
        }
      ],
      "name": "withdrawToken",
      "outputs": [],
      "payable": false,
      "stateMutability": "nonpayable",
      "type": "function"
    },
    {
      "constant": false,
      "inputs": [
        {
          "name": "newAlerter",
          "type": "address"
        }
      ],
      "name": "addAlerter",
      "outputs": [],
      "payable": false,
      "stateMutability": "nonpayable",
      "type": "function"
    },
    {
      "constant": false,
      "inputs": [
        {
          "name": "newAdmin",
          "type": "address"
        }
      ],
      "name": "transferAdmin",
      "outputs": [],
      "payable": false,
      "stateMutability": "nonpayable",
      "type": "function"
    },
    {
      "constant": false,
      "inputs": [],
      "name": "claimAdmin",
      "outputs": [],
      "payable": false,
      "stateMutability": "nonpayable",
      "type": "function"
    },
    {
      "constant": false,
      "inputs": [
        {
          "name": "newAdmin",
          "type": "address"
        }
      ],
      "name": "transferAdminQuickly",
      "outputs": [],
      "payable": false,
      "stateMutability": "nonpayable",
      "type": "function"
    },
    {
      "constant": true,
      "inputs": [],
      "name": "getAlerters",
      "outputs": [
        {
          "name": "",
          "type": "address[]"
        }
      ],
      "payable": false,
      "stateMutability": "view",
      "type": "function"
    },
    {
      "constant": false,
      "inputs": [
        {
          "name": "newOperator",
          "type": "address"
        }
      ],
      "name": "addOperator",
      "outputs": [],
      "payable": false,
      "stateMutability": "nonpayable",
      "type": "function"
    },
    {
      "constant": true,
      "inputs": [
        {
          "name": "",
          "type": "address"
        },
        {
          "name": "",
          "type": "uint256"
        }
      ],
      "name": "tokenImbalanceData",
      "outputs": [
        {
          "name": "",
          "type": "uint256"
        }
      ],
      "payable": false,
      "stateMutability": "view",
      "type": "function"
    },
    {
      "constant": false,
      "inputs": [
        {
          "name": "operator",
          "type": "address"
        }
      ],
      "name": "removeOperator",
      "outputs": [],
      "payable": false,
      "stateMutability": "nonpayable",
      "type": "function"
    },
    {
      "constant": false,
      "inputs": [
        {
          "name": "amount",
          "type": "uint256"
        },
        {
          "name": "sendTo",
          "type": "address"
        }
      ],
      "name": "withdrawEther",
      "outputs": [],
      "payable": false,
      "stateMutability": "nonpayable",
      "type": "function"
    },
    {
      "constant": true,
      "inputs": [],
      "name": "admin",
      "outputs": [
        {
          "name": "",
          "type": "address"
        }
      ],
      "payable": false,
      "stateMutability": "view",
      "type": "function"
    },
    {
      "inputs": [
        {
          "name": "_admin",
          "type": "address"
        }
      ],
      "payable": false,
      "stateMutability": "nonpayable",
      "type": "constructor"
    },
    {
      "anonymous": false,
      "inputs": [
        {
          "indexed": false,
          "name": "token",
          "type": "address"
        },
        {
          "indexed": false,
          "name": "amount",
          "type": "uint256"
        },
        {
          "indexed": false,
          "name": "sendTo",
          "type": "address"
        }
      ],
      "name": "TokenWithdraw",
      "type": "event"
    },
    {
      "anonymous": false,
      "inputs": [
        {
          "indexed": false,
          "name": "amount",
          "type": "uint256"
        },
        {
          "indexed": false,
          "name": "sendTo",
          "type": "address"
        }
      ],
      "name": "EtherWithdraw",
      "type": "event"
    },
    {
      "anonymous": false,
      "inputs": [
        {
          "indexed": false,
          "name": "pendingAdmin",
          "type": "address"
        }
      ],
      "name": "TransferAdminPending",
      "type": "event"
    },
    {
      "anonymous": false,
      "inputs": [
        {
          "indexed": false,
          "name": "newAdmin",
          "type": "address"
        },
        {
          "indexed": false,
          "name": "previousAdmin",
          "type": "address"
        }
      ],
      "name": "AdminClaimed",
      "type": "event"
    },
    {
      "anonymous": false,
      "inputs": [
        {
          "indexed": false,
          "name": "newAlerter",
          "type": "address"
        },
        {
          "indexed": false,
          "name": "isAdd",
          "type": "bool"
        }
      ],
      "name": "AlerterAdded",
      "type": "event"
    },
    {
      "anonymous": false,
      "inputs": [
        {
          "indexed": false,
          "name": "newOperator",
          "type": "address"
        },
        {
          "indexed": false,
          "name": "isAdd",
          "type": "bool"
        }
      ],
      "name": "OperatorAdded",
      "type": "event"
    },
    {
      "constant": false,
      "inputs": [
        {
          "name": "token",
          "type": "address"
        },
        {
          "name": "minimalRecordResolution",
          "type": "uint256"
        },
        {
          "name": "maxPerBlockImbalance",
          "type": "uint256"
        },
        {
          "name": "maxTotalImbalance",
          "type": "uint256"
        }
      ],
      "name": "setTokenControlInfo",
      "outputs": [],
      "payable": false,
      "stateMutability": "nonpayable",
      "type": "function"
    },
    {
      "constant": true,
      "inputs": [
        {
          "name": "token",
          "type": "address"
        }
      ],
      "name": "getTokenControlInfo",
      "outputs": [
        {
          "name": "",
          "type": "uint256"
        },
        {
          "name": "",
          "type": "uint256"
        },
        {
          "name": "",
          "type": "uint256"
        }
      ],
      "payable": false,
      "stateMutability": "view",
      "type": "function"
    }
  ],
  "bytecode": "0x6060604052341561000f57600080fd5b604051602080611bfe83398101604052808051906020019091905050336000806101000a81548173ffffffffffffffffffffffffffffffffffffffff021916908373ffffffffffffffffffffffffffffffffffffffff160217905550600073ffffffffffffffffffffffffffffffffffffffff168173ffffffffffffffffffffffffffffffffffffffff16141515156100a757600080fd5b806000806101000a81548173ffffffffffffffffffffffffffffffffffffffff021916908373ffffffffffffffffffffffffffffffffffffffff16021790555050611b07806100f76000396000f3006060604052600436106100e6576000357c0100000000000000000000000000000000000000000000000000000000900463ffffffff16806301a12fd3146100eb578063267822471461012457806327a099d8146101795780633ccdbb28146101e3578063408ee7fe1461024457806375829def1461027d57806377f50f97146102b65780637acc8678146102cb5780637c423f54146103045780639870d7fe1461036e578063a80c609e146103a7578063ac8a584a146103fd578063bfee356914610436578063ce56c4541461048a578063e7d4fd91146104cc578063f851a44014610527575b600080fd5b34156100f657600080fd5b610122600480803573ffffffffffffffffffffffffffffffffffffffff1690602001909190505061057c565b005b341561012f57600080fd5b61013761083e565b604051808273ffffffffffffffffffffffffffffffffffffffff1673ffffffffffffffffffffffffffffffffffffffff16815260200191505060405180910390f35b341561018457600080fd5b61018c610864565b6040518080602001828103825283818151815260200191508051906020019060200280838360005b838110156101cf5780820151818401526020810190506101b4565b505050509050019250505060405180910390f35b34156101ee57600080fd5b610242600480803573ffffffffffffffffffffffffffffffffffffffff1690602001909190803590602001909190803573ffffffffffffffffffffffffffffffffffffffff169060200190919050506108f8565b005b341561024f57600080fd5b61027b600480803573ffffffffffffffffffffffffffffffffffffffff16906020019091905050610ac8565b005b341561028857600080fd5b6102b4600480803573ffffffffffffffffffffffffffffffffffffffff16906020019091905050610cbe565b005b34156102c157600080fd5b6102c9610e1e565b005b34156102d657600080fd5b610302600480803573ffffffffffffffffffffffffffffffffffffffff16906020019091905050610ffa565b005b341561030f57600080fd5b6103176111ef565b6040518080602001828103825283818151815260200191508051906020019060200280838360005b8381101561035a57808201518184015260208101905061033f565b505050509050019250505060405180910390f35b341561037957600080fd5b6103a5600480803573ffffffffffffffffffffffffffffffffffffffff16906020019091905050611283565b005b34156103b257600080fd5b6103e7600480803573ffffffffffffffffffffffffffffffffffffffff16906020019091908035906020019091905050611479565b6040518082815260200191505060405180910390f35b341561040857600080fd5b610434600480803573ffffffffffffffffffffffffffffffffffffffff1690602001909190505061149e565b005b341561044157600080fd5b610488600480803573ffffffffffffffffffffffffffffffffffffffff16906020019091908035906020019091908035906020019091908035906020019091905050611763565b005b341561049557600080fd5b6104ca600480803590602001909190803573ffffffffffffffffffffffffffffffffffffffff16906020019091905050611840565b005b34156104d757600080fd5b610503600480803573ffffffffffffffffffffffffffffffffffffffff1690602001909190505061194a565b60405180848152602001838152602001828152602001935050505060405180910390f35b341561053257600080fd5b61053a611a25565b604051808273ffffffffffffffffffffffffffffffffffffffff1673ffffffffffffffffffffffffffffffffffffffff16815260200191505060405180910390f35b60008060009054906101000a900473ffffffffffffffffffffffffffffffffffffffff1673ffffffffffffffffffffffffffffffffffffffff163373ffffffffffffffffffffffffffffffffffffffff161415156105d957600080fd5b600360008373ffffffffffffffffffffffffffffffffffffffff1673ffffffffffffffffffffffffffffffffffffffff16815260200190815260200160002060009054906101000a900460ff16151561063157600080fd5b6000600360008473ffffffffffffffffffffffffffffffffffffffff1673ffffffffffffffffffffffffffffffffffffffff16815260200190815260200160002060006101000a81548160ff021916908315150217905550600090505b60058054905081101561083a578173ffffffffffffffffffffffffffffffffffffffff166005828154811015156106c157fe5b906000526020600020900160009054906101000a900473ffffffffffffffffffffffffffffffffffffffff1673ffffffffffffffffffffffffffffffffffffffff16141561082f57600560016005805490500381548110151561072057fe5b906000526020600020900160009054906101000a900473ffffffffffffffffffffffffffffffffffffffff1660058281548110151561075b57fe5b906000526020600020900160006101000a81548173ffffffffffffffffffffffffffffffffffffffff021916908373ffffffffffffffffffffffffffffffffffffffff16021790555060058054809190600190036107b99190611a4a565b507f5611bf3e417d124f97bf2c788843ea8bb502b66079fbee02158ef30b172cb762826000604051808373ffffffffffffffffffffffffffffffffffffffff1673ffffffffffffffffffffffffffffffffffffffff168152602001821515151581526020019250505060405180910390a161083a565b80600101905061068e565b5050565b600160009054906101000a900473ffffffffffffffffffffffffffffffffffffffff1681565b61086c611a76565b60048054806020026020016040519081016040528092919081815260200182805480156108ee57602002820191906000526020600020905b8160009054906101000a900473ffffffffffffffffffffffffffffffffffffffff1673ffffffffffffffffffffffffffffffffffffffff16815260200190600101908083116108a4575b5050505050905090565b6000809054906101000a900473ffffffffffffffffffffffffffffffffffffffff1673ffffffffffffffffffffffffffffffffffffffff163373ffffffffffffffffffffffffffffffffffffffff1614151561095357600080fd5b8273ffffffffffffffffffffffffffffffffffffffff1663a9059cbb82846000604051602001526040518363ffffffff167c0100000000000000000000000000000000000000000000000000000000028152600401808373ffffffffffffffffffffffffffffffffffffffff1673ffffffffffffffffffffffffffffffffffffffff16815260200182815260200192505050602060405180830381600087803b15156109fe57600080fd5b6102c65a03f11515610a0f57600080fd5b505050604051805190501515610a2457600080fd5b7f72cb8a894ddb372ceec3d2a7648d86f17d5a15caae0e986c53109b8a9a9385e6838383604051808473ffffffffffffffffffffffffffffffffffffffff1673ffffffffffffffffffffffffffffffffffffffff1681526020018381526020018273ffffffffffffffffffffffffffffffffffffffff1673ffffffffffffffffffffffffffffffffffffffff168152602001935050505060405180910390a1505050565b6000809054906101000a900473ffffffffffffffffffffffffffffffffffffffff1673ffffffffffffffffffffffffffffffffffffffff163373ffffffffffffffffffffffffffffffffffffffff16141515610b2357600080fd5b600360008273ffffffffffffffffffffffffffffffffffffffff1673ffffffffffffffffffffffffffffffffffffffff16815260200190815260200160002060009054906101000a900460ff16151515610b7c57600080fd5b6032600580549050101515610b9057600080fd5b7f5611bf3e417d124f97bf2c788843ea8bb502b66079fbee02158ef30b172cb762816001604051808373ffffffffffffffffffffffffffffffffffffffff1673ffffffffffffffffffffffffffffffffffffffff168152602001821515151581526020019250505060405180910390a16001600360008373ffffffffffffffffffffffffffffffffffffffff1673ffffffffffffffffffffffffffffffffffffffff16815260200190815260200160002060006101000a81548160ff02191690831515021790555060058054806001018281610c6c9190611a8a565b9160005260206000209001600083909190916101000a81548173ffffffffffffffffffffffffffffffffffffffff021916908373ffffffffffffffffffffffffffffffffffffffff1602179055505050565b6000809054906101000a900473ffffffffffffffffffffffffffffffffffffffff1673ffffffffffffffffffffffffffffffffffffffff163373ffffffffffffffffffffffffffffffffffffffff16141515610d1957600080fd5b600073ffffffffffffffffffffffffffffffffffffffff168173ffffffffffffffffffffffffffffffffffffffff1614151515610d5557600080fd5b7f3b81caf78fa51ecbc8acb482fd7012a277b428d9b80f9d156e8a54107496cc40600160009054906101000a900473ffffffffffffffffffffffffffffffffffffffff16604051808273ffffffffffffffffffffffffffffffffffffffff1673ffffffffffffffffffffffffffffffffffffffff16815260200191505060405180910390a180600160006101000a81548173ffffffffffffffffffffffffffffffffffffffff021916908373ffffffffffffffffffffffffffffffffffffffff16021790555050565b3373ffffffffffffffffffffffffffffffffffffffff16600160009054906101000a900473ffffffffffffffffffffffffffffffffffffffff1673ffffffffffffffffffffffffffffffffffffffff16141515610e7a57600080fd5b7f65da1cfc2c2e81576ad96afb24a581f8e109b7a403b35cbd3243a1c99efdb9ed600160009054906101000a900473ffffffffffffffffffffffffffffffffffffffff166000809054906101000a900473ffffffffffffffffffffffffffffffffffffffff16604051808373ffffffffffffffffffffffffffffffffffffffff1673ffffffffffffffffffffffffffffffffffffffff1681526020018273ffffffffffffffffffffffffffffffffffffffff1673ffffffffffffffffffffffffffffffffffffffff1681526020019250505060405180910390a1600160009054906101000a900473ffffffffffffffffffffffffffffffffffffffff166000806101000a81548173ffffffffffffffffffffffffffffffffffffffff021916908373ffffffffffffffffffffffffffffffffffffffff1602179055506000600160006101000a81548173ffffffffffffffffffffffffffffffffffffffff021916908373ffffffffffffffffffffffffffffffffffffffff160217905550565b6000809054906101000a900473ffffffffffffffffffffffffffffffffffffffff1673ffffffffffffffffffffffffffffffffffffffff163373ffffffffffffffffffffffffffffffffffffffff1614151561105557600080fd5b600073ffffffffffffffffffffffffffffffffffffffff168173ffffffffffffffffffffffffffffffffffffffff161415151561109157600080fd5b7f3b81caf78fa51ecbc8acb482fd7012a277b428d9b80f9d156e8a54107496cc4081604051808273ffffffffffffffffffffffffffffffffffffffff1673ffffffffffffffffffffffffffffffffffffffff16815260200191505060405180910390a17f65da1cfc2c2e81576ad96afb24a581f8e109b7a403b35cbd3243a1c99efdb9ed816000809054906101000a900473ffffffffffffffffffffffffffffffffffffffff16604051808373ffffffffffffffffffffffffffffffffffffffff1673ffffffffffffffffffffffffffffffffffffffff1681526020018273ffffffffffffffffffffffffffffffffffffffff1673ffffffffffffffffffffffffffffffffffffffff1681526020019250505060405180910390a1806000806101000a81548173ffffffffffffffffffffffffffffffffffffffff021916908373ffffffffffffffffffffffffffffffffffffffff16021790555050565b6111f7611a76565b600580548060200260200160405190810160405280929190818152602001828054801561127957602002820191906000526020600020905b8160009054906101000a900473ffffffffffffffffffffffffffffffffffffffff1673ffffffffffffffffffffffffffffffffffffffff168152602001906001019080831161122f575b5050505050905090565b6000809054906101000a900473ffffffffffffffffffffffffffffffffffffffff1673ffffffffffffffffffffffffffffffffffffffff163373ffffffffffffffffffffffffffffffffffffffff161415156112de57600080fd5b600260008273ffffffffffffffffffffffffffffffffffffffff1673ffffffffffffffffffffffffffffffffffffffff16815260200190815260200160002060009054906101000a900460ff1615151561133757600080fd5b603260048054905010151561134b57600080fd5b7f091a7a4b85135fdd7e8dbc18b12fabe5cc191ea867aa3c2e1a24a102af61d58b816001604051808373ffffffffffffffffffffffffffffffffffffffff1673ffffffffffffffffffffffffffffffffffffffff168152602001821515151581526020019250505060405180910390a16001600260008373ffffffffffffffffffffffffffffffffffffffff1673ffffffffffffffffffffffffffffffffffffffff16815260200190815260200160002060006101000a81548160ff021916908315150217905550600480548060010182816114279190611a8a565b9160005260206000209001600083909190916101000a81548173ffffffffffffffffffffffffffffffffffffffff021916908373ffffffffffffffffffffffffffffffffffffffff1602179055505050565b6007602052816000526040600020602052806000526040600020600091509150505481565b60008060009054906101000a900473ffffffffffffffffffffffffffffffffffffffff1673ffffffffffffffffffffffffffffffffffffffff163373ffffffffffffffffffffffffffffffffffffffff161415156114fb57600080fd5b600260008373ffffffffffffffffffffffffffffffffffffffff1673ffffffffffffffffffffffffffffffffffffffff16815260200190815260200160002060009054906101000a900460ff16151561155357600080fd5b6000600260008473ffffffffffffffffffffffffffffffffffffffff1673ffffffffffffffffffffffffffffffffffffffff16815260200190815260200160002060006101000a81548160ff021916908315150217905550600090505b60048054905081101561175f578173ffffffffffffffffffffffffffffffffffffffff166004828154811015156115e357fe5b906000526020600020900160009054906101000a900473ffffffffffffffffffffffffffffffffffffffff1673ffffffffffffffffffffffffffffffffffffffff16141561175457600460016004805490500381548110151561164257fe5b906000526020600020900160009054906101000a900473ffffffffffffffffffffffffffffffffffffffff1660048281548110151561167d57fe5b906000526020600020900160006101000a81548173ffffffffffffffffffffffffffffffffffffffff021916908373ffffffffffffffffffffffffffffffffffffffff16021790555060016004818180549050039150816116de9190611a4a565b507f091a7a4b85135fdd7e8dbc18b12fabe5cc191ea867aa3c2e1a24a102af61d58b826000604051808373ffffffffffffffffffffffffffffffffffffffff1673ffffffffffffffffffffffffffffffffffffffff168152602001821515151581526020019250505060405180910390a161175f565b8060010190506115b0565b5050565b6000809054906101000a900473ffffffffffffffffffffffffffffffffffffffff1673ffffffffffffffffffffffffffffffffffffffff163373ffffffffffffffffffffffffffffffffffffffff161415156117be57600080fd5b60606040519081016040528084815260200183815260200182815250600660008673ffffffffffffffffffffffffffffffffffffffff1673ffffffffffffffffffffffffffffffffffffffff16815260200190815260200160002060008201518160000155602082015181600101556040820151816002015590505050505050565b6000809054906101000a900473ffffffffffffffffffffffffffffffffffffffff1673ffffffffffffffffffffffffffffffffffffffff163373ffffffffffffffffffffffffffffffffffffffff1614151561189b57600080fd5b8073ffffffffffffffffffffffffffffffffffffffff166108fc839081150290604051600060405180830381858888f1935050505015156118db57600080fd5b7fec47e7ed86c86774d1a72c19f35c639911393fe7c1a34031fdbd260890da90de8282604051808381526020018273ffffffffffffffffffffffffffffffffffffffff1673ffffffffffffffffffffffffffffffffffffffff1681526020019250505060405180910390a15050565b6000806000600660008573ffffffffffffffffffffffffffffffffffffffff1673ffffffffffffffffffffffffffffffffffffffff16815260200190815260200160002060000154600660008673ffffffffffffffffffffffffffffffffffffffff1673ffffffffffffffffffffffffffffffffffffffff16815260200190815260200160002060010154600660008773ffffffffffffffffffffffffffffffffffffffff1673ffffffffffffffffffffffffffffffffffffffff168152602001908152602001600020600201549250925092509193909250565b6000809054906101000a900473ffffffffffffffffffffffffffffffffffffffff1681565b815481835581811511611a7157818360005260206000209182019101611a709190611ab6565b5b505050565b602060405190810160405280600081525090565b815481835581811511611ab157818360005260206000209182019101611ab09190611ab6565b5b505050565b611ad891905b80821115611ad4576000816000905550600101611abc565b5090565b905600a165627a7a723058207cd995ca334b286d12c8ba52add54cb69d963275d11acd07aedd96bccf3f8a370029",
  "source": "pragma solidity 0.4.18;\n\n\nimport \"./ERC20Interface.sol\";\nimport \"./Withdrawable.sol\";\n\n\ncontract VolumeImbalanceRecorder is Withdrawable {\n\n    uint constant internal SLIDING_WINDOW_SIZE = 5;\n    uint constant internal POW_2_64 = 2 ** 64;\n\n    struct TokenControlInfo {\n        uint minimalRecordResolution; // can be roughly 1 cent\n        uint maxPerBlockImbalance; // in twei resolution\n        uint maxTotalImbalance; // max total imbalance (between rate updates)\n                            // before halting trade\n    }\n\n    mapping(address => TokenControlInfo) internal tokenControlInfo;\n\n    struct TokenImbalanceData {\n        int  lastBlockBuyUnitsImbalance;\n        uint lastBlock;\n\n        int  totalBuyUnitsImbalance;\n        uint lastRateUpdateBlock;\n    }\n\n    mapping(address => mapping(uint=>uint)) public tokenImbalanceData;\n\n    function VolumeImbalanceRecorder(address _admin) public {\n        require(_admin != address(0));\n        admin = _admin;\n    }\n\n    function setTokenControlInfo(\n        ERC20 token,\n        uint minimalRecordResolution,\n        uint maxPerBlockImbalance,\n        uint maxTotalImbalance\n    )\n        public\n        onlyAdmin\n    {\n        tokenControlInfo[token] =\n            TokenControlInfo(\n                minimalRecordResolution,\n                maxPerBlockImbalance,\n                maxTotalImbalance\n            );\n    }\n\n    function getTokenControlInfo(ERC20 token) public view returns(uint, uint, uint) {\n        return (tokenControlInfo[token].minimalRecordResolution,\n                tokenControlInfo[token].maxPerBlockImbalance,\n                tokenControlInfo[token].maxTotalImbalance);\n    }\n\n    function addImbalance(\n        ERC20 token,\n        int buyAmount,\n        uint rateUpdateBlock,\n        uint currentBlock\n    )\n        internal\n    {\n        uint currentBlockIndex = currentBlock % SLIDING_WINDOW_SIZE;\n        int recordedBuyAmount = int(buyAmount / int(tokenControlInfo[token].minimalRecordResolution));\n\n        int prevImbalance = 0;\n\n        TokenImbalanceData memory currentBlockData =\n            decodeTokenImbalanceData(tokenImbalanceData[token][currentBlockIndex]);\n\n        // first scenario - this is not the first tx in the current block\n        if (currentBlockData.lastBlock == currentBlock) {\n            if (uint(currentBlockData.lastRateUpdateBlock) == rateUpdateBlock) {\n                // just increase imbalance\n                currentBlockData.lastBlockBuyUnitsImbalance += recordedBuyAmount;\n                currentBlockData.totalBuyUnitsImbalance += recordedBuyAmount;\n            } else {\n                // imbalance was changed in the middle of the block\n                prevImbalance = getImbalanceInRange(token, rateUpdateBlock, currentBlock);\n                currentBlockData.totalBuyUnitsImbalance = int(prevImbalance) + recordedBuyAmount;\n                currentBlockData.lastBlockBuyUnitsImbalance += recordedBuyAmount;\n                currentBlockData.lastRateUpdateBlock = uint(rateUpdateBlock);\n            }\n        } else {\n            // first tx in the current block\n            int currentBlockImbalance;\n            (prevImbalance, currentBlockImbalance) = getImbalanceSinceRateUpdate(token, rateUpdateBlock, currentBlock);\n\n            currentBlockData.lastBlockBuyUnitsImbalance = recordedBuyAmount;\n            currentBlockData.lastBlock = uint(currentBlock);\n            currentBlockData.lastRateUpdateBlock = uint(rateUpdateBlock);\n            currentBlockData.totalBuyUnitsImbalance = int(prevImbalance) + recordedBuyAmount;\n        }\n\n        tokenImbalanceData[token][currentBlockIndex] = encodeTokenImbalanceData(currentBlockData);\n    }\n\n    function setGarbageToVolumeRecorder(ERC20 token) internal {\n        for (uint i = 0; i < SLIDING_WINDOW_SIZE; i++) {\n            tokenImbalanceData[token][i] = 0x1;\n        }\n    }\n\n    function getImbalanceInRange(ERC20 token, uint startBlock, uint endBlock) internal view returns(int buyImbalance) {\n        // check the imbalance in the sliding window\n        require(startBlock <= endBlock);\n\n        buyImbalance = 0;\n\n        for (uint windowInd = 0; windowInd < SLIDING_WINDOW_SIZE; windowInd++) {\n            TokenImbalanceData memory perBlockData = decodeTokenImbalanceData(tokenImbalanceData[token][windowInd]);\n\n            if (perBlockData.lastBlock <= endBlock && perBlockData.lastBlock >= startBlock) {\n                buyImbalance += int(perBlockData.lastBlockBuyUnitsImbalance);\n            }\n        }\n    }\n\n    function getImbalanceSinceRateUpdate(ERC20 token, uint rateUpdateBlock, uint currentBlock)\n        internal view\n        returns(int buyImbalance, int currentBlockImbalance)\n    {\n        buyImbalance = 0;\n        currentBlockImbalance = 0;\n        uint latestBlock = 0;\n        int imbalanceInRange = 0;\n        uint startBlock = rateUpdateBlock;\n        uint endBlock = currentBlock;\n\n        for (uint windowInd = 0; windowInd < SLIDING_WINDOW_SIZE; windowInd++) {\n            TokenImbalanceData memory perBlockData = decodeTokenImbalanceData(tokenImbalanceData[token][windowInd]);\n\n            if (perBlockData.lastBlock <= endBlock && perBlockData.lastBlock >= startBlock) {\n                imbalanceInRange += perBlockData.lastBlockBuyUnitsImbalance;\n            }\n\n            if (perBlockData.lastRateUpdateBlock != rateUpdateBlock) continue;\n            if (perBlockData.lastBlock < latestBlock) continue;\n\n            latestBlock = perBlockData.lastBlock;\n            buyImbalance = perBlockData.totalBuyUnitsImbalance;\n            if (uint(perBlockData.lastBlock) == currentBlock) {\n                currentBlockImbalance = perBlockData.lastBlockBuyUnitsImbalance;\n            }\n        }\n\n        if (buyImbalance == 0) {\n            buyImbalance = imbalanceInRange;\n        }\n    }\n\n    function getImbalance(ERC20 token, uint rateUpdateBlock, uint currentBlock)\n        internal view\n        returns(int totalImbalance, int currentBlockImbalance)\n    {\n\n        int resolution = int(tokenControlInfo[token].minimalRecordResolution);\n\n        (totalImbalance, currentBlockImbalance) =\n            getImbalanceSinceRateUpdate(\n                token,\n                rateUpdateBlock,\n                currentBlock);\n\n        totalImbalance *= resolution;\n        currentBlockImbalance *= resolution;\n    }\n\n    function getMaxPerBlockImbalance(ERC20 token) internal view returns(uint) {\n        return tokenControlInfo[token].maxPerBlockImbalance;\n    }\n\n    function getMaxTotalImbalance(ERC20 token) internal view returns(uint) {\n        return tokenControlInfo[token].maxTotalImbalance;\n    }\n\n    function encodeTokenImbalanceData(TokenImbalanceData data) internal pure returns(uint) {\n        // check for overflows\n        require(data.lastBlockBuyUnitsImbalance < int(POW_2_64 / 2));\n        require(data.lastBlockBuyUnitsImbalance > int(-1 * int(POW_2_64) / 2));\n        require(data.lastBlock < POW_2_64);\n        require(data.totalBuyUnitsImbalance < int(POW_2_64 / 2));\n        require(data.totalBuyUnitsImbalance > int(-1 * int(POW_2_64) / 2));\n        require(data.lastRateUpdateBlock < POW_2_64);\n\n        // do encoding\n        uint result = uint(data.lastBlockBuyUnitsImbalance) & (POW_2_64 - 1);\n        result |= data.lastBlock * POW_2_64;\n        result |= (uint(data.totalBuyUnitsImbalance) & (POW_2_64 - 1)) * POW_2_64 * POW_2_64;\n        result |= data.lastRateUpdateBlock * POW_2_64 * POW_2_64 * POW_2_64;\n\n        return result;\n    }\n\n    function decodeTokenImbalanceData(uint input) internal pure returns(TokenImbalanceData) {\n        TokenImbalanceData memory data;\n\n        data.lastBlockBuyUnitsImbalance = int(int64(input & (POW_2_64 - 1)));\n        data.lastBlock = uint(uint64((input / POW_2_64) & (POW_2_64 - 1)));\n        data.totalBuyUnitsImbalance = int(int64((input / (POW_2_64 * POW_2_64)) & (POW_2_64 - 1)));\n        data.lastRateUpdateBlock = uint(uint64((input / (POW_2_64 * POW_2_64 * POW_2_64))));\n\n        return data;\n    }\n}\n",
  "sourcePath": "/Users/oscarr/Ethereum/frappe/contracts/VolumeImbalanceRecorder.sol",
  "compiler": {
    "name": "solc",
    "version": "0.4.18+commit.9cf6e910.Emscripten.clang"
  },
  "schemaVersion": "3.0.6",
  "updatedAt": "2019-05-18T17:14:13.038Z",
  "devdoc": {
    "methods": {
      "claimAdmin()": {
        "details": "Allows the pendingAdmin address to finalize the change admin process."
      },
      "transferAdmin(address)": {
        "details": "Allows the current admin to set the pendingAdmin address.",
        "params": {
          "newAdmin": "The address to transfer ownership to."
        }
      },
      "transferAdminQuickly(address)": {
        "details": "Allows the current admin to set the admin in one tx. Useful initial deployment.",
        "params": {
          "newAdmin": "The address to transfer ownership to."
        }
      },
      "withdrawEther(uint256,address)": {
        "details": "Withdraw Ethers"
      },
      "withdrawToken(address,uint256,address)": {
        "details": "Withdraw all ERC20 compatible tokens",
        "params": {
          "token": "ERC20 The address of the token contract"
        }
      }
    }
  },
  "userdoc": {
    "methods": {}
  }
}