{
  "contractName": "WrapFeeBurner",
  "abi": [
    {
      "constant": false,
      "inputs": [],
      "name": "claimWrappedContractAdmin",
      "outputs": [],
      "payable": false,
      "stateMutability": "nonpayable",
      "type": "function"
    },
    {
      "constant": false,
      "inputs": [
        {
          "name": "alerter",
          "type": "address"
        }
      ],
      "name": "removeAlerter",
      "outputs": [],
      "payable": false,
      "stateMutability": "nonpayable",
      "type": "function"
    },
    {
      "constant": true,
      "inputs": [],
      "name": "pendingAdmin",
      "outputs": [
        {
          "name": "",
          "type": "address"
        }
      ],
      "payable": false,
      "stateMutability": "view",
      "type": "function"
    },
    {
      "constant": true,
      "inputs": [],
      "name": "getOperators",
      "outputs": [
        {
          "name": "",
          "type": "address[]"
        }
      ],
      "payable": false,
      "stateMutability": "view",
      "type": "function"
    },
    {
      "constant": false,
      "inputs": [
        {
          "name": "token",
          "type": "address"
        },
        {
          "name": "amount",
          "type": "uint256"
        },
        {
          "name": "sendTo",
          "type": "address"
        }
      ],
      "name": "withdrawToken",
      "outputs": [],
      "payable": false,
      "stateMutability": "nonpayable",
      "type": "function"
    },
    {
      "constant": false,
      "inputs": [
        {
          "name": "newAlerter",
          "type": "address"
        }
      ],
      "name": "addAlerter",
      "outputs": [],
      "payable": false,
      "stateMutability": "nonpayable",
      "type": "function"
    },
    {
      "constant": true,
      "inputs": [],
      "name": "feeBurnerContract",
      "outputs": [
        {
          "name": "",
          "type": "address"
        }
      ],
      "payable": false,
      "stateMutability": "view",
      "type": "function"
    },
    {
      "constant": false,
      "inputs": [
        {
          "name": "newAdmin",
          "type": "address"
        }
      ],
      "name": "transferAdmin",
      "outputs": [],
      "payable": false,
      "stateMutability": "nonpayable",
      "type": "function"
    },
    {
      "constant": false,
      "inputs": [],
      "name": "claimAdmin",
      "outputs": [],
      "payable": false,
      "stateMutability": "nonpayable",
      "type": "function"
    },
    {
      "constant": false,
      "inputs": [
        {
          "name": "newAdmin",
          "type": "address"
        }
      ],
      "name": "transferAdminQuickly",
      "outputs": [],
      "payable": false,
      "stateMutability": "nonpayable",
      "type": "function"
    },
    {
      "constant": true,
      "inputs": [],
      "name": "getAlerters",
      "outputs": [
        {
          "name": "",
          "type": "address[]"
        }
      ],
      "payable": false,
      "stateMutability": "view",
      "type": "function"
    },
    {
      "constant": false,
      "inputs": [
        {
          "name": "newAdmin",
          "type": "address"
        }
      ],
      "name": "transferWrappedContractAdmin",
      "outputs": [],
      "payable": false,
      "stateMutability": "nonpayable",
      "type": "function"
    },
    {
      "constant": false,
      "inputs": [
        {
          "name": "newOperator",
          "type": "address"
        }
      ],
      "name": "addOperator",
      "outputs": [],
      "payable": false,
      "stateMutability": "nonpayable",
      "type": "function"
    },
    {
      "constant": false,
      "inputs": [
        {
          "name": "operator",
          "type": "address"
        }
      ],
      "name": "removeOperator",
      "outputs": [],
      "payable": false,
      "stateMutability": "nonpayable",
      "type": "function"
    },
    {
      "constant": false,
      "inputs": [
        {
          "name": "amount",
          "type": "uint256"
        },
        {
          "name": "sendTo",
          "type": "address"
        }
      ],
      "name": "withdrawEther",
      "outputs": [],
      "payable": false,
      "stateMutability": "nonpayable",
      "type": "function"
    },
    {
      "constant": true,
      "inputs": [],
      "name": "feeSharingBps",
      "outputs": [
        {
          "name": "",
          "type": "uint256"
        }
      ],
      "payable": false,
      "stateMutability": "view",
      "type": "function"
    },
    {
      "constant": true,
      "inputs": [],
      "name": "wrappedContract",
      "outputs": [
        {
          "name": "",
          "type": "address"
        }
      ],
      "payable": false,
      "stateMutability": "view",
      "type": "function"
    },
    {
      "constant": true,
      "inputs": [],
      "name": "admin",
      "outputs": [
        {
          "name": "",
          "type": "address"
        }
      ],
      "payable": false,
      "stateMutability": "view",
      "type": "function"
    },
    {
      "inputs": [
        {
          "name": "feeBurner",
          "type": "address"
        },
        {
          "name": "_admin",
          "type": "address"
        }
      ],
      "payable": false,
      "stateMutability": "nonpayable",
      "type": "constructor"
    },
    {
      "anonymous": false,
      "inputs": [
        {
          "indexed": false,
          "name": "sender",
          "type": "address"
        },
        {
          "indexed": false,
          "name": "walletAddress",
          "type": "address"
        }
      ],
      "name": "WalletRegisteredForFeeSharing",
      "type": "event"
    },
    {
      "anonymous": false,
      "inputs": [
        {
          "indexed": false,
          "name": "token",
          "type": "address"
        },
        {
          "indexed": false,
          "name": "amount",
          "type": "uint256"
        },
        {
          "indexed": false,
          "name": "sendTo",
          "type": "address"
        }
      ],
      "name": "TokenWithdraw",
      "type": "event"
    },
    {
      "anonymous": false,
      "inputs": [
        {
          "indexed": false,
          "name": "amount",
          "type": "uint256"
        },
        {
          "indexed": false,
          "name": "sendTo",
          "type": "address"
        }
      ],
      "name": "EtherWithdraw",
      "type": "event"
    },
    {
      "anonymous": false,
      "inputs": [
        {
          "indexed": false,
          "name": "pendingAdmin",
          "type": "address"
        }
      ],
      "name": "TransferAdminPending",
      "type": "event"
    },
    {
      "anonymous": false,
      "inputs": [
        {
          "indexed": false,
          "name": "newAdmin",
          "type": "address"
        },
        {
          "indexed": false,
          "name": "previousAdmin",
          "type": "address"
        }
      ],
      "name": "AdminClaimed",
      "type": "event"
    },
    {
      "anonymous": false,
      "inputs": [
        {
          "indexed": false,
          "name": "newAlerter",
          "type": "address"
        },
        {
          "indexed": false,
          "name": "isAdd",
          "type": "bool"
        }
      ],
      "name": "AlerterAdded",
      "type": "event"
    },
    {
      "anonymous": false,
      "inputs": [
        {
          "indexed": false,
          "name": "newOperator",
          "type": "address"
        },
        {
          "indexed": false,
          "name": "isAdd",
          "type": "bool"
        }
      ],
      "name": "OperatorAdded",
      "type": "event"
    },
    {
      "constant": false,
      "inputs": [
        {
          "name": "feeBps",
          "type": "uint256"
        }
      ],
      "name": "setFeeSharingValue",
      "outputs": [],
      "payable": false,
      "stateMutability": "nonpayable",
      "type": "function"
    },
    {
      "constant": true,
      "inputs": [],
      "name": "getFeeSharingWallets",
      "outputs": [
        {
          "name": "",
          "type": "address[]"
        }
      ],
      "payable": false,
      "stateMutability": "view",
      "type": "function"
    },
    {
      "constant": false,
      "inputs": [
        {
          "name": "walletAddress",
          "type": "address"
        }
      ],
      "name": "registerWalletForFeeSharing",
      "outputs": [],
      "payable": false,
      "stateMutability": "nonpayable",
      "type": "function"
    },
    {
      "constant": false,
      "inputs": [
        {
          "name": "reserve",
          "type": "address"
        },
        {
          "name": "feeBps",
          "type": "uint256"
        },
        {
          "name": "kncWallet",
          "type": "address"
        }
      ],
      "name": "setPendingReserveData",
      "outputs": [],
      "payable": false,
      "stateMutability": "nonpayable",
      "type": "function"
    },
    {
      "constant": true,
      "inputs": [],
      "name": "getPendingAddReserveData",
      "outputs": [
        {
          "name": "reserve",
          "type": "address"
        },
        {
          "name": "feeBps",
          "type": "uint256"
        },
        {
          "name": "kncWallet",
          "type": "address"
        },
        {
          "name": "nonce",
          "type": "uint256"
        }
      ],
      "payable": false,
      "stateMutability": "view",
      "type": "function"
    },
    {
      "constant": true,
      "inputs": [],
      "name": "getAddReserveSignatures",
      "outputs": [
        {
          "name": "signatures",
          "type": "address[]"
        }
      ],
      "payable": false,
      "stateMutability": "view",
      "type": "function"
    },
    {
      "constant": false,
      "inputs": [
        {
          "name": "nonce",
          "type": "uint256"
        }
      ],
      "name": "approveAddReserveData",
      "outputs": [],
      "payable": false,
      "stateMutability": "nonpayable",
      "type": "function"
    },
    {
      "constant": false,
      "inputs": [
        {
          "name": "wallet",
          "type": "address"
        },
        {
          "name": "feeBps",
          "type": "uint256"
        }
      ],
      "name": "setPendingWalletFee",
      "outputs": [],
      "payable": false,
      "stateMutability": "nonpayable",
      "type": "function"
    },
    {
      "constant": true,
      "inputs": [],
      "name": "getPendingWalletFeeData",
      "outputs": [
        {
          "name": "wallet",
          "type": "address"
        },
        {
          "name": "feeBps",
          "type": "uint256"
        },
        {
          "name": "nonce",
          "type": "uint256"
        }
      ],
      "payable": false,
      "stateMutability": "view",
      "type": "function"
    },
    {
      "constant": true,
      "inputs": [],
      "name": "getWalletFeeSignatures",
      "outputs": [
        {
          "name": "signatures",
          "type": "address[]"
        }
      ],
      "payable": false,
      "stateMutability": "view",
      "type": "function"
    },
    {
      "constant": false,
      "inputs": [
        {
          "name": "nonce",
          "type": "uint256"
        }
      ],
      "name": "approveWalletFeeData",
      "outputs": [],
      "payable": false,
      "stateMutability": "nonpayable",
      "type": "function"
    },
    {
      "constant": false,
      "inputs": [
        {
          "name": "taxWallet",
          "type": "address"
        },
        {
          "name": "feeBps",
          "type": "uint256"
        }
      ],
      "name": "setPendingTaxParameters",
      "outputs": [],
      "payable": false,
      "stateMutability": "nonpayable",
      "type": "function"
    },
    {
      "constant": true,
      "inputs": [],
      "name": "getPendingTaxData",
      "outputs": [
        {
          "name": "wallet",
          "type": "address"
        },
        {
          "name": "feeBps",
          "type": "uint256"
        },
        {
          "name": "nonce",
          "type": "uint256"
        }
      ],
      "payable": false,
      "stateMutability": "view",
      "type": "function"
    },
    {
      "constant": true,
      "inputs": [],
      "name": "getTaxDataSignatures",
      "outputs": [
        {
          "name": "signatures",
          "type": "address[]"
        }
      ],
      "payable": false,
      "stateMutability": "view",
      "type": "function"
    },
    {
      "constant": false,
      "inputs": [
        {
          "name": "nonce",
          "type": "uint256"
        }
      ],
      "name": "approveTaxData",
      "outputs": [],
      "payable": false,
      "stateMutability": "nonpayable",
      "type": "function"
    }
  ],
  "bytecode": "0x6060604052610bb8600a5534156200001657600080fd5b6040516040806200393783398101604052808051906020019091908051906020019091905050818160046000336000806101000a81548173ffffffffffffffffffffffffffffffffffffffff021916908373ffffffffffffffffffffffffffffffffffffffff160217905550600073ffffffffffffffffffffffffffffffffffffffff168473ffffffffffffffffffffffffffffffffffffffff1614151515620000bf57600080fd5b600073ffffffffffffffffffffffffffffffffffffffff168373ffffffffffffffffffffffffffffffffffffffff1614151515620000fc57600080fd5b83600660006101000a81548173ffffffffffffffffffffffffffffffffffffffff021916908373ffffffffffffffffffffffffffffffffffffffff160217905550826000806101000a81548173ffffffffffffffffffffffffffffffffffffffff021916908373ffffffffffffffffffffffffffffffffffffffff160217905550600090505b81811015620001b757620001a962000241640100000000026200328b176401000000009004565b808060010191505062000182565b50505050600073ffffffffffffffffffffffffffffffffffffffff168273ffffffffffffffffffffffffffffffffffffffff1614151515620001f857600080fd5b81600860006101000a81548173ffffffffffffffffffffffffffffffffffffffff021916908373ffffffffffffffffffffffffffffffffffffffff160217905550505062000483565b6200024b620002de565b60006040518059106200025b5750595b9080825280602002602001820160405250905060078054806001018281620002849190620002f2565b916000526020600020906002020160006040805190810160405280858152602001600081525090919091506000820151816000019080519060200190620002cd92919062000327565b506020820151816001015550505050565b602060405190810160405280600081525090565b8154818355818115116200032257600202816002028360005260206000209182019101620003219190620003b6565b5b505050565b828054828255906000526020600020908101928215620003a3579160200282015b82811115620003a25782518260006101000a81548173ffffffffffffffffffffffffffffffffffffffff021916908373ffffffffffffffffffffffffffffffffffffffff1602179055509160200191906001019062000348565b5b509050620003b29190620003f2565b5090565b620003ef91905b80821115620003eb5760008082016000620003d9919062000438565b600182016000905550600201620003bd565b5090565b90565b6200043591905b808211156200043157600081816101000a81549073ffffffffffffffffffffffffffffffffffffffff021916905550600101620003f9565b5090565b90565b50805460008255906000526020600020908101906200045891906200045b565b50565b6200048091905b808211156200047c57600081600090555060010162000462565b5090565b90565b6134a480620004936000396000f3006060604052600436106101a1576000357c0100000000000000000000000000000000000000000000000000000000900463ffffffff168063010afc20146101a657806301a12fd3146101bb57806326782247146101f457806327a099d8146102495780633ccdbb28146102b35780633ce6d89b14610314578063408ee7fe14610337578063579425b71461037057806361a12160146103c5578063688057fc1461045b5780636e974fd61461049457806375829def146104b757806377f50f97146104f05780637acc8678146105055780637c423f541461053e57806386d01727146105a857806388046818146105ea5780638d7cffb7146106545780639104b6f41461068d57806392c00590146106f05780639870d7fe1461075a5780639e05de6214610793578063a01e1a21146107b6578063ac8a584a14610817578063acda01f614610850578063c567f30414610892578063ce56c454146108b5578063db2becb0146108f7578063dd95208914610961578063e2f8fa16146109cb578063edafe58814610a2e578063f7f9cb1c14610a57578063f851a44014610aac575b600080fd5b34156101b157600080fd5b6101b9610b01565b005b34156101c657600080fd5b6101f2600480803573ffffffffffffffffffffffffffffffffffffffff16906020019091905050610bf4565b005b34156101ff57600080fd5b610207610eb6565b604051808273ffffffffffffffffffffffffffffffffffffffff1673ffffffffffffffffffffffffffffffffffffffff16815260200191505060405180910390f35b341561025457600080fd5b61025c610edc565b6040518080602001828103825283818151815260200191508051906020019060200280838360005b8381101561029f578082015181840152602081019050610284565b505050509050019250505060405180910390f35b34156102be57600080fd5b610312600480803573ffffffffffffffffffffffffffffffffffffffff1690602001909190803590602001909190803573ffffffffffffffffffffffffffffffffffffffff16906020019091905050610f70565b005b341561031f57600080fd5b6103356004808035906020019091905050611140565b005b341561034257600080fd5b61036e600480803573ffffffffffffffffffffffffffffffffffffffff1690602001909190505061134b565b005b341561037b57600080fd5b610383611541565b604051808273ffffffffffffffffffffffffffffffffffffffff1673ffffffffffffffffffffffffffffffffffffffff16815260200191505060405180910390f35b34156103d057600080fd5b6103d8611567565b604051808573ffffffffffffffffffffffffffffffffffffffff1673ffffffffffffffffffffffffffffffffffffffff1681526020018481526020018373ffffffffffffffffffffffffffffffffffffffff1673ffffffffffffffffffffffffffffffffffffffff16815260200182815260200194505050505060405180910390f35b341561046657600080fd5b610492600480803573ffffffffffffffffffffffffffffffffffffffff169060200190919050506115e9565b005b341561049f57600080fd5b6104b560048080359060200190919050506118ae565b005b34156104c257600080fd5b6104ee600480803573ffffffffffffffffffffffffffffffffffffffff16906020019091905050611a1d565b005b34156104fb57600080fd5b610503611b7d565b005b341561051057600080fd5b61053c600480803573ffffffffffffffffffffffffffffffffffffffff16906020019091905050611d59565b005b341561054957600080fd5b610551611f4e565b6040518080602001828103825283818151815260200191508051906020019060200280838360005b83811015610594578082015181840152602081019050610579565b505050509050019250505060405180910390f35b34156105b357600080fd5b6105e8600480803573ffffffffffffffffffffffffffffffffffffffff16906020019091908035906020019091905050611fe2565b005b34156105f557600080fd5b6105fd6120f1565b6040518080602001828103825283818151815260200191508051906020019060200280838360005b83811015610640578082015181840152602081019050610625565b505050509050019250505060405180910390f35b341561065f57600080fd5b61068b600480803573ffffffffffffffffffffffffffffffffffffffff16906020019091905050612185565b005b341561069857600080fd5b6106a06122b3565b604051808473ffffffffffffffffffffffffffffffffffffffff1673ffffffffffffffffffffffffffffffffffffffff168152602001838152602001828152602001935050505060405180910390f35b34156106fb57600080fd5b61070361230b565b6040518080602001828103825283818151815260200191508051906020019060200280838360005b8381101561074657808201518184015260208101905061072b565b505050509050019250505060405180910390f35b341561076557600080fd5b610791600480803573ffffffffffffffffffffffffffffffffffffffff1690602001909190505061232e565b005b341561079e57600080fd5b6107b46004808035906020019091905050612524565b005b34156107c157600080fd5b610815600480803573ffffffffffffffffffffffffffffffffffffffff1690602001909190803590602001909190803573ffffffffffffffffffffffffffffffffffffffff16906020019091905050612599565b005b341561082257600080fd5b61084e600480803573ffffffffffffffffffffffffffffffffffffffff16906020019091905050612729565b005b341561085b57600080fd5b610890600480803573ffffffffffffffffffffffffffffffffffffffff169060200190919080359060200190919050506129ee565b005b341561089d57600080fd5b6108b36004808035906020019091905050612afd565b005b34156108c057600080fd5b6108f5600480803590602001909190803573ffffffffffffffffffffffffffffffffffffffff16906020019091905050612cc5565b005b341561090257600080fd5b61090a612dcf565b6040518080602001828103825283818151815260200191508051906020019060200280838360005b8381101561094d578082015181840152602081019050610932565b505050509050019250505060405180910390f35b341561096c57600080fd5b610974612df2565b6040518080602001828103825283818151815260200191508051906020019060200280838360005b838110156109b757808201518184015260208101905061099c565b505050509050019250505060405180910390f35b34156109d657600080fd5b6109de612e15565b604051808473ffffffffffffffffffffffffffffffffffffffff1673ffffffffffffffffffffffffffffffffffffffff168152602001838152602001828152602001935050505060405180910390f35b3415610a3957600080fd5b610a41612e6d565b6040518082815260200191505060405180910390f35b3415610a6257600080fd5b610a6a612e73565b604051808273ffffffffffffffffffffffffffffffffffffffff1673ffffffffffffffffffffffffffffffffffffffff16815260200191505060405180910390f35b3415610ab757600080fd5b610abf612e99565b604051808273ffffffffffffffffffffffffffffffffffffffff1673ffffffffffffffffffffffffffffffffffffffff16815260200191505060405180910390f35b600260003373ffffffffffffffffffffffffffffffffffffffff1673ffffffffffffffffffffffffffffffffffffffff16815260200190815260200160002060009054906101000a900460ff161515610b5957600080fd5b600660009054906101000a900473ffffffffffffffffffffffffffffffffffffffff1673ffffffffffffffffffffffffffffffffffffffff166377f50f976040518163ffffffff167c0100000000000000000000000000000000000000000000000000000000028152600401600060405180830381600087803b1515610bde57600080fd5b6102c65a03f11515610bef57600080fd5b505050565b60008060009054906101000a900473ffffffffffffffffffffffffffffffffffffffff1673ffffffffffffffffffffffffffffffffffffffff163373ffffffffffffffffffffffffffffffffffffffff16141515610c5157600080fd5b600360008373ffffffffffffffffffffffffffffffffffffffff1673ffffffffffffffffffffffffffffffffffffffff16815260200190815260200160002060009054906101000a900460ff161515610ca957600080fd5b6000600360008473ffffffffffffffffffffffffffffffffffffffff1673ffffffffffffffffffffffffffffffffffffffff16815260200190815260200160002060006101000a81548160ff021916908315150217905550600090505b600580549050811015610eb2578173ffffffffffffffffffffffffffffffffffffffff16600582815481101515610d3957fe5b906000526020600020900160009054906101000a900473ffffffffffffffffffffffffffffffffffffffff1673ffffffffffffffffffffffffffffffffffffffff161415610ea7576005600160058054905003815481101515610d9857fe5b906000526020600020900160009054906101000a900473ffffffffffffffffffffffffffffffffffffffff16600582815481101515610dd357fe5b906000526020600020900160006101000a81548173ffffffffffffffffffffffffffffffffffffffff021916908373ffffffffffffffffffffffffffffffffffffffff1602179055506005805480919060019003610e3191906131fa565b507f5611bf3e417d124f97bf2c788843ea8bb502b66079fbee02158ef30b172cb762826000604051808373ffffffffffffffffffffffffffffffffffffffff1673ffffffffffffffffffffffffffffffffffffffff168152602001821515151581526020019250505060405180910390a1610eb2565b806001019050610d06565b5050565b600160009054906101000a900473ffffffffffffffffffffffffffffffffffffffff1681565b610ee4613226565b6004805480602002602001604051908101604052809291908181526020018280548015610f6657602002820191906000526020600020905b8160009054906101000a900473ffffffffffffffffffffffffffffffffffffffff1673ffffffffffffffffffffffffffffffffffffffff1681526020019060010190808311610f1c575b5050505050905090565b6000809054906101000a900473ffffffffffffffffffffffffffffffffffffffff1673ffffffffffffffffffffffffffffffffffffffff163373ffffffffffffffffffffffffffffffffffffffff16141515610fcb57600080fd5b8273ffffffffffffffffffffffffffffffffffffffff1663a9059cbb82846000604051602001526040518363ffffffff167c0100000000000000000000000000000000000000000000000000000000028152600401808373ffffffffffffffffffffffffffffffffffffffff1673ffffffffffffffffffffffffffffffffffffffff16815260200182815260200192505050602060405180830381600087803b151561107657600080fd5b6102c65a03f1151561108757600080fd5b50505060405180519050151561109c57600080fd5b7f72cb8a894ddb372ceec3d2a7648d86f17d5a15caae0e986c53109b8a9a9385e6838383604051808473ffffffffffffffffffffffffffffffffffffffff1673ffffffffffffffffffffffffffffffffffffffff1681526020018381526020018273ffffffffffffffffffffffffffffffffffffffff1673ffffffffffffffffffffffffffffffffffffffff168152602001935050505060405180910390a1505050565b600260003373ffffffffffffffffffffffffffffffffffffffff1673ffffffffffffffffffffffffffffffffffffffff16815260200190815260200160002060009054906101000a900460ff16151561119857600080fd5b6111a460038233612ebe565b1561134857600860009054906101000a900473ffffffffffffffffffffffffffffffffffffffff1673ffffffffffffffffffffffffffffffffffffffff16639fad2dcb6010600101546040518263ffffffff167c010000000000000000000000000000000000000000000000000000000002815260040180828152602001915050600060405180830381600087803b151561123e57600080fd5b6102c65a03f1151561124f57600080fd5b505050600860009054906101000a900473ffffffffffffffffffffffffffffffffffffffff1673ffffffffffffffffffffffffffffffffffffffff1663ea414b28601060000160009054906101000a900473ffffffffffffffffffffffffffffffffffffffff166040518263ffffffff167c0100000000000000000000000000000000000000000000000000000000028152600401808273ffffffffffffffffffffffffffffffffffffffff1673ffffffffffffffffffffffffffffffffffffffff168152602001915050600060405180830381600087803b151561133357600080fd5b6102c65a03f1151561134457600080fd5b5050505b50565b6000809054906101000a900473ffffffffffffffffffffffffffffffffffffffff1673ffffffffffffffffffffffffffffffffffffffff163373ffffffffffffffffffffffffffffffffffffffff161415156113a657600080fd5b600360008273ffffffffffffffffffffffffffffffffffffffff1673ffffffffffffffffffffffffffffffffffffffff16815260200190815260200160002060009054906101000a900460ff161515156113ff57600080fd5b603260058054905010151561141357600080fd5b7f5611bf3e417d124f97bf2c788843ea8bb502b66079fbee02158ef30b172cb762816001604051808373ffffffffffffffffffffffffffffffffffffffff1673ffffffffffffffffffffffffffffffffffffffff168152602001821515151581526020019250505060405180910390a16001600360008373ffffffffffffffffffffffffffffffffffffffff1673ffffffffffffffffffffffffffffffffffffffff16815260200190815260200160002060006101000a81548160ff021916908315150217905550600580548060010182816114ef919061323a565b9160005260206000209001600083909190916101000a81548173ffffffffffffffffffffffffffffffffffffffff021916908373ffffffffffffffffffffffffffffffffffffffff1602179055505050565b600860009054906101000a900473ffffffffffffffffffffffffffffffffffffffff1681565b600080600080611575613226565b61157f6001613097565b8093508192505050600b60000160009054906101000a900473ffffffffffffffffffffffffffffffffffffffff16600b60010154600b60020160009054906101000a900473ffffffffffffffffffffffffffffffffffffffff168494509450945094505090919293565b6000600860009054906101000a900473ffffffffffffffffffffffffffffffffffffffff1673ffffffffffffffffffffffffffffffffffffffff166345ab63b9836000604051602001526040518263ffffffff167c0100000000000000000000000000000000000000000000000000000000028152600401808273ffffffffffffffffffffffffffffffffffffffff1673ffffffffffffffffffffffffffffffffffffffff168152602001915050602060405180830381600087803b15156116b057600080fd5b6102c65a03f115156116c157600080fd5b505050604051805190501415156116d757600080fd5b600860009054906101000a900473ffffffffffffffffffffffffffffffffffffffff1673ffffffffffffffffffffffffffffffffffffffff166365dfc20f82600a546040518363ffffffff167c0100000000000000000000000000000000000000000000000000000000028152600401808373ffffffffffffffffffffffffffffffffffffffff1673ffffffffffffffffffffffffffffffffffffffff16815260200182815260200192505050600060405180830381600087803b151561179d57600080fd5b6102c65a03f115156117ae57600080fd5b505050600980548060010182816117c5919061323a565b9160005260206000209001600083909190916101000a81548173ffffffffffffffffffffffffffffffffffffffff021916908373ffffffffffffffffffffffffffffffffffffffff160217905550507f677677567f06918e0049494af469ee4aac721c42c4ed80fd126dccb0434a98a03382604051808373ffffffffffffffffffffffffffffffffffffffff1673ffffffffffffffffffffffffffffffffffffffff1681526020018273ffffffffffffffffffffffffffffffffffffffff1673ffffffffffffffffffffffffffffffffffffffff1681526020019250505060405180910390a150565b600260003373ffffffffffffffffffffffffffffffffffffffff1673ffffffffffffffffffffffffffffffffffffffff16815260200190815260200160002060009054906101000a900460ff16151561190657600080fd5b61191260028233612ebe565b15611a1a57600860009054906101000a900473ffffffffffffffffffffffffffffffffffffffff1673ffffffffffffffffffffffffffffffffffffffff166365dfc20f600e60000160009054906101000a900473ffffffffffffffffffffffffffffffffffffffff16600e600101546040518363ffffffff167c0100000000000000000000000000000000000000000000000000000000028152600401808373ffffffffffffffffffffffffffffffffffffffff1673ffffffffffffffffffffffffffffffffffffffff16815260200182815260200192505050600060405180830381600087803b1515611a0557600080fd5b6102c65a03f11515611a1657600080fd5b5050505b50565b6000809054906101000a900473ffffffffffffffffffffffffffffffffffffffff1673ffffffffffffffffffffffffffffffffffffffff163373ffffffffffffffffffffffffffffffffffffffff16141515611a7857600080fd5b600073ffffffffffffffffffffffffffffffffffffffff168173ffffffffffffffffffffffffffffffffffffffff1614151515611ab457600080fd5b7f3b81caf78fa51ecbc8acb482fd7012a277b428d9b80f9d156e8a54107496cc40600160009054906101000a900473ffffffffffffffffffffffffffffffffffffffff16604051808273ffffffffffffffffffffffffffffffffffffffff1673ffffffffffffffffffffffffffffffffffffffff16815260200191505060405180910390a180600160006101000a81548173ffffffffffffffffffffffffffffffffffffffff021916908373ffffffffffffffffffffffffffffffffffffffff16021790555050565b3373ffffffffffffffffffffffffffffffffffffffff16600160009054906101000a900473ffffffffffffffffffffffffffffffffffffffff1673ffffffffffffffffffffffffffffffffffffffff16141515611bd957600080fd5b7f65da1cfc2c2e81576ad96afb24a581f8e109b7a403b35cbd3243a1c99efdb9ed600160009054906101000a900473ffffffffffffffffffffffffffffffffffffffff166000809054906101000a900473ffffffffffffffffffffffffffffffffffffffff16604051808373ffffffffffffffffffffffffffffffffffffffff1673ffffffffffffffffffffffffffffffffffffffff1681526020018273ffffffffffffffffffffffffffffffffffffffff1673ffffffffffffffffffffffffffffffffffffffff1681526020019250505060405180910390a1600160009054906101000a900473ffffffffffffffffffffffffffffffffffffffff166000806101000a81548173ffffffffffffffffffffffffffffffffffffffff021916908373ffffffffffffffffffffffffffffffffffffffff1602179055506000600160006101000a81548173ffffffffffffffffffffffffffffffffffffffff021916908373ffffffffffffffffffffffffffffffffffffffff160217905550565b6000809054906101000a900473ffffffffffffffffffffffffffffffffffffffff1673ffffffffffffffffffffffffffffffffffffffff163373ffffffffffffffffffffffffffffffffffffffff16141515611db457600080fd5b600073ffffffffffffffffffffffffffffffffffffffff168173ffffffffffffffffffffffffffffffffffffffff1614151515611df057600080fd5b7f3b81caf78fa51ecbc8acb482fd7012a277b428d9b80f9d156e8a54107496cc4081604051808273ffffffffffffffffffffffffffffffffffffffff1673ffffffffffffffffffffffffffffffffffffffff16815260200191505060405180910390a17f65da1cfc2c2e81576ad96afb24a581f8e109b7a403b35cbd3243a1c99efdb9ed816000809054906101000a900473ffffffffffffffffffffffffffffffffffffffff16604051808373ffffffffffffffffffffffffffffffffffffffff1673ffffffffffffffffffffffffffffffffffffffff1681526020018273ffffffffffffffffffffffffffffffffffffffff1673ffffffffffffffffffffffffffffffffffffffff1681526020019250505060405180910390a1806000806101000a81548173ffffffffffffffffffffffffffffffffffffffff021916908373ffffffffffffffffffffffffffffffffffffffff16021790555050565b611f56613226565b6005805480602002602001604051908101604052809291908181526020018280548015611fd857602002820191906000526020600020905b8160009054906101000a900473ffffffffffffffffffffffffffffffffffffffff1673ffffffffffffffffffffffffffffffffffffffff1681526020019060010190808311611f8e575b5050505050905090565b600260003373ffffffffffffffffffffffffffffffffffffffff1673ffffffffffffffffffffffffffffffffffffffff16815260200190815260200160002060009054906101000a900460ff16151561203a57600080fd5b600073ffffffffffffffffffffffffffffffffffffffff168273ffffffffffffffffffffffffffffffffffffffff161415151561207657600080fd5b60008111151561208557600080fd5b6127108110151561209557600080fd5b81601060000160006101000a81548173ffffffffffffffffffffffffffffffffffffffff021916908373ffffffffffffffffffffffffffffffffffffffff160217905550806010600101819055506120ed6003613186565b5050565b6120f9613226565b600980548060200260200160405190810160405280929190818152602001828054801561217b57602002820191906000526020600020905b8160009054906101000a900473ffffffffffffffffffffffffffffffffffffffff1673ffffffffffffffffffffffffffffffffffffffff1681526020019060010190808311612131575b5050505050905090565b6000809054906101000a900473ffffffffffffffffffffffffffffffffffffffff1673ffffffffffffffffffffffffffffffffffffffff163373ffffffffffffffffffffffffffffffffffffffff161415156121e057600080fd5b600660009054906101000a900473ffffffffffffffffffffffffffffffffffffffff1673ffffffffffffffffffffffffffffffffffffffff166375829def826040518263ffffffff167c0100000000000000000000000000000000000000000000000000000000028152600401808273ffffffffffffffffffffffffffffffffffffffff1673ffffffffffffffffffffffffffffffffffffffff168152602001915050600060405180830381600087803b151561229c57600080fd5b6102c65a03f115156122ad57600080fd5b50505050565b60008060006122c0613226565b6122ca6002613097565b8093508192505050600e60000160009054906101000a900473ffffffffffffffffffffffffffffffffffffffff16600e600101548393509350935050909192565b612313613226565b600061231f6001613097565b80925081935050508191505090565b6000809054906101000a900473ffffffffffffffffffffffffffffffffffffffff1673ffffffffffffffffffffffffffffffffffffffff163373ffffffffffffffffffffffffffffffffffffffff1614151561238957600080fd5b600260008273ffffffffffffffffffffffffffffffffffffffff1673ffffffffffffffffffffffffffffffffffffffff16815260200190815260200160002060009054906101000a900460ff161515156123e257600080fd5b60326004805490501015156123f657600080fd5b7f091a7a4b85135fdd7e8dbc18b12fabe5cc191ea867aa3c2e1a24a102af61d58b816001604051808373ffffffffffffffffffffffffffffffffffffffff1673ffffffffffffffffffffffffffffffffffffffff168152602001821515151581526020019250505060405180910390a16001600260008373ffffffffffffffffffffffffffffffffffffffff1673ffffffffffffffffffffffffffffffffffffffff16815260200190815260200160002060006101000a81548160ff021916908315150217905550600480548060010182816124d2919061323a565b9160005260206000209001600083909190916101000a81548173ffffffffffffffffffffffffffffffffffffffff021916908373ffffffffffffffffffffffffffffffffffffffff1602179055505050565b6000809054906101000a900473ffffffffffffffffffffffffffffffffffffffff1673ffffffffffffffffffffffffffffffffffffffff163373ffffffffffffffffffffffffffffffffffffffff1614151561257f57600080fd5b6127108110151561258f57600080fd5b80600a8190555050565b600260003373ffffffffffffffffffffffffffffffffffffffff1673ffffffffffffffffffffffffffffffffffffffff16815260200190815260200160002060009054906101000a900460ff1615156125f157600080fd5b600073ffffffffffffffffffffffffffffffffffffffff168373ffffffffffffffffffffffffffffffffffffffff161415151561262d57600080fd5b600073ffffffffffffffffffffffffffffffffffffffff168173ffffffffffffffffffffffffffffffffffffffff161415151561266957600080fd5b60008211151561267857600080fd5b6127108210151561268857600080fd5b82600b60000160006101000a81548173ffffffffffffffffffffffffffffffffffffffff021916908373ffffffffffffffffffffffffffffffffffffffff16021790555081600b6001018190555080600b60020160006101000a81548173ffffffffffffffffffffffffffffffffffffffff021916908373ffffffffffffffffffffffffffffffffffffffff1602179055506127246001613186565b505050565b60008060009054906101000a900473ffffffffffffffffffffffffffffffffffffffff1673ffffffffffffffffffffffffffffffffffffffff163373ffffffffffffffffffffffffffffffffffffffff1614151561278657600080fd5b600260008373ffffffffffffffffffffffffffffffffffffffff1673ffffffffffffffffffffffffffffffffffffffff16815260200190815260200160002060009054906101000a900460ff1615156127de57600080fd5b6000600260008473ffffffffffffffffffffffffffffffffffffffff1673ffffffffffffffffffffffffffffffffffffffff16815260200190815260200160002060006101000a81548160ff021916908315150217905550600090505b6004805490508110156129ea578173ffffffffffffffffffffffffffffffffffffffff1660048281548110151561286e57fe5b906000526020600020900160009054906101000a900473ffffffffffffffffffffffffffffffffffffffff1673ffffffffffffffffffffffffffffffffffffffff1614156129df5760046001600480549050038154811015156128cd57fe5b906000526020600020900160009054906101000a900473ffffffffffffffffffffffffffffffffffffffff1660048281548110151561290857fe5b906000526020600020900160006101000a81548173ffffffffffffffffffffffffffffffffffffffff021916908373ffffffffffffffffffffffffffffffffffffffff160217905550600160048181805490500391508161296991906131fa565b507f091a7a4b85135fdd7e8dbc18b12fabe5cc191ea867aa3c2e1a24a102af61d58b826000604051808373ffffffffffffffffffffffffffffffffffffffff1673ffffffffffffffffffffffffffffffffffffffff168152602001821515151581526020019250505060405180910390a16129ea565b80600101905061283b565b5050565b600260003373ffffffffffffffffffffffffffffffffffffffff1673ffffffffffffffffffffffffffffffffffffffff16815260200190815260200160002060009054906101000a900460ff161515612a4657600080fd5b600073ffffffffffffffffffffffffffffffffffffffff168273ffffffffffffffffffffffffffffffffffffffff1614151515612a8257600080fd5b600081111515612a9157600080fd5b61271081101515612aa157600080fd5b81600e60000160006101000a81548173ffffffffffffffffffffffffffffffffffffffff021916908373ffffffffffffffffffffffffffffffffffffffff16021790555080600e60010181905550612af96002613186565b5050565b600260003373ffffffffffffffffffffffffffffffffffffffff1673ffffffffffffffffffffffffffffffffffffffff16815260200190815260200160002060009054906101000a900460ff161515612b5557600080fd5b612b6160018233612ebe565b15612cc257600860009054906101000a900473ffffffffffffffffffffffffffffffffffffffff1673ffffffffffffffffffffffffffffffffffffffff166346b8c49e600b60000160009054906101000a900473ffffffffffffffffffffffffffffffffffffffff16600b60010154600b60020160009054906101000a900473ffffffffffffffffffffffffffffffffffffffff166040518463ffffffff167c0100000000000000000000000000000000000000000000000000000000028152600401808473ffffffffffffffffffffffffffffffffffffffff1673ffffffffffffffffffffffffffffffffffffffff1681526020018381526020018273ffffffffffffffffffffffffffffffffffffffff1673ffffffffffffffffffffffffffffffffffffffff1681526020019350505050600060405180830381600087803b1515612cad57600080fd5b6102c65a03f11515612cbe57600080fd5b5050505b50565b6000809054906101000a900473ffffffffffffffffffffffffffffffffffffffff1673ffffffffffffffffffffffffffffffffffffffff163373ffffffffffffffffffffffffffffffffffffffff16141515612d2057600080fd5b8073ffffffffffffffffffffffffffffffffffffffff166108fc839081150290604051600060405180830381858888f193505050501515612d6057600080fd5b7fec47e7ed86c86774d1a72c19f35c639911393fe7c1a34031fdbd260890da90de8282604051808381526020018273ffffffffffffffffffffffffffffffffffffffff1673ffffffffffffffffffffffffffffffffffffffff1681526020019250505060405180910390a15050565b612dd7613226565b6000612de36002613097565b80925081935050508191505090565b612dfa613226565b6000612e066003613097565b80925081935050508191505090565b6000806000612e22613226565b612e2c6003613097565b8093508192505050601060000160009054906101000a900473ffffffffffffffffffffffffffffffffffffffff166010600101548393509350935050909192565b600a5481565b600660009054906101000a900473ffffffffffffffffffffffffffffffffffffffff1681565b6000809054906101000a900473ffffffffffffffffffffffffffffffffffffffff1681565b60008060078054905085101515612ed457600080fd5b83600786815481101515612ee457fe5b906000526020600020906002020160010154141515612f0257600080fd5b600090505b600785815481101515612f1657fe5b906000526020600020906002020160000180549050811015612fd057600785815481101515612f4157fe5b906000526020600020906002020160000181815481101515612f5f57fe5b906000526020600020900160009054906101000a900473ffffffffffffffffffffffffffffffffffffffff1673ffffffffffffffffffffffffffffffffffffffff168373ffffffffffffffffffffffffffffffffffffffff161415612fc357600080fd5b8080600101915050612f07565b600785815481101515612fdf57fe5b90600052602060002090600202016000018054806001018281613002919061323a565b9160005260206000209001600085909190916101000a81548173ffffffffffffffffffffffffffffffffffffffff021916908373ffffffffffffffffffffffffffffffffffffffff1602179055505060048054905060078681548110151561306657fe5b906000526020600020906002020160000180549050141561308a576001915061308f565b600091505b509392505050565b61309f613226565b6000600780549050831015156130b457600080fd5b6007838154811015156130c357fe5b90600052602060002090600202016000016007848154811015156130e357fe5b9060005260206000209060020201600101548180548060200260200160405190810160405280929190818152602001828054801561317657602002820191906000526020600020905b8160009054906101000a900473ffffffffffffffffffffffffffffffffffffffff1673ffffffffffffffffffffffffffffffffffffffff168152602001906001019080831161312c575b5050505050915091509150915091565b6007805490508110151561319957600080fd5b6007818154811015156131a857fe5b90600052602060002090600202016001016000815480929190600101919050555060006007828154811015156131da57fe5b9060005260206000209060020201600001816131f691906131fa565b5050565b815481835581811511613221578183600052602060002091820191016132209190613266565b5b505050565b602060405190810160405280600081525090565b815481835581811511613261578183600052602060002091820191016132609190613266565b5b505050565b61328891905b8082111561328457600081600090555060010161326c565b5090565b90565b613293613226565b60006040518059106132a25750595b90808252806020026020018201604052509050600780548060010182816132c99190613321565b916000526020600020906002020160006040805190810160405280858152602001600081525090919091506000820151816000019080519060200190613310929190613353565b506020820151816001015550505050565b81548183558181151161334e5760020281600202836000526020600020918201910161334d91906133dd565b5b505050565b8280548282559060005260206000209081019282156133cc579160200282015b828111156133cb5782518260006101000a81548173ffffffffffffffffffffffffffffffffffffffff021916908373ffffffffffffffffffffffffffffffffffffffff16021790555091602001919060010190613373565b5b5090506133d99190613414565b5090565b61341191905b8082111561340d57600080820160006133fc9190613457565b6001820160009055506002016133e3565b5090565b90565b61345491905b8082111561345057600081816101000a81549073ffffffffffffffffffffffffffffffffffffffff02191690555060010161341a565b5090565b90565b50805460008255906000526020600020908101906134759190613266565b505600a165627a7a72305820b2384034909ec3059c064b5fafd3146492d9983d1ba892c16df5d8710f7151420029",
  "source": "pragma solidity 0.4.18;\n\n\nimport \"../FeeBurner.sol\";\nimport \"./WrapperBase.sol\";\n\n\ncontract WrapFeeBurner is WrapperBase {\n\n    FeeBurner public feeBurnerContract;\n    address[] internal feeSharingWallets;\n    uint public feeSharingBps = 3000; // out of 10000 = 30%\n\n    //add reserve pending data\n    struct AddReserveData {\n        address reserve;\n        uint    feeBps;\n        address kncWallet;\n    }\n\n    AddReserveData internal addReserve;\n\n    //wallet fee pending parameters\n    struct WalletFee {\n        address walletAddress;\n        uint    feeBps;\n    }\n\n    WalletFee internal walletFee;\n\n    //tax pending parameters\n    struct TaxData {\n        address wallet;\n        uint    feeBps;\n    }\n\n    TaxData internal taxData;\n    \n    //data indexes\n    uint internal constant ADD_RESERVE_INDEX = 1;\n    uint internal constant WALLET_FEE_INDEX = 2;\n    uint internal constant TAX_DATA_INDEX = 3;\n    uint internal constant LAST_DATA_INDEX = 4;\n\n    //general functions\n    function WrapFeeBurner(FeeBurner feeBurner, address _admin) public\n        WrapperBase(PermissionGroups(address(feeBurner)), _admin, LAST_DATA_INDEX)\n    {\n        require(feeBurner != address(0));\n        feeBurnerContract = feeBurner;\n    }\n\n    //register wallets for fee sharing\n    /////////////////////////////////\n    function setFeeSharingValue(uint feeBps) public onlyAdmin {\n        require(feeBps < 10000);\n        feeSharingBps = feeBps;\n    }\n\n    function getFeeSharingWallets() public view returns(address[]) {\n        return feeSharingWallets;\n    }\n\n    event WalletRegisteredForFeeSharing(address sender, address walletAddress);\n    function registerWalletForFeeSharing(address walletAddress) public {\n        require(feeBurnerContract.walletFeesInBps(walletAddress) == 0);\n\n        // if fee sharing value is 0. means the wallet wasn't added.\n        feeBurnerContract.setWalletFees(walletAddress, feeSharingBps);\n        feeSharingWallets.push(walletAddress);\n        WalletRegisteredForFeeSharing(msg.sender, walletAddress);\n    }\n\n    //set reserve data\n    //////////////////\n    function setPendingReserveData(address reserve, uint feeBps, address kncWallet) public onlyOperator {\n        require(reserve != address(0));\n        require(kncWallet != address(0));\n        require(feeBps > 0);\n        require(feeBps < 10000);\n\n        addReserve.reserve = reserve;\n        addReserve.feeBps = feeBps;\n        addReserve.kncWallet = kncWallet;\n        setNewData(ADD_RESERVE_INDEX);\n    }\n\n    function getPendingAddReserveData() public view\n        returns(address reserve, uint feeBps, address kncWallet, uint nonce)\n    {\n        address[] memory signatures;\n        (signatures, nonce) = getDataTrackingParameters(ADD_RESERVE_INDEX);\n        return(addReserve.reserve, addReserve.feeBps, addReserve.kncWallet, nonce);\n    }\n\n    function getAddReserveSignatures() public view returns (address[] signatures) {\n        uint nonce;\n        (signatures, nonce) = getDataTrackingParameters(ADD_RESERVE_INDEX);\n        return(signatures);\n    }\n\n    function approveAddReserveData(uint nonce) public onlyOperator {\n        if (addSignature(ADD_RESERVE_INDEX, nonce, msg.sender)) {\n            // can perform operation.\n            feeBurnerContract.setReserveData(addReserve.reserve, addReserve.feeBps, addReserve.kncWallet);\n        }\n    }\n\n    //wallet fee\n    /////////////\n    function setPendingWalletFee(address wallet, uint feeBps) public onlyOperator {\n        require(wallet != address(0));\n        require(feeBps > 0);\n        require(feeBps < 10000);\n\n        walletFee.walletAddress = wallet;\n        walletFee.feeBps = feeBps;\n        setNewData(WALLET_FEE_INDEX);\n    }\n\n    function getPendingWalletFeeData() public view returns(address wallet, uint feeBps, uint nonce) {\n        address[] memory signatures;\n        (signatures, nonce) = getDataTrackingParameters(WALLET_FEE_INDEX);\n        return(walletFee.walletAddress, walletFee.feeBps, nonce);\n    }\n\n    function getWalletFeeSignatures() public view returns (address[] signatures) {\n        uint nonce;\n        (signatures, nonce) = getDataTrackingParameters(WALLET_FEE_INDEX);\n        return(signatures);\n    }\n\n    function approveWalletFeeData(uint nonce) public onlyOperator {\n        if (addSignature(WALLET_FEE_INDEX, nonce, msg.sender)) {\n            // can perform operation.\n            feeBurnerContract.setWalletFees(walletFee.walletAddress, walletFee.feeBps);\n        }\n    }\n\n    //tax parameters\n    ////////////////\n    function setPendingTaxParameters(address taxWallet, uint feeBps) public onlyOperator {\n        require(taxWallet != address(0));\n        require(feeBps > 0);\n        require(feeBps < 10000);\n\n        taxData.wallet = taxWallet;\n        taxData.feeBps = feeBps;\n        setNewData(TAX_DATA_INDEX);\n    }\n\n    function getPendingTaxData() public view returns(address wallet, uint feeBps, uint nonce) {\n        address[] memory signatures;\n        (signatures, nonce) = getDataTrackingParameters(TAX_DATA_INDEX);\n        return(taxData.wallet, taxData.feeBps, nonce);\n    }\n\n    function getTaxDataSignatures() public view returns (address[] signatures) {\n        uint nonce;\n        (signatures, nonce) = getDataTrackingParameters(TAX_DATA_INDEX);\n        return(signatures);\n    }\n\n    function approveTaxData(uint nonce) public onlyOperator {\n        if (addSignature(TAX_DATA_INDEX, nonce, msg.sender)) {\n            // can perform operation.\n            feeBurnerContract.setTaxInBps(taxData.feeBps);\n            feeBurnerContract.setTaxWallet(taxData.wallet);\n        }\n    }\n}\n",
  "sourcePath": "/Users/oscarr/Ethereum/frappe/contracts/wrapperContracts/WrapFeeBurner.sol",
  "compiler": {
    "name": "solc",
    "version": "0.4.18+commit.9cf6e910.Emscripten.clang"
  },
  "schemaVersion": "3.0.6",
  "updatedAt": "2019-05-18T17:14:13.552Z",
  "devdoc": {
    "methods": {
      "claimAdmin()": {
        "details": "Allows the pendingAdmin address to finalize the change admin process."
      },
      "transferAdmin(address)": {
        "details": "Allows the current admin to set the pendingAdmin address.",
        "params": {
          "newAdmin": "The address to transfer ownership to."
        }
      },
      "transferAdminQuickly(address)": {
        "details": "Allows the current admin to set the admin in one tx. Useful initial deployment.",
        "params": {
          "newAdmin": "The address to transfer ownership to."
        }
      },
      "withdrawEther(uint256,address)": {
        "details": "Withdraw Ethers"
      },
      "withdrawToken(address,uint256,address)": {
        "details": "Withdraw all ERC20 compatible tokens",
        "params": {
          "token": "ERC20 The address of the token contract"
        }
      }
    }
  },
  "userdoc": {
    "methods": {
      "setFeeSharingValue(uint256)": {
        "notice": "//////////////////////////////"
      },
      "setPendingReserveData(address,uint256,address)": {
        "notice": "///////////////"
      },
      "setPendingTaxParameters(address,uint256)": {
        "notice": "/////////////"
      },
      "setPendingWalletFee(address,uint256)": {
        "notice": "//////////"
      }
    }
  }
}