{
  "contractName": "Wrapper",
  "abi": [
    {
      "constant": true,
      "inputs": [
        {
          "name": "reserve",
          "type": "address"
        },
        {
          "name": "tokens",
          "type": "address[]"
        }
      ],
      "name": "getBalances",
      "outputs": [
        {
          "name": "",
          "type": "uint256[]"
        }
      ],
      "payable": false,
      "stateMutability": "view",
      "type": "function"
    },
    {
      "constant": true,
      "inputs": [
        {
          "name": "owner",
          "type": "address"
        },
        {
          "name": "spender",
          "type": "address"
        },
        {
          "name": "tokens",
          "type": "address[]"
        }
      ],
      "name": "getTokenAllowances",
      "outputs": [
        {
          "name": "",
          "type": "uint256[]"
        }
      ],
      "payable": false,
      "stateMutability": "view",
      "type": "function"
    },
    {
      "constant": true,
      "inputs": [
        {
          "name": "x",
          "type": "bytes14"
        },
        {
          "name": "byteInd",
          "type": "uint256"
        }
      ],
      "name": "getByteFromBytes14",
      "outputs": [
        {
          "name": "",
          "type": "bytes1"
        }
      ],
      "payable": false,
      "stateMutability": "pure",
      "type": "function"
    },
    {
      "constant": true,
      "inputs": [
        {
          "name": "x",
          "type": "bytes14"
        },
        {
          "name": "byteInd",
          "type": "uint256"
        }
      ],
      "name": "getInt8FromByte",
      "outputs": [
        {
          "name": "",
          "type": "int8"
        }
      ],
      "payable": false,
      "stateMutability": "pure",
      "type": "function"
    },
    {
      "constant": true,
      "inputs": [
        {
          "name": "ratesContract",
          "type": "address"
        },
        {
          "name": "tokenList",
          "type": "address[]"
        }
      ],
      "name": "getTokenRates",
      "outputs": [
        {
          "name": "",
          "type": "uint256[]"
        },
        {
          "name": "",
          "type": "uint256[]"
        },
        {
          "name": "",
          "type": "int8[]"
        },
        {
          "name": "",
          "type": "int8[]"
        },
        {
          "name": "",
          "type": "uint256[]"
        }
      ],
      "payable": false,
      "stateMutability": "view",
      "type": "function"
    },
    {
      "constant": true,
      "inputs": [
        {
          "name": "ratesContract",
          "type": "address"
        },
        {
          "name": "tokenList",
          "type": "address[]"
        }
      ],
      "name": "getTokenIndicies",
      "outputs": [
        {
          "name": "",
          "type": "uint256[]"
        },
        {
          "name": "",
          "type": "uint256[]"
        }
      ],
      "payable": false,
      "stateMutability": "view",
      "type": "function"
    },
    {
      "constant": true,
      "inputs": [
        {
          "name": "network",
          "type": "address"
        },
        {
          "name": "srcs",
          "type": "address[]"
        },
        {
          "name": "dests",
          "type": "address[]"
        },
        {
          "name": "qty",
          "type": "uint256[]"
        }
      ],
      "name": "getExpectedRates",
      "outputs": [
        {
          "name": "",
          "type": "uint256[]"
        },
        {
          "name": "",
          "type": "uint256[]"
        }
      ],
      "payable": false,
      "stateMutability": "view",
      "type": "function"
    },
    {
      "constant": true,
      "inputs": [
        {
          "name": "networkProxy",
          "type": "address"
        },
        {
          "name": "startIndex",
          "type": "uint256"
        },
        {
          "name": "endIndex",
          "type": "uint256"
        }
      ],
      "name": "getListPermissionlessTokensAndDecimals",
      "outputs": [
        {
          "name": "permissionlessTokens",
          "type": "address[]"
        },
        {
          "name": "decimals",
          "type": "uint256[]"
        },
        {
          "name": "isEnded",
          "type": "bool"
        }
      ],
      "payable": false,
      "stateMutability": "view",
      "type": "function"
    }
  ],
  "bytecode": "0x6060604052341561000f57600080fd5b6120278061001e6000396000f30060606040526004361061008e576000357c0100000000000000000000000000000000000000000000000000000000900463ffffffff16806351be85081461009357806367c33c80146101865780636a385ae9146101e15780637c80feff146102af5780637ce8956c146103c5578063a609f034146104b2578063f1838fe41461054b578063f37f8345146106e1575b600080fd5b341561009e57600080fd5b6100dc600480803573ffffffffffffffffffffffffffffffffffffffff169060200190919080359060200190919080359060200190919050506108cf565b60405180806020018060200184151515158152602001838103835286818151815260200191508051906020019060200280838360005b8381101561012d578082015181840152602081019050610112565b50505050905001838103825285818151815260200191508051906020019060200280838360005b8381101561016f578082015181840152602081019050610154565b505050509050019550505050505060405180910390f35b341561019157600080fd5b6101c5600480803571ffffffffffffffffffffffffffffffffffff19169060200190919080359060200190919050506110c9565b604051808260000b60000b815260200191505060405180910390f35b34156101ec57600080fd5b610258600480803573ffffffffffffffffffffffffffffffffffffffff1690602001909190803590602001908201803590602001908080602002602001604051908101604052809392919081815260200183836020028082843782019150505050505091905050611137565b6040518080602001828103825283818151815260200191508051906020019060200280838360005b8381101561029b578082015181840152602081019050610280565b505050509050019250505060405180910390f35b34156102ba57600080fd5b610326600480803573ffffffffffffffffffffffffffffffffffffffff169060200190919080359060200190820180359060200190808060200260200160405190810160405280939291908181526020018383602002808284378201915050505050509190505061130a565b604051808060200180602001838103835285818151815260200191508051906020019060200280838360005b8381101561036d578082015181840152602081019050610352565b50505050905001838103825284818151815260200191508051906020019060200280838360005b838110156103af578082015181840152602081019050610394565b5050505090500194505050505060405180910390f35b34156103d057600080fd5b61045b600480803573ffffffffffffffffffffffffffffffffffffffff1690602001909190803573ffffffffffffffffffffffffffffffffffffffff16906020019091908035906020019082018035906020019080806020026020016040519081016040528093929190818152602001838360200280828437820191505050505050919050506114d6565b6040518080602001828103825283818151815260200191508051906020019060200280838360005b8381101561049e578082015181840152602081019050610483565b505050509050019250505060405180910390f35b34156104bd57600080fd5b6104f1600480803571ffffffffffffffffffffffffffffffffffff1916906020019091908035906020019091905050611656565b60405180827effffffffffffffffffffffffffffffffffffffffffffffffffffffffffffff19167effffffffffffffffffffffffffffffffffffffffffffffffffffffffffffff1916815260200191505060405180910390f35b341561055657600080fd5b610642600480803573ffffffffffffffffffffffffffffffffffffffff169060200190919080359060200190820180359060200190808060200260200160405190810160405280939291908181526020018383602002808284378201915050505050509190803590602001908201803590602001908080602002602001604051908101604052809392919081815260200183836020028082843782019150505050505091908035906020019082018035906020019080806020026020016040519081016040528093929190818152602001838360200280828437820191505050505050919050506116a1565b604051808060200180602001838103835285818151815260200191508051906020019060200280838360005b8381101561068957808201518184015260208101905061066e565b50505050905001838103825284818151815260200191508051906020019060200280838360005b838110156106cb5780820151818401526020810190506106b0565b5050505090500194505050505060405180910390f35b34156106ec57600080fd5b610758600480803573ffffffffffffffffffffffffffffffffffffffff16906020019091908035906020019082018035906020019080806020026020016040519081016040528093929190818152602001838360200280828437820191505050505050919050506118d0565b60405180806020018060200180602001806020018060200186810386528b818151815260200191508051906020019060200280838360005b838110156107ab578082015181840152602081019050610790565b5050505090500186810385528a818151815260200191508051906020019060200280838360005b838110156107ed5780820151818401526020810190506107d2565b50505050905001868103845289818151815260200191508051906020019060200280838360005b8381101561082f578082015181840152602081019050610814565b50505050905001868103835288818151815260200191508051906020019060200280838360005b83811015610871578082015181840152602081019050610856565b50505050905001868103825287818151815260200191508051906020019060200280838360005b838110156108b3578082015181840152602081019050610898565b505050509050019a505050505050505050505060405180910390f35b6108d7611fbf565b6108df611fd3565b6000806000806000806000808c73ffffffffffffffffffffffffffffffffffffffff16634f61ff8b6000604051602001526040518163ffffffff167c0100000000000000000000000000000000000000000000000000000000028152600401602060405180830381600087803b151561095757600080fd5b6102c65a03f1151561096857600080fd5b5050506040518051905096508673ffffffffffffffffffffffffffffffffffffffff1663cfff25bb6000604051602001526040518163ffffffff167c0100000000000000000000000000000000000000000000000000000000028152600401602060405180830381600087803b15156109e057600080fd5b6102c65a03f115156109f157600080fd5b505050604051805190509550858c101580610a0b57508a8c115b15610a66576000604051805910610a1f5750595b908082528060200260200182016040525099506000604051805910610a415750595b90808252806020026020018201604052509850600197508989899950995099506110b9565b8a861115610a74578a610a79565b600186035b9450600093508b92505b8483111515610d38578673ffffffffffffffffffffffffffffffffffffffff16638334278d846000604051602001526040518263ffffffff167c010000000000000000000000000000000000000000000000000000000002815260040180828152602001915050602060405180830381600087803b1515610b0357600080fd5b6102c65a03f11515610b1457600080fd5b505050604051805190509050600073ffffffffffffffffffffffffffffffffffffffff168173ffffffffffffffffffffffffffffffffffffffff1614158015610c2f5750600280811115610b6457fe5b8773ffffffffffffffffffffffffffffffffffffffff1663749f95bf836000604051602001526040518263ffffffff167c0100000000000000000000000000000000000000000000000000000000028152600401808273ffffffffffffffffffffffffffffffffffffffff1673ffffffffffffffffffffffffffffffffffffffff168152602001915050602060405180830381600087803b1515610c0757600080fd5b6102c65a03f11515610c1857600080fd5b505050604051805190506002811115610c2d57fe5b145b15610d2b578073ffffffffffffffffffffffffffffffffffffffff16636c0f79b6600060405160c001526040518163ffffffff167c010000000000000000000000000000000000000000000000000000000002815260040160c060405180830381600087803b1515610ca057600080fd5b6102c65a03f11515610cb157600080fd5b505050604051805190602001805190602001805190602001805190602001805190602001805190509091929394509091925090915090505080925050600073ffffffffffffffffffffffffffffffffffffffff168273ffffffffffffffffffffffffffffffffffffffff16141515610d2a576001840193505b5b8280600101935050610a83565b83604051805910610d465750595b9080825280602002602001820160405250995083604051805910610d675750595b90808252806020026020018201604052509850600093508b92505b84831115156110a7578673ffffffffffffffffffffffffffffffffffffffff16638334278d846000604051602001526040518263ffffffff167c010000000000000000000000000000000000000000000000000000000002815260040180828152602001915050602060405180830381600087803b1515610e0257600080fd5b6102c65a03f11515610e1357600080fd5b505050604051805190509050600073ffffffffffffffffffffffffffffffffffffffff168173ffffffffffffffffffffffffffffffffffffffff1614158015610f2e5750600280811115610e6357fe5b8773ffffffffffffffffffffffffffffffffffffffff1663749f95bf836000604051602001526040518263ffffffff167c0100000000000000000000000000000000000000000000000000000000028152600401808273ffffffffffffffffffffffffffffffffffffffff1673ffffffffffffffffffffffffffffffffffffffff168152602001915050602060405180830381600087803b1515610f0657600080fd5b6102c65a03f11515610f1757600080fd5b505050604051805190506002811115610f2c57fe5b145b1561109a578073ffffffffffffffffffffffffffffffffffffffff16636c0f79b6600060405160c001526040518163ffffffff167c010000000000000000000000000000000000000000000000000000000002815260040160c060405180830381600087803b1515610f9f57600080fd5b6102c65a03f11515610fb057600080fd5b505050604051805190602001805190602001805190602001805190602001805190602001805190509091929394509091925090915090505080925050600073ffffffffffffffffffffffffffffffffffffffff168273ffffffffffffffffffffffffffffffffffffffff1614151561109957818a8581518110151561103157fe5b9060200190602002019073ffffffffffffffffffffffffffffffffffffffff16908173ffffffffffffffffffffffffffffffffffffffff168152505061107682611c82565b898581518110151561108457fe5b90602001906020020181815250506001840193505b5b8280600101935050610d82565b60018603851497508989899950995099505b5050505050505093509350939050565b6000600d82111515156110db57600080fd5b8282600e811015156110e957fe5b1a7f0100000000000000000000000000000000000000000000000000000000000000027f01000000000000000000000000000000000000000000000000000000000000009004905092915050565b61113f611fd3565b611147611fd3565b60008084516040518059106111595750595b90808252806020026020018201604052509250600091505b84518210156112fe576000905073eeeeeeeeeeeeeeeeeeeeeeeeeeeeeeeeeeeeeeee73ffffffffffffffffffffffffffffffffffffffff1685838151811015156111b757fe5b9060200190602002015173ffffffffffffffffffffffffffffffffffffffff1614156111fc578573ffffffffffffffffffffffffffffffffffffffff163190506112d4565b848281518110151561120a57fe5b9060200190602002015173ffffffffffffffffffffffffffffffffffffffff166370a08231876000604051602001526040518263ffffffff167c0100000000000000000000000000000000000000000000000000000000028152600401808273ffffffffffffffffffffffffffffffffffffffff1673ffffffffffffffffffffffffffffffffffffffff168152602001915050602060405180830381600087803b15156112b657600080fd5b6102c65a03f115156112c757600080fd5b5050506040518051905090505b8083838151811015156112e357fe5b90602001906020020181815250508180600101925050611171565b82935050505092915050565b611312611fd3565b61131a611fd3565b611322611fd3565b61132a611fd3565b600080600080600089516040518059106113415750595b9080825280602002602001820160405250965089516040518059106113635750595b90808252806020026020018201604052509550600094505b89518510156114c2578a73ffffffffffffffffffffffffffffffffffffffff1663e4a2ac628b878151811015156113ae57fe5b906020019060200201516000604051608001526040518263ffffffff167c0100000000000000000000000000000000000000000000000000000000028152600401808273ffffffffffffffffffffffffffffffffffffffff1673ffffffffffffffffffffffffffffffffffffffff168152602001915050608060405180830381600087803b151561143e57600080fd5b6102c65a03f1151561144f57600080fd5b505050604051805190602001805190602001805190602001805190508094508195508296508397505050505083878681518110151561148a57fe5b90602001906020020181815250508286868151811015156114a757fe5b9060200190602002018181525050848060010195505061137b565b868698509850505050505050509250929050565b6114de611fd3565b6114e6611fd3565b600083516040518059106114f75750595b90808252806020026020018201604052509150600090505b835181101561164a57838181518110151561152657fe5b9060200190602002015173ffffffffffffffffffffffffffffffffffffffff1663dd62ed3e87876000604051602001526040518363ffffffff167c0100000000000000000000000000000000000000000000000000000000028152600401808373ffffffffffffffffffffffffffffffffffffffff1673ffffffffffffffffffffffffffffffffffffffff1681526020018273ffffffffffffffffffffffffffffffffffffffff1673ffffffffffffffffffffffffffffffffffffffff16815260200192505050602060405180830381600087803b151561160657600080fd5b6102c65a03f1151561161757600080fd5b50505060405180519050828281518110151561162f57fe5b9060200190602002018181525050808060010191505061150f565b81925050509392505050565b6000600d821115151561166857600080fd5b8282600e8110151561167657fe5b1a7f010000000000000000000000000000000000000000000000000000000000000002905092915050565b6116a9611fd3565b6116b1611fd3565b6116b9611fd3565b6116c1611fd3565b6000865188511415156116d357600080fd5b855188511415156116e357600080fd5b87516040518059106116f25750595b9080825280602002602001820160405250925087516040518059106117145750595b90808252806020026020018201604052509150600090505b87518110156118be578873ffffffffffffffffffffffffffffffffffffffff1663809a9e55898381518110151561175f57fe5b90602001906020020151898481518110151561177757fe5b90602001906020020151898581518110151561178f57fe5b906020019060200201516000604051604001526040518463ffffffff167c0100000000000000000000000000000000000000000000000000000000028152600401808473ffffffffffffffffffffffffffffffffffffffff1673ffffffffffffffffffffffffffffffffffffffff1681526020018373ffffffffffffffffffffffffffffffffffffffff1673ffffffffffffffffffffffffffffffffffffffff16815260200182815260200193505050506040805180830381600087803b151561185857600080fd5b6102c65a03f1151561186957600080fd5b50505060405180519060200180519050848381518110151561188757fe5b906020019060200201848481518110151561189e57fe5b90602001906020020182815250828152505050808060010191505061172c565b82829450945050505094509492505050565b6118d8611fd3565b6118e0611fd3565b6118e8611fe7565b6118f0611fe7565b6118f8611fd3565b611900611fd3565b611908611fd3565b611910611fe7565b611918611fe7565b611920611fd3565b60008b516040518059106119315750595b908082528060200260200182016040525095508b516040518059106119535750595b908082528060200260200182016040525094508b516040518059106119755750595b908082528060200260200182016040525093508b516040518059106119975750595b908082528060200260200182016040525092508b516040518059106119b95750595b90808252806020026020018201604052509150600090505b8b51811015611c63578c73ffffffffffffffffffffffffffffffffffffffff1663cf8fee118d83815181101515611a0457fe5b9060200190602002015160016000604051602001526040518363ffffffff167c0100000000000000000000000000000000000000000000000000000000028152600401808373ffffffffffffffffffffffffffffffffffffffff1673ffffffffffffffffffffffffffffffffffffffff1681526020018215151515815260200192505050602060405180830381600087803b1515611aa157600080fd5b6102c65a03f11515611ab257600080fd5b505050604051805190508682815181101515611aca57fe5b90602001906020020181815250508c73ffffffffffffffffffffffffffffffffffffffff1663cf8fee118d83815181101515611b0257fe5b90602001906020020151600080604051602001526040518363ffffffff167c0100000000000000000000000000000000000000000000000000000000028152600401808373ffffffffffffffffffffffffffffffffffffffff1673ffffffffffffffffffffffffffffffffffffffff1681526020018215151515815260200192505050602060405180830381600087803b1515611b9e57600080fd5b6102c65a03f11515611baf57600080fd5b505050604051805190508582815181101515611bc757fe5b9060200190602002018181525050611bf68d8d83815181101515611be757fe5b90602001906020020151611db8565b8684815181101515611c0457fe5b9060200190602002018685815181101515611c1b57fe5b9060200190602002018686815181101515611c3257fe5b906020019060200201838152508360000b60000b8152508360000b60000b81525050505080806001019150506119d1565b85858585859a509a509a509a509a505050505050509295509295909350565b60008073eeeeeeeeeeeeeeeeeeeeeeeeeeeeeeeeeeeeeeee73ffffffffffffffffffffffffffffffffffffffff168373ffffffffffffffffffffffffffffffffffffffff161415611cd65760129150611db2565b6000808473ffffffffffffffffffffffffffffffffffffffff1673ffffffffffffffffffffffffffffffffffffffff1681526020019081526020016000205490506000811415611dae578273ffffffffffffffffffffffffffffffffffffffff1663313ce5676000604051602001526040518163ffffffff167c0100000000000000000000000000000000000000000000000000000000028152600401602060405180830381600087803b1515611d8c57600080fd5b6102c65a03f11515611d9d57600080fd5b505050604051805190509150611db2565b8091505b50919050565b6000806000806000806000808973ffffffffffffffffffffffffffffffffffffffff1663e4a2ac628a6000604051608001526040518263ffffffff167c0100000000000000000000000000000000000000000000000000000000028152600401808273ffffffffffffffffffffffffffffffffffffffff1673ffffffffffffffffffffffffffffffffffffffff168152602001915050608060405180830381600087803b1515611e6757600080fd5b6102c65a03f11515611e7857600080fd5b50505060405180519060200180519060200180519060200180519050809550819650829750839850505050508973ffffffffffffffffffffffffffffffffffffffff16638036d7578a6000604051602001526040518263ffffffff167c0100000000000000000000000000000000000000000000000000000000028152600401808273ffffffffffffffffffffffffffffffffffffffff1673ffffffffffffffffffffffffffffffffffffffff168152602001915050602060405180830381600087803b1515611f4757600080fd5b6102c65a03f11515611f5857600080fd5b505050604051805190509050827f01000000000000000000000000000000000000000000000000000000000000009004827f010000000000000000000000000000000000000000000000000000000000000090048297509750975050505050509250925092565b602060405190810160405280600081525090565b602060405190810160405280600081525090565b6020604051908101604052806000815250905600a165627a7a72305820083dfc14efa15aabd6fe6878513f244a17f6be5e1fba3ded998b42a90dd6a6360029",
  "source": "pragma solidity ^0.4.18;\n\nimport \"../ERC20Interface.sol\";\nimport \"../KyberReserve.sol\";\nimport \"../KyberNetwork.sol\";\nimport \"../Utils.sol\";\nimport \"../ConversionRates.sol\";\nimport \"../KyberNetworkProxy.sol\";\nimport \"../permissionless/OrderbookReserve.sol\";\n\ncontract Wrapper is Utils {\n\n    function getBalances(address reserve, ERC20[] tokens) public view returns(uint[]) {\n        uint[] memory result = new uint[](tokens.length);\n        for (uint i = 0; i < tokens.length; i++) {\n            uint balance = 0;\n            if (tokens[i] == ETH_TOKEN_ADDRESS) {\n                balance = reserve.balance;\n            } else {\n                balance = tokens[i].balanceOf(reserve);\n            }\n\n            result[i] = balance;\n        }\n\n        return result;\n    }\n\n    function getTokenAllowances(address owner, address spender, ERC20[] tokens) public view returns(uint[]) {\n        uint[] memory result = new uint[](tokens.length);\n        for (uint i = 0; i < tokens.length; i++) {\n            result[i] = tokens[i].allowance(owner, spender);\n        }\n        return result;\n    }\n\n    function getByteFromBytes14(bytes14 x, uint byteInd) public pure returns(byte) {\n        require(byteInd <= 13);\n        return x[byteInd];\n    }\n\n    function getInt8FromByte(bytes14 x, uint byteInd) public pure returns(int8) {\n        require(byteInd <= 13);\n        return int8(x[byteInd]);\n    }\n\n//    struct TokenRatesCompactData {\n//        bytes14 buy;  // change buy rate of token from baseBuyRate in 10 bps\n//        bytes14 sell; // change sell rate of token from baseSellRate in 10 bps\n//\n//        uint32 blockNumber;\n//    }\n//\n//    function getDataFromCompact(TokenRatesCompactData compact, uint byteInd) public pure\n//        returns(int8 buyByte, int8 sellByte, uint blockNumber)\n//    {\n//        blockNumber = uint(compact.blockNumber);\n////        return (compact.buy[byteInd], compact.sell[byteInd], uint(compact.blockNumber));\n//    }\n\n    function getCompactData(ConversionRates ratesContract, ERC20 token) internal view returns(int8,int8,uint) {\n        uint bulkIndex; uint index; byte buy; byte sell; uint updateBlock;\n        (bulkIndex, index, buy, sell) = ratesContract.getCompactData(token);\n        updateBlock = ratesContract.getRateUpdateBlock(token);\n\n        return (int8(buy), int8(sell), updateBlock);\n    }\n\n    function getTokenRates(ConversionRates ratesContract, ERC20[] tokenList)\n        public view\n        returns(uint[], uint[], int8[], int8[], uint[])\n    {\n        uint[] memory buyBases = new uint[](tokenList.length);\n        uint[] memory sellBases = new uint[](tokenList.length);\n        int8[] memory compactBuy = new int8[](tokenList.length);\n        int8[] memory compactSell = new int8[](tokenList.length);\n        uint[] memory updateBlock = new uint[](tokenList.length);\n\n        for (uint i = 0;  i < tokenList.length; i++) {\n            buyBases[i] = ratesContract.getBasicRate(tokenList[i], true);\n            sellBases[i] = ratesContract.getBasicRate(tokenList[i], false);\n\n            (compactBuy[i], compactSell[i], updateBlock[i]) = getCompactData(ratesContract, tokenList[i]);\n        }\n\n        return (buyBases, sellBases, compactBuy, compactSell, updateBlock);\n    }\n\n    function getTokenIndicies(ConversionRates ratesContract, ERC20[] tokenList) public view returns(uint[], uint[]) {\n        uint[] memory bulkIndices = new uint[](tokenList.length);\n        uint[] memory tokenIndexInBulk = new uint[](tokenList.length);\n\n        for (uint i = 0; i < tokenList.length; i++) {\n            uint bulkIndex; uint index; byte buy; byte sell;\n            (bulkIndex, index, buy, sell) = ratesContract.getCompactData(tokenList[i]);\n\n            bulkIndices[i] = bulkIndex;\n            tokenIndexInBulk[i] = index;\n        }\n\n        return (bulkIndices,tokenIndexInBulk);\n    }\n\n\n    function getExpectedRates( KyberNetwork network, ERC20[] srcs, ERC20[] dests, uint[] qty )\n        public view returns(uint[], uint[])\n    {\n        require( srcs.length == dests.length );\n        require( srcs.length == qty.length );\n\n        uint[] memory rates = new uint[](srcs.length);\n        uint[] memory slippage = new uint[](srcs.length);\n        for ( uint i = 0; i < srcs.length; i++ ) {\n            (rates[i],slippage[i]) = network.getExpectedRate(srcs[i],dests[i],qty[i]);\n        }\n\n        return (rates, slippage);\n    }\n\n    // iterate from startIndex to endIndex inclusive\n    function getListPermissionlessTokensAndDecimals(\n      KyberNetworkProxy networkProxy,\n      uint startIndex,\n      uint endIndex\n    )\n      public\n      view\n      returns (ERC20[] memory permissionlessTokens, uint[] memory decimals, bool isEnded)\n    {\n        KyberNetwork network = KyberNetwork(networkProxy.kyberNetworkContract());\n        uint numReserves = network.getNumReserves();\n        if (startIndex >= numReserves || startIndex > endIndex) {\n            // no need to iterate\n            permissionlessTokens = new ERC20[](0);\n            decimals = new uint[](0);\n            isEnded = true;\n            return (permissionlessTokens, decimals, isEnded);\n        }\n        uint endIterator = numReserves <= endIndex ? numReserves - 1 : endIndex;\n        uint numberTokens = 0;\n        uint rID; // reserveID\n        ERC20 token;\n        KyberReserveInterface reserve;\n        // count number of tokens in unofficial reserves\n        for(rID = startIndex; rID <= endIterator; rID++) {\n            reserve = network.reserves(rID);\n            if ( reserve != address(0)\n              && network.reserveType(reserve) == KyberNetwork.ReserveType.PERMISSIONLESS)\n            {\n                // permissionless reserve\n                (, token , , , ,) = OrderbookReserve(reserve).contracts();\n                if (token != address(0)) { numberTokens += 1; }\n            }\n        }\n        permissionlessTokens = new ERC20[](numberTokens);\n        decimals = new uint[](numberTokens);\n        numberTokens = 0;\n        // get final list of tokens and decimals in unofficial reserves\n        for(rID = startIndex; rID <= endIterator; rID++) {\n            reserve = network.reserves(rID);\n            if ( reserve != address(0)\n              && network.reserveType(reserve) == KyberNetwork.ReserveType.PERMISSIONLESS)\n            {\n                // permissionless reserve\n                (, token , , , ,) = OrderbookReserve(reserve).contracts();\n                if (token != address(0)) {\n                    permissionlessTokens[numberTokens] = token;\n                    decimals[numberTokens] = getDecimals(token);\n                    numberTokens += 1;\n                }\n            }\n        }\n        isEnded = endIterator == numReserves - 1;\n        return (permissionlessTokens, decimals, isEnded);\n    }\n}\n",
  "sourcePath": "/Users/oscarr/Ethereum/frappe/contracts/mockContracts/Wrapper.sol",
  "compiler": {
    "name": "solc",
    "version": "0.4.18+commit.9cf6e910.Emscripten.clang"
  },
  "schemaVersion": "3.0.6",
  "updatedAt": "2019-05-18T17:14:13.315Z",
  "devdoc": {
    "methods": {}
  },
  "userdoc": {
    "methods": {}
  }
}