{
  "contractName": "WrapReadTokenData",
  "abi": [
    {
      "inputs": [],
      "payable": false,
      "stateMutability": "nonpayable",
      "type": "constructor"
    },
    {
      "constant": true,
      "inputs": [
        {
          "name": "rate",
          "type": "address"
        },
        {
          "name": "token",
          "type": "address"
        }
      ],
      "name": "readQtyStepFunctions",
      "outputs": [
        {
          "name": "numBuyRateQtySteps",
          "type": "int256"
        },
        {
          "name": "buyRateQtyStepsX",
          "type": "int256[]"
        },
        {
          "name": "buyRateQtyStepsY",
          "type": "int256[]"
        },
        {
          "name": "numSellRateQtySteps",
          "type": "int256"
        },
        {
          "name": "SellRateQtyStepsX",
          "type": "int256[]"
        },
        {
          "name": "SellRateQtyStepsY",
          "type": "int256[]"
        }
      ],
      "payable": false,
      "stateMutability": "view",
      "type": "function"
    },
    {
      "constant": true,
      "inputs": [
        {
          "name": "rate",
          "type": "address"
        },
        {
          "name": "token",
          "type": "address"
        }
      ],
      "name": "readImbalanceStepFunctions",
      "outputs": [
        {
          "name": "numBuyRateImbalanceSteps",
          "type": "int256"
        },
        {
          "name": "buyRateImbalanceStepsX",
          "type": "int256[]"
        },
        {
          "name": "buyRateImbalanceStepsY",
          "type": "int256[]"
        },
        {
          "name": "numSellRateImbalanceSteps",
          "type": "int256"
        },
        {
          "name": "SellRateImbalanceStepsX",
          "type": "int256[]"
        },
        {
          "name": "SellRateImbalanceStepsY",
          "type": "int256[]"
        }
      ],
      "payable": false,
      "stateMutability": "view",
      "type": "function"
    }
  ],
  "bytecode": "0x6060604052341561000f57600080fd5b6110258061001e6000396000f30060606040526004361061004c576000357c0100000000000000000000000000000000000000000000000000000000900463ffffffff1680636f9dc95914610051578063fe50e997146101e4575b600080fd5b341561005c57600080fd5b6100a7600480803573ffffffffffffffffffffffffffffffffffffffff1690602001909190803573ffffffffffffffffffffffffffffffffffffffff16906020019091905050610377565b604051808781526020018060200180602001868152602001806020018060200185810385528a818151815260200191508051906020019060200280838360005b838110156101025780820151818401526020810190506100e7565b50505050905001858103845289818151815260200191508051906020019060200280838360005b83811015610144578082015181840152602081019050610129565b50505050905001858103835287818151815260200191508051906020019060200280838360005b8381101561018657808201518184015260208101905061016b565b50505050905001858103825286818151815260200191508051906020019060200280838360005b838110156101c85780820151818401526020810190506101ad565b505050509050019a505050505050505050505060405180910390f35b34156101ef57600080fd5b61023a600480803573ffffffffffffffffffffffffffffffffffffffff1690602001909190803573ffffffffffffffffffffffffffffffffffffffff169060200190919050506109ae565b604051808781526020018060200180602001868152602001806020018060200185810385528a818151815260200191508051906020019060200280838360005b8381101561029557808201518184015260208101905061027a565b50505050905001858103845289818151815260200191508051906020019060200280838360005b838110156102d75780820151818401526020810190506102bc565b50505050905001858103835287818151815260200191508051906020019060200280838360005b838110156103195780820151818401526020810190506102fe565b50505050905001858103825286818151815260200191508051906020019060200280838360005b8381101561035b578082015181840152602081019050610340565b505050509050019a505050505050505050505060405180910390f35b6000610381610fe5565b610389610fe5565b6000610393610fe5565b61039b610fe5565b60008873ffffffffffffffffffffffffffffffffffffffff166362674e93896008600080604051602001526040518463ffffffff167c0100000000000000000000000000000000000000000000000000000000028152600401808473ffffffffffffffffffffffffffffffffffffffff1673ffffffffffffffffffffffffffffffffffffffff1681526020018381526020018281526020019350505050602060405180830381600087803b151561045157600080fd5b6102c65a03f1151561046257600080fd5b5050506040518051905096508660405180591061047c5750595b908082528060200260200182016040525095508660405180591061049d5750595b90808252806020026020018201604052509450600090505b868110156106a0578873ffffffffffffffffffffffffffffffffffffffff166362674e93896009846000604051602001526040518463ffffffff167c0100000000000000000000000000000000000000000000000000000000028152600401808473ffffffffffffffffffffffffffffffffffffffff1673ffffffffffffffffffffffffffffffffffffffff1681526020018381526020018281526020019350505050602060405180830381600087803b151561057157600080fd5b6102c65a03f1151561058257600080fd5b50505060405180519050868281518110151561059a57fe5b90602001906020020181815250508873ffffffffffffffffffffffffffffffffffffffff166362674e9389600b846000604051602001526040518463ffffffff167c0100000000000000000000000000000000000000000000000000000000028152600401808473ffffffffffffffffffffffffffffffffffffffff1673ffffffffffffffffffffffffffffffffffffffff1681526020018381526020018281526020019350505050602060405180830381600087803b151561065c57600080fd5b6102c65a03f1151561066d57600080fd5b50505060405180519050858281518110151561068557fe5b906020019060200201818152505080806001019150506104b5565b8873ffffffffffffffffffffffffffffffffffffffff166362674e9389600c600080604051602001526040518463ffffffff167c0100000000000000000000000000000000000000000000000000000000028152600401808473ffffffffffffffffffffffffffffffffffffffff1673ffffffffffffffffffffffffffffffffffffffff1681526020018381526020018281526020019350505050602060405180830381600087803b151561075457600080fd5b6102c65a03f1151561076557600080fd5b5050506040518051905093508360405180591061077f5750595b90808252806020026020018201604052509250836040518059106107a05750595b90808252806020026020018201604052509150600090505b838110156109a3578873ffffffffffffffffffffffffffffffffffffffff166362674e9389600d846000604051602001526040518463ffffffff167c0100000000000000000000000000000000000000000000000000000000028152600401808473ffffffffffffffffffffffffffffffffffffffff1673ffffffffffffffffffffffffffffffffffffffff1681526020018381526020018281526020019350505050602060405180830381600087803b151561087457600080fd5b6102c65a03f1151561088557600080fd5b50505060405180519050838281518110151561089d57fe5b90602001906020020181815250508873ffffffffffffffffffffffffffffffffffffffff166362674e9389600f846000604051602001526040518463ffffffff167c0100000000000000000000000000000000000000000000000000000000028152600401808473ffffffffffffffffffffffffffffffffffffffff1673ffffffffffffffffffffffffffffffffffffffff1681526020018381526020018281526020019350505050602060405180830381600087803b151561095f57600080fd5b6102c65a03f1151561097057600080fd5b50505060405180519050828281518110151561098857fe5b906020019060200201818152505080806001019150506107b8565b509295509295509295565b60006109b8610fe5565b6109c0610fe5565b60006109ca610fe5565b6109d2610fe5565b60008873ffffffffffffffffffffffffffffffffffffffff166362674e93896000806000604051602001526040518463ffffffff167c0100000000000000000000000000000000000000000000000000000000028152600401808473ffffffffffffffffffffffffffffffffffffffff1673ffffffffffffffffffffffffffffffffffffffff1681526020018381526020018281526020019350505050602060405180830381600087803b1515610a8857600080fd5b6102c65a03f11515610a9957600080fd5b50505060405180519050965086604051805910610ab35750595b9080825280602002602001820160405250955086604051805910610ad45750595b90808252806020026020018201604052509450600090505b86811015610cd7578873ffffffffffffffffffffffffffffffffffffffff166362674e93896001846000604051602001526040518463ffffffff167c0100000000000000000000000000000000000000000000000000000000028152600401808473ffffffffffffffffffffffffffffffffffffffff1673ffffffffffffffffffffffffffffffffffffffff1681526020018381526020018281526020019350505050602060405180830381600087803b1515610ba857600080fd5b6102c65a03f11515610bb957600080fd5b505050604051805190508682815181101515610bd157fe5b90602001906020020181815250508873ffffffffffffffffffffffffffffffffffffffff166362674e93896003846000604051602001526040518463ffffffff167c0100000000000000000000000000000000000000000000000000000000028152600401808473ffffffffffffffffffffffffffffffffffffffff1673ffffffffffffffffffffffffffffffffffffffff1681526020018381526020018281526020019350505050602060405180830381600087803b1515610c9357600080fd5b6102c65a03f11515610ca457600080fd5b505050604051805190508582815181101515610cbc57fe5b90602001906020020181815250508080600101915050610aec565b8873ffffffffffffffffffffffffffffffffffffffff166362674e93896004600080604051602001526040518463ffffffff167c0100000000000000000000000000000000000000000000000000000000028152600401808473ffffffffffffffffffffffffffffffffffffffff1673ffffffffffffffffffffffffffffffffffffffff1681526020018381526020018281526020019350505050602060405180830381600087803b1515610d8b57600080fd5b6102c65a03f11515610d9c57600080fd5b50505060405180519050935083604051805910610db65750595b9080825280602002602001820160405250925083604051805910610dd75750595b90808252806020026020018201604052509150600090505b83811015610fda578873ffffffffffffffffffffffffffffffffffffffff166362674e93896005846000604051602001526040518463ffffffff167c0100000000000000000000000000000000000000000000000000000000028152600401808473ffffffffffffffffffffffffffffffffffffffff1673ffffffffffffffffffffffffffffffffffffffff1681526020018381526020018281526020019350505050602060405180830381600087803b1515610eab57600080fd5b6102c65a03f11515610ebc57600080fd5b505050604051805190508382815181101515610ed457fe5b90602001906020020181815250508873ffffffffffffffffffffffffffffffffffffffff166362674e93896007846000604051602001526040518463ffffffff167c0100000000000000000000000000000000000000000000000000000000028152600401808473ffffffffffffffffffffffffffffffffffffffff1673ffffffffffffffffffffffffffffffffffffffff1681526020018381526020018281526020019350505050602060405180830381600087803b1515610f9657600080fd5b6102c65a03f11515610fa757600080fd5b505050604051805190508282815181101515610fbf57fe5b90602001906020020181815250508080600101915050610def565b509295509295509295565b6020604051908101604052806000815250905600a165627a7a72305820b98165d8a080a057e17cd8082741c0cc86caacba977dccee02cfbe0464179fe40029",
  "source": "pragma solidity 0.4.18;\n\n\nimport \"../ConversionRates.sol\";\nimport \"../ERC20Interface.sol\";\n\n\ncontract WrapReadTokenData {\n    function WrapReadTokenData() public { }\n\n    function readQtyStepFunctions(ConversionRates rate, ERC20 token) public view returns(\n        int numBuyRateQtySteps, \n        int[] buyRateQtyStepsX, \n        int[] buyRateQtyStepsY,\n        int numSellRateQtySteps,\n        int[] SellRateQtyStepsX,\n        int[] SellRateQtyStepsY)\n    {\n        uint i;\n        numBuyRateQtySteps = rate.getStepFunctionData(token, 0, 0);\n        buyRateQtyStepsX = new int[](uint(numBuyRateQtySteps));\n        buyRateQtyStepsY = new int[](uint(numBuyRateQtySteps));\n\n        for (i = 0; i < uint(numBuyRateQtySteps); i++) {\n            buyRateQtyStepsX[i] = rate.getStepFunctionData(token, 1, i);\n            buyRateQtyStepsY[i] = rate.getStepFunctionData(token, 3, i);\n        }\n\n        numSellRateQtySteps = rate.getStepFunctionData(token, 4, 0);\n        SellRateQtyStepsX = new int[](uint(numSellRateQtySteps));\n        SellRateQtyStepsY = new int[](uint(numSellRateQtySteps));\n        \n        for (i = 0; i < uint(numSellRateQtySteps); i++) {\n            SellRateQtyStepsX[i] = rate.getStepFunctionData(token, 5, i);\n            SellRateQtyStepsY[i] = rate.getStepFunctionData(token, 7, i);\n        }\n    }\n\n    function readImbalanceStepFunctions(ConversionRates rate, ERC20 token) public view returns(\n        int numBuyRateImbalanceSteps,\n        int[] buyRateImbalanceStepsX,\n        int[] buyRateImbalanceStepsY,\n        int numSellRateImbalanceSteps,\n        int[] SellRateImbalanceStepsX,\n        int[] SellRateImbalanceStepsY)\n    {\n        uint i;\n        numBuyRateImbalanceSteps = rate.getStepFunctionData(token, 8, 0);\n        buyRateImbalanceStepsX = new int[](uint(numBuyRateImbalanceSteps));\n        buyRateImbalanceStepsY = new int[](uint(numBuyRateImbalanceSteps));\n\n        for (i = 0; i < uint(numBuyRateImbalanceSteps); i++) {\n            buyRateImbalanceStepsX[i] = rate.getStepFunctionData(token, 9, i);\n            buyRateImbalanceStepsY[i] = rate.getStepFunctionData(token, 11, i);\n        }\n\n        numSellRateImbalanceSteps = rate.getStepFunctionData(token, 12, 0);\n        SellRateImbalanceStepsX = new int[](uint(numSellRateImbalanceSteps));\n        SellRateImbalanceStepsY = new int[](uint(numSellRateImbalanceSteps));\n\n        for (i = 0; i < uint(numSellRateImbalanceSteps); i++) {\n            SellRateImbalanceStepsX[i] = rate.getStepFunctionData(token, 13, i);\n            SellRateImbalanceStepsY[i] = rate.getStepFunctionData(token, 15, i);\n        }\n    }\n}\n\n",
  "sourcePath": "/Users/oscarr/Ethereum/frappe/contracts/wrapperContracts/WrapReadTokenData.sol",
  "compiler": {
    "name": "solc",
    "version": "0.4.18+commit.9cf6e910.Emscripten.clang"
  },
  "schemaVersion": "3.0.6",
  "updatedAt": "2019-05-18T17:14:13.565Z",
  "devdoc": {
    "methods": {}
  },
  "userdoc": {
    "methods": {}
  }
}