{
  "contractName": "WrapConversionRate",
  "abi": [
    {
      "constant": false,
      "inputs": [],
      "name": "claimWrappedContractAdmin",
      "outputs": [],
      "payable": false,
      "stateMutability": "nonpayable",
      "type": "function"
    },
    {
      "constant": false,
      "inputs": [
        {
          "name": "alerter",
          "type": "address"
        }
      ],
      "name": "removeAlerter",
      "outputs": [],
      "payable": false,
      "stateMutability": "nonpayable",
      "type": "function"
    },
    {
      "constant": true,
      "inputs": [],
      "name": "pendingAdmin",
      "outputs": [
        {
          "name": "",
          "type": "address"
        }
      ],
      "payable": false,
      "stateMutability": "view",
      "type": "function"
    },
    {
      "constant": true,
      "inputs": [],
      "name": "getOperators",
      "outputs": [
        {
          "name": "",
          "type": "address[]"
        }
      ],
      "payable": false,
      "stateMutability": "view",
      "type": "function"
    },
    {
      "constant": false,
      "inputs": [
        {
          "name": "token",
          "type": "address"
        },
        {
          "name": "amount",
          "type": "uint256"
        },
        {
          "name": "sendTo",
          "type": "address"
        }
      ],
      "name": "withdrawToken",
      "outputs": [],
      "payable": false,
      "stateMutability": "nonpayable",
      "type": "function"
    },
    {
      "constant": false,
      "inputs": [
        {
          "name": "newAlerter",
          "type": "address"
        }
      ],
      "name": "addAlerter",
      "outputs": [],
      "payable": false,
      "stateMutability": "nonpayable",
      "type": "function"
    },
    {
      "constant": false,
      "inputs": [
        {
          "name": "newAdmin",
          "type": "address"
        }
      ],
      "name": "transferAdmin",
      "outputs": [],
      "payable": false,
      "stateMutability": "nonpayable",
      "type": "function"
    },
    {
      "constant": false,
      "inputs": [],
      "name": "claimAdmin",
      "outputs": [],
      "payable": false,
      "stateMutability": "nonpayable",
      "type": "function"
    },
    {
      "constant": false,
      "inputs": [
        {
          "name": "newAdmin",
          "type": "address"
        }
      ],
      "name": "transferAdminQuickly",
      "outputs": [],
      "payable": false,
      "stateMutability": "nonpayable",
      "type": "function"
    },
    {
      "constant": true,
      "inputs": [],
      "name": "getAlerters",
      "outputs": [
        {
          "name": "",
          "type": "address[]"
        }
      ],
      "payable": false,
      "stateMutability": "view",
      "type": "function"
    },
    {
      "constant": false,
      "inputs": [
        {
          "name": "newAdmin",
          "type": "address"
        }
      ],
      "name": "transferWrappedContractAdmin",
      "outputs": [],
      "payable": false,
      "stateMutability": "nonpayable",
      "type": "function"
    },
    {
      "constant": false,
      "inputs": [
        {
          "name": "newOperator",
          "type": "address"
        }
      ],
      "name": "addOperator",
      "outputs": [],
      "payable": false,
      "stateMutability": "nonpayable",
      "type": "function"
    },
    {
      "constant": false,
      "inputs": [
        {
          "name": "operator",
          "type": "address"
        }
      ],
      "name": "removeOperator",
      "outputs": [],
      "payable": false,
      "stateMutability": "nonpayable",
      "type": "function"
    },
    {
      "constant": false,
      "inputs": [
        {
          "name": "amount",
          "type": "uint256"
        },
        {
          "name": "sendTo",
          "type": "address"
        }
      ],
      "name": "withdrawEther",
      "outputs": [],
      "payable": false,
      "stateMutability": "nonpayable",
      "type": "function"
    },
    {
      "constant": true,
      "inputs": [],
      "name": "wrappedContract",
      "outputs": [
        {
          "name": "",
          "type": "address"
        }
      ],
      "payable": false,
      "stateMutability": "view",
      "type": "function"
    },
    {
      "constant": true,
      "inputs": [],
      "name": "admin",
      "outputs": [
        {
          "name": "",
          "type": "address"
        }
      ],
      "payable": false,
      "stateMutability": "view",
      "type": "function"
    },
    {
      "inputs": [
        {
          "name": "_conversionRates",
          "type": "address"
        },
        {
          "name": "_admin",
          "type": "address"
        }
      ],
      "payable": false,
      "stateMutability": "nonpayable",
      "type": "constructor"
    },
    {
      "anonymous": false,
      "inputs": [
        {
          "indexed": false,
          "name": "token",
          "type": "address"
        },
        {
          "indexed": false,
          "name": "amount",
          "type": "uint256"
        },
        {
          "indexed": false,
          "name": "sendTo",
          "type": "address"
        }
      ],
      "name": "TokenWithdraw",
      "type": "event"
    },
    {
      "anonymous": false,
      "inputs": [
        {
          "indexed": false,
          "name": "amount",
          "type": "uint256"
        },
        {
          "indexed": false,
          "name": "sendTo",
          "type": "address"
        }
      ],
      "name": "EtherWithdraw",
      "type": "event"
    },
    {
      "anonymous": false,
      "inputs": [
        {
          "indexed": false,
          "name": "pendingAdmin",
          "type": "address"
        }
      ],
      "name": "TransferAdminPending",
      "type": "event"
    },
    {
      "anonymous": false,
      "inputs": [
        {
          "indexed": false,
          "name": "newAdmin",
          "type": "address"
        },
        {
          "indexed": false,
          "name": "previousAdmin",
          "type": "address"
        }
      ],
      "name": "AdminClaimed",
      "type": "event"
    },
    {
      "anonymous": false,
      "inputs": [
        {
          "indexed": false,
          "name": "newAlerter",
          "type": "address"
        },
        {
          "indexed": false,
          "name": "isAdd",
          "type": "bool"
        }
      ],
      "name": "AlerterAdded",
      "type": "event"
    },
    {
      "anonymous": false,
      "inputs": [
        {
          "indexed": false,
          "name": "newOperator",
          "type": "address"
        },
        {
          "indexed": false,
          "name": "isAdd",
          "type": "bool"
        }
      ],
      "name": "OperatorAdded",
      "type": "event"
    },
    {
      "constant": false,
      "inputs": [
        {
          "name": "token",
          "type": "address"
        },
        {
          "name": "minRecordResolution",
          "type": "uint256"
        },
        {
          "name": "maxPerBlockImbalance",
          "type": "uint256"
        },
        {
          "name": "maxTotalImbalance",
          "type": "uint256"
        }
      ],
      "name": "setAddTokenData",
      "outputs": [],
      "payable": false,
      "stateMutability": "nonpayable",
      "type": "function"
    },
    {
      "constant": false,
      "inputs": [
        {
          "name": "nonce",
          "type": "uint256"
        }
      ],
      "name": "approveAddTokenData",
      "outputs": [],
      "payable": false,
      "stateMutability": "nonpayable",
      "type": "function"
    },
    {
      "constant": true,
      "inputs": [],
      "name": "getAddTokenData",
      "outputs": [
        {
          "name": "nonce",
          "type": "uint256"
        },
        {
          "name": "token",
          "type": "address"
        },
        {
          "name": "minRecordResolution",
          "type": "uint256"
        },
        {
          "name": "maxPerBlockImbalance",
          "type": "uint256"
        },
        {
          "name": "maxTotalImbalance",
          "type": "uint256"
        }
      ],
      "payable": false,
      "stateMutability": "view",
      "type": "function"
    },
    {
      "constant": true,
      "inputs": [],
      "name": "getAddTokenSignatures",
      "outputs": [
        {
          "name": "signatures",
          "type": "address[]"
        }
      ],
      "payable": false,
      "stateMutability": "view",
      "type": "function"
    },
    {
      "constant": false,
      "inputs": [
        {
          "name": "tokens",
          "type": "address[]"
        },
        {
          "name": "maxPerBlockImbalanceValues",
          "type": "uint256[]"
        },
        {
          "name": "maxTotalImbalanceValues",
          "type": "uint256[]"
        }
      ],
      "name": "setTokenInfoData",
      "outputs": [],
      "payable": false,
      "stateMutability": "nonpayable",
      "type": "function"
    },
    {
      "constant": false,
      "inputs": [
        {
          "name": "nonce",
          "type": "uint256"
        }
      ],
      "name": "approveTokenControlInfo",
      "outputs": [],
      "payable": false,
      "stateMutability": "nonpayable",
      "type": "function"
    },
    {
      "constant": true,
      "inputs": [
        {
          "name": "index",
          "type": "uint256"
        }
      ],
      "name": "getControlInfoPerToken",
      "outputs": [
        {
          "name": "token",
          "type": "address"
        },
        {
          "name": "_maxPerBlockImbalance",
          "type": "uint256"
        },
        {
          "name": "_maxTotalImbalance",
          "type": "uint256"
        },
        {
          "name": "nonce",
          "type": "uint256"
        }
      ],
      "payable": false,
      "stateMutability": "view",
      "type": "function"
    },
    {
      "constant": true,
      "inputs": [],
      "name": "getTokenInfoNumToknes",
      "outputs": [
        {
          "name": "numSetTokens",
          "type": "uint256"
        }
      ],
      "payable": false,
      "stateMutability": "view",
      "type": "function"
    },
    {
      "constant": true,
      "inputs": [],
      "name": "getTokenInfoData",
      "outputs": [
        {
          "name": "nonce",
          "type": "uint256"
        },
        {
          "name": "numSetTokens",
          "type": "uint256"
        },
        {
          "name": "tokenAddress",
          "type": "address[]"
        },
        {
          "name": "maxPerBlock",
          "type": "uint256[]"
        },
        {
          "name": "maxTotal",
          "type": "uint256[]"
        }
      ],
      "payable": false,
      "stateMutability": "view",
      "type": "function"
    },
    {
      "constant": true,
      "inputs": [],
      "name": "getTokenInfoSignatures",
      "outputs": [
        {
          "name": "signatures",
          "type": "address[]"
        }
      ],
      "payable": false,
      "stateMutability": "view",
      "type": "function"
    },
    {
      "constant": true,
      "inputs": [],
      "name": "getTokenInfoNonce",
      "outputs": [
        {
          "name": "nonce",
          "type": "uint256"
        }
      ],
      "payable": false,
      "stateMutability": "view",
      "type": "function"
    },
    {
      "constant": false,
      "inputs": [
        {
          "name": "validDurationBlocks",
          "type": "uint256"
        }
      ],
      "name": "setValidDurationData",
      "outputs": [],
      "payable": false,
      "stateMutability": "nonpayable",
      "type": "function"
    },
    {
      "constant": false,
      "inputs": [
        {
          "name": "nonce",
          "type": "uint256"
        }
      ],
      "name": "approveValidDurationData",
      "outputs": [],
      "payable": false,
      "stateMutability": "nonpayable",
      "type": "function"
    },
    {
      "constant": true,
      "inputs": [],
      "name": "getValidDurationBlocksData",
      "outputs": [
        {
          "name": "validDuration",
          "type": "uint256"
        },
        {
          "name": "nonce",
          "type": "uint256"
        }
      ],
      "payable": false,
      "stateMutability": "view",
      "type": "function"
    },
    {
      "constant": true,
      "inputs": [],
      "name": "getValidDurationSignatures",
      "outputs": [
        {
          "name": "signatures",
          "type": "address[]"
        }
      ],
      "payable": false,
      "stateMutability": "view",
      "type": "function"
    }
  ],
  "bytecode": "0x606060405234156200001057600080fd5b604051604080620040a183398101604052808051906020019091908051906020019091905050818160036000336000806101000a81548173ffffffffffffffffffffffffffffffffffffffff021916908373ffffffffffffffffffffffffffffffffffffffff160217905550600073ffffffffffffffffffffffffffffffffffffffff168473ffffffffffffffffffffffffffffffffffffffff1614151515620000b957600080fd5b600073ffffffffffffffffffffffffffffffffffffffff168373ffffffffffffffffffffffffffffffffffffffff1614151515620000f657600080fd5b83600660006101000a81548173ffffffffffffffffffffffffffffffffffffffff021916908373ffffffffffffffffffffffffffffffffffffffff160217905550826000806101000a81548173ffffffffffffffffffffffffffffffffffffffff021916908373ffffffffffffffffffffffffffffffffffffffff160217905550600090505b81811015620001b157620001a36200023b64010000000002620039fb176401000000009004565b80806001019150506200017c565b50505050600073ffffffffffffffffffffffffffffffffffffffff168273ffffffffffffffffffffffffffffffffffffffff1614151515620001f257600080fd5b81600860006101000a81548173ffffffffffffffffffffffffffffffffffffffff021916908373ffffffffffffffffffffffffffffffffffffffff16021790555050506200047d565b62000245620002d8565b6000604051805910620002555750595b90808252806020026020018201604052509050600780548060010182816200027e9190620002ec565b916000526020600020906002020160006040805190810160405280858152602001600081525090919091506000820151816000019080519060200190620002c792919062000321565b506020820151816001015550505050565b602060405190810160405280600081525090565b8154818355818115116200031c576002028160020283600052602060002091820191016200031b9190620003b0565b5b505050565b8280548282559060005260206000209081019282156200039d579160200282015b828111156200039c5782518260006101000a81548173ffffffffffffffffffffffffffffffffffffffff021916908373ffffffffffffffffffffffffffffffffffffffff1602179055509160200191906001019062000342565b5b509050620003ac9190620003ec565b5090565b620003e991905b80821115620003e55760008082016000620003d3919062000432565b600182016000905550600201620003b7565b5090565b90565b6200042f91905b808211156200042b57600081816101000a81549073ffffffffffffffffffffffffffffffffffffffff021916905550600101620003f3565b5090565b90565b508054600082559060005260206000209081019062000452919062000455565b50565b6200047a91905b80821115620004765760008160009055506001016200045c565b5090565b90565b613c14806200048d6000396000f30060606040526004361061018b576000357c0100000000000000000000000000000000000000000000000000000000900463ffffffff168063010afc201461019057806301a12fd3146101a557806326782247146101de57806327a099d8146102335780633be1212b1461029d5780633ccdbb28146102c0578063408ee7fe146103215780634fd1519c1461035a57806350ca62271461038a5780636aad70b61461049257806370835f6b146104fc57806375829def1461051f57806376f9b8d91461055857806377f50f97146105c257806378b8c58c146105d75780637acc8678146106005780637c423f54146106395780638d7cffb7146106a35780639870d7fe146106dc578063aaa1f91d14610715578063ac8a584a14610769578063bb78d159146107a2578063bd467b6e146107c5578063c8d172d61461089f578063ce56c454146108c8578063e9c268931461090a578063f77b18561461092d578063f7f9cb1c1461099e578063f851a440146109f3578063fd56d4c814610a48578063ffcab3e914610ac0575b600080fd5b341561019b57600080fd5b6101a3610b2a565b005b34156101b057600080fd5b6101dc600480803573ffffffffffffffffffffffffffffffffffffffff16906020019091905050610c1d565b005b34156101e957600080fd5b6101f1610edf565b604051808273ffffffffffffffffffffffffffffffffffffffff1673ffffffffffffffffffffffffffffffffffffffff16815260200191505060405180910390f35b341561023e57600080fd5b610246610f05565b6040518080602001828103825283818151815260200191508051906020019060200280838360005b8381101561028957808201518184015260208101905061026e565b505050509050019250505060405180910390f35b34156102a857600080fd5b6102be6004808035906020019091905050610f99565b005b34156102cb57600080fd5b61031f600480803573ffffffffffffffffffffffffffffffffffffffff1690602001909190803590602001909190803573ffffffffffffffffffffffffffffffffffffffff169060200190919050506110af565b005b341561032c57600080fd5b610358600480803573ffffffffffffffffffffffffffffffffffffffff1690602001909190505061127f565b005b341561036557600080fd5b61036d611475565b604051808381526020018281526020019250505060405180910390f35b341561039557600080fd5b61039d6114a2565b60405180868152602001858152602001806020018060200180602001848103845287818151815260200191508051906020019060200280838360005b838110156103f45780820151818401526020810190506103d9565b50505050905001848103835286818151815260200191508051906020019060200280838360005b8381101561043657808201518184015260208101905061041b565b50505050905001848103825285818151815260200191508051906020019060200280838360005b8381101561047857808201518184015260208101905061045d565b505050509050019850505050505050505060405180910390f35b341561049d57600080fd5b6104a561162e565b6040518080602001828103825283818151815260200191508051906020019060200280838360005b838110156104e85780820151818401526020810190506104cd565b505050509050019250505060405180910390f35b341561050757600080fd5b61051d6004808035906020019091905050611651565b005b341561052a57600080fd5b610556600480803573ffffffffffffffffffffffffffffffffffffffff169060200190919050506116c6565b005b341561056357600080fd5b61056b611826565b6040518080602001828103825283818151815260200191508051906020019060200280838360005b838110156105ae578082015181840152602081019050610593565b505050509050019250505060405180910390f35b34156105cd57600080fd5b6105d5611849565b005b34156105e257600080fd5b6105ea611a25565b6040518082815260200191505060405180910390f35b341561060b57600080fd5b610637600480803573ffffffffffffffffffffffffffffffffffffffff16906020019091905050611a35565b005b341561064457600080fd5b61064c611c2a565b6040518080602001828103825283818151815260200191508051906020019060200280838360005b8381101561068f578082015181840152602081019050610674565b505050509050019250505060405180910390f35b34156106ae57600080fd5b6106da600480803573ffffffffffffffffffffffffffffffffffffffff16906020019091905050611cbe565b005b34156106e757600080fd5b610713600480803573ffffffffffffffffffffffffffffffffffffffff16906020019091905050611dec565b005b341561072057600080fd5b610767600480803573ffffffffffffffffffffffffffffffffffffffff16906020019091908035906020019091908035906020019091908035906020019091905050611fe2565b005b341561077457600080fd5b6107a0600480803573ffffffffffffffffffffffffffffffffffffffff16906020019091905050612118565b005b34156107ad57600080fd5b6107c360048080359060200190919050506123dd565b005b34156107d057600080fd5b61089d6004808035906020019082018035906020019080806020026020016040519081016040528093929190818152602001838360200280828437820191505050505050919080359060200190820180359060200190808060200260200160405190810160405280939291908181526020018383602002808284378201915050505050509190803590602001908201803590602001908080602002602001604051908101604052809392919081815260200183836020028082843782019150505050505091905050612452565b005b34156108aa57600080fd5b6108b2612527565b6040518082815260200191505060405180910390f35b34156108d357600080fd5b610908600480803590602001909190803573ffffffffffffffffffffffffffffffffffffffff1690602001909190505061254a565b005b341561091557600080fd5b61092b6004808035906020019091905050612654565b005b341561093857600080fd5b6109406126d2565b604051808681526020018573ffffffffffffffffffffffffffffffffffffffff1673ffffffffffffffffffffffffffffffffffffffff1681526020018481526020018381526020018281526020019550505050505060405180910390f35b34156109a957600080fd5b6109b161274b565b604051808273ffffffffffffffffffffffffffffffffffffffff1673ffffffffffffffffffffffffffffffffffffffff16815260200191505060405180910390f35b34156109fe57600080fd5b610a06612771565b604051808273ffffffffffffffffffffffffffffffffffffffff1673ffffffffffffffffffffffffffffffffffffffff16815260200191505060405180910390f35b3415610a5357600080fd5b610a696004808035906020019091905050612796565b604051808573ffffffffffffffffffffffffffffffffffffffff1673ffffffffffffffffffffffffffffffffffffffff16815260200184815260200183815260200182815260200194505050505060405180910390f35b3415610acb57600080fd5b610ad3612883565b6040518080602001828103825283818151815260200191508051906020019060200280838360005b83811015610b16578082015181840152602081019050610afb565b505050509050019250505060405180910390f35b600260003373ffffffffffffffffffffffffffffffffffffffff1673ffffffffffffffffffffffffffffffffffffffff16815260200190815260200160002060009054906101000a900460ff161515610b8257600080fd5b600660009054906101000a900473ffffffffffffffffffffffffffffffffffffffff1673ffffffffffffffffffffffffffffffffffffffff166377f50f976040518163ffffffff167c0100000000000000000000000000000000000000000000000000000000028152600401600060405180830381600087803b1515610c0757600080fd5b6102c65a03f11515610c1857600080fd5b505050565b60008060009054906101000a900473ffffffffffffffffffffffffffffffffffffffff1673ffffffffffffffffffffffffffffffffffffffff163373ffffffffffffffffffffffffffffffffffffffff16141515610c7a57600080fd5b600360008373ffffffffffffffffffffffffffffffffffffffff1673ffffffffffffffffffffffffffffffffffffffff16815260200190815260200160002060009054906101000a900460ff161515610cd257600080fd5b6000600360008473ffffffffffffffffffffffffffffffffffffffff1673ffffffffffffffffffffffffffffffffffffffff16815260200190815260200160002060006101000a81548160ff021916908315150217905550600090505b600580549050811015610edb578173ffffffffffffffffffffffffffffffffffffffff16600582815481101515610d6257fe5b906000526020600020900160009054906101000a900473ffffffffffffffffffffffffffffffffffffffff1673ffffffffffffffffffffffffffffffffffffffff161415610ed0576005600160058054905003815481101515610dc157fe5b906000526020600020900160009054906101000a900473ffffffffffffffffffffffffffffffffffffffff16600582815481101515610dfc57fe5b906000526020600020900160006101000a81548173ffffffffffffffffffffffffffffffffffffffff021916908373ffffffffffffffffffffffffffffffffffffffff1602179055506005805480919060019003610e5a9190613814565b507f5611bf3e417d124f97bf2c788843ea8bb502b66079fbee02158ef30b172cb762826000604051808373ffffffffffffffffffffffffffffffffffffffff1673ffffffffffffffffffffffffffffffffffffffff168152602001821515151581526020019250505060405180910390a1610edb565b806001019050610d2f565b5050565b600160009054906101000a900473ffffffffffffffffffffffffffffffffffffffff1681565b610f0d613840565b6004805480602002602001604051908101604052809291908181526020018280548015610f8f57602002820191906000526020600020905b8160009054906101000a900473ffffffffffffffffffffffffffffffffffffffff1673ffffffffffffffffffffffffffffffffffffffff1681526020019060010190808311610f45575b5050505050905090565b600260003373ffffffffffffffffffffffffffffffffffffffff1673ffffffffffffffffffffffffffffffffffffffff16815260200190815260200160002060009054906101000a900460ff161515610ff157600080fd5b610ffd600282336128a6565b156110ac57600860009054906101000a900473ffffffffffffffffffffffffffffffffffffffff1673ffffffffffffffffffffffffffffffffffffffff16636c6295b86010600001546040518263ffffffff167c010000000000000000000000000000000000000000000000000000000002815260040180828152602001915050600060405180830381600087803b151561109757600080fd5b6102c65a03f115156110a857600080fd5b5050505b50565b6000809054906101000a900473ffffffffffffffffffffffffffffffffffffffff1673ffffffffffffffffffffffffffffffffffffffff163373ffffffffffffffffffffffffffffffffffffffff1614151561110a57600080fd5b8273ffffffffffffffffffffffffffffffffffffffff1663a9059cbb82846000604051602001526040518363ffffffff167c0100000000000000000000000000000000000000000000000000000000028152600401808373ffffffffffffffffffffffffffffffffffffffff1673ffffffffffffffffffffffffffffffffffffffff16815260200182815260200192505050602060405180830381600087803b15156111b557600080fd5b6102c65a03f115156111c657600080fd5b5050506040518051905015156111db57600080fd5b7f72cb8a894ddb372ceec3d2a7648d86f17d5a15caae0e986c53109b8a9a9385e6838383604051808473ffffffffffffffffffffffffffffffffffffffff1673ffffffffffffffffffffffffffffffffffffffff1681526020018381526020018273ffffffffffffffffffffffffffffffffffffffff1673ffffffffffffffffffffffffffffffffffffffff168152602001935050505060405180910390a1505050565b6000809054906101000a900473ffffffffffffffffffffffffffffffffffffffff1673ffffffffffffffffffffffffffffffffffffffff163373ffffffffffffffffffffffffffffffffffffffff161415156112da57600080fd5b600360008273ffffffffffffffffffffffffffffffffffffffff1673ffffffffffffffffffffffffffffffffffffffff16815260200190815260200160002060009054906101000a900460ff1615151561133357600080fd5b603260058054905010151561134757600080fd5b7f5611bf3e417d124f97bf2c788843ea8bb502b66079fbee02158ef30b172cb762816001604051808373ffffffffffffffffffffffffffffffffffffffff1673ffffffffffffffffffffffffffffffffffffffff168152602001821515151581526020019250505060405180910390a16001600360008373ffffffffffffffffffffffffffffffffffffffff1673ffffffffffffffffffffffffffffffffffffffff16815260200190815260200160002060006101000a81548160ff021916908315150217905550600580548060010182816114239190613854565b9160005260206000209001600083909190916101000a81548173ffffffffffffffffffffffffffffffffffffffff021916908373ffffffffffffffffffffffffffffffffffffffff1602179055505050565b600080611480613840565b61148a6002612a7f565b80935081925050508160106000015492509250509091565b6000806114ad613880565b6114b5613894565b6114bd613894565b6114c5613840565b6114cf6001612a7f565b809750819250505085600d60000180549050600d600001600d600101600d6002018280548060200260200160405190810160405280929190818152602001828054801561157157602002820191906000526020600020905b8160009054906101000a900473ffffffffffffffffffffffffffffffffffffffff1673ffffffffffffffffffffffffffffffffffffffff1681526020019060010190808311611527575b50505050509250818054806020026020016040519081016040528092919081815260200182805480156115c357602002820191906000526020600020905b8154815260200190600101908083116115af575b505050505091508080548060200260200160405190810160405280929190818152602001828054801561161557602002820191906000526020600020905b815481526020019060010190808311611601575b5050505050905095509550955095509550509091929394565b611636613840565b60006116426000612a7f565b80925081935050508191505090565b600260003373ffffffffffffffffffffffffffffffffffffffff1673ffffffffffffffffffffffffffffffffffffffff16815260200190815260200160002060009054906101000a900460ff1615156116a957600080fd5b6116b5600082336128a6565b156116c3576116c2612b6e565b5b50565b6000809054906101000a900473ffffffffffffffffffffffffffffffffffffffff1673ffffffffffffffffffffffffffffffffffffffff163373ffffffffffffffffffffffffffffffffffffffff1614151561172157600080fd5b600073ffffffffffffffffffffffffffffffffffffffff168173ffffffffffffffffffffffffffffffffffffffff161415151561175d57600080fd5b7f3b81caf78fa51ecbc8acb482fd7012a277b428d9b80f9d156e8a54107496cc40600160009054906101000a900473ffffffffffffffffffffffffffffffffffffffff16604051808273ffffffffffffffffffffffffffffffffffffffff1673ffffffffffffffffffffffffffffffffffffffff16815260200191505060405180910390a180600160006101000a81548173ffffffffffffffffffffffffffffffffffffffff021916908373ffffffffffffffffffffffffffffffffffffffff16021790555050565b61182e613840565b600061183a6001612a7f565b80925081935050508191505090565b3373ffffffffffffffffffffffffffffffffffffffff16600160009054906101000a900473ffffffffffffffffffffffffffffffffffffffff1673ffffffffffffffffffffffffffffffffffffffff161415156118a557600080fd5b7f65da1cfc2c2e81576ad96afb24a581f8e109b7a403b35cbd3243a1c99efdb9ed600160009054906101000a900473ffffffffffffffffffffffffffffffffffffffff166000809054906101000a900473ffffffffffffffffffffffffffffffffffffffff16604051808373ffffffffffffffffffffffffffffffffffffffff1673ffffffffffffffffffffffffffffffffffffffff1681526020018273ffffffffffffffffffffffffffffffffffffffff1673ffffffffffffffffffffffffffffffffffffffff1681526020019250505060405180910390a1600160009054906101000a900473ffffffffffffffffffffffffffffffffffffffff166000806101000a81548173ffffffffffffffffffffffffffffffffffffffff021916908373ffffffffffffffffffffffffffffffffffffffff1602179055506000600160006101000a81548173ffffffffffffffffffffffffffffffffffffffff021916908373ffffffffffffffffffffffffffffffffffffffff160217905550565b6000600d60000180549050905090565b6000809054906101000a900473ffffffffffffffffffffffffffffffffffffffff1673ffffffffffffffffffffffffffffffffffffffff163373ffffffffffffffffffffffffffffffffffffffff16141515611a9057600080fd5b600073ffffffffffffffffffffffffffffffffffffffff168173ffffffffffffffffffffffffffffffffffffffff1614151515611acc57600080fd5b7f3b81caf78fa51ecbc8acb482fd7012a277b428d9b80f9d156e8a54107496cc4081604051808273ffffffffffffffffffffffffffffffffffffffff1673ffffffffffffffffffffffffffffffffffffffff16815260200191505060405180910390a17f65da1cfc2c2e81576ad96afb24a581f8e109b7a403b35cbd3243a1c99efdb9ed816000809054906101000a900473ffffffffffffffffffffffffffffffffffffffff16604051808373ffffffffffffffffffffffffffffffffffffffff1673ffffffffffffffffffffffffffffffffffffffff1681526020018273ffffffffffffffffffffffffffffffffffffffff1673ffffffffffffffffffffffffffffffffffffffff1681526020019250505060405180910390a1806000806101000a81548173ffffffffffffffffffffffffffffffffffffffff021916908373ffffffffffffffffffffffffffffffffffffffff16021790555050565b611c32613840565b6005805480602002602001604051908101604052809291908181526020018280548015611cb457602002820191906000526020600020905b8160009054906101000a900473ffffffffffffffffffffffffffffffffffffffff1673ffffffffffffffffffffffffffffffffffffffff1681526020019060010190808311611c6a575b5050505050905090565b6000809054906101000a900473ffffffffffffffffffffffffffffffffffffffff1673ffffffffffffffffffffffffffffffffffffffff163373ffffffffffffffffffffffffffffffffffffffff16141515611d1957600080fd5b600660009054906101000a900473ffffffffffffffffffffffffffffffffffffffff1673ffffffffffffffffffffffffffffffffffffffff166375829def826040518263ffffffff167c0100000000000000000000000000000000000000000000000000000000028152600401808273ffffffffffffffffffffffffffffffffffffffff1673ffffffffffffffffffffffffffffffffffffffff168152602001915050600060405180830381600087803b1515611dd557600080fd5b6102c65a03f11515611de657600080fd5b50505050565b6000809054906101000a900473ffffffffffffffffffffffffffffffffffffffff1673ffffffffffffffffffffffffffffffffffffffff163373ffffffffffffffffffffffffffffffffffffffff16141515611e4757600080fd5b600260008273ffffffffffffffffffffffffffffffffffffffff1673ffffffffffffffffffffffffffffffffffffffff16815260200190815260200160002060009054906101000a900460ff16151515611ea057600080fd5b6032600480549050101515611eb457600080fd5b7f091a7a4b85135fdd7e8dbc18b12fabe5cc191ea867aa3c2e1a24a102af61d58b816001604051808373ffffffffffffffffffffffffffffffffffffffff1673ffffffffffffffffffffffffffffffffffffffff168152602001821515151581526020019250505060405180910390a16001600260008373ffffffffffffffffffffffffffffffffffffffff1673ffffffffffffffffffffffffffffffffffffffff16815260200190815260200160002060006101000a81548160ff02191690831515021790555060048054806001018281611f909190613854565b9160005260206000209001600083909190916101000a81548173ffffffffffffffffffffffffffffffffffffffff021916908373ffffffffffffffffffffffffffffffffffffffff1602179055505050565b600260003373ffffffffffffffffffffffffffffffffffffffff1673ffffffffffffffffffffffffffffffffffffffff16815260200190815260200160002060009054906101000a900460ff16151561203a57600080fd5b600073ffffffffffffffffffffffffffffffffffffffff168473ffffffffffffffffffffffffffffffffffffffff161415151561207657600080fd5b6000831415151561208657600080fd5b6000821415151561209657600080fd5b600081141515156120a657600080fd5b6120b06000613492565b83600960000160006101000a81548173ffffffffffffffffffffffffffffffffffffffff021916908373ffffffffffffffffffffffffffffffffffffffff16021790555082600960010181905550816009600201819055508060096003018190555050505050565b60008060009054906101000a900473ffffffffffffffffffffffffffffffffffffffff1673ffffffffffffffffffffffffffffffffffffffff163373ffffffffffffffffffffffffffffffffffffffff1614151561217557600080fd5b600260008373ffffffffffffffffffffffffffffffffffffffff1673ffffffffffffffffffffffffffffffffffffffff16815260200190815260200160002060009054906101000a900460ff1615156121cd57600080fd5b6000600260008473ffffffffffffffffffffffffffffffffffffffff1673ffffffffffffffffffffffffffffffffffffffff16815260200190815260200160002060006101000a81548160ff021916908315150217905550600090505b6004805490508110156123d9578173ffffffffffffffffffffffffffffffffffffffff1660048281548110151561225d57fe5b906000526020600020900160009054906101000a900473ffffffffffffffffffffffffffffffffffffffff1673ffffffffffffffffffffffffffffffffffffffff1614156123ce5760046001600480549050038154811015156122bc57fe5b906000526020600020900160009054906101000a900473ffffffffffffffffffffffffffffffffffffffff166004828154811015156122f757fe5b906000526020600020900160006101000a81548173ffffffffffffffffffffffffffffffffffffffff021916908373ffffffffffffffffffffffffffffffffffffffff16021790555060016004818180549050039150816123589190613814565b507f091a7a4b85135fdd7e8dbc18b12fabe5cc191ea867aa3c2e1a24a102af61d58b826000604051808373ffffffffffffffffffffffffffffffffffffffff1673ffffffffffffffffffffffffffffffffffffffff168152602001821515151581526020019250505060405180910390a16123d9565b80600101905061222a565b5050565b600260003373ffffffffffffffffffffffffffffffffffffffff1673ffffffffffffffffffffffffffffffffffffffff16815260200190815260200160002060009054906101000a900460ff16151561243557600080fd5b612441600182336128a6565b1561244f5761244e613506565b5b50565b600260003373ffffffffffffffffffffffffffffffffffffffff1673ffffffffffffffffffffffffffffffffffffffff16815260200190815260200160002060009054906101000a900460ff1615156124aa57600080fd5b825182511415156124ba57600080fd5b825181511415156124ca57600080fd5b6124d46001613492565b82600d60000190805190602001906124ed9291906138a8565b5081600d6001019080519060200190612507929190613932565b5080600d6002019080519060200190612521929190613932565b50505050565b6000612531613840565b61253b6001612a7f565b80935081925050508191505090565b6000809054906101000a900473ffffffffffffffffffffffffffffffffffffffff1673ffffffffffffffffffffffffffffffffffffffff163373ffffffffffffffffffffffffffffffffffffffff161415156125a557600080fd5b8073ffffffffffffffffffffffffffffffffffffffff166108fc839081150290604051600060405180830381858888f1935050505015156125e557600080fd5b7fec47e7ed86c86774d1a72c19f35c639911393fe7c1a34031fdbd260890da90de8282604051808381526020018273ffffffffffffffffffffffffffffffffffffffff1673ffffffffffffffffffffffffffffffffffffffff1681526020019250505060405180910390a15050565b600260003373ffffffffffffffffffffffffffffffffffffffff1673ffffffffffffffffffffffffffffffffffffffff16815260200190815260200160002060009054906101000a900460ff1615156126ac57600080fd5b6005811115156126bb57600080fd5b6126c56002613492565b8060106000018190555050565b60008060008060006126e2613840565b6126ec6000612a7f565b8097508192505050600960000160009054906101000a900473ffffffffffffffffffffffffffffffffffffffff169450600960010154935060096002015492506009600301549150858585858595509550955095509550509091929394565b600660009054906101000a900473ffffffffffffffffffffffffffffffffffffffff1681565b6000809054906101000a900473ffffffffffffffffffffffffffffffffffffffff1681565b6000806000806127a4613840565b85600d600001805490501115156127ba57600080fd5b85600d600101805490501115156127d057600080fd5b85600d600201805490501115156127e657600080fd5b6127f06001612a7f565b8093508192505050600d6000018681548110151561280a57fe5b906000526020600020900160009054906101000a900473ffffffffffffffffffffffffffffffffffffffff16600d6001018781548110151561284857fe5b906000526020600020900154600d6002018881548110151561286657fe5b906000526020600020900154849450945094509450509193509193565b61288b613840565b60006128976002612a7f565b80925081935050508191505090565b600080600780549050851015156128bc57600080fd5b836007868154811015156128cc57fe5b9060005260206000209060020201600101541415156128ea57600080fd5b600090505b6007858154811015156128fe57fe5b9060005260206000209060020201600001805490508110156129b85760078581548110151561292957fe5b90600052602060002090600202016000018181548110151561294757fe5b906000526020600020900160009054906101000a900473ffffffffffffffffffffffffffffffffffffffff1673ffffffffffffffffffffffffffffffffffffffff168373ffffffffffffffffffffffffffffffffffffffff1614156129ab57600080fd5b80806001019150506128ef565b6007858154811015156129c757fe5b906000526020600020906002020160000180548060010182816129ea9190613854565b9160005260206000209001600085909190916101000a81548173ffffffffffffffffffffffffffffffffffffffff021916908373ffffffffffffffffffffffffffffffffffffffff16021790555050600480549050600786815481101515612a4e57fe5b9060005260206000209060020201600001805490501415612a725760019150612a77565b600091505b509392505050565b612a87613840565b600060078054905083101515612a9c57600080fd5b600783815481101515612aab57fe5b9060005260206000209060020201600001600784815481101515612acb57fe5b90600052602060002090600202016001015481805480602002602001604051908101604052809291908181526020018280548015612b5e57602002820191906000526020600020905b8160009054906101000a900473ffffffffffffffffffffffffffffffffffffffff1673ffffffffffffffffffffffffffffffffffffffff1681526020019060010190808311612b14575b5050505050915091509150915091565b612b7661397f565b600860009054906101000a900473ffffffffffffffffffffffffffffffffffffffff1673ffffffffffffffffffffffffffffffffffffffff1663d48bfca7600960000160009054906101000a900473ffffffffffffffffffffffffffffffffffffffff166040518263ffffffff167c0100000000000000000000000000000000000000000000000000000000028152600401808273ffffffffffffffffffffffffffffffffffffffff1673ffffffffffffffffffffffffffffffffffffffff168152602001915050600060405180830381600087803b1515612c5757600080fd5b6102c65a03f11515612c6857600080fd5b505050600860009054906101000a900473ffffffffffffffffffffffffffffffffffffffff1673ffffffffffffffffffffffffffffffffffffffff16639870d7fe306040518263ffffffff167c0100000000000000000000000000000000000000000000000000000000028152600401808273ffffffffffffffffffffffffffffffffffffffff1673ffffffffffffffffffffffffffffffffffffffff168152602001915050600060405180830381600087803b1515612d2757600080fd5b6102c65a03f11515612d3857600080fd5b505050600860009054906101000a900473ffffffffffffffffffffffffffffffffffffffff1673ffffffffffffffffffffffffffffffffffffffff1663bfee3569600960000160009054906101000a900473ffffffffffffffffffffffffffffffffffffffff166009600101546009600201546009600301546040518563ffffffff167c0100000000000000000000000000000000000000000000000000000000028152600401808573ffffffffffffffffffffffffffffffffffffffff1673ffffffffffffffffffffffffffffffffffffffff168152602001848152602001838152602001828152602001945050505050600060405180830381600087803b1515612e4357600080fd5b6102c65a03f11515612e5457600080fd5b5050506001604051805910612e665750595b908082528060200260200182016040525090506000816000815181101515612e8a57fe5b9060200190602002018181525050600860009054906101000a900473ffffffffffffffffffffffffffffffffffffffff1673ffffffffffffffffffffffffffffffffffffffff166380d8b380600960000160009054906101000a900473ffffffffffffffffffffffffffffffffffffffff16838485866040518663ffffffff167c0100000000000000000000000000000000000000000000000000000000028152600401808673ffffffffffffffffffffffffffffffffffffffff1673ffffffffffffffffffffffffffffffffffffffff16815260200180602001806020018060200180602001858103855289818151815260200191508051906020019060200280838360005b83811015612fac578082015181840152602081019050612f91565b50505050905001858103845288818151815260200191508051906020019060200280838360005b83811015612fee578082015181840152602081019050612fd3565b50505050905001858103835287818151815260200191508051906020019060200280838360005b83811015613030578082015181840152602081019050613015565b50505050905001858103825286818151815260200191508051906020019060200280838360005b83811015613072578082015181840152602081019050613057565b505050509050019950505050505050505050600060405180830381600087803b151561309d57600080fd5b6102c65a03f115156130ae57600080fd5b505050600860009054906101000a900473ffffffffffffffffffffffffffffffffffffffff1673ffffffffffffffffffffffffffffffffffffffff1663bc9cbcc8600960000160009054906101000a900473ffffffffffffffffffffffffffffffffffffffff16838485866040518663ffffffff167c0100000000000000000000000000000000000000000000000000000000028152600401808673ffffffffffffffffffffffffffffffffffffffff1673ffffffffffffffffffffffffffffffffffffffff16815260200180602001806020018060200180602001858103855289818151815260200191508051906020019060200280838360005b838110156131c55780820151818401526020810190506131aa565b50505050905001858103845288818151815260200191508051906020019060200280838360005b838110156132075780820151818401526020810190506131ec565b50505050905001858103835287818151815260200191508051906020019060200280838360005b8381101561324957808201518184015260208101905061322e565b50505050905001858103825286818151815260200191508051906020019060200280838360005b8381101561328b578082015181840152602081019050613270565b505050509050019950505050505050505050600060405180830381600087803b15156132b657600080fd5b6102c65a03f115156132c757600080fd5b505050600860009054906101000a900473ffffffffffffffffffffffffffffffffffffffff1673ffffffffffffffffffffffffffffffffffffffff16631d6a8bda600960000160009054906101000a900473ffffffffffffffffffffffffffffffffffffffff166040518263ffffffff167c0100000000000000000000000000000000000000000000000000000000028152600401808273ffffffffffffffffffffffffffffffffffffffff1673ffffffffffffffffffffffffffffffffffffffff168152602001915050600060405180830381600087803b15156133ab57600080fd5b6102c65a03f115156133bc57600080fd5b505050600860009054906101000a900473ffffffffffffffffffffffffffffffffffffffff1673ffffffffffffffffffffffffffffffffffffffff1663ac8a584a306040518263ffffffff167c0100000000000000000000000000000000000000000000000000000000028152600401808273ffffffffffffffffffffffffffffffffffffffff1673ffffffffffffffffffffffffffffffffffffffff168152602001915050600060405180830381600087803b151561347b57600080fd5b6102c65a03f1151561348c57600080fd5b50505050565b600780549050811015156134a557600080fd5b6007818154811015156134b457fe5b90600052602060002090600202016001016000815480929190600101919050555060006007828154811015156134e657fe5b9060005260206000209060020201600001816135029190613814565b5050565b600080600080600d60010180549050600d6000018054905014151561352a57600080fd5b600d60020180549050600d6000018054905014151561354857600080fd5b600092505b600d6000018054905083101561380e57600860009054906101000a900473ffffffffffffffffffffffffffffffffffffffff1673ffffffffffffffffffffffffffffffffffffffff1663e7d4fd91600d600001858154811015156135ad57fe5b906000526020600020900160009054906101000a900473ffffffffffffffffffffffffffffffffffffffff166000604051606001526040518263ffffffff167c0100000000000000000000000000000000000000000000000000000000028152600401808273ffffffffffffffffffffffffffffffffffffffff1673ffffffffffffffffffffffffffffffffffffffff168152602001915050606060405180830381600087803b151561365f57600080fd5b6102c65a03f1151561367057600080fd5b50505060405180519060200180519060200180519050809350819450829650505050600084141515156136a257600080fd5b600860009054906101000a900473ffffffffffffffffffffffffffffffffffffffff1673ffffffffffffffffffffffffffffffffffffffff1663bfee3569600d600001858154811015156136f257fe5b906000526020600020900160009054906101000a900473ffffffffffffffffffffffffffffffffffffffff1686600d6001018781548110151561373157fe5b906000526020600020900154600d6002018881548110151561374f57fe5b9060005260206000209001546040518563ffffffff167c0100000000000000000000000000000000000000000000000000000000028152600401808573ffffffffffffffffffffffffffffffffffffffff1673ffffffffffffffffffffffffffffffffffffffff168152602001848152602001838152602001828152602001945050505050600060405180830381600087803b15156137ed57600080fd5b6102c65a03f115156137fe57600080fd5b505050828060010193505061354d565b50505050565b81548183558181151161383b5781836000526020600020918201910161383a9190613993565b5b505050565b602060405190810160405280600081525090565b81548183558181151161387b5781836000526020600020918201910161387a9190613993565b5b505050565b602060405190810160405280600081525090565b602060405190810160405280600081525090565b828054828255906000526020600020908101928215613921579160200282015b828111156139205782518260006101000a81548173ffffffffffffffffffffffffffffffffffffffff021916908373ffffffffffffffffffffffffffffffffffffffff160217905550916020019190600101906138c8565b5b50905061392e91906139b8565b5090565b82805482825590600052602060002090810192821561396e579160200282015b8281111561396d578251825591602001919060010190613952565b5b50905061397b9190613993565b5090565b602060405190810160405280600081525090565b6139b591905b808211156139b1576000816000905550600101613999565b5090565b90565b6139f891905b808211156139f457600081816101000a81549073ffffffffffffffffffffffffffffffffffffffff0219169055506001016139be565b5090565b90565b613a03613840565b6000604051805910613a125750595b9080825280602002602001820160405250905060078054806001018281613a399190613a91565b916000526020600020906002020160006040805190810160405280858152602001600081525090919091506000820151816000019080519060200190613a80929190613ac3565b506020820151816001015550505050565b815481835581811511613abe57600202816002028360005260206000209182019101613abd9190613b4d565b5b505050565b828054828255906000526020600020908101928215613b3c579160200282015b82811115613b3b5782518260006101000a81548173ffffffffffffffffffffffffffffffffffffffff021916908373ffffffffffffffffffffffffffffffffffffffff16021790555091602001919060010190613ae3565b5b509050613b499190613b84565b5090565b613b8191905b80821115613b7d5760008082016000613b6c9190613bc7565b600182016000905550600201613b53565b5090565b90565b613bc491905b80821115613bc057600081816101000a81549073ffffffffffffffffffffffffffffffffffffffff021916905550600101613b8a565b5090565b90565b5080546000825590600052602060002090810190613be59190613993565b505600a165627a7a72305820b85c2ac69f3c89871d628cf8c5ded16bae252b46da1e44da5fe854a1d701f6650029",
  "source": "pragma solidity 0.4.18;\n\n\nimport \"../ERC20Interface.sol\";\nimport \"../ConversionRates.sol\";\nimport \"./WrapperBase.sol\";\n\n\ncontract WrapConversionRate is WrapperBase {\n\n    ConversionRates internal conversionRates;\n\n    //add token parameters\n    struct AddTokenData {\n        ERC20     token;\n        uint      minimalResolution; // can be roughly 1 cent\n        uint      maxPerBlockImbalance; // in twei resolution\n        uint      maxTotalImbalance;\n    }\n\n    AddTokenData internal addTokenData;\n\n    //set token control info parameters.\n    struct TokenControlInfoData {\n        ERC20[] tokens;\n        uint[] perBlockImbalance; // in twei resolution\n        uint[] maxTotalImbalance;\n    }\n\n    TokenControlInfoData internal tokenControlInfoData;\n\n    //valid duration\n    struct ValidDurationData {\n        uint durationInBlocks;\n    }\n\n    ValidDurationData internal validDurationData;\n\n    //data indexes\n    uint constant internal ADD_TOKEN_DATA_INDEX = 0;\n    uint constant internal TOKEN_INFO_DATA_INDEX = 1;\n    uint constant internal VALID_DURATION_DATA_INDEX = 2;\n    uint constant internal NUM_DATA_INDEX = 3;\n\n    //general functions\n    function WrapConversionRate(ConversionRates _conversionRates, address _admin) public\n        WrapperBase(PermissionGroups(address(_conversionRates)), _admin, NUM_DATA_INDEX)\n    {\n        require(_conversionRates != address(0));\n        conversionRates = _conversionRates;\n    }\n\n    // add token functions\n    //////////////////////\n    function setAddTokenData(\n        ERC20 token,\n        uint minRecordResolution,\n        uint maxPerBlockImbalance,\n        uint maxTotalImbalance\n        ) public onlyOperator\n    {\n        require(token != address(0));\n        require(minRecordResolution != 0);\n        require(maxPerBlockImbalance != 0);\n        require(maxTotalImbalance != 0);\n\n        //update data tracking\n        setNewData(ADD_TOKEN_DATA_INDEX);\n\n        addTokenData.token = token;\n        addTokenData.minimalResolution = minRecordResolution; // can be roughly 1 cent\n        addTokenData.maxPerBlockImbalance = maxPerBlockImbalance; // in twei resolution\n        addTokenData.maxTotalImbalance = maxTotalImbalance;\n    }\n\n    function approveAddTokenData(uint nonce) public onlyOperator {\n        if (addSignature(ADD_TOKEN_DATA_INDEX, nonce, msg.sender)) {\n            // can perform operation.\n            performAddToken();\n        }\n    }\n\n    function getAddTokenData() public view\n        returns(uint nonce, ERC20 token, uint minRecordResolution, uint maxPerBlockImbalance, uint maxTotalImbalance)\n    {\n        address[] memory signatures;\n        (signatures, nonce) = getDataTrackingParameters(ADD_TOKEN_DATA_INDEX);\n        token = addTokenData.token;\n        minRecordResolution = addTokenData.minimalResolution;\n        maxPerBlockImbalance = addTokenData.maxPerBlockImbalance; // in twei resolution\n        maxTotalImbalance = addTokenData.maxTotalImbalance;\n        return(nonce, token, minRecordResolution, maxPerBlockImbalance, maxTotalImbalance);\n    }\n\n    function getAddTokenSignatures() public view returns (address[] memory signatures) {\n        uint nonce;\n        (signatures, nonce) = getDataTrackingParameters(ADD_TOKEN_DATA_INDEX);\n        return(signatures);\n    }\n\n    //set token control info\n    ////////////////////////\n    function setTokenInfoData(ERC20[] tokens, uint[] maxPerBlockImbalanceValues, uint[] maxTotalImbalanceValues)\n        public\n        onlyOperator\n    {\n        require(maxPerBlockImbalanceValues.length == tokens.length);\n        require(maxTotalImbalanceValues.length == tokens.length);\n\n        //update data tracking\n        setNewData(TOKEN_INFO_DATA_INDEX);\n\n        tokenControlInfoData.tokens = tokens;\n        tokenControlInfoData.perBlockImbalance = maxPerBlockImbalanceValues;\n        tokenControlInfoData.maxTotalImbalance = maxTotalImbalanceValues;\n    }\n\n    function approveTokenControlInfo(uint nonce) public onlyOperator {\n        if (addSignature(TOKEN_INFO_DATA_INDEX, nonce, msg.sender)) {\n            // can perform operation.\n            performSetTokenControlInfo();\n        }\n    }\n\n    function getControlInfoPerToken (uint index) public view\n        returns(ERC20 token, uint _maxPerBlockImbalance, uint _maxTotalImbalance, uint nonce)\n    {\n        require(tokenControlInfoData.tokens.length > index);\n        require(tokenControlInfoData.perBlockImbalance.length > index);\n        require(tokenControlInfoData.maxTotalImbalance.length > index);\n        address[] memory signatures;\n        (signatures, nonce) = getDataTrackingParameters(TOKEN_INFO_DATA_INDEX);\n\n        return(\n            tokenControlInfoData.tokens[index],\n            tokenControlInfoData.perBlockImbalance[index],\n            tokenControlInfoData.maxTotalImbalance[index],\n            nonce\n        );\n    }\n\n    function getTokenInfoNumToknes() public view returns(uint numSetTokens) {\n        return tokenControlInfoData.tokens.length;\n    }\n\n    function getTokenInfoData() public view\n        returns(uint nonce, uint numSetTokens, ERC20[] tokenAddress, uint[] maxPerBlock, uint[] maxTotal)\n    {\n        address[] memory signatures;\n        (signatures, nonce) = getDataTrackingParameters(TOKEN_INFO_DATA_INDEX);\n\n        return(\n            nonce,\n            tokenControlInfoData.tokens.length,\n            tokenControlInfoData.tokens,\n            tokenControlInfoData.perBlockImbalance,\n            tokenControlInfoData.maxTotalImbalance);\n    }\n\n    function getTokenInfoSignatures() public view returns (address[] memory signatures) {\n        uint nonce;\n        (signatures, nonce) = getDataTrackingParameters(TOKEN_INFO_DATA_INDEX);\n        return(signatures);\n    }\n\n    function getTokenInfoNonce() public view returns(uint nonce) {\n        address[] memory signatures;\n        (signatures, nonce) = getDataTrackingParameters(TOKEN_INFO_DATA_INDEX);\n        return nonce;\n    }\n\n    //valid duration blocks\n    ///////////////////////\n    function setValidDurationData(uint validDurationBlocks) public onlyOperator {\n        require(validDurationBlocks > 5);\n\n        //update data tracking\n        setNewData(VALID_DURATION_DATA_INDEX);\n\n        validDurationData.durationInBlocks = validDurationBlocks;\n    }\n\n    function approveValidDurationData(uint nonce) public onlyOperator {\n        if (addSignature(VALID_DURATION_DATA_INDEX, nonce, msg.sender)) {\n            // can perform operation.\n            conversionRates.setValidRateDurationInBlocks(validDurationData.durationInBlocks);\n        }\n    }\n\n    function getValidDurationBlocksData() public view returns(uint validDuration, uint nonce) {\n        address[] memory signatures;\n        (signatures, nonce) = getDataTrackingParameters(VALID_DURATION_DATA_INDEX);\n        return(nonce, validDurationData.durationInBlocks);\n    }\n\n    function getValidDurationSignatures() public view returns (address[] memory signatures) {\n        uint nonce;\n        (signatures, nonce) = getDataTrackingParameters(VALID_DURATION_DATA_INDEX);\n        return(signatures);\n    }\n\n    function performAddToken() internal {\n        conversionRates.addToken(addTokenData.token);\n\n        conversionRates.addOperator(this);\n\n        //token control info\n        conversionRates.setTokenControlInfo(\n            addTokenData.token,\n            addTokenData.minimalResolution,\n            addTokenData.maxPerBlockImbalance,\n            addTokenData.maxTotalImbalance\n        );\n\n        //step functions\n        int[] memory zeroArr = new int[](1);\n        zeroArr[0] = 0;\n\n        conversionRates.setQtyStepFunction(addTokenData.token, zeroArr, zeroArr, zeroArr, zeroArr);\n        conversionRates.setImbalanceStepFunction(addTokenData.token, zeroArr, zeroArr, zeroArr, zeroArr);\n\n        conversionRates.enableTokenTrade(addTokenData.token);\n\n        conversionRates.removeOperator(this);\n    }\n\n    function performSetTokenControlInfo() internal {\n        require(tokenControlInfoData.tokens.length == tokenControlInfoData.perBlockImbalance.length);\n        require(tokenControlInfoData.tokens.length == tokenControlInfoData.maxTotalImbalance.length);\n\n        uint minRecordResolution;\n\n        for (uint i = 0; i < tokenControlInfoData.tokens.length; i++) {\n            uint maxPerBlock;\n            uint maxTotal;\n            (minRecordResolution, maxPerBlock, maxTotal) =\n                conversionRates.getTokenControlInfo(tokenControlInfoData.tokens[i]);\n            require(minRecordResolution != 0);\n\n            conversionRates.setTokenControlInfo(tokenControlInfoData.tokens[i],\n                minRecordResolution,\n                tokenControlInfoData.perBlockImbalance[i],\n                tokenControlInfoData.maxTotalImbalance[i]);\n        }\n    }\n}\n\n",
  "sourcePath": "/Users/oscarr/Ethereum/frappe/contracts/wrapperContracts/WrapConversionRate.sol",
  "compiler": {
    "name": "solc",
    "version": "0.4.18+commit.9cf6e910.Emscripten.clang"
  },
  "schemaVersion": "3.0.6",
  "updatedAt": "2019-05-18T17:14:13.559Z",
  "devdoc": {
    "methods": {
      "claimAdmin()": {
        "details": "Allows the pendingAdmin address to finalize the change admin process."
      },
      "transferAdmin(address)": {
        "details": "Allows the current admin to set the pendingAdmin address.",
        "params": {
          "newAdmin": "The address to transfer ownership to."
        }
      },
      "transferAdminQuickly(address)": {
        "details": "Allows the current admin to set the admin in one tx. Useful initial deployment.",
        "params": {
          "newAdmin": "The address to transfer ownership to."
        }
      },
      "withdrawEther(uint256,address)": {
        "details": "Withdraw Ethers"
      },
      "withdrawToken(address,uint256,address)": {
        "details": "Withdraw all ERC20 compatible tokens",
        "params": {
          "token": "ERC20 The address of the token contract"
        }
      }
    }
  },
  "userdoc": {
    "methods": {
      "setAddTokenData(address,uint256,uint256,uint256)": {
        "notice": "///////////////////"
      },
      "setTokenInfoData(address[],uint256[],uint256[])": {
        "notice": "/////////////////////"
      },
      "setValidDurationData(uint256)": {
        "notice": "////////////////////"
      }
    }
  }
}